:1000000050520020710F0000C10F0000090E0000C7
:10001000090E0000090E0000090E0000090E000084
:10002000090E0000090E0000090E0000FD09000085
:10003000090E0000090E0000B9090000090E0000B9
:10004000350F0000CB8E0000350F0000350F00008B
:10005000350F0000350F0000350F0000350F000090
:10006000350F0000350F0000350F0000350F000080
:10007000350F0000350F0000350F0000350F000070
:10008000350F0000350F0000350F0000350F000060
:10009000350F0000350F0000350F0000350F000050
:1000A000350F0000350F0000350F0000350F000040
:1000B000350F0000350F0000350F0000350F000030
:1000C000350F0000350F0000350F0000350F000020
:1000D000350F0000350F0000350F0000350F000010
:1000E000350F0000350F0000350F0000350F000000
:1000F000350F0000350F00000000000089160000D9
:1001000000000000810D000000000000810D0000D3
:1001100000000000810D000000000000810D0000C3
:1001200000000000810D00006C6200206D180000CE
:1001300000000000810D000000000000810D0000A3
:1001400000000000810D000000000000810D000093
:1001500000000000918E000000000000810D0000F2
:1001600048620020351C000000000000810D0000E6
:1001700000000000810D000000000000810D000063
:1001800000000000751D000000000000810D00004F
:1001900000000000810D000000000000810D000043
:1001A00000000000810D000000000000810D000033
:1001B00000000000810D000000000000C58E00005E
:1001C00000000000810D000000000000810D000013
:1001D00000000000810D000000000000810D000003
:1001E00000000000810D000000000000810D0000F3
:1001F00000000000810D000000000000810D0000E3
:1002000000000000810D000000000000810D0000D2
:1002100000000000810D000000000000810D0000C2
:1002200000000000810D000000000000810D0000B2
:1002300000000000810D000000000000810D0000A2
:1002400000000000810D000000000000810D000092
:1002500000000000810D000000000000810D000082
:1002600000000000810D000053B94AB9002908BF01
:1002700000281CBF4FF0FF314FF0FF3000F08EB967
:10028000ADF1080C6DE904CE00F01AF8DDF804E0D9
:10029000DDE9022304B07047430803F05533C01A68
:1002A000830803F0333300F03330184400EB1010B0
:1002B00000F00F3000EB002000EB0040000E704714
:1002C0002DE9F0478C460D460446089E002B51D17F
:1002D0008A4217466DD9B2FA82FEBEF1000F0BD0EA
:1002E000CEF1200C01FA0EF520FA0CFC02FA0EF702
:1002F0004CEA050C00FA0EF44FEA174A250CBCFB39
:10030000FAF81FFA87F90AFB18CC45EA0C4508FBF6
:1003100009F3AB420AD9ED1908F1FF3280F02381CD
:10032000AB4240F22081A8F102083D44ED1AA4B28C
:10033000B5FBFAF00AFB105544EA054400FB09F945
:10034000A14509D9E41900F1FF3380F00A81A145E4
:1003500040F2078102383C44A4EB090440EA08401B
:100360000021002E61D024FA0EF400233460736063
:10037000BDE8F0878B4207D9002E54D0002186E8D3
:1003800021000846BDE8F087B3FA83F1002940F068
:100390008E80AB4202D3824200F2FA80841A65EB6F
:1003A00003050120AC46002E3FD086E81010BDE8C2
:1003B000F08712B90127B7FBF2F7B7FA87FEBEF153
:1003C000000F34D1EB1B3A0C1FFA87FC0121B3FB61
:1003D000F2F8250C02FB183345EA03450CFB08F341
:1003E000AB4207D9ED1908F1FF3002D2AB4200F25F
:1003F000D1808046ED1AA3B2B5FBF2F002FB105596
:1004000043EA05440CFB00FCA44507D9E41900F1BC
:10041000FF3302D2A44500F2B8801846A4EB0C04C6
:1004200040EA08409DE731463046BDE8F087CEF10E
:10043000200405FA0EF307FA0EF720FA04F83A0C36
:1004400025FA04F448EA0308B4FBF2F14FEA184530
:1004500002FB11441FFA87FC45EA044501FB0CF33B
:10046000AB4200FA0EF409D9ED1901F1FF3080F02A
:100470008A80AB4240F2878002393D44EB1A1FFA72
:1004800088F5B3FBF2F002FB103345EA034500FBAD
:100490000CF3AB4207D9ED1900F1FF386FD2AB4234
:1004A0006DD902383D44EB1A40EA01418FE7C1F1B2
:1004B000200722FA07F88B4005FA01F448EA030303
:1004C00020FA07FE4FEA134CFD404EEA040EB5FB3E
:1004D000FCF94FEA1E440CFB19551FFA83F844EA55
:1004E000054509FB08F4AC4202FA01F200FA01FAF0
:1004F00008D9ED1809F1FF3043D2AC4241D9A9F136
:1005000002091D442D1B1FFA8EFEB5FBFCF00CFBEF
:1005100010554EEA054400FB08F8A04507D9E41839
:1005200000F1FF3529D2A04527D902381C4440EA02
:100530000940A4EB0804A0FB02894C45C6464D4681
:1005400015D312D056B1BAEB0E0364EB050404FACE
:1005500007F7CB401F43CC40376074600021BDE8F3
:10056000F0871846F8E69046E0E6C245EAD2B8EBD6
:10057000020E69EB03050138E4E72846D7E7404659
:1005800091E78146BEE7014678E702383C4445E7FB
:10059000084608E7A8F102083D442BE7704700BF72
:1005A0000139034611F8012F0AB91A70704703F890
:1005B000012BF7E70138013910F8013F11F8012F3D
:1005C000934202D1002BF7D11A46981A704770B5A2
:1005D00082B1013A0C46034603D11A782078101AEA
:1005E00070BD1E782578AE4200F1010001F10101D5
:1005F000EFD0F2E7104670BD81EA000313F0030F5D
:1006000070B503460BD0013B0A4491421BD170BD2B
:10061000002AFCD011F8014B03F8014B013A9C076A
:10062000F6D11E1F0D46541B0C44032C06D822F095
:1006300003042144234402F00302E4E755F8044B89
:1006400046F8044FEFE711F8014B03F8014FDCE7E0
:1006500070B5C9B203469C0711D141EA012444EAAE
:1006600004441E46951B1D44032D0ED822F003049E
:10067000234402F003021A44934209D170BD002AB8
:10068000FCD003F8011B013AE5E746F8044BE9E723
:1006900003F8011BF0E7000070B5072A90B005468B
:1006A0001E462AD1037806AC032B2ED8DFE803F0D0
:1006B0000227292B26492046FFF772FFAB790594C4
:1006C0006A780492AA780392EA7802922A790192CF
:1006D0006A7900921B211F4A09A800F06FFEB188B9
:1006E0001D4800F05DFEB388ABB91C4800F058FE11
:1006F0001B4B1C48196800F053FE10B070BD1A491E
:10070000D9E71A49D7E71A49D5E71A4A0A212046F4
:1007100000F054FED2E73C2B81BF114A136801332D
:10072000136000233268511C31601278E2540133A7
:100730000B2BF7D11048114E00F032FE0025615D01
:100740003046013500F02CFE0A2DF8D1CDE700BF70
:1007500074B200009DB20000C0B20000ECB2000014
:1007600000000020CBB200007BB2000082B200008B
:100770008CB2000096B20000D7B20000EEB20000CA
:1007800007B5124B186800909B881148ADF80430EB
:1007900000F006FE002002F0FFF8014610B10D48FF
:1007A00000F0FEFD0C4800F0FBFD0C49684602F02D
:1007B00049F9014628B10A4800F0F2FD03B05DF89E
:1007C00004FB084800F0ECFDF8E700BFC4B10000EE
:1007D000F1B1000008B2000028B200009906000044
:1007E0003FB2000062B20000054B1B68082B01BF3E
:1007F000044B1868B0FA80F0400918BF0020704719
:10080000300100103401001008B54FF02003EFF361
:10081000118183F31188FFF7E7FF40B14FF0804368
:100820000022C3F80C21C3F81021C3F83825FFF7C4
:10083000DBFF10B1384B394A1A60FFF7D5FF18B10A
:10084000374BFB22C3F81825FFF7CEFF48B13548D8
:10085000354B02681B6822F00F0203F00F031343AD
:100860000360FFF7C1FF18B1304B4FF400721A60FC
:10087000FFF7BAFF48B14FF08043D3F80024D20706
:1008800044BF6FF00102C3F800244FF01023D3F8E7
:100890000022002A03DBD3F80432002B2FDA244B8A
:1008A0000122C3F80425D3F80024002AFBD04FF01E
:1008B00010221221C2F80012D3F80024002AFBD023
:1008C0004FF010231222C3F80422194B1A46D3F812
:1008D00000140029FBD00021C3F80415D2F800341D
:1008E000002BFBD0BFF34F8F1249134BCA6802F4A1
:1008F000E0621343CB60BFF34F8F00BFFDE70D4BAA
:100900004FF0FF329A62DA620C4B0D4A1A6081F3A3
:100910001188002008BD00BF8C56004048810300AC
:1009200000F00040E40E00405802001040960240E3
:1009300000E0014000ED00E00400FA05D45F002073
:100940000090D003084881684A897F2A0BD8C06983
:10095000884208D000B509F07DFE5DF804EB03493C
:100960004FF080520A6070478420002004ED00E0C0
:10097000044800232021C21801332E2B82F80013D3
:10098000F9D1704700E100E0084A09499368096815
:100990005966084918664B6843F080534B60002342
:1009A00083F311889368586E704700BF842000203D
:1009B000BCB8000000ED00E00E498A682820104411
:1009C000EFF3098C80E8F01F0B4F4FF000662020FA
:1009D00080F31188CA698A603E60106E0023136636
:1009E00080F3118802F1280090E8F01F8CF3098849
:1009F000704700008420002004ED00E01EF0040F8A
:100A00000CBFEFF30880EFF30980816931F8021C15
:100A100011F0FF0101D0022907D0404080F3118876
:100A200004494FF080520A60704700B500F02CFA7C
:100A300000BD000004ED00E010B5044609F0E0FD43
:100A400022680146BDE81040014800F0A9BC00BF83
:100A50005BB4000010B504461A4800F0A1FC04F194
:100A60001800194CFFF7E8FFA36A9A0102D517484E
:100A700000F096FCA36ADB0102D5154800F090FC5B
:100A8000A36A180302D5134800F08AFC0E4CA36A2F
:100A9000590302D5104800F083FCA36A9A0302D5DB
:100AA0000E4800F07DFCA36ADB0302D50C4800F081
:100AB00077FC054A936A6FEA03436FEA1343936234
:100AC00010BD00BF5CB5000000ED00E075B5000092
:100AD00089B50000A4B50000C3B50000E9B5000069
:100AE00004B6000038B5044619480D4600F058FC1D
:100AF00004F11800174CFFF79FFFA36AD90604D52D
:100B00001548BDE8384000F04BBCA36A1A0701D570
:100B10001248F6E7A36A9B070FD5114800F040FC86
:100B2000616BA36A180612D50E4800F039FC75B146
:100B3000A36A23F08003A36238BDA36ADA0701D554
:100B40000948DEE7A36A9B0601D50848D9E738BD06
:100B5000A5B4000000ED00E0BCB40000CEB400007D
:100B6000E2B40000FBB400000CB500002CB500009E
:100B700038B504461D480D4600F012FC04F118007B
:100B80001B4CFFF759FFA36AD80404D51948BDE8E8
:100B9000384000F005BCA36A190501D51648F6E7F0
:100BA000A36A9A0514D5154800F0FAFBA16BA36A55
:100BB0001B0407D5124800F0F3FB1DB1A36A23F410
:100BC0000043A3620A4B9B6A58050ED50D48DEE729
:100BD000A36A5905FAD4A36ADA0501D50A48D6E70B
:100BE000A36A9B0401D50948D1E738BD22B30000B0
:100BF00000ED00E0BCB40000CEB4000039B300004A
:100C0000FBB4000053B300006FB300002CB500002C
:100C100038B5274D6B68C3F30803DA1E0446092A6A
:100C20003AD8DFE802F00533352F39393939393709
:100C3000204800F0B5FBEB6A9A0703D51E4800F088
:100C4000AFFB0CE0EB6A5B0009D51C4800F0A8FB89
:100C50001B4B1B784BB101212046FFF743FF214678
:100C60000020BDE8384000F013B9164B1B7823B1C3
:100C700001212046FFF77CFFF1E7134B1B889BB255
:100C8000002BECD02046FFF7E5FEE8E70021E3E784
:100C90000021EEE70D48D2E70D480E49A3F11002FE
:100CA0000F2BD8BF01460C4800F07AFBD7E700BFF6
:100CB00000ED00E0B6B30000CEB30000F0B30000DA
:100CC00028ED00E029ED00E02AED00E010B400007E
:100CD00088B300009DB3000047B40000024A536986
:100CE00043F010035361704700ED00E043B2002B66
:100CF00008DB012200F01F0002FA00F05B09024A43
:100D000042F82300704700BF00E100E043B2002B2F
:100D10000DDB01225B0900F01F0002FA00F0203316
:100D2000034A42F82300BFF34F8FBFF36F8F704722
:100D300000E100E04209054B00F01F0053F82220BB
:100D4000012303FA00F01040704700BF00E100E00B
:100D500043B2002BA8BF03F1604301F101014FEA48
:100D60004111ADBF03F5614300F00F00034BC9B261
:100D7000B6BFC9B283F800131954704714ED00E0F0
:100D800000F042B808B572B6044B986918B1002259
:100D90009A6109F0ABF862B608BD00BF842000205C
:100DA000F8B50C4616461F4604220A9B09990546CB
:100DB00009F034FFA6F1200121440C4AAC6521F072
:100DC0000701002322F00102EB642B65EE658A61C6
:100DD000069A4A60079A8A60089ACA600F604FF0C4
:100DE0008072CA61A9642B66F8BD00BF91AA000099
:100DF000014910220A60704710ED00E0404080F386
:100E0000118830BF704700BF404080F31188DFF881
:100E10001CC0DCF800C01CF4006C0CBFEFF30880B1
:100E2000EFF3098000B5FFF7F3FE00BD04ED00E02D
:100E3000042838B504460D4613D0052813D00328DE
:100E400013D10C4800F0ACFA09F0DAFBAA690146AC
:100E5000094800F0A5FA29462046BDE8384000F0D0
:100E600017B80648EEE70648ECE70146054800F0EB
:100E700097FAE9E730B60000AEB6000056B60000BB
:100E800070B600008BB6000001460068FFF7D0BFC7
:100E9000052810B50CD009F0E3FD60B109F0E0FDC4
:100EA0000C4B0D49002808BF19460C4800F078FA91
:100EB000FFF7A4FFFCE709F0E3FD0028EED1084CA2
:100EC0000848A16800F06CFAA068BDE8104000F086
:100ED0000BB800BFEEB60000EAB60000FFB6000097
:100EE000842000201FB7000038B505464FF02003CE
:100EF000EFF3118483F3118809F020FE0B4B9B68FC
:100F00009D420DD10A4B5A68C2F3080222B909F07A
:100F1000A1FB2046FFF738FD5A6842F080525A6024
:100F20002046BDE8384009F0F9BA00BF842000200F
:100F300000ED00E000B572B60B4A906900281EBFB4
:100F40000021916108F0D2FF62B6EFF30580A0F1B5
:100F500010004FEAC0000549014409C998475DF8EF
:100F600004EBFFF7EFBC000084200020F800000035
:100F7000202080F3118805484FF40061401880F369
:100F80000988022080F3148800F006B890530020EE
:100F900030BFFFF7FDBF00BF08B5074B074A23F07E
:100FA0007F039360BFF34F8FBFF36F8F08F0CEFFC7
:100FB00008F0D6FF08F0FCFF0000000000ED00E0A4
:100FC00008B5FFF7E5FFBDE80840FFF7BBBC000030
:100FD000154B16491A6830B50D68C2F307229542C1
:100FE0000FD8002248685A60954200F10C000AD1DF
:100FF00005225A600E4B01221A70BFF34F8FBFF3C8
:101000006F8F002030BD50F80C1C50F8044C9A60D3
:1010100021F01F0141F01001114344F00104D96097
:1010200001321C61E0E700BF90ED00E0905F00201E
:1010300004000020002070470B6801330B60014B57
:101040001B681847D85F00202DE9F04F85B09B46FC
:101050000E9CDFF890A0012CB8BF0124012B0CBF1F
:1010600030232023154680468946019402930126A9
:101070000A2700220AF101040AB9AA451FD2B5FBCA
:10108000F4F049463030C04701360122013F012FBC
:10109000B5FBF4F14FF00A0304FB1155BAFBF3FA68
:1010A000E8D1494605F13000C047BBF1030F03D139
:1010B000019B9C1B002C0FDC05B0BDE8F08F019B51
:1010C000BB42E3DBBBF1020FE0D849460298039232
:1010D0000136C047039AD9E749462020C047013C62
:1010E000E8E700BFFFC99A3B0A688B6830B512B1C8
:1010F0004C68A34202DB01338B6030BD651EAB42FE
:101100000BBF8C605C1C00218C600CBFD154D05490
:1011100030BD0000014B1860704700BFD85F002051
:101120002DE9F04F89B04FF0000A06460F460492B1
:101130001C464FF0FF39D0465546049B187810B92D
:1011400009B0BDE8F08F45B9252800F00C8139467B
:10115000B047049B01330493EFE7642861D019D8AA
:1011600039280AD8312850D22D283CD030283DD0FB
:10117000252808D13946B0476FE0582800F089800B
:10118000632800F0EA8039462520B047049B3946A1
:101190001878F0E7702872D006D8692841D06C28FA
:1011A0003CD06828D5D0EEE7752858D017D87328DA
:1011B000E9D1236804F1040B1C46254615F8010B00
:1011C000002840F0BF80B8F1030F40F0D580E41A4A
:1011D000A9EB0404002C00F3BB805C463DE07828BA
:1011E00057D07A28DEE74FF00308B2E7B9F1000FD5
:1011F0000EDAB8F1000F00F0BC80A0F13009B8F1B0
:10120000000F08BF4FF00208A3E7B9F1000FF4DBAD
:101210000A2303FB0909A9F13009F0E70AF1010AE1
:1012200097E7BAF1010FC5BF073424F0070325681B
:101230001D68D4BF043403F10804002D05DA3946D3
:101240002D20B0476D4209F1FF39CDF8009043469B
:101250002A4639463046FFF7F7FE002579E7BAF10E
:10126000010FC5BF073424F0070322681A68CDF8C0
:101270000090CCBF03F1080404344346E9E7394643
:101280003020B04739467820B0474FF008094FF07A
:101290000108BAF1010FC7BF073424F00703236820
:1012A0000593C2BF03F108041B6805934FF00802C1
:1012B0004FF00003D8BF04340393079393460BF118
:1012C000FF3B059B4FEA8B0023FA00F010F00F0064
:1012D00009D1079B13B9BBF1000F22D14FF0300E9B
:1012E00007E0069AEBE709288CBF4FF0570E4FF046
:1012F000300E394670440692B047039B0795013380
:101300000393BBF1000FECD1B8F1030FA5D1039B00
:10131000C3EB4905002DA0DD39462020B047013D33
:10132000F8E7531E91450693EBDBB8F1010F03D1AB
:1013300039463020B047E4E7B8F1020FE1D1394631
:101340002020F7E7394603932C46B047039B34E748
:1013500039462020B047013C3CE72068251D39462E
:10136000B0472C4679E7AA46A8464FF0FF39012539
:10137000EFE64FF00108ECE65C460546E9E60000C2
:1013800013B502AC002344F8043D02460B46034863
:101390002146FFF7C5FE019802B010BD39100000CC
:1013A0000FB407B504A951F8040B0191FFF7E8FF4A
:1013B00003B05DF804EB04B0704700000CB430B526
:1013C00085B008AB044653F8042B01900291002528
:1013D00001A9074800930395FFF7A2FE0398029B1B
:1013E0009842B8BF255405B0BDE8304002B0704700
:1013F000E91000007047000013B5114CBFF35B8F7C
:101400002068BFF35B8F60B90E4808F049FDBFF359
:101410005B8F54E8003F44E80002002AF9D1BFF393
:101420005B8F436804221B680DEB0201984700287C
:1014300002DA00F00DFD0190019802B010BD00BF6E
:101440000800002044B700000A2838B50446074DBC
:1014500004D1286843680D215B6898472868436871
:10146000E1B25B689847204638BD00BF0C00002001
:101470000148FFF74FBE00BF4914000008B50448FB
:1014800008F00EFD034B1860FFF7F2FF002008BDC7
:101490004EB700000C00002010B54FF02003EFF312
:1014A000118283F31188114C237823B982F31188B8
:1014B0006FF0440010BD013BDBB2237023B182F317
:1014C00011886FF00F0010BD094B1878012128B169
:1014D000217082F311886FF00A0010BD197082F339
:1014E00011884FF080425160187010BD120000202A
:1014F0001100002008B5002210460121FFF728FC4A
:101500000020FFF7F3FB002008BD0000F8B54FF006
:101510002002EFF3118382F31188254A1078441CCE
:10152000147060B183F311884FF08043D3F80C340A
:1015300013F4803F14BF00206FF04300F8BD1D4D31
:101540002F782FB1107083F311886FF00A00F8BD67
:1015500001262E7083F311884FF0804419B338466A
:10156000FFF7D4FBC4F80071D4F80433C4F8046363
:101570002660D4F8002192B10022C4F800210E4A5E
:1015800013F0010F4FF0010308BFC4F80833002027
:10159000C2F88031FFF7AAFB00232B70C4E720BFFD
:1015A00040BF20BFE5E7C4F800112660F4E700BFA4
:1015B000120000201100002000E100E0F8B506460E
:1015C0000C464FF02002EFF3118382F311882C4A6E
:1015D000157865B183F311884FF08043D3F8183440
:1015E00013F4803F0CBF6FF043000020F8BD0127CB
:1015F000177083F311882846FFF788FB4FF080436C
:101600000221C3F80451D3F80423C3F80413C3F828
:1016100018459F60D3F8041171B39207194F58BF52
:1016200002224FF000014FF00105C3F804114FF002
:10163000000058BFC3F80823C7F88051FFF756FBD6
:101640004FF0804300211822C3F80823C3F80C117F
:10165000C3F8101114F00301BED11020C3F83805EF
:10166000C3F804233046C3F80453FFF74FFF0028A4
:10167000B2D1C7F80051AFE720BF40BF20BFC9E7D4
:101680001000002000E100E0F8B54FF0804305466F
:10169000D3F808E1D3F80423D3F80C44D3F800714D
:1016A000D3F80401D3F80C11D3F8106102F0010251
:1016B000BEF1000F03D04FF0000EC3F808E127B1D0
:1016C0004FF080430027C3F800713AB1E30341BFF4
:1016D0004FF080430122C3F808231A6120B14FF074
:1016E00080430022C3F8042149B14FF08044002117
:1016F000C4F80C112846FFF7CFFE0123636176B1D1
:101700004FF0804300210124C3F810112846C3F88C
:101710000443FFF7FBFE10B9014BC3F80041F8BDCD
:1017200000E100E003689B689A68836810B5DC6894
:10173000002024FA00F3DB0707D500F5A27352F866
:101740002330C3F304238B4204D001300828F0D1A6
:101750006FF0120010BD00688068006841B9D0F8D1
:10176000101521FA02F202F001021A6000207047FF
:10177000D0F81025F9E700688068006849B90121B0
:1017800091401BB1C0F8081500207047C0F80C1537
:10179000FAE7C0F80435F7E710B583683AB11A687C
:1017A0000A605A68196002B95960002010BD1868B3
:1017B0000028FAD081420ED15C68086832B9A14293
:1017C000186000D1586000230B60EEE7A142106062
:1017D00008BF5A60F7E702460068E9E7F8B5144623
:1017E0000268876892680D469668A1B92146FFF79E
:1017F00099FF002811DBBA68012303FA04F41443AB
:1018000000F1400203FA00F0BC6046F82250C6F82E
:1018100004032846F8BD6FF02200F8BDF8B5144661
:101820000268866892680D46976889B92146FFF775
:1018300079FF00280EDBB268012303FA04F403FAEF
:1018400000F022EA0404B460C7F808032846F8BD93
:101850006FF02200F8BD08B5002201210620FFF735
:1018600077FA0620FFF742FA002008BDF8B50368B2
:1018700006469B68B46898680022134615460127FF
:1018800000EB8201D1F800E1BEF1000F08D0C1F8F1
:101890000051D1F81015C1F3042107FA01F10B43EF
:1018A0000132082AECD1A56806201D40FFF72EFA68
:1018B000246824B90620BDE8F840FFF717BAA368EA
:1018C0001D42F5D063682A46214630469847EFE727
:1018D0002DE9F84314460268876892688046956847
:1018E000106819B16FF02200BDE8F88303F440726C
:1018F000B2F5807FC3F30131C3F3813903F4403E75
:1019000056D0B2F5007F0CBF04220022BEF5803F06
:1019100008BF4FF0000E13F0010FDFF8C8C04FEA08
:10192000810104F5E0764ED00C2A43D14FF0010E30
:101930000EFA04FEC0F808E549445CF8211041F0B5
:1019400003010A4340F8262013F0020047D099060D
:10195000C8D55A063ED413F0040F14BF4FF4803696
:101960004FF40036F868FEF797FC082835D021467A
:101970004046FFF7D7FE0028FB6808DADA4392FA00
:10198000A2F0002AB0FA80F008BF4FF0FF30240226
:10199000012204F4F854824044F0010400F5A270DE
:1019A00013433443FB6045F820400020BDE8F88332
:1019B0000C22ABE7042A02BF4FF0010E0EFA04FE20
:1019C000C0F80CE5B8E749445CF821100A4342EA44
:1019D0000E02B7E74FF44036C4E76FF00400BDE8ED
:1019E000F88300BF88B7000003689B681B68D3F8C2
:1019F000082132B10020C3F80801D3F818350B7064
:101A000070474FF0FF30704703689B681B68C3F84E
:101A10001C15D3F81C21002AFBD00022C3F81C217E
:101A20000846704703689B681B68D3F8240118B107
:101A3000D3F88004C3F8800400F00F007047000062
:101A4000F8B503689B68054618481C6808F028FA32
:101A5000436806461F68062240F201130021B8477A
:101A600073681F680023194608223046B8470623CA
:101A7000C4F80C350823C4F81435AB684FF4E132D0
:101A80001A602B689B681B684FF0EB72C3F8242523
:101A90000423C4F8003500200123C4F81C01C4F855
:101AA0000801A3602360024B6B60F8BDF0B7000033
:101AB00000B800002DE9F0418378C4781E1DA342D0
:101AC0000A4406441FD8E41AE4B2A1423EBF641A95
:101AD000E7B20C462344A1EB040128BF0027DBB288
:101AE000C9B23444A64209D183704378BB4282BF55
:101AF000204B01221A600846BDE8F08116F8015B10
:101B000002F8015DEEE70578ED1AEDB2A9423FBF9C
:101B1000671AED19EFB20D4638BF5B18A1EB05014E
:101B200032BFDBB227460023C9B2964606EB050C4E
:101B3000664519D1521B0029D6D0002CD4D08C4236
:101B40008ABF0B462346641A00F10406A1EB030189
:101B50008CBFE7B20027C9B2F418A642C4D016F869
:101B6000015B02F8015DF8E716F8018B0EF8018DB4
:101B7000DEE700BF00D0004030B5D0B1C2780578B4
:101B80008478531CDBB2AB4208BF0023A34210D0C1
:101B900061B10A490244D1F808151171C3700133CB
:101BA000DBB29D4208BF0023A34205D06FF00F00B7
:101BB00030BD6FF0360030BD002030BD00D0004099
:101BC00070B5846801221146204608F06DFD04F1CD
:101BD00018000122002108F067FD042384F8313049
:101BE0000C23002584F83D300521114B84F830107A
:101BF0000D2684F8335084F8325084F83C6084F821
:101C00003F5084F83E50D3F8042542F00102C3F857
:101C100004250122C3F800513046C3F804231A609A
:101C20002A46FFF795F83046FFF760F8284670BD62
:101C300000D0004038B5124BD3F80031FBB18568B5
:101C4000012105F13C00FFF797FF10F1100F04464A
:101C50000DD010F1370414BF0021012105F130002F
:101C6000FFF78AFF044605F1180008F027FD044B32
:101C700000221034C3F800211CBF01225A6038BD75
:101C800000D000402DE9F84385680F46144605F161
:101C9000180814B92046BDE8F883FF2C234628BF56
:101CA000FF23E41ADEB2A4B205F130094FF0FF3190
:101CB000284608F063FD31463A464846FFF7FAFEEB
:101CC0000646284608F0FAFC002EE2D04FF0FF311D
:101CD000404608F053FDE9E7134602480A46194614
:101CE000FFF7E8BE60000020084BC3F84005D3F8BA
:101CF0000435C01A20F07F40054B0238984282BF5D
:101D0000044B4FF40032C3F800217047001001402B
:101D1000FDFF7F0000E100E010B5124B124CD3F83C
:101D200004052268801A20F07F40B0F5A37F11D906
:101D30000E49096840F24713B0FBF3F0884228BF10
:101D4000084603FB002323F07F432360084B186001
:101D500008F03CFD2068BDE8104000F24710FFF796
:101D6000C3BF00BF001001407800002074000020B5
:101D7000F4610020024B0022C3F84021FFF7CCBFE2
:101D80000010014046F23543984228BF1846054BE3
:101D90001860054B1B6840F2471202FB0030FFF74A
:101DA000A3BF00BF740000207800002008B5074BD7
:101DB0000022C3F84021064B4FF40032C3F88021C3
:101DC000FFF7AAFF034B01221A6008BD0010014073
:101DD00000E100E07400002070B5184808F060F8D9
:101DE00048B34368164D1B6801219847154B0024E2
:101DF0001C60154B01261E6040F24713C5F80845CC
:101E0000C5F840354FF48033C5F84433C5F8043382
:101E10000E4BC5F840414FF40032C3F880213146E3
:101E200022461120FEF794FF1120FEF75FFFAE60FF
:101E300020462E6070BD4FF0FF3070BD70B70000BF
:101E400000100140780000207400002000E100E054
:101E500030B50B4A0B48D2F80415D0E90045D2F84A
:101E6000043599420AD1084A40F2471303FB141380
:101E7000106823F07F4300FB043030BD1946ECE7C7
:101E80000010014078350020F861002000B5BFF354
:101E90005B8F50E8003F43EA010240E8002EBEF1AC
:101EA000000FF6D1BFF35B8F18465DF804FB00B559
:101EB000BFF35B8F50E8003F03EA010240E8002EC9
:101EC000BEF1000FF6D1BFF35B8F18465DF804FB3F
:101ED00070B5064688790D4607F0B4FE0E4B834276
:101EE00019D1284607F0B4FE284607F0B1FE0B4C86
:101EF00004EBC000436873B1284607F0A9FE04F85C
:101F00003060284607F0A4FE04EBC000BDE8704036
:101F1000406808F0D3BB70BDEC6200208000002058
:101F2000074BBFF35B8F420903EB820300F01F00F6
:101F30001B6FBFF35B8F43FA00F000F001007047A6
:101F4000E05F00202DE9F047804689461348144D94
:101F50004FF0FF3107F00AFF044600F108060021A8
:101F60003046002707F021FF2775204607F070FE56
:101F700005EBC000A0F80280204607F069FE05EBE3
:101F8000C00003214760304607F052FF80F80290FE
:101F9000A0F800802046BDE8F08700BFEC6200207A
:101FA0008000002070B5154686B00C4619B9FFF7C1
:101FB000C9FF044668B301220021684608F074FB9B
:101FC000204607F045FE144E06EBC000C0F804D0D2
:101FD000204607F029FF2146104807F0EAFE42F2AA
:101FE0001071684608F0CAFB204607F031FE16F86B
:101FF000300030B1204607F0E9FE6FF0040006B073
:1020000070BD0DB12C60FAE7204607F0DFFE2846D0
:10201000F5E76FF03600F2E78000002094600020C2
:1020200070B5154D062205F108010646FEF7CFFAF8
:102030000446D8B1062142F20500FFF783FF0446AB
:10204000B0B106223146083007F0F8FE21460022E2
:1020500042F20500FFF7A6FF044638B906223146D2
:1020600005F10800FEF7C8FA0123EB71204670BDA8
:102070006FF03604FAE700BFE05F002007B50621E5
:10208000684601F0E3FD40B99DF80530684603F06D
:102090003F038DF80530FFF7C3FF03B05DF804FB85
:1020A00038B50221054642F20C00FFF74BFF04460B
:1020B00020B30221083007F0BBFE012D014614D1E8
:1020C0000A20FFF72DFF48700D700022214642F2D2
:1020D0000C00FFF767FF044628B9012D08D18021C5
:1020E0000848FFF7D3FE204638BD00234370EBE7D6
:1020F0006FF080010348FFF7DAFEF4E76FF0360473
:10210000F1E700BF5060002008B50820FFF708FF86
:10211000014640B90720FFF703FF20B10846BDE89C
:102120000840FFF7BDBF002008BD012310B5062100
:10213000044600F8013B01F089FD18B9A37963F06A
:102140003F03A37110BD0000F0B587B004AA0021C1
:1021500040F60340FFF726FF0446002840F049817F
:10216000049B9B681B786BB9B64A1360B64BBFF3F0
:102170005B8F012253E8001F43E800200028F9D1BB
:10218000BFF35B8F049807F021FE04AA002141F2FF
:102190000300FFF707FF0446002840F02A81049B54
:1021A000AA4D99680822013105F11600FEF724FABC
:1021B000049807F00BFE214604AA41F20100FFF744
:1021C000F1FE0446002840F01481049883685A7890
:1021D000AA73D9789A7842EA01222A821A79EA7394
:1021E000197ADA7942EA01226A825A799B7942EABB
:1021F0000323AB8207F0EAFD214604AA41F209005D
:10220000FFF7D0FE0446002840F0F380049B996855
:1022100006220131681CFEF7EFF904982C7007F0D4
:10222000D5FD214604AA41F20200FFF7BBFE044699
:10223000002840F0DE80049B99684022013105F1BE
:102240001E00FEF7D9F9049807F0C0FDAB7E5806D2
:1022500040F13F81214604AA42F20300FFF7A2FEAB
:102260000446002840F0C580049B9968082201318B
:1022700005F17800FEF7C0F9049807F0A7FDAB7EE2
:10228000990640F19B8095F83A301A0700F1B48026
:10229000082142F20100FFF755FE0446002800F035
:1022A00094800821084407F0C3FD95F8403003F0FE
:1022B0000603062B14BF02234FF4C17300220370E0
:1022C0001B0A43708270C270027142718271C271C6
:1022D000214642F20100FFF765FE0446002840F067
:1022E0008880082140F60140FFF72CFE06460028B2
:1022F0006BD00821084407F09BFD80234370022720
:10230000202304708470047144718471C770C37198
:102310002246314640F60140FFF744FE04460028BD
:1023200067D1014604AA4FF60140FFF73BFE20BBF0
:10233000049807F04BFD04AA21464FF60240FFF730
:1023400031FED0B9049B424899683A460131FEF704
:1023500053F9049807F03AFD04AA21464FF60340CA
:10236000FFF720FE48B9049B3A48996801221144BE
:10237000FEF742F9049807F029FD0023072202A97D
:1023800032480293CDF80B30FEF721F9002848D1EE
:10239000314E3368002B63D195F86030DB077AD477
:1023A0002A48FFF7C2FE044618BB3368002B5FD0F3
:1023B0005E68264A07230146B04759E0022140F6ED
:1023C0006D40FFF7BFFD064610B96FF0360410E010
:1023D0000221083007F02CFD0123447003702246CF
:1023E000314640F66D40FFF7DDFD044600283FF41E
:1023F0004AAF204607B0F0BD04AA002142F21C00FB
:10240000FFF7D0FD04460028F3D10498836853F801
:10241000012F5B68C5F88430C5F8802007F0D6FC32
:1024200036E70E4B18689A8804909B79ADF8142013
:1024300004A9072205488DF81630FEF7C8F80028D1
:10244000A6D0D6E7E000002050600020E05F00202A
:102450003F6000203E600020C8260020CAB1000076
:1024600000211C681C4A07230846A047072893D16F
:102470002B78012B2AD1AB7903F0C003C02B25D1D7
:102480001648FFF7CDFD04460028B2D104211448B8
:10249000FFF7FCFCADE701AA00214FF60940FFF76A
:1024A00081FD00287FF47CAF019881684B7853B19F
:1024B00001230622023109482B70FEF79DF801988E
:1024C00007F084FCD4E707F081FC69E76FF015049E
:1024D0008FE76FF012048CE7E05F0020E15F0020DF
:1024E0005060002010B5FFF72FFE044630B90221DE
:1024F0000648FFF7CBFC2046FFF706FE044B1B689F
:102500001BB12046BDE81040184710BD50600020A8
:10251000DC000020024BD3F8C430DB68184700BF52
:10252000E05F002038B505460C4619B9FFF70AFDF3
:10253000044698B140F635439D4209D12046FFF745
:10254000E9FF054610B1204607F040FC284638BD9B
:102550002146044807F02DFC0025F7E76FF036050B
:10256000F4E700BF946000202DE9F041264C274E8F
:1025700004F1B408737B25486FF307134FF0FF3263
:102580000121737308F01AFDC0BB737B1B09042B78
:102590002CD1377B57BB3946404607F0EDFB05464B
:1025A00060B34FF0FF311A4808F0E8F8D4F8A00003
:1025B000F8B9284607F038FCC4F8A0002846FFF711
:1025C000A9FF98B1124808F079F8284607F040FBB7
:1025D00000211F20FFF77CFCD4F8A00007F0F6FBD9
:1025E00000232846C4F8A03007F0F0FB07F0EAFF0C
:1025F000C0E707F0EBFBC4F8A070DAE7404080F3D7
:1026000011884FF0040002DFE05F0020A860002086
:10261000686000202DE9F04F067D012E87B004464A
:1026200040F0148187683B780E3B012B00F2138148
:10263000404080F311884FF0040002DFA6689D48F7
:102640006FF01001FFF733FC337843B9711C40225F
:102650009948FDF7D1FF08219648FFF717FC974BE3
:102660001D68771C35B9204607F0B0FB002007B085
:10267000BDE8F08F32782B68002A0CBF3846002066
:1026800098476D68EEE78E4DA0682A68002AEAD068
:10269000037823B90130904700232B60E3E7002043
:1026A000F9E7284607F0DBFBDFF834A20390039B31
:1026B000002BD8D0A6680921284607F0C8FB337A3A
:1026C00031463344072293F809B011F8013F023B29
:1026D000012B04A82CD8FDF78FFF9DF81030023B8A
:1026E0008DF81030DAF80030B3B1284607F0BFFBA0
:1026F000337AB4F80C80A3813278009481462B465B
:102700004FFA8BF104A8DAF80070B8472369A4F8EF
:102710000C8013FA89F3A360317A2846013107F05F
:1027200096FB039B03F1FF385FFA88F30393BEE740
:10273000FDF762FFD6E7284607F091FB614BDFF813
:10274000A091614EDFF894A118709B469BF8003071
:102750005A1E8BF80020002B85D0A7681821284628
:1027600007F075FB0221284607F071FBFB7D394617
:102770003B44072293F8168011F8023F023B012BDD
:1027800004A82ED8FDF738FF9DF81030023B8DF8D5
:102790001030D9F80030FA7DA281002BD6D07B789A
:1027A000012B21D13088494FA1685044FDF724FF07
:1027B000A289A1683846FDF71FFF3388A289023B32
:1027C0001344338097F86430DD2B02D14048FEF784
:1027D000E7FD97F86430EE2BB8D13E48FEF7E0FDF8
:1027E000B4E7FDF709FFD4E7022B4FFA88F823D1AD
:1027F0003088A1685044FDF7FFFEA289A1683348E4
:10280000FDF7FAFE3288A3893349023A1A44023BA3
:1028100092B20B8028463149328007F00FFBF97DD8
:10282000284607F014FB3A780094D9F800702B463C
:10283000414604A8B84789E7032B87D1002140F21D
:10284000DC5250463180FDF703FFECE707F0BEFA9B
:102850006FF015000BE700F108050221284607F08C
:10286000F6FA3B783E2B7FF4FEAEA7683146284649
:1028700007F0EDFA3B78023B0B2B3FF6F4AE01A2DA
:1028800052F823F0A3260000672600006726000008
:102890006726000067260000672600003D2600002E
:1028A00087260000672600006726000067260000D4
:1028B000372700005060002096000020D80000203C
:1028C00090000020C626002094000020CC26002086
:1028D0001AB800001FB800007C000020E827002084
:1028E000E0000020F8B5037D8668012B044605D082
:1028F000404080F311884FF0040002DF8389012BF0
:10290000F6D933780E3B012BF2D800F108050221ED
:10291000284607F09CFA33780E2B05D00F2B17D0E2
:10292000204607F053FAE3E7A368032128461E7800
:1029300007F08DFAA36821461878FFF7C9FA16B197
:102940000A4807F0BBFE204607F040FA0020F8BD19
:10295000A66804217778284607F079FA214630786E
:10296000FFF7B6FA002FEED0EAE700BF686000205C
:10297000084AD2F8C4303BB9816841B1C16831B16D
:10298000C2F8C400184670476FF0440070476FF0FB
:1029900015007047E05F002070B5244DD5F8C430B5
:1029A00086B00646002B3BD0012105F17000FFF7F1
:1029B0006DFA10F0010036D11D4B1E491E606FF0FC
:1029C00008030590049003930290019000901A4B25
:1029D0001A484FF4207208F093F8D5F8C4309B6879
:1029E0009847044660B976B9FFF7AEFB044638B99C
:1029F000022105F17000FFF749FA2046FFF784FB3A
:102A0000204606B070BD012105F16C00FFF73EFACB
:102A1000C307F5D405F16401094807F004FCEFE7AA
:102A20006FF01204ECE76FF04404E9E7E05F002088
:102A3000DC000020F835002069250000E4000020BB
:102A4000803500202DE9F3410378012B05460F4620
:102A500010D84378012B0DD841880B1F9BB243F649
:102A6000FC70834206D8AA88131F9BB2834201D808
:102A700091426CD26FF01504204602B0BDE8F0819F
:102A80000720FFF74DFA50B10846FFF709FB04464F
:102A900028B16FF480713548FFF709FAECE76B78DD
:102AA000002B48D04FF480613048FFF7EFF9072240
:102AB000002168462E78B5F80280AC88FDF7C8FD85
:102AC00000238DF806302A4B8DF800601B78ADF896
:102AD0000180012EADF803408DF805300AD10520A4
:102AE000FFF71EFA30B9FFF7C9FA04460028D0D123
:102AF0008DF80560072142F20B00FFF723FA044628
:102B000080B307226946083007F098F9214642F25F
:102B10000B00FFF707FD0120FFF7C2FA044600286B
:102B2000B7D1012E0DD14FF400711048FFF7AEF967
:102B3000104B1F60A0E76FF480610C48FFF7B7F9F6
:102B4000B5E76FF400710948FFF7B1F9F0E74FF40A
:102B500080710648FFF79AF910F4807190D06FF0F9
:102B6000440489E76FF0360493E700BF506000200B
:102B7000E05F0020E000002038B50546054807F07A
:102B8000F5F8044620B10021083007F00EF925754C
:102B9000204638BD0C63002010B501464FF02003DD
:102BA000EFF3118083F311880B4A0023D2F8A04081
:102BB000C2F8A03080F3118824B90120BDE810408C
:102BC000FFF7DABF012204F108002275A38119463C
:102BD00007F0EBF8204610BDE05F0020F7B5186065
:102BE000C31D054623F00303501E0E4680B2144653
:102BF0001A800021042206FB0050FDF729FD023C4B
:102C0000A4B24FF6FF77BC4201D103B0F0BD04FB84
:102C100006602B180422801B0DEB02012844013CA6
:102C20000193A4B2FDF7E8FCEDE773B5056806462D
:102C300095B1EB1D23F0030304221C8829460DEBFC
:102C40000200FDF7D9FC019B013CA4B21BB1DA1DC7
:102C500022F0030214803360284602B070BD70B5C4
:102C60000C6806460D461CB1E31D23F003031C88C7
:102C7000042229463046FDF7BFFCF21D22F0030274
:102C8000631C13802E6070BD02FB01007047401A68
:102C900080B2B0FBF2F0704710B5114401384FF626
:102CA000FF73013A92B29A4200D110BD11F8014D62
:102CB00000F8014FF5E710600860704710B5146820
:102CC000206014686160106010BD884203D01AB1A2
:102CD000436813607047002070470B68834209D037
:102CE00022B1586810601A680A6001E0002BFAD11E
:102CF000184670470023FBE72DE9F047114FDFF836
:102D000048900426013EF6B2FF2E19D033B24FEAA6
:102D1000830803EB43031D0104244FF00C0A0AE06F
:102D20001AFB04510A1D04EB08003A44394409EB2C
:102D3000C000FFF7C0FF013CE4B2FF2CF0D1E1E797
:102D4000BDE8F087CC0100204C010020F0B4124B0C
:102D500005460F460C26302472B1614306FB001471
:102D60002344597A187A814204BF013119722846E6
:102D70003946F0BC06F0D2BE4C4306FB0044234467
:102D80009C7ADA7AA24204D101329A72F0BC06F03F
:102D9000F3BEF0BC704700BFCC010020F8B505467B
:102DA0000E461C468AB1012362782078801A10F002
:102DB000030729D003B3012F39D00132D2B22270D8
:102DC0003146284606F0D8FE1CE006F0C3FE002877
:102DD000E9D03146284606F0AFFE0028E3D0302384
:102DE0000C22734302FB0533124A1A44937AD27AB7
:102DF0009B1A18BF0123D7E70232D2B22270E368D0
:102E0000A06898470020F8BD002BF8D00132D2B25C
:102E100022700423302212FB06320C2313FB0523FD
:102E2000044A60681A442146FFF748FFC8E738465D
:102E3000F8BD00BFCC0100202DE9F04F00EB4003AE
:102E400089B01B014FF00008434E0493054604244B
:102E5000CDF80480013CE4B2FF2C0BD1019B002B88
:102E600076D0B8F1000F73D142462946284606F0C5
:102E700055FE6DE00DF1200B00230C274BF8043DAF
:102E80004FF0300907FB04F309FB053031185A46AF
:102E9000496830580293FFF718FF049B17FB04376B
:102EA000F31982460393BAF1000F19D130220C2393
:102EB0006A4303FB04223244917AD07A88421EBFCF
:102EC000D1720122019230226A4303FB042333446E
:102ED0001A7A597A91421CBF5A724FF00108B9E729
:102EE000079B1F785A78BF1A07F00307012F04D1F8
:102EF000013A5A709868DA689047079A13785278BE
:102F0000DBB29A1A02F00302012A05930DD0029B4C
:102F1000039909FB0530304400224068FFF7DDFECD
:102F2000079A059BC2F804A05370029B09FB053366
:102F3000F1185A464968F058FFF7C7FE012F82463C
:102F4000B1D10CB90028B1D02946284606F014FEAC
:102F500009B0BDE8F08F00BFCC01002010B5421EC3
:102F600000200139C9B2FF2900D110BD12F8013F7C
:102F7000002BF6D05C1E01302340C0B2F8E7F0B55C
:102F8000437F05681A460024FF2A01D10020F0BDC6
:102F900002EB82078A4205EBC70615F8377004D0AA
:102FA000B3681C4413463A46EEE7934200D1477794
:102FB0001BB203EB83033278B06805F83320337813
:102FC000FF2B06D003EB830305EBC3039A6802448F
:102FD0009A602044F0BD30B5551A15F4000F83688F
:102FE000446909D125F07F421A44A2420ED9121B2E
:102FF00000248260446130BD8A1A22F07F429342ED
:1030000001D99A1AF1E72244D41A0022A41A002204
:10301000EFE7034600221A709A6A596208460AB11D
:10302000D96A104770472DE9F047857F0123044690
:10303000C377002D4CD1437FFF2B02D1C577BDE86C
:10304000F08706F013F96769667FD4F80080C71B24
:1030500027F07F47FF2E06D006EB860608EBC60159
:103060008B689F4218D2A27AE37A934205D101334A
:10307000DBB2022B08BF0023E372E37A04EB830385
:103080000122DD600023656AE377AC462346042114
:103090000320BDE8F0476047FF1A1D448A784B784B
:1030A00018F836609B1ADBB2012BD3D1D1F80C9003
:1030B000013A8A70B9F1000FCCD048696369CA8BB4
:1030C000281A184420F07F400B69496AC847C1E7B5
:1030D000BDE8F0872DE9F04FC27F93B08346002A08
:1030E00040F0B583436905930121837A8177C07AE3
:1030F000984200F08F800B44DBB2022B08BF002304
:103100008BF80A300BEB83030191D3F80C80059BFD
:10311000434423F07F43CBF814309BF81D300393D6
:10312000DBF800300493DBF804300B939BF8093094
:10313000013BDBB20293002307934FF0FF0A029B8F
:10314000FF2B6AD19BF81D30039A9B1A18BF0123ED
:103150000293019BE3B1DBF8003004934FF00009C8
:103160009BF81D60FF2E0CD037B2049B07EB87073E
:1031700003EBC704A568454540F23681A5EB080579
:10318000A560029B019A0399B14218BF13460293AE
:10319000DBF800300893DBF8043010939BF809301B
:1031A000013BDBB20193019BFF2B40F070819BF848
:1031B0001D30039A9342079B40F040835BB99BF814
:1031C0000940DBF804300193013CE4B24FF0000801
:1031D000FF2C40F0A08200238BF81E30029B4BB1E5
:1031E0009BF81D30FF2B40F0E98206F027F808B964
:1031F000CBF818009BF81F30002B00F02883DBF879
:1032000024405B46012203210420A44613B0BDE8FC
:10321000F04F6047019290467FE70B9B029A03EBC9
:10322000C2077B680693F978BE788E4200F0D7809B
:10323000069B387806EB460212019D18731CDBB220
:10324000984208BF0023BB70069B9A5C032AEBD907
:10325000052A17D8697801EB81030A930A98049B21
:1032600003EBC0046378A0781B1A13F0FF0309D0A6
:10327000042A0CD16A6852B9AA6842B9EA6832F0E5
:103280007F4204D101212846FFF7C3FECBE7012B83
:1032900040F09B805846FFF772FE2B78A060042B0D
:1032A000064640F08480DBF81430089305F0DEFF1A
:1032B000089B0990C31A23F07F4343449E42024671
:1032C0009EBF6269921B9B18626896BF6361F31A86
:1032D00000238AB1A98979B101F1FF3E1FFA8EFE60
:1032E000A5F80CE09A422BD3DFF82493B4F81EC063
:1032F000E64547D8A4F81CE0AA8808991344A360BF
:10330000EA88636913446361099A2046FFF763FE04
:10331000A2692B891344A3616A8993428CBF9B1ACB
:103320000023A361AB7B03B1E370049B0A9A03F80B
:1033300032A0637895F801A0013363700021A2E701
:10334000B4F81EC0E645CFD2616AAF4EAF488E19C1
:10335000864281BF01F1E87101F5D43101F5A57113
:103360006162666A216A8CBF4FF001094FF0000963
:10337000761A91440CF1FF3C6662A3EB0903A4F8B2
:103380001EC0AFE7666A216AA0480E449E497118C4
:1033900081428EBF002101214E4411440CF1010CE9
:1033A0008CBF666266620B44A4F81EC09EE7A378D9
:1033B00063706B789BF81C209A4201BFFF238BF847
:1033C0001C300023CBF81830B8E704215B46DBF84B
:1033D000244001220846A0470123BE700793029BA8
:1033E000013BDBB20293AAE6DBF818309D4229BF0D
:1033F000FF235B1B8BF81C300023CBF81830A3692C
:10340000A9441BB18BF81C60CBF818300022049B38
:10341000A26013F837308BF81D30D4F804E0BEF109
:10342000000F30D0A08BDFF8E4C1636A216A0B443F
:103430007549591861459FBFA3F1E873A3F5D433CB
:10344000A3F5A573636292BF019B6362002373447B
:1034500010F1FF301A44E8D2059BA260DBF814108B
:1034600003EB09022046FFF7B6FDA38BE38300239D
:10347000E370049B03F837A0637801336370A8EB13
:103480000508B2466CE6A37863705646F7E7109BD2
:10349000019A03EBC20304935B680A93049B93F8BD
:1034A0000190BAF1FF0F00F08E800FFA8AF303EB60
:1034B0008303089AD04612F833A002EBC304002518
:1034C000DBF800300B93FF23A28B2370E38B934236
:1034D00086BF9B1A9BB200230C930FFA88F303EB71
:1034E0008303DB001193119BDBF80020DBF818004D
:1034F000059002EB030EFF209BF81D30DEF808104C
:1035000009930690FF2B07D003EB830C02EBCC064C
:10351000B068814200F2A980DEF818000D9001EB3E
:10352000000C1E46FF2E40F0AE800D9830B105987D
:103530008142C0F0BF80FF2E40F085810998CEF80F
:103540000810834218BFBDF924008EF8003016BF62
:1035500000EB80008BF81D8002F83080FF2B06D036
:1035600003EB830302EBC3039A68511A9960A378B3
:10357000013363700021002D93D02846FFF749FDE9
:103580008FE709EB49030A9A1B01D51809F10102DB
:103590005FFA82F9049A12784A4508BF4FF0000991
:1035A0000A9AD35C032B0ED195F80180089B08EB97
:1035B000880403EBC4046278A3789A4209D00121FD
:1035C0002846FFF726FD049B9B784B45D9D1019BEC
:1035D000E6E5EB68DBF8141063602B692362AB8AC5
:1035E000A383AB69A361EB69E3602B6A23610026C7
:1035F000AB68A36066616A682046FFF7ECFC0123B4
:103600006662E683E3705BE75A2B17FF592B177F3F
:10361000B6562EFE606800287BD0626A216A8D4B08
:103620000A448D49D3188B429CBFA2F1E872A2F5DF
:10363000D432A3688BBF6262A2F5A57200226262D7
:10364000034498BF01221344E28BA3600132E2835A
:10365000626993424FF0000189BF9B1AD31AA3609D
:1036600061619CBF6361A1603DE7B669091A46B913
:10367000059FB84200D23E1A0993059612F83C30D5
:1036800040E70693F8E730B200EB800002EBC0079A
:103690000E97BF680F9767450AD20E9FBF69002F2C
:1036A0007FF443AF0F9EACEB060C12F8306039E7A5
:1036B000FF263AE7069B98453FF459AF069BFF2B40
:1036C000A8D01E4633B203EB83030593059A0B9BE8
:1036D00003EBC207FB8BBA8B934288BF9B1A7A68B5
:1036E0008CBF9BB20023002A94D00C9A934291D8AD
:1036F000FA78E3789A428DD231465846FFF73FFC7C
:10370000BB787B70059A0B9BB86003F832A0B24679
:10371000E9E601212FE7019B03EBC4056E686B7896
:10372000EA789A4202D1013CE4B251E503EB43034B
:103730001B01F218F35C012B25D0022B2AD1D2F801
:1037400004C093689CF80000D2F80C90DBF800E00D
:10375000FF2804D01968DBF81470B94223D0DBF8D5
:1037600014009BF81D1018600023FF2907D001EBFF
:10377000810A0EEBCA0087698068DFB103448CF8C8
:103780000010C9F80030936AC2F8248013B1D16ADE
:10379000002098476B782A780133DBB29A4208BF41
:1037A00000236B70BBE700EB8000D9F800301EF8F7
:1037B0003010DAE703441EF83A10D6E7039BFF2BDC
:1037C00007D105F053FD044605F02AFD08B9CBF8F2
:1037D00014409BF81D30DBF8002003EB830302EB61
:1037E000C3030A269D6805F041FDDBF81440031B66
:1037F00023F07F430333AB422CBFE418641924F059
:103800007F440746DBF828302046984705F02EFD18
:10381000C01B20F07F40E41B033024F07F44A04213
:103820007FF6E8AC013EDED1404080F311884FF0D6
:10383000040002DF00238BF81E30D1E4002BF9D105
:1038400001230293BBE4B0457FF43CAF8FE613B095
:10385000BDE8F08F5A2B17FF592B177FF0B51A4D83
:10386000059F9DF818402C26464305EB060EAA51ED
:103870008EF8081007998EF80930CEF80470013BD5
:10388000DBB2FF2B11D1ECB92C2202FB00520899BC
:103890001162099951620A99916253771377946181
:1038A00054619472D4722046F0BD1AB207EBC2067E
:1038B000716017F8322002EB4206A41A01EB0611E0
:1038C000E4B2DCE70120F0BD8C020020074A2C2185
:1038D00000FB012310B45C6A2CB1A4460122032131
:1038E000022010BC604710BC704700BF8C02002053
:1038F0002DE9F047254F4FF02C08814608FB00705A
:103900000FFA81FCD0F804E00EEBCC061EF83CE088
:10391000F478651CEDB2AE4598BF002596F801E03D
:10392000AE452FD0D6F804C004EB44044FEA041E81
:103930000CEB0E044FF0030A0CF80EA06360089B1A
:10394000A360099BE3600A9B23610C9BA361BDF804
:103950002C30A3820D9BE3610E9B236202236362E2
:103960000F9BA362109B6270E362F570456A036A65
:103970000846984709FB087300220421A847606A9B
:10398000BDE8F0870120BDE8F08700BF8C02002071
:103990002DE9F047DFF890804FF02C0A0AFB008EEB
:1039A0000FB2DEF80450814605EBC70015F837501A
:1039B000C478661CF6B2B54298BF00264578B54279
:1039C0002FD0D0F804C004EB440425010CEB05040F
:1039D00004270CF80570A380BDF82030E380BDF803
:1039E00024302381BDF828306381BDF82C30A381B9
:1039F0009DF83030A373022363620D9BA3620E9B7C
:103A00006270E362C670DEF82030DEF824500846AB
:103A1000984709FB0A8300223946A847606ABDE837
:103A2000F0870120BDE8F0878C0200202DE9F047E7
:103A3000DFF86C904FF02C0A0AFB009E8046DEF8FF
:103A400004000EB200EBC60710F83600FC78651CC7
:103A5000EDB2A84298BF00257878A8421DD07868BA
:103A600004EB4404240106194FF0050C00F804C0CF
:103A70007270B3620222089B7262F362FD70DEF81C
:103A80002030DEF824400846984708FB0A930022BD
:103A90000421A047706ABDE8F0870120BDE8F087E7
:103AA0008C0200202DE9F047DFF878804FF02C0AD7
:103AB00081460AFB00800FFA81FE456805EBCE07C0
:103AC00015F83E50FC78661CF6B2B54298BF002649
:103AD0007D78B54223D0D7F804C004EB4404250117
:103AE0000CEB05044FF0020E0CF805E0A360089BF8
:103AF000E360099BA362FF250A9B62606570C4F8BE
:103B000024E0E362FE70456A036A0846984709FBB1
:103B10000A8300220421A847606ABDE8F0870120DB
:103B2000BDE8F0878C0200202DE9F047DFF86C90AB
:103B30004FF02C0A0AFB009E8046DEF804000EB20D
:103B400000EBC60710F83600FC78651CEDB2A84201
:103B500098BF00257878A8421DD0786804EB44040B
:103B6000240106194FF0010C00F804C0FF2070700A
:103B700002207062B262F362FD70DEF82030DEF87F
:103B800024400846984708FB0A9300220421A047D6
:103B9000706ABDE8F0870120BDE8F0878C02002044
:103BA0002DE9F041084C2C2505FB004306465F6AD1
:103BB0001B6A0846984706FB0543BC4600220421C1
:103BC000BDE8F041604700BF8C02002005F04EBB0D
:103BD000401A20F07F40704708B50346012B084685
:103BE0000ED833B119B106220649FCF705FD054888
:103BF00008BD19B106220449FCF7FEFC024808BDC5
:103C0000002008BDEA020020E402002070B506464C
:103C10000D4604F0A1FE044610B10C24204670BDF0
:103C200004F0B0FE10F0060FF7D1062229461EB1AF
:103C30000248FCF7E1FCF1E70148FAE7EA0200205C
:103C4000E4020020002303700B707047F7B50746AD
:103C50000E460C46351B3D448CB1FDF7CDFB032CC5
:103C6000019007D904220DEB02012846FCF7C4FCA1
:103C7000043CEFE7224601A92846FCF7BDFC0020E2
:103C800003B0F0BD08B50248FEF772FE002008BD83
:103C900044B8000010B5838904465BB1037D4BB97D
:103CA00000F0CAFA08B1FEF71DFE204606F08EF8B5
:103CB000002010BD6FF0150010BD000073B51C4D45
:103CC00000264FF0FF31284606F0D1FA044618B31B
:103CD00000F026FE0228019421D801280EBF002101
:103CE0004FF0FF310120FEF747FF044618B10146AF
:103CF000019800F087FD019B0021D88804F008FF9F
:103D000002A850F8043D1E6004F0A2FE24B1A3896D
:103D1000204653B1FEF77EFC06F054FCD1E740404C
:103D200080F311884FF0040002DF06F04FF8F3E74C
:103D3000DC62002037B50C4C0C4D0DF1020101A8DE
:103D400004F04EFE0028F8D1019B33B105F030F8A5
:103D50000199284606F067FAEFE74FF0FF31204659
:103D600006F00CFDE9E700BFC4620020DC62002021
:103D700010B5144886B005F0BFF80446F8B900F055
:103D8000EFFD6FF0090303934FF4E0720E4B0F4900
:103D9000059404940294019400940D4806F0B0FE3A
:103DA0006FF0070303930594049402940194009424
:103DB000084B094909484FF4806206F0A1FE2046ED
:103DC00006B010BDC4620020353D000090480020C0
:103DD0002C2E0020BD3C0000504A0020C42D0020A5
:103DE000C0F307230870000C8870000A4B70C8707D
:103DF000704738B508300D460221144606F018F811
:103E00000570447038BD000038B504464FF0FF30EF
:103E10000D46FEF7C1FEEA1C2060D2B20E21FFF76C
:103E2000E8FF20680321083006F002F80123037040
:103E3000054B1B88A0F80130206829460830BDE8F2
:103E4000384005F0F5BF00BFF002002070B5044611
:103E5000154601320E460834D2B23E21FFF7C9FFA3
:103E60000121204605F0E4FF067029462046BDE802
:103E7000704005F0DDBF00002DE9F34701238DF808
:103E8000013003238DF80230FF238DF803308DF8C5
:103E9000053002238DF80630544B914604228DF8EC
:103EA0000420D3E90023002203F00053002513432C
:103EB000044688468DF8005000F094804C4BD3E9BE
:103EC0000023002302F00202134300F08B80494ECE
:103ED0003368AB4200F1020749DBDFF824A1336805
:103EE0009D4227DB444DDFF814A128680AEBC0008F
:103EF000062239460230FCF77FFB2A6823780AEB5A
:103F0000C201C3F380134B70237803F00F01012328
:103F10008B4031680AF832300F29D5BF01310132A8
:103F200029602A602A68D8BF3160102A1FD1002278
:103F30002A601CE0062251463846FCF748FBF0B9DF
:103F400023781AF8011C1A46C3F380138B4216D14A
:103F50002A4810F8353002F00F0223FA02F1C9079F
:103F600040D4012101FA02F2134300F835302378DE
:103F700003F00F03012B637805D1002605E001351E
:103F80000AF1080AABE79E1FF6B2984406F10B024D
:103F9000D2B20221484698F80A80FFF757FF012362
:103FA0000370237802AA03F00F031344054613F8A5
:103FB000083C437014F8083BC3F380138370062257
:103FC00039460330FCF718FB0A3505F8016CC8F1D7
:103FD00000084FFA88F8324621462846FCF70CFBC9
:103FE00005F8068002B0BDE8F08700BFC060002081
:103FF000C8600020F4020020F8020020FC0200202B
:10400000FE02002070B504461846134B1646D3E94D
:104010000023002203F0005313430D461BD00F4B27
:10402000D3E90023002302F00802134313D00B222C
:104030000421FFF70BFF08220470A0F80160033091
:1040400024B9291DBDE87040FCF7D6BA0021BDE8AF
:104050007040FCF7FDBA70BDC0600020C860002051
:1040600070B503788AB004460E4607AD032B20D8FE
:10407000DFE803F002191B1D11492846FCF790FAEE
:1040800062780492A2780392E278029222790192F5
:1040900062790092A37905950A4A1B213046FDF703
:1040A0008DF90AB070BD0849E7E70849E5E7084916
:1040B000E3E7084A0A212846FDF780F9E0E700BF58
:1040C00074B200009DB200007BB2000082B200001A
:1040D0008CB2000096B200002DE9F04F037815462F
:1040E00003F00F02072A8DB0064640F08E8042781A
:1040F000002A00F08A808078800676D01144341D32
:104100008A7A0092F278D70710D50CAFC3F38013E8
:1041100007F8243D214606220DF10D00FCF76CFA4C
:1041200005A9384606F10A04FFF79AFFF2789007CE
:1041300048BF063412F008095ED067784FEA171AB4
:1041400007F0F007402F53D0A7F120014F424F4115
:104150004FF00009A346023412F010031CBF0123E4
:1041600003345206B2780193C2F305017278A2EBD0
:104170000102D2B202F1FF3802F11802D2B228468F
:104180004FF00D0148BF0134FFF760FE01225FFAD6
:1041900088F805460270019BB9F1000F3FD0CBB300
:1041A0008270F378DB0708D59DF80C30EB7006229F
:1041B0000DF10D01281DFCF71FFA07236B7085F820
:1041C0000CA09BF8013085F8188003F0F00305F18E
:1041D0001906402B4246214630460FD1FCF70CFA17
:1041E000424621461148FCF707FA0DB0BDE8F08FB2
:1041F0004FF001090027ADE74F46ADE7FCF7FCF9AA
:10420000009B5B4206F80830EFE72A463046FFF78E
:1042100033FEEAE7002FC4D10223AB70C1E7002FC1
:10422000BFD0002BBDD00323F7E700BF942E0020A2
:104230000346006859687047F0B581898FB0002641
:1042400002290546039602D800200FB0F0BD83680E
:10425000C34C1A7858789B7842EA00228B4222801D
:10426000F2D8032105F1080005F0F1FD2788C7F316
:104270000904BF0A042F67D007D8032F24D00121D7
:1042800003A8FFF7C1FD0123ABE1082F00F0E9808F
:104290003F2FF4D1013C092CF1D801A353F824F0AD
:1042A0001F4600004D460000754600007F4200009A
:1042B0007F420000B94600007F4200008B460000AC
:1042C000C34600002F470000032C14D008D8012C4F
:1042D000D5D1A868FFF7ACFFA24BC3E9000103E00A
:1042E0002D2C1BD0632CCAD1012103A8FFF78CFD14
:1042F00006700398A9E79C4B4FF0FF321A60994B68
:104300004FF0FF3041F6FF71C3E90001974B1F20CA
:104310000021C3E9000104F0CFFAE5E7AB6804210E
:1043200003A81D889F78FFF76FFDAEB20446C21C3C
:104330003946304604F04AFB002814BF022300230C
:104340002370A4F80150D4E7013C082C97D801A3AE
:1043500053F824F079430000A34300002F440000E9
:104360007F4200007F4200007F4200007F42000049
:104370007F4200004B440000092103A8FFF744FDE1
:10438000002303708370C3706FF00E034371052325
:10439000092283714FF0FF3342700271C3710372BF
:1043A000A7E7412103A8FFF72FFD00210446402283
:1043B00000F8011BFCF74CF9E378217FE27E63F003
:1043C0007F03E370A37963F03F03A371E37A43F0C3
:1043D0000403E372E37B43F02803E373237C43F09D
:1043E00002032374E37D43F00403E375A37E43F0EB
:1043F0001703A37694F8253043F0120384F8253090
:1044000094F8263061F03C0143F04003217784F8B2
:104410002630617F94F8273041F0080162F03302C2
:1044200063F07F036177E27684F8273061E7092142
:1044300003A8FFF7E9FC00210446082200F8011B4D
:10444000FCF706F96023637153E7072103A8FFF720
:10445000DBFC0146002301F8013B1846FFF7BCFBDB
:1044600047E70F2C65D026D8032C50D00FD8012C4D
:1044700041D0022C7FF403AF042103A8FFF7C4FC52
:1044800000230370437001238370C47031E70B2C49
:1044900000F093800C2C00F0A680052C7FF4EFAE8A
:1044A000A9680120FFF7B2FB0446012103A8FFF72A
:1044B000ABFC04701DE7172C5AD009D8112C4BD037
:1044C00041D3122C7FF4DBAEA86804F049FEEBE781
:1044D0001C2C60D04B2C00F09680182C7FF4CFAEB3
:1044E000092103A8FFF790FC002300F8013B0821F5
:1044F000FFF7ACFBFDE6A868FFF79AFE1B4BC3E98C
:104500000001012103A8FFF77FFC002369E00921D6
:1045100003A8FFF779FC3A460446314600F8016BE0
:10452000FCF796F80C2363704023A3700123E3701B
:10453000DFE6022103A8FFF767FC0670044604F0DB
:10454000BFFD6070D5E6012103A8FFF75DFC0446BE
:1045500004F0B8FD2070CCE6A86804F0C9FDA3E71C
:10456000F0020020C0600020F4020020C86000209B
:10457000A86804AA00F11001334604F0ABFE112133
:1045800003A8FFF741FC102200F8016B0DEB0201BC
:10459000FCF732F8ADE6092103A8FFF735FC014628
:1045A0000022044601F8012B43F23030FFF718FCDB
:1045B000611D1046FFF714FC9BE6AC686379B4F804
:1045C0000320B4F801102078A479009404F01EFDB3
:1045D0000446012103A8FFF717FC002C14BF0C238D
:1045E0000023037085E6AA68834B107840B15278A7
:1045F00032B100221A60814B1A6004F02BFDE7E70C
:104600004FF0FF32F8E7032103A8FFF7FDFB014657
:10461000002301F8023B0130FFF714FB69E60D218E
:1046200003A8FFF7F1FB02224270C27001228271DF
:104630000B220023C27163220370837003714371E4
:10464000037242728372C372037352E6412103A85C
:10465000FFF7DAFB00210446402200F8011BFBF7BC
:10466000F7FF637863F058036370A37843F00303A4
:10467000A3703EE6092103A8FFF7C6FB002100F85E
:10468000011B0822FBF7E4FF33E65D4B04AA03F1AC
:104690002806154618685968144603C40833B342FF
:1046A0002246F7D1292103A8FFF7AEFB002300F82B
:1046B000013B282229466BE7A9680020FFF7A6FAEC
:1046C0001FE74FF08053D3F8A420013206D1D3F86E
:1046D000A8304FF6FF729BB2934220D04FF0805526
:1046E000D5F8A030DB071AD5182103A8FFF78CFBFB
:1046F00000260123044643700670D5F8A400A11CCF
:10470000FFF76EFBD5F8A830A371C3F3072363F05E
:104710003F03E3711022314604F10800B2E70221A1
:1047200003A8FFF771FB002303704370E1E521212B
:1047300003A8FFF769FB0346002203F8012B4FF0A3
:1047400080520446D2F8901001314BD0D2F8941028
:10475000013147D0D2F89810013143D0D2F89C10E3
:1047600001313FD0D2F890001946FFF739FB611DA7
:10477000D2F89400FFF734FB04F10901D2F8980055
:10478000FFF72EFB04F10D01D2F89C00FFF728FB88
:104790004FF08052D2F88030013304F1110327D05A
:1047A000D2F88410013123D0D2F8881001311FD003
:1047B000D2F88C1001311BD0D2F880001946FFF7D7
:1047C0000FFB04F11501D2F88400FFF709FB04F197
:1047D0001901D2F88800FFF703FB04F11D01D2F89C
:1047E0008C00E7E6102200211846FBF731FFCFE7E7
:1047F00010220021184645E7F4020020F8020020AC
:104800005FB8000070B504468AB02379012B0D46CD
:1048100000F1080045D0023B032B76D8DFE803F017
:104820000208080D0A462146FFF726FB0AB070BDB4
:104830000A462146FFF750FCF8E7374BD3E900233F
:10484000002203F00053134304F10A0607D0334B50
:10485000D3E90023002302F48022134310D1237AEA
:104860000AACC3F3801304F8243D314606220DF14F
:104870000500FBF7C1FE03A92046FFF7F1FBD5E7D2
:10488000082213212846FFF7E1FA00230370237A58
:10489000C3F380134370062231460230FBF7ACFEAF
:1048A000C4E7E17AE68809290BD00C2910D0072942
:1048B0002BD1237B0E2BB9D12B46324600211A2057
:1048C00003E001462B4632460020FFF79BFBADE795
:1048D000114BD3E90023002302F400621343A5D057
:1048E00008222846FFF785FA0821681805F0A0FA83
:1048F00000230370A0F80160237BC370B4F80D306F
:104900008380B4F80F30C38090E7404080F3118873
:104910004FF0040002DF00BFC0600020C86000202C
:104920000379012B0FD00A2B15D8012000FA03F3CD
:1049300013F4B06F12D113F03C0F10D183F0400389
:1049400043F380107047037A03F00303032B0CBF7B
:104950000220032070474FF0FF307047022070475D
:10496000084B4FF0FF321A60074B4FF0FF3041F613
:10497000FF71C3E90001054B1F200021C3E90001BD
:10498000704700BFF4020020C0600020C860002013
:1049900020BF40BF20BF7047F0B50D4B89B0054622
:1049A0000E4601AA03F1180718685968144603C493
:1049B0000833BB422246F7D11B88238008AB1D4435
:1049C00015F81C0C831B5842584109B0F0BD00BFBC
:1049D000D7B100000860704718B90B6843F0004376
:1049E0000B60704718B90B6823F000430B607047E9
:1049F00070B5031D451E00249D4201D1204670BDA7
:104A000015F8016F0022A018082AC0B201D104468F
:104A1000F2E716F0010F03D00029F0D00139C9B236
:104A200076080132EFE7000010B50C4A92F8223DFB
:104A300092F8211D8B4238BF92F8204D92F8211D2B
:104A400038BF1B195B1ADBB298429DBF92F8211D3B
:104A5000D2F81C3D53F82100002010BD8003002037
:104A600030B590F85C3090F85D10994228D190F9FB
:104A70001D30002B26DBC48C828CA0F86440C48DD2
:104A8000A0F8622054437D2262434FF47A7492FB73
:104A9000F4F2A0F8662090F86020012565F3010289
:104AA000D2B2002342F00402013980F87050C3668C
:104AB00080F8602080F85D1080F85E50184630BDA8
:104AC000012030BD022030BD2DE9F84F0C78944212
:104AD00081460F4690463DD01F4ED6F8503D33F8E4
:104AE0003430038000254FF0020B06F6445A22B200
:104AF000D6F8500DB9F800E000EBC20130F83220D2
:104B0000964520D14868012820F003030AD9F3B163
:104B1000021D1CD04279D2B1027902F00302013A9F
:104B2000012A14D8012215444A60EDB213B151464E
:104B3000FEF795F8013496F8542DE4B2A24208BF6E
:104B400000244445D3D13C702846BDE8F88FC1F815
:104B500004B0EBE70025F7E78003002010B5094B10
:104B600093F8F82C824204460AD902464FF4827127
:104B7000D3F8F00CFEF788F810B1038CA34200D0F4
:104B8000002010BD800300202DE9F04186B00223F3
:104B9000052805460F4602930ED0062800F08E80A9
:104BA00040F28680073880B2FFF7D8FF002800F077
:104BB000D98090E8400110E06B4B9E69D3F81C80CF
:104BC00002AB00930A46694B03210020FEF72EFF3B
:104BD000022866D0029B002B67D1634CA37C03F0B4
:104BE000FF00002B64D106AB0222A57443F8102D00
:104BF000032100932A465D4BFEF718FF022863D07D
:104C0000029B002B45D1237C9D4202D0637C9D42B8
:104C10003BD106AB022243F80C2D00220093032166
:104C2000524B1046FEF702FF022807D1012211461F
:104C30000320FEF78BF8039B022B39D00398002842
:104C40005ED102230493237C002B31D004AB00936C
:104C50000122464B20740321FEF7E8FE022807D10B
:104C6000012211460320FEF771F8049B022B1FD08E
:104C7000049A002A36D126F00046B0453ED93C4B76
:104C800011460320FEF78AF890B9A37C0BB90123E3
:104C900002930023A374029806B0BDE8F081FFF7E9
:104CA00077FE029B022BFAD094E7029B012B94D053
:104CB000404080F311884FF0040002DF2A4BD3F804
:104CC0001C6CD3F8208C88E7637C9D4204D10122C0
:104CD00011460320FEF73AF8029B022B90D1FFF712
:104CE00057FEF9E7049B012BE2D100221146204B2D
:104CF0000320FEF753F802460028D9D11D4BBFE729
:104D0000039D012DD4D1FF2F19D006AB022243F809
:104D1000042D032100933A46144B0020FEF786FE33
:104D2000022807D12A4629460320FEF70FF8059BE3
:104D3000022BBDD0059B13B1059B012BB8D1E37CA1
:104D4000002BA2D00C4B04229A60002211460320B3
:104D5000FEF724F80028ABD1E37C002B95D0FFF7B9
:104D600017FEF9E7012097E780030020D5490000EE
:104D7000F060002080610020106100202DE9FF47D5
:104D80007D4E96F82D3203EB03233344044693F80B
:104D90002B3003F00F03072B40F0E0802628DFF8CC
:104DA000148230D02728DFF810A2DFF8109234D018
:104DB000252862D1FDF74CF8704E714B37681860AA
:104DC000DAF800206F4BC71B4FF47A751F6082FB27
:104DD0000523A2FB0701D9F8002007FB0311D31715
:104DE000FBF742FA684BB0FBF5F01860FDF730F8BE
:104DF000C8F80000FDF72CF8644A306013780133DE
:104E0000137002209EE0FDF723F8604AC8F8000006
:104E10001378013313701A2094E0FDF719F85C4BF6
:104E2000DAF800201860D8F800304FF47A77A0EB59
:104E3000030E82FB0723AEFB0201D9F800200EFB14
:104E40000311D317FBF710FA524BB0FBF7F01860C1
:104E50004E4B00251D70FCF7FBFF96F8693C96F859
:104E6000682CC8F800000133DBB29A4286F8693C2E
:104E700001D286F8695C502064E0FCF7E9FF464BFC
:104E80001860DAF800304FF47A7583FB0523CDE91A
:104E90000023D9F800301946DA17D8F80030CDE9E8
:104EA0000212009AC31A0746A3FB0201019A03FBF0
:104EB0000211DDE90223FBF7D7F9384BB0FBF5F01F
:104EC00018602E4B1B68FF1A009BA7FB0301019B78
:104ED00007FB0311DDE90223FBF7C6F9304BB0FBFA
:104EE000F5F01860FCF7B4FF2E4B2F4F0021C3E9FB
:104EF00000012E4BD7F800807A68C3F800805A6012
:104F00002B4BD3E90023821ADAF8000061EB03038C
:104F100080FB0501514300FB0313A2FB0001D9F8FC
:104F200000201944D317FBF79FF90023B0FBF5F0DD
:104F30003860A0EB08007B60C6F8880C0A2C09D802
:104F4000A01C400004F0D2FA204604B0BDE8F047AF
:104F500004F0D2BA272C09D8E01CF2E726283FF447
:104F60005AAF272887D02528E8D14AE7404080F368
:104F700011884FF0040002DF800300208C340020F1
:104F8000F43400204835002068350020201100202E
:104F9000F8340020503500205C35002024350020F6
:104FA0007834002018350020F8100020001100206F
:104FB0008034002010350020FC610020F8610020C2
:104FC0002DE9F843804C94F82D3294F82E229A4221
:104FD00006D00133DBB2022B08BF002384F82D3248
:104FE00094F8133C94F8142C9A4206D00133DBB2A7
:104FF000022B08BF002384F8133C94F82D7207EBB2
:1050000007272B3704EB0709E35D03F00F03072B9A
:105010005FD199F80330DD074CBF09F10A0509F1AA
:1050200004059A0748BF06351E0748BF0235DA0651
:1050300049D5D4F8842CD4F8603C94F82960134402
:1050400094F8692CC6F302165A43072EC4F86C2C48
:1050500040F0938094F8283003F00703072B7FD1AA
:10506000D4F8700C821A10460021C4F87C2C574AE0
:10507000AE7895F8008000238B4208BF824280F012
:105080008D804FF496720023FBF7EEF826F01F0692
:105090006870C0F304203043A87048F0800894F88A
:1050A000293085F80080DB0708D594F8803C01336F
:1050B000DBB2252B08BF002384F8803C2B78032229
:1050C00062F305032B7094F829306FF3000384F822
:1050D0002930484604F06EFAE35D03F00F03022B1B
:1050E0006AD0072B68D002239620237504F06CFB4E
:1050F000002004F0D9FA94F82830C3F30202D3B2A6
:1051000019460020CE0700F101055AD5013B134096
:1051100094F828202E4D63F302022E4B84F82820A9
:1051200012F0070F08BF1A7829780CBF013200224D
:105130001A7094F86A3C94F8682C0133DBB29A42F6
:1051400001F1010184F86A3C297038BF0023C0B224
:1051500038BF84F86A3C2530BDE8F843FFF70EBE3F
:10516000062B04D1D4F8740C801A00217FE7042B9D
:105170007FF47DAFD4F8780CF6E794F86A6C73434B
:10518000C4F86C3C26B9FCF763FE134B83E841007E
:10519000D4F8700CD4F86C3CC01AE6E71E22002349
:1051A000FBF762F826F01F066870C0F30420064380
:1051B000AE706FF3C71872E70323237504F08AFA01
:1051C00099E7490828469DE780030020C4BF0300F3
:1051D000F3100020F210002080340020F8B5594C64
:1051E00094F82D3294F82E229A4206D00133DBB285
:1051F000022B08BF002384F82D3294F8133C94F856
:10520000142C9A4206D00133DBB2022B08BF0023D4
:1052100084F8133C94F82D7294F8325494F88D3C31
:1052200007EB072705EB05252B3705F22F25E61998
:105230002544052B0AD8DFE803F003454F575F6785
:1052400040F2011240492846FBF7D6F9E35D03F02E
:105250000F03072B1AD1F278D3074CBF06F10A03CC
:10526000331D900748BF0633110748BF0233D206EB
:105270000CD506225A709A7822F01F029A701A787A
:10528000032102F07F0261F305021A70284604F040
:1052900091F9E35D03F00F03022B3DD0072B3BD0C8
:1052A00002239620237504F08FFA002004F0FCF905
:1052B000002384F8693C84F86A3C0320BDE8F84088
:1052C000FFF75CBD40F2011220492846FBF794F934
:1052D0000120FFF753FDB9E740F201121C492846AF
:1052E000FBF78AF90220F4E740F201121949284637
:1052F000FBF782F90320ECE740F201121649284639
:10530000FBF77AF90420E4E740F20112134928463A
:10531000FBF772F90520DCE7114A94F88C1C012395
:10532000137094F88D3C0133DBB2994284F88D3CC4
:10533000B6D194F8293043F0010384F829300023D2
:105340001370ADE780030020B3070020B4080020ED
:10535000B5090020B60A0020B70B0020B80C0020C9
:10536000F1100020000000002DE9F04F8BB0002468
:10537000FF25DFF814918DF81F50804693461F4695
:1053800001F1040A1C60089426460223099309AB24
:1053900002933B4B019308AB00930DF11F025B4658
:1053A00041460020FEF77EFB02280BD0099B6BB123
:1053B000404080F311884FF0040002DF4146002096
:1053C000FEF7EEFB099B022BF8D0EFE79DF81F20BC
:1053D000FF2A4ED0062AD8D999F8F83C07339A42CA
:1053E000D3DA073A92B24FF48271D9F8F00CFDF794
:1053F0004BFC0028C9D090F91D30002BC5DB036899
:10540000089AD0F804E0002B12DA816823F00043F8
:1054100071452CBF52187244D21AC168FF2D01F198
:1054200004010B4408D19DF81F501C461646ACE7FA
:10543000734538BF7346F0E7314610460593049232
:10544000FEF7C6FB04EB0A018842049A059BEAD9E1
:105450000C483444A4FB0001072303FB041106A3FA
:10546000D3E90023FAF700FF803038600BB0BDE8C5
:10547000F08FFF2DECD1F9E700CA9A3B0000000045
:10548000D54900008D49FD1A8003002070B50478CD
:105490000A78C4F38013B3EBD21F19D104F00F04C0
:1054A000012C01F1080600F1020508D00622314660
:1054B0002846FBF78CF8B0FA80F0400970BD062250
:1054C00031462846FBF783F80028EFD1204670BD0F
:1054D000002070BD0B4A92F8603D92F8611D994220
:1054E0000ED192F8603D02EB4303A3F85A0D92F8F7
:1054F000603D0133DBB2032B08BF002382F8603D1F
:10550000704700BF80030020044B1B7D23B10121A5
:1055100000220846FDF71ABC704700BF8003002038
:10552000062810B50C460AD9094BC21F92B24FF497
:105530008271D3F8F00CFDF7A7FB206010BD0528A1
:1055400004D00628034818BF002010BD024810BD33
:10555000800300209C0F00209803002008B50A4B10
:1055600000221A7068B1012805D1084B00221146AB
:10557000FDF714FC38B1404080F311884FF004006F
:1055800002DF034BF2E708BD7411002070610020B8
:105590006061002038B505460C460021084603F03E
:1055A0008FFF95F8A830DB064FF001020DD51F21C3
:1055B000082003F0CBFF2246002105F1A90004F0EA
:1055C000FDF9BDE8384003F0EFBF08201B2103F0D0
:1055D000BDFF2046F5E738B505460C4600210846D4
:1055E00003F06EFF95F8A8309B064FF001020CD532
:1055F0001F21082003F0AAFF214605F1CA0004F08C
:1056000019FABDE8384003F0D5BF08201B2103F08C
:105610009DFF2046F5E7000070B5164C037894F81E
:105620002D2CDB09B3EBD21F05460E4607D094F8AC
:105630002D0CC0F3011010F002000BD170BD00F171
:105640000801062204F62E40FAF7C1FF0028EED129
:10565000012070BD95F90030002B09DA6B7B03F057
:10566000C003402B04D1002EF2D00120307070BD59
:10567000002070BD80030020404080F311884FF06F
:10568000040002DF30B50468002C89B019DA4368E1
:10569000856806909D4224F0004434BFE41A641BE0
:1056A000094B0593A4B20023049303930293184675
:1056B00001940094FEF76CF930F0020301D0FFF77B
:1056C000DBFF09B030BD00BFE5490000000000006D
:1056D0002DE9F0412C4F8AB0FEF778FAD7F8408CCC
:1056E0002A4B40F2712404FB08F4A4FB034542F664
:1056F000ED630893264B07930026264B06960593E9
:10570000D7F8282CD7F8443C03961344049320463A
:105710001BA3D3E900232946FAF7A6FD1E4A20F071
:105720007F4007230021434302FB0133A0FB02011A
:10573000201A194465EB01014FF47A720023FAF73D
:1057400093FD029015489123A8FB000103FB08116B
:105750000BA3D3E90023FAF787FD20F07F400190E7
:105760000096D7F8EC3C062231463046FEF7C0F8EA
:1057700030F0020301D0FFF77FFF0AB0BDE8F081EF
:105780008D49FD1A070000008003002000CA9A3BE3
:10579000655C0000C15E00008D49FD1A002AE784A7
:1057A000FFF796BF10B503460A4600F19C01D0F8FA
:1057B0009C0008B9FFF760FF1C8CA3F8A24083F897
:1057C000A42007240A4A83F8A04092F8584D83F891
:1057D0009C4002F55362FDF771FA28B9404080F30E
:1057E00011884FF0040002DFBDE8104003F07EBBDB
:1057F0008003002010B5164A92F8213D92F8221D30
:10580000994201D1FFF738FF92F8211DD2F81C3DD3
:1058100053F8211092F8583D08680B7092F8213D1A
:1058200092F8204D0133DBB29C4208BF002382F87E
:10583000213D02F55362FDF741FA28B9404080F35B
:1058400011884FF0040002DFBDE8104003F04EBBAA
:10585000800300200000000073B5164602AA1C4613
:10586000054642F8046D27310120FFF77DFD2368CE
:10587000FBB10198831B1B0201D5FFF7FDFE3146EA
:10588000FEF7A6F9024610480723A2FB000103FB1E
:1058900002110BA3D3E90023FAF7E6FC23681844AE
:1058A0000028206005DB40F2E2406843236898420C
:1058B00001D302B070BD1B1A2360F7E7AFF300807D
:1058C00000CA9A3B000000008D49FD1A13B500F193
:1058D0006C030446826FC168808CFFF7BDFF02A98C
:1058E000E36E606F40F2E242B3FBF2F3022221F872
:1058F000023DFAF781FE02B010BD000010B4054C65
:10590000024604F65843D4F8501CB4F8480C10BCB6
:10591000FFF7A2BF8003002038B5104A92F8583D27
:1059200092F8544D0133DBB29C4208BF002392F839
:10593000574D9C4201D1FFF79FFE92F8585DD2F877
:10594000504D24F8350092F8580D04EBC004616006
:1059500082F8583DBDE8384003F0C8BA8003002003
:105960002DE9F843244C064600272EB194F8553D06
:1059700094F8562D9A4201D1BDE8F88394F8558DDC
:10598000D4F84C9DD4F8F00C39F8382009EBC80352
:105990004FF482715D682F60FDF776F9034639F8A0
:1059A00038001A8C82421FD1D3F8F82042B9D3F8BC
:1059B000EC20C3F8F8501AB9C3F8EC50C3F8FC2037
:1059C000D3F8FC2002B11560C3F8FC5094F8553DA3
:1059D00094F8542D0133DBB29A4208BF0023013EF4
:1059E00084F8553DF6B2C0E72B7967F301032B71BC
:1059F0002946FFF791FFE9E78003002073B50122F4
:105A0000044611460020FDF7A1F994F8202000215A
:105A100042F2E2730732009308463A4BD2B2FEF7E5
:105A200005F830F0020105D0404080F311884FF0B6
:105A3000040002DF344B1A7D052A1D461BD1228C3F
:105A4000187C0732904216D1197442F2F373009316
:105A500001222C4B0846FDF7E9FF30F00202E3D1AA
:105A600042F2FA7300931146264B1046FDF7DEFF13
:105A700030F00203D8D1D4F8EC10D4F8F0309942C9
:105A800003D0D4F8F830994201D1204E12E00B79BE
:105A90006FF301030B710B68C4F8EC30208CFFF737
:105AA0003BFFE8E70368C4F8EC30C4F8F030314657
:105AB000FDF7D5F8D4F8EC0018B1D4F8F8309842D6
:105AC000F0D10023C4F8F030C4F8F430D4F8EC106E
:105AD00051B94FF6FF732384D5F8683D9C4208BF47
