:1000000068780020B11200000113000049110000BF
:100010004911000049110000491100004911000078
:100020004911000049110000491100003D0D000078
:100030004911000049110000F90C000049110000AD
:1000400075120000C34E0100751200007512000009
:100050007512000075120000751200007512000084
:100060007512000075120000751200007512000074
:100070007512000075120000751200007512000064
:100080007512000075120000751200007512000054
:100090007512000075120000751200007512000044
:1000A0007512000075120000751200007512000034
:1000B0007512000075120000751200007512000024
:1000C0007512000075120000751200007512000014
:1000D0007512000075120000751200007512000004
:1000E00075120000751200007512000075120000F4
:1000F000751200007512000000000000ED1E0000E7
:1001000000000000C110000000000000C11000004D
:1001100000000000C110000000000000C11000003D
:1001200000000000C1100000B48A0020D1200000AF
:1001300000000000C110000000000000C11000001D
:1001400000000000C110000000000000C11000000D
:1001500000000000894E010000000000C1100000F6
:10016000908A00209924000000000000C1100000C7
:1001700000000000C110000000000000C1100000DD
:1001800000000000D925000000000000C1100000A0
:1001900000000000C110000000000000C1100000BD
:1001A00000000000C110000000000000C1100000AD
:1001B00000000000C110000000000000BD4E010062
:1001C00000000000C110000000000000C11000008D
:1001D00000000000C110000000000000C11000007D
:1001E00000000000C110000000000000C11000006D
:1001F00000000000C110000000000000C11000005D
:1002000000000000C110000000000000C11000004C
:1002100000000000C110000000000000C11000003C
:1002200000000000C110000000000000C11000002C
:1002300000000000C110000000000000C11000001C
:1002400000000000C110000000000000C11000000C
:1002500000000000C110000000000000C1100000FC
:1002600000000000C110000053B94AB9002908BFBE
:1002700000281CBF4FF0FF314FF0FF3000F08EB967
:10028000ADF1080C6DE904CE00F01AF8DDF804E0D9
:10029000DDE9022304B07047430803F05533C01A68
:1002A000830803F0333300F03330184400EB1010B0
:1002B00000F00F3000EB002000EB0040000E704714
:1002C0002DE9F0478C460D460446089E002B51D17F
:1002D0008A4217466DD9B2FA82FEBEF1000F0BD0EA
:1002E000CEF1200C01FA0EF520FA0CFC02FA0EF702
:1002F0004CEA050C00FA0EF44FEA174A250CBCFB39
:10030000FAF81FFA87F90AFB18CC45EA0C4508FBF6
:1003100009F3AB420AD9ED1908F1FF3280F02381CD
:10032000AB4240F22081A8F102083D44ED1AA4B28C
:10033000B5FBFAF00AFB105544EA054400FB09F945
:10034000A14509D9E41900F1FF3380F00A81A145E4
:1003500040F2078102383C44A4EB090440EA08401B
:100360000021002E61D024FA0EF400233460736063
:10037000BDE8F0878B4207D9002E54D0002186E8D3
:1003800021000846BDE8F087B3FA83F1002940F068
:100390008E80AB4202D3824200F2FA80841A65EB6F
:1003A00003050120AC46002E3FD086E81010BDE8C2
:1003B000F08712B90127B7FBF2F7B7FA87FEBEF153
:1003C000000F34D1EB1B3A0C1FFA87FC0121B3FB61
:1003D000F2F8250C02FB183345EA03450CFB08F341
:1003E000AB4207D9ED1908F1FF3002D2AB4200F25F
:1003F000D1808046ED1AA3B2B5FBF2F002FB105596
:1004000043EA05440CFB00FCA44507D9E41900F1BC
:10041000FF3302D2A44500F2B8801846A4EB0C04C6
:1004200040EA08409DE731463046BDE8F087CEF10E
:10043000200405FA0EF307FA0EF720FA04F83A0C36
:1004400025FA04F448EA0308B4FBF2F14FEA184530
:1004500002FB11441FFA87FC45EA044501FB0CF33B
:10046000AB4200FA0EF409D9ED1901F1FF3080F02A
:100470008A80AB4240F2878002393D44EB1A1FFA72
:1004800088F5B3FBF2F002FB103345EA034500FBAD
:100490000CF3AB4207D9ED1900F1FF386FD2AB4234
:1004A0006DD902383D44EB1A40EA01418FE7C1F1B2
:1004B000200722FA07F88B4005FA01F448EA030303
:1004C00020FA07FE4FEA134CFD404EEA040EB5FB3E
:1004D000FCF94FEA1E440CFB19551FFA83F844EA55
:1004E000054509FB08F4AC4202FA01F200FA01FAF0
:1004F00008D9ED1809F1FF3043D2AC4241D9A9F136
:1005000002091D442D1B1FFA8EFEB5FBFCF00CFBEF
:1005100010554EEA054400FB08F8A04507D9E41839
:1005200000F1FF3529D2A04527D902381C4440EA02
:100530000940A4EB0804A0FB02894C45C6464D4681
:1005400015D312D056B1BAEB0E0364EB050404FACE
:1005500007F7CB401F43CC40376074600021BDE8F3
:10056000F0871846F8E69046E0E6C245EAD2B8EBD6
:10057000020E69EB03050138E4E72846D7E7404659
:1005800091E78146BEE7014678E702383C4445E7FB
:10059000084608E7A8F102083D442BE7704700BF72
:1005A0000139034611F8012F0AB91A70704703F890
:1005B000012BF7E702460346981A13F8011B00299E
:1005C000FAD170470138013910F8013F11F8012FB5
:1005D000934202D1002BF7D11A46981A704770B592
:1005E00082B1013A0C46034603D11A782078101ADA
:1005F00070BD1E782578AE4200F1010001F10101C5
:10060000EFD0F2E7104670BD81EA000313F0030F4C
:1006100070B503460BD0013B0A4491421BD170BD1B
:10062000002AFCD011F8014B03F8014B013A9C075A
:10063000F6D11E1F0D46541B0C44032C06D822F085
:1006400003042144234402F00302E4E755F8044B79
:1006500046F8044FEFE711F8014B03F8014FDCE7D0
:1006600070B5C9B203469C0711D141EA012444EA9E
:1006700004441E46951B1D44032D0ED822F003048E
:10068000234402F003021A44934209D170BD002AA8
:10069000FCD003F8011B013AE5E746F8044BE9E713
:1006A00003F8011BF0E7000038B50D4614462AB9DF
:1006B000094801F015F8AC84204638BD1A46214699
:1006C000064801F00DF8064B06481968013119601B
:1006D00001F006F8012038BD508601006086010057
:1006E0000000002082860100044B054A05480029CD
:1006F0000CBF1146194600F0F3BF00BFE6850100AC
:10070000DB850100ED8501002DE9FF410746144618
:100710000D4659B9394800F0E3FF2C2229462046FE
:10072000FFF79EFF002004B0BDE8F081344C098A39
:10073000344800F0D5FF002641F60D036946A06954
:10074000ADF802308DF8006002F0DAF842F6372397
:10075000E0B92D4E8DF8040004220DEB0201304665
:10076000ADF80630FFF750FF2B8AA66101332384D2
:10077000032384F828302146384607F063FC0146FD
:100780000028CFD0214800F0ABFFCBE702A9A06939
:100790008DF80860ADF80A3002F0B2F81C4EB8B916
:1007A000DFF864808DF80C0042F60213042203A9DE
:1007B0004046ADF80E30FFF727FF2B8AC4F81880AB
:1007C0009A1C22840133042284F82820B384D2E7BF
:1007D000104B33620123338531462B8AF38438462C
:1007E00007F042FF014620B110F1450F01D00A4841
:1007F000C9E70A4800F074FF94E700BF6E85010066
:1008000008000020818501008000002098850100FB
:1008100050000020A9060000B2850100CD8501002E
:1008200070B503788AB004460E4607AD032B20D876
:10083000DFE803F002191B1D11492846FFF7B0FE3F
:1008400062780492A2780392E2780292227901926D
:1008500062790092A37905950A4A1B21304600F07F
:100860004DFF0AB070BD0849E7E70849E5E70849C8
:10087000E3E7084A0A21284600F040FFE0E700BF0E
:10088000E783010010840100EE830100F58301007D
:10089000FF83010009840100F0B589B00C460646CB
:1008A00004F0CFFF01A9FFF7BBFF34B1224601A935
:1008B0001F4800F015FF09B0F0BD1E4D1E4801A9EC
:1008C00000F00EFF2B689E422F461FD11B4E8DF865
:1008D000004041F60D03042269463046ADF802306F
:1008E000FFF792FE1649174BCB6101230B84286852
:1008F0008E614FF6FF73CB8481F8284007F0A2FB8E
:10090000014618B1104800F0EBFED4E7386818B97A
:100910000E4800F0E5FECEE70D490E4B8B6107F067
:100920006BFB014608B10C48EDE70C48F1E700BF4E
:100930003384010004000020518401008000002065
:10094000080000200907000060840100798401008C
:1009500034000020E906000088840100A284010020
:1009600030B58BB00C46054604F06BFF03A9FFF7CA
:1009700057FF22460E4C0F4803A900F0B1FE236832
:100980009D4213D1284604F059FF002323600A4BEF
:100990000A49186801909B88ADF8083001A804F056
:1009A00077F9014610B1064800F09AFE0BB030BD51
:1009B000040000202D85010058830100C5090000B6
:1009C0004B8501002DE9F04F1C468FB015460E46B1
:1009D00007A98046FFF724FFA38800962A4607A9A7
:1009E000324800F07DFE012D12D8DFF8C490DFF808
:1009F000D0A0A388012B0BD9204616F0F7F90546A5
:100A000030B1A28883B29A4205D2294800F068FE2C
:100A10000FB0BDE8F08F204616F0E8F9013D06461C
:100A2000EFB201463A462348D4F800B0023E00F047
:100A300057FE012E05D817F0010628D0484600F0D1
:100A40004FFE2946204616F0C9F9D2E702220BEBE9
:100A500006010DF10A00FFF7D7FD00238DF81030D5
:100A6000BDF80A208DF80C3003A941F60D0304A847
:100A7000ADF81220ADF80E3001F042FF30B904F0AD
:100A800059F9014630B1504600F02AFE0236B7420D
:100A9000DCDCD6E7084A1068516805AB03C305A93A
:100AA000404604F0F1FE054B1860B1E7B484010044
:100AB000EB840100F98401005E8301000400002042
:100AC0000F85010007B5002004F06AF8014628B13F
:100AD0000E4800F005FE03B05DF804FB0C4800F082
:100AE000FFFD0C4804F040FB0B4B0C4918680090CC
:100AF0009B88ADF80430684604F0CAF8014608B196
:100B00000748E6E7074800F0EBFDE4E7FA85010057
:100B10001A860100A885002066830100C50900002F
:100B20004B85010031860100054B1B68082B01BF76
:100B3000044B1868B0FA80F0400918BF00207047D5
:100B4000300100103401001008B54FF02003EFF31E
:100B5000118183F31188FFF7E7FF40B14FF0804325
:100B60000022C3F80C21C3F81021C3F83825FFF781
:100B7000DBFF10B1384B394A1A60FFF7D5FF18B1C7
:100B8000374BFB22C3F81825FFF7CEFF48B1354895
:100B9000354B02681B6822F00F0203F00F0313436A
:100BA0000360FFF7C1FF18B1304B4FF400721A60B9
:100BB000FFF7BAFF48B14FF08043D3F80024D207C3
:100BC00044BF6FF00102C3F800244FF01023D3F8A4
:100BD0000022002A03DBD3F80432002B2FDA244B47
:100BE0000122C3F80425D3F80024002AFBD04FF0DB
:100BF00010221221C2F80012D3F80024002AFBD0E0
:100C00004FF010231222C3F80422194B1A46D3F8CE
:100C100000140029FBD00021C3F80415D2F80034D9
:100C2000002BFBD0BFF34F8F1249134BCA6802F45D
:100C3000E0621343CB60BFF34F8F00BFFDE70D4B66
:100C40004FF0FF329A62DA620C4B0D4A1A6081F360
:100C50001188002008BD00BF8C5600404881030069
:100C600000F00040E40E00405802001040960240A0
:100C700000E0014000ED00E00400FA0508860020D5
:100C80000090D003084881684A897F2A0BD8C06940
:100C9000884208D000B516F0B5FC5DF804EB0349B6
:100CA0004FF080520A607047383F002004ED00E0AA
:100CB000044800232021C21801332E2B82F8001390
:100CC000F9D1704700E100E0084A094993680968D2
:100CD0005966084918664B6843F080534B600023FF
:100CE00083F311889368586E704700BF383F002027
:100CF0005CC6010000ED00E00E498A68282010441F
:100D0000EFF3098C80E8F01F0B4F4FF000662020B6
:100D100080F31188CA698A603E60106E00231366F2
:100D200080F3118802F1280090E8F01F8CF3098805
:100D300070470000383F002004ED00E01EF0040F73
:100D40000CBFEFF30880EFF30980816931F8021CD2
:100D500011F0FF0101D0022907D0404080F3118833
:100D600004494FF080520A60704700B500F02CFA39
:100D700000BD000004ED00E010B5044616F018FCBC
:100D800022680146BDE81040014800F0A9BC00BF40
:100D9000F387010010B504461A4800F0A1FC04F1E5
:100DA0001800194CFFF7E8FFA36A9A0102D517480B
:100DB00000F096FCA36ADB0102D5154800F090FC18
:100DC000A36A180302D5134800F08AFC0E4CA36AEC
:100DD000590302D5104800F083FCA36A9A0302D598
:100DE0000E4800F07DFCA36ADB0302D50C4800F03E
:100DF00077FC054A936A6FEA03436FEA13439362F1
:100E000010BD00BFF488010000ED00E00D89010075
:100E1000218901003C8901005B8901008189010071
:100E20009C89010038B5044619480D4600F058FC6D
:100E300004F11800174CFFF79FFFA36AD90604D5E9
:100E40001548BDE8384000F04BBCA36A1A0701D52D
:100E50001248F6E7A36A9B070FD5114800F040FC43
:100E6000616BA36A180612D50E4800F039FC75B103
:100E7000A36A23F08003A36238BDA36ADA0701D511
:100E80000948DEE7A36A9B0601D50848D9E738BDC3
:100E90003D88010000ED00E05488010066880100F3
:100EA0007A88010093880100A4880100C4880100A9
:100EB00038B504461D480D4600F012FC04F1180038
:100EC0001B4CFFF759FFA36AD80404D51948BDE8A5
:100ED000384000F005BCA36A190501D51648F6E7AD
:100EE000A36A9A0514D5154800F0FAFBA16BA36A12
:100EF0001B0407D5124800F0F3FB1DB1A36A23F4CD
:100F00000043A3620A4B9B6A58050ED50D48DEE7E5
:100F1000A36A5905FAD4A36ADA0501D50A48D6E7C7
:100F2000A36A9B0401D50948D1E738BDBA86010000
:100F300000ED00E05488010066880100D1860100C0
:100F400093880100EB86010007870100C488010037
:100F500038B5274D6B68C3F30803DA1E0446092A27
:100F60003AD8DFE802F00533352F393939393937C6
:100F7000204800F0B5FBEB6A9A0703D51E4800F045
:100F8000AFFB0CE0EB6A5B0009D51C4800F0A8FB46
:100F90001B4B1B784BB101212046FFF743FF214635
:100FA0000020BDE8384000F013B9164B1B7823B180
:100FB00001212046FFF77CFFF1E7134B1B889BB212
:100FC000002BECD02046FFF7E5FEE8E70021E3E741
:100FD0000021EEE70D48D2E70D480E49A3F11002BB
:100FE0000F2BD8BF01460C4800F07AFBD7E700BFB3
:100FF00000ED00E04E870100668701008887010050
:1010000028ED00E029ED00E02AED00E0A8870100CE
:101010002087010035870100DF870100024A5369FC
:1010200043F010035361704700ED00E043B2002B22
:1010300008DB012200F01F0002FA00F05B09024AFF
:1010400042F82300704700BF00E100E043B2002BEC
:101050000DDB01225B0900F01F0002FA00F02033D3
:10106000034A42F82300BFF34F8FBFF36F8F7047DF
:1010700000E100E04209054B00F01F0053F8222078
:10108000012303FA00F01040704700BF00E100E0C8
:1010900043B2002BA8BF03F1604301F101014FEA05
:1010A0004111ADBF03F5614300F00F00034BC9B21E
:1010B000B6BFC9B283F800131954704714ED00E0AD
:1010C00000F042B808B572B6044B986918B1002216
:1010D0009A6115F0E1FE62B608BD00BF383F0020FE
:1010E000F8B50C4616461F4604220A9B0999054688
:1010F00016F086FDA6F1200121440C4AAC6521F0D2
:101100000701002322F00102EB642B65EE658A6182
:10111000069A4A60079A8A60089ACA600F604FF080
:101120008072CA61A9642B66F8BD00BF757A0100A0
:10113000014910220A60704710ED00E0404080F342
:10114000118830BF704700BF404080F31188DFF83E
:101150001CC0DCF800C01CF4006C0CBFEFF308806E
:10116000EFF3098000B5FFF7F3FE00BD04ED00E0EA
:10117000042838B504460D4613D0052813D003289B
:1011800013D10C4800F0ACFA16F012FAAA69014625
:10119000094800F0A5FA29462046BDE8384000F08D
:1011A00017B80648EEE70648ECE70146054800F0A8
:1011B00097FAE9E7C8890100468A0100EE89010033
:1011C000088A0100238A010001460068FFF7D0BFAA
:1011D000052810B50CD016F035FC60B116F032FCC5
:1011E0000C4B0D49002808BF19460C4800F078FA4E
:1011F000FFF7A4FFFCE716F035FC0028EED1084C01
:101200000848A16800F06CFAA068BDE8104000F042
:101210000BB800BF868A0100828A0100978A01000C
:10122000383F0020B78A010038B505464FF020034B
:10123000EFF3118483F3118816F072FC0B4B9B685B
:101240009D420DD10A4B5A68C2F3080222B916F02A
:10125000D9F92046FFF738FD5A6842F080525A60AB
:101260002046BDE8384016F031B900BF383F0020B5
:1012700000ED00E000B572B60B4A906900281EBF71
:101280000021916115F008FE62B6EFF30580A0F130
:1012900010004FEAC0000549014409C998475DF8AC
:1012A00004EBFFF7EFBC0000383F0020F80000001F
:1012B000202080F3118805484FF40061401880F326
:1012C0000988022080F3148800F006B8A87900206D
:1012D00030BFFFF7FDBF00BF08B5074B074A23F03B
:1012E0007F039360BFF34F8FBFF36F8F15F006FE40
:1012F00015F00EFE15F034FE0000000000ED00E0D9
:1013000008B5FFF7E5FFBDE80840FFF7BBBC0000EC
:10131000154B16491A6830B50D68C2F3072295427D
:101320000FD8002248685A60954200F10C000AD19B
:1013300005225A600E4B01221A70BFF34F8FBFF384
:101340006F8F002030BD50F80C1C50F8044C9A6090
:1013500021F01F0141F01001114344F00104D96054
:1013600001321C61E0E700BF90ED00E0C485002081
:1013700084000020002070470B6801330B60014B94
:101380001B6818470C8600202DE9F04F85B09B465E
:101390000E9CDFF890A0012CB8BF0124012B0CBFDC
:1013A0003023202315468046894601940293012666
:1013B0000A2700220AF101040AB9AA451FD2B5FB87
:1013C000F4F049463030C04701360122013F012F79
:1013D000B5FBF4F14FF00A0304FB1155BAFBF3FA25
:1013E000E8D1494605F13000C047BBF1030F03D1F6
:1013F000019B9C1B002C0FDC05B0BDE8F08F019B0E
:10140000BB42E3DBBBF1020FE0D8494602980392EE
:101410000136C047039AD9E749462020C047013C1E
:10142000E8E700BFFFC99A3B0A688B6830B512B184
:101430004C68A34202DB01338B6030BD651EAB42BA
:101440000BBF8C605C1C00218C600CBFD154D0544D
:1014500030BD0000014B1860704700BF0C860020B3
:101460002DE9F04F89B04FF0000A06460F4604926E
:101470001C464FF0FF39D0465546049B187810B9EA
:1014800009B0BDE8F08F45B9252800F00C81394638
:10149000B047049B01330493EFE7642861D019D867
:1014A00039280AD8312850D22D283CD030283DD0B8
:1014B000252808D13946B0476FE0582800F08980C8
:1014C000632800F0EA8039462520B047049B39465E
:1014D0001878F0E7702872D006D8692841D06C28B7
:1014E0003CD06828D5D0EEE7752858D017D8732897
:1014F000E9D1236804F1040B1C46254615F8010BBD
:10150000002840F0BF80B8F1030F40F0D580E41A06
:10151000A9EB0404002C00F3BB805C463DE0782876
:1015200057D07A28DEE74FF00308B2E7B9F1000F91
:101530000EDAB8F1000F00F0BC80A0F13009B8F16C
:10154000000F08BF4FF00208A3E7B9F1000FF4DB6A
:101550000A2303FB0909A9F13009F0E70AF1010A9E
:1015600097E7BAF1010FC5BF073424F007032568D8
:101570001D68D4BF043403F10804002D05DA394690
:101580002D20B0476D4209F1FF39CDF80090434658
:101590002A4639463046FFF7F7FE002579E7BAF1CB
:1015A000010FC5BF073424F0070322681A68CDF87D
:1015B0000090CCBF03F1080404344346E9E7394600
:1015C0003020B04739467820B0474FF008094FF037
:1015D0000108BAF1010FC7BF073424F007032368DD
:1015E0000593C2BF03F108041B6805934FF008027E
:1015F0004FF00003D8BF04340393079393460BF1D5
:10160000FF3B059B4FEA8B0023FA00F010F00F0020
:1016100009D1079B13B9BBF1000F22D14FF0300E57
:1016200007E0069AEBE709288CBF4FF0570E4FF002
:10163000300E394670440692B047039B079501333C
:101640000393BBF1000FECD1B8F1030FA5D1039BBD
:10165000C3EB4905002DA0DD39462020B047013DF0
:10166000F8E7531E91450693EBDBB8F1010F03D168
:1016700039463020B047E4E7B8F1020FE1D13946EE
:101680002020F7E7394603932C46B047039B34E705
:1016900039462020B047013C3CE72068251D3946EB
:1016A000B0472C4679E7AA46A8464FF0FF390125F6
:1016B000EFE64FF00108ECE65C460546E9E600007F
:1016C00013B502AC002344F8043D02460B46034820
:1016D0002146FFF7C5FE019802B010BD7913000046
:1016E0000FB407B504A951F8040B0191FFF7E8FF07
:1016F00003B05DF804EB04B0704700000CB430B5E3
:1017000085B008AB044653F8042B019002910025E4
:1017100001A9074800930395FFF7A2FE0398029BD7
:101720009842B8BF255405B0BDE8304002B07047BC
:101730002914000070478B4238B515461C4605D861
:101740001A462946FEF760FF204638BD0024FBE715
:10175000FEF786BFC3095A00134403EBC30383EAB1
:101760004000C0B27047CB780278534003704B887A
:101770004278534043700A68837883EA1223837067
:101780000A68C3785340C370CB7902795340037120
:10179000CB884279534043714A68837983EA1223A4
:1017A00083714A68C3795340C371CB7A027A53403C
:1017B0000372427A4B89534043728A68837A83EA80
:1017C000122383728A68C37A5340C372CB7B027B35
:1017D00053400373CB89427B53404373CA68837B76
:1017E00083EA12238373CA68C37B5340C373704771
:1017F0001FB502788DF8002042798DF80120827A99
:101800008DF80220C27B8DF8032002798DF8042028
:10181000427A8DF80520827B8DF80620C2788DF8FB
:101820000720027A8DF80820427B8DF80920827803
:101830008DF80A20C2798DF80B20027B8DF80C20E0
:1018400042788DF80D20C37A82798DF80E208DF8BC
:101850000F3010236A461946FFF76DFF05B05DF89B
:1018600004FBF8B5064608780C46FFF773FF0546FB
:101870006078FFF76FFFA27863785340E2785340B7
:101880005D404540357060782778FFF763FF054677
:10189000A078FFF75FFFA3785F40E3785F407D406B
:1018A00045407570A07865782778FFF753FF6F4043
:1018B0000546E078FFF74EFFE3785F407D40454006
:1018C000B5702078FFF746FF637825785D40A378F0
:1018D0005D404540E078FFF73DFFEDB26840F070B5
:1018E000F8BD0000F0B5284E07460C460FCE8DB06F
:1018F00001AD0FC50FCE0FC596E8070085E80700BC
:10190000002F3CD0002C3CD0381F2146024610341A
:101910004B780D781B0443EA0563CD782B438D7813
:10192000043143EA05238C4242F8043FF0D1174CBE
:1019300004218A07036918D14FEA33631A0EA55CA4
:10194000DAB2A25C42EA0562C3F30745C3F3072398
:10195000655DE35C42EA054242EA03220CAD21F0F8
:1019600003032B4453F82C3C534050F8042F01310F
:1019700053402C290361DCD101200DB0F0BD384665
:10198000FBE72046F9E700BF6C830100DC8A010019
:101990002DE9F043154689B0804600285BD0002928
:1019A0005AD0002A5AD010230A4668461946FFF733
:1019B000C2FE294668462A4CFFF7D5FE05F11007FE
:1019C000A146A03500261DF80630E35C0DF8063070
:1019D0000136102EF7D16846FFF70AFF694604A8C2
:1019E000FFF73FFF01A905A8FFF73BFF02A906A8E3
:1019F000FFF737FF03A907A8FFF733FF334604AA11
:101A000031466846FFF797FE394668461037FFF7BC
:101A1000AAFEBD42D6D100261DF8063019F80330C3
:101A20000DF806300136102EF6D16846FFF7E0FEBD
:101A300029466846FFF797FE33466A4631464046D8
:101A4000FFF779FE684632460021FFF781FE01204C
:101A500009B0BDE8F083FBE70846F9E71046F7E771
:101A6000DC8A010010B591F90030002B01F10F0262
:101A7000B4BF872300230F3014788A4283EA4403DB
:101A800000F8013903D012F80139DB09F4E710BD81
:101A900008B528B158220021FFF75AFE012008BDE1
:101AA00008BD10B5044690B110220021FFF750FE8A
:101AB00004F1300010220021FFF74AFE0023636486
:101AC00000224FF48033C4E91423012010BD10BD5F
:101AD00070B50D461646044618B319B358220021B6
:101AE000FFF736FE2946A6643046FFF7FBFE204688
:101AF00010220021FFF72CFE04F11005A26C2146F4
:101B00002046FFF745FF21462846FFF7ABFF294651
:101B100004F12000FFF7A6FF2046FFF7C2FF0120D7
:101B200070BD70BD084670BDF8B50D46164604463A
:101B300000285BD00AB90120F8BD002956D0D0E9B1
:101B4000142352EA030151D012F1FF3243F1FF3363
:101B5000C0E91423406C48B3C0F11007BE4200F145
:101B6000300009D2334631462A462044FFF7E3FDD0
:101B7000636C1E446664DEE73B462A4639462044D1
:101B8000FFF7D9FD00236364F61B3D44631E04F197
:101B90000F005A7893F831104A4003F8012F83421E
:101BA000F7D1A26C21462046FFF7F2FE04F10F07A1
:101BB000102E11D9631E691E5A7811F8010F424088
:101BC00003F8012FBB42F7D1A26C21462046FFF754
:101BD000DFFE1035103EEBE7002EACD033462A4630
:101BE000314604F13000FFF7A6FDC3E70020F8BD41
:101BF00070B50C46054670B371B34A6C102A1AD101
:101C000001F11002611E013A04F10F0691F8310052
:101C10004B78434012F8010F434001F8013F8E42D8
:101C2000F4D1A26C21462846FFF7B2FE2046FFF70A
:101C30002FFF012070BD02F130000021C2F110021F
:101C40002044FFF785FD636C2344802283F8302015
:101C500004F12002D6E770BD084670BD13B5114CE3
:101C6000BFF35B8F2068BFF35B8F60B90E4815F040
:101C7000EDF8BFF35B8F54E8003F44E80002002A10
:101C8000F9D1BFF35B8F436804221B680DEB02019F
:101C90009847002802DA00F00DFD0190019802B08B
:101CA00010BD00BF88000020DC8B01000A2838B579
:101CB0000446074D04D1286843680D215B689847A6
:101CC00028684368E1B25B689847204638BD00BF8A
:101CD0008C0000200148FFF7BDBB00BFAD1C000019
:101CE00008B5044815F0B2F8034B1860FFF7F2FF8F
:101CF000002008BDE68B01008C00002010B54FF0DD
:101D00002003EFF3118283F31188114C237823B958
:101D100082F311886FF0440010BD013BDBB22370E9
:101D200023B182F311886FF00F0010BD094B1878B2
:101D3000012128B1217082F311886FF00A0010BDD3
:101D4000197082F311884FF080425160187010BDF5
:101D5000920000209100002008B5002210460121C9
:101D6000FFF796F90020FFF761F9002008BD000099
:101D7000F8B54FF02002EFF3118382F31188254A62
:101D80001078441C147060B183F311884FF08043C5
:101D9000D3F80C3413F4803F14BF00206FF04300DD
:101DA000F8BD1D4D2F782FB1107083F311886FF09F
:101DB0000A00F8BD01262E7083F311884FF080448D
:101DC00019B33846FFF742F9C4F80071D4F8043368
:101DD000C4F804632660D4F8002192B10022C4F84C
:101DE00000210E4A13F0010F4FF0010308BFC4F8A1
:101DF00008330020C2F88031FFF718F900232B7058
:101E0000C4E720BF40BF20BFE5E7C4F8001126604B
:101E1000F4E700BF920000209100002000E100E004
:101E2000F8B506460C464FF02002EFF3118382F31B
:101E300011882C4A157865B183F311884FF08043DF
:101E4000D3F8183413F4803F0CBF6FF04300002028
:101E5000F8BD0127177083F311882846FFF7F6F8BD
:101E60004FF080430221C3F80451D3F80423C3F890
:101E70000413C3F818459F60D3F8041171B3920797
:101E8000194F58BF02224FF000014FF00105C3F86F
:101E900004114FF0000058BFC3F80823C7F8805161
:101EA000FFF7C4F84FF0804300211822C3F808233D
:101EB000C3F80C11C3F8101114F00301BED11020A7
:101EC000C3F83805C3F804233046C3F80453FFF7BA
:101ED0004FFF0028B2D1C7F80051AFE720BF40BF85
:101EE00020BFC9E79000002000E100E0F8B54FF006
:101EF00080430546D3F808E1D3F80423D3F80C4413
:101F0000D3F80071D3F80401D3F80C11D3F81061A1
:101F100002F00102BEF1000F03D04FF0000EC3F833
:101F200008E127B14FF080430027C3F800713AB1B0
:101F3000E30341BF4FF080430122C3F808231A6135
:101F400020B14FF080430022C3F8042149B14FF083
:101F500080440021C4F80C112846FFF7CFFE01236E
:101F6000636176B14FF0804300210124C3F8101162
:101F70002846C3F80443FFF7FBFE10B9014BC3F832
:101F80000041F8BD00E100E003689B689A6883683F
:101F900010B5DC68002024FA00F3DB0707D500F554
:101FA000A27352F82330C3F304238B4204D00130D0
:101FB0000828F0D16FF0120010BD0068806800683A
:101FC00041B9D0F8101521FA02F202F001021A60AC
:101FD00000207047D0F81025F9E700688068006895
:101FE00049B9012191401BB1C0F808150020704784
:101FF000C0F80C15FAE7C0F80435F7E710B58368A8
:102000003AB11A680A605A68196002B9596000202A
:1020100010BD18680028FAD081420ED15C680868AB
:1020200032B9A142186000D1586000230B60EEE77E
:10203000A142106008BF5A60F7E702460068E9E76E
:10204000F8B514460268876892680D469668A1B98B
:102050002146FFF799FF002811DBBA68012303FA34
:1020600004F4144300F1400203FA00F0BC6046F8A7
:102070002250C6F804032846F8BD6FF02200F8BDD0
:10208000F8B514460268866892680D46976889B963
:102090002146FFF779FF00280EDBB268012303FA1F
:1020A00004F403FA00F022EA0404B460C7F8080359
:1020B0002846F8BD6FF02200F8BD08B500220121C6
:1020C0000620FEF7E5FF0620FEF7B0FF002008BD62
:1020D000F8B5036806469B68B46898680022134602
:1020E0001546012700EB8201D1F800E1BEF1000F97
:1020F00008D0C1F80051D1F81015C1F3042107FA36
:1021000001F10B430132082AECD1A56806201D40DD
:10211000FEF79CFF246824B90620BDE8F840FEF7CE
:1021200085BFA3681D42F5D063682A462146304624
:102130009847EFE72DE9F8431446026887689268EC
:1021400080469568106819B16FF02200BDE8F883E9
:1021500003F44072B2F5807FC3F30131C3F38139D8
:1021600003F4403E56D0B2F5007F0CBF042200229B
:10217000BEF5803F08BF4FF0000E13F0010FDFF8EF
:10218000C8C04FEA810104F5E0764ED00C2A43D155
:102190004FF0010E0EFA04FEC0F808E549445CF861
:1021A000211041F003010A4340F8262013F00200F9
:1021B00047D09906C8D55A063ED413F0040F14BF71
:1021C0004FF480364FF40036F868FEF765F80828BB
:1021D00035D021464046FFF7D7FE0028FB6808DAD5
:1021E000DA4392FAA2F0002AB0FA80F008BF4FF06A
:1021F000FF302402012204F4F854824044F0010428
:1022000000F5A27013433443FB6045F820400020E2
:10221000BDE8F8830C22ABE7042A02BF4FF0010EA1
:102220000EFA04FEC0F80CE5B8E749445CF821104A
:102230000A4342EA0E02B7E74FF44036C4E76FF0B4
:102240000400BDE8F88300BF208C010003689B6890
:102250001B68D3F8082132B10020C3F80801D3F875
:1022600018350B7070474FF0FF30704703689B685C
:102270001B68C3F81C15D3F81C21002AFBD00022D0
:10228000C3F81C210846704703689B681B68D3F895
:10229000240118B1D3F88004C3F8800400F00F00C3
:1022A00070470000F8B503689B68054618481C682D
:1022B00014F0CCFD436806461F68062240F2011365
:1022C0000021B84773681F6800231946082230466A
:1022D000B8470623C4F80C350823C4F81435AB6896
:1022E0004FF4E1321A602B689B681B684FF0EB7269
:1022F000C3F824250423C4F8003500200123C4F8C2
:102300001C01C4F80801A3602360024B6B60F8BD98
:10231000888C0100988C01002DE9F0418378C47805
:102320001E1DA3420A4406441FD8E41AE4B2A14287
:102330003EBF641AE7B20C462344A1EB040128BF58
:102340000027DBB2C9B23444A64209D18370437876
:10235000BB4282BF204B01221A600846BDE8F081D3
:1023600016F8015B02F8015DEEE70578ED1AEDB2B3
:10237000A9423FBF671AED19EFB20D4638BF5B188F
:10238000A1EB050132BFDBB227460023C9B2964656
:1023900006EB050C664519D1521B0029D6D0002C3E
:1023A000D4D08C428ABF0B462346641A00F104063F
:1023B000A1EB03018CBFE7B20027C9B2F418A64213
:1023C000C4D016F8015B02F8015DF8E716F8018B3E
:1023D0000EF8018DDEE700BF00D0004030B5D0B16F
:1023E000C27805788478531CDBB2AB4208BF002367
:1023F000A34210D061B10A490244D1F80815117105
:10240000C3700133DBB29D4208BF0023A34205D055
:102410006FF00F0030BD6FF0360030BD002030BDD2
:1024200000D0004070B5846801221146204615F0A6
:1024300013F904F118000122002115F00DF904230D
:1024400084F831300C23002584F83D300521114BF0
:1024500084F830100D2684F8335084F8325084F814
:102460003C6084F83F5084F83E50D3F8042542F095
:102470000102C3F804250122C3F800513046C3F815
:1024800004231A602A46FEF703FE3046FEF7CEFD0F
:10249000284670BD00D0004038B5124BD3F800314B
:1024A000FBB18568012105F13C00FFF797FF10F1B2
:1024B000100F04460DD010F1370414BF0021012184
:1024C00005F13000FFF78AFF044605F1180015F00A
:1024D000CDF8044B00221034C3F800211CBF0122A8
:1024E0005A6038BD00D000402DE9F84385680F469A
:1024F000144605F1180814B92046BDE8F883FF2CEE
:10250000234628BFFF23E41ADEB2A4B205F1300946
:102510004FF0FF31284615F009F931463A46484652
:10252000FFF7FAFE0646284615F0A0F8002EE2D086
:102530004FF0FF31404615F0F9F8E9E7134602483D
:102540000A461946FFF7E8BEE0000020084BC3F832
:102550004005D3F80435C01A20F07F40054B0238FF
:10256000984282BF044B4FF40032C3F800217047F9
:1025700000100140FDFF7F0000E100E010B5124BAC
:10258000124CD3F804052268801A20F07F40B0F581
:10259000A37F11D90E49096840F24713B0FBF3F04D
:1025A000884228BF084603FB002323F07F432360B3
:1025B000084B186015F0FCF82068BDE8104000F2E8
:1025C0004710FFF7C3BF00BF00100140F800002014
:1025D000F40000203C8A0020024B0022C3F8402176
:1025E000FFF7CCBF0010014046F23543984228BFA8
:1025F0001846054B1860054B1B6840F2471202FB5A
:102600000030FFF7A3BF00BFF4000020F800002057
:1026100008B5074B0022C3F84021064B4FF40032A7
:10262000C3F88021FFF7AAFF034B01221A6008BDFF
:102630000010014000E100E0F400002070B51848EF
:1026400014F004FC48B34368164D1B6801219847F9
:10265000154B00241C60154B01261E6040F24713E9
:10266000C5F80845C5F840354FF48033C5F8443304
:10267000C5F804330E4BC5F840414FF40032C3F89F
:102680008021314622461120FEF702FD1120FEF77F
:10269000CDFCAE6020462E6070BD4FF0FF3070BDA7
:1026A000088C010000100140F8000020F400002018
:1026B00000E100E030B50B4A0B48D2F80415D0E930
:1026C0000045D2F8043599420AD1084A40F247132E
:1026D00003FB1413106823F07F4300FB043030BD6C
:1026E0001946ECE70010014068540020408A0020A1
:1026F00070B54FF02003EFF3118583F31188144C6C
:10270000144E237803EBC312013303F00303324466
:10271000237085F31188402928BF40210E4D0138D0
:10272000134602EB4106B34204D1002302F81130F4
:10273000104670BD4478240902332C5D03F8024C26
:1027400010F8014F04F00F042C5D03F8014CEAE788
:102750003301002034010020B28C010070B51D4A05
:102760001D49137803EB4306013303F00103137093
:1027700003788AB006EBC60604460E4407AD032B69
:1027800021D8DFE803F0021A1C1E14492846FDF781
:1027900007FF62780492A2780392E278029222798B
:1027A000019262790092A37905950D4A1B2130466A
:1027B000FEF7A4FF30460AB070BD0A49E6E70A49B1
:1027C000E4E70A49E2E70A4A0A212846FEF796FFAB
:1027D000DFE700BF32010020FC000020E78301009A
:1027E00010840100EE830100F5830100FF830100E6
:1027F0000984010030B585B00446154668460322B9
:10280000FDF702FF0D2200210DF10300FDF728FF67
:1028100020466A46694608F037FE044620B903227E
:1028200069462846FDF7F0FE204605B030BD13B5D9
:102830000C4601AA0331FFF7DDFF48B9032201A9C5
:102840002046FDF7CCFEB0FA80F0400902B010BD82
:102850000020FBE770B5CD1C06460C462846032138
:1028600008F0F6FD60B9637903F03F0343F04003DD
:102870006371224629463046BDE87040FFF7BABF73
:1028800070BD0000F0B40278012A04460B4617D050
:1028900003D3022A2CD0F0BC7047184A0D4602F12F
:1028A0001007106851682E4603C60832BA423546F2
:1028B000F7D11278327062885A73120A9A73EAE773
:1028C0000E4A0D4602F11007106851682E4603C6E5
:1028D0000832BA423546F7D11278327062685A73BC
:1028E000C2F30721120CDA73120A99731A74D2E731
:1028F000014611221846F0BCFDF786BEC38C0100CC
:1029000010B50C46017822788A428AB00ED069460A
:10291000FFF7B8FF05A92046FFF7B4FF10220DF11D
:1029200015010DF10100FDF75AFE0AE0012A0AD057
:1029300004D3022A0AD06FF0150002E040886388B1
:10294000C01A0AB010BD40686368F9E71022611C24
:102950000130E8E770B50B4D06460FCD8AB06C46E6
:102960000FC40FCD0FC495E80300092E84E80300BF
:102970009BBF0AAB03EB8606034856F8280C0AB047
:1029800070BD00BF98830100D49A01000722FDF7B3
:102990003BBE00B5BFF35B8F50E8003F43EA010246
:1029A00040E8002EBEF1000FF6D1BFF35B8F184652
:1029B0005DF804FB4B09BFF35B8F50F82300BFF3B6
:1029C0005B8F01F01F01084100F00100704700B566
:1029D000BFF35B8F50E8003F03EA010240E8002E9E
:1029E000BEF1000FF6D1BFF35B8F18465DF804FB14
:1029F00010B501F01F0301249C404B0900EB83003C
:102A0000E143FFF7E4FF044214BF0120002010BDA2
:102A1000C378002B41F2883200F1740108BF002214
:102A2000014815F0C7B900BF7054002013B5837A70
:102A300004461BB90123037202B010BD006FF8B148
:102A400000210830FFF7B6FFD0B1236F9B899B06AA
:102A50004CBF042303232372627A237A9A42EBD970
:102A6000084B01930093084A084B09490948FEF7AF
:102A700037FE0521204602B0BDE8104002F0B6BF87
:102A80000223E8E78D860100849A0100C48D0100CD
:102A90008B9A01008E9A01002DE9F041064686B01E
:102AA0009079264F8846154614F074F8874213D063
:102AB000AC79204614F06EF8214B059303908DE815
:102AC0004800049702941F4B1F4A20492048FEF7F4
:102AD00007FE06B0BDE8F081284614F061F81D4CF1
:102AE00004EBC0004388B34210D0284614F058F8D5
:102AF000134B039304EBC0001449428802928DE803
:102B00004800114A0F4B1448FEF7EAFD284614F01E
:102B100047F804EBC0004368002BDAD0284614F0D5
:102B20003FF804F83080284614F03AF804EBC0006F
:102B3000406806B0BDE8F04114F098BD748B0020E9
:102B40008D860100298E0100069801008B9A0100F4
:102B50000D9801003C03002052980100C0F30723A8
:102B600010705370000CC1F307231171090C9070A1
:102B70009171000A090AD0705371D1717047000039
:102B80002DE9F047804689461348144D4FF0FF3138
:102B900014F094F8044600F108060021304600279E
:102BA00014F0ABF82775204613F0FAFF05EBC000D0
:102BB000A0F80280204613F0F3FF05EBC0000321CC
:102BC0004760304614F0DCF880F80290A0F80080EE
:102BD0002046BDE8F08700BF748B00203C03002036
:102BE00070B5154686B00C4619B9FFF7C9FF044603
:102BF00068B301220021684614F02EFD204613F030
:102C0000CFFF144E06EBC000C0F804D0204614F0ED
:102C1000B3F82146104814F074F842F21071684677
:102C200014F084FD204613F0BBFF16F8300030B1DD
:102C3000204614F073F86FF0040006B070BD0DB1BB
:102C40002C60FAE7204614F069F82846F5E76FF0A3
:102C50003600F2E73C030020EC86002070B5154DED
:102C6000062205F108010646FDF7B9FC0446D8B175
:102C7000062142F20500FFF783FF0446B0B10622A9
:102C80003146083014F082F82146002242F2050055
:102C9000FFF7A6FF044638B90622314605F10800C1
:102CA000FDF7B2FC0123EB71204670BD6FF03604D6
:102CB000FAE700BF1886002007B50621684608F02D
:102CC000C7FB40B99DF80530684603F03F038DF817
:102CD0000530FFF7C3FF03B05DF804FBF8B5074606
:102CE0000E4642F227002721FFF74AFF0446D0B1E3
:102CF0002721083014F044F839460546FFF746FE10
:102D000031461022E81DFDF77FFC1022002105F15D
:102D10001700FDF7A5FC2146002242F22700BDE87E
:102D2000F840FFF75DBF6FF03600F8BD00F13001ED
:102D3000FFF7D4BF38B50121054642F22D00FFF759
:102D40001FFF044658B12946083014F028F82146E0
:102D5000002242F22D00BDE83840FFF741BF6FF07E
:102D6000360038BD38B50221054642F20C00FFF7A7
:102D700007FF044628B30221083014F001F8012DA2
:102D8000024615D10A211048FFF714FE5070157045
:102D90002146002242F20C00FFF722FF044628B928
:102DA000012D08D180210848FFF7F3FD204638BDEA
:102DB00000234370EBE76FF080010348FFF707FE45
:102DC000F4E76FF03604F1E78886002038B501217A
:102DD000054642F20A00FFF7D3FE0446D8B1083098
:102DE0008DB1012113F0DBFF2146002242F20A00DF
:102DF000FFF7F6FE044620B93DB120210748FFF752
:102E0000C8FD204638BD2946ECE76FF02001034895
:102E1000FFF7DDFDF5E76FF03604F2E78886002066
:102E2000028843889A4210B518D8052A16D9B3F5F6
:102E3000486F13D88488B4F5FA7F0FD2C188A1F106
:102E40000A0292B240F67640824207D804FB03336E
:102E5000B3EB810FB4BF0120002010BD002010BDD6
:102E60002DE9FF41664D95F8A43006462C461BB16E
:102E700095F8A5209A4209D994F8A530013384F831
:102E8000A5300025284604B0BDE8F08102210020CD
:102E900002F0B2FC804680B14FF4805105F1700021
:102EA000FFF777FD042106F10800FFF772FD4046A9
:102EB00002F0C4FC6FF00A05E4E7052105F170009B
:102EC000FFF778FD074610B14046FFF77FFF072167
:102ED0004C48FFF76FFD804610B10020FFF742FF1E
:102EE00094F8A530E3B10020FFF724FF0546B8B100
:102EF000454B01930093454A454B46494648FEF7EA
:102F0000EFFB0120FFF716FFB8F1000F02D0012000
:102F1000FFF728FF002FB5D00120FFF757FFB1E7DB
:102F200094F8A52094F8A4309A421DD1364E384B1F
:102F3000364A3849019600963848FEF7D1FB002200
:102F4000114642F22900FFF74BFE054630B10196CB
:102F500000962F4B324A2F493248D0E794F8A530DB
:102F6000013384F8A530CCE706F130013046FFF795
:102F7000B5FE054638B1244B01930093284A244BF3
:102F800024492948BBE794F8A530013384F8A530DB
:102F900094F845305B0707D41B4B019300931B4A01
:102FA000224B1C492248AAE7314602A8FFF7EEFC53
:102FB0000123082142F24E008DF80F30FFF7E0FDAB
:102FC0000446C8B108220DEB0201104413F0DEFEE6
:102FD00021462A4642F24E00FFF702FE0446002830
:102FE0008FD0094B019300930D4A094B09491148B1
:102FF000FEF776FB254684E76FF03604F1E700BF65
:1030000018860020888600208D8601000698010021
:10301000B08D01008B9A0100688F01009D8F010027
:10302000849A0100DE8F01000E9001009C8D01004A
:103030003E900100789001002DE9F0434D4C94F84A
:10304000A43085B00646254623B194F8A520013367
:103050009A4209DD95F8A530013B85F8A53000249A
:10306000204605B0BDE8F0830221002002F0C4FB39
:10307000804678B14FF4805104F17000FFF789FC6D
:1030800008217018FFF785FC404602F0D7FB6FF06F
:103090000A04E5E7052104F17000FFF78BFC074601
:1030A00010B14046FFF792FE07213348FFF782FC3C
:1030B000804610B10020FFF755FE0020FFF73AFED2
:1030C0000446D8B12D4B02938DE818002C4A2D4BA5
:1030D0002D492E48FEF704FB95F8A53013B10120C9
:1030E000FFF728FEB8F1000F02D00120FFF73AFEEB
:1030F000002FB5D00120FFF769FEB1E795F8A530A4
:1031000095F8A4209A420BD2013B85F8A530B389EB
:103110001F4923F00203B381022007F0CDF8DBE75B
:10312000072142F22800FFF72BFD8146F0B107216D
:10313000083013F025FE3146FFF728FC22464946A9
:1031400042F22800FFF74CFD044648B10B4B0193B7
:1031500000930B4A0B4B0C490E48FEF7C1FABBE734
:1031600095F8A530013B85F8A530B5E76FF036043A
:10317000B2E700BF18860020888600208D860100F7
:10318000849A0100BA8D01008B9A0100A39001007E
:103190002D2D0000E090010038B500F1080504462F
:1031A00002212846FFF724FC20B12046BDE8384024
:1031B000FFF756BE03212846FFF71AFC20B1204630
:1031C000BDE83840FFF738BF38BD012310B50621F0
:1031D000044600F8013B08F03BF918B9A37963F005
:1031E0003F03A37110BD0000024BD3F8E430DB684D
:1031F000184700BF1886002030B5044685B00D463C
:1032000019B9FFF7BDFC0546F0B140F635439C42C5
:1032100014D12846FFF7E8FF044660B10C4B029337
:103220008DE818000B4A0C4B0C490D48FEF758FA74
:10323000284613F073FD204605B030BD29460948E5
:1032400013F05FFD0024F6E76FF03604F3E700BFEC
:103250008D860100849A0100D48C01008B9A0100B4
:10326000368F0100EC86002073B505460E461446E5
:10327000002107226846FDF7F3F921488DF8005038
:1032800000238DF80630012D0378ADF80160ADF80C
:1032900003408DF805300AD105217030FFF78AFB15
:1032A00028B9FFF709FD0446F0B98DF8055007214C
:1032B00042F20B00FFF764FC0446F0B107226946B6
:1032C000083013F063FD214642F20B00FFF794FF34
:1032D0000120FFF747FD044630B9012D07D14FF417
:1032E00000710848FFF755FB204602B070BD6FF42F
:1032F00000710448FFF76BFBF6E76FF03604F3E765
:10330000188600208886002038B508210546164812
:10331000FFF750FB024608B1002038BD07211248D4
:10332000FFF748FBD0B90121002002F065FA0446FE
:103330000028F1D04FF480610B48FFF72AFB2046AC
:1033400002F07CFA002D15BF3022122260214FF4CA
:1033500000610020BDE83840FFF786BF1046FFF748
:1033600001FD0028DFD038BD888600200000000065
:103370002DE9F0418EB00CAA002140F60340FFF782
:103380002FFC044600287ED10C9B9B681B786BB9F0
:103390003F4A13603F4BBFF35B8F012253E8001F8E
:1033A00043E800200028F9D1BFF35B8F0C9813F09D
:1033B000B5FC0CAA002141F20300FFF711FC044602
:1033C000002860D10C9B344D99680822013105F129
:1033D0001600FDF719F90C9813F0A0FC21460CAA71
:1033E00041F20100FFF7FCFB2E46044600284AD1BB
:1033F0000C9883685A78AA73D9789A7842EA01229D
:103400002A821A79EA73197ADA7942EA01226A82FF
:103410005A799B7942EA0323AB8213F07FFC214661
:103420000CAA41F20900FFF7DBFB044658BB0C9BDA
:10343000996806220131681CFDF7E6F80C982C709B
:1034400013F06CFC21460CAA41F20200FFF7C8FB06
:103450000446C0B90C9B99684022013105F11E0059
:10346000FDF7D2F80C9813F059FCAB7E5D061FD423
:103470000A4B019300930A4A0A4B0B490B48FEF78B
:103480002FF96FF0120420460EB0BDE8F08100BFA6
:103490009C03002088860020188600208D8601006D
:1034A000849A0100788E01008B9A01001591010029
:1034B00021460CAA42F20300FFF792FB04460028C3
:1034C000E1D10C9B99680822013106F17800FDF7E3
:1034D0009BF80C9813F022FC21460CAA42F2020041
:1034E000FFF77EFB04460028CDD10C9B9B68B3F808
:1034F0000120A6F8882042B1DA780A2A28BF0A22D9
:10350000114606F18C0014F0A7F80C9813F006FC95
:10351000B47E14F0200400F0C98096F83A301C07FD
:1035200013D50CAA002142F21C00FFF759FB0446F8
:103530000028A8D10C98836853F8012F5B68C6F85F
:103540008430C6F8802013F0E9FB96F878309806AE
:1035500000F1C880082142F20100FFF711FB044688
:10356000002800F0AA800821084413F009FC96F80E
:10357000783096F87950990702464CBF2F200F20DB
:103580009F0648BF40F0400015F0090F18BF40F4F7
:103590000060DD0796F8403003F0060348BF40F0B6
:1035A0001000062B08BF40F4C0700021FFF7D6FAC8
:1035B0002146002242F20100FFF712FB04460028D8
:1035C0007FF461AFB37E980621D4B6F88810F1B9C4
:1035D0000CAA41F20500FFF703FB044600287FF424
:1035E00052AFB6F888307BB90C9B95489B689978A8
:1035F0005A7842EA0122A6F888209A880A2A28BF27
:103600000A22114614F028F80C9813F087FB0821C1
:1036100040F60140FFF7B4FA044600284DD00821D7
:10362000084413F0ADFB96F87830D907024640F114
:10363000858081A1D1E90001FFF790FA214600229F
:1036400040F60140FFF7CCFA044600287FF41BAF98
:1036500001460CAA4FF60140FFF7C2FA794D002847
:1036600070D0794B794A7A497A4801950095FEF7EE
:1036700037F8002307220CA977480C93CDF8333094
:10368000FCF7ADFF002840F00981744F3B68002B28
:1036900040F0518196F86030DB0700F170810195B0
:1036A00000956F4B694A6A496E4875E1022140F600
:1036B0006D40FFF765FA054610B96FF03604E2E693
:1036C0000221083013F05CFB012344700370224692
:1036D000294640F66D40FFF783FA044600283FF480
:1036E0001CAFD0E60CAA002142F22F00FFF778FAB7
:1036F000044600287FF4C7AE0C988368B3F80180B5
:10370000B3F8037013F00AFB042142F22400FFF720
:1037100037FA05460028D0D00421083013F030FBDA
:103720002246A0F800804780294642F22400FFF795
:1037300057FA044600283FF40DAFA4E64A484FF07C
:10374000005179E70C9B42499C684848B4F8013025
:103750000293032B96BF464A464A52F82320019211
:10376000394B454A03950095FDF7BAFFB4F801308F
:10377000B4F80320022B3AD1022A38D83F4B53F831
:103780002230029201933C4A2F4B31490395009518
:103790003B48FDF7A5FF63790695D4F8091005911C
:1037A000032BB4F8071098BF364A0491A17994BF4F
:1037B00052F823202F4A039102932549224B01926C
:1037C00000952D4A3048FDF78BFF0C9813F0A6FAB0
:1037D0000CAA00214FF60240FFF702FA044640B15E
:1037E00001950095184B194A194928483FE7214B84
:1037F000C7E70C9B2648996802220131FCF704FFB9
:103800000C9813F08BFA0CAA21464FF60340FFF7F1
:10381000E7F930B1019500950B4B0C4A0C491D4856
:1038200025E70C9B1C48996801221144FCF7ECFE2B
:103830000C9813F073FA1CE79088000200800020B7
:10384000A48600208D8601009E8E0100069801004E
:103850008B9A010049910100188600207C450020C8
:10386000808E0100ED920100108800028491010019
:10387000A4990100D49A01007D910100989901005A
:10388000AD910100C49A0100D5910100129201008E
:10389000778600204B92010076860020624B1868E4
:1038A0009A880A909B79ADF82C200AA907225F48D4
:1038B0008DF82E30FCF793FE00283FF4E6AE5B480F
:1038C000FEF74CFF5A4B5B4A5B490190029500950D
:1038D0005A48FDF705FFB47B2046FFF73BF80595F6
:1038E000B38A0493338A534A534903930294504B47
:1038F000019000955248FDF7F3FEF47B2046FFF758
:1039000029F80495738A039302940190484B494A1D
:10391000494900954B48FDF7E3FE02F0DBF9044608
:1039200000287FF4B0AD02214748FFF732F8204667
:10393000FFF7EAFCA7E500211C683C4A072308467C
:10394000A04707287FF4A6AE3378012B04D1B379C2
:1039500003F0C003C02B5BD0019500953B4B3C4A64
:1039600035493C48FDF7BCFE6FF015040195009504
:10397000394B374A30493948FDF7B2FE83E509AA89
:1039800000214FF60940FFF72BF940B12F4B344A85
:103990002949344801950095FDF7A2FE19E0099BDD
:1039A00099684B7853B10123062202312E483370B7
:1039B000FCF72AFE099813F0B1F9C5E701950095C7
:1039C000224B274A1C492948FDF78AFE099813F023
:1039D000A5F91648FFF7F9FB04460028C6D13B6855
:1039E0007BB15F68114A07230146B8470728ABD06F
:1039F000164B174A10491E4801950095FDF770FEB9
:103A0000A2E701950095114B154A0B491948F5E7B6
:103A10001548FFF723F904460028A7D104210A48D6
:103A2000FEF7B7FF4BE700BFC083010018860020F8
:103A3000908E01007D9101008B9A0100CF930100CF
:103A4000EC9301003A94010088860020808E0100EA
:103A5000849A01008E930100AA8E010071940100E6
:103A6000069801008492010019860020B49201009A
:103A7000299301005893010010B5FFF779FC034B1F
:103A80001B6813B1BDE81040184710BD9803002013
:103A90002DE9F0410D46012101F0AEFE044600285B
:103AA00068D007213448FEF785FF00284FD1022156
:103AB0003148FEF77FFF10B13048FFF7CFF83049AB
:103AC00004F14F0004F15608FEF760FF2946404616
:103AD000FEF75CFF192142F20D00FFF751F8064690
:103AE000D0B31921083013F04BF9192205460021F3
:103AF000FCF7B6FD002760232B70AB704146681DB4
:103B00006F70EF70FEF742FF94F84F302B73B4F8EC
:103B10006030A5F80D30B4F86230A5F80F30B4F875
:103B20006430A5F81130B4F86630A5F813303A4681
:103B3000314642F20D00FFF753F868B920460221E2
:103B400001F032FD2046BDE8F04101F077BE0020D3
:103B5000FFF708F90028AAD01F23E37220460021AE
:103B600001F022FD204601F069FE0020BDE8F04191
:103B7000FFF7CABBBDE8F0818886002019860020C7
:103B80001886002038B50721044642F23200FEF7BD
:103B9000F7FF054698B10721083013F0F1F82388A4
:103BA0000380002402238470C37003714471847104
:103BB000294642F23200FFF71FFB204638BD6FF066
:103BC000360038BDF7B5074601AA002142F22F00A2
:103BD000FFF706F8D8B901988368B3F80160B3F825
:103BE000035013F09BF8062142F22200FEF7C8FFB3
:103BF000044670B10621083013F0C2F83B880380F8
:103C000046808580214642F22200FFF7F5FA03B094
:103C1000F0BD6FF03600FAE7F0B5B0F8016089B09A
:103C200005460C216748B7B2FEF7E2FE18B16649B7
:103C3000022006F041FB2B787BB10221002001F02D
:103C4000DBFD044638B12B78C372002101F0ACFCD7
:103C5000204601F0F3FD09B0F0BD2C1D214606A859
:103C6000FEF794FE9DF81830023BDBB2012B29D8F9
:103C7000062205F111010DF111008DF81830FCF745
:103C8000C3FC01238DF81030022106A801F0B4FD19
:103C9000EB78012B044609D16FF020014948FEF76B
:103CA00096FEA4B906A801F043FC04467CB9474B34
:103CB00002938DE88800464A464B47494748FDF73E
:103CC0000FFDC8E7214604A8FEF760FEDCE72046AA
:103CD00006A920F8486BFEF759FE2A7EEB7D43EAE1
:103CE0000223A4F85E30AA7E6B7E43EA0223A4F886
:103CF0006430EB7E2A7F43EA0223A4F86630EE7834
:103D0000E670012E1AD1364F04A904F14F00FEF7D8
:103D10003DFE394604F15600FEF738FE062107F154
:103D20007000FEF747FE48B1D7E92023002203F0D8
:103D30004003134302D03046FFF748F803212046E2
:103D400001F032FC237B032B18D1EB7823B1244BF9
:103D500093F87830190718D5022142F21600FEF7C1
:103D60000FFF054688B10221083013F009F82388B7
:103D70000380294642F21600FFF73EFA204601F082
:103D80005DFD0020FFF7C0FA65E7154D95F8792035
:103D9000D20708D52046FFF7F5FE20B98021201D67
:103DA000FEF7F7FDEAE795F878309B0606D5204642
:103DB000FFF708FF10B94FF48071F0E72046FEF7D7
:103DC00027FEDBE788860020993100008D86010000
:103DD000849A01001B8D01008B9A0100409901001B
:103DE0001886002070B506460D4642F221000321D8
:103DF000FEF7C6FE044660B10321083012F0C0FF92
:103E000085700680214642F22100BDE87040FFF730
:103E1000F3B96FF0360070BD2DE9F04FDFF848A11F
:103E20004F4D85B09AF80D304E486FF307138AF85E
:103E30000D3001F035FB00F101094FF0FF3249462A
:103E4000494814F05DF948B9484C474E04F1D40B89
:103E5000B9F1000F11D113F08DFBE3E7404B019353
:103E60000093434A434B44494448FDF739FC4040E2
:103E700080F311884FF0040002DF737B1B09012BD4
:103E800052D9042B62D1377B002F51D13946584685
:103E900012F01AFF804638B9314B01930093344A2F
:103EA000374B35493748E0E74FF0FF31364813F0DC
:103EB0003DFCD4F8C0306BB1314B2D4A2E490195F1
:103EC00000953248FDF70CFCD4F8C00012F026FF34
:103ED000C4F8C070404612F04FFFC4F8C00040461E
:103EE000FFF782F900B3264B214A2349019002953E
:103EF00000952748FDF7F4FB234813F0B7FB404635
:103F000012F04EFE234B03EBC00000221F2140881D
:103F1000FEF7C2FDD4F8C00012F000FF00234046B7
:103F2000C4F8C03012F0FAFE143609F1FF398FE7F9
:103F3000012F04D130691C3801F0DEF9F4E7022FBB
:103F4000F2D130692C3801F049FEEDE7019302957A
:103F50000095114B114A08491148FDF7C1FBE3E7F1
:103F60008D8601001487002000870020188600201D
:103F7000849A01006A8E01008B9A010095980100D5
:103F8000528E0100BF980100C0860020E498010015
:103F9000368F01003C0300205B8E01000698010073
:103FA0000F9901002DE9F04F037D012B95B00446D8
:103FB00040D0032B40F0638483681E885D88C6F37D
:103FC0000B03C382FF2343750421083012F006FF60
:103FD000A28995420ED0A94B0393019200930295BA
:103FE000A74BA84AA849A948FDF77AFB204612F03A
:103FF00095FE1BE0E08A01F0B3FB054658B99F4BE4
:10400000E28A0293019200939E4A9D4B9E49A048EA
:10401000FDF766FBEAE701F051FE320B60752146C1
:10402000284601F0A9F8284601F008FC002015B048
:10403000BDE8F08F86683278132A00F25B849340E3
:1040400013F40C2F00F056848C4B019300938D4A8F
:10405000904B8D499048FDF743FB404080F3118819
:104060004FF0040002DFA7683E78002EBED1B7F8FB
:104070000180404601F074FB0546C8B97F4B0293AE
:104080008DE808017F4A854B7F498548FDF728FB6D
:1040900006218448FEF78EFC0028A7D00521814820
:1040A000FEF788FC0028A1D10120FEF78FFE9DE7D6
:1040B000FB78C37212F020FF3146284601F074FAF3
:1040C0002E80AE780EB1284659E13146281DFEF704
:1040D00071FC30B12846012101F066FA3046FFF745
:1040E00013F9284601F0AAFBD2E7A668B6F80170DA
:1040F000384601F035FB054640B9604B02938DE828
:104100008800694B5F4A6049654881E73378827867
:1041100023B1002AD7D1037A4372D4E7F3788372AC
:10412000E2B90BB105F0D8FF2846FEF77FFC15E099
:10413000A668B6F80170384601F012FB054628B9AA
:104140004E4B02938DE88800584BDBE7317811B174
:1041500001F0EBFE4AE78378002BE3D02846317864
:1041600001F0E3FE284600F091FFACE7A1680B7870
:104170008DF83030B1F80130ADF83130CB788DF8B2
:104180003330B1F80B30ADF84730B1F80D30ADF841
:104190004930B1F80F30ADF84B300DAE4B7C8DF897
:1041A0004D3004313046FEF7F1FB0025062208A908
:1041B0000DF13B000895ADF82450FCF725FA304688
:1041C00006F0A2F80746A8B1B04213D006220DF1BE
:1041D00035010DF14100FCF717FA39463046FEF77C
:1041E000D5FB9DF8343002338DF834300CA8FFF73E
:1041F00013FDFBE606220AA90DF141000A95ADF870
:104200002C50FCF701FAF1E7A068F0E7A568B5F8D3
:104210000170384601F0A4FA064640B9174B0293E4
:104220008DE88800224B174A17492248F0E62B7880
:104230009BB92A79EB7843EA0223A0F85E30AA7989
:104240006B7943EA0223A0F86430EB792A7A43EAD7
:104250000223A0F8663000F091FE30468FE0A66899
:10426000B6F80170384601F07BFA054630BB034BC7
:1042700002938DE88800104BD5E700BF8D860100C2
:10428000E48C0100849A01008B9A010009950100D9
:104290003D950100488E010095960100068D0100B4
:1042A0006F95010088860020D58D0100E88D010002
:1042B000848D0100A5950100308D0100337823B96C
:1042C0000822F11C6830FCF79FF9B24E96F879206D
:1042D000D2070CD595F86930DB0708D52846FFF7DB
:1042E00051FC20B98021281DFEF753FBEBE696F820
:1042F00078309F067ED595F868309E067AD5284698
:10430000FFF760FC002875D14FF48071EBE7A368DC
:10431000D9789A781F8842EA0122ADF8302059797D
:104320001A7942EA0122ADF832209A79D97942EA23
:104330000122ADF834201A7A5B7ABDB242EA032337
:104340002846ADF8363001F00BFA804670B9924B32
:1043500002938DE82800914A914B92499248FDF7CB
:10436000BFF902212846FFF73DFD3FE60CA900F00A
:1043700019FE38B91E212846FFF734FD404601F0EA
:104380005DFA33E60E2142F22000FEF7F9FB064605
:104390000028F3D00E21083012F0F2FC0E22054660
:1043A0000021FCF75DF9BDF830306B80BDF832308C
:1043B000AB80BDF83430EB80BDF836302F802B81D8
:1043C000314642F22000FEF717FFD7E7A3681E88A8
:1043D000304601F0C5F9054628B96F4B02938DE8C8
:1043E0004800724B1FE708210430FEF701FB00284C
:1043F0003FF469AE2846FEF70BFB64E6A368B3F80A
:104400000160304601F0ACF9054628B9624B0293D1
:104410008DE84800664B06E7061D07213046FEF78B
:10442000E7FA00283FF44FAE5A4B93F878309806DD
:10443000E0D595F868309906DCD52846FFF7C2FB31
:104440000028D7D14FF4807130464DE7A5682F88FA
:10445000384601F085F9064628B94F4B02938DE89E
:104460008800544BDFE6D5F80220D5F80630134318
:1044700027D16B892BBB0CA905F0B0FE08B3122124
:1044800042F21A00FEF77CFB074648B9424B019303
:104490000093484B414A43494748FDF721F9DCE680
:1044A0001221083012F06CFC2B8820F8023B1022FD
:1044B0000CA9FCF7A9F8394642F21A00FEF79CFE57
:1044C000CBE6336F002B40F05F8206F14807394698
:1044D000202005F0FBFE3067002840F05582394669
:1044E000012005F0F3FE3067002867D081898A0635
:1044F0002BD5D5F80220D5F80630134325D1B5F8D1
:104500000A80B8F1000F20D1122142F21A00FEF702
:1045100037FB07460028B9D01221083012F030FCD2
:104520002B88054625F8023B316FCA791A31284697
:10453000FCF76AF8336FD8790F28BCD8C0F11002A5
:1045400000212844FCF78CF8B5E7CB0736D5D0E935
:104550001223D5F80690D5F802804B4508BF424596
:104560002CD1B0F850206B899A4227D1122142F207
:104570001A00FEF705FB0746002887D012210830F5
:1045800012F0FEFB2B88054625F8023B316FCA79F5
:104590005231CCE7188600208D860100849A0100F4
:1045A000728D01008B9A0100A5950100488D0100D4
:1045B0005B8D01001A8E0100D9950100022142F2A3
:1045C0001B002F88FEF7DCFA054620B9B44B019397
:1045D0000093B44B5EE70221083012F0D1FB29466C
:1045E000078042F21B0069E7A668AF486FF0100130
:1045F000FEF7EDF9337843B9711C4022AB48FCF764
:1046000003F80821A848FEF7C4F9A94B1D68771CD8
:10461000002D3FF4EBAC32782B68002A0CBF3846F3
:10462000002098476D68F3E7A24DA0682A68002A29
:104630003FF4DCAC037823B90130904700232B60B2
:10464000D4E40020F9E7284612F0D0FBDFF89CA262
:104650000690069B002B3FF4C9ACA66809212846AA
:1046600012F0BCFB337AB046334493F809B018F823
:10467000013F023B012B3CD841460CA8FEF786F9CE
:104680009DF83030023B8DF83030DAF80030C3B19D
:10469000284612F0BBFB337AB4F80C90A381327831
:1046A000009407902B464FFA8BF10CA8DAF80070B3
:1046B000B8472369BDF81C20A4F80C9013FA82F3C4
:1046C000A360082178483778FEF774F928B9012FDC
:1046D00003D841460CA8FFF7DBF9317A28460131AF
:1046E00012F07CFB069B03F1FF395FFA89F3069316
:1046F000AFE7404605F008FE002814BF01464146DA
:104700000CA8FEF743F9C0E7284612F06FFB6A4B8E
:10471000DFF8D8B1DFF8D88118700693069B0699A8
:104720001B785A1E0A70002B3FF460ACA668182153
:10473000284612F053FB0221284612F04FFBF37D6E
:10474000B146334493F816A019F8023F023B012BFF
:1047500040D849460CA8FEF719F99DF83030023BC5
:104760008DF83030DBF80030F27DA28123B373780E
:10477000012B3AD1514BB8F80000514FA1681844B1
:10478000FBF742FFA289A1683846FBF73DFFB8F866
:104790000030A289023B1344A8F8003097F8643037
:1047A000DD2B02D14748FCF79BFF97F86430EE2BD6
:1047B00002D14548FCF794FF08213B483678FEF7C4
:1047C000F9F80028AAD1012EA8D849460CA8FFF76D
:1047D0005FF9A3E7484605F097FD002814BF01469E
:1047E00049460CA8FEF7D2F8BCE7022B4FFA8AFA2A
:1047F00027D1324BB8F80000A1681844FBF704FF3A
:10480000A289A1682E48FBF7FFFEB8F80020A38913
:104810002E49023A1A44023B92B20B80284627499D
:10482000A8F8002012F0B2FAF17D284612F0D6FA6C
:1048300032780094DBF800702B4651460CA8B8473C
:10484000BAE7032BB8D1002140F2DC521B48A8F88C
:104850000010FBF705FFEBE7A589A0682946FDF7E7
:1048600047FF0F4B049303908DE84800184A194BFB
:1048700019491A480295FCF733FFFFF7B7BB084AFE
:1048800002928DE80C001449154B164A1648FCF7A5
:1048900027FF204612F042FA6FF01500FFF7C7BB62
:1048A0008D860100098E01008886002052030020B9
:1048B000940300204C0300207A4500209C460020F1
:1048C0008045002000960100059601003803002075
:1048D00006980100368E01008B9A01000A960100AD
:1048E000B38E0100849A0100719601009C030020A0
:1048F0005003002004F108050221284612F06EFA48
:104900003678082E3FF4F1AB12D8052E3FF4ABAB4E
:10491000A589A0682946FDF7EBFE1C4B0493039084
:104920008DE8480002951A4B1A4A1B491B48A2E71A
:10493000302E3FF4FDAB3E2EEAD1A6680121284679
:1049400012F04CFA3678731E0C2B85D801A252F85F
:1049500023F000BF6D410000474600000D420000FB
:104960005F4200004D4400000F430000CD430000B3
:10497000E9450000294600000942000059480000AE
:10498000FD43000009470000306FAFE58D86010050
:10499000488E0100069801008B9A01003F960100A5
:1049A0002DE9F04F037D8668012B87B004460ED0B9
:1049B000654B01930093654A654B66496648FCF771
:1049C0008FFE404080F311884FF0040002DF82899F
:1049D000012A07D85C4B019300935C4A5C4B5D490C
:1049E0005E48ECE73278132A00F2A580934013F476
:1049F0000C2F00F0A08000F108050221284612F0DB
:104A0000EDF933780F2B1DD0132B2BD00E2B40F04C
:104A10008780A36803212846B3F801701E7812F03E
:104A2000DDF9A368224619783846FEF735F816B145
:104A30004B4812F01BFE204612F070F9002007B020
:104A4000BDE8F08FA668B6F8028077780421284682
:104A500012F0C4F9224631784046FEF71DF8002FC7
:104A6000E9D0E5E7A368384FDFF80891DFF8DCA06C
:104A700004930026049B1B789E42DCDA049B03EB24
:104A80008603B3F80120B3F803804FF02001EFF361
:104A9000118B81F311881046059200F061FE059A92
:104AA000054660B90192029700974B465246294944
:104AB0002C48FCF715FE8BF311880136DAE78BF3EF
:104AC000118800F11C0BB8F1000F1CD04FF0200230
:104AD000EFF3118E82F31188696929B1AA69086818
:104AE0006861914208BFA8618EF3118808F1FF3315
:104AF0001FFA83F859B9019700974B46524615495A
:104B00001948FCF7EDFD284600F098FED5E7584619
:104B100012F061FB284600F02DFA12F0A7FDD2E753
:104B2000204612F0FBF8084B01930093074A084B0C
:104B300008490E4843E7044B01930093034A044B92
:104B400004490B483BE700BF8D860100849A0100B1
:104B5000BB8E01008B9A0100D496010018970100CA
:104B6000C0860020529701007E970100A5970100A2
:104B7000C8970100EC8C0100084AD2F8E4303BB938
:104B8000816841B1C16831B1C2F8E400184670478C
:104B90006FF0440070476FF01500704718860020D2
:104BA00070B52A4DD5F8E43086B006466BB9284B6F
:104BB00001930093274A284B28492948FCF790FD88
:104BC0006FF01204204606B070BD012105F170009F
:104BD000FDF7DFFE10F0010034D1224B22491E60A8
:104BE0006FF00803059004900393029001900090E9
:104BF0001E4B1F484FF46B7212F074FFD5F8E4306F
:104C00009B689847044650B1114B02938DE81800F9
:104C1000104A114B11491748FCF762FDD2E726B93B
:104C200006B0BDE87040FEF7A3BB012105F16C00A2
:104C3000FDF7AFFEC307C5D405F164010E4812F0BD
:104C4000CAFABFE76FF04404BCE700BF1886002033
:104C50008D860100849A0100C88E01008B9A0100A4
:104C6000E18E010098030020E8540020193E000066
:104C7000A00300200A8F01007054002008B505F041
:104C800077FB18B18089003018BF012008BD0000F3
:104C900070B50378012B05460E4610D84378012BDA
:104CA0000DD841880B1F9BB243F6FC70834206D897
:104CB000AA88131F9BB2834201D891422BD26FF076
:104CC00015040EE007211948FDF774FE58B110468F
:104CD000FEF748F8044630B16FF480711348FDF7D1
:104CE00076FE204670BD6B787BB14FF480610F4833
:104CF000FDF74FFEAA8869882878FEF7B5FA0446C2
:104D00000028E9D10A4B1E60EBE76FF48061074889
:104D1000FDF75DFEEEE74FF480710448FDF739FEC4
:104D200010F48072CED06FF04404DAE78886002059
:104D30009C03002008B508210648FDF759FE30B154
:104D4000054B00201860BDE80840FEF7DDBA6FF0A3
:104D5000440008BD888600209C03002038B5054625
:104D6000054811F0ABFF044620B10021083011F0D6
:104D7000C4FF2575204638BD948B002010B5014630
:104D80004FF02003EFF3118083F311880B4A0023C7
:104D9000D2F8C040C2F8C03080F3118824B9012095
:104DA000BDE81040FFF7DABF012204F108002275C8
:104DB000A381194611F0A1FF204610BD18860020DE
:104DC0002DE9F341274E96F8403003F00603062BF9
:104DD00007460ED0244B01930093244A244B2549C7
:104DE0002548FCF77DFC6FF02204204602B0BDE8A8
:104DF000F081224D2B6843602860102106F170007D
:104E0000FDF7C7FD10F0100801D00024EDE76FF0AA
:104E1000080106F17000FDF7DAFD4246414642F214
:104E20002500FDF7DDFE044688B10F4B019300938A
:104E3000134A0F4B0F491348FCF752FC6FF0100157
:104E400006F17000FDF7C3FDC5F80080CDE72C68C2
:104E5000002CDAD0BC4202D0236800209847646856
:104E6000F6E700BF188600208D8601000698010035
:104E7000D28E01008B9A0100A094010094030020BF
:104E8000849A0100CF940100F8B51A4C23680746B4
:104E90000A4613B16FF00F00F8BD04211648FDF764
:104EA00089FD06460028F5D103211348FDF782FD50
:104EB000E0B1402142F226002260FDF761FE054686
:104EC00018B920606FF03600F8BD4021083011F0AD
:104ED00057FF40223946FBF797FB3246294642F2FC
:104EE0002600FDF77DFE18B12660F8BD6FF030009A
:104EF000F8BD00BF4C0300208886002038B5064B63
:104F00001C68054604B938BD236813B1E97A284600
:104F10009847A469F6E700BF08040020BFF35B8F41
:104F20000068BFF35B8F7047C38910B504462BB18F
:104F3000006911F0F3FE00232361E38110BDBFF38C
:104F40005B8F50E8003F5A1E40E800210029F8D14D
:104F5000BFF35B8F18467047BFF35B8F50E8003F8D
:104F60005A1C40E800210029F8D1BFF35B8F184696
:104F70007047000000487047A4860020084B70B5B9
:104F80001C68054604B970BDE6683EB1B5F86630E8
:104F9000B5F86420B5F85E102846B047A469F1E77B
:104FA00008040020F8B5074608460E46FDF738FF0E
:104FB000054610B900252846F8BD094B1C68002C91
:104FC000F9D0A3680BB9A469F9E731463846984788
:104FD0000028EFD03046FDF723FF0028F3D1E9E7A2
:104FE00008040020F8B5C37804463BB900F1560622
:104FF000084B1D6804F148071DB9F8BD00F14F06C4
:10500000F6E72B691BB13A46314620469847AD6911
:10501000F2E700BF080400202DE9F0471C2182467A
:1050200042F2190091469846BDF82040099F0A9D1A
:10503000FDF7A6FD064620B31C21083011F0A0FEA6
:105040000346BAF8002023F8022BC0F80290C3F8F8
:105050000480448100F10C042A4639462046FBF7BF
:10506000D3FA0F2D05D8C5F1100200216019FBF706
:10507000F7FA3146002242F21900BDE8F047FDF789
:10508000AFBD6FF03600BDE8F087000038B5064BC5
:105090001C68054604B938BD636913B1297A2846EE
:1050A0009847A469F6E700BF0804002030B5037BE9
:1050B000032B85B0044652D1037A8B4202D30020E1
:1050C00005B030BD437A8B42F9D2C3784172002BD0
:1050D00042D1036F002B45D100F14805294620201D
:1050E00005F0F4F8206700283CD12946042005F09B
:1050F000EDF8206718B1838903F024033BB92046FB
:1051000004F0D6FE0028DAD0237A6372D8E7637AF7
:10511000022B04D90830FFF701FFC107EFD5637AEE
:10512000032B09D9206F0830FFF7F8FEC20703D41C
:10513000236F9B899B06E2D5236FDA79D3E90401BB
:10514000029203F11A0201921B8B009302460B4656
:105150002046FFF761FFD5E76FF01500D4E76FF049
:105160003800ADE7206FC6E7024B1A68826118600D
:10517000704700BF08040020012A7FB504460D4691
:105180001BD0022A6BD18B681E88C3895BB13D4B53
:10519000019300933C4A3D4B3D493E48FCF7A0FA41
:1051A0002046FFF7C1FEAB89F31A04339BB2E381BB
:1051B000002B42D0256104B070BDC3898BB9314B3F
:1051C00001930093304A314B31493348FCF788FA58
:1051D0002046FFF7A9FE284604B0BDE8704011F054
:1051E0009DBD8E89B34207D2264B01930093264A78
:1051F000264B27492948E9E70069083011F00AFEE3
:10520000864207D91F4B019300931F4A1F4B204929
:105210002348DBE72069AA89A968083011F0B6FDA8
:10522000E389AA899B1AE381284611F077FDE38977
:10523000002BC0D12569E3812361AB68A9891A8855
:10524000131D8B4216D00F4B0393029101920093D2
:105250000D4A0E4B0E491348FCF742FABBE7094BC7
:10526000029301920093084A084B09490E48FCF743
:1052700037FAADE72946204604B0BDE8704000F09B
:1052800071BF00BF8D860100849A0100DC9A010085
:105290008B9A0100289B0100559B0100839B010014
:1052A000A79B01000C9C0100DE9B0100037B032BEC
:1052B00013B50C460FD00B4B019300930A4A0B4BCE
:1052C0000B490C48FCF70CFA204611F027FD6FF053
:1052D000380002B010BD2C304A6111F012FD0020E0
:1052E000F7E700BF8D860100849A0100E99A01006A
:1052F0008B9A0100389C01002DE9F0410D4D0646C6
:1053000000F11C074FF000080021384611F087FF1C
:10531000044608B9BDE8F08163680BB13046984790
:105320002B6823606B68C4F804802C60002BEBD1E1
:105330006C60E7E7F80400202DE9FF4105460F46C1
:1053400043484FF0FF319846144612F0EFF9414BB5
:1053500003F14400FFF7E2FD30B11A7B033A012A62
:1053600002D81846FFF7C8FF2B7B032B53D104212B
:1053700007F1080011F02AFD2A88374E42EA04326C
:105380000280BB89346871687A69043B43800223D8
:105390003B75236833608C4208BF736062604FF0D6
:1053A0002003EFF3118283F3118800232360AB699C
:1053B000002B3FD1AC616C6182F311883846FDF758
:1053C00013FF002841D0254B029301900093244AFB
:1053D000244B25492548FCF783F94FF02003EFF3D0
:1053E000118083F311886B69002253B19C4229D14B
:1053F0002368A9690ABB8C426B6100D1AB610023B1
:10540000236080F31188002363603368236073682E
:10541000346003B974600E4812F028F9B8F1000F37
:1054200004D0384611F07AFC4FF00008404604B032
:10543000BDE8F0811C60AC61BEE78C42136008BF20
:10544000AA61DCE71A461B68CFE74FF00108EDE7D9
:10545000A48600205C040020F80400208D86010052
:10546000849A0100F99A01008B9A0100368F01009D
:1054700038B5044600F12C050021284611F024FC23
:1054800058B92046FFF738FF2046FFF74DFD04F1DD
:105490004400BDE83840FFF752BD11F03FFCEBE798
:1054A00038B51F4B002201219A60054612F014FE08
:1054B0001C4B03F14400FFF731FD194608B90120E8
:1054C00038BD1A7B9AB9BFF35B8F1A1D52E8000FE3
:1054D00020F0400442E8004EBEF1000FF6D1BFF3C9
:1054E0005B8F420603D51846FFF7C2FFE7E70C7B48
:1054F000032CE4D105F114000B4B0022042112F01F
:10550000EBFD012385F8203005F12800074B002230
:10551000042112F0E1FD022385F83430204638BD25
:10552000508700205C0400207804002088040020BC
:105530002DE9F0411A4C04F1440780463846FFF744
:10554000EDFC054610B10020BDE8F08101469C222B
:1055500020460126FBF784F8BFF35B8F57E8003F36
:1055600047E80062002AF9D1BFF35B8F072241466A
:1055700004F14800FBF748F84FF41663A4F86030D4
:105580004FF4196304F1740026726672A570A4F8D2
:105590006230044912F096FB2046BDE8F08100BF5E
:1055A0005C040020055B0000F0B5057B8D4285B0F2
:1055B00004460E460AD15F4B019300935E4A5F4B4F
:1055C0005F496048FCF78CF805B0F0BD21739DB1D0
:1055D000022D15D0237B042B00F2A18001A252F8EA
:1055E00023F000BF45560000C955000003570000D6
:1055F0000F560000C95500004430FFF7ADFCE9E745
:105600008378002BE6D1743012F07AFBE2E7A378BE
:10561000022BD9D004F12C0011F0ACFD04F11C00D8
:1056200011F0A8FD0021484812F020FE002320467A
:10563000E363236400F026FC204605B0BDE8F0409B
:10564000FFF75CBCA378022B06D104F1440005B03F
:10565000BDE8F040FFF773BCEB1E012B44D8204699
:1056600000F04AFC394B1D68EDB9394E394F4FF007
:105670002003EFF3118183F3118863692BB1A069D3
:105680001A686261834208BFA26181F311888BB1FD
:1056900032681A6072685D60336002B973603846C0
:1056A00011F0E4FFE3E76B6813B1E17A2046984715
:1056B000AD69D9E7A3781BB904F1740012F020FB9F
:1056C000BFF35B8F043454E8003F43F0400344E8E9
:1056D0000032002AF7D1BFF35B8F1B48002105B0D1
:1056E000BDE8F04012F0C2BD022D03D12046FFF705
:1056F00005FCAAE7012D7FF467AFE37A002BA4D065
:10570000F4E7A378002B7FF45FAF134840F6B8327C
:1057100004F1740105B0BDE8F04012F04BBB054B3D
:1057200002938DE84800044A044B05490B48FBF7F7
:10573000D7FF49E78D86010006980100169B0100FE
:105740008B9A0100579C010050870020080400201C
:10575000F8040020A486002070540020759C0100ED
:1057600010B50B4C024604F14400FFF7D7FB68B1BB
:10577000237B033B012B08D82388934205D104F1F6
:105780004400FFF7E9FB204610BD002010BD00BF1C
:105790005C04002038B50D46044600F1480107229C
:1057A0002846FAF71CFF60B1E378072233B904F109
:1057B00056012846BDE83840FAF711BF04F14F0101
:1057C000F7E738BD10B50B4C014604F14400FFF774
:1057D000A5FB08B9002010BDA378002BFAD1204604
:1057E000FFF7D8FF0028F5D104F14400FFF7B4FB20
:1057F000204610BD5C04002038B50E4C034604F171
:1058000044000D46FFF78AFB08B9002038BDA27896
:10581000002AFAD13BB9237BAB42F6D10648FFF709
:105820009BFB044838BD19462046FFF7B3FF00280C
:10583000EBD1F0E75C040020A00400204430FFF727
:105840007EBB4830704770B505460E4640F20640B4
:105850000321FDF795F9044698B10321083011F0B2
:105860008FFA2B8803808670214640F20640FDF7B0
:10587000C3FC044618B904212846FFF795FE2046CC
:1058800070BD6FF03604FAE770B5064608460D465F
:10589000FDF7C6FA08B900241DE01E48FFF73EFBDD
:1058A000C305F8D43046FFF78DFF0446A8B1037B4B
:1058B000012B07D001D3032B0DD904F14400FFF7CE
:1058C0003EFBE8E76B88A0F86230AB88A0F8643054
:1058D000EB88A0F86630204670BD3046FFF728FE02
:1058E00004460028F7D0072231465630FAF78CFEDE
:1058F0006B88A4F86230AB88A4F86430EB88A4F815
:10590000663020460121FFF74FFE0120FDF7FCFC29
:10591000E1E700BF8886002070B506460D460029E5
:105920003DD13046FFF74EFF044628B93046FFF719
:10593000FFFD0446002853D0231D04F14406002D2A
:1059400035D06A88A4F86220AA88A4F86420EA887E
:10595000A4F86620BFF35B8F53E8002F42F00101EB
:1059600043E800100028F7D1BFF35B8FD10702D4C2
:105970003046FFF7F1FA237B63B91B48FFF7CEFAF5
:10598000830707D51DB101212046FFF70DFE00203A
:10599000FDF7BAFC3046FFF7D2FA002070BD08468A
:1059A000FDF73EFA0028BCD16FF0150070BDBFF3C3
:1059B0005B8F53E8002F22F0010143E8001000281C
:1059C000F7D1BFF35B8FD207D5D53046FFF7B7FAD3
:1059D000237B012BCFD129462046FFF7E5FDCAE7FF
:1059E0006FF00B0070BD00BF8886002038B50D46F3
:1059F0008178044611B94830FFF78EFF237B013BC5
:105A0000032B03D8DFE803F0050F1A0D6FF0380001
:105A100038BD2046E5720021FFF7C6FD0020FDF7E6
:105A200073FC002038BD04F1740012F069F9002104
:105A300042F20E00BDE83840FDF7DEBB29462046A5
:105A4000BDE83840FFF7FFBEF8B507460D4642F205
:105A500013000E21FDF794F80646C8B10E21083058
:105A600011F08EF9002104460E22FAF7F9FD3B8869
:105A700023802B8863806B88A380AB88E380EB88CE
:105A80002381314642F21300BDE8F840FDF7B4BB74
:105A90006FF03600F8BD000038B50A88B0F85E3007
:105AA0009A4204460D460CD84A889A4209D3B0F867
:105AB00064208B889A4204D1B0F86620CB889A4241
:105AC0001AD004F1740012F01BF90D4B93F87830E2
:105AD0009A0703D594F868309B0701D4E3782BB973
