:10000000883F0020850F0000D50F00001D0E000066
:100010001D0E00001D0E00001D0E00001D0E000034
:100020001D0E00001D0E00001D0E0000110A000034
:100030001D0E00001D0E0000CD0900001D0E000069
:10004000490F0000E7A20000490F0000490F00001F
:10005000490F0000490F0000490F0000490F000040
:10006000490F0000490F0000490F0000490F000030
:10007000490F0000490F0000490F0000490F000020
:10008000490F0000490F0000490F0000490F000010
:10009000490F0000490F0000490F0000490F000000
:1000A000490F0000490F0000490F0000490F0000F0
:1000B000490F0000490F0000490F0000490F0000E0
:1000C000490F0000490F0000490F0000490F0000D0
:1000D000490F0000490F0000490F0000490F0000C0
:1000E000490F0000490F0000490F0000490F0000B0
:1000F000490F0000490F0000000000002D1800000B
:1001000000000000950D000000000000950D0000AB
:1001100000000000950D000000000000950D00009B
:1001200000000000950D000050510020111A000041
:1001300000000000950D000000000000950D00007B
:1001400000000000950D000000000000950D00006B
:1001500000000000ADA2000000000000950D0000AE
:100160002C510020D91D000000000000950D00005A
:1001700000000000950D000000000000950D00003B
:1001800000000000091F000000000000950D0000A5
:1001900000000000950D000000000000950D00001B
:1001A00000000000950D000000000000950D00000B
:1001B00000000000950D000000000000E1A200001A
:1001C00000000000950D000000000000950D0000EB
:1001D00000000000950D000000000000950D0000DB
:1001E00000000000950D000000000000950D0000CB
:1001F00000000000950D000000000000950D0000BB
:1002000000000000950D000000000000950D0000AA
:1002100000000000950D000000000000950D00009A
:1002200000000000950D000000000000950D00008A
:1002300000000000950D000000000000950D00007A
:1002400000000000950D000000000000950D00006A
:1002500000000000950D000000000000950D00005A
:1002600000000000950D000053B94AB9002908BFED
:1002700000281CBF4FF0FF314FF0FF3000F08EB967
:10028000ADF1080C6DE904CE00F01AF8DDF804E0D9
:10029000DDE9022304B07047430803F05533C01A68
:1002A000830803F0333300F03330184400EB1010B0
:1002B00000F00F3000EB002000EB0040000E704714
:1002C0002DE9F0478C460D460446089E002B51D17F
:1002D0008A4217466DD9B2FA82FEBEF1000F0BD0EA
:1002E000CEF1200C01FA0EF520FA0CFC02FA0EF702
:1002F0004CEA050C00FA0EF44FEA174A250CBCFB39
:10030000FAF81FFA87F90AFB18CC45EA0C4508FBF6
:1003100009F3AB420AD9ED1908F1FF3280F02381CD
:10032000AB4240F22081A8F102083D44ED1AA4B28C
:10033000B5FBFAF00AFB105544EA054400FB09F945
:10034000A14509D9E41900F1FF3380F00A81A145E4
:1003500040F2078102383C44A4EB090440EA08401B
:100360000021002E61D024FA0EF400233460736063
:10037000BDE8F0878B4207D9002E54D0002186E8D3
:1003800021000846BDE8F087B3FA83F1002940F068
:100390008E80AB4202D3824200F2FA80841A65EB6F
:1003A00003050120AC46002E3FD086E81010BDE8C2
:1003B000F08712B90127B7FBF2F7B7FA87FEBEF153
:1003C000000F34D1EB1B3A0C1FFA87FC0121B3FB61
:1003D000F2F8250C02FB183345EA03450CFB08F341
:1003E000AB4207D9ED1908F1FF3002D2AB4200F25F
:1003F000D1808046ED1AA3B2B5FBF2F002FB105596
:1004000043EA05440CFB00FCA44507D9E41900F1BC
:10041000FF3302D2A44500F2B8801846A4EB0C04C6
:1004200040EA08409DE731463046BDE8F087CEF10E
:10043000200405FA0EF307FA0EF720FA04F83A0C36
:1004400025FA04F448EA0308B4FBF2F14FEA184530
:1004500002FB11441FFA87FC45EA044501FB0CF33B
:10046000AB4200FA0EF409D9ED1901F1FF3080F02A
:100470008A80AB4240F2878002393D44EB1A1FFA72
:1004800088F5B3FBF2F002FB103345EA034500FBAD
:100490000CF3AB4207D9ED1900F1FF386FD2AB4234
:1004A0006DD902383D44EB1A40EA01418FE7C1F1B2
:1004B000200722FA07F88B4005FA01F448EA030303
:1004C00020FA07FE4FEA134CFD404EEA040EB5FB3E
:1004D000FCF94FEA1E440CFB19551FFA83F844EA55
:1004E000054509FB08F4AC4202FA01F200FA01FAF0
:1004F00008D9ED1809F1FF3043D2AC4241D9A9F136
:1005000002091D442D1B1FFA8EFEB5FBFCF00CFBEF
:1005100010554EEA054400FB08F8A04507D9E41839
:1005200000F1FF3529D2A04527D902381C4440EA02
:100530000940A4EB0804A0FB02894C45C6464D4681
:1005400015D312D056B1BAEB0E0364EB050404FACE
:1005500007F7CB401F43CC40376074600021BDE8F3
:10056000F0871846F8E69046E0E6C245EAD2B8EBD6
:10057000020E69EB03050138E4E72846D7E7404659
:1005800091E78146BEE7014678E702383C4445E7FB
:10059000084608E7A8F102083D442BE7704700BF72
:1005A0000139034611F8012F0AB91A70704703F890
:1005B000012BF7E710B5013903463AB111F8014FA5
:1005C0002CB91A4403F8014B9342FBD110BD03F838
:1005D000014B013AF1E70138013910F8013F11F8F8
:1005E000012F934202D1002BF7D11A46981A704777
:1005F00070B582B1013A0C46034603D11A782078CF
:10060000101A70BD1E782578AE4200F1010001F18C
:100610000101EFD0F2E7104670BD81EA000313F04C
:10062000030F70B503460BD0013B0A4491421BD126
:1006300070BD002AFCD011F8014B03F8014B013AC0
:100640009C07F6D11E1F0D46541B0C44032C06D8E4
:1006500022F003042144234402F00302E4E755F8A6
:10066000044B46F8044FEFE711F8014B03F8014F34
:10067000DCE770B5C9B203469C0711D141EA0124F9
:1006800044EA04441E46951B1D44032D0ED822F057
:100690000304234402F003021A44934209D170BDBB
:1006A000002AFCD003F8011B013AE5E746F8044BA9
:1006B000E9E703F8011BF0E74FF0FF307047000057
:1006C000014B1860704700BFC84C002010B50446AD
:1006D00086B028B10146104800F06CFE06B010BD8F
:1006E0000E4800F067FEA02303940122ADF80E30FF
:1006F000F02304940A49ADF810300092094B059498
:1007000003A803F087F8014608B10748E4E7074863
:1007100000F050FEE2E700BF0FCC00002FCC00003D
:10072000DC2A002094CC000046CC00006CCC0000F9
:100730002DE9F04F2A482B4C2B4F89B000F03AFEA0
:10074000FF232370294867601423637002F0FEFFC3
:10075000014610B1264800F02DFEDFF89C90DFF82E
:10076000848041F288300BF03BFC03F019F9FF2341
:100770002370204B6360012616233220002563700E
:100780004FF0A00B0BF02CFC4FF0F00A3246414624
:100790004B46009602A8029503950495ADF80AB061
:1007A000ADF80CA003F036F841F288300BF018FCDD
:1007B00003F0F6F80C233220637067600BF010FC36
:1007C00000964B463246414605A805950695079585
:1007D000ADF816B0ADF818A003F01CF8C1E700BFE3
:1007E0007CCC0000DC2A0020CC4C0020CD06000090
:1007F0000FCC0000BC4D002094CC0000054B1B68C2
:10080000082B01BF044B1868B0FA80F0400918BFEC
:1008100000207047300100103401001008B54FF07F
:100820002003EFF3118183F31188FFF7E7FF40B155
:100830004FF080430022C3F80C21C3F81021C3F805
:100840003825FFF7DBFF10B1384B394A1A60FFF744
:10085000D5FF18B1374BFB22C3F81825FFF7CEFFA1
:1008600048B13548354B02681B6822F00F0203F08F
:100870000F0313430360FFF7C1FF18B1304B4FF470
:1008800000721A60FFF7BAFF48B14FF08043D3F807
:100890000024D20744BF6FF00102C3F800244FF0D8
:1008A0001023D3F80022002A03DBD3F80432002BF4
:1008B0002FDA244B0122C3F80425D3F80024002AA0
:1008C000FBD04FF010221221C2F80012D3F80024FE
:1008D000002AFBD04FF010231222C3F80422194B38
:1008E0001A46D3F800140029FBD00021C3F80415E0
:1008F000D2F80034002BFBD0BFF34F8F1249134BBB
:10090000CA6802F4E0621343CB60BFF34F8F00BFAD
:10091000FDE70D4B4FF0FF329A62DA620C4B0D4A45
:100920001A6081F31188002008BD00BF8C5600407A
:100930004881030000F00040E40E0040580200101F
:100940004096024000E0014000ED00E00400FA059E
:100950007C4E00200090D003084881684A897F2A95
:100960000BD8C069884208D000B50BF08BFB5DF84E
:1009700004EB03494FF080520A607047B029002011
:1009800004ED00E0044800232021C21801332E2B7F
:1009900082F80013F9D1704700E100E0084A0949E4
:1009A000936809685966084918664B6843F0805394
:1009B0004B60002383F311889368586E704700BF23
:1009C000B0290020CCEE000000ED00E00E498A685E
:1009D00028201044EFF3098C80E8F01F0B4F4FF0F4
:1009E0000066202080F31188CA698A603E60106E1C
:1009F0000023136680F3118802F1280090E8F01FAD
:100A00008CF3098870470000B029002004ED00E055
:100A10001EF0040F0CBFEFF30880EFF3098081692B
:100A200031F8021C11F0FF0101D0022907D040402B
:100A300080F3118804494FF080520A60704700B576
:100A400000F02CFA00BD000004ED00E010B50446F3
:100A50000BF0EEFA22680146BDE81040014800F0B4
:100A6000A9BC00BF0DCE000010B504461A4800F026
:100A7000A1FC04F11800194CFFF7E8FFA36A9A01E2
:100A800002D5174800F096FCA36ADB0102D5154891
:100A900000F090FCA36A180302D5134800F08AFC0A
:100AA0000E4CA36A590302D5104800F083FCA36AD8
:100AB0009A0302D50E4800F07DFCA36ADB0302D541
:100AC0000C4800F077FC054A936A6FEA03436FEA2B
:100AD0001343936210BD00BF0ECF000000ED00E095
:100AE00027CF00003BCF000056CF000075CF00009D
:100AF0009BCF0000B6CF000038B5044619480D461C
:100B000000F058FC04F11800174CFFF79FFFA36A90
:100B1000D90604D51548BDE8384000F04BBCA36A9F
:100B20001A0701D51248F6E7A36A9B070FD51148AB
:100B300000F040FC616BA36A180612D50E4800F065
:100B400039FC75B1A36A23F08003A36238BDA36AA0
:100B5000DA0701D50948DEE7A36A9B0601D50848F4
:100B6000D9E738BD57CE000000ED00E06ECE0000A2
:100B700080CE000094CE0000ADCE0000BECE0000BE
:100B8000DECE000038B504461D480D4600F012FCCC
:100B900004F118001B4CFFF759FFA36AD80404D5D1
:100BA0001948BDE8384000F005BCA36A190501D515
:100BB0001648F6E7A36A9A0514D5154800F0FAFB23
:100BC000A16BA36A1B0407D5124800F0F3FB1DB10B
:100BD000A36A23F40043A3620A4B9B6A58050ED50F
:100BE0000D48DEE7A36A5905FAD4A36ADA0501D5F0
:100BF0000A48D6E7A36A9B0401D50948D1E738BD66
:100C0000D4CC000000ED00E06ECE000080CE0000ED
:100C1000EBCC0000ADCE000005CD000021CD0000E2
:100C2000DECE000038B5274D6B68C3F30803DA1E2B
:100C30000446092A3AD8DFE802F00533352F39395E
:100C400039393937204800F0B5FBEB6A9A0703D5EC
:100C50001E4800F0AFFB0CE0EB6A5B0009D51C48B6
:100C600000F0A8FB1B4B1B784BB101212046FFF77E
:100C700043FF21460020BDE8384000F013B9164B71
:100C80001B7823B101212046FFF77CFFF1E7134BCE
:100C90001B889BB2002BECD02046FFF7E5FEE8E76F
:100CA0000021E3E70021EEE70D48D2E70D480E49A9
:100CB000A3F110020F2BD8BF01460C4800F07AFBBD
:100CC000D7E700BF00ED00E068CD000080CD000058
:100CD000A2CD000028ED00E029ED00E02AED00E0C3
:100CE000C2CD00003ACD00004FCD0000F9CD00008C
:100CF000024A536943F010035361704700ED00E06E
:100D000043B2002B08DB012200F01F0002FA00F0C2
:100D10005B09024A42F82300704700BF00E100E08F
:100D200043B2002B0DDB01225B0900F01F0002FA29
:100D300000F02033034A42F82300BFF34F8FBFF384
:100D40006F8F704700E100E04209054B00F01F0083
:100D500053F82220012303FA00F01040704700BF2F
:100D600000E100E043B2002BA8BF03F1604301F1B2
:100D700001014FEA4111ADBF03F5614300F00F00DF
:100D8000034BC9B2B6BFC9B283F8001319547047F8
:100D900014ED00E000F042B808B572B6044B986953
:100DA00018B100229A610AF091FD62B608BD00BF39
:100DB000B0290020F8B50C4616461F4604220A9BAF
:100DC000099905460BF05CFCA6F1200121440C4A70
:100DD000AC6521F00701002322F00102EB642B65D2
:100DE000EE658A61069A4A60079A8A60089ACA6024
:100DF0000F604FF08072CA61A9642B66F8BD00BF16
:100E0000F5C40000014910220A60704710ED00E0AF
:100E1000404080F3118830BF704700BF404080F3EE
:100E20001188DFF81CC0DCF800C01CF4006C0CBF9B
:100E3000EFF30880EFF3098000B5FFF7F3FE00BD84
:100E400004ED00E0042838B504460D4613D005280B
:100E500013D0032813D10C4800F0ACFA0BF0E8F8DB
:100E6000AA690146094800F0A5FA29462046BDE8CE
:100E7000384000F017B80648EEE70648ECE70146B0
:100E8000054800F097FAE9E7E2CF000060D00000E3
:100E900008D0000022D000003DD0000001460068CC
:100EA000FFF7D0BF052810B50CD00BF00BFB60B1DD
:100EB0000BF008FB0C4B0D49002808BF19460C48E5
:100EC00000F078FAFFF7A4FFFCE70BF00BFB00281B
:100ED000EED1084C0848A16800F06CFAA068BDE8A3
:100EE000104000F00BB800BFA0D000009CD0000064
:100EF000B1D00000B0290020D1D0000038B505469F
:100F00004FF02003EFF3118483F311880BF048FBBB
:100F10000B4B9B689D420DD10A4B5A68C2F30802E5
:100F200022B90BF0AFF82046FFF738FD5A6842F0BF
:100F300080525A602046BDE838400AF0DFBF00BF4B
:100F4000B029002000ED00E000B572B60B4A9069B0
:100F500000281EBF002191610AF0B8FC62B6EFF3D1
:100F60000580A0F110004FEAC0000549014409C9FD
:100F700098475DF804EBFFF7EFBC0000B0290020B4
:100F8000F8000000202080F3118805484FF400612C
:100F9000401880F30988022080F3148800F006B816
:100FA000C840002030BFFFF7FDBF00BF08B5074BAA
:100FB000074A23F07F039360BFF34F8FBFF36F8F18
:100FC0000AF0B4FC0AF0BCFC0AF0E2FC00000000ED
:100FD00000ED00E008B5FFF7E5FFBDE80840FFF7CA
:100FE000BBBC0000154B16491A6830B50D68C2F33A
:100FF000072295420FD8002248685A60954200F1B6
:101000000C000AD105225A600E4B01221A70BFF360
:101010004F8FBFF36F8F002030BD50F80C1C50F87D
:10102000044C9A6021F01F0141F01001114344F07B
:101030000104D96001321C61E0E700BF90ED00E0DF
:10104000384E002000000020002070470B6801335C
:101050000B60014B1B681847804E00202DE9F04FB4
:1010600085B09B460E9CDFF890A0012CB8BF0124F0
:10107000012B0CBF3023202315468046894601945E
:10108000029301260A2700220AF101040AB9AA459F
:101090001FD2B5FBF4F049463030C047013601227B
:1010A000013F012FB5FBF4F14FF00A0304FB11558A
:1010B000BAFBF3FAE8D1494605F13000C047BBF16D
:1010C000030F03D1019B9C1B002C0FDC05B0BDE876
:1010D000F08F019BBB42E3DBBBF1020FE0D8494636
:1010E000029803920136C047039AD9E74946202067
:1010F000C047013CE8E700BFFFC99A3B0A688B681C
:1011000030B512B14C68A34202DB01338B6030BDB5
:10111000651EAB420BBF8C605C1C00218C600CBF59
:10112000D154D05430BD0000014B1860704700BF4F
:10113000804E00202DE9F04F89B04FF0000A06469E
:101140000F4604921C464FF0FF39D0465546049B8B
:10115000187810B909B0BDE8F08F45B9252800F01E
:101160000C813946B047049B01330493EFE76428B0
:1011700061D019D839280AD8312850D22D283CD02E
:1011800030283DD0252808D13946B0476FE058288F
:1011900000F08980632800F0EA8039462520B047B6
:1011A000049B39461878F0E7702872D006D8692871
:1011B00041D06C283CD06828D5D0EEE7752858D0AF
:1011C00017D87328E9D1236804F1040B1C4625467F
:1011D00015F8010B002840F0BF80B8F1030F40F074
:1011E000D580E41AA9EB0404002C00F3BB805C4614
:1011F0003DE0782857D07A28DEE74FF00308B2E7C1
:10120000B9F1000F0EDAB8F1000F00F0BC80A0F1C8
:101210003009B8F1000F08BF4FF00208A3E7B9F199
:10122000000FF4DB0A2303FB0909A9F13009F0E7F9
:101230000AF1010A97E7BAF1010FC5BF073424F09C
:10124000070325681D68D4BF043403F10804002D8A
:1012500005DA39462D20B0476D4209F1FF39CDF846
:10126000009043462A4639463046FFF7F7FE0025F0
:1012700079E7BAF1010FC5BF073424F007032268EC
:101280001A68CDF80090CCBF03F10804043443463B
:10129000E9E739463020B04739467820B0474FF06B
:1012A00008094FF00108BAF1010FC7BF073424F055
:1012B000070323680593C2BF03F108041B68059365
:1012C0004FF008024FF00003D8BF04340393079394
:1012D00093460BF1FF3B059B4FEA8B0023FA00F08E
:1012E00010F00F0009D1079B13B9BBF1000F22D1F9
:1012F0004FF0300E07E0069AEBE709288CBF4FF05D
:10130000570E4FF0300E394670440692B047039B9B
:10131000079501330393BBF1000FECD1B8F1030F34
:10132000A5D1039BC3EB4905002DA0DD3946202044
:10133000B047013DF8E7531E91450693EBDBB8F14A
:10134000010F03D139463020B047E4E7B8F1020F6E
:10135000E1D139462020F7E7394603932C46B047C0
:10136000039B34E739462020B047013C3CE7206826
:10137000251D3946B0472C4679E7AA46A8464FF0C6
:10138000FF390125EFE64FF00108ECE65C46054623
:10139000E9E6000013B502AC002344F8043D024620
:1013A0000B4603482146FFF7C5FE019802B010BD69
:1013B0004D1000000FB407B504A951F8040B0191BA
:1013C000FFF7E8FF03B05DF804EB04B070470000DE
:1013D0000CB430B585B008AB044653F8042B01902B
:1013E0000291002501A9074800930395FFF7A2FE8B
:1013F0000398029B9842B8BF255405B0BDE8304021
:1014000002B07047FD10000030B585B00446019071
:101410000291002501A905480395FFF78BFE03986B
:10142000029B9842B8BF255405B030BDFD100000A6
:1014300070470369C1688B429DBF8268D21802F170
:10144000FF3203F1FF3394BF501A581A70472DE949
:10145000F041C7688668F61B9642044688461546E2
:10146000406806D93844FFF7D8F83D44E560BDE848
:10147000F08132463844AD1BFFF7CFF82A4608EB1F
:1014800006016068FFF7C9F8F0E72DE9F843C56881
:101490000646894617464FF000083469B3687068FD
:1014A000A54228BFE418013C621B5C1BBC4228BF5C
:1014B0003C46944228BF1446494628442246FFF73A
:1014C000ACF8B36825449D4208BF00253F1BA044EB
:1014D000A144F560E1D14046BDE8F88310B5114C58
:1014E000114AA261032323616361104BE361226609
:1014F0004FF480630E4A2362626600231022A362C7
:101500006362E3622367E3666367A2660949E01DDD
:10151000FFF746F808492046FFF742F82023A37159
:1015200010BD00BFE42A0020F6D00000110000200A
:1015300001000020FFD0000003D10000F8B5184CD6
:10154000182300FB033503FB00402544C46A012C2B
:101550000F46164611D003D3022C1BD000240AE0FC
:101560002846FFF766FFB04205D332463946284683
:10157000FFF76DFF34462046F8BD2846FFF759FFB8
:101580008642344628BF0446224639462846FFF79D
:101590005EFFF0E72846BDE8F840FFF776BF00BFE2
:1015A000E42A0020FFF79ABF13B5114CBFF35B8FFD
:1015B0002068BFF35B8F60B90E480AF061F9BFF392
:1015C0005B8F54E8003F44E80002002AF9D1BFF3E2
:1015D0005B8F436804221B680DEB020198470028CB
:1015E00002DA00F0FFFC0190019802B010BD00BFCC
:1015F000140400200AD1000010B5054CFFF7D2FFFB
:101600002046FFF791FD2046FFF75AF8002010BD55
:101610001516000037B502A9044601F8010D4FF078
:101620002003EFF3118583F3118801220020FFF7D7
:1016300085FF85F31188204603B030BD10B54FF00B
:101640002003EFF3118283F31188114C237823B91F
:1016500082F311886FF0440010BD013BDBB22370B0
:1016600023B182F311886FF00F0010BD094B187879
:10167000012128B1217082F311886FF00A0010BD9A
:10168000197082F311884FF080425160187010BDBC
:101690001A0400201904002008B500221046012178
:1016A000FFF760FB0020FFF72BFB002008BD0000C8
:1016B000F8B54FF02002EFF3118382F31188254A29
:1016C0001078441C147060B183F311884FF080438C
:1016D000D3F80C3413F4803F14BF00206FF04300A4
:1016E000F8BD1D4D2F782FB1107083F311886FF066
:1016F0000A00F8BD01262E7083F311884FF0804454
:1017000019B33846FFF70CFBC4F80071D4F8043362
:10171000C4F804632660D4F8002192B10022C4F812
:1017200000210E4A13F0010F4FF0010308BFC4F867
:1017300008330020C2F88031FFF7E2FA00232B7053
:10174000C4E720BF40BF20BFE5E7C4F80011266012
:10175000F4E700BF1A0400201904002000E100E0B3
:10176000F8B506460C464FF02002EFF3118382F3E2
:1017700011882C4A157865B183F311884FF08043A6
:10178000D3F8183413F4803F0CBF6FF043000020EF
:10179000F8BD0127177083F311882846FFF7C0FAB8
:1017A0004FF080430221C3F80451D3F80423C3F857
:1017B0000413C3F818459F60D3F8041171B392075E
:1017C000194F58BF02224FF000014FF00105C3F836
:1017D00004114FF0000058BFC3F80823C7F8805128
:1017E000FFF78EFA4FF0804300211822C3F8082338
:1017F000C3F80C11C3F8101114F00301BED110206E
:10180000C3F83805C3F804233046C3F80453FFF780
:101810004FFF0028B2D1C7F80051AFE720BF40BF4B
:1018200020BFC9E71804002000E100E0F8B54FF040
:1018300080430546D3F808E1D3F80423D3F80C44D9
:10184000D3F80071D3F80401D3F80C11D3F8106168
:1018500002F00102BEF1000F03D04FF0000EC3F8FA
:1018600008E127B14FF080430027C3F800713AB177
:10187000E30341BF4FF080430122C3F808231A61FC
:1018800020B14FF080430022C3F8042149B14FF04A
:1018900080440021C4F80C112846FFF7CFFE012335
:1018A000636176B14FF0804300210124C3F8101129
:1018B0002846C3F80443FFF7FBFE10B9014BC3F8F9
:1018C0000041F8BD00E100E003689B689A68836806
:1018D00010B5DC68002024FA00F3DB0707D500F51B
:1018E000A27352F82330C3F304238B4204D0013097
:1018F0000828F0D16FF0120010BD00688068006801
:1019000041B9D0F8101521FA02F202F001021A6072
:1019100000207047D0F81025F9E70068806800685B
:1019200049B9012191401BB1C0F80815002070474A
:10193000C0F80C15FAE7C0F80435F7E710B583686E
:101940003AB11A680A605A68196002B959600020F1
:1019500010BD18680028FAD081420ED15C68086872
:1019600032B9A142186000D1586000230B60EEE745
:10197000A142106008BF5A60F7E702460068E9E735
:10198000F8B514460268876892680D469668A1B952
:101990002146FFF799FF002811DBBA68012303FAFB
:1019A00004F4144300F1400203FA00F0BC6046F86E
:1019B0002250C6F804032846F8BD6FF02200F8BD97
:1019C000F8B514460268866892680D46976889B92A
:1019D0002146FFF779FF00280EDBB268012303FAE6
:1019E00004F403FA00F022EA0404B460C7F8080320
:1019F0002846F8BD6FF02200F8BD08B5002201218D
:101A00000620FFF7AFF90620FFF77AF9002008BD9E
:101A1000F8B5036806469B68B468986800221346C8
:101A20001546012700EB8201D1F800E1BEF1000F5D
:101A300008D0C1F80051D1F81015C1F3042107FAFC
:101A400001F10B430132082AECD1A56806201D40A4
:101A5000FFF766F9246824B90620BDE8F840FFF7CF
:101A60004FB9A3681D42F5D063682A462146304627
:101A70009847EFE72DE9F8431446026887689268B3
:101A800080469568106819B16FF02200BDE8F883B0
:101A900003F44072B2F5807FC3F30131C3F381399F
:101AA00003F4403E56D0B2F5007F0CBF0422002262
:101AB000BEF5803F08BF4FF0000E13F0010FDFF8B6
:101AC000C8C04FEA810104F5E0764ED00C2A43D11C
:101AD0004FF0010E0EFA04FEC0F808E549445CF828
:101AE000211041F003010A4340F8262013F00200C0
:101AF00047D09906C8D55A063ED413F0040F14BF38
:101B00004FF480364FF40036F868FEF7C5FB08281E
:101B100035D021464046FFF7D7FE0028FB6808DA9B
:101B2000DA4392FAA2F0002AB0FA80F008BF4FF030
:101B3000FF302402012204F4F854824044F00104EE
:101B400000F5A27013433443FB6045F820400020A9
:101B5000BDE8F8830C22ABE7042A02BF4FF0010E68
:101B60000EFA04FEC0F80CE5B8E749445CF8211011
:101B70000A4342EA0E02B7E74FF44036C4E76FF07B
:101B80000400BDE8F88300BF44D1000003689B68EF
:101B90001B68D3F8082132B10020C3F80801D3F83C
:101BA00018350B7070474FF0FF30704703689B6823
:101BB0001B68C3F81C15D3F81C21002AFBD0002297
:101BC000C3F81C210846704703689B681B68D3F85C
:101BD000240118B1D3F88004C3F8800400F00F008A
:101BE00070470000F8B503689B68054618481C68F4
:101BF00009F046FE436806461F68062240F20113BC
:101C00000021B84773681F68002319460822304630
:101C1000B8470623C4F80C350823C4F81435AB685C
:101C20004FF4E1321A602B689B681B684FF0EB722F
:101C3000C3F824250423C4F8003500200123C4F888
:101C40001C01C4F80801A3602360024B6B60F8BD5F
:101C5000ACD10000C4D100002DE9F0418378C478F4
:101C60001E1DA3420A4406441FD8E41AE4B2A1424E
:101C70003EBF641AE7B20C462344A1EB040128BF1F
:101C80000027DBB2C9B23444A64209D1837043783D
:101C9000BB4282BF204B01221A600846BDE8F0819A
:101CA00016F8015B02F8015DEEE70578ED1AEDB27A
:101CB000A9423FBF671AED19EFB20D4638BF5B1856
:101CC000A1EB050132BFDBB227460023C9B296461D
:101CD00006EB050C664519D1521B0029D6D0002C05
:101CE000D4D08C428ABF0B462346641A00F1040606
:101CF000A1EB03018CBFE7B20027C9B2F418A642DA
:101D0000C4D016F8015B02F8015DF8E716F8018B04
:101D10000EF8018DDEE700BF00D0004030B5D0B135
:101D2000C27805788478531CDBB2AB4208BF00232D
:101D3000A34210D061B10A490244D1F808151171CB
:101D4000C3700133DBB29D4208BF0023A34205D01C
:101D50006FF00F0030BD6FF0360030BD002030BD99
:101D600000D0004070B584680122114620460AF078
:101D7000B3F904F11800012200210AF0ADF904239F
:101D800084F831300C23002584F83D300521114BB7
:101D900084F830100D2684F8335084F8325084F8DB
:101DA0003C6084F83F5084F83E50D3F8042542F05C
:101DB0000102C3F804250122C3F800513046C3F8DC
:101DC00004231A602A46FEF7CDFF3046FEF798FF3F
:101DD000284670BD00D0004038B5124BD3F8003112
:101DE000FBB18568012105F13C00FFF797FF10F179
:101DF000100F04460DD010F1370414BF002101214B
:101E000005F13000FFF78AFF044605F118000AF0DB
:101E10006DF9044B00221034C3F800211CBF0122CD
:101E20005A6038BD00D000402DE9F84385680F4660
:101E3000144605F1180814B92046BDE8F883FF2CB4
:101E4000234628BFFF23E41ADEB2A4B205F130090D
:101E50004FF0FF3128460AF0A9F931463A46484684
:101E6000FFF7FAFE064628460AF040F9002EE2D0B7
:101E70004FF0FF3140460AF099F9E9E7084BC3F803
:101E80004005D3F80435C01A20F07F40054B0238D6
:101E9000984282BF044B4FF40032C3F800217047D0
:101EA00000100140FDFF7F0000E100E010B5124B83
:101EB000124CD3F804052268801A20F07F40B0F558
:101EC000A37F11D90E49096840F24713B0FBF3F024
:101ED000884228BF084603FB002323F07F4323608A
:101EE000084B18600AF0A4F92068BDE8104000F221
:101EF0004710FFF7C3BF00BF00100140800400205F
:101F00007C040020CC500020024B0022C3F840216A
:101F1000FFF7CCBF0010014046F23543984228BF7E
:101F20001846054B1860054B1B6840F2471202FB30
:101F30000030FFF7A3BF00BF7C0400208004002016
:101F400008B5074B0022C3F84021064B4FF400327E
:101F5000C3F88021FFF7AAFF034B01221A6008BDD6
:101F60000010014000E100E07C04002070B518483A
:101F700009F086FC48B34368164D1B680121984759
:101F8000154B00241C60154B01261E6040F24713C0
:101F9000C5F80845C5F840354FF48033C5F84433DB
:101FA000C5F804330E4BC5F840414FF40032C3F876
:101FB0008021314622461120FEF7D4FE1120FEF783
:101FC0009FFEAE6020462E6070BD4FF0FF3070BDAA
:101FD0002CD1000000100140800400207C0400206F
:101FE00000E100E030B50B4A0B48D2F80415D0E907
:101FF0000045D2F8043599420AD1084A40F2471305
:1020000003FB1413106823F07F4300FB043030BD42
:102010001946ECE700100140482D0020D050002068
:1020200070B54FF02003EFF3118583F31188144C42
:10203000144E237803EBC312013303F0030332443D
:10204000237085F31188402928BF40210E4D0138A7
:10205000134602EB4106B34204D1002302F81130CB
:10206000104670BD4478240902332C5D03F8024CFD
:1020700010F8014F04F00F042C5D03F8014CEAE75F
:10208000E0040020E104002041D2000010B50F4A16
:102090000F4C137803EBC301013386B003F0010347
:1020A0001370027843790492427803928278029204
:1020B000C278019204EB4104027900921221054A90
:1020C0002046FFF785F9204606B010BDDE0400204B
:1020D0008404002023D2000070B51D4A1D491378E6
:1020E00003EB4306013303F00103137003788AB056
:1020F00006EBC60604460E4407AD032B21D8DFE8E5
:1021000003F0021A1C1E14492846FEF749FA6278A9
:102110000492A2780392E278029222790192627983
:102120000092A37905950D4A1B213046FFF750F91F
:1021300030460AB070BD0A49E6E70A49E4E70A49B1
:10214000E2E70A4A0A212846FFF742F9DFE700BF23
:10215000DF040020A8040020DED1000000D200002F
:10216000E5D10000ECD10000F6D1000027E100002D
:1021700010B50748074C09F083FB074B1860204651
:10218000FEF7D2FF2046FEF79BFA002010BD00BFED
:10219000B3D100000D24000084070020BFF35B8F43
:1021A00050E8003F5A1C40E800210029F8D1BFF355
:1021B0005B8F1846704710B50023BFF35B8F52E862
:1021C000004F42E8003EBEF1000FF8D1BFF35B8F35
:1021D0006CB14379C218FF2C917103F1020203F133
:1021E0000103427150FA83F0A8BFFF24847110BD2F
:1021F000002370B50371082383714180044616469D
:102200000AF00AF8134D0A23584305236371C4F8F2
:1022100007002A4601212046FFF7CDFF2A1D022193
:102220002046FFF7C8FF05F1080204212046FFF70A
:10223000C2FF05F10C0203212046FFF7BCFF05F1A8
:10224000100207212046FFF7B6FF627904363244B8
:10225000228070BD6807002070B5064E4518044600
:10226000AC4200D170BD306814F8011B43685B6854
:102270009847F5E78407002008B5044B1B685A68A7
:10228000C1B2526818469047002008BD840700205C
:102290000EB42DE9F0418BB011AC2F4B54F8048BE8
:1022A0001A889B78ADF8082000218DF80A30424644
:1022B0000546234608460394FFF7A6F8021E17DBDF
:1022C0008DF804500327254D8DF80570BFF35B8F03
:1022D00055E8006F46F0010345E800310029F7D1C9
:1022E000BFF35B8F16F0010607D01D48FFF756FFBE
:1022F0000BB0BDE8F04103B07047063292B20D2139
:1023000004A8FFF775FF9DF8151004A80631FFF724
:10231000A3FF022101A8FFF79FFF394602A8FFF79C
:102320009BFF2346424631460E480394FEF702FFC8
:102330000D4B1868436831465B689847BFF35B8F65
:1023400055E8003F23F0010345E80032002AF7D1A9
:10235000BFF35B8FCCE700BF52D200007C070020A8
:1023600078070020792200008407002070B5214CF6
:10237000BFF35B8F86B00E46154654E8003F43F02E
:10238000010244E800210029F7D1BFF35B8FDB078E
:1023900013D5023803280ED8DFE800F00207090B36
:1023A0001548FFF7FBFE06B070BD1448F9E7144866
:1023B000F7E71448F5E71448F3E7AAB20146684680
:1023C000FFF716FF9DF8051068460631FFF744FF3A
:1023D00029463046FFF740FFBFF35B8F54E8003FCC
:1023E00023F0010344E80032002AF7D1BFF35B8FEA
:1023F000D9E700BF7C070020680700206C07002099
:10240000700700207407002078070020F8B51F4BE4
:10241000BFF35B8F054653E8002F42F0020143E80B
:1024200000100028F7D1BFF35B8F12F0020F1E4699
:1024300015D10A2D164C174913D022687E2A10D8C0
:10244000501C8D542060BFF35B8F53E8002F22F0A7
:10245000020243E800210029F7D1BFF35B8F284631
:10246000F8BD236800275A1CCF540C20094922606C
:10247000FFF77CFF2760BFF35B8F56E8003F23F038
:10248000020346E80032002AE7D0F6E77C07002086
:1024900080070020E506002030B585B015461C46B3
:1024A0008DF800008DF80110062229460DF102007A
:1024B000FEF7B3F82146072202A8FEF77BF80020BA
:1024C000102269468DF80F00FFF750FF05B030BDB0
:1024D00070B50B4D06460FCD8AB06C460FC40FCDBC
:1024E0000FC495E80300092E84E803009BBF0AABE4
:1024F00003EB8606034856F8280C0AB070BD00BFEF
:10250000C0CB0000FCDD00000378428813F001031B
:1025100005D10949897B082901D89F2A0AD98088D1
:10252000824207D81F2A05D9B0F5804F8CBF002002
:102530000120704700207047884E002000B5BFF38F
:102540005B8F50E8003F43EA010240E8002EBEF1F5
:10255000000FF6D1BFF35B8F18465DF804FB00B5A2
:10256000BFF35B8F50E8003F03EA010240E8002E12
:10257000BEF1000FF6D1BFF35B8F18465DF804FB88
:102580002DE9FF4115460F46064609F051FD274A41
:102590002749029503468DE8C0000720FFF778FE23
:1025A000A879DFF89C8009F035F8804510D0AC7927
:1025B000204609F02FF8CDF80880019000943346AA
:1025C0001A4A1C490420FFF763FE04B0BDE8F081FD
:1025D000284609F025F8184C04EBC0004388B342A4
:1025E0000CD0284609F01CF804EBC0000F4A4388C1
:1025F0000093124933460420FFF74AFE284609F0AB
:102600000FF804EBC0004368002BDED0284609F029
:1026100007F804F83070284609F002F804EBC0000F
:10262000406804B0BDE8F04109F060BDC9D20000C7
:10263000D3D70000FFD700008807002038D800005B
:10264000D0510020074BBFF35B8F420903EB82039D
:1026500000F01F001B6FBFF35B8F43FA00F000F028
:1026600001007047884E00202DE9F34706460F46CB
:1026700009F0DEFC1C4D1D4903462A468DE8C000CA
:102680000720FFF705FE4FF0FF31194809F056F813
:10269000044609F0CDFC04F1080803462A460094DC
:1026A0001449154D0720FFF7F3FD4FF000090021F5
:1026B000404609F062F884F81490204608F0B0FF14
:1026C00005EBC0004680204608F0AAFF05EBC000DD
:1026D0000321C0F80490404609F092F80680877004
:1026E000204602B0BDE8F08759D20000CFD40000E8
:1026F000D0510020F3D40000880700202DE9F041DC
:1027000080468AB015460C4621B9FFF7ADFF044656
:1027100000284BD009F08CFCA389029304AF034638
:10272000244A2549254E07208DE81001FFF7B0FD0A
:1027300001220021384609F0CFFC204608F070FF46
:1027400006EBC0004760204609F056F821461C48B9
:1027500009F017F842F21071384609F027FD09F028
:1027600067FC0746204608F05BFF16F830300193FF
:10277000104A1449CDF800803B460720FFF788FD3A
:10278000204608F04DFF16F8300038B1204609F019
:1027900005F86FF004000AB0BDE8F0810DB12C60BF
:1027A000F9E7204608F0FAFF2846F4E76FF0360014
:1027B000F1E700BF6BD2000047D50000880700207A
:1027C0003C4F00206CD5000073B5054609F030FC85
:1027D00004462846FFF75AFC184E00902346184A34
:1027E00018490720FFF754FD062206F10801284684
:1027F000FDF7FEFE0446D8B1062142F20500FFF7C0
:1028000033FF0446B8B106222946083008F0FEFF1F
:102810002146002242F20500FFF770FF044638B956
:102820000622294606F10800FDF7F7FE0123F371A1
:10283000204602B070BD6FF03604F9E7884E0020E4
:1028400080D2000010DD000007B50621684602F0C6
:1028500063F940B99DF80530684603F03F038DF8F1
:102860000530FFF7B1FF03B05DF804FB38B5022176
:10287000054642F20C00FFF7F7FE044620B30221A2
:10288000083008F0BDFF012D014614D10A20FFF7E2
:10289000D9FE48700D700022214642F20C00FFF76D
:1028A0002DFF044628B9012D08D180210848FFF7E3
:1028B00045FE204638BD00234370EBE76FF08001F2
:1028C0000348FFF74CFEF4E76FF03604F1E700BF72
:1028D000F84E00202DE9F8430C46FC2107469046AF
:1028E000FFF7C2FE064600283CD0FC21083008F065
:1028F00087FFFC2200210546FDF7BBFE4FF00009D3
:10290000C14506D1314638460022BDE8F843FFF7FD
:10291000F5BE62782B78D1180231FB2904F1080446
:1029200006DD304608F03AFF6FF01500BDE8F88389
:10293000E918501C4870981CC0B20133287055FA31
:1029400083F314F8081C5970013054F8041C28440F
:10295000FDF763FE2B7814F8072C13442B7009F154
:102960000109CDE76FF03600BDE8F88308B508200F
:10297000FFF768FE014640B90720FFF763FE20B16C
:102980000846BDE80840FFF771BF002008BD000001
:1029900008B5002211460820FFF7E8FC0221044890
:1029A000FFF7CCFD0020FFF7E1FF002008BD00BFCE
:1029B000F84E0020012310B50621044600F8013B23
:1029C00002F0AAF818B9A37963F03F03A37110BD10
:1029D000F0B58BB008AA002140F60340FFF78EFE49
:1029E0000446002840F0B280089B9B681C7809F0E0
:1029F0001FFB00940346B34AB3490720FFF748FC86
:102A00006CB9B24B1C60B24BBFF35B8F012253E831
:102A1000001F43E800200028F9D1BFF35B8F08981E
:102A200008F0BCFE08AA002141F20300FFF766FE91
:102A30000446002840F08A80089BA64E9D6809F055
:102A4000F7FA15F8013B0093A34A9F490346072074
:102A5000FFF71EFC2946082206F11600FDF7DDFDF2
:102A6000089808F09BFE214608AA41F20100FFF7F2
:102A700045FE35460446002868D1089B9F6809F04A
:102A8000D7FA3B7890490093944A03460720FFF712
:102A9000FFFB7B78B373FA78BB78089843EA02238C
:102AA00033823B79F3733A7AFB7943EA02237382E8
:102AB000BA797B7943EA0223B38208F06FFE21469C
:102AC00008AA41F20900FFF719FE044600283DD18B
:102AD000089B9F6809F0ACFA17F8013B0093804A05
:102AE000794903460720FFF7D3FB06223946701CBD
:102AF000FDF793FD0898347008F050FE214608AAAF
:102B000041F20200FFF7FAFD0446F8B9089B9F68FE
:102B100009F08EFA17F8013B0093724A6A4903469E
:102B20000720FFF7B5FB4022394606F11E00FDF7EE
:102B300074FD089808F032FEB37E580609D46A4A3C
:102B40006A490320FFF7A4FB6FF0120420460BB084
:102B5000F0BD214608AA42F20300FFF7CFFD04466C
:102B60000028F3D1089B9E6809F062FA16F8013B31
:102B700000935F4A544903460720FFF789FB31461B
:102B8000082205F17800FDF748FD089808F006FED8
:102B9000AB7E99067AD595F83A301A0700F1B880DD
:102BA000082142F20100FFF75FFD0446002874D0BF
:102BB0000821084408F024FE95F8403003F006038D
:102BC000062B14BF02234FF4C173002203701B0AAB
:102BD00043708270C270027142718271C27121466B
:102BE00042F20100FFF78AFD04460028AED1082119
:102BF00040F60140FFF738FD064600284DD0082179
:102C0000084408F0FDFD802343700223C370202395
:102C100004708470047144718471C371224631461A
:102C200040F60140FFF76AFD044600288ED10146B8
:102C300008AA4FF60140FFF761FD002800F08A80E6
:102C40002C4A2D490420FFF723FB0023072206A965
:102C500020480693CDF81B30FDF7CAFC002840F051
:102C6000D98009F0E5F9254F254A26490346072072
:102C7000FFF70EFB3B68002B40F0008195F86030B9
:102C8000DB0700F11A81204A20491FE1022140F6AA
:102C90006D40FFF7E9FC064610B96FF0360455E7C2
:102CA0000221083008F0ACFD012344700370224675
:102CB000314640F66D40FFF721FD044600283FF401
:102CC0006AAF43E7B6D200006FD80000E4070020E7
:102CD000F84E0020884E0020C0D3000058D30000DA
:102CE00070D300009FD30000FAD3000082D8000008
:102CF00085D3000012D40000AAD800008C2B00203D
:102D00001ED400008AD9000002D4000014DA0000AA
:102D100008AA002142F21C00FFF7F0FC044600283C
:102D20007FF414AF089B9C6809F082F92378009324
:102D30008A4A8B4903460720FFF7AAFA23460898D8
:102D400053F8012F5B68C5F88430C5F8802008F07F
:102D500025FD25E7089B83499E68B6F80130032BC3
:102D600096BF814A814A52F823200620FFF790FA45
:102D7000B6F80120B6F80330022A2AD1022B28D84F
:102D80007B4A52F823207B490620FFF781FA7379AA
:102D9000D6F809100291032BB6F8071098BF764AAF
:102DA0000191B17994BF52F82320704A0091062016
:102DB0007249FFF76DFA089808F0F0FC08AA0021A4
:102DC0004FF60240FFF79AFC064620B16C4A6D4967
:102DD00038E7664AD7E7089B6B48996802220131B9
:102DE000FDF71BFC089808F0D9FC08AA31464FF6FD
:102DF0000340FFF783FC10B1614A644922E7089B56
:102E00006348996801221144FDF707FC089808F00F
:102E1000C5FC1AE75F4B18689A8808909B79ADF853
:102E2000242008A907225C488DF82630FDF7E0FB36
:102E300000283FF416AF5848FFF74EF957490246AD
:102E40000620FFF725FAAE7B3046FFF741FBAB8A41
:102E500001932B8A00930246334651490620FFF71F
:102E600017FAEE7B3046FFF733FB6B8A009302467E
:102E700033464C490620FFF70BFA67E600211E682F
:102E8000454A07230846B04707287FF4F7AE2B785A
:102E9000012B04D1AB7903F0C003C02B52D0424ABE
:102EA00042490320FFF7F4F96FF01506404A414903
:102EB0000320FFF7EDF9344648E605AA00214FF656
:102EC0000940FFF71BFC28B1374A3B490420FFF7B4
:102ED000DFF916E0059B99684B7853B10123062270
:102EE000023136482B70FDF798FB059808F056FC28
:102EF000CDE704202C4A3249FFF7CAF9059808F0BB
:102F00004DFC09F095F8284A2E4903460720FFF7A3
:102F1000BFF92148FFF74EFD06460028C6D13B68A1
:102F200063B15F681C4A07230146B8470728AED043
:102F30001D4A25490320FFF7ABF9A8E71A4A2349A0
:102F40000420F8E71D48FFF73FFC06460028ADD1F6
:102F500004211F48FFF7F2FA6DE700BFDDD3000040
:102F60006FD80000D2D8000000DD0000FCDD0000BA
:102F7000F4DC0000EBD80000ECDD000003D9000019
:102F800012D4000030D90000E74E00205DD90000C7
:102F9000E64E0020E8CB0000884E0020F4DA000066
:102FA00001DB00003FDB000002D40000BFDA0000BC
:102FB0001ED4000066DB0000C3D90000894E00204B
:102FC000E7D9000044DA000072DA000095DA000068
:102FD000F84E002010B5FFF7FBFC08B9FFF7D8FC4E
:102FE000034B1B6813B1BDE81040184710BD00BF6C
:102FF000E00700201FB5044609F01AF8237D02936C
:10300000A3890D4A0193009403460C490720FFF75A
:103010003FF9237DA168032B96BF094AFF20D05CAE
:10302000A289FFF7A3F9074BD3F8C430DB68204629
:1030300004B0BDE81040184727D40000B4D7000002
:1030400055D20000884E00202DE9F74308F0F0FF2C
:103050005B4A5C495C4C5D4E03460720FFF718F95C
:1030600004F1B408737B6FF30713737308F0E0FF88
:1030700001250346524A564900950720FFF708F9F3
:103080004FF0FF322946514809F090FC50B14C4AAC
:1030900050490320FFF7FCF8404080F311884FF0BF
:1030A000040002DF08F0C4FF4B4A4C490095034678
:1030B0000720FFF7EDF808F0BBFF737B464A48494D
:1030C0001B09009303460720FFF7E2F8737B1B09F7
:1030D000012B06D9042B07D03F4A42490420FFF7B1
:1030E000D7F808F05FFFBDE7377B002FF9D108F074
:1030F0009FFF3D4A3D4903460720FFF7C9F839467F
:10310000404608F021FB0546002856D008F090FF05
:10311000354A374903460720FFF7BAF84FF0FF3129
:10312000344809F043F8D4F8A030002B39D12846B0
:1031300008F062FBC4F8A00008F07AFF8146284638
:1031400008F06EFA2C4F019507EBC000264A438821
:1031500000932A494B460720FFF79AF82846FFF7C5
:1031600049FF03460028BCD01F4A25490320FFF72A
:103170008FF8204808F0BAFF284608F051FA07EB0C
:10318000C00000221F214088FFF7FAF9D4F8A00000
:1031900008F004FB00232846C4F8A03008F0FEFA2B
:1031A0009FE7114A17490320FFF772F8D4F8A000EF
:1031B00008F0F4FAC4F8A070B9E70B4A124968E7BE
:1031C0004AD3000089DB0000884E0020504F0020C9
:1031D0009ADB0000C1DB00003BD30000DFDB000016
:1031E000F1DB000007DC000032D300002CDC000023
:1031F00049DC0000104F00208807002068DC000038
:1032000021D500009BDC0000BADC00002DE9F04F66
:10321000037D032B044698BFB54AA16898BFD05CD4
:10322000A28989B088BFFF20FFF7A0F808F000FF4F
:10323000A389019300940346AE4AAF490720FFF7E4
:1032400027F8267D012E40F04681A76808F0F0FEA1
:103250003B780093A94AAA4903460720FFF718F8CC
:103260003B780E3B012B00F26F81A44AA549032055
:10327000FFF70EF8404080F311884FF0040002DFA2
:10328000A56808F0D5FE2B7800939F4A9F49034616
:103290000720FEF7FDFF6FF010019D48FFF75FF973
:1032A0002B7843B9691C40229A48FDF7B6F90821EA
:1032B0009748FFF743F9984B1E686F1C36B92046B4
:1032C00008F06CFA002009B0BDE8F08F2A78336866
:1032D000002A0CBF3846002098477668EEE7A568BC
:1032E0008E4E08F0A5FE2B7800938D4A8749034641
:1032F0000720FEF7CDFF3268002AE0D02B7823B9F3
:10330000681C904700233360D9E70020F9E728467E
:1033100008F095FA804608F08BFECDF80080034651
:10332000804A8149DFF81CA20720FEF7B1FFB8F1FF
:10333000000FC4D0A6680921284608F078FA337A2D
:103340003344771C93F909B008F072FE8146384681
:10335000FEF7C2FECDF80CB0337A02933378714A8F
:1033600072498DE809004B460720FEF791FF7378FC
:10337000023B012B4FF00702394606A829D8FDF77A
:103380004CF99DF81830023B8DF81830DAF800300F
:10339000ABB1284608F05BFAA3890593337AA38181
:1033A00081462B463278DAF80070594606A8B847AD
:1033B000236913FA89F3A360BDF81430A381317A2D
:1033C0002846013108F1FF3808F031FA5FFA88F831
:1033D000ADE7FDF722F9D9E7284608F030FA804634
:1033E00008F026FECDF800800346514A4E49DFF82A
:1033F00054A10720FEF74CFFB8F1000F3FF45FAF78
:10340000A6681721284608F012FAB37D3344771CCA
:1034100093F917B008F00CFE81463846FEF75CFEC3
:10342000CDF80CB0B37D02933378414A3F498DE823
:1034300009004B460720FEF72BFF7378023B012B58
:103440004FF00702394606A829D8FDF7E6F89DF89F
:103450001830023B8DF81830DAF80030ABB128464E
:1034600008F0F5F9A3890593B37DA38181462B4626
:103470003278DAF80070594606A8B847236913FA7B
:1034800089F3A360BDF81430A381B17D28460131D2
:1034900008F1FF3808F0CBF95FFA88F8ACE7FDF7E0
:1034A000BCF8D9E7A589A0682946FEF7B9FD214AED
:1034B00021490190009533460420FEF7E9FEFEE61F
:1034C000A589A0682946FEF7ABFD009501903B4613
:1034D0000A4A1A49F0E73346064A19490320FEF71B
:1034E000D7FE204608F05AF96FF01500EBE600BF52
:1034F00055D200002FD40000ACD5000028D3000026
:10350000C3D50000BBD6000093D20000F2D5000066
:10351000F84E00209C070020DC07002098070020C0
:10352000A4D2000008D3000008D600002AD600006C
:10353000F6D2000016D3000054D600007DD600005D
:10354000A3D60000E407002004F108050221284664
:1035500008F06DF93F783E2FB2D1A76808F068FDFA
:103560003B780093144A154903460720FEF790FE66
:103570003146284608F05BF93E78B31E0B2B91D8F4
:1035800001A252F823F000BF0F330000A534000061
:10359000A5340000A5340000A5340000A5340000C7
:1035A00081320000DF320000A5340000A5340000A5
:1035B000A5340000D933000016D30000D9D500008F
:1035C0002DE9F341037D8668032B044696BF374AF5
:1035D000FF20D05CA2893146FEF7C8FE237D012B77
:1035E0000AD0334A33490320FEF752FE404080F3AD
:1035F00011884FF0040002DFA389012B02D82C4A66
:103600002D49F0E733780E3B012B4CD804F1080527
:103610000221284608F00BF933780E2B07D00F2B28
:1036200027D0204608F0BAF8214A2449DBE7A368EE
:10363000B3F801601F7808F0FBFC214A214900968D
:1036400003460720FEF724FE0321284608F0EFF882
:10365000A368224619783046FEF792FF17B11A4840
:1036600008F044FD204608F099F8002002B0BDE8BB
:10367000F081A668778896F8018008F0D9FC134A93
:103680001049009703460720FEF702FE0421284652
:1036900008F0CDF8224631783846FEF771FFB8F1D0
:1036A000000FDFD0DBE7024A09499CE755D2000052
:1036B00037D40000EED6000026D700006BD70000FC
:1036C000D6D2000054D70000104F0020E7D20000EF
:1036D00082D7000030B5184BD3F8C44085B00546FA
:1036E0001CBB826822B3C26812B3C3F8C40008F0DE
:1036F0009FFC2B68114A1249002B08BF1346009308
:10370000104A03460720FEF7C3FD2B680E4A2979AD
:103710000294002B08BF1346204602AAADF80C40C5
:10372000FEF7BAFE204605B030BD6FF04400FAE760
:103730006FF01500F7E700BF884E00202ECC000088
:1037400095D5000044D4000091D5000070B5284DF7
:10375000D5F8C43086B006464BB9264A2649032020
:10376000FEF796FD6FF01204204606B070BD0121F1
:1037700005F17000FEF7E2FE10F0010035D11F4B9D
:103780001F491E606FF00803059004900393029098
:10379000019000901B4B1C484FF46B7208F0E2FE46
:1037A000D5F8C4309B689847044630B10346114AA7
:1037B00016490320FEF76CFDD6E74EB9FFF708F96E
:1037C00004460028D0D106B0BDE87040FFF7E0B84D
:1037D000012105F16C00FEF7B1FEC307C4D405F169
:1037E00064010B4808F00FFABEE76FF04404BBE732
:1037F000884E00205BD4000092D40000E007002037
:10380000C82D002049300000E8070020AFD4000098
:10381000502D00202DE9F04389B005460F46904613
:103820001E46FEF771FE28B96FF01504204609B058
:10383000BDE8F0830520FEF705FF0446002840F0B0
:10384000A3800146172202A8FCF713FF6B88ADF88E
:103850000B30AB88ADF80D3001238DF80F308DF8AB
:103860001A304B4B8DF80840186800909B88ADF8D3
:10387000043069464FF0020906220DF112008DF85E
:103880001D908DF81C408DF81B40FCF7C6FE2B7870
:10389000D9071AD54846FEF7D5FE10B13D48FEF7C8
:1038A00093FF3D4B1B788DF8103003238DF80930C2
:1038B00000238DF80A30172142F23600FEF7D4FEBD
:1038C0000446C8B96FF03604B0E7A86888B14379F8
:1038D00013F0C00FA8D1FEF777FF04460028A5D14A
:1038E00001238DF8103040238DF809308DF80A003F
:1038F000E1E7FEF7A9FFF0E7172202A9083007F079
:1039000085FF2146002242F23600FEF7F7FE04460C
:1039100000288BD14246394642F23700FEF7DAFFE3
:103920000446002882D12EBB2B78DA0722D401214D
:1039300042F23900FEF798FE04460028C2D0012169
:10394000083007F06CFF2146002242F23900FEF7F2
:10395000D5FE044600287FF469AF20210F48FEF70A
:10396000EDFD2B789B073FF561AF40210B48FEF73B
:10397000E5FD5BE7109A314642F23800FEF7AAFFF8
:1039800004460028D3D051E76FF044044EE700BF4F
:10399000EFCB0000894E0020884E0020F84E00201A
:1039A00010B56FF040011948FEF7D9FD0520FEF76C
:1039B00049FE10B90024204610BD012142F20A0040
:1039C000FEF752FE0446F0B10021083007F027FF51
:1039D0002146002242F20A00FEF790FE044600282B
:1039E000E9D16FF020010948FEF7B9FD0720FEF785
:1039F00029FE0028DED00920FEF724FE0028D9D0B9
:103A0000FEF722FFD7E76FF03604D4E7F84E002028
:103A100038B50546054807F091FE044620B100215F
:103A2000083007F0AAFE2575204638BDF051002069
:103A300073B506464FF02003EFF3118283F311882C
:103A4000114B0025D3F8A040C3F8A05082F3118891
:103A500008F0EEFA009403460C4A0D490720FEF7E1
:103A600017FC34B93146012002B0BDE87040FFF7C1
:103A7000CFBF012304F108002375A581294607F073
:103A80007CFE204602B070BD884E002065D4000048
:103A90007DD40000F7B51860C31D054623F003036D
:103AA000501E0E4680B214461A800021042206FBE6
:103AB0000050FCF7DEFD023CA4B24FF6FF77BC429B
:103AC00001D103B0F0BD04FB06602B180422801B5B
:103AD0000DEB02012844013C0193A4B2FCF79DFDCB
:103AE000EDE773B50568064695B1EB1D23F00303BA
:103AF00004221C8829460DEB0200FCF78EFD019B79
:103B0000013CA4B21BB1DA1D22F003021480336021
:103B1000284602B070BD70B50C6806460D461CB153
:103B2000E31D23F003031C88042229463046FCF7DA
:103B300074FDF21D22F00302631C13802E6070BD21
:103B400002FB01007047401A80B2B0FBF2F07047F0
:103B500010B5114401384FF6FF73013A92B29A4200
:103B600000D110BD11F8014D00F8014FF5E71060CC
:103B70000860704710B514682060146861601060B8
:103B800010BD884203D01AB143681360704700200B
:103B900070470B68834209D022B1586810601A68D8
:103BA0000A6001E0002BFAD1184670470023FBE7BA
:103BB0002DE9F047114FDFF848900426013EF6B298
:103BC000FF2E19D033B24FEA830803EB43031D01E4
:103BD00004244FF00C0A0AE01AFB04510A1D04EBFE
:103BE00008003A44394409EBC000FFF7C0FF013C2C
:103BF000E4B2FF2CF0D1E1E7BDE8F087D008002067
:103C000050080020F0B4124B05460F460C26302415
:103C100072B1614306FB00142344597A187A814239
:103C200004BF0131197228463946F0BC07F022BCA6
:103C30004C4306FB004423449C7ADA7AA24204D126
:103C400001329A72F0BC07F05DBCF0BC704700BF57
:103C5000D0080020F8B505460E461C468AB101235F
:103C600062782078801A10F0030729D003B3012F5F
:103C700039D00132D2B222703146284607F042FCD8
:103C80001CE007F02DFC0028E9D03146284607F05B
:103C90000DFC0028E3D030230C22734302FB0533D4
:103CA000124A1A44937AD27A9B1A18BF0123D7E793
:103CB0000232D2B22270E368A06898470020F8BDB3
:103CC000002BF8D00132D2B222700423302212FB32
:103CD00006320C2313FB0523044A60681A4421466C
:103CE000FFF748FFC8E73846F8BD00BFD0080020FE
:103CF0002DE9F04F00EB400389B01B014FF00008A5
:103D0000434E049305460424CDF80480013CE4B2FC
:103D1000FF2C0BD1019B002B76D0B8F1000F73D193
:103D200042462946284607F0A5FB6DE00DF1200B21
:103D300000230C274BF8043D4FF0300907FB04F338
:103D400009FB053031185A46496830580293FFF78D
:103D500018FF049B17FB0437F31982460393BAF14B
:103D6000000F19D130220C236A4303FB0422324492
:103D7000917AD07A88421EBFD172012201923022FC
:103D80006A4303FB042333441A7A597A91421CBFD5
:103D90005A724FF00108B9E7079B1F785A78BF1A8B
:103DA00007F00307012F04D1013A5A709868DA68C6
:103DB0009047079A13785278DBB29A1A02F00302FE
:103DC000012A05930DD0029B039909FB053030446D
:103DD00000224068FFF7DDFE079A059BC2F804A0A9
:103DE0005370029B09FB0533F1185A464968F05895
:103DF000FFF7C7FE012F8246B1D10CB90028B1D020
:103E00002946284607F07EFB09B0BDE8F08F00BFC9
:103E1000D008002010B5421E00200139C9B2FF2988
:103E200000D110BD12F8013F002BF6D05C1E01300E
:103E30002340C0B2F8E7F0B5437F05681A46002476
:103E4000FF2A01D10020F0BD02EB82078A4205EB78
:103E5000C70615F8377004D0B3681C4413463A46B9
:103E6000EEE7934200D147771BB203EB830332782E
:103E7000B06805F833203378FF2B06D003EB8303BB
:103E800005EBC3039A6802449A602044F0BD30B544
:103E9000551A15F4000F8368446909D125F07F4253
:103EA0001A44A2420ED9121B00248260446130BD24
:103EB0008A1A22F07F42934201D99A1AF1E72244EA
:103EC000D41A0022A41A0022EFE7034600221A7037
:103ED0009A6A596208460AB1D96A104770472DE9B3
:103EE000F047857F01230446C377002D4CD1437FE3
:103EF000FF2B02D1C577BDE8F08706F063FE676946
:103F0000667FD4F80080C71B27F07F47FF2E06D0BE
:103F100006EB860608EBC6018B689F4218D2A27A90
:103F2000E37A934205D10133DBB2022B08BF0023B1
:103F3000E372E37A04EB83030122DD600023656A08
:103F4000E377AC46234604210320BDE8F0476047F1
:103F5000FF1A1D448A784B7818F836609B1ADBB23A
:103F6000012BD3D1D1F80C90013A8A70B9F1000F2E
:103F7000CCD048696369CA8B281A184420F07F4066
:103F80000B69496AC847C1E7BDE8F0872DE9F04FE2
:103F9000C27F93B08346002A40F0BA8343690593F9
:103FA0000121837A8177C07A984200F08F800B4498
:103FB000DBB2022B08BF00238BF80A300BEB830324
:103FC0000191D3F80C80059B434423F07F43CBF849
:103FD00014309BF81D300393DBF800300493DBF8BA
:103FE00004300B939BF80930013BDBB202930023B2
:103FF00007934FF0FF0A029BFF2B6AD19BF81D30FD
:10400000039A9B1A18BF01230293019BE3B1DBF8CB
:10401000003004934FF000099BF81D60FF2E0CD078
:1040200037B2049B07EB870703EBC704A568454538
:1040300040F23681A5EB0805A560029B019A039921
:10404000B14218BF13460293DBF800300893DBF847
:10405000043010939BF80930013BDBB20193019BC4
:10406000FF2B40F070819BF81D30039A9342079B11
:1040700040F045835BB99BF80940DBF804300193BD
:10408000013CE4B24FF00008FF2C40F0A082002376
:104090008BF81E30029B4BB19BF81D30FF2B40F07C
:1040A000E98206F06DFD08B9CBF818009BF81F30C7
:1040B000002B00F02D83DBF824405B460122032116
:1040C0000420A44613B0BDE8F04F6047019290462B
:1040D0007FE70B9B029A03EBC2077B680693F97894
:1040E000BE788E4200F0D780069B387806EB4602F9
:1040F00012019D18731CDBB2984208BF0023BB70ED
:10410000069B9A5C032AEBD9052A17D8697801EB3C
:1041100081030A930A98049B03EBC0046378A07898
:104120001B1A13F0FF0309D0042A0CD16A6852B994
:10413000AA6842B9EA6832F07F4204D101212846D8
:10414000FFF7C3FECBE7012B40F09B805846FFF7FB
:1041500072FE2B78A060042B064640F08480DBF8CA
:104160001430089306F02EFD089B0990C31A23F023
:104170007F4343449E4202469EBF6269921B9B1846
:10418000626896BF6361F31A00238AB1A98979B185
:1041900001F1FF3E1FFA8EFEA5F80CE09A422BD3E8
:1041A000DFF82493B4F81EC0E64547D8A4F81CE015
:1041B000AA8808991344A360EA8863691344636179
:1041C000099A2046FFF763FEA2692B891344A36175
:1041D0006A8993428CBF9B1A0023A361AB7B03B116
:1041E000E370049B0A9A03F832A0637895F801A063
:1041F000013363700021A2E7B4F81EC0E645CFD2B8
:10420000616AAF4EAF488E19864281BF01F1E871F5
:1042100001F5D43101F5A5716162666A216A8CBF2E
:104220004FF001094FF00009761A91440CF1FF3C60
:104230006662A3EB0903A4F81EC0AFE7666A216AB1
:10424000A0480E449E49711881428EBF0021012171
:104250004E4411440CF1010C8CBF666266620B4443
:10426000A4F81EC09EE7A37863706B789BF81C20AF
:104270009A4201BFFF238BF81C300023CBF8183083
:10428000B8E704215B46DBF8244001220846A0473A
:104290000123BE700793029B013BDBB20293AAE6A7
:1042A000DBF818309D4229BFFF235B1B8BF81C30C5
:1042B0000023CBF81830A369A9441BB18BF81C600C
:1042C000CBF818300022049BA26013F837308BF82B
:1042D0001D30D4F804E0BEF1000F30D0A08BDFF821
:1042E000E4C1636A216A0B447549591861459FBF4F
:1042F000A3F1E873A3F5D433A3F5A573636292BF6A
:10430000019B63620023734410F1FF301A44E8D22A
:10431000059BA260DBF8141003EB09022046FFF7AF
:10432000B6FDA38BE3830023E370049B03F837A05F
:10433000637801336370A8EB0508B2466CE6A37896
:1043400063705646F7E7109B019A03EBC203049390
:104350005B680A93049B93F80190BAF1FF0F00F099
:104360008E800FFA8AF303EB8303089AD04612F883
:1043700033A002EBC3040025DBF800300B93FF23CE
:10438000A28B2370E38B934286BF9B1A9BB20023C0
:104390000C930FFA88F303EB8303DB001193119B5B
:1043A000DBF80020DBF81800059002EB030EFF207D
:1043B0009BF81D30DEF8081009930690FF2B07D0FC
:1043C00003EB830C02EBCC06B068814200F2A980BB
:1043D000DEF818000D9001EB000C1E46FF2E40F099
:1043E000AE800D9830B105988142C0F0BF80FF2E9D
:1043F00040F08A810998CEF80810834218BFBDF9B1
:1044000024008EF8003016BF00EB80008BF81D8072
:1044100002F83080FF2B06D003EB830302EBC303CB
:104420009A68511A9960A378013363700021002DB6
:1044300093D02846FFF749FD8FE709EB49030A9A15
:104440001B01D51809F101025FFA82F9049A12786A
:104450004A4508BF4FF000090A9AD35C032B0ED1DE
:1044600095F80180089B08EB880403EBC40462788C
:10447000A3789A4209D001212846FFF726FD049B24
:104480009B784B45D9D1019BE6E5EB68DBF814102E
:1044900063602B692362AB8AA383AB69A361EB6979
:1044A000E3602B6A23610026AB68A36066616A68DB
:1044B0002046FFF7ECFC01236662E683E3705BE7CE
:1044C0005A2B17FF592B177FB6562EFE606800280F
:1044D0007BD0626A216A904B0A449049D3188B4280
:1044E0009CBFA2F1E872A2F5D432A3688BBF6262CE
:1044F000A2F5A57200226262034498BF0122134410
:10450000E28BA3600132E283626993424FF00001C3
:1045100089BF9B1AD31AA36061619CBF6361A160CC
:104520003DE7B669091A46B9059FB84200D23E1A5E
:104530000993059612F83C3040E70693F8E730B24D
:1045400000EB800002EBC0070E97BF680F9767452E
:104550000AD20E9FBF69002F7FF443AF0F9EACEBD2
:10456000060C12F8306039E7FF263AE7069B9845BB
:104570003FF459AF069BFF2BA8D01E4633B203EB86
:1045800083030593059A0B9B03EBC207FB8BBA8B46
:10459000934288BF9B1A7A688CBF9BB20023002A83
:1045A00094D00C9A934291D8FA78E3789A428DD2BB
:1045B00031465846FFF73FFCBB787B70059A0B9B52
:1045C000B86003F832A0B246E9E601212FE7019B6B
:1045D00003EBC4056E686B78EA789A4202D1013C1D
:1045E000E4B251E503EB43031B01F218F35C012B2A
:1045F00025D0022B2AD1D2F804C093689CF8000081
:10460000D2F80C90DBF800E0FF2804D01968DBF842
:104610001470B94223D0DBF814009BF81D10186009
:104620000023FF2907D001EB810A0EEBCA0087693E
:104630008068DFB103448CF80010C9F80030936A39
:10464000C2F8248013B1D16A002098476B782A7889
:104650000133DBB29A4208BF00236B70BBE700EB6B
:104660008000D9F800301EF83010DAE703441EF855
:104670003A10D6E7039BFF2B07D106F0A3FA0446B6
:1046800006F070FA08B9CBF814409BF81D30DBF83F
:10469000002003EB830302EBC3030A269D6806F0A8
:1046A00091FADBF81440031B23F07F430333AB4242
:1046B0002CBFE418641924F07F440746DBF8283047
:1046C0002046984706F07EFAC01B20F07F40E41B8E
:1046D000033024F07F44A0427FF6E8AC013EDED1F7
:1046E0000F4A10490320FDF7D3FD404080F31188A5
:1046F0004FF0040002DF00238BF81E30CCE4002BC7
:10470000F9D101230293B6E4B0457FF437AF8AE6CE
:1047100013B0BDE8F08F00BF5A2B17FF592B177F3E
:1047200004DE00001EDE0000F0B51A4D059F9DF866
:1047300018402C26464305EB060EAA518EF80810A9
:1047400007998EF80930CEF80470013BDBB2FF2BDD
:1047500011D1ECB92C2202FB00520899116209997F
:1047600051620A99916253771377946154619472FC
:10477000D4722046F0BD1AB207EBC206716017F87A
:10478000322002EB4206A41A01EB0611E4B2DCE788
:104790000120F0BD90090020074A2C2100FB0123D5
:1047A00010B45C6A2CB1A44601220321022010BC83
:1047B000604710BC704700BF900900202DE9F0470A
:1047C000254F4FF02C08814608FB00700FFA81FC42
:1047D000D0F804E00EEBCC061EF83CE0F478651C43
:1047E000EDB2AE4598BF002596F801E0AE452FD05A
:1047F000D6F804C004EB44044FEA041E0CEB0E048C
:104800004FF0030A0CF80EA06360089BA360099B9D
:10481000E3600A9B23610C9BA361BDF82C30A3824B
:104820000D9BE3610E9B2362022363620F9BA362D5
:10483000109B6270E362F570456A036A0846984708
:1048400009FB087300220421A847606ABDE8F087CD
:104850000120BDE8F08700BF900900202DE9F04756
:10486000DFF890804FF02C0A0AFB008E0FB2DEF8C2
:104870000450814605EBC70015F83750C478661C14
:10488000F6B2B54298BF00264578B5422FD0D0F891
:1048900004C004EB440425010CEB050404270CF8C8
:1048A0000570A380BDF82030E380BDF8243023815B
:1048B000BDF828306381BDF82C30A3819DF83030DD
:1048C000A373022363620D9BA3620E9B6270E3627B
:1048D000C670DEF82030DEF824500846984709FB01
:1048E0000A8300223946A847606ABDE8F0870120A4
:1048F000BDE8F087900900202DE9F047DFF86C90C3
:104900004FF02C0A0AFB009E8046DEF804000EB22F
:1049100000EBC60710F83600FC78651CEDB2A84223
:1049200098BF00257878A8421DD0786804EB44042D
:10493000240106194FF0050C00F804C07270B36230
:104940000222089B7262F362FD70DEF82030DEF80E
:1049500024400846984708FB0A9300220421A047F8
:10496000706ABDE8F0870120BDE8F087900900205B
:104970002DE9F047DFF878804FF02C0A81460AFBDA
:1049800000800FFA81FE456805EBCE0715F83E5012
:10499000FC78661CF6B2B54298BF00267D78B54219
:1049A00023D0D7F804C004EB440425010CEB050424
:1049B0004FF0020E0CF805E0A360089BE360099B32
:1049C000A362FF250A9B62606570C4F824E0E3627D
:1049D000FE70456A036A0846984709FB0A8300226D
:1049E0000421A847606ABDE8F0870120BDE8F08790
:1049F000900900202DE9F047DFF86C904FF02C0A69
:104A00000AFB009E8046DEF804000EB200EBC607EB
:104A100010F83600FC78651CEDB2A84298BF00255E
:104A20007878A8421DD0786804EB44042401061964
:104A30004FF0010C00F804C0FF207070022070627B
:104A4000B262F362FD70DEF82030DEF824400846E2
:104A5000984708FB0A9300220421A047706ABDE82A
:104A6000F0870120BDE8F087900900202DE9F04192
:104A7000084C2C2505FB004306465F6A1B6A084666
:104A8000984706FB0543BC4600220421BDE8F041DF
:104A9000604700BF9009002006F094B8401A20F04B
:104AA0007F40704708B50346012B08460ED833B146
:104AB00019B106220649FBF7B0FD054808BD19B13A
:104AC00006220449FBF7A9FD024808BD002008BDE5
:104AD000EE090020E809002070B506460D4605F0F5
:104AE00005F8044610B10C24204670BD05F014F8FA
:104AF00010F0060FF7D1062229461EB10248FBF737
:104B00008CFDF1E70148FAE7EE090020E8090020F2
:104B1000002303700B707047F7B507460E460C462E
:104B2000351B3D448CB1FCF73FFD032C019007D9A8
:104B300004220DEB02012846FBF76FFD043CEFE772
:104B4000224601A92846FBF768FD002003B0F0BD0E
:104B500008B50248FEF7BEFD002008BD8CDE00004F
:104B60007FB52F4D2F4E07F063FA2A460346314694
:104B70000720FDF78DFB4FF0FF312B4807F067F85A
:104B8000044607F055FA2A46034628490720FDF750
:104B90007FFB002C31D0204600F0DEFE022803947B
:104BA0002ED801280EBF00214FF0FF310120FEF763
:104BB0002FFF044618B10146039800F013FE039B33
:104BC0000021D88805F078F804A8002250F8043DA8
:104BD0001A6005F007F884B1A389E3B107F028FA59
:104BE000A3890193237D00932A4603461049072099
:104BF000FDF74EFB2046FEF709FB07F0D3F9B2E7BD
:104C00000C4A0D490320FDF743FB404080F3118817
:104C10004FF0040002DF204606F0C0FDEDE700BFC4
:104C200052DE000087DF0000C051002099DF000045
:104C3000ACDF000046DE00006BD7000037B504464D
:104C400007F0F6F91C4A1D4903460720FDF720FB33
:104C5000A3893BB9184A1A490320FDF719FB6FF0E5
:104C6000150021E0237D0BBB204600F0ADFA054680
:104C700060B107F0DDF9AB890093124A124903468F
:104C80000720FDF705FB2846FEF79AFC204606F0B4
:104C900085FD07F0CDF90024034600940720064A5D
:104CA0000A49FDF7F5FA204603B030BD024A08492B
:104CB0000320FDF7EDFAD2E769DE0000CFDE000049
:104CC000DEDE00005EDE0000F3DE00001CDF000020
:104CD0002EDF000073B5184C184E194D0DF102016E
:104CE00001A804F047FF0028F8D1019B73B105F03B
:104CF00051FA07F09DF92246034612490720FDF7B5
:104D0000C7FA0199104806F07EFFE7E707F090F92F
:104D10002246034631460720FDF7BAFA4FF0FF312D
:104D2000284607F043FA07F083F92246034607496D
:104D30000720FDF7ADFAD1E735DE00005FDF0000A8
:104D4000A851002046DF0000C051002074DF0000A1
:104D500010B51B4886B005F0DDFA044640B1194A8B
:104D6000194903460320FDF793FA204606B010BD0B
:104D700000F012FE6FF0090303934FF43B72134BE4
:104D8000134905940494029401940094114807F087
:104D9000E9FB6FF0070340F22C520F49039305948F
:104DA0000E4B04940294019400940D4807F0DAFB32
:104DB00007F03EF9034A0B4903460720D3E700BF3B
:104DC000A851002079DE00009CDE0000D54C0000D8
:104DD00068330020F82B002058360020614B00007B
:104DE000902B0020BDDE0000C0F307230870000CEC
:104DF0008870000A4B70C870704738B508300D468F
:104E00000221144606F0FCFC0570447038BD000019
:104E100038B504464FF0FF300D46FEF709FEEA1C98
:104E20002060D2B20E21FFF7E8FF2068032108308E
:104E300006F0E6FC01230370054B1B88A0F8013047
:104E4000206829460830BDE8384006F0D9BC00BFCC
:104E5000F409002070B50446154601320E460834A8
:104E6000D2B23E21FFF7C9FF0121204606F0C8FC5F
:104E7000067029462046BDE8704006F0C1BC00001F
:104E8000F7B501238DF8013003238DF80230FF239D
:104E90008DF803308DF8053002238DF80630254B50
:104EA0000746104604228DF80420D3E9002300228F
:104EB00003F00053002413438DF8004038D01E4BFC
:104EC000D3E90023002302F00202134330D03B78E1
:104ED00003F00F03012B7B781CBF9C1FE4B2194425
:104EE00004F10B028E7AD2B20221FFF7B3FF012345
:104EF00003703B7802AA03F00F031344394613F8FA
:104F0000083C437011F8023B0546C3F380138370DD
:104F100006220330FBF781FB0A3505F8014C764287
:104F200076B2224607F108012846FBF776FB2E559C
:104F300003B0F0BD684F0020704F0020F0B58BB07B
:104F40000024037AB0F8032006780D46B0F801106B
:104F50000994477D0897077D0797C77C0697877C4C
:104F600005970494047C0394C479029400F10A0424
:104F70000194407A0090304605F06AFA0221044616
:104F80002846FFF745FF04700BB0F0BD38B5007838
:104F90000D4605F0C3FC012104462846FFF738FF03
:104FA000002C0CBF00230C23037038BD70B50446E1
:104FB0001846134B1646D3E90023002203F0005392
:104FC00013430D461BD00F4BD3E90023002302F0FF
:104FD0000802134313D00B220421FFF73BFF0822E2
:104FE0000470A0F80160033024B9291DBDE87040A9
:104FF000FBF713BB0021BDE87040FBF73ABB70BD67
:10500000684F0020704F002070B503788AB00446C6
:105010000E4607AD032B20D8DFE803F002191B1D55
:1050200011492846FBF7BCFA62780492A2780392F1
:10503000E27802922279019262790092A379059531
:105040000A4A1B213046FCF7C3F90AB070BD084973
:10505000E7E70849E5E70849E3E7084A0A2128465F
:10506000FCF7B6F9E0E700BFDED1000000D2000097
:10507000E5D10000ECD10000F6D1000027E10000EE
:105080002DE9F0410D46417816466A1890B0977A9E
:105090007F427FB20497027801910446D0090390C1
:1050A000C2F3801002F00F02029000923F49404A82
:1050B0000420FDF7EDF8237803F00F03072B6ED1E2
:1050C0006378002B6BD0A3783A4903F03F0200923B
:1050D0009B090420364AFDF7DBF8A37898065BD0DD
:1050E000E378D90704F1040518D523780DF14008B9
:1050F000C3F3801308F8243D062229460DF11D0054
:10510000FBF78BFA09A94046FFF77EFF09AB284A57
:105110002949042004F10A05FDF7BAF8E3789A0753
:1051200048BF0635180748BF0235D90648BF0335C2
:105130005A0606D515F9013B1D4A20490420FDF702
:10514000A7F8A278C2F305036278D21AD2B202F1AC
:10515000FF3818323046D2B20D21FFF77BFE012313
:105160000370E378DB075FFA88F8064608D59DF8F8
:105170001C30837006220DF11D010330FBF74DFA40
:105180000723737086F81780183642462946304642
:10519000FBF743FA06F8087010B0BDE8F08132461C
:1051A00029462046FFF76CFEF6E700BF2EE100001F
:1051B000FDDF00006FE1000094E10000A1E10000CC
:1051C0000346006859687047F0B581898FB00025A3
:1051D00002290446039507D8C14AC2490320FDF7B6
:1051E00057F828460FB0F0BD8368BF4E1A7858783C
:1051F0009B7842EA00228B42328002D9B84ABB49EE
:10520000ECE7032104F1080006F011FB3388C3F337
:1052100009029B0A042B6BD00ED8032B2CD0012142
:1052200003A8FFF7F5FDAE4AB14904460320FDF798
:105230002FF80123237034E0082B00F0E6803F2B89
:10524000EDD1013A092AEAD801A353F822F000BFB0
:10525000FF5500002D560000555600001F5200005B
:105260001F520000995600001F5200006B560000AC
:10527000A35600000F570000032A14D008D8012AB3
:10528000CDD1A068FFF79CFF9A4BC3E9000103E072
:105290002D2A17D0632AC2D1012103A8FFF7B8FD38
:1052A000057003989EE7934B4FF0FF3041F6FF7176
:1052B000C3E90001904B1F200021C3E9000104F065
:1052C000B9FBE9E7A368042103A81D889F78FFF7CD
:1052D0009FFDAEB20446C21C3946304604F040FC85
:1052E00000280CBF002302232370A4F80150D8E744
:1052F000013A082A93D801A353F822F02153000061
:105300004B530000D75300001F5200001F520000F3
:105310001F5200001F5200001F520000F3530000F4
:10532000092103A8FFF774FD002303708370C37085
:105330006FF00E0343710523092283714FF0FF3391
:1053400042700271C3710372ABE7412103A8FFF7FA
:105350005FFD00210446402200F8011BFBF789F99C
:10536000E378207FA17EE27E63F07F03E370A37980
:1053700063F03F03A371E37A43F00403E372E37B3A
:1053800043F02803E373237C43F002032374E37D9B
:1053900043F00403E37594F8253063F0110384F8B7
:1053A000253094F8263060F03C0043F0200320774D
:1053B00084F82630607F94F8273040F0080061F0D0
:1053C000080162F03C0263F07F036077A176E27629
:1053D00084F8273065E7092103A8FFF719FD0021AC
:1053E0000446082200F8011BFBF743F960236371B0
:1053F00057E7072103A8FFF70BFD0146002301F83B
:10540000013B1846FFF74EFB4BE7102A00F0A68041
:1054100047D8062A00F0E38022D8022A7FD00FD88E
:10542000012A7FF4FCAEA068FFF7CAFE324BC3E945
:105430000001012103A8FFF7EBFC0023037030E714
:10544000032A79D0052A7FF4EAAEA1680120FFF78C
:1054500043FB0446012103A8FFF7DAFC047020E7B0
:10546000092A00F0C1800BD8072A00F04881082AD9
:105470007FF4D5AEA368591C187805F0A7F9D8E7D2
:105480000A2A00F0B7800F2A7FF4C9AE022103A8D0
:10549000FFF7BEFC00230370044605F0B3FA60700A
:1054A000FFE61C2A7FD012D8122A64D05FD3172AB5
:1054B00065D0182A7FF4B3AE092103A8FFF7A8FC32
:1054C000002300F8013B0821FFF726FBE9E6382A14
:1054D00000F08A8012D8362A00F08180372AC7E788
:1054E000EEDF000053E00000F40900206DE0000052
:1054F000ABE00000684F0020704F0020392A79D0BF
:105500004B2A7FF48CAE032103A8FFF781FC0146F0
:10551000002301F8023B0130FFF7FAFAC1E604214B
:1055200003A8FFF775FC002303706FF0040283707B
:105530000A234270C370B4E6092103A8FFF768FC90
:1055400000210446082200F8011BFBF792F80C2307
:1055500063704023A3700123E370A2E6012103A836
:10556000FFF756FC044605F04FFA207099E6A06854
:1055700005F060FA6DE7A06805F094FA69E7A068A5
:10558000002304AA00F1100105F050FB112103A82B
:10559000FFF73EFC0023102200F8013B0DEB020157
:1055A000FBF73BF87DE6092103A8FFF731FC044631
:1055B000064604F8015B06F03BFD03270346864AD6
:1055C000864907208DE8A000FCF762FE2146384698
:1055D000FFF70AFC711D2846FFF706FC61E603A9E8
:1055E000A068FFF7ABFC5CE6A368591C187805F0CF
:1055F00053F91EE703A9A068FFF7C8FC51E60D2187
:1056000003A8FFF705FC02224270C27001228271DA
:105610000B220023C27163220370837003714371F4
:10562000037242728372C37203733AE6412103A884
:10563000FFF7EEFB00210446402200F8011BFBF7B8
:1056400018F8637863F058036370A37843F003039A
:10565000A37026E6092103A8FFF7DAFB002100F872
:10566000011B0822FBF705F81BE65D4B04AA03F1BA
:105670002806154618685968144603C40833B3420F
:105680002246F7D1292103A8FFF7C2FB002300F827
:10569000013B2822294683E7A1680020FFF71CFA76
:1056A000C7E64FF08053D3F8A420013206D1D3F8D7
:1056B000A8304FF6FF729BB2934220D04FF0805536
:1056C000D5F8A030DB071AD5182103A8FFF7A0FBF7
:1056D00000260123044643700670D5F8A400A11CDF
:1056E000FFF782FBD5F8A830A371C3F3072363F05B
:1056F0003F03E3711022314604F10800B2E70221B2
:1057000003A8FFF785FB002303704370C9E521213F
:1057100003A8FFF77DFB0346002203F8012B4FF09F
:1057200080520446D2F8901001314BD0D2F8941038
:10573000013147D0D2F89810013143D0D2F89C10F3
:1057400001313FD0D2F890001946FFF74DFB611DA3
:10575000D2F89400FFF748FB04F10901D2F8980051
:10576000FFF742FB04F10D01D2F89C00FFF73CFB70
:105770004FF08052D2F88030013304F1110327D06A
:10578000D2F88410013123D0D2F8881001311FD013
:10579000D2F88C1001311BD0D2F880001946FFF7E7
:1057A00023FB04F11501D2F88400FFF71DFB04F17F
:1057B0001901D2F88800FFF717FB04F11D01D2F898
:1057C0008C0009E7102200211846FAF752FFCFE7B4
:1057D00010220021184645E7DADF00008FE00000C4
:1057E000CEE0000070B504468CB02379012B0D4645
:1057F00000F1080061D0023B032B53D8DFE803F02F
:1058000002080E100A462146FFF73AFB0CB070BDA5
:1058100001232A462146FFF733FCF7E70423F8E784
:10582000444BD3E90023002203F00053134304F157
:105830000A0607D0404BD3E90023002302F480225C
:1058400013431ED1237A0CADC3F3801306223146D5
:105850000DF10D0005F8243DFAF7DFFE637A1C44D4
:1058600005AEA47A6442314664B22846FFF7CCFB09
:10587000019400960023314A31490420FCF708FDC9
:10588000C4E7082213212846FFF7E4FA0023037037
:10589000237AC3F380134370062231460230FAF7AD
:1058A000BCFEB3E7274A28490320FCF7F1FC40403F
:1058B00080F311884FF0040002DFE17AE6880929BD
:1058C0000BD00C2910D0072931D1237B0E2B28D1E6
:1058D0002B46324600211A2003E001462B46324671
:1058E0000020FFF763FB91E7124BD3E9002300236D
:1058F00002F40062134389D008222846FFF77DFA9C
:105900000821681805F07CFF00230370A0F80160EF
:10591000237BC370B4F80D308380B4F80F30C3809C
:1059200074E70A4A0A490420FCF7B2FC6EE7094A08
:10593000B9E700BF684F0020704F00200FE0000063
:10594000F6E0000024E000006BD7000033E0000028
:105950001DE1000042E000000379012B0FD00A2B6B
:1059600015D8012000FA03F313F4B06F12D113F02D
:105970003C0F10D183F0400343F380107047037A4B
:1059800003F00303032B0CBF0220032070474FF0EA
:10599000FF30704702207047064B4FF0FF3041F652
:1059A000FF71C3E90001044B1F200021C3E900017E
:1059B000704700BF684F0020704F002020BF40BFDD
:1059C00020BF7047F0B50D4B89B005460E4601AAC1
:1059D00003F1180718685968144603C40833BB421A
:1059E0002246F7D11B88238008AB1D4415F81C0CF8
:1059F000831B5842584109B0F0BD00BFF5CB0000F1
:105A00000860704718B90B6843F000430B6070479B
:105A100018B90B6823F000430B60704770B5031D85
:105A2000451E00249D4201D1204670BD15F8016F2E
:105A30000022A018082AC0B201D10446F2E716F0ED
:105A4000010F03D00029F0D00139C9B27608013224
:105A5000EFE7000010B50C4A92F83A3792F8391780
:105A60008B4238BF92F8384792F8391738BF1B1964
:105A70005B1ADBB298429DBF92F83917D2F83437DF
:105A800053F82100002010BDF809002030B590F82F
:105A90005C3090F85D10994228D190F91D30002BB0
:105AA00026DBC48C828CA0F86440C48DA0F86220F0
:105AB00054437D2262434FF47A7492FBF4F2A0F8CF
:105AC000662090F86020012565F30102D2B2002320
:105AD00042F00402013980F87050C36680F86020FB
