:10000000D0480020610F0000B10F0000610E000019
:10001000610E0000610E0000610E0000610E000024
:10002000610E0000610E0000610E0000F50B000083
:10003000610E0000610E0000B10B0000610E0000B7
:10004000250F000073CA0000250F0000250F0000D7
:10005000250F0000250F0000250F0000250F0000D0
:10006000250F0000250F0000250F0000250F0000C0
:10007000250F0000250F0000250F0000250F0000B0
:10008000250F0000250F0000250F0000250F0000A0
:10009000250F0000250F0000250F0000250F000090
:1000A000250F0000250F0000250F0000250F000080
:1000B000250F0000250F0000250F0000250F000070
:1000C000250F0000250F0000250F0000250F000060
:1000D000250F0000250F0000250F0000250F000050
:1000E000250F0000250F0000250F0000250F000040
:1000F000250F0000250F000000000000691200001D
:1001000000000000D90D0000645600201F170000F9
:1001100000000000D90D000000000000D90D000013
:1001200000000000D90D0000885600204D1400008A
:1001300000000000D90D000000000000D90D0000F3
:1001400000000000D90D000000000000D90D0000E3
:100150000000000039CA000000000000D90D0000B6
:10016000705600208919000000000000D90D000021
:1001700000000000D90D000000000000D90D0000B3
:1001800000000000C91A000000000000D90D0000A6
:1001900000000000D90D000000000000D90D000093
:1001A00000000000D90D000000000000D90D000083
:1001B00000000000D90D0000000000006DCA000022
:1001C00000000000D90D000000000000D90D000063
:1001D00000000000D90D000000000000D90D000053
:1001E00000000000D90D000000000000D90D000043
:1001F00000000000D90D000000000000D90D000033
:1002000000000000D90D000000000000D90D000022
:1002100000000000D90D000000000000D90D000012
:1002200000000000D90D000000000000D90D000002
:1002300000000000D90D000000000000D90D0000F2
:1002400000000000D90D000000000000D90D0000E2
:1002500000000000D90D000000000000D90D0000D2
:1002600000000000D90D000053B94AB9002908BFA9
:1002700000281CBF4FF0FF314FF0FF3000F08EB967
:10028000ADF1080C6DE904CE00F01AF8DDF804E0D9
:10029000DDE9022304B07047430803F05533C01A68
:1002A000830803F0333300F03330184400EB1010B0
:1002B00000F00F3000EB002000EB0040000E704714
:1002C0002DE9F0478C460D460446089E002B51D17F
:1002D0008A4217466DD9B2FA82FEBEF1000F0BD0EA
:1002E000CEF1200C01FA0EF520FA0CFC02FA0EF702
:1002F0004CEA050C00FA0EF44FEA174A250CBCFB39
:10030000FAF81FFA87F90AFB18CC45EA0C4508FBF6
:1003100009F3AB420AD9ED1908F1FF3280F02381CD
:10032000AB4240F22081A8F102083D44ED1AA4B28C
:10033000B5FBFAF00AFB105544EA054400FB09F945
:10034000A14509D9E41900F1FF3380F00A81A145E4
:1003500040F2078102383C44A4EB090440EA08401B
:100360000021002E61D024FA0EF400233460736063
:10037000BDE8F0878B4207D9002E54D0002186E8D3
:1003800021000846BDE8F087B3FA83F1002940F068
:100390008E80AB4202D3824200F2FA80841A65EB6F
:1003A00003050120AC46002E3FD086E81010BDE8C2
:1003B000F08712B90127B7FBF2F7B7FA87FEBEF153
:1003C000000F34D1EB1B3A0C1FFA87FC0121B3FB61
:1003D000F2F8250C02FB183345EA03450CFB08F341
:1003E000AB4207D9ED1908F1FF3002D2AB4200F25F
:1003F000D1808046ED1AA3B2B5FBF2F002FB105596
:1004000043EA05440CFB00FCA44507D9E41900F1BC
:10041000FF3302D2A44500F2B8801846A4EB0C04C6
:1004200040EA08409DE731463046BDE8F087CEF10E
:10043000200405FA0EF307FA0EF720FA04F83A0C36
:1004400025FA04F448EA0308B4FBF2F14FEA184530
:1004500002FB11441FFA87FC45EA044501FB0CF33B
:10046000AB4200FA0EF409D9ED1901F1FF3080F02A
:100470008A80AB4240F2878002393D44EB1A1FFA72
:1004800088F5B3FBF2F002FB103345EA034500FBAD
:100490000CF3AB4207D9ED1900F1FF386FD2AB4234
:1004A0006DD902383D44EB1A40EA01418FE7C1F1B2
:1004B000200722FA07F88B4005FA01F448EA030303
:1004C00020FA07FE4FEA134CFD404EEA040EB5FB3E
:1004D000FCF94FEA1E440CFB19551FFA83F844EA55
:1004E000054509FB08F4AC4202FA01F200FA01FAF0
:1004F00008D9ED1809F1FF3043D2AC4241D9A9F136
:1005000002091D442D1B1FFA8EFEB5FBFCF00CFBEF
:1005100010554EEA054400FB08F8A04507D9E41839
:1005200000F1FF3529D2A04527D902381C4440EA02
:100530000940A4EB0804A0FB02894C45C6464D4681
:1005400015D312D056B1BAEB0E0364EB050404FACE
:1005500007F7CB401F43CC40376074600021BDE8F3
:10056000F0871846F8E69046E0E6C245EAD2B8EBD6
:10057000020E69EB03050138E4E72846D7E7404659
:1005800091E78146BEE7014678E702383C4445E7FB
:10059000084608E7A8F102083D442BE7704700BF72
:1005A0000139034611F8012F0AB91A70704703F890
:1005B000012BF7E70138013910F8013F11F8012F3D
:1005C000934202D1002BF7D11A46981A704770B5A2
:1005D00082B1013A0C46034603D11A782078101AEA
:1005E00070BD1E782578AE4200F1010001F10101D5
:1005F000EFD0F2E7104670BD81EA000313F0030F5D
:1006000070B503460BD0013B0A4491421BD170BD2B
:10061000002AFCD011F8014B03F8014B013A9C076A
:10062000F6D11E1F0D46541B0C44032C06D822F095
:1006300003042144234402F00302E4E755F8044B89
:1006400046F8044FEFE711F8014B03F8014FDCE7E0
:1006500070B5C9B203469C0711D141EA012444EAAE
:1006600004441E46951B1D44032D0ED822F003049E
:10067000234402F003021A44934209D170BD002AB8
:10068000FCD003F8011B013AE5E746F8044BE9E723
:1006900003F8011BF0E743689B6903B118477047F3
:1006A00043685B6A03B11847704743685B68184743
:1006B00038B5084C4FF0FF3120460EF009FD0546D5
:1006C00001F00AFB10B128460EF028FD0FF01AF9D0
:1006D000F0E700BF2457002010B50E480E4C0EF076
:1006E00087FD206090B1FFF7DBFF2068FFF7D3FFA5
:1006F000206843681BB11B6C0BB108499847206800
:1007000043681B6A03B19847002010BD6FF01500C5
:1007100010BD00BF020701000400002055070000C3
:100720002DE9F04107460E4615469846002425B1AE
:100730007B681B6923B94445F9D32046BDE8F081A5
:100740002A463146384698470028F4D02D1A0444EA
:100750000644ECE72DE9F0414F4D504C8AB02F464E
:1007600028684368DB6B7BB1984768B128684368A9
:100770009B6B4BB1984738B128684368DB6A33B943
:1007800038684368DB6983BB0AB0BDE8F0819847ED
:100790000028F5D02668002E4FD1334601220DF1F6
:1007A00003012868FFF7BCFF0128D9D19DF8033069
:1007B000012B1CD0022BE7D104230DEB03011A46B9
:1007C0003868FFF7ADFF002135480EF07BFC064688
:1007D00038B10223042203750DEB020108300EF03C
:1007E000D1FCBDF80630236017E09847CCE703231F
:1007F0001A4601A92868FFF793FF9DF8063029489B
:10080000236031460EF05EFC064630B100230375CE
:10081000032201A908300EF0B5FC234B1E60224EC6
:10082000306850B108300EF0C6FC2368984204D2FC
:1008300030680EF073FC00233360DFF86C80D8F86A
:1008400000307BB93868226843681B69212A28BFB9
:1008500021222BB101A9984723681B1A23607FE747
:100860001846F9E798689989226801440023386896
:10087000FFF756FFD8F8001026688B89361A034414
:100880008B812660002E7FF46BAF08480EF039FC98
:10089000C8F8006064E700BF0400002008000020E2
:1008A0003457002054570020000000202457002017
:1008B000F8B505460F464FF02002EFF3118382F39F
:1008C0001188234C2068FFF7EBFE2068FFF7E3FE5A
:1008D000002D37D02B4600225E1B13F8011B69BB8D
:1008E0001544B61A04212068FFF7DFFEFF212068B7
:1008F000FFF7DBFEB11DC9B22068FFF7D6FEAA21C3
:100900002068FFF7D2FE36B1013D15F8011F2068BF
:10091000D1B9FFF7CAFEF9B22068FFF7C6FEC7F3E8
:1009200007212068FFF7C1FEC7F307412068FFF7E2
:10093000BCFE390E2068FFF7B8FEFEE72F2908BF7E
:100940005A1BC9E72E46CDE7FFF7AFFEDDE700BF34
:10095000040000202DE9F0411C481C4E1C4D86B0BF
:1009600001F0C0F900236FF008020593049303928D
:100970000293019300934FF42072164B16491748C7
:100980000FF078FA4FF0FF3130460EF0A1FB037DF7
:10099000012B04460DD0032B08D102212868FFF754
:1009A00084FE04F10807A3892BB920460EF0B6FB9C
:1009B000E8E70421F2E73846D5F800800EF0F3FBB3
:1009C00001464046FFF771FEEDE700BF14570020D7
:1009D00004000020B1060000183D00200C0000209B
:1009E000054B1B68082B01BF044B1868B0FA80F058
:1009F000400918BF0020704730010010340100107A
:100A000008B54FF02003EFF3118183F31188FFF74E
:100A1000E7FF40B14FF080430022C3F80C21C3F838
:100A20001021C3F83825FFF7DBFF10B1384B394AE6
:100A30001A60FFF7D5FF18B1374BFB22C3F8182512
:100A4000FFF7CEFF48B13548354B02681B6822F0EE
:100A50000F0203F00F0313430360FFF7C1FF18B148
:100A6000304B4FF400721A60FFF7BAFF48B14FF0F5
:100A70008043D3F80024D20744BF6FF00102C3F8CB
:100A800000244FF01023D3F80022002A03DBD3F810
:100A90000432002B2FDA244B0122C3F80425D3F8AB
:100AA0000024002AFBD04FF010221221C2F80012BD
:100AB000D3F80024002AFBD04FF010231222C3F8F1
:100AC0000422194B1A46D3F800140029FBD0002148
:100AD000C3F80415D2F80034002BFBD0BFF34F8FBE
:100AE0001249134BCA6802F4E0621343CB60BFF3B0
:100AF0004F8F00BFFDE70D4B4FF0FF329A62DA6275
:100B00000C4B0D4A1A6081F31188002008BD00BF0C
:100B10008C5600404881030000F00040E40E004085
:100B2000580200104096024000E0014000ED00E055
:100B30000400FA05545400200090D003084881684E
:100B40004A897F2A0BD8C069884208D000B50EF0C8
:100B500021FF5DF804EB03494FF080520A607047B3
:100B60003039002004ED00E0044800232021C218A1
:100B700001332E2B82F80013F9D1704700E100E019
:100B8000084A0949936809685966084918664B6814
:100B900043F080534B60002383F311889368586EB1
:100BA000704700BF30390020500D010000ED00E01B
:100BB0000E498A6828201044EFF3098C80E8F01F62
:100BC0000B4F4FF00066202080F31188CA698A60BD
:100BD0003E60106E0023136680F3118802F1280036
:100BE00090E8F01F8CF3098870470000303900202E
:100BF00004ED00E01EF0040F0CBFEFF30880EFF3EC
:100C00000980816931F8021C11F0FF0101D002292D
:100C100007D0404080F3118804494FF080520A60A9
:100C2000704700B500F03BF900BD000004ED00E0A6
:100C30000B4B9A6AD10612D49A6A12070FD49A6A99
:100C400012F0020F9A6A07D0110608D538B19A6AD5
:100C500022F080029A627047D20758BF9B6A7047A1
:100C600000ED00E00D4B9A6AD20416D49A6A110581
:100C700013D49A6A12F4007F9A6A09D0120404D538
:100C800018B19A6A22F400429A62044B9B6A04E00B
:100C9000510502D49A6AD205F8D5704700ED00E0FC
:100CA000064B9A6A9A6A9A6A9A6A9A6A9A6A9A6AD7
:100CB0006FEA02426FEA12429A62704700ED00E06A
:100CC000184A5368C3F30803033B10B50446032BCB
:100CD0000FD8DFE803F002232520D36A990708D450
:100CE000D36A5B0005D5104B1B7843B10120FFF799
:100CF0009FFF21460020BDE8104000F0D5B80B4B07
:100D00001B781BB10120FFF7ADFFF2E7084B1B88F2
:100D10009BB2002BEDD0FFF7C3FFEAE70020E6E728
:100D20000020F0E700ED00E028ED00E029ED00E014
:100D30002AED00E0024A536943F010035361704703
:100D400000ED00E043B2002B08DB012200F01F00A1
:100D500002FA00F05B09024A42F82300704700BF24
:100D600000E100E043B2002B0DDB01225B0900F043
:100D70001F0002FA00F02033034A42F82300BFF3B9
:100D80004F8FBFF36F8F704700E100E04209054BC2
:100D900000F01F0053F82220012303FA00F0104056
:100DA000704700BF00E100E043B2002BA8BF03F191
:100DB000604301F101014FEA4111ADBF03F5614309
:100DC00000F00F00034BC9B2B6BFC9B283F80013DD
:100DD0001954704714ED00E000F042B808B572B63F
:100DE000044B986918B100229A610EF027FA62B696
:100DF00008BD00BF30390020F8B50C4616461F4626
:100E000004220A9B099905460FF0C2F8A6F12001B9
:100E100021440C4AAC6521F00701002322F00102B5
:100E2000EB642B65EE658A61069A4A60079A8A60D0
:100E3000089ACA600F604FF08072CA61A9642B667D
:100E4000F8BD00BF05FE0000014910220A6070478E
:100E500010ED00E0404080F3118830BF704700BFC4
:100E6000404080F31188DFF81CC0DCF800C01CF49F
:100E7000006C0CBFEFF30880EFF3098000B5FFF7BB
:100E80001FFF00BD04ED00E038B504460D460EF02E
:100E900057FD29462046BDE8384000F005B8014618
:100EA0000068FFF7F1BF0000052808B504D00EF078
:100EB00091FF20B10EF08EFFFFF7CCFFFCE70EF0A4
:100EC00099FF0028F6D1034B9868BDE8084000F070
:100ED00003B800BF3039002038B505464FF0200375
:100EE000EFF3118483F311880EF0E2FF0B4B9B6844
:100EF0009D420DD10A4B5A68C2F3080222B90EF086
:100F000049FD2046FFF73CFE5A6842F080525A6085
:100F10002046BDE838400EF0A1BC00BF30390020AB
:100F200000ED00E000B572B60B4A906900281EBFC4
:100F3000002191610EF082F962B6EFF30580A0F115
:100F400010004FEAC0000549014409C998475DF8FF
:100F500004EBFFF7F3BD000030390020F80000007B
:100F6000202080F3118805484FF40061401880F379
:100F70000988022080F3148800F006B8104A002087
:100F800030BFFFF7FDBF00BF08B5074B074A23F08E
:100F90007F039360BFF34F8FBFF36F8F0EF07EF927
:100FA0000EF086F90EF0A4F90000000000ED00E05C
:100FB00008B5FFF7E5FFBDE80840FFF7BFBD00003B
:100FC000154B16491A6830B50D68C2F307229542D1
:100FD0000FD8002248685A60954200F10C000AD1EF
:100FE00005225A600E4B01221A70BFF34F8FBFF3D8
:100FF0006F8F002030BD50F80C1C50F8044C9A60E4
:1010000021F01F0141F01001114344F00104D960A7
:1010100001321C61E0E700BF90ED00E010540020B9
:10102000740000207047000013B5114CBFF35B8FB4
:101030002068BFF35B8F60B90E480EF0D9F8BFF39C
:101040005B8F54E8003F44E80002002AF9D1BFF367
:101050005B8F436804221B680DEB02019847002850
:1010600002DA00F09FFD0190019802B010BD00BFB0
:10107000780000206107010010B54FF02003EFF366
:10108000118283F31188114C237823B982F31188DC
:101090006FF0440010BD013BDBB2237023B182F33B
:1010A00011886FF00F0010BD094B1878012128B18D
:1010B000217082F311886FF00A0010BD197082F35D
:1010C00011884FF080425160187010BD7E000020E2
:1010D0007D00002008B5002210460121FFF764FEC4
:1010E0000020FFF72FFE002008BD0000F8B54FF0EC
:1010F0002002EFF3118382F31188254A1078441CF3
:10110000147060B183F311884FF08043D3F80C342E
:1011100013F4803F14BF00206FF04300F8BD1D4D55
:101120002F782FB1107083F311886FF00A00F8BD8B
:1011300001262E7083F311884FF0804419B338468E
:10114000FFF710FEC4F80071D4F80433C4F8046348
:101150002660D4F8002192B10022C4F800210E4A82
:1011600013F0010F4FF0010308BFC4F8083300204B
:10117000C2F88031FFF7E6FD00232B70C4E720BFE3
:1011800040BF20BFE5E7C4F800112660F4E700BFC8
:101190007E0000207D00002000E100E0F8B506465A
:1011A0000C464FF02002EFF3118382F311882C4A92
:1011B000157865B183F311884FF08043D3F8183464
:1011C00013F4803F0CBF6FF043000020F8BD0127EF
:1011D000177083F311882846FFF7C4FD4FF0804352
:1011E0000221C3F80451D3F80423C3F80413C3F84D
:1011F00018459F60D3F8041171B39207194F58BF77
:1012000002224FF000014FF00105C3F804114FF026
:10121000000058BFC3F80823C7F88051FFF792FDBC
:101220004FF0804300211822C3F80823C3F80C11A3
:10123000C3F8101114F00301BED11020C3F8380513
:10124000C3F804233046C3F80453FFF74FFF0028C8
:10125000B2D1C7F80051AFE720BF40BF20BFC9E7F8
:101260007C00002000E100E0F8B54FF08043054627
:10127000D3F808E1D3F80423D3F80C44D3F8007171
:10128000D3F80401D3F80C11D3F8106102F0010275
:10129000BEF1000F03D04FF0000EC3F808E127B1F4
:1012A0004FF080430027C3F800713AB1E30341BF18
:1012B0004FF080430122C3F808231A6120B14FF098
:1012C00080430022C3F8042149B14FF0804400213B
:1012D000C4F80C112846FFF7CFFE0123636176B1F5
:1012E0004FF0804300210124C3F810112846C3F8B1
:1012F0000443FFF7FBFE10B9014BC3F80041F8BDF2
:1013000000E100E003689B689A68836810B5DC68B8
:10131000002024FA00F3DB0707D500F5A27352F88A
:101320002330C3F304238B4204D001300828F0D1CA
:101330006FF0120010BD00688068006841B9D0F8F5
:10134000101521FA02F202F001021A600020704723
:10135000D0F81025F9E700688068006849B90121D4
:1013600091401BB1C0F8081500207047C0F80C155B
:10137000FAE7C0F80435F7E710B583683AB11A68A0
:101380000A605A68196002B95960002010BD1868D7
:101390000028FAD081420ED15C68086832B9A142B7
:1013A000186000D1586000230B60EEE7A142106086
:1013B00008BF5A60F7E702460068E9E7F8B5144647
:1013C0000268876892680D469668A1B92146FFF7C2
:1013D00099FF002811DBBA68012303FA04F41443CF
:1013E00000F1400203FA00F0BC6046F82250C6F853
:1013F00004032846F8BD6FF02200F8BDF8B5144686
:101400000268866892680D46976889B92146FFF799
:1014100079FF00280EDBB268012303FA04F403FA13
:1014200000F022EA0404B460C7F808032846F8BDB7
:101430006FF02200F8BD08B5002201210620FFF759
:10144000B3FC0620FFF77EFC002008BDF8B503685A
:1014500006469B68B4689868002213461546012723
:1014600000EB8201D1F800E1BEF1000F08D0C1F815
:101470000051D1F81015C1F3042107FA01F10B4313
:101480000132082AECD1A56806201D40FFF76AFC4E
:10149000246824B90620BDE8F840FFF753BCA368D0
:1014A0001D42F5D063682A46214630469847EFE74B
:1014B0002DE9F8431446026887689268804695686B
:1014C000106819B16FF02200BDE8F88303F4407290
:1014D000B2F5807FC3F30131C3F3813903F4403E99
:1014E00056D0B2F5007F0CBF04220022BEF5803F2B
:1014F00008BF4FF0000E13F0010FDFF8C8C04FEA2D
:10150000810104F5E0764ED00C2A43D14FF0010E54
:101510000EFA04FEC0F808E549445CF8211041F0D9
:1015200003010A4340F8262013F0020047D0990631
:10153000C8D55A063ED413F0040F14BF4FF48036BA
:101540004FF40036F868FEF7A7FE082835D021468C
:101550004046FFF7D7FE0028FB6808DADA4392FA24
:10156000A2F0002AB0FA80F008BF4FF0FF3024024A
:10157000012204F4F854824044F0010400F5A27002
:1015800013433443FB6045F820400020BDE8F88356
:101590000C22ABE7042A02BF4FF0010E0EFA04FE44
:1015A000C0F80CE5B8E749445CF821100A4342EA68
:1015B0000E02B7E74FF44036C4E76FF00400BDE811
:1015C000F88300BF9C07010003689B681B68D3F881
:1015D000082132B10020C3F80801D3F818350B7088
:1015E00070474FF0FF30704703689B681B68C3F873
:1015F0001C15D3F81C21002AFBD00022C3F81C21A3
:101600000846704703689B681B68D3F8240118B12B
:10161000D3F88004C3F8800400F00F00704770B561
:1016200003689B681C6800231E46D8B2151A002D5B
:1016300003DDD4F81C51013305B970BDC4F81C6139
:10164000085CC4F81C05F0E770B503689B681C686B
:1016500000231E46D8B2151A002D03DDD4F8085118
:10166000013305B970BDC4F80861D4F818550D549C
:10167000F0E703689B681A68D2F8043343F08003EC
:10168000C2F80433704703689B681A68D2F80833BD
:1016900043F08003C2F80833704703689B681B68F7
:1016A000D3F81C01704703689B681A68D2F80433AA
:1016B00043F00403C2F80433704703689B681A6858
:1016C000D2F8083343F00403C2F8083370470368C4
:1016D0009B681B68D3F81C01B0FA80F04009704782
:1016E00003689B681B68D3F80801704703689B6810
:1016F0001A68D2F8043343F40073C2F80433704715
:1017000003689B681A68D2F8083343F40073C2F880
:1017100008337047012070478368596070478368B9
:101720005B6803B11847704708B502200022012109
:10173000FFF73AFB0220BDE80840FFF703BB08B5FE
:101740000246FFF7AAFF30B91046FFF7C9FF003085
:1017500018BF012008BD012008BD436810B41C68F3
:101760001346A4460A4610BC0021604770B50368C2
:101770009B68054621481C680DF03AFD40F20112B5
:1017800006460621FFF7E9FF002208213046FFF751
:10179000E4FF0623C4F80C350823C4F8143540F2DE
:1017A000011205213046FFF7D8FF002207213046FD
:1017B000FFF7D3FF0523C4F80835AA6810490723AB
:1017C000C4F810350123C4F86C3511602A6892689A
:1017D00011684FF08050C1F8240500260421C4F898
:1017E0000015C4F81C61C4F80861A3602360054BB0
:1017F0006B60284693689847304670BD0408010026
:1018000040420F00180801002DE9F0418378C478A8
:101810001E1DA3420A4406441FD8E41AE4B2A142A2
:101820003EBF641AE7B20C462344A1EB040128BF73
:101830000027DBB2C9B23444A64209D18370437891
:10184000BB4282BF204B01221A600846BDE8F081EE
:1018500016F8015B02F8015DEEE70578ED1AEDB2CE
:10186000A9423FBF671AED19EFB20D4638BF5B18AA
:10187000A1EB050132BFDBB227460023C9B2964671
:1018800006EB050C664519D1521B0029D6D0002C59
:10189000D4D08C428ABF0B462346641A00F104065A
:1018A000A1EB03018CBFE7B20027C9B2F418A6422E
:1018B000C4D016F8015B02F8015DF8E716F8018B59
:1018C0000EF8018DDEE700BF00D0004030B5D0B18A
:1018D000C27805788478531CDBB2AB4208BF002382
:1018E000A34210D061B10A490244D1F80815117120
:1018F000C3700133DBB29D4208BF0023A34205D071
:101900006FF00F0030BD6FF0360030BD002030BDED
:1019100000D0004070B584680122114620460EF0C8
:1019200063F804F11800012200210EF05DF8042391
:1019300084F831300C23002584F83D300521114B0B
:1019400084F830100D2684F8335084F8325084F82F
:101950003C6084F83F5084F83E50D3F8042542F0B0
:101960000102C3F804250122C3F800513046C3F830
:1019700004231A602A46FFF717FA3046FFF7E2F908
:10198000284670BD00D0004038B5124BD3F8003166
:10199000FBB18568012105F13C00FFF797FF10F1CD
:1019A000100F04460DD010F1370414BF002101219F
:1019B00005F13000FFF78AFF044605F118000EF02C
:1019C0001DF8044B00221034C3F800211CBF012273
:1019D0005A6038BD00D000402DE9F84385680F46B5
:1019E000144605F1180814B92046BDE8F883FF2C09
:1019F000234628BFFF23E41ADEB2A4B205F1300962
:101A00004FF0FF3128460EF059F831463A46484625
:101A1000FFF7FAFE064628460DF0F0FF002EE2D052
:101A20004FF0FF3140460EF049F8E9E7134602480F
:101A30000A461946FFF7E8BECC000020084BC3F861
:101A40004005D3F80435C01A20F07F40054B02381A
:101A5000984282BF044B4FF40032C3F80021704714
:101A600000100140FDFF7F0000E100E010B5124BC7
:101A7000124CD3F804052268801A20F07F40B0F59C
:101A8000A37F11D90E49096840F24713B0FBF3F068
:101A9000884228BF084603FB002323F07F432360CE
:101AA000084B18600EF04CF82068BDE8104000F2BA
:101AB0004710FFF7C3BF00BF00100140E400002043
:101AC000E00000201C560020024B0022C3F84021F9
:101AD000FFF7CCBF0010014046F23543984228BFC3
:101AE0001846054B1860054B1B6840F2471202FB75
:101AF0000030FFF7A3BF00BFE0000020E40000209B
:101B000008B5074B0022C3F84021064B4FF40032C2
:101B1000C3F88021FFF7AAFF034B01221A6008BD1A
:101B20000010014000E100E0E000002070B518481E
:101B30000DF05EFB48B34368164D1B6801219847C2
:101B4000154B00241C60154B01261E6040F2471304
:101B5000C5F80845C5F840354FF48033C5F844331F
:101B6000C5F804330E4BC5F840414FF40032C3F8BA
:101B70008021314622461120FFF716F91120FFF788
:101B8000E1F8AE6020462E6070BD4FF0FF3070BDB2
:101B90008407010000100140E4000020E000002064
:101BA00000E100E030B50B4A0B48D2F80415D0E94B
:101BB0000045D2F8043599420AD1084A40F2471349
:101BC00003FB1413106823F07F4300FB043030BD87
:101BD0001946ECE700100140983C002020560020F8
:101BE00030B585B00446154668460322FEF704FD6D
:101BF0000D2200210DF10300FEF72AFD20466A4662
:101C0000694601F0EBF8044620B9032269462846EC
:101C1000FEF7F2FC204605B030BD13B50C4601AA14
:101C20000331FFF7DDFF48B9032201A92046FEF783
:101C3000CEFCB0FA80F0400902B010BD0020FBE7F6
:101C400070B5CD1C06460C462846032101F0AAF8C3
:101C500060B9637903F03F0343F0400363712246A8
:101C600029463046BDE87040FFF7BABF70BD00009E
:101C7000074A136833B9816839B1C16829B1106066
:101C8000184670476FF0440070476FF015007047BA
:101C90005C3A002010B5044602480DF013FA00B17A
:101CA000047510BD7457002008B5014603480DF0B7
:101CB00009FA08B10123037508BD00BF745700205D
:101CC00008B5034B014618680DF01BFA002008BD4B
:101CD000E8000020FFF7F4BF014B1B68DB681847E2
:101CE0005C3A0020044B054A1B6810600BB19B68EE
:101CF00018476FF0120070475C3A0020E80000209F
:101D0000F7B51860C31D054623F00303501E0E46A9
:101D100080B214461A800021042206FB0050FEF710
:101D200097FC023CA4B24FF6FF77BC4201D103B04E
:101D3000F0BD04FB06602B180422801B0DEB020192
:101D40002844013C0193A4B2FEF756FCEDE773B5BD
:101D50000568064695B1EB1D23F0030304221C8899
:101D600029460DEB0200FEF747FC019B013CA4B2A3
:101D70001BB1DA1D22F0030214803360284602B042
:101D800070BD70B50C6806460D461CB1E31D23F00E
:101D900003031C88042229463046FEF72DFCF21D61
:101DA00022F00302631C13802E6070BD18B107304F
:101DB00020F003000088704702FB01007047401AC2
:101DC00080B2B0FBF2F0704710B5114401384FF605
:101DD000FF73013A92B29A4200D110BD11F8014D41
:101DE00000F8014FF5E70144884201D10020704717
:101DF00010F8013B002BF7D00120704710600860FD
:101E0000704710B51468206014686160106010BDE0
:101E1000884203D01AB143681360704700207047AE
:101E20000B68834209D022B1586810601A680A60B2
:101E300001E0002BFAD1184670470023FBE70000B1
:101E40002DE9F047114FDFF848900426013EF6B225
:101E5000FF2E19D033B24FEA830803EB43031D0171
:101E600004244FF00C0A0AE01AFB04510A1D04EB8B
:101E700008003A44394409EBC000FFF7BFFF013CBA
:101E8000E4B2FF2CF0D1E1E7BDE8F0876C0100205F
:101E9000EC000020F0B4124B05460F460C2630240F
:101EA00072B1614306FB00142344597A187A8142C7
:101EB00004BF0131197228463946F0BC0CF0C4BF8A
:101EC0004C4306FB004423449C7ADA7AA24204D1B4
:101ED00001329A72F0BC0CF0F1BFF0BC704700BF49
:101EE0006C010020F8B505460E461C468AB1012358
:101EF00062782078801A10F0030729D003B3012FED
:101F000039D00132D2B22270314628460CF0D6FFC9
:101F10001CE00CF0C1FF0028E9D0314628460CF047
:101F2000A7FF0028E3D030230C22734302FB0533C4
:101F3000124A1A44937AD27A9B1A18BF0123D7E720
:101F40000232D2B22270E368A06898470020F8BD40
:101F5000002BF8D00132D2B222700423302212FBBF
:101F600006320C2313FB0523044A60681A442146F9
:101F7000FFF747FFC8E73846F8BD00BF6C010020F7
:101F80002DE9F04F00EB400389B01B014FF0000832
:101F9000434E049305460424CDF80480013CE4B28A
:101FA000FF2C0BD1019B002B76D0B8F1000F73D121
:101FB0004246294628460CF047FF6DE00DF1200B04
:101FC00000230C274BF8043D4FF0300907FB04F3C6
:101FD00009FB053031185A46496830580293FFF71B
:101FE00017FF049B17FB0437F31982460393BAF1DA
:101FF000000F19D130220C236A4303FB0422324420
:10200000917AD07A88421EBFD17201220192302289
:102010006A4303FB042333441A7A597A91421CBF62
:102020005A724FF00108B9E7079B1F785A78BF1A18
:1020300007F00307012F04D1013A5A709868DA6853
:102040009047079A13785278DBB29A1A02F003028B
:10205000012A05930DD0029B039909FB05303044FA
:1020600000224068FFF7DCFE079A059BC2F804A037
:102070005370029B09FB0533F1185A464968F05822
:10208000FFF7C6FE012F8246B1D10CB90028B1D0AE
:10209000294628460CF012FF09B0BDE8F08F00BFBA
:1020A0006C01002010B5421E00200139C9B2FF2981
:1020B00000D110BD12F8013F002BF6D05C1E01309C
:1020C0002340C0B2F8E7F0B5437F05681A46002404
:1020D000FF2A01D10020F0BD02EB82078A4205EB06
:1020E000C70615F8377004D0B3681C4413463A4647
:1020F000EEE7934200D147771BB203EB83033278BC
:10210000B06805F833203378FF2B06D003EB830348
:1021100005EBC3039A6802449A602044F0BD30B5D1
:10212000551A15F4000F8368446909D125F07F42E0
:102130001A44A2420ED9121B00248260446130BDB1
:102140008A1A22F07F42934201D99A1AF1E7224477
:10215000D41A0022A41A0022EFE7034600221A70C4
:102160009A6A596208460AB1D96A104770472DE940
:10217000F047857F01230446C377002D4CD1437F70
:10218000FF2B02D1C577BDE8F0870CF0DDF8676959
:10219000667FD4F80080C71B27F07F47FF2E06D04C
:1021A00006EB860608EBC6018B689F4218D2A27A1E
:1021B000E37A934205D10133DBB2022B08BF00233F
:1021C000E372E37A04EB83030122DD600023656A96
:1021D000E377AC46234604210320BDE8F04760477F
:1021E000FF1A1D448A784B7818F836609B1ADBB2C8
:1021F000012BD3D1D1F80C90013A8A70B9F1000FBC
:10220000CCD048696369CA8B281A184420F07F40F3
:102210000B69496AC847C1E7BDE8F0872DE9F04F6F
:10222000C27F93B08346002A40F0BA834369059386
:102230000121837A8177C07A984200F08F800B4425
:10224000DBB2022B08BF00238BF80A300BEB8303B1
:102250000191D3F80C80059B434423F07F43CBF8D6
:1022600014309BF81D300393DBF800300493DBF847
:1022700004300B939BF80930013BDBB2029300233F
:1022800007934FF0FF0A029BFF2B6AD19BF81D308A
:10229000039A9B1A18BF01230293019BE3B1DBF859
:1022A000003004934FF000099BF81D60FF2E0CD006
:1022B00037B2049B07EB870703EBC704A5684545C6
:1022C00040F23681A5EB0805A560029B019A0399AF
:1022D000B14218BF13460293DBF800300893DBF8D5
:1022E000043010939BF80930013BDBB20193019B52
:1022F000FF2B40F070819BF81D30039A9342079B9F
:1023000040F045835BB99BF80940DBF8043001934A
:10231000013CE4B24FF00008FF2C40F0A082002303
:102320008BF81E30029B4BB19BF81D30FF2B40F009
:10233000E9820BF0EFFF08B9CBF818009BF81F30CB
:10234000002B00F02D83DBF824405B4601220321A3
:102350000420A44613B0BDE8F04F604701929046B8
:102360007FE70B9B029A03EBC2077B680693F97821
:10237000BE788E4200F0D780069B387806EB460286
:1023800012019D18731CDBB2984208BF0023BB707A
:10239000069B9A5C032AEBD9052A17D8697801EBCA
:1023A00081030A930A98049B03EBC0046378A07826
:1023B0001B1A13F0FF0309D0042A0CD16A6852B922
:1023C000AA6842B9EA6832F07F4204D10121284666
:1023D000FFF7C3FECBE7012B40F09B805846FFF789
:1023E00072FE2B78A060042B064640F08480DBF858
:1023F000143008930BF0A8FF089B0990C31A23F030
:102400007F4343449E4202469EBF6269921B9B18D3
:10241000626896BF6361F31A00238AB1A98979B112
:1024200001F1FF3E1FFA8EFEA5F80CE09A422BD375
:10243000DFF82493B4F81EC0E64547D8A4F81CE0A2
:10244000AA8808991344A360EA8863691344636106
:10245000099A2046FFF763FEA2692B891344A36102
:102460006A8993428CBF9B1A0023A361AB7B03B1A3
:10247000E370049B0A9A03F832A0637895F801A0F0
:10248000013363700021A2E7B4F81EC0E645CFD245
:10249000616AAF4EAF488E19864281BF01F1E87183
:1024A00001F5D43101F5A5716162666A216A8CBFBC
:1024B0004FF001094FF00009761A91440CF1FF3CEE
:1024C0006662A3EB0903A4F81EC0AFE7666A216A3F
:1024D000A0480E449E49711881428EBF00210121FF
:1024E0004E4411440CF1010C8CBF666266620B44D1
:1024F000A4F81EC09EE7A37863706B789BF81C203D
:102500009A4201BFFF238BF81C300023CBF8183010
:10251000B8E704215B46DBF8244001220846A047C7
:102520000123BE700793029B013BDBB20293AAE634
:10253000DBF818309D4229BFFF235B1B8BF81C3052
:102540000023CBF81830A369A9441BB18BF81C6099
:10255000CBF818300022049BA26013F837308BF8B8
:102560001D30D4F804E0BEF1000F30D0A08BDFF8AE
:10257000E4C1636A216A0B447549591861459FBFDC
:10258000A3F1E873A3F5D433A3F5A573636292BFF7
:10259000019B63620023734410F1FF301A44E8D2B8
:1025A000059BA260DBF8141003EB09022046FFF73D
:1025B000B6FDA38BE3830023E370049B03F837A0ED
:1025C000637801336370A8EB0508B2466CE6A37824
:1025D00063705646F7E7109B019A03EBC20304931E
:1025E0005B680A93049B93F80190BAF1FF0F00F027
:1025F0008E800FFA8AF303EB8303089AD04612F811
:1026000033A002EBC3040025DBF800300B93FF235B
:10261000A28B2370E38B934286BF9B1A9BB200234D
:102620000C930FFA88F303EB8303DB001193119BE8
:10263000DBF80020DBF81800059002EB030EFF200A
:102640009BF81D30DEF8081009930690FF2B07D089
:1026500003EB830C02EBCC06B068814200F2A98048
:10266000DEF818000D9001EB000C1E46FF2E40F026
:10267000AE800D9830B105988142C0F0BF80FF2E2A
:1026800040F08A810998CEF80810834218BFBDF93E
:1026900024008EF8003016BF00EB80008BF81D8000
:1026A00002F83080FF2B06D003EB830302EBC30359
:1026B0009A68511A9960A378013363700021002D44
:1026C00093D02846FFF749FD8FE709EB49030A9AA3
:1026D0001B01D51809F101025FFA82F9049A1278F8
:1026E0004A4508BF4FF000090A9AD35C032B0ED16C
:1026F00095F80180089B08EB880403EBC40462781A
:10270000A3789A4209D001212846FFF726FD049BB1
:102710009B784B45D9D1019BE6E5EB68DBF81410BB
:1027200063602B692362AB8AA383AB69A361EB6906
:10273000E3602B6A23610026AB68A36066616A6868
:102740002046FFF7ECFC01236662E683E3705BE75B
:102750005A2B17FF592B177FB6562EFE606800289C
:102760007BD0626A216A904B0A449049D3188B420D
:102770009CBFA2F1E872A2F5D432A3688BBF62625B
:10278000A2F5A57200226262034498BF012213449D
:10279000E28BA3600132E283626993424FF0000151
:1027A00089BF9B1AD31AA36061619CBF6361A1605A
:1027B0003DE7B669091A46B9059FB84200D23E1AEC
:1027C0000993059612F83C3040E70693F8E730B2DB
:1027D00000EB800002EBC0070E97BF680F976745BC
:1027E0000AD20E9FBF69002F7FF443AF0F9EACEB60
:1027F000060C12F8306039E7FF263AE7069B984549
:102800003FF459AF069BFF2BA8D01E4633B203EB13
:1028100083030593059A0B9B03EBC207FB8BBA8BD3
:10282000934288BF9B1A7A688CBF9BB20023002A10
:1028300094D00C9A934291D8FA78E3789A428DD248
:1028400031465846FFF73FFCBB787B70059A0B9BDF
:10285000B86003F832A0B246E9E601212FE7019BF8
:1028600003EBC4056E686B78EA789A4202D1013CAA
:10287000E4B251E503EB43031B01F218F35C012BB7
:1028800025D0022B2AD1D2F804C093689CF800000E
:10289000D2F80C90DBF800E0FF2804D01968DBF8D0
:1028A0001470B94223D0DBF814009BF81D10186097
:1028B0000023FF2907D001EB810A0EEBCA008769CC
:1028C0008068DFB103448CF80010C9F80030936AC7
:1028D000C2F8248013B1D16A002098476B782A7817
:1028E0000133DBB29A4208BF00236B70BBE700EBF9
:1028F0008000D9F800301EF83010DAE703441EF8E3
:102900003A10D6E7039BFF2B07D10BF01DFD0446C1
:102910000BF0F2FC08B9CBF814409BF81D30DBF843
:102920000020234E03EB830302EBC3030A279D68B9
:102930000BF00AFDDBF81440031B23F07F43033345
:10294000AB422CBFE418641924F07F448046DBF8C6
:102950002830204698470BF0F7FCA0EB080020F049
:102960007F40A4EB0804033024F07F44A04207F129
:10297000FF377FF6E3AC002FDAD140F20541304655
:10298000FDF796FFD4E700238BF81E30CCE4002B34
:10299000F9D101230293B6E4B0457FF437AF8AE65C
:1029A00013B0BDE8F08F00BF5A2B17FF592B177FCC
:1029B0007C080100F0B51A4D059F9DF818402C26A3
:1029C000464305EB060EAA518EF8081007998EF8BB
:1029D0000930CEF80470013BDBB2FF2B11D1ECB90A
:1029E0002C2202FB005208991162099951620A993E
:1029F000916253771377946154619472D472204634
:102A0000F0BD1AB207EBC206716017F8322002EB74
:102A10004206A41A01EB0611E4B2DCE70120F0BD86
:102A20002C020020074A2C2100FB012310B45C6A11
:102A30002CB1A44601220321022010BC604710BC27
:102A4000704700BF2C0200202DE9F047254F4FF0C2
:102A50002C08814608FB00700FFA81FCD0F804E0D6
:102A60000EEBCC061EF83CE0F478651CEDB2AE45EA
:102A700098BF002596F801E0AE452FD0D6F804C0E7
:102A800004EB44044FEA041E0CEB0E044FF0030A5F
:102A90000CF80EA06360089BA360099BE3600A9B8F
:102AA00023610C9BA361BDF82C30A3820D9BE361D5
:102AB0000E9B2362022363620F9BA362109B6270D2
:102AC000E362F570456A036A0846984709FB087394
:102AD00000220421A847606ABDE8F0870120BDE814
:102AE000F08700BF2C0200202DE9F047DFF890802E
:102AF0004FF02C0A0AFB008E0FB2DEF8045081461C
:102B000005EBC70015F83750C478661CF6B2B5421D
:102B100098BF00264578B5422FD0D0F804C004EB0A
:102B2000440425010CEB050404270CF80570A38070
:102B3000BDF82030E380BDF824302381BDF8283073
:102B40006381BDF82C30A3819DF83030A37302233C
:102B500063620D9BA3620E9B6270E362C670DEF837
:102B60002030DEF824500846984709FB0A830022EB
:102B70003946A847606ABDE8F0870120BDE8F087C4
:102B80002C0200202DE9F047DFF86C904FF02C0A62
:102B90000AFB009E8046DEF804000EB200EBC6077A
:102BA00010F83600FC78651CEDB2A84298BF0025ED
:102BB0007878A8421DD0786804EB440424010619F3
:102BC0004FF0050C00F804C07270B3620222089B3B
:102BD0007262F362FD70DEF82030DEF824400846B1
:102BE000984708FB0A9300220421A047706ABDE8B9
:102BF000F0870120BDE8F0872C0200202DE9F04786
:102C0000DFF878804FF02C0A81460AFB00800FFA2B
:102C100081FE456805EBCE0715F83E50FC78661C32
:102C2000F6B2B54298BF00267D78B54223D0D7F8DA
:102C300004C004EB440425010CEB05044FF0020E24
:102C40000CF805E0A360089BE360099BA362FF25E5
:102C50000A9B62606570C4F824E0E362FE70456A16
:102C6000036A0846984709FB0A8300220421A84703
:102C7000606ABDE8F0870120BDE8F0872C020020E3
:102C80002DE9F047DFF86C904FF02C0A0AFB009E0C
:102C90008046DEF804000EB200EBC60710F83600DE
:102CA000FC78651CEDB2A84298BF00257878A84250
:102CB0001DD0786804EB4404240106194FF0010C80
:102CC00000F804C0FF20707002207062B262F362EC
:102CD000FD70DEF82030DEF824400846984708FBF7
:102CE0000A9300220421A047706ABDE8F087012002
:102CF000BDE8F0872C0200202DE9F041084C2C257E
:102D000005FB004306465F6A1B6A0846984706FBB8
:102D10000543BC4600220421BDE8F041604700BFE6
:102D20002C0200200BF010BB401A20F07F407047AF
:102D300008B50346012B08460ED833B119B1062257
:102D40000649FDF759FC054808BD19B1062204499A
:102D5000FDF752FC024808BD002008BD8A02002091
:102D60008402002070B506460D4608F03FFC04467C
:102D700010B10C24204670BD08F04EFC10F0060F78
:102D8000F7D1062229461EB10248FDF735FCF1E7CE
:102D90000148FAE78A020020840200200023037021
:102DA0000B707047F7B507460E460C46351B3D4481
:102DB0008CB1FEF739F9032C019007D904220DEBF1
:102DC00002012846FDF718FC043CEFE7224601A962
:102DD0002846FDF711FC002003B0F0BD08B5002324
:102DE0000BF0E6FA002008BD08B50248FEF740FFE8
:102DF000002008BDBC08010037B583890546D3B162
:102E0000037D8BB1022B16D101A901F035FB0446DD
:102E1000019808B1FEF75EFF1CB928460CF07EF958
:102E20000024204603B030BD00F02AFD0028F4D075
:102E3000FEF750FFF1E76FF01504F2E713B50190CC
:102E4000081E03DB022807DD032822D08A2116484A
:102E5000FDF72EFD00240DE001280EBF00214FF0EC
:102E6000FF310120FEF716FF044618B10146019814
:102E700001F0B8FB019B0021D88809F051F802A8A5
:102E8000002250F8043D1A6008F0E6FF204602B028
:102E900010BD4FF0FF31FEF7FDFE044601460198DC
:102EA00001F048FBE6E700BFCC080100F7B5144D80
:102EB000144E0DF1020101A808F096FF044640B936
:102EC000019BBBB109F02EFD019930460CF04BFB84
:102ED000EFE74FF0FF310120FEF7DCFE2246074608
:102EE000BDF8021001F092FD3846FEF7F3FE0CF03B
:102EF00009FDDEE74FF0FF3128460CF0DFFDD8E793
:102F0000EC56002004570020044B186828B159687B
:102F100002681A60884208BF5A6070479402002015
:102F20002DE9F74F6A4E37464FF0FF320221304607
:102F30000DF0AEFA20B14FF498716648FDF7B8FC79
:102F4000737B03F0F003102B05D1326900239360EB
:102F50004FF000090AE096F8213003F0F003402B0F
:102F6000F6D10021706A0CF022FB81467A7B6FF368
:102F700007127A7397F821206FF3071287F8212040
:102F8000554A1568554ABFF35B8F52E8001F21F080
:102F9000010342E800300028F7D1BFF35B8FCA0776
:102FA00048BF4F4A4F4C42BF002111605160002D75
:102FB00006DC4FF0FF322260B9F1000F21D16DE045
:102FC000DFF828B1DFF828A1DBF80020444BDAF85D
:102FD00000101B680193AA1A0A442260002BEBD050
:102FE000184601F027FD8046B9F1000F18D00228DD
:102FF00003D0032805D122681AB100213A480DF008
:10300000FDFA484601F016FD21684B1C05464CD0E0
:10301000334A1068032D53D8DFE805F0474734439F
:10302000022808D0032804D0FC212A48FDF740FCE0
:1030300003E0236893B3FFF767FF41460198FFF76A
:10304000FDFEDBF80030ED1ADAF800301D44244BA9
:1030500025608146186858B101F0ECFC022803D0C5
:10306000032805D123681BB100211F480DF0C6FAC3
:10307000B9F1000F12D0B9F80C3048462BB3FEF767
:103080001FFE0BE00121216078B10021C9F800107A
:10309000516881B9C2F80490C2F800900CF032FC7B
:1030A00042E70028F1D10029EFD048462946FFF732
:1030B000C5FE8146DCE7C1F80090C2F80490EDE758
:1030C000B3210448FDF7F4FBEFE70CF027F8E5E740
:1030D00060540020CC080100503B0020583B0020E9
:1030E000940200209002002088540020543B0020CD
:1030F0005C3B002010B5154886B009F0D1FC0446B1
:1031000000BB134801F0AEFC6FF0090303934FF4CA
:10311000E072104B104905940494029401940094B9
:103120000E480CF0A7FE6FF0070303930594049478
:103130000294019400940A4B0A490B484FF4007220
:103140000CF098FE204606B010BD00BFEC560020E3
:1031500088540020AD2E000010430020C83A002003
:10316000212F0000D0440020603A0020C0F3072344
:103170000870000C8870000A4B70C870704738B532
:1031800008300D46022114460BF0F6FF057044701E
:1031900038BD000038B505464FF0FF30FEF784FD1E
:1031A000042204460F21FFF7EAFF042104F108007E
:1031B0000BF0E2FF01234370024B05701B88438034
:1031C000204638BD9C02002070B5044615460132E9
:1031D0000E460834D2B23E21FFF7D1FF012120462E
:1031E0000BF0CAFF067029462046BDE870400BF080
:1031F000C3BF000038B504464FF0FF300D46FEF760
:1032000053FDEA1C2060D2B20E21FFF7B8FF206800
:10321000032108300BF0B0FF01230370054B1B881E
:10322000A0F80130206829460830BDE838400BF08E
:10323000A3BF00BF9C0200202DE9F04F85B0012301
:103240008DF8093003238DF80A30FF238DF80B30F9
:103250008DF80D3002238DF80E30437888464344B4
:10326000044693F80BA003789346002104225806E5
:103270008DF808108DF80C2004D5A31C5246084682
:103280000AF048FF754BD3E90023002203F00053F6
:10329000134300F09F80637843441D7B704BD3E958
:1032A0000023002D38D102F002020023134300F066
:1032B00091806C4F3B68002B50DBDFF8B891002603
:1032C000A31C3A6896422ADB674EDFF8A09130686B
:1032D00009EBC000194606220230FDF78DF932686D
:1032E000237809EBC201C3F380134B70237803F0FA
:1032F0000F0101238B40396809F832300F29D5BFFF
:1033000001310132316032603268D8BF3960102A31
:1033100024D10022326021E002F00B02C5E71846FA
:10332000062249460193FDF752F9019BF0B9217835
:1033300019F8010C0A46C1F38011814216D14B489D
:1033400010F8363002F00F0223FA02F1C90741D417
:10335000012101FA02F2134300F836302378627833
:1033600003F00F03012B05D1002605E0013609F11A
:103370000809A6E7961FF6B2424404F10809977AB5
:103380007F427FB29DB3012B04D040F6D401384870
:10339000FDF78EFA11220B215846FFF715FF012386
:1033A0000370437005460AF08BFD824505F103006A
:1033B00013D20246A91C50460AF08EFBAB780233AA
:1033C000AB7001236B720622494605F10A00FDF736
:1033D00013F92F7405B0BDE8F08F2146062211F8CD
:1033E000023BC3F38013AB70FDF706F9E9E706F182
:1033F0000B02D2B202215846FFF7E6FE012303700A
:10340000237804AA03F00F031344054613F8083C7D
:1034100043706378984498F80B800AF051FD80451A
:1034200005F1030010D20246A91C40460AF054FBE5
:10343000AB780233AB706E720A3532464946284685
:10344000FDF7DAF8AF55C5E72146062211F8023B31
:10345000C3F38013AB70FDF7CFF8ECE7985400206E
:10346000A0540020A4020020A8020020AC020020EA
:103470006B090100AE0200200E4B70B51546D3E972
:103480000023002302F08002134304460E4610D0AE
:10349000042208212846FFF772FE042105F10800E6
:1034A0000BF06AFEB4FA84F35B090470A0F80160C3
:1034B000C37070BD9854002070B504461846134B75
:1034C0001646D3E90023002203F0005313430D46B0
:1034D0001BD00F4BD3E90023002302F00802134353
:1034E00013D00B220421FFF76FFE08220470A0F80E
:1034F0000160033024B9291DBDE87040FDF77CB898
:103500000021BDE87040FDF7A3B870BD98540020BD
:10351000A0540020F0B58BB00024037AB0F803204B
:1035200006780D46B0F801100994477D0897077D8D
:103530000797C77C0697877C05970494047C0394BF
:10354000C479029400F10A040194407A0090304654
:1035500009F032FB022104462846FFF74BFE0470B7
:103560000BB0F0BD38B500780D4609F0A3FD012180
:1035700004462846FFF73EFE002C0CBF00230C2318
:10358000037038BD2DE9F84F05461846464B1646E0
:10359000D3E9002340F201284FF0000902F4007A39
:1035A00003EA090302EA080213430C464FF0000B3A
:1035B00077D0002D50D13D4A1368013313605AEA89
:1035C0000B0301F1030851D112220121FFF7FCFD89
:1035D0000570A0F801606378C370A3780371074693
:1035E000062241460530FDF707F8E38AA7F80B30BD
:1035F000238BA7F80D30638BA7F80F30237F7B74E4
:10360000BDE8F88F1E220A21FFF7DEFD1E220446C8
:103610000021FDF71DF82570BDE8F88F637D03F0EC
:10362000C003402B38D1062204F11001FCF7E4FF5F
:10363000062204F1090107F11100FCF7DDFFE38A1E
:10364000A7F81730238BA7F81930638BA7F81B3026
:10365000237F7B77BDE8F88F5AEA0B03D2D1122281
:103660000121FFF7B1FD12220446D1E71E220A21F3
:10367000FFF7AAFD0570A0F801606378C370A37816
:1036800003710746062241460530FCF7B5FFE37B90
:1036900007F10B00002BC1D106220021FCF7D8FF57
:1036A000C6E7BDE8F88F00BFA0540020A0020020AC
:1036B0001FB5032807D8DFE800F0020A0C0E0749FF
:1036C00001A8FCF76DFF002005B05DF804FB04497C
:1036D000F6E70449F4E70449F2E700BF21090100D5
:1036E000280901002F0901003909010003782DE99B
:1036F000F341164603F00F02072A04465BD14278D5
:10370000002A58D08078800652D01144E2788F7A0F
:10371000D10704F104050FD5C3F38013294606220F
:103720000DF101008DF80030FCF766FF9DF80000F8
:1037300004F10A05FFF7BCFFE3789A0748BF063596
:10374000180748BF0235D90648BF03355A06A27884
:10375000C2F305036278A2EB0302D2B202F1FF3892
:1037600002F118023046D2B24FF00D0148BF0135C8
:10377000FFF72AFD01230370E378DB075FFA88F87F
:10378000064608D59DF80030837006220DF1010130
:103790000330FCF731FF0723737086F81780183663
:1037A0004246294630467F42FCF726FF06F808705D
:1037B00002B0BDE8F08132462046FFF73DFDF7E755
:1037C000F8B5224B4FF0FF321A60214B4FF0FF3615
:1037D00041F6FF77C3E900671E4B00260027C3E9C7
:1037E00000671D4B1F2600270C46C3E900670546EE
:1037F00038B107F09FFE01212046FFF7FBFC0023B4
:103800000370164B164800241C60164B1C60164BA8
:10381000202221461C60FCF71BFF144B1C609DB14D
:10382000BFF35B8F124B53E8002F42F0010243E8D5
:1038300000210029F7D1BFF35B8F0E4B214618689A
:10384000BDE8F8400CF0DABEF8BD00BFA4020020CD
:103850009854002030030020A0540020503B00204A
:10386000303B0020543B00205C3B0020A0020020A5
:10387000583B002038030020034600685968704711
:10388000F0B5818993B0002502290446079502D836
:10389000002013B0F0BD8368B24E1A7858789B7838
:1038A00042EA00228B423280F2D8032104F1080060
:1038B0000BF071FC3388C3F309029B0A042B00F060
:1038C000228109D8012B27D0032B3CD0012107A846
:1038D000FFF790FC01235DE0082B00F0CA813F2B2D
:1038E000F4D1013A092AF1D801A353F822F000BF1C
:1038F0008F420000BF420000E9420000CD380000C6
:10390000CD3800002F430000CD38000001430000F7
:103910003B430000A9430000062A06D01D2AD5D14A
:10392000A368188808F074F904E0A36899781888E7
:1039300008F082F9002814BF0C200020FFF72AFCB1
:1039400007900798A5E7332A00F08A8024D8032A35
:1039500046D00DD8012AB9D1A068FFF78DFF824B60
:10396000C3E90001012107A8FFF744FC002311E08F
:103970002D2A46D0312AA9D1A3687C4C1D7801217B
:1039800007A8FFF737FC23681BB1794A1268002AA1
:103990004DD00C230370D4E7632A26D00AD8352AE9
:1039A00094D1724B1B68002B6BDC012107A8FFF739
:1039B00021FCEEE77B2A00F08F807C2A86D1A36869
:1039C0001C885988A0B208F069F90546032107A8A8
:1039D000FFF710FC002D14BF0C23002303702EE30F
:1039E00007A92046FFF7ECFEABE7A068FFF744FF0E
:1039F000604BC3E90001012107A8FFF7FBFB05703D
:103A00009FE7A368042107A81D889F78FFF7F2FBB2
:103A1000AEB20446C21C3946304608F021F90028EF
:103A200014BF022300232370A4F8015089E7027019
:103A30001DB1012D10D01223ACE7002B81DB4E4BC2
:103A40004E48002119604E4B20221960FCF700FE01
:103A500023685B42236074E7002B3FF772AFEEE709
:103A6000A368012107A8B3F803401D88FFF7C2FB34
:103A70003E4B1A68002A8CD11A2DDCD964421C6096
:103A80005FE73B4B1B68E3B1A5683C4E2F780023F2
:103A90001946BB4209DB3A4A13680B441360394BA1
:103AA000002118680CF0AAFD4BE705EB8302B2F881
:103AB0000140B2F803000F2C03D836F814209042CE
:103AC00004D9012107A8FFF795FBB4E7121A26F8DD
:103AD000142001440133DCE7A3681C8808A9A0B2C4
:103AE00008F0C8F80521054607A8FFF783FB002D5D
:103AF00014BF0C2300230370A0F80140BDF8203050
:103B0000A0F803301DE7013A082A3FF6DFAE01A313
:103B100053F822F0393B0000893B00003F3C000095
:103B2000CD380000CD380000CD380000CD38000081
:103B3000CD3800005B3C0000092107A8FFF75AFBC5
:103B4000002303708370C3706FF00E03437105236D
:103B5000092283714FF0FF3342700271C371037207
:103B6000EFE600BF9C02002098540020503B00204C
:103B7000A002002030030020543B0020303B0020F6
:103B80005C3B002038030020412107A8FFF732FBEF
:103B900000210446402200F8011BFCF759FDE378A0
:103BA00094F82720617F94F8210063F07F03E3708D
:103BB000A37963F03F03A371E37A63F01B03E3721D
:103BC000E37B43F02803E373237C43F00203237475
:103BD00062F07F02E37D84F82720627843F00403DB
:103BE000E37542F02002A37E627094F8222063F015
:103BF0000803A37662F00F0294F8263084F822209E
:103C000094F8232043F0600384F8263040F030001D
:103C1000FF2341F07F0162F00602E376237784F808
:103C20002100617784F8253084F8232084F824303B
:103C300094F8283043F0040384F8283081E6092101
:103C400007A8FFF7D7FA00210446082200F8011B55
:103C5000FCF7FEFC6023637173E6072107A8FFF7FA
:103C6000C9FA0146002301F8013B1846FFF760F846
:103C700067E6013A4D2A3FF629AE01A353F822F038
:103C8000B93D0000C33D0000DB3D0000CD38000021
:103C9000FF3D0000A53E000097430000AF3E00003E
:103CA000BB3E0000C73E0000D13E0000FD3E0000CC
:103CB0001D3F0000473F00000B3E0000213E00007A
:103CC000333E00003B3E000001400000A73F0000E3
:103CD000DD3F0000F73F0000433E0000693E00006A
:103CE000AF3F0000C33F0000D33F00007F3E000015
:103CF0004542000053420000634200001B400000A8
:103D00004540000053400000634000007B4000003D
:103D1000CD380000CD3800008B41000099410000F3
:103D2000A1410000B1410000C3410000E141000099
:103D3000FF4100001542000097400000C140000014
:103D40001741000035410000814200008942000017
:103D5000CD380000A53E0000AF3E0000BB3E000095
:103D6000C73E0000CD380000CD380000CD3800003F
:103D7000CD380000CD380000CD380000CD3800002F
:103D8000CD380000CD380000CD380000CD3800001F
:103D9000CD380000CD380000CD380000CD3800000F
:103DA000CD380000CD3800002B420000CD38000097
:103DB000CD38000021420000A068FFF75DFDBC4B3C
:103DC000CEE5042107A8FFF715FA002303701B2294
:103DD000837007234270C370B3E5092107A8FFF77A
:103DE00009FA00210446082200F8011BFCF730FC08
:103DF000FF2363704923A3700123E370A1E5A16849
:103E00000120FEF7AFFF0446C5E0022107A8FFF737
:103E1000F1F900230370044609F02AFD607090E573
:103E2000012107A8FFF7E6F9044609F023FD2070F9
:103E300087E5A06809F0D4FDE5E7A06809F03AFD40
:103E4000E1E7A068002308AA00F110010AF0B0FA27
:103E5000112107A8FFF7CEF9002300F8013B10223B
:103E600008A9FCF7C9FB6CE5092107A8FFF7C2F90F
:103E7000002300F8013B0821FEF794FF61E50921CA
:103E800007A8FFF7B7F901460023024601F8013BF6
:103E90006FF44000FFF76AF940F2FF30511DFFF761
:103EA00065F94EE507A9A068FFF734FB49E5A3686B
:103EB000591C187809F050F854E5A368591C187873
:103EC00009F0B6F84EE507A9A068FFF74BFB38E507
:103ED000A4686379B4F80320B4F801102078A479B9
:103EE000009409F063F90446012107A8FFF782F95D
:103EF000002C18BF0C2308BF00234BE5A2686D4BB4
:103F0000107840B1527832B100221A606A4B1A60C0
:103F100009F070F9E7E74FF0FF32F8E7A468B4F86A
:103F2000135063792279618820880495B4F8115080
:103F30000395B4F80F500295257B01950634009443
:103F400009F092F9F6E408F0E3FC064648BB4FF0AE
:103F5000FF310120FDF79EFE584A0790D2E9004547
:103F6000002405F0005554EA0502034604D0324609
:103F700031460220FFF706FB079884894CB10121E6
:103F800008A8FFF737F9002303700898FDF7A2FE91
:103F9000D7E40BF0C3F8012107A8FFF72BF9047051
:103FA000CFE40C24F7E7A06807F084FD9BE7A06846
:103FB00000F10C0300F10A02811C008808F04EF8A1
:103FC000B8E4A26832F8024B0021A0B207F0C9FDA4
:103FD000FBE4A36800221C880621F6E7A3680821F9
:103FE00007A81D88FFF706F9AEB20446C11C30468B
:103FF00007F0A2FD13E5A368188807F0F5FD99E422
:10400000A2681189938810880191D28800920022B9
:10401000114607F0D7FCC0B290E4A2681189148859
:1040200093880191D288009200220221A0B207F069
:10403000C9FC0321054607A8FFF7DCF80570A0F8C6
:1040400001407EE4A3681C889A78002301930093C2
:10405000EBE7A3681C889A885988A0B207F034FE61
:10406000B3E4052107A8FFF7C5F80446C11C0130D9
:1040700007F04EFE0023237063E4A3685988188874
:1040800007F050FE0446012107A8FFF7B3F8002C03
:1040900018BF1E232FE7092107A8FFF7ABF8044636
:1040A000C31D421DC11C013007F046FEE2E700BF00
:1040B000A0540020A4020020A80200209854002050
:1040C000A368052107A81D88FFF794F8AEB204463F
:1040D000021DC11C304607F038FEE278A4F80150FA
:1040E000002814BF0C2300232370002A92FAA2F3A5
:1040F000B3FA83F3227908BF4FF0FF330133E37043
:10410000002A92FAA2F3B3FA83F308BF4FF0FF3309
:104110000133237115E4A3681A78D10744BF07213E
:104120005970920744BF07229A709978587807F01F
:1041300021FEA7E7A3689A781888B3F80540D70747
:1041400044BF0721D970D978960744BF07221A7156
:104150004D073FF4B6AC1B795A073FF4B2AC41EAC5
:10416000030212F0F80F05D0012107A8FFF742F86B
:1041700011230FE414F003021CBF04F1FF3404F018
:10418000010207F001FEFFF7D5BBA06800F117029E
:10419000C11D09F0B1FE36E6A06809F04FFF32E616
:1041A000012107A8FFF726F8044609F08BFE3EE63A
:1041B000022107A8FFF71EF8044609F081FE60708F
:1041C00058E70722A16808A8FCF716FA072107A8F4
:1041D000FFF710F80446411C08A809F0BDFF26E6C9
:1041E0000722A16808A8FCF707FA072107A8FFF72C
:1041F00001F80446411C08A809F0CEFF17E6A368A1
:10420000012107A81D78FEF7F5FF0446284609F0AE
:10421000DBFF0CE6A368188809F0E8FFFFF7A2BBF4
:10422000A068C17909F0EAFFEDE5032107A8FEF7D0
:10423000E1FF0146002301F8023B0130FEF7AEFD2D
:10424000FFF77FBBA36800220121187809F06AF903
:10425000D9E5A068012382784178007809F0FEF85A
:10426000D1E508A809F086F9032107A8FEF7C2FFE7
:1042700000230370BDF82030A0F80130FFF761BBC8
:10428000A3689A785978E0E7A068C378E3E70D213E
:1042900007A8FEF7AFFF02224270C27001228271AE
:1042A0000B220023C2716322037083700371437178
:1042B000037242728372C3720373FFF742BB4121E0
:1042C00007A8FEF797FF00210446402200F8011BD3
:1042D000FCF7BEF9637863F058036370A37843F08A
:1042E0000303A370FFF72DBB092107A8FEF782FF88
:1042F000002100F8011B0822FCF7AAF9FFF721BBF7
:104300005C4B08AA03F1280615461868596814463C
:1043100003C40833B3422246F7D1292107A8FEF788
:1043200069FF002300F8013B2822294699E5A1688E
:104330000020FEF717FDFFF715BB4FF08053D3F8B1
:10434000A420013206D1D3F8A8304FF6FF729BB2F9
:10435000934220D04FF08055D5F8A030DB071AD516
:10436000182107A8FEF746FF0026012304464370E4
:104370000670D5F8A400A11CFEF7F8FED5F8A83009
:10438000A371C3F3072363F03F03E37110223146A7
:1043900004F10800B0E7022107A8FEF72BFF002375
:1043A00003704370FFF7CDBA212107A8FEF722FF63
:1043B0000346002203F8012B4FF080520446D2F846
:1043C000901001314BD0D2F89410013147D0D2F87F
:1043D0009810013143D0D2F89C1001313FD0D2F86F
:1043E00090001946FEF7C2FE611DD2F89400FEF758
:1043F000BDFE04F10901D2F89800FEF7B7FE04F102
:104400000D01D2F89C00FEF7B1FE4FF08052D2F8B9
:104410008030013304F1110327D0D2F88410013128
:1044200023D0D2F8881001311FD0D2F88C1001317E
:104430001BD0D2F880001946FEF798FE04F1150152
:10444000D2F88400FEF792FE04F11901D2F8880038
:10445000FEF78CFE04F11D01D2F88C001FE510223E
:1044600000211846FCF7F4F8CFE710220021184687
:1044700042E700BF430901002DE9F84300230B6028
:104480008389032B0646884603D86FF01500BDE8E4
:10449000F88350F8083F04215F881D880AF07BFEEE
:1044A000B389BB42F1D307F067FD4FEA15390446E3
:1044B000C5F30B05F0B91E4BD3E90023002302F02E
:1044C0000072134312D04FF0FF310120FDF7E2FBE1
:1044D0000122C8F800001A21FEF751FED8F80000AA
:1044E000012108300AF048FE012303706FF0360006
:1044F000BDE8F8830379B9F1000F02D0B9F1020FDA
:1045000013D1022262F3010323716771B1683A4645
:10451000E01DFCF771F82146284607F039FD002818
:10452000E6D0204607F02EFDAFE70122EAE700BF04
:1045300098540020037A03F00303013B012B70B56C
:1045400004463CD801F10806C588042130460AF02B
:1045500013FE237A617A418003F00303022B0CBF20
:1045600045F4005345F48053038030460AF004FEBE
:10457000627A04F10B01FCF73FF8154B1A68002A28
:1045800024DD144C1449236809685B1A934204D350
:1045900040F6E9311148FCF78BF923680F2D03F140
:1045A0000103236004D940F6EE310C48FCF780F992
:1045B0000B4A32F81530013322F8153070BD40F641
:1045C000F5310648BDE87040FCF772B970BD00BF18
:1045D000503B0020543B00205C3B00206B09010055
:1045E000303B0020F0B5044685B02379E688012BE6
:1045F0000D4600F1080000F03C81023B0A2B00F25E
:104600003281DFE813F00B001100110016004900A1
:1046100063009100B600CE00E300FE000A4621468A
:10462000FEF70AFE05B0F0BD0A462146FFF75EF828
:10463000F8E7B14BD3E90023002203F00053134302
:1046400004F10A0607D0AD4BD3E90023002302F49E
:10465000802213430FD1237A0622C3F380133146FD
:104660000DF109008DF80830FBF7C6FF9DF8080032
:10467000FFF71EF8D6E7082213212846FEF7A4FD0F
:1046800000230370237AC3F380134370062231465C
:104690000230FBF7B1FFC5E7E77A3FB904F1140335
:1046A000FF2204F10E01607B09F034FD924BD3E947
:1046B0000023002203F000531343B3D02B463246AD
:1046C00004F10B013846FEF75DFFABE78A4BD3E9F7
:1046D0000023002302F010021343A3D0042205217B
:1046E0002846FEF74CFD042105F108000AF044FDC0
:1046F00000230370A0F80160237AC3700F2E04D941
:104700004FF423617E48FCF7D3F87E4A7E4932F8A5
:104710001630086803440B60002322F816307B4AE9
:104720001368013B13607DE7734BD3E9002300223C
:1047300003F0005313433FF475AF704BD3E90023EC
:10474000002302F0040213433FF46CAF092203215B
:104750002846FEF739FDE37A0370A389A0F80160CB
:10476000A0F80330E389A0F80530238AA0F80730C9
:1047700058E7614BD3E90023002203F400431343BD
:104780003FF450AF032230212846FEF7F8FC032106
:1047900005F108000AF0F0FC00230370A0F80160A6
:1047A00040E75B4BD3E90023002302F400021343EC
:1047B0003FF438AF022257212846FEF7E0FC0221E1
:1047C00005F108000AF0D8FC06802BE74A4BD3E934
:1047D0000023002203F0005313433FF423AF474B61
:1047E000D3E90023002302F4002213433FF41AAF5D
:1047F000032214212846FEF7E7FC0680E37A837043
:1048000010E73D4BD3E90023002203F0005313438C
:104810003FF408AF394BD3E90023002302F40062D0
:1048200013433FF4FFAE05220C212846FEF7CCFCD3
:10483000E37A0370A0F80160227B002A92FAA2F3C7
:10484000B3FA83F308BF4FF0FF330133C370627BC9
:1048500092FAA2F3002AB3FA83F308BF4FF0FF33B2
:1048600001330371DEE640F603312548FCF720F8FA
:10487000D8E6E37A033B122B00F2C080DFE803F0B6
:104880000ABEBE2FB5BE35BEBE4A69BE6DBEBEBE37
:10489000BE959500184BD3E90023002203F0005386
:1048A00013433FF4BFAE154BD3E90023002302F0BE
:1048B000100213433FF4B6AE0C2205212846FEF742
:1048C00083FC0822054604F10C0120F8026BFBF77B
:1048D00093FE022204F1140105F10A00D9E60A460A
:1048E00000203146FEF7C8FD9CE60B4632460146E5
:1048F0000020FEF7E1FD95E698540020A05400202A
:104900006B090100303B00205C3B0020A00200202E
:10491000300300203B4BD3E90023002302F4006264
:1049200013433FF47FAE08220C212846FEF727FCF4
:10493000082168180AF020FC00230370A0F8016029
:10494000237BC370B4F80D308380B4F80F30C3807C
:1049500068E60A46207B3146C4E72A4BD3E90023A8
:10496000002203F00053134307D0274BD3E9002361
:10497000002302F02002134308D100230193009387
:104980001A220221304607F01DF84BE60A220621C2
:104990002846FEF719FC0680A3894380E3898380BB
:1049A000238AC380638A03813CE6164BD3E9002344
:1049B000002203F0005313433FF434AE124BD3E90B
:1049C0000023002302F0400213433FF42BAE0A22DF
:1049D00007212846FEF7F8FB0680238A4380638A76
:1049E0008380A389C380E389DDE7237B0E2B7FF4DB
:1049F00019AE0B46324600211A207AE740F6C8313C
:104A000033E700BF98540020A054002070B506463C
:104A10000D46144613210522FEF7B1FB052106F1D0
:104A200008000AF0A9FB01230370A0F80150A0F8C8
:104A3000034070BD0379012B06D0023BDBB20A2B89
:104A40000AD8074AD0567047037A03F00303032BB2
:104A50000CBF0220032070474FF0FF30704700BFAB
:104A600016090100024B002118600846FEF7A8BE97
:104A70003803002020BF40BF20BF7047F0B50D4B6A
:104A800089B005460E4601AA03F11807186859684F
:104A9000144603C40833BB422246F7D11B88238047
:104AA00008AB1D4415F81C0C831B5842584109B033
:104AB000F0BD00BFE80601000860704718B90B6838
:104AC00043F000430B60704718B90B6823F00043B4
:104AD0000B60704770B5031D451E00249D4201D137
:104AE000204670BD15F8016F0022A018082AC0B238
:104AF00001D10446F2E716F0010F03D00029F0D0EF
:104B00000139C9B276080132EFE70000094B93F88A
:104B10004A0793F8492790423BBF93F8492793F8F7
:104B2000483793F84937C0182CBFC01A801AC0B252
:104B3000704700BF4003002008B50146FFF7E6FFBD
:104B4000884221BF044B93F84927D3F8443753F8E0
:104B5000220038BF002008BD4003002030B590F887
:104B6000743090F875409C425AD190F8C01090F87B
:104B7000C1308B4254D190F91D30002B25DBC18C04
:104B8000828CA0F87C10C18FA0F87A2051437D223E
:104B90004A434FF47A7192FBF1F2A0F87E2090F82C
:104BA0007820012565F30102D2B2002342F004020D
:104BB000013C80F88850C0F8843080F8782080F874
:104BC000765080F87540184630BD90F8C230DC064B
:104BD00028D490F850309A0603D5D0F8A4309B071B
:104BE00020D5C48C828CA0F8C640C48FA0F8C42005
:104BF00054437D2262434FF47A7492FBF4F2A0F89E
:104C0000C82090F8C220002302F0F80263F3C30228
:104C1000013980F8C33080F8C22080F8C110D2E793
:104C2000012030BD022030BD10B50C4620B143F24A
:104C30007C110548FBF73CFE94F850306FF34103BC
:104C400084F8503010BD00BFB40901002DE9F843CD
:104C5000224D95F84A4795F85C9795F84837013406
:104C60008145E4B228BF814605F5EA67A34208BF43
:104C7000002405F5E768B9F1000F03D095F849372E
:104C80009C4201D1BDE8F8833846FDF760F806463E
:104C90000028F7D04046FDF75AF828B930461049A9
:104CA000BDE8F843FDF76DB8066095F84A27D5F8DA
:104CB000443743F8220085F84A4795F848370134CD
:104CC000E4B2A34208BF002495F85C3709F1FF392C
:104CD000013B85F85C375FFA89F9CCE74003002097
:104CE000900A002038B5354C94F81827002A61D076
:104CF00004F214734FF4AA71D4F81007FDF700F80A
:104D00002F4B94F84227B4F84017D4F83407FCF737
:104D1000F7FF94F8481794F818272A4BD4F84C0753
:104D20000A440821FCF7ECFF274BD4F86007022265
:104D30002421FCF7E5FF94F87C27244BB4F8701786
:104D4000D4F86807013A92B2FCF7DAFF1D48FCF785
:104D5000FEFF054620B940F2A9211D48FBF7A8FD3A
:104D60001C4A2846111FFDF749F894F8293043F0F2
:104D7000700384F829301F2384F82637252384F80C
:104D800027371B23A4F82A374FF4A473FF20A4F875
:104D90002C37072384F8220784F8230784F8240794
:104DA00084F82507A4F82E37A4F83037BDE838403A
:104DB000FFF74CBFC4F81427A2E700BF4003002050
:104DC000780A0020900A0020A40A0020AC0A0020E3
:104DD000B4090100980A00202DE9F84F0C7894429C
:104DE00081460F4690463DD01F4ED6F8783733F8AF
:104DF0003430038000254FF0020B06F26C7A22B2A9
:104E0000D6F87807B9F800E000EBC20130F832209C
:104E1000964520D14868012820F003030AD9F3B150
:104E2000021D1CD04279D2B1027902F00302013A8C
:104E3000012A14D8012215444A60EDB213B151463B
:104E4000FCF79FFF013496F87C27E4B2A24208BF2A
:104E500000244445D3D13C702846BDE8F88FC1F802
:104E600004B0EBE70025F7E74003002010B5094B3D
:104E700093F81827824204460AD902464FF4AA71D1
:104E8000D3F81007FCF798FF10B1038CA34200D0B1
:104E9000002010BD400300202DE9F04186B0022320
:104EA00005280546884602930ED0062800F0A0800B
:104EB00040F2A480073880B2FFF7D8FF002800F046
:104EC000278190E8C0000FE0924B9E69DF6902AB3A
:104ED00000930A46904B03210020FDF753FE022861
:104EE00079D0029B002B7AD18A4CA37C23B142F665
:104EF000F8218A48FBF7DCFC06AB0222A57443F8D4
:104F0000102D032100932A46834B0020FDF73AFE23
:104F100002287BD0029B002B40F0EE80237C9D4238
:104F200003D0637C9D4240F0E38006AB022243F84D
:104F30000C2D002200930321774B1046FDF722FE33
:104F400002280CD1012211460320FCF7A3FF039B8A
:104F5000022B04D142F63C217048FBF7A9FC039BCD
:104F6000002B40F0898002230493237C23B942F66E
:104F700046216A48FBF79CFC04AB00200093012209
:104F8000654B20740321FDF7FDFD02280CD10122A1
:104F900011460320FCF77EFF049B022B04D142F64E
:104FA00055215E48FBF784FC049A002A47D126F07D
:104FB0000046B74239D95A4B11460320FCF792FFFD
:104FC000002800F0958042F669215448FBF770FCF8
:104FD0008EE0FFF74FFD029B022BFAD081E7029B88
:104FE000012B81D042F6D9214C48FBF761FC7BE7CD
:104FF000484BD3F83C66D3F8407675E742F6F32188
:1050000046480026FBF754FC37466DE7637C9D421B
:1050100004D1012211460320FCF73CFF029B022B26
:105020007FF478AFFFF726FDF8E73E4B11460320EB
:10503000FCF758FF00285BD042F67021C5E7049BBF
:10504000012B16D10022364B11460320FCF74AFFF4
:1050500020B142F679213148FBF72AFC0022314B7E
:1050600011460320FCF73EFF002841D042F67F2185
:10507000ABE742F68121A8E7039D012D45D1B8F1A8
:10508000FF0F23D006AB022243F8042D0321009327
:105090004246214B0020FDF775FD02280CD12A461F
:1050A00029460320FCF7F6FE059B022B04D142F6AD
:1050B0009A211A48FBF7FCFB059B3BB1059B012B92
:1050C00004D042F69E211548FBF7F2FBE37C7BB14E
:1050D000154B04229A60002211460320FCF702FFC0
:1050E00020B142F6AE210D48FBF7E2FBE37C4BB961
:1050F000A37C0BB9012302930023A374029806B08A
:10510000BDE8F081FFF7B6FCF0E742F6B6215CE7B8
:105110000120F4E740030020B94A0000B40901006F
:10512000E8540020A85500201855002010B5C4B23E
:10513000231F012B04D941F291610948FBF7B8FB09
:10514000084A137D3BB1043B012B04D91475BDE81B
:10515000104009F089BB09F0B9FB0028F7D010BD59
:10516000B409010040030020F8B590F83A40058EDC
:10517000064604F007040F462046002109F0AAFA6B
:1051800096F8F83013F0100F4FEA440210D0291DA2
:1051900042F00102C9B2082009F000FB3A4621465C
:1051A00006F1F90009F054FDBDE8F84009F028BB0C
:1051B000082042F00102E9B209F0F0FA3846F3E7BC
:1051C000F8B5134C94F8805794F87C370135EDB25C
:1051D000AB4208BF002594F87F37AB4207460E4626
:1051E00004D142F21D710B48FBF762FB94F8802753
:1051F000D4F8783723F8327094F8802703EBC20391
:105200005E6084F88057BDE8F84007F043BC00BFFB
:1052100040030020B40901002DE9F843244C064660
:1052200000272EB194F87D3794F87E279A4201D159
:10523000BDE8F88394F87D87D4F87497D4F8100704
:1052400039F8382009EBC8034FF4AA715D682F6064
:10525000FCF7B2FD034639F838001A8C82421FD1A0
:10526000D3F8482142B9D3F83C21C3F848511AB9C0
:10527000C3F83C51C3F84C21D3F84C2102B115605E
:10528000C3F84C5194F87D3794F87C270133DBB296
:105290009A4208BF0023013E84F87D37F6B2C0E78A
:1052A0002B7967F301032B712946FFF789FFE9E7A3
:1052B0004003002073B50122044611460020FCF78C
:1052C000E9FD94F8202042F23A730021073200935E
:1052D000D2B23F4B0846FDF755FC30F0020304D034
:1052E00042F23C713B48FBF7E3FA3B4D2B7D052B2B
:1052F00027D1238C2A7C07339A4222D1002142F203
:105300004B7300930122324B29740846FDF73AFC97
:1053100030F0020304D042F24D712E48FBF7C8FA78
:10532000002242F2527300931146294B1046FDF7BA
:1053300029FC30F0020304D042F254712548FBF7F7
:10534000B7FAD4F83C11D4F84031994203D0D4F8DC
:105350004831994201D1214E12E00B796FF30103DC
:105360000B710B68C4F83C31208CFFF729FFE8E78C
:105370000368C4F83C31C4F840313146FCF701FD04
:10538000D4F83C0118B1D4F848319842F0D1002348
:10539000C4F84031C4F84431D4F83C1151B94FF647
:1053A000FF732384D5F890379C4208BFC5F8901747
:1053B00002B070BD0B796FF301030B710B68C4F879
:1053C0003C31C4F84831208CFFF7FAFEE4E700BF17
:1053D00051610000B409010040030020A40A00202C
:1053E000F8B50F4690F83810C58DC1F3C2040646D3
:1053F000C909204609F06EF996F8F83013F0200F2D
:105400004FEA44020FD0291DC9B2082042F0010220
:1054100009F0C4F9394606F58D7009F06FFCBDE856
:10542000F84009F0F3B9082042F00102E9B209F0AE
:10543000B5F93846F3E700002DE9F74F884E96F8A6
:105440002E3203EB03233344044693F82C3003F04D
:105450000F03072B40F0F3802628DFF84C822ED074
:105460002728DFF8489234D0252862D1FCF79AFB30
:105470007C4E7D4B376818607C4BC71B1F607C4B94
:105480001A684FF47A7582FB0523A2FB0701D9F84D
:10549000002007FB0311D317FAF7E6FE754BB0FBAC
:1054A000F5F01860FCF77EFBC8F80000FCF77AFB0B
:1054B000714A30601378013313700220ADE0FCF7BD
:1054C00071FB6D4AC8F800001378013313701A207D
:1054D000A3E0FCF767FB694B1860D8F80030A0EB3D
:1054E000030E634B1A684FF47A7782FB0723AEFBF7
:1054F0000201D9F800200EFB0311D317FAF7B4FE0E
:105500005F4BB0FBF7F018605B4B00251D70FCF79C
:1055100049FB96F8893696F88826C8F800000133CA
:10552000DBB29A4286F8893601D286F88956502035
:1055300073E0FCF737FB534B18604D4B1B684FF47F
:105540007A7583FB05ABD9F800301946DA17D8F81D
:105550000030DFF85C81C31A0746CDE90012A3FBD7
:105560000A0103FB0B11DDE90023FAF77DFE464B30
:10557000B0FBF5F018603B4B1B68FB1AA3FB0A015C
:1055800003FB0B11DDE90023FAF76EFE3F4BB0FB86
:10559000F5F01860D8F80030FF1AA7FB0A01DDE922
:1055A000002307FB0B11FAF75FFE394BB0FBF5F058
:1055B0001860FCF7F7FA374B374F0021C3E90001B9
:1055C000364BD7F800B07A68C3F800B05A60344B55
:1055D000D3E90023821A61EB03032549086880FBA5
:1055E0000501514300FB0313A2FB0001D9F8002081
:1055F0001944D317FAF738FE0023B0FBF5F03860F2
:10560000A0EB0B007B60C6F8A806FCF7CBFA0A2CCF
:10561000C8F8000009D8A01C400009F08FF8204607
:1056200003B0BDE8F04F09F08FB8272C01D8E01C7B
:10563000F2E741F644011B48FBF73AF9EFE7262869
:105640003FF445AF27283FF472AF25283FF435AF2C
:105650000A28E0D92728EAD941F65F01EBE700BF25
:1056600040030020783B0020E43B0020343C002035
:1056700024560020503C0020200B0020E83B002056
:10568000383C0020443C0020103C0020643B0020BB
:10569000483C0020083C0020E00A0020E80A0020E6
:1056A000703B0020B4090100003C0020205600207F
:1056B000243C00202DE9F0478D4C94F82E3294F8CC
:1056C0002F229A4200F0DC800133DBB2022B08BFAC
:1056D000002384F82E324FF0010A94F8363694F8FD
:1056E00037269A4208D00133DBB2022B08BF0023D1
:1056F00084F836364FF0010A94F82E7207EB07272C
:105700002C3704EB0709E35D03F00F03072B61D18E
:1057100099F80330DD074CBF09F10A0509F10405CA
:105720009A0748BF06351E0748BF0235DA064BD533
:10573000D4F8A426D4F8803694F82960134494F859
:105740008926C6F302165A43072EC4F88C2640F069
:10575000A78094F8283003F00703072B40F09380CC
:10576000D4F89006821A10460021C4F89C26614A9B
:10577000AE7895F8008000238B4208BF824280F00B
:10578000A0804FF496620023FAF76EFD26F01F0604
:105790006870C0F304203043A87048F0800894F883
:1057A000293085F80080DB0708D594F8A03601334E
:1057B000DBB2252B08BF002384F8A0362B7894F8A1
:1057C000A02662F305032B7094F829306FF30003D1
:1057D00084F82930BAF1000F0BD094F8360600EBAC
:1057E00000202044062209F1020100F23640FAF7B7
:1057F00003FF484609F00AF8E35D03F00F03022BAC
:105800006DD0072B6BD002239620237509F024F965
:10581000002009F083F894F82830C3F30202D3B2D1
:1058200019460020CE0700F101055DD5013B13406C
:1058300094F82820304D63F30202304B84F828207E
:1058400012F0070F08BF1A7829780CBF0132002226
:105850001A7094F88A3694F888260133DBB29A429B
:1058600001F1010184F88A36297038BF0023C0B2E3
:1058700038BF84F88A362530BDE8F047FFF7DCBD35
:105880004FF0000A29E7062B04D1D4F89406801AB9
:1058900000216CE7042B7FF46AAFD4F89806F6E792
:1058A00094F88A667343C4F88C3626B9FCF77AF903
:1058B000134B83E84100D4F89006D4F88C36C01A14
:1058C000E6E71E220023FAF7CFFC26F01F066870D9
:1058D000C0F304200643AE706FF3C7185FE70323DD
:1058E000237509F031F896E7490828469AE700BF82
:1058F00040030020C4BF0300DA0A0020D90A0020B8
:10590000703B0020000000002DE9F04F8FB0924660
:10591000049303680991002B8046426880F2B680A8
:10592000816823F0004391422CBF5A1A9A1A0592BB
:10593000D8F80C203D320024FF27D31807938DF8A8
:105940002970ADF82A400C940B940697A146A34603
:10595000254602230D930DAB02937B4B01930BABBA
:1059600000930DF129020CAB01210020FDF746F94F
:10597000022800F094800D9B23B141F28B517348B3
:10598000FAF796FF9DF82930FF2B64D0FF2F07D040
:105990000C9B994504D041F294516C48FAF788FF6A
:1059A0009DF82920052A51D9694890F818370733FE
:1059B0009A424BDA062A00F09F80069BFF2B4AD1C1
:1059C000073A92B24FF4AA71D0F81007FCF7F4F935
:1059D00080453BD0099B1BB990F91D30002B35DB6E
:1059E000059B0B9E41681E440368002B5BDA8268AE
:1059F00023F000438A422CBFB6187618F61AC26804
:105A000002F13D094B440893DAF800309E4216D962
:105A10009D4238BF1D46079B0BEB0307189B1B7865
:105A2000A34205D929463046FDF77EF9B8423ED259
:105A3000BDF82A30049ACAF8005093420BD2DDF820
:105A400030909DF82970DDF820B03546189B1B7802
:105A5000A3423FF67EAF9DF82930FF2B11D1DAF833
:105A60000030DFF8F08036A7D7E900679D4238BFE5
:105A70001D464FF00709189B1B78A3423ED8CAF871
:105A80000050189B1C700FB0BDE8F08F934238BFD8
:105A9000134600224BE701210020FDF72DF90D9B55
:105AA000022BF8D067E78B4238BF0B46A7E7294A9D
:105AB00005EB0B03A3FB0201072202FB031120A34A
:105AC000D3E90023FAF7D0FB40F2E243B0FBF3F056
:105AD000049B80B29842ADF82A000BD2199B022297
