:1000000088D00020D91300003514000071120000C0
:1000100071120000711200007112000071120000D4
:100020007112000071120000711200005D0E0000DC
:100030007112000071120000190E00007112000010
:100040009D130000EF5601009D1300009D1300005A
:100050009D1300009D1300009D1300009D130000E0
:100060009D1300009D1300009D1300009D130000D0
:100070009D1300009D1300009D1300009D130000C0
:100080009D1300009D1300009D1300009D130000B0
:100090009D1300009D1300009D1300009D130000A0
:1000A0009D1300009D1300009D1300009D13000090
:1000B0009D1300009D1300009D1300009D13000080
:1000C0009D1300009D1300009D1300009D13000070
:1000D0009D1300009D1300009D1300009D13000060
:1000E0009D1300009D1300009D1300009D13000050
:1000F0009D1300009D13000000000000D12B0000A4
:1001000000000000E111000074EB002087300000C7
:1001100000000000E111000000000000E1110000FB
:1001200000000000E1110000A4EB0020B52D00004C
:1001300000000000E111000000000000E1110000DB
:1001400000000000E111000000000000E1110000CB
:1001500000000000B556010000000000E1110000A1
:1001600080EB0020C132000000000000E11100001F
:1001700000000000E111000000000000E11100009B
:10018000000000000134000000000000E111000048
:1001900000000000E111000000000000E11100007B
:1001A00000000000E111000000000000E11100006B
:1001B00000000000E111000000000000E95601000D
:1001C00000000000E111000000000000E11100004B
:1001D00000000000E111000000000000E11100003B
:1001E00000000000E111000000000000E11100002B
:1001F00000000000E111000000000000E11100001B
:1002000000000000E111000000000000E11100000A
:1002100000000000E111000000000000E1110000FA
:1002200000000000E111000000000000E1110000EA
:1002300000000000E111000000000000E1110000DA
:1002400000000000E111000000000000E1110000CA
:1002500000000000E111000000000000E1110000BA
:1002600000000000E111000053B94AB9002908BF9D
:1002700000281CBF4FF0FF314FF0FF3000F08EB967
:10028000ADF1080C6DE904CE00F01AF8DDF804E0D9
:10029000DDE9022304B07047430803F05533C01A68
:1002A000830803F0333300F03330184400EB1010B0
:1002B00000F00F3000EB002000EB0040000E704714
:1002C0002DE9F0478C460D460446089E002B51D17F
:1002D0008A4217466DD9B2FA82FEBEF1000F0BD0EA
:1002E000CEF1200C01FA0EF520FA0CFC02FA0EF702
:1002F0004CEA050C00FA0EF44FEA174A250CBCFB39
:10030000FAF81FFA87F90AFB18CC45EA0C4508FBF6
:1003100009F3AB420AD9ED1908F1FF3280F02381CD
:10032000AB4240F22081A8F102083D44ED1AA4B28C
:10033000B5FBFAF00AFB105544EA054400FB09F945
:10034000A14509D9E41900F1FF3380F00A81A145E4
:1003500040F2078102383C44A4EB090440EA08401B
:100360000021002E61D024FA0EF400233460736063
:10037000BDE8F0878B4207D9002E54D0002186E8D3
:1003800021000846BDE8F087B3FA83F1002940F068
:100390008E80AB4202D3824200F2FA80841A65EB6F
:1003A00003050120AC46002E3FD086E81010BDE8C2
:1003B000F08712B90127B7FBF2F7B7FA87FEBEF153
:1003C000000F34D1EB1B3A0C1FFA87FC0121B3FB61
:1003D000F2F8250C02FB183345EA03450CFB08F341
:1003E000AB4207D9ED1908F1FF3002D2AB4200F25F
:1003F000D1808046ED1AA3B2B5FBF2F002FB105596
:1004000043EA05440CFB00FCA44507D9E41900F1BC
:10041000FF3302D2A44500F2B8801846A4EB0C04C6
:1004200040EA08409DE731463046BDE8F087CEF10E
:10043000200405FA0EF307FA0EF720FA04F83A0C36
:1004400025FA04F448EA0308B4FBF2F14FEA184530
:1004500002FB11441FFA87FC45EA044501FB0CF33B
:10046000AB4200FA0EF409D9ED1901F1FF3080F02A
:100470008A80AB4240F2878002393D44EB1A1FFA72
:1004800088F5B3FBF2F002FB103345EA034500FBAD
:100490000CF3AB4207D9ED1900F1FF386FD2AB4234
:1004A0006DD902383D44EB1A40EA01418FE7C1F1B2
:1004B000200722FA07F88B4005FA01F448EA030303
:1004C00020FA07FE4FEA134CFD404EEA040EB5FB3E
:1004D000FCF94FEA1E440CFB19551FFA83F844EA55
:1004E000054509FB08F4AC4202FA01F200FA01FAF0
:1004F00008D9ED1809F1FF3043D2AC4241D9A9F136
:1005000002091D442D1B1FFA8EFEB5FBFCF00CFBEF
:1005100010554EEA054400FB08F8A04507D9E41839
:1005200000F1FF3529D2A04527D902381C4440EA02
:100530000940A4EB0804A0FB02894C45C6464D4681
:1005400015D312D056B1BAEB0E0364EB050404FACE
:1005500007F7CB401F43CC40376074600021BDE8F3
:10056000F0871846F8E69046E0E6C245EAD2B8EBD6
:10057000020E69EB03050138E4E72846D7E7404659
:1005800091E78146BEE7014678E702383C4445E7FB
:10059000084608E7A8F102083D442BE7704700BF72
:1005A0002DE9F84386460F4605462C4614F8013BD4
:1005B000202B03D0A3F10901042957D82546F4E7DD
:1005C0002B2B04BFAC1C6B78002154E0302B27D1BF
:1005D000237803F0DF03582B54D1637810220234C0
:1005E00000290CBF6FF000484FF000480026B8FB10
:1005F000F2FC304602FB1C89A3F13005092D11D80D
:100600002B469A421EDD751C07D0604517D801D1D4
:100610004B4514DC02FB0030012614F8013BEBE7EC
:100620000A22DDE743F02005613D192D0AD8A3F128
:100630004105192D8CBF572537255B1BE1E74FF08E
:10064000FF36EAE7731C07D11FF05CFD2623036029
:1006500040462FB9BDE8F88301B14042BFB10EB1A9
:1006600004F1FF3EC7F800E0BDE8F8832D2BA7D1C9
:100670006B78AC1C0121002AA8D0102AB0D1302BF5
:10068000A6D0ADE73023002AAAD10822A8E7BDE80A
:10069000F8830139034611F8012F0AB91A7070471F
:1006A00003F8012BF7E710B5013903463AB111F809
:1006B000014F2CB91A4403F8014B9342FBD110BDF2
:1006C00003F8014B013AF1E7C9B2034610F8012BD8
:1006D000914206D0002AF8D100290CBF184600200C
:1006E00070471846704710B50023C9B2044610F889
:1006F000012B8A4208BF2346002AF7D1184610BDB5
:1007000002460346981A13F8011B0029FAD17047D4
:100710000138013910F8013F11F8012F934202D13D
:10072000002BF7D11A46981A704710B501390244C8
:10073000904209D0037811F8014FA34200D10BB9C0
:10074000181B10BD0130F3E7002010BD38B504467A
:100750000D46FFF7D5FF29462044FFF79AFF2046B4
:1007600038BD70B582B1013A0C46034603D11A7800
:100770002078101A70BD1E782578AE4200F1010075
:1007800001F10101EFD0F2E7104670BD431A934228
:1007900010B500EB020304D3013902469A4208D196
:1007A00010BD0A4412F8014D03F8014D8A42F9D1F7
:1007B00010BD11F8014F02F8014BEFE781EA000389
:1007C00013F0030F70B503460BD0013B0A4491426E
:1007D0001BD170BD002AFCD011F8014B03F8014B6E
:1007E000013A9C07F6D11E1F0D46541B0C44032CE6
:1007F00006D822F003042144234402F00302E4E774
:1008000055F8044B46F8044FEFE711F8014B03F895
:10081000014FDCE770B5C9B203469C0711D141EA2C
:10082000012444EA04441E46951B1D44032D0ED8A2
:1008300022F00304234402F003021A44934209D134
:1008400070BD002AFCD003F8011B013AE5E746F829
:10085000044BE9E703F8011BF0E700002DE9F04F36
:1008600087B07C4C04AF0394538E7960904602931A
:1008700001900094784B794A79497A4800F0CAFF90
:10088000B8F83260A146002E00F0D68098F83610F5
:1008900078684FF0FF32C1F3C3011FF0E4FA064657
:1008A00048B9714B0193714B0093714A6A4B6C4983
:1008B000704800F0AFFF96F8362098F83630C2F353
:1008C000C302C3F3C3039A4209D0674B0193674B3A
:1008D0000093674A604B6249674800F09BFFD8F875
:1008E00008504FF0000A002D40F0AB80CDF8089082
:1008F0008DE80006584B594A5949604800F08AFF74
:10090000D8F808405649A2895D48D31D23F0070353
:10091000ADEB030D0DF1100B4F4B0192CDF808908C
:100920004E4ACDF8009000F075FFA289A1685846A4
:10093000FFF744FF534800F06DFFB8F832309A4596
:1009400021D0A368D8F81850CDF80890ED1A019579
:10095000414BCDF80090414A41494B4800F05AFFC5
:1009600040F213539D4209DD3F4B01933F4B0093EF
:100970003F4A394B3A49454800F04CFF294604F1BB
:10098000080017F037FB424800F044FFB8F8323057
:1009900073864FF0FF32314678681FF082FA834643
:1009A00004F1080017F03EFB0BF1080960B938604C
:1009B000484617F037FB0146484617F002FB3B68F4
:1009C000ABF80C3086F83430484617F02FFBA3897B
:1009D00098420FD2484617F029FB234B0393A38973
:1009E0000293224B01900093214A1B4B1C4929483A
:1009F00000F010FFA189484617F0ACFAA289A1685F
:100A0000FFF7DCFE22460021404618F0E9FF0446CD
:100A10000028BED1B368C3B9AAEB0505AC420BD020
:100A2000114B0393114B0093029401950A4B104A0A
:100A30000B49194800F0EEFE30460C37BD46BDE8C4
:100A4000F08FAB892D689A444DE79A891B6814444E
:100A5000E1E700BF63320200CA180200E818020092
:100A60003D1B0200EF1802005C1B0200611B02002C
:100A7000361B0200141902004119020095190200E8
:100A8000B7190200D9190200DF190200031A020087
:100A9000AF2502004C1A0200AE1A02001FB549B978
:100AA000064B029301920093054A064B06490748FC
:100AB00000F0B0FE05B05DF804FB00BF6332020039
:100AC000E8180200DA1802003D1B0200691B020050
:100AD00013B50E4C4FF0FF32204600211FF0F0FFFF
:100AE00000F048F84FF0FF31204620F053F8084B53
:100AF00001930093074A084B0849094800F08AFE11
:100B000002B0BDE8104000F093B800BF0000002024
:100B100063320200E8180200E31802003D1B0200E5
:100B20001A1B020037B591F83630104AC3F3C303DD
:100B30000A2B0C4614BF34233623054640210C48AB
:100B400000F076FE694620461EF080F929462246CE
:100B50000748FFF783FE0546204618F02AFF15B127
:100B6000284618F026FF03B030BD00BF1A1C020053
:100B70001800002030B585B0002441F292050194A0
:100B800000952346112202211E481FF0F3F9A042CE
:100B90000CDA1D4B02931D4B009301951C4B1D4A13
:100BA0001D491E4800F036FE05B030BD00941C4BB8
:100BB0001C4A144821461FF043F9002810DA124B52
:100BC0000293124B01900093124A114B124916489E
:100BD00000F020FE0B4805B0BDE830401FF0F5B82E
:100BE00008481FF01FFA07481FF095F90028DBDAC4
:100BF000054B0293054B01900093064A044B0649AE
:100C00000A48E5E75C0000205C1B0200611B020053
:100C1000871B0200361B02003D1B0200911B0200D5
:100C20009D0A0000250B0000C41B0200EE1B020001
:100C300010B5044C20461FF04DF92046BDE8104089
:100C40001FF0C3B85C000020054B1B68082B01BFD8
:100C5000044B1868B0FA80F0400918BF00207047B4
:100C6000300100103401001008B54FF02003EFF3FD
:100C7000118183F31188FFF7E7FF40B14FF0804304
:100C80000022C3F80C21C3F81021C3F83825FFF760
:100C9000DBFF10B1384B394A1A60FFF7D5FF18B1A6
:100CA000374BFB22C3F81825FFF7CEFF48B1354874
:100CB000354B02681B6822F00F0203F00F03134349
:100CC0000360FFF7C1FF18B1304B4FF400721A6098
:100CD000FFF7BAFF48B14FF08043D3F80024D207A2
:100CE00044BF6FF00102C3F800244FF01023D3F883
:100CF0000022002A03DBD3F80432002B2FDA244B26
:100D00000122C3F80425D3F80024002AFBD04FF0B9
:100D100010221221C2F80012D3F80024002AFBD0BE
:100D20004FF010231222C3F80422194B1A46D3F8AD
:100D300000140029FBD00021C3F80415D2F80034B8
:100D4000002BFBD0BFF34F8F1249134BCA6802F43C
:100D5000E0621343CB60BFF34F8F00BFFDE70D4B45
:100D60004FF0FF329A62DA620C4B0D4A1A6081F33F
:100D70001188002008BD00BF8C5600404881030048
:100D800000F00040E40E004058020010409602407F
:100D900000E0014000ED00E00400FA050CDE002058
:100DA0000090D003084881684A897F2A0BD8C0691F
:100DB000884208D000B51FF059FE5DF804EB0349E6
:100DC0004FF080520A6070477834002004ED00E054
:100DD000044800232021C21801332E2B82F800136F
:100DE000F9D1704700E100E0084A094993680968B1
:100DF0005966084918664B6843F080534B600023DE
:100E000083F311889368586E704700BF78340020D0
:100E1000C03A020000ED00E00E498A682820104424
:100E2000EFF3098C80E8F01F0B4F4FF00066202095
:100E300080F31188CA698A603E60106E00231366D1
:100E400080F3118802F1280090E8F01F8CF30988E4
:100E5000704700007834002004ED00E01EF0040F1D
:100E60000CBFEFF30880EFF30980816931F8021CB1
:100E700011F0FF0101D0022907D0404080F3118812
:100E800004494FF080520A60704700B500F030FA14
:100E900000BD000004ED00E010B504461FF0BCFDED
:100EA00022680146BDE81040014800F0B3BC00BF15
:100EB000891D020010B504461A4800F0ABFC04F18D
:100EC0001800194CFFF7E8FFA36A9A0102D51748EA
:100ED00000F0A0FCA36ADB0102D5154800F09AFCE3
:100EE000A36A180302D5134800F094FC0E4CA36AC1
:100EF000590302D5104800F08DFCA36A9A0302D56D
:100F00000E4800F087FCA36ADB0302D50C4800F012
:100F100081FC054A936A6FEA03436FEA13439362C5
:100F200010BD00BF8A1E020000ED00E0A31E0200FB
:100F3000B71E0200D21E0200F11E0200171F02009F
:100F4000321F020038B5044619480D4600F062FC15
:100F500004F11800174CFFF79FFFA36AD90604D5C8
:100F60001548BDE8384000F055BCA36A1A0701D502
:100F70001248F6E7A36A9B070FD5114800F04AFC18
:100F8000616BA36A180612D50E4800F043FC75B1D8
:100F9000A36A23F08003A36238BDA36ADA0701D5F0
:100FA0000948DEE7A36A9B0601D50848D9E738BDA2
:100FB000D31D020000ED00E0EA1D0200FC1D02004E
:100FC000101E0200291E02003A1E02005A1E0200D4
:100FD00038B504461D480D4600F01CFC04F118000D
:100FE0001B4CFFF759FFA36AD80404D51948BDE884
:100FF000384000F00FBCA36A190501D51648F6E782
:10100000A36A9A0514D5154800F004FCA16BA36AE5
:101010001B0407D5124800F0FDFB1DB1A36A23F4A1
:101020000043A3620A4B9B6A58050ED50D48DEE7C4
:10103000A36A5905FAD4A36ADA0501D50A48D6E7A6
:10104000A36A9B0401D50948D1E738BD501C0200B2
:1010500000ED00E0EA1D0200FC1D0200671C02001A
:10106000291E0200811C02009D1C02005A1E020063
:1010700038B5274D6B68C3F30803DA1E0446092A06
:101080003AD8DFE802F00533352F393939393937A5
:10109000204800F0BFFBEB6A9A0703D51E4800F01A
:1010A000B9FB0CE0EB6A5B0009D51C4800F0B2FB11
:1010B0001B4B1B784BB101212046FFF743FF214614
:1010C0000020BDE8384000F017B9164B1B7823B15B
:1010D00001212046FFF77CFFF1E7134B1B889BB2F1
:1010E000002BECD02046FFF7E5FEE8E70021E3E720
:1010F0000021EEE70D48D2E70D480E49A3F110029A
:101100000F2BD8BF01460C4800F084FBD7E700BF87
:1011100000ED00E0E41C0200FC1C02001E1D0200A9
:1011200028ED00E029ED00E02AED00E03E1D020080
:10113000B61C0200CB1C0200751D0200024A536956
:1011400043F010035361704700ED00E043B2002B01
:1011500008DB012200F01F0002FA00F05B09024ADE
:1011600042F82300704700BF00E100E043B2002BCB
:101170000DDB01225B0900F01F0002FA00F02033B2
:10118000034A42F82300BFF34F8FBFF36F8F7047BE
:1011900000E100E04209054B00F01F0053F8222057
:1011A000012303FA00F01040704700BF00E100E0A7
:1011B00043B2002BA8BF03F1604301F101014FEAE4
:1011C0004111ADBF03F5614300F00F00034BC9B2FD
:1011D000B6BFC9B283F800131954704714ED00E08C
:1011E00000F046B808B572B6044B986918B10022F1
:1011F0009A611EF08DFF62B608BD00BF78340020F2
:10120000F8B50C460546AA21204616461F46FFF7AC
:1012100001FB0A9B0999042228461FF025FFA6F12D
:10122000200121440B4AAC6521F00701002322F084
:101230000102EB642B65EE658A61069A4A60079AA3
:101240008A60089ACA600F604FF08072CA61A96410
:101250002B66F8BDDD0E0200014910220A607047BE
:1012600010ED00E0404080F3118830BF704700BFB0
:10127000404080F31188DFF81CC0DCF800C01CF48B
:10128000006C0CBFEFF30880EFF3098000B5FFF7A7
:10129000EFFE00BD04ED00E0042838B504460D461D
:1012A00013D0052813D0032813D10C4800F0B2FA4C
:1012B0001FF0B2FBAA690146094800F0ABFA2946C3
:1012C0002046BDE8384000F017B80648EEE706486B
:1012D000ECE70146054800F09DFAE9E75E1F0200D1
:1012E000DC1F0200841F02009E1F0200B91F0200C3
:1012F00001460068FFF7D0BF052810B50CD01FF0DD
:10130000D5FD60B11FF0D2FD0C4B0D49002808BF80
:1013100019460C4800F07EFAFFF7A4FFFCE71FF027
:10132000D5FD0028EED1084C0848A16800F072FAFB
:10133000A068BDE8104000F00BB800BF1C20020000
:10134000182002002D200200783400204D200200D9
:1013500038B505464FF02003EFF3118483F311886D
:101360001FF012FE0B4B9B689D420DD10A4B5A6831
:10137000C2F3080222B91FF079FB2046FFF734FDC3
:101380005A6842F080525A602046BDE838401FF04B
:10139000D1BA00BF7834002000ED00E000B572B68D
:1013A0000B4A906900281EBF002191611EF0B0FE1B
:1013B00062B6EFF30580A0F110004FEAC0000549C6
:1013C000014409C998475DF804EBFFF7EBBC000046
:1013D00078340020F8000000202080F311880848AD
:1013E000AA214FF40062FFF715FA05484FF4006197
:1013F000401880F30988022080F3148800F006B8B2
:10140000C8D1002030BFFFF7FDBF00BF08B5074BB4
:10141000074A23F07F039360BFF34F8FBFF36F8FB3
:101420001EF0F0FE1EF0F8FE1EF01EFF0000000091
:1014300000ED00E008B5FFF7E5FFBDE80840FFF765
:10144000B1BC0000154B16491A6830B50D68C2F3DF
:10145000072295420FD8002248685A60954200F151
:101460000C000AD105225A600E4B01221A70BFF3FC
:101470004F8FBFF36F8F002030BD50F80C1C50F819
:10148000044C9A6021F01F0141F01001114344F017
:101490000104D96001321C61E0E700BF90ED00E07B
:1014A000C8DD0020B4000020002070470B68013325
:1014B0000B60014B1B68184710DE00202DE9F04F30
:1014C00085B09B460E9CDFF890A0012CB8BF01248C
:1014D000012B0CBF302320231546804689460194FA
:1014E000029301260A2700220AF101040AB9AA453B
:1014F0001FD2B5FBF4F049463030C0470136012217
:10150000013F012FB5FBF4F14FF00A0304FB115525
:10151000BAFBF3FAE8D1494605F13000C047BBF108
:10152000030F03D1019B9C1B002C0FDC05B0BDE811
:10153000F08F019BBB42E3DBBBF1020FE0D84946D1
:10154000029803920136C047039AD9E74946202002
:10155000C047013CE8E700BFFFC99A3B0A688B68B7
:1015600030B512B14C68A34202DB01338B6030BD51
:10157000651EAB420BBF8C605C1C00218C600CBFF5
:10158000D154D05430BD0000014B1860704700BFEB
:1015900010DE00202DE9F04F89B04FF0000A06461A
:1015A0000F4604921C464FF0FF39D0465546049B27
:1015B000187810B909B0BDE8F08F45B9252800F0BA
:1015C0000C813946B047049B01330493EFE764284C
:1015D00061D019D839280AD8312850D22D283CD0CA
:1015E00030283DD0252808D13946B0476FE058282B
:1015F00000F08980632800F0EA8039462520B04752
:10160000049B39461878F0E7702872D006D869280C
:1016100041D06C283CD06828D5D0EEE7752858D04A
:1016200017D87328E9D1236804F1040B1C4625461A
:1016300015F8010B002840F0BF80B8F1030F40F00F
:10164000D580E41AA9EB0404002C00F3BB805C46AF
:101650003DE0782857D07A28DEE74FF00308B2E75C
:10166000B9F1000F0EDAB8F1000F00F0BC80A0F164
:101670003009B8F1000F08BF4FF00208A3E7B9F135
:10168000000FF4DB0A2303FB0909A9F13009F0E795
:101690000AF1010A97E7BAF1010FC5BF073424F038
:1016A000070325681D68D4BF043403F10804002D26
:1016B00005DA39462D20B0476D4209F1FF39CDF8E2
:1016C000009043462A4639463046FFF7F7FE00258C
:1016D00079E7BAF1010FC5BF073424F00703226888
:1016E0001A68CDF80090CCBF03F1080404344346D7
:1016F000E9E739463020B04739467820B0474FF007
:1017000008094FF00108BAF1010FC7BF073424F0F0
:10171000070323680593C2BF03F108041B68059300
:101720004FF008024FF00003D8BF0434039307932F
:1017300093460BF1FF3B059B4FEA8B0023FA00F029
:1017400010F00F0009D1079B13B9BBF1000F22D194
:101750004FF0300E07E0069AEBE709288CBF4FF0F8
:10176000570E4FF0300E394670440692B047039B37
:10177000079501330393BBF1000FECD1B8F1030FD0
:10178000A5D1039BC3EB4905002DA0DD39462020E0
:10179000B047013DF8E7531E91450693EBDBB8F1E6
:1017A000010F03D139463020B047E4E7B8F1020F0A
:1017B000E1D139462020F7E7394603932C46B0475C
:1017C000039B34E739462020B047013C3CE72068C2
:1017D000251D3946B0472C4679E7AA46A8464FF062
:1017E000FF390125EFE64FF00108ECE65C460546BF
:1017F000E9E6000013B502AC002344F8043D0246BC
:101800000B4603482146FFF7C5FE019802B010BD04
:10181000AD1400000FB407B504A951F8040B0191F1
:10182000FFF7E8FF03B05DF804EB04B07047000079
:101830000CB430B585B008AB044653F8042B0190C6
:101840000291002501A9074800930395FFF7A2FE26
:101850000398029B9842B8BF255405B0BDE83040BC
:1018600002B070475D15000070478B4238B51546D1
:101870001C4605D81A462946FEF7A0FF204638BD6B
:101880000024FBE7FEF7C6BFC3095A00134403EB6D
:10189000C30383EA4000C0B27047CB78027853405C
:1018A00003704B884278534043700A68837883EA18
:1018B000122383700A68C3785340C370CB790279CE
:1018C00053400371CB884279534043714A6883790E
:1018D00083EA122383714A68C3795340C371CB7A78
:1018E000027A53400372427A4B89534043728A68AA
:1018F000837A83EA122383728A68C37A5340C3725D
:10190000CB7B027B53400373CB89427B53404373B1
:10191000CA68837B83EA12238373CA68C37B5340FC
:10192000C37370471FB502788DF8002042798DF897
:101930000120827A8DF80220C27B8DF80320027983
:101940008DF80420427A8DF80520827B8DF80620E0
:10195000C2788DF80720027A8DF80820427B8DF836
:10196000092082788DF80A20C2798DF80B20027B3D
:101970008DF80C2042788DF80D20C37A82798DF88D
:101980000E208DF80F3010236A461946FFF76DFFC1
:1019900005B05DF804FBF8B5064608780C46FFF77D
:1019A00073FF05466078FFF76FFFA27863785340B6
:1019B000E27853405D404540357060782778FFF706
:1019C00063FF0546A078FFF75FFFA3785F40E378E9
:1019D0005F407D4045407570A07865782778FFF7B7
:1019E00053FF6F400546E078FFF74EFFE3785F4016
:1019F0007D404540B5702078FFF746FF6378257835
:101A00005D40A3785D404540E078FFF73DFFEDB2D3
:101A10006840F070F8BD0000F0B5284E07460C464F
:101A20000FCE8DB001AD0FC50FCE0FC596E80700E4
:101A300085E80700002F3CD0002C3CD0381F214601
:101A4000024610344B780D781B0443EA0563CD78C9
:101A50002B438D78043143EA05238C4242F8043F3E
:101A6000F0D1174C04218A07036918D14FEA336378
:101A70001A0EA55CDAB2A25C42EA0562C3F307451E
:101A8000C3F30723655DE35C42EA054242EA0322B1
:101A90000CAD21F003032B4453F82C3C534050F879
:101AA000042F013153402C290361DCD101200DB0FA
:101AB000F0BD3846FBE72046F9E700BF601802009A
:101AC000722002002DE9F043154689B080460028B7
:101AD0005BD000295AD0002A5AD010230A46684603
:101AE0001946FFF7C2FE294668462A4CFFF7D5FE85
:101AF00005F11007A146A03500261DF80630E35C6D
:101B00000DF806300136102EF7D16846FFF70AFFB0
:101B1000694604A8FFF73FFF01A905A8FFF73BFFAF
:101B200002A906A8FFF737FF03A907A8FFF733FFAD
:101B3000334604AA31466846FFF797FE39466846A1
:101B40001037FFF7AAFEBD42D6D100261DF8063099
:101B500019F803300DF806300136102EF6D168461C
:101B6000FFF7E0FE29466846FFF797FE33466A46D0
:101B700031464046FFF779FE684632460021FFF7BE
:101B800081FE012009B0BDE8F083FBE70846F9E7D4
:101B90001046F7E77220020010B591F90030002BD3
:101BA00001F10F02B4BF872300230F3014788A425B
:101BB00083EA440300F8013903D012F80139DB0944
:101BC000F4E710BD08B528B158220021FFF75AFEEE
:101BD000012008BD08BD10B5044690B110220021B7
:101BE000FFF750FE04F1300010220021FFF74AFEFB
:101BF0000023636400224FF48033C4E914230120DE
:101C000010BD10BD70B50D461646044618B319B385
:101C100058220021FFF736FE2946A6643046FFF71A
:101C2000FBFE204610220021FFF72CFE04F11005D8
:101C3000A26C21462046FFF745FF21462846FFF7C4
:101C4000ABFF294604F12000FFF7A6FF2046FFF76F
:101C5000C2FF012070BD70BD084670BDF8B50D46CD
:101C60001646044600285BD00AB90120F8BD0029B9
:101C700056D0D0E9142352EA030151D012F1FF32B9
:101C800043F1FF33C0E91423406C48B3C0F110079F
:101C9000BE4200F1300009D2334631462A46204484
:101CA000FFF7E3FD636C1E446664DEE73B462A46AD
:101CB00039462044FFF7D9FD00236364F61B3D44F9
:101CC000631E04F10F005A7893F831104A4003F86C
:101CD000012F8342F7D1A26C21462046FFF7F2FE86
:101CE00004F10F07102E11D9631E691E5A7811F8DE
:101CF000010F424003F8012FBB42F7D1A26C2146ED
:101D00002046FFF7DFFE1035103EEBE7002EACD08B
:101D100033462A46314604F13000FFF7A6FDC3E7FB
:101D20000020F8BD70B50C46054670B371B34A6C1F
:101D3000102A1AD101F11002611E013A04F10F06B6
:101D400091F831004B78434012F8010F434001F8FD
:101D5000013F8E42F4D1A26C21462846FFF7B2FE25
:101D60002046FFF72FFF012070BD02F13000002157
:101D7000C2F110022044FFF785FD636C23448022EA
:101D800083F8302004F12002D6E770BD084670BD0C
:101D900008B5024800F022FB002008BD72210200B5
:101DA000012802BF024B00221A600020704700BFCA
:101DB00078020020024B01221A700020704700BFF9
:101DC0009C02002070B50E4604462168254609B9DC
:101DD0000D4605E03046FEF79BFC10340028F4D198
:101DE000284670BD2DE9F0410B4D0C4C641B80461C
:101DF00024110027A74202DB0020BDE8F0813B014F
:101E00004046E958EE18FEF783FC10B93046BDE8AD
:101E1000F0810137EEE700BF10EC002020EC00203D
:101E20002DE9F8430E4C0F4B0F4F1B1B9B108046A8
:101E30005F4300264FF00C09BE4202DB0020BDE8E4
:101E4000F88309FB06F31422E1584046E518FEF733
:101E50006CFC10B92846BDE8F8830136ECE700BFFA
:101E6000F8EB002010EC0020ABAAAAAA10B504469B
:101E7000FEF746FC142806D90D482146FFF7CAFC98
:101E80006FF0150010BD2046FFF7CAFF10B92146BC
:101E90000848F3E7084B1422186021460748FEF76C
:101EA00002FC07490548FEF751FC002010BD00BFA9
:101EB000A0220200D4220200780200207C0200202E
:101EC0007721020008B50A4B1B682BB9094B1B6828
:101ED00033B9094B186802E098470028F6D008BDCE
:101EE0009B680BB9054808BD98470028F7D1F9E76A
:101EF000BC00002078020020A00200207C0200200C
:101F000038B58268084B0D46044601680748002A28
:101F100008BF1A46FFF77EFC25B1E16811B10448FD
:101F2000FFF778FC002038BD63320200E92302008D
:101F3000AD2A020001282DE9F04106460C4625DDB8
:101F40004868FFF76DFF054650B1022E21D0A46806
:101F500068682146FFF736FF58B9214637480FE039
:101F6000374B64681D68002DF2D12046FFF73AFF19
:101F700020B10121BDE8F041FFF7C2BF3148214641
:101F8000FFF748FC6FF01500BDE8F0812C4B1D6891
:101F9000D5B12D482D4FDFF8F080FFF73BFC002630
:101FA0006B689C599A192CB92948FFF733FC00201B
:101FB000BDE8F08192682146002A08BF3A464046B3
:101FC000FFF728FC1036EBE72248234CFFF722FCF2
:101FD000224B1B1B162B02D82148FFF71BFC214B61
:101FE000214EDFF89C801B1B9B105E4300250C27B5
:101FF000B54213DB1D481E4DFFF70CFC1D4B5B1B50
:102000001E2B02D81C48FFF705FC1C4C1C4F641B00
:1020100024110026A64209DB1A48C6E707FB05F390
:102020004046E158FFF7F6FB0135E1E7330138465A
:10203000E958FFF7EFFB0136ECE700BF9221020001
:10204000780200207A210200A821020063320200F7
:10205000B8210200E0210200F8EB00201BEC002078
:10206000EB21020010EC0020ABAAAAAA0322020076
:1020700010EC00202FEC00201022020020EC0020A9
:10208000AD2A020029220200AE210200012802D05E
:102090004868FFF7EBBE024B00201860704700BF96
:1020A000780200202DE9F04F442989B08146884606
:1020B00001D9002069E0002343540446234613F865
:1020C000012B202A16D0002AF3D0504E2021204682
:1020D0003768FEF7F9FAD6F800B0002F14BFA24611
:1020E0004FF0000A0546BBF1000F05D00028E0D0F4
:1020F000F7B9DEE71C46E1E70028DAD0061B721CC0
:10210000132AD6DC214603A8FEF7CDFA08AB1E44FD
:1021100003A806F814BCFFF783FE07460028C8D0C2
:1021200005F1010A20215046FEF7CEFA0028C0D062
:102130005046FEF7E5FA4FF0000B01904FF0FF34E8
:102140005D467A6852F80B6016BB002DB1D0002CAA
:1021500048DBFFF7B7FE01462D48FFF75BFB49461A
:102160002B48FFF757FB019BDFF8B4A0EF187B1B50
:102170009C423DDC2EB12748FFF74CFB202309F899
:102180000830019BA019C01AC0B209B0BDE8F08F99
:102190003146019A5046FEF7C8FA064618B92DB9DD
:1021A0007A6852F80B500BF1100BCAE7002C07DAD3
:1021B00029461948FFF72EFB2846FEF7A1FA0446E8
:1021C000A6427A6805DA52F80B10A85D895D88424C
:1021D00006D052F80B101148FFF71CFB3446E2E71B
:1021E0000136EDE72846FEF78BFA01260446BAE7EA
:1021F00039785046FFF70EFB08F1010317F8012B61
:1022000009F808205FFA83F8B1E700BF78020020E0
:102210005D220200333B020021380200AD2A020099
:10222000211C020070B58CB00546FEF769FA044621
:10223000F8B12B461C78202C184603F10103F9D085
:10224000BCB10CAD012445F82C0D00262021FEF771
:102250003BFA40B1034603F8016B184613F8012B13
:10226000202AFAD01ABB0CAB03EB8403002243F8FC
:102270002C2C2646C4B101992D48FFF7A3FD054635
:10228000002833D10198FFF7ADFD054670BB012C46
:10229000284A17D11368ABB92749284B5B1A1E2B64
:1022A00010D82748FFF7B6FA6FF015043CE045F860
:1022B000240001340B2CC9D10A212248FFF7AAFAC5
:1022C0000024D6E7136853B9012C11DC1E4B1B68A0
:1022D00033BB01991D48FFF79DFA1D48E2E70199BC
:1022E0005868FFF76FFD05460028EDD001A90DE005
:1022F0000198FFF795FD0028E8D002994068FFF7A4
:1023000061FD05460028E1D0661E02A96B683046D3
:102310009847041E08DA00212846FFF7F1FD03E084
:10232000204601A99847044620460CB070BD00BF66
:10233000602202007802002010EC00202FEC002028
:102340007623020057230200B8000020A3230200D6
:10235000BD2302002DE9F04117491848184E194FC6
:10236000DFF87480FFF756FA1748FFF753FA002595
:10237000337833B92DB9FFF7A5FD01463846FFF78D
:1023800049FA4FF0FF3140461EF07DF90F4B1B68B4
:10239000044605305BB12279D20708D50C4A116892
:1023A0009847012521460B481EF049F9E0E7FFF761
:1023B00039FF0025F6E700BFFF22020007230200D5
:1023C0009C0200205D2202002923020098020020C6
:1023D00094020020C00000206802002010B50446CE
:1023E00086B018481EF0FAF817481EF0F7F817499B
:1023F00015481EF024F9164913481EF020F9154916
:1024000011481EF01CF9144B14491548002C08BF44
:102410001C46144B6FF008021C60002305930493C4
:1024200003920293019300934FF4FA620E4B1EF055
:102430008DFD0E4A0349044806B0BDE8104000F087
:1024400081BA00BF68020020C0000020D000002038
:1024500058010020E00100206332020018530020E0
:10246000A4020020A002002055230000A5200000A7
:1024700013B5114CBFF35B8F2068BFF35B8F60B95E
:102480000E481DF019FEBFF35B8F54E8003F44E88F
:102490000002002AF9D1BFF35B8F436804221B6856
:1024A0000DEB02019847002802DA01F017F80190BD
:1024B000019802B010BD00BF0C03002039240200B7
:1024C00043685B6A03B11847704743685B68184705
:1024D0000A2838B50446064D03D10D212868FFF7B8
:1024E000F4FFE1B22868FFF7F0FF204638BD00BFD7
:1024F0003003002000B5BFF35B8F50E8003F43EA94
:10250000010240E8002EBEF1000FF6D1BFF35B8F51
:1025100018465DF804FB0000F8B5144E04460D465D
:1025200030680821FFF7D1FF37464DB920213068C8
:10253000FFF7CBFF30680821BDE8F840FFF7C5BFC3
:102540000B48FFF767F92544AC4208D138682021D1
:10255000FFF7BBFF0748BDE8F840FFF75BB96178BC
:1025600004F8011B3868FFF7B0FFEDE730030020E7
:1025700043240200472402002DE9F04FDFF8E082F7
:10258000AE4F85B0C146D8F800004368DB6B1BB383
:10259000984708B3D8F8000043689B6BE3B19847AD
:1025A000D0B1D8F800004368DB6A002BEBD0984725
:1025B0000028E8D0D8F8004063681B69002B00F0C1
:1025C0006D8101220DF10F0120469847002880F20D
:1025D00065812046FFF774FF05B0BDE8F08F082144
:1025E00020460193FFF786FF019BCBF80030944B08
:1025F00000221A60C7E7BFF35B8F2368BFF35B8FCE
:102600001A0740F17D81A6F13003092B17D8BFF3DB
:102610005B8F2368BFF35B8F13F0100F4FF00A003E
:1026200006D0874B1A6800FB0266303E1E60AAE7A0
:1026300084490B6800FB0366303E0E60A3E73B2E27
:1026400018D0BFF35B8F55E8003F23F0080345E83F
:102650000032002AF7D1BFF35B8FBFF35B8F55E8E1
:10266000003F23F0100345E80032002AF7D1BFF302
:102670005B8F45E110212846FFF73CFFC306E0D4FD
:1026800081E7482E39D07E2E40F045816E4C23786C
:10269000002B00F0408101216C48FFF7BBF86C4B28
:1026A000217818780AF1050A0139C9B2504421701D
:1026B000FFF732FF2FE16648624A037811688B42C8
:1026C000C0F02981604ECCB232781B1B22440370CB
:1026D00060483270FFF79EF81DE15B48594B027865
:1026E00019688A42C0F01781CBB2D21A0270584AD8
:1026F0001078034413705548ECE7554C21780029B5
:1027000000F009815348FFF785F84F4A1378217884
:102710000B44137000232370FDE04B4C21780029FB
:1027200000F0F9804948FFF775F8494AEEE7BFF332
:102730005B8F54E8006F26F0010344E80032002A62
:10274000F7D1BFF35B8F16F001069DF80F500BD049
:102750005B2D7FF418AF02212046FFF7CBFE04214A
:102760002046FFF7C7FE0EE7A5F120035E2B4DD9EB
:102770000D2D2DD015D8092D7FF405AF364B1B68D4
:10278000002B3FF400AF304A1278002A7FF4FBAEF2
:102790002F4C3868217805309847237818442070EA
:1027A000F1E61B2D12D07F2D7FF4EDAE284A137871
:1027B000002B3FF4E8AE013BDBB213703868224ACD
:1027C000053311781844FFF7A7FEDCE60121C7E7BF
:1027D000DFF87CA01C4C9AF800103B682278D9F8EE
:1027E00000000B44134429465E71FFF76EFE0A2178
:1027F000D9F80000FFF769FE184B396818688AF8A5
:10280000006026701DF01BFF3E60BCE60E4A104BB8
:1028100092F800B01E780BEB06027E2A3FF7B3AEAB
:102820003C68D9F80000721C29461A70FFF74DFE6B
:10283000A319BBF1000F15D15D71A4E61C030020A4
:102840001403002010030020250300205824020058
:102850002403002052240200200300202C03002027
:102860003003002093F805A031485D710536FEF76E
:10287000D1FF34440BF1010B661C5C44B44203D11C
:102880002C48FEF7C7FF7EE65146D9F80000FFF757
:102890001CFE337806F801AB9A46EFE7396839B980
:1028A000254B18681DF0EFFE386000283FF494AE09
:1028B000BFF35B8F214C2368BFF35B8F13F0020FD4
:1028C00025463FF434AF9DF80F60D7F800A0BFF362
:1028D0005B8F55E8003F23F0040245E80021002902
:1028E000F7D1BFF35B8F59077FF585AEA6F13003B3
:1028F000092BDFF84CB07FF672AE0123CBF8003025
:10290000462E3FF40AAF3FF6BCAE432E3FF4E5AE91
:10291000442E3FF4D0AEBFF35B8F55E8003F23F069
:10292000020345E80032002AF7D1BFF35B8F2AE6A5
:10293000432402004724020018030020280300203B
:1029400010030020174B13B51860174B174C196074
:10295000174B20681A60FFF7B3FD206843689B6936
:1029600003B19847206843681BB11B6C0BB1114938
:10297000984720684368DB6A2BB9206843681B6A64
:1029800073B902B010BD98470028F6D0206843689C
:102990001B69002BEDD001220DF107019847E8E7F4
:1029A0009847EEE7180300202C0300203003002096
:1029B00020030020792500000148FEF7E5BD00BF97
:1029C000D124000008B504481DF076FB034B1860C5
:1029D000FFF7F2FF002008BD4B2402003003002067
:1029E00010B54FF02003EFF3118283F31188114CDF
:1029F000237823B982F311886FF0440010BD013BA6
:102A0000DBB2237023B182F311886FF00F0010BD89
:102A1000094B1878012128B1217082F311886FF0D9
:102A20000A0010BD197082F311884FF08042516086
:102A3000187010BD360300203503002008B50022B1
:102A400010460121FEF7B4FB0020FEF77FFB0020BB
:102A500008BD0000F8B54FF02002EFF3118382F3B8
:102A60001188254A1078441C147060B183F31188D2
:102A70004FF08043D3F80C3413F4803F14BF002090
:102A80006FF04300F8BD1D4D2F782FB1107083F308
:102A900011886FF00A00F8BD01262E7083F31188AB
:102AA0004FF0804419B33846FEF760FBC4F800715C
:102AB000D4F80433C4F804632660D4F8002192B13A
:102AC0000022C4F800210E4A13F0010F4FF0010359
:102AD00008BFC4F808330020C2F88031FEF736FB87
:102AE00000232B70C4E720BF40BF20BFE5E7C4F838
:102AF00000112660F4E700BF3603002035030020F4
:102B000000E100E0F8B506460C464FF02002EFF376
:102B1000118382F311882C4A157865B183F31188EB
:102B20004FF08043D3F8183413F4803F0CBF6FF09C
:102B300043000020F8BD0127177083F31188284651
:102B4000FEF714FB4FF080430221C3F80451D3F881
:102B50000423C3F80413C3F818459F60D3F8041185
:102B600071B39207194F58BF02224FF000014FF086
:102B70000105C3F804114FF0000058BFC3F8082343
:102B8000C7F88051FEF7E2FA4FF080430021182287
:102B9000C3F80823C3F80C11C3F8101114F0030193
:102BA000BED11020C3F83805C3F804233046C3F85B
:102BB0000453FFF74FFF0028B2D1C7F80051AFE729
:102BC00020BF40BF20BFC9E73403002000E100E080
:102BD000F8B54FF080430546D3F808E1D3F8042355
:102BE000D3F80C44D3F80071D3F80401D3F80C11D6
:102BF000D3F8106102F00102BEF1000F03D04FF0D4
:102C0000000EC3F808E127B14FF080430027C3F856
:102C100000713AB1E30341BF4FF080430122C3F892
:102C200008231A6120B14FF080430022C3F8042129
:102C300049B14FF080440021C4F80C112846FFF739
:102C4000CFFE0123636176B14FF080430021012460
:102C5000C3F810112846C3F80443FFF7FBFE10B970
:102C6000014BC3F80041F8BD00E100E003689B6838
:102C70009A68836810B5DC68002024FA00F3DB074B
:102C800007D500F5A27352F82330C3F304238B4217
:102C900004D001300828F0D16FF0120010BD006898
:102CA0008068006841B9D0F8101521FA02F202F0EC
:102CB00001021A6000207047D0F81025F9E700687B
:102CC0008068006849B9012191401BB1C0F808151E
:102CD00000207047C0F80C15FAE7C0F80435F7E794
:102CE00010B583683AB11A680A605A68196002B967
:102CF0005960002010BD18680028FAD081420ED11A
:102D00005C68086832B9A142186000D1586000239D
:102D10000B60EEE7A142106008BF5A60F7E7024679
:102D20000068E9E7F8B514460268876892680D46BE
:102D30009668A1B92146FFF799FF002811DBBA6810
:102D4000012303FA04F4144300F1400203FA00F0F3
:102D5000BC6046F82250C6F804032846F8BD6FF060
:102D60002200F8BDF8B514460268866892680D46E0
:102D7000976889B92146FFF779FF00280EDBB26812
:102D8000012303FA04F403FA00F022EA0404B46015
:102D9000C7F808032846F8BD6FF02200F8BD08B553
:102DA000002201210620FEF703FA0620FEF7CEF9E5
:102DB000002008BDF8B5036806469B68B4689868AB
:102DC000002213461546012700EB8201D1F800E1ED
:102DD000BEF1000F08D0C1F80051D1F81015C1F3B1
:102DE000042107FA01F10B430132082AECD1A5684E
:102DF00006201D40FEF7BAF9246824B90620BDE874
:102E0000F840FEF7A3B9A3681D42F5D063682A46CF
:102E1000214630469847EFE72DE9F843144602680B
:102E20008768926880469568106819B16FF0220033
:102E3000BDE8F88303F44072B2F5807FC3F301313B
:102E4000C3F3813903F4403E56D0B2F5007F0CBF86
:102E500004220022BEF5803F08BF4FF0000E13F0A1
:102E6000010FDFF8C8C04FEA810104F5E0764ED0CB
:102E70000C2A43D14FF0010E0EFA04FEC0F808E50B
:102E800049445CF8211041F003010A4340F8262030
:102E900013F0020047D09906C8D55A063ED413F065
:102EA000040F14BF4FF480364FF40036F868FDF776
:102EB000F3F9082835D021464046FFF7D7FE002811
:102EC000FB6808DADA4392FAA2F0002AB0FA80F03E
:102ED00008BF4FF0FF302402012204F4F85482406E
:102EE00044F0010400F5A27013433443FB6045F83D
:102EF00020400020BDE8F8830C22ABE7042A02BF83
:102F00004FF0010E0EFA04FEC0F80CE5B8E7494494
:102F10005CF821100A4342EA0E02B7E74FF440364C
:102F2000C4E76FF00400BDE8F88300BF90240200FE
:102F300003689B681B68D3F8082132B10020C3F8EE
:102F40000801D3F818350B7070474FF0FF30704709
:102F500003689B681B68C3F81C15D3F81C21002A62
:102F6000FBD00022C3F81C210846704703689B6809
:102F70001B68D3F8240118B1D3F88004C3F8800487
:102F800000F00F00704770B503689B681C68002351
:102F90001E46D8B2151A002D03DDD4F81C5101339A
:102FA00005B970BDC4F81C61085CC4F81C05F0E7E5
:102FB00070B503689B681C6800231E46D8B2151ABA
:102FC000002D03DDD4F80851013305B970BDC4F8F4
:102FD0000861D4F818550D54F0E703689B681A6827
:102FE000D2F8043343F08003C2F804337047036817
:102FF0009B681A68D2F8083343F08003C2F808339C
:10300000704703689B681B68D3F81C01704703680E
:103010009B681A68D2F8043343F00403C2F80433FF
:10302000704703689B681A68D2F8083343F00403BA
:10303000C2F80833704703689B681B68D3F81C010B
:10304000B0FA80F04009704703689B681B68D3F8AA
:103050000801704703689B681A68D2F8043343F488
:103060000073C2F80433704703689B681A68D2F88B
:10307000083343F40073C2F80833704701207047E7
:1030800083685960704783685B6803B1184770476D
:1030900008B5022000220121FEF78AF80220BDE8CF
:1030A0000840FEF753B808B50246FFF7AAFF30B94B
:1030B0001046FFF7C9FF003018BF012008BD0120EE
:1030C00008BD0000F8B503689B6805461A481C68EF
:1030D0001CF0F2FF436806461F68062240F2011307
:1030E0000021B84773681F6800231946082230463C
:1030F000B8470623C4F80C350823C4F81435AB6868
:103100004FF4E1321A602B689B681A689B684FF095
:10311000EB71C2F824150422C4F800250026012210
:10312000C4F81C61C4F80861A2602260034A6A60A6
:10313000284698473046F8BDF82402000C250200C6
:103140002DE9F0418378C4781E1DA3420A44064449
:103150001FD8E41AE4B2A1423EBF641AE7B20C469B
:103160002344A1EB040128BF0027DBB2C9B23444D9
:10317000A64209D183704378BB4282BF204B012213
:103180001A600846BDE8F08116F8015B02F8015D9F
:10319000EEE70578ED1AEDB2A9423FBF671AED19C7
:1031A000EFB20D4638BF5B18A1EB050132BFDBB2B1
:1031B00027460023C9B2964606EB050C664519D191
:1031C000521B0029D6D0002CD4D08C428ABF0B468B
:1031D0002346641A00F10406A1EB03018CBFE7B299
:1031E0000027C9B2F418A642C4D016F8015B02F851
:1031F000015DF8E716F8018B0EF8018DDEE700BFE0
:1032000000D0004030B5D0B1C27805788478531C26
:10321000DBB2AB4208BF0023A34210D061B10A4920
:103220000244D1F808151171C3700133DBB29D421D
:1032300008BF0023A34205D06FF00F0030BD6FF030
:10324000360030BD002030BD00D0004070B584682D
:103250000122114620461DF033FC04F11800012222
:1032600000211DF02DFC042384F831300C230025AF
:1032700084F83D300521114B84F830100D2684F878
:10328000335084F8325084F83C6084F83F5084F81E
:103290003E50D3F8042542F00102C3F80425012270
:1032A000C3F800513046C3F804231A602A46FDF7DC
:1032B0007FFF3046FDF74AFF284670BD00D0004032
:1032C00038B5124BD3F80031FBB18568012105F107
:1032D0003C00FFF797FF10F1100F04460DD010F1DE
:1032E000370414BF0021012105F13000FFF78AFFE8
:1032F000044605F118001DF0EDFB044B00221034CC
:10330000C3F800211CBF01225A6038BD00D0004024
:103310002DE9F84385680F46144605F1180814B9DD
:103320002046BDE8F883FF2C234628BFFF23E41A7C
:10333000DEB2A4B205F130094FF0FF3128461DF08E
:1033400029FC31463A464846FFF7FAFE064628462B
:103350001DF0C0FB002EE2D04FF0FF3140461DF0C3
:1033600019FCE9E7134602480A461946FFF7E8BE8A
:1033700084030020084BC3F84005D3F80435C01A75
:1033800020F07F40054B0238984282BF044B4FF437
:103390000032C3F80021704700100140FDFF7F009C
:1033A00000E100E010B5124B124CD3F8040522687E
:1033B000801A20F07F40B0F5A37F11D90E4909682B
:1033C00040F24713B0FBF3F0884228BF084603FBE6
:1033D000002323F07F432360084B18601DF01CFC82
:1033E0002068BDE8104000F24710FFF7C3BF00BFE0
:1033F000001001409C0300209803002020EB0020D7
:10340000024B0022C3F84021FFF7CCBF001001405F
:1034100046F23543984228BF1846054B1860054BC5
:103420001B6840F2471202FB0030FFF7A3BF00BF4A
:10343000980300209C03002008B5074B0022C3F826
:103440004021064B4FF40032C3F88021FFF7AAFF5A
:10345000034B01221A6008BD0010014000E100E0AA
:103460009803002070B518481CF026FE48B3436846
:10347000164D1B6801219847154B00241C60154B05
:1034800001261E6040F24713C5F80845C5F84035CF
:103490004FF48033C5F84433C5F804330E4BC5F8F8
:1034A00040414FF40032C3F88021314622461120BA
:1034B000FDF77EFE1120FDF749FEAE6020462E602E
:1034C00070BD4FF0FF3070BD782402000010014045
:1034D0009C0300209803002000E100E030B50B4A77
:1034E0000B48D2F80415D0E90045D2F804359942CA
:1034F0000AD1084A40F2471303FB1413106823F063
:103500007F4300FB043030BD1946ECE7001001405A
:103510009852002024EB002030B585B004461546B3
:1035200068460322FDF74AF90D2200210DF1030040
:10353000FDF770F920466A46694608F02DFC0446FE
:1035400020B9032269462846FDF738F9204605B020
:1035500030BD13B50C4601AA0331FFF7DDFF48B9B2
:10356000032201A92046FDF7FCF8B0FA80F04009DB
:1035700002B010BD0020FBE770B5CD1C06460C461E
:103580002846032108F0ECFB60B9637903F03F03A0
:1035900043F040036371224629463046BDE870403F
:1035A000FFF7BABF70BD0000F0B40278012A0446EC
:1035B0000B4617D003D3022A2CD0F0BC7047184A10
:1035C0000D4602F11007106851682E4603C60832F6
:1035D000BA423546F7D11278327062885A73120AAD
:1035E0009A73EAE70E4A0D4602F110071068516817
:1035F0002E4603C60832BA423546F7D112783270E9
:1036000062685A73C2F30721120CDA73120A9973B3
:103610001A74D2E7014611221846F0BCFDF7CEB865
:103620005E25020010B50C46017822788A428AB0E5
:103630000ED06946FFF7B8FF05A92046FFF7B4FF93
:1036400010220DF115010DF10100FDF78AF80AE0D5
:10365000012A0AD004D3022A0AD06FF0150002E032
:1036600040886388C01A0AB010BD40686368F9E7F3
:103670001022611C0130E8E70378428813F001034F
:1036800005D10949897B082901D89F2A0AD9808850
:10369000824207D81F2A05D9B0F5804F8CBF002081
:1036A000012070470020704720DE00200722FDF730
:1036B00085B800B5BFF35B8F50E8003F43EA0102D5
:1036C00040E8002EBEF1000FF6D1BFF35B8F184625
:1036D0005DF804FB4B09BFF35B8F50F82300BFF389
:1036E0005B8F01F01F01084100F00100704700B539
:1036F000BFF35B8F50E8003F03EA010240E8002E71
:10370000BEF1000FF6D1BFF35B8F18465DF804FBE6
:1037100010B501F01F0301249C404B0900EB83000E
:10372000E143FFF7E4FF044214BF0120002010BD75
:10373000C378002B41F2883200F1740108BF0022E7
:1037400001481DF06BBD00BFA052002008B5024625
:10375000006FA8B100210830FFF7BCFF80B1136FE4
:103760009B899B064CBF042303231372517A137A5F
:10377000994207D905211046BDE8084002F018BE5D
:103780000223F2E708BD000070B5064688790D46B1
:1037900014F0BEFA0E4B834219D1284614F0BEFA3B
:1037A000284614F0BBFA0B4C04EBC000436873B11D
:1037B000284614F0B3FA04F83060284614F0AEFA44
:1037C00004EBC000BDE8704040681DF083B970BDD7
:1037D0006CED0020A4030020C0F307231070537089
:1037E000000CC1F307231171090C90709171000A4C
:1037F000090AD0705371D171704700002DE9F0476C
:10380000804689461348144D4FF0FF3114F014FBE5
:10381000044600F1080600213046002714F02BFB77
:103820002775204614F07AFA05EBC000A0F8028054
:10383000204614F073FA05EBC000032147603046C0
:1038400014F088FB80F80290A0F800802046BDE8C4
:10385000F08700BF6CED0020A403002070B5154672
:1038600086B00C4619B9FFF7C9FF044668B30122B8
:10387000002168461DF024F9204614F04FFA144E3A
:1038800006EBC000C0F804D0204614F033FB2146FC
:10389000104814F0F4FA42F2107168461DF07AF9FB
:1038A000204614F03BFA16F8300030B1204614F0F0
:1038B000F3FA6FF0040006B070BD0DB12C60FAE7AA
:1038C000204614F0E9FA2846F5E76FF03600F2E7F3
:1038D000A4030020F4DE002070B5154D062205F18A
:1038E00008010646FCF73DFF0446D8B1062142F226
:1038F0000500FFF783FF0446B0B1062231460830C9
:1039000014F02EFB2146002242F20500FFF7A6FF2D
:10391000044638B90622314605F10800FCF74EFF8F
:103920000123EB71204670BD6FF03604FAE700BF4B
:1039300020DE002007B50621684608F011FA40B9DC
:103940009DF80530684603F03F038DF80530FFF71A
:10395000C3FF03B05DF804FBF8B507460E4642F21C
:1039600027002721FFF74AFF0446D0B1272108305E
:1039700014F0F0FA39460546FFF798FE314610225A
:10398000E81DFCF71BFF1022002105F11700FCF7D2
:1039900041FF2146002242F22700BDE8F840FFF730
:1039A0005DBF6FF03600F8BD00F13001FFF7D4BF06
:1039B00038B50121054642F22D00FFF71FFF0446EE
:1039C00058B12946083014F0D4FA2146002242F2B8
:1039D0002D00BDE83840FFF741BF6FF0360038BD1D
:1039E00038B50221054642F20C00FFF707FF0446F6
:1039F00028B30221083014F0ADFA012D024615D18A
:103A00000A211048FFF766FE50701570214600220B
:103A100042F20C00FFF722FF044628B9012D08D11D
:103A200080210848FFF745FE204638BD002343703B
:103A3000EBE76FF080010348FFF759FEF4E76FF002
:103A40003604F1E790DE002038B50121054642F248
:103A50000A00FFF7D3FE0446D8B108308DB101212A
:103A600014F087FA2146002242F20A00FFF7F6FE20
:103A7000044620B93DB120210748FFF71AFE204631
:103A800038BD2946ECE76FF020010348FFF72FFE11
:103A9000F5E76FF03604F2E790DE00202DE9F843F9
:103AA0000C46202107469046FFF7A8FE0646002850
:103AB0003CD02021083014F04DFA20220021054688
:103AC000FCF7A8FE4FF00009C14506D13146384643
:103AD0000022BDE8F843FFF7C1BE62782B78D11809
:103AE00002311F2904F1080406DD304614F0D4F930
:103AF0006FF01500BDE8F883E918501C4870981C59
:103B0000C0B20133287055FA83F314F8081C5970B9
:103B1000013054F8041C2844FCF750FE2B7814F8AC
:103B2000072C13442B7009F10109CDE76FF0360023
:103B3000BDE8F883028843889A4210B518D8052A50
:103B400016D9B3F5486F13D88488B4F5FA7F0FD22D
:103B5000C188A1F10A0292B240F67640824207D8AB
:103B600004FB0333B3EB810FB4BF0120002010BD71
:103B7000002010BD2DE9F3414C4C94F8A4300646CA
:103B800025461BB194F8A5209A4209D995F8A5308D
:103B9000013385F8A5300024204602B0BDE8F0814D
:103BA0000221002002F0ECFA804680B14FF48051EF
:103BB00004F17000FFF77DFD042106F10800FFF716
:103BC00078FD404602F0FEFA6FF00A04E4E70521B2
:103BD00004F17000FFF77EFD074610B14046FFF785
:103BE00033FF07213248FFF775FD804610B10020F2
:103BF000FFF7F6FE95F8A5309BB995F8A52095F846
:103C0000A4309A4222D10022114642F22900FFF745
:103C100025FE044658B995F8A530013385F8A5303E
:103C200005E00020FFF7C4FE04460028E5D001208F
:103C3000FFF7BEFEB8F1000F02D00120FFF7D0FE63
:103C4000002FA9D00120FFF7FFFEA5E706F1300104
:103C50003046FFF781FE04460028E8D195F8A530EC
:103C6000013385F8A53095F845305B07DFD531463F
:103C70006846FFF71BFD0123082142F24E008DF834
:103C80000730FFF7BBFD054660B1082269461044C6
:103C900014F066F92246294642F24E00FFF7DEFD97
:103CA0000446C4E76FF03604C1E700BF20DE002001
:103CB00090DE00202DE9F843424D95F8A4300646E9
:103CC0002C4623B195F8A52001339A4208DD94F8DB
:103CD000A530013B84F8A53000252846BDE8F883CF
:103CE0000221002002F04CFA804678B14FF4805156
:103CF00005F17000FFF7DDFC08217018FFF7D9FC13
:103D0000404602F05FFA6FF00A05E6E7052105F18B
:103D10007000FFF7DFFC074610B14046FFF794FE46
:103D200007212948FFF7D6FC804610B10020FFF795
:103D300057FE0020FFF73CFE054680B994F8A530F9
:103D400094F8A4209A421CD2013B84F8A530B38990
:103D50001E4923F00203B381022006F049FF94F8C4
:103D6000A53013B10120FFF723FEB8F1000F02D0F8
:103D70000120FFF735FE002FAFD00120FFF764FED2
:103D8000ABE7072142F22800FFF738FD8146A8B1D2
:103D90000721083014F0DEF83146FFF787FC2A4689
:103DA000494642F22800FFF759FD05460028D6D1C2
:103DB00094F8A530013B84F8A530D0E76FF03605C4
:103DC000CDE700BF20DE002090DE0020A9390000F2
:103DD00038B500F10805044602212846FFF798FC93
:103DE00020B12046BDE83840FFF7C4BE0321284675
:103DF000FFF78EFC20B12046BDE83840FFF75ABFE0
:103E000038BD012310B50621044600F8013B07F038
:103E1000A7FF18B9A37963F03F03A37110BD000099
:103E2000024BD3F8E430DB68184700BF20DE0020E7
:103E300038B505460C4619B9FFF7E0FC044698B1C1
:103E400040F635439D4209D12046FFF7E9FF05467C
:103E500010B1204614F020F8284638BD2146044809
:103E600014F00DF80025F7E76FF03605F4E700BF12
:103E7000F4DE002073B505460E46144600210722E5
:103E80006846FCF7C7FC21488DF8005000238DF8E8
:103E90000630012D0378ADF80160ADF803408DF8D0
:103EA00005300AD105217030FFF714FC28B9FFF75F
:103EB00041FD0446F0B98DF80550072142F20B0090
:103EC000FFF79CFC0446F0B107226946083014F065
:103ED00047F8214642F20B00FFF7AAFF0120FFF747
:103EE0007FFD044630B9012D07D14FF40071084819
:103EF000FFF7DFFB204602B070BD6FF4007104488D
:103F0000FFF7F5FBF6E76FF03604F3E720DE00205D
:103F100090DE002038B5082105461648FFF7DAFB89
:103F2000024608B1002038BD07211248FFF7D2FB36
:103F3000D0B90121002002F023F904460028F1D075
:103F40004FF480610B48FFF7B4FB204602F03AF9CA
:103F5000002D15BF3022122260214FF40061002095
:103F6000BDE83840FFF786BF1046FFF739FD00284F
:103F7000DFD038BD90DE00202DE9F04186B004AAE4
:103F8000002140F60340FFF769FC0446002840F09A
:103F9000CB81049B9B681B786BB9C34A1360C34BEE
:103FA000BFF35B8F012253E8001F43E80020002885
:103FB000F9D1BFF35B8F049813F06EFF04AA0021C0
:103FC00041F20300FFF74AFC0446002840F0AC81B0
:103FD000049BB74D99680822013105F11600FCF7E2
:103FE000EDFB049813F058FF214604AA41F20100AA
:103FF000FFF734FC0446002840F09681049883685B
:104000005A78AA73D9789A7842EA01222A821A79D0
:10401000EA73197ADA7942EA01226A825A799B793B
:1040200042EA0323AB8213F037FF214604AA41F290
:104030000900FFF713FC0446002840F07581049B3B
:10404000996806220131681CFCF7B8FB04982C70B3
:1040500013F022FF214604AA41F20200FFF7FEFB03
:104060000446002840F06081049B99684022013199
:1040700005F11E00FCF7A2FB049813F00DFFAB7EC8
:104080005E0640F1DB81214604AA42F20300FFF7FD
:10409000E5FB0446002840F04781049B996808220C
:1040A000013105F17800FCF789FB049813F0F4FE68
:1040B000214604AA42F20200FFF7D0FB0446002882
:1040C00040F03281049B9B68B3F80120A5F888205A
:1040D00042B1DA78022A28BF0222114605F18C008B
:1040E0001CF0EEFC049813F0D7FEAC7E14F0200414
:1040F00000F0FF8095F83A301C0714D504AA00217F
:1041000042F21C00FFF7AAFB0446002840F00C8195
:104110000498836853F8012F5B68C5F88430C5F8AC
:10412000802013F0B9FE95F87830980600F10081F0
:10413000082142F20100FFF761FB0446002800F06D
:10414000DF800821084413F005FF95F8783095F8D2
:104150007960990702464CBF2F200F209F0648BF69
:1041600040F0400016F0090F18BF40F40060DE0771
:1041700095F8403003F0060348BF40F01000062BCE
:1041800008BF40F4C0700021FFF726FB2146002243
:1041900042F20100FFF762FB0446002840F0C480B1
:1041A000AB7E980621D4B5F88810F1B904AA41F283
:1041B0000500FFF753FB0446002840F0B580B5F832
:1041C00088307BB9049B3B489B6899785A7842EACF
:1041D0000122A5F888209A88022A28BF02221146C7
:1041E0001CF06EFC049813F057FE082140F60140C5
:1041F000FFF704FB0446002800F0828008210844F1
:1042000013F0A8FE95F87830D907024640F1BB803C
:1042100023A1D1E90001FFF7DFFA2146002240F691
:104220000140FFF71BFB044600287DD1014604AA8C
:104230004FF60140FFF712FB044628BB049813F029
:104240002BFE214604AA4FF60240FFF707FB044667
:10425000D0B9049B1848996802220131FCF7AEFAE4
:10426000049813F019FE04AA21464FF60340FFF705
:10427000F5FA48B9049B1148996801221144FCF7EA
:104280009DFA049813F008FE0023072204A90848A9
:104290000493CDF81330FCF764FA11E0AFF300801B
:1042A00090880002008000200404002090DE00209E
:1042B00020DE0020ACDE00207FDE00207EDE00203D
:1042C000002864D15F4E3368002B7DD195F86030B3
:1042D000DB0700F195805C48FFF793FD044618BBAF
:1042E0003368002B79D05E68574A07230146B047F0
:1042F00073E0022140F66D40FFF780FA064610B9E0
:104300006FF0360410E00221083013F023FE012381
:10431000447003702246314640F66D40FFF79EFA26
:10432000044600283FF4E6AE204606B0BDE8F08122
:1043300004AA002142F22F00FFF790FA0446002859
:10434000F2D104988368B3F80180B3F8037013F0D6
:10435000A3FD042142F22400FFF750FA064600288C
:10436000CED00421083013F0F5FD2246A0F80080DD
:104370004780314642F22400FFF770FA04460028D5
:104380003FF4D6AED0E731484FF0005143E7304B11
:1043900018689A8802909B79ADF80C2002A9072230
:1043A00029488DF80E30FCF7DCF900288AD002F09D
:1043B0005DF904460028B7D102212648FFF779F9B4
:1043C0002046FFF7A7FDAFE700211C681E4A072320
:1043D0000846A04707287FF479AF2B78012B2AD114
:1043E000AB7903F0C003C02B25D11B48FFF774FA4B
:1043F0000446002898D104211648FFF75AF9D6E759
:1044000001AA00214FF60940FFF728FA00287FF49F
:1044100062AF019881684B7853B1012306220231C3
:104420000D482B70FCF7CAF9019813F035FDD4E75D
:1044300013F032FD4FE76FF0150475E76FF01204CB
:1044400072E700BFBC3A002020DE00201088000286
:104450008C18020090DE002021DE002010B5FFF74E
:104460008BFD034B1B6813B1BDE81040184710BD0E
:10447000000400202DE9F0410D46012101F080FEED
:104480000446002868D007213448FFF723F90028A4
:104490004FD102213148FFF71DF910B13048FFF725
:1044A0001BFA304904F14F0004F15608FFF7FEF8FB
:1044B00029464046FFF7FAF8192142F20D00FFF7AE
:1044C0009DF90646D0B31921083013F043FD192297
:1044D00005460021FCF79EF9002760232B70AB7086
:1044E0004146681D6F70EF70FFF7E0F894F84F30A9
:1044F0002B73B4F86030A5F80D30B4F86230A5F82D
:104500000F30B4F86430A5F81130B4F86630A5F86F
:1045100013303A46314642F20D00FFF79FF968B971
:104520002046022101F036FD2046BDE8F04101F0B1
:1045300049BE0020FFF754FA0028AAD01F23E372D7
:104540002046002101F026FD204601F03BFE002020
:10455000BDE8F041FFF7DEBCBDE8F08190DE002051
:1045600021DE002020DE002038B50721044642F27B
:104570003200FFF743F9054698B10721083013F0E0
:10458000E9FC23880380002402238470C370037134
:1045900044718471294642F23200FFF749FC2046FB
:1045A00038BD6FF0360038BDF7B5074601AA0021C7
:1045B00042F22F00FFF752F9D8B901988368B3F897
:1045C0000160B3F8035013F067FC062142F22200A9
:1045D000FFF714F9044670B10621083013F0BAFC55
:1045E0003B88038046808580214642F22200FFF707
:1045F0001FFC03B0F0BD6FF03600FAE7F0B50C21F8
:1046000085B00546B0F801606248FFF781F818B13F
:104610006149022006F0ECFA2B787BB102210020E0
:1046200001F0AEFD044638B12B78C372002101F0D1
:10463000B1FC204601F0C6FD05B0F0BD2C1D2146A1
:1046400002A8FFF733F89DF80830023BDBB2012BDC
:104650007DD8062205F111010DF101008DF8083019
:10466000FCF7ACF801238DF80030022102A801F01C
:1046700087FDEB78012B044609D16FF020014548F6
:10468000FFF735F82CB902A801F04AFC0446002CCB
:10469000D2D0204602A920F8486BFFF707F82A7EFF
:1046A000EB7D43EA0223A4F85E30AA7E6B7E43EAE8
:1046B0000223A4F86430EB7E2A7F43EA0223A4F8A5
:1046C0006630EE78E670012E1AD1344F694604F157
:1046D0004F00FEF7EBFF394604F15600FEF7E6FF08
:1046E000062107F17000FEF7F5FF48B1D7E9202356
:1046F000002203F04003134302D03046FFF7A4F931
:104700000321204601F046FC237B032B18D1EB78D4
:1047100023B1224B93F8783019071DD5022142F2BC
:104720001600FFF76BF80546B0B10221083013F010
:1047300011FC23880380294642F21600FFF778FB1C
:10474000204601F03FFD0020FFF7E4FB74E721461F
:104750006846FEF7ABFF88E7104D95F87920D20741
:1047600008D52046FFF700FF20B98021201DFEF765
:10477000A0FFE5E795F878309B0606D52046FFF7C1
:1047800013FF10B94FF48071F0E72046FEF7D0FF19
:10479000D6E700BF90DE0020D13D000020DE0020E3
:1047A00070B506460D4642F221000321FFF726F8B8
:1047B000044660B10321083013F0CCFB85700680FD
:1047C000214642F22100BDE87040FFF731BB6FF097
:1047D000360070BD2DE9F84FDFF8E080354C98F8D1
:1047E0000D3035486FF3071388F80D3001F050FB9A
:1047F000471C4FF0FF32394630481CF0DFFEB8B995
:104800002E4DDFF8BC9004F1D40B17B91CF0E6F87C
:10481000E5E76B7B1B09042B39D195F80CA0BAF1A5
:10482000000F37D15146584613F00CFB064628B905
:10483000404080F311884FF0040002DF4FF0FF3159
:1048400048461CF0A7F9D4F8C00018B113F024FBB7
:10485000C4F8C0A0304613F04DFBC4F8C000304689
:10486000FFF7DEFA98B148461CF034F9304613F0F1
:1048700055FA00211F20FEF787FFD4F8C00013F07F
:104880000BFB00233046C4F8C03013F005FB143591
:10489000013FBAE7BAF1010F04D128691C3801F0D1
:1048A00037FAF4E7BAF1020FF1D128692C3801F098
:1048B00077FEECE720DE00201CDF002008DF002070
:1048C000C8DE00202DE9F04F037D012B93B0044694
:1048D0002AD0032B40F0A68383681E885D88C6F328
:1048E0000B03C382FF2343750421083013F082FBBE
:1048F000A389AB4203D0204613F0CEFA10E0E08A41
:1049000001F0F2FB05460028F5D001F0A3FE320BC2
:1049100060752146284601F0A3F9284601F052FCB3
:10492000002013B0BDE8F08F86683278132A00F2B9
:104930009783934013F40C2F00F09283404080F350
:1049400011884FF0040002DF3146281DFEF7C2FE39
:1049500030B12846012101F01DFB3046FFF7DAFA9D
:10496000284601F02FFC0621BA48FEF7B3FE0028C6
:10497000C1D00521B748FEF7ADFE0028BBD101200C
:10498000FFF762F8B7E7A668B6F8010001F0ACFBE4
:1049900005460028AFD0337882782BB1002A40F04A
:1049A000A083037A43729CE3F3788372BAB90BB1A4
:1049B00006F04AF8AB7AD3B901232B720FE0A66850
:1049C000B6F8010001F090FB0546002893D031783D
:1049D00011B102F011F88EE78378002BE8D0284659
:1049E000317802F009F8284601F0C0F879E328464A
:1049F000FEF7ACFEF3E7A1680B788DF82830B1F82C
:104A00000130ADF82930CB788DF82B30B1F80B3070
:104A1000ADF83F30B1F80D30ADF84130B1F80F309E
:104A2000ADF843300BAE4B7C8DF845300431304649
:104A3000FEF73CFE0025062206A90DF1330006957F
:104A4000ADF81C50FBF7BAFE304606F0F9F8074601
:104A5000A8B1B04213D006220DF12D010DF139009D
:104A6000FBF7ACFE39463046FEF720FE9DF82C30B1
:104A700002338DF82C300AA8FFF7C0FD3BE7062271
:104A800008A90DF139000895ADF82450FBF796FE02
:104A9000F1E7A068F0E7A568B5F8010001F024FB94
:104AA000064600283FF427AF2B789BB92A79EB788C
:104AB00043EA0223A0F85E30AA796B7943EA022325
:104AC000A0F86430EB792A7A43EA0223A0F8663032
:104AD00000F0C4FF30465FE0A668B6F8010001F0C0
:104AE00003FB054600283FF406AF337823B90822BC
:104AF000F11C6830FBF762FE574E96F87920D2071A
:104B00000CD595F86930DB0708D52846FFF72CFD52
:104B100020B98021281DFEF7CCFDE2E296F878301E
:104B20009F066FD595F868309E066BD52846FFF72F
:104B30003BFD002866D14FF48071EBE7A368D9787C
:104B40009A781F8842EA0122ADF8282059791A790B
:104B500042EA0122ADF82A209A79D97942EA012263
:104B6000ADF82C201A7A5B7ABDB242EA03232846BC
:104B7000ADF82E3001F0B8FA804620B9022128465F
:104B8000FFF70EFEB7E60AA900F07CFF38B91E2138
:104B90002846FFF705FE404601F014FBABE60E2168
:104BA00042F22000FEF72AFE06460028F3D00E212E
:104BB000083013F0CFF90E2205460021FBF72AFE3C
:104BC000BDF828306B80BDF82A30AB80BDF82C30A2
:104BD000EB80BDF82E302F802B81314642F2200031
:104BE000FFF726F9D7E7A368188801F07DFA054694
:104BF00000283FF480AE08210430FEF789FD00282C
:104C000000F06F822846FEF793FD6AE2A368B3F8CE
:104C1000010001F069FA054600283FF46CAE061D5C
:104C200007213046FEF774FD002800F05A820A4B37
:104C300093F878309806E5D595F868309906E1D56F
:104C40002846FFF7B1FC0028DCD14FF480713046D4
:104C500061E700BF90DE002020DE0020A5682888E4
:104C600001F042FA064600283FF445AED5F802208E
:104C7000D5F8063013431FD16B89EBB90AA905F0AB
:104C80004AFFC8B1122142F21A00FEF7B7FD0746EB
:104C900000283FF41FAF1221083013F05BF92B8876
:104CA00020F8023B10220AA9FBF788FD394642F2A0
:104CB0001A00FFF7BDF80DE7336F002B40F040827C
:104CC00006F148073946202005F09CFF3067002890
:104CD00040F036823946012005F094FF3067002805
:104CE00055D081898A062CD5D5F80220D5F8063012
:104CF000134326D1B5F80A80B8F1000F21D1122153
:104D000042F21A00FEF77AFD074600283FF4E2AEB1
:104D10001221083013F01EF92B88054625F8023BB6
:104D2000316FCA791A312846FBF748FD336FD879BD
:104D30000F28BBD8C0F1100200212844FBF76AFD00
:104D4000B4E7CB0723D5D0E91C23D5F80690D5F8D6
:104D500002804B4508BF424519D1B0F878206B89D5
:104D60009A4214D1122142F21A00FEF747FD07467B
:104D700000283FF4AFAE1221083013F0EBF82B8877
:104D8000054625F8023B316FCA797A31CBE702211B
:104D900042F21B002F88FEF731FD054600283FF444
:104DA00099AE0221083013F0D5F82946078042F267
:104DB0001B007EE7A6689E486FF01001FEF797FC87
:104DC000337843B9711C40229A48FBF7F7FC08215D
:104DD0009748FEF76EFC984B1D68771C002D3FF43A
:104DE0008AAD32782B68002A0CBF384600209847DD
:104DF0006D68F3E7914DA0682A68002A3FF47BAD07
:104E0000037823B90130904700232B6073E500201D
:104E1000F9E7284613F0F6F8DFF83CA20490049B6B
:104E2000002B3FF468ADA6680921284613F0E2F88C
:104E3000337AB046334493F809B018F8013F023B87
:104E4000012B3CD841460AA8FEF730FC9DF82830DB
:104E5000023B8DF82830DAF80030C3B1284613F051
:104E6000E1F8337AB4F80C90A3813278009405907D
:104E70002B464FFA8BF10AA8DAF80070B84723697D
:104E8000BDF81420A4F80C9013FA82F3A360082153
:104E900067483778FEF71EFC28B9012F03D8414632
:104EA0000AA8FFF7E7FA317A2846013113F0A2F891
:104EB000049B03F1FF395FFA89F30493AFE740469F
:104EC00005F0BEFE002814BF014641460AA8FEF7C1
:104ED000EDFBC0E7284613F095F8594BDFF878B1A1
:104EE000DFF8788118700493049B04991B785A1E8C
:104EF0000A70002B3FF4FFACA6681821284613F077
:104F000079F80221284613F075F8F37DB146334451
:104F100093F816A019F8023F023B012B40D84946EE
:104F20000AA8FEF7C3FB9DF82830023B8DF8283015
:104F3000DBF80030F27DA28123B37378012B3AD1E4
:104F4000404BB8F80000404FA1681844FBF736FC0E
:104F5000A289A1683846FBF731FCB8F80030A28975
:104F6000023B1344A8F8003097F86430DD2B02D1DF
:104F70003648FCF74FFC97F86430EE2B02D13448EA
:104F8000FCF748FC08212A483678FEF7A3FB0028E6
:104F9000AAD1012EA8D849460AA8FFF76BFAA3E7C1
:104FA000484605F04DFE002814BF014649460AA8B0
:104FB000FEF77CFBBCE7022B4FFA8AFA27D1214B84
:104FC000B8F80000A1681844FBF7F8FBA289A168B3
:104FD0001D48FBF7F3FBB8F80020A3891D49023AEE
:104FE0001A44023B92B20B8028461649A8F80020CA
:104FF00012F0B6FFF17D284612F0FCFF32780094E3
:10500000DBF800702B4651460AA8B847BAE7032BD5
:10501000B8D1002140F2DC520A48A8F80010FBF792
:10502000F9FBEBE712F038FF6FF0150079E400BFF1
:1050300090DE0020BA030020FC030020B40300200F
:10504000BA3A0020DC3B0020C03A0020AC25020028
:10505000B1250200A003002004040020B8030020B2
:1050600004F108050221284612F0C4FF3378082B0A
:105070003FF489AC37D8052B7FF43DACA7683E7868
:10508000002E7FF438ACB7F8010001F02DF805468A
:1050900000283FF468ACFB78C3721BF083F8294A00
:1050A0003346995CAA2903D10133B3F5207FF8D1A7
:1050B000C3F520704FF4207264218DE80500414350
:1050C0002148B1FBF2F102912049FCF7A3FB00213A
:1050D000284600F05FFFAE7800232B80002E3FF4BF
:1050E00033AC284658E5302B3FF469AC3E2B7FF4B7
:1050F00002ACA6680121284612F07CFF3378013B00
:105100000C2B3FF6F8AB01A252F823F0F749000050
:10511000134E0000974A0000D94A00005D4C000081
:105120003D4B0000E74B0000B54D0000F54D000081
:10513000934A0000F74800000D4C0000D54E0000D7
:10514000306FCEE5E85A0020782502006F25020076
:105150002DE9F843037D8668012B044605D04040C5
:1051600080F311884FF0040002DF8289012AF6D90A
:105170003278132AF3D8934013F40C2FEFD000F1B8
:1051800008050221284612F035FF33780F2B18D07E
:10519000132B23D00E2B61D1A368032128461E7840
:1051A00012F028FFA36821461878FEF7EDFA16B131
:1051B0002C481BF08FFC204612F06EFE0020BDE84C
:1051C000F883A66804217778284612F013FF214659
:1051D0003078FEF7D9FA002FEDD0E9E7D4F808804F
:1051E000002798F800309F42E5DA08EB8703B3F810
:1051F0000100B3F803604FF02003EFF3118983F34C
:10520000118800F071FF054618B989F3118801373C
:10521000E7E789F3118800F11C0996B14FF02003EC
:10522000EFF3118083F31188696929B1AA690B68CA
:105230006B61914208BFAB6180F31188013EB6B249
:1052400019B9284600F0BEFFE1E748461BF0F7F920
:10525000284600F0FFFB1BF03DFCDEE7204612F085
:105260001BFE7CE7C8DE0020084AD2F8E4303BB9D8
:10527000816841B1C16831B1C2F8E4001846704795
:105280006FF0440070476FF01500704720DE00207B
:1052900070B5204CD4F8E43086B00646002B33D0ED
:1052A000012104F17000FEF704FA10F001002ED184
:1052B000194B1A491E606FF0080305900490039380
:1052C000029001900090164B16484FF420721BF08C
:1052D0003DFED4F8E4309B689847054688B926B966
:1052E00006B0BDE87040FEF747BE012104F16C0036
:1052F000FEF7DFF9C30704D404F164010A481BF088
:105300009EF9284606B070BD6FF01205F9E76FF000
:105310004405F6E720DE002000040020E85A0020C3
:10532000D547000008040020A052002008B505F071
:10533000BBFC18B18089003018BF012008BD2DE9E1
:10534000F0470D46FF21074690469A46FEF756FA6B
:10535000814600283DD0FF21083012F0FBFD0446B5
:10536000FF2200210026FBF755FAE67084F801A021
:10537000464506D1494638460022BDE8F047FEF7CB
:105380006DBA6A78E378D1180231FF2905F1080572
:1053900006DD484612F080FD6FF01500BDE8F0878D
:1053A000E118501C0871981CC0B20133E07054FA27
:1053B00083F315F8081C1971043055F8041C2044B7
:1053C000FBF7FCF9E37815F8072C1344E37001367A
:1053D000CEE76FF03600BDE8F0872DE9F3470027F0
:1053E000F6248046B0FBF4F48946E4B23D464FF023
:1053F000FF0AA54203DD002002B0BDE8F087464663
:10540000F62E28BFF626CDB9002C14BF01230323A6
:1054100009EB070201926946012242F237008DF83A
:1054200000A08DF80160FFF78AFF0028E4D137441F
:10543000A8EB06061FFA86F80135DAE7A5420CBF8D
:1054400002230023E4E700002DE9F04389B005467C
:105450009846119FFEF710F928B96FF01504204601
:1054600009B0BDE8F08305215648574EFEF732F9E2
:105470000446002840F0A3800146172202A8FBF74B
:10548000C9F96B88ADF80B30AB88ADF80D3001234E
:105490008DF80F308DF81A304C4B8DF80840186895
:1054A00000909B88ADF8043069464FF0020906224F
:1054B0000DF112008DF81D908DF81C408DF81B40E9
:1054C000FBF77CF92B78D9071BD5494606F170000C
:1054D000FEF700F910B1701CFEF7FEF933788DF875
:1054E000103003238DF8093000238DF80A3017217E
:1054F00042F23600FEF782F90446C8B96FF036046E
:10550000ADE7A86888B1437913F0C00FA5D1FEF7C5
:10551000E3F904460028A2D101238DF8103040237E
:105520008DF809308DF80A00E1E7FEF703FAF0E79D
:10553000172202A9083012F013FD2146002242F280
:105540003600FEF78BF90446002888D14146BDF8A5
:105550004000FFF742FF0446002880D12FBB2B7884
:10556000DA0722D4012142F23900FEF747F9044656
:105570000028C3D00121083012F0FBFC2146002294
:1055800042F23900FEF76AF9044600287FF467AF5B
:1055900020210C48FEF78DF82B789B073FF55FAF75
:1055A00040210848FEF785F859E7129A394642F239
:1055B0000900FEF773FA04460028D3D04FE76FF0D6
:1055C00044044CE790DE002020DE00209318020007
:1055D000F0B585B005460C4617461E46FEF74CF85A
:1055E00020B96FF01504204605B0F0BD05213E48F6
:1055F000FEF770F8002871D121463A4642F20800C1
:10560000FEF74CFA04460028EDD1002E46D12B7847
:10561000D90743D40F2200216846FBF7FBF86B88BB
:10562000ADF80030AB88ADF8023007238DF80D30AF
:105630002B78DA073CD502212B482C4CFEF74AF890
:1056400010B1601CFEF748F923788DF8053000236F
:105650000F2142F206008DF80430FEF7CFF8044621
:1056600000283ED00F226946083012F079FC21460E
:10567000002242F20600FEF7F1F804460028B2D1FB
:105680000120FEF7E1F904460028ACD12B789B07F6
:10569000A9D440211448FEF70CF8A4E70A9A314631
:1056A00042F20900FEF7FAF904460028B2D09AE760
:1056B000A86870B1437913F0C00F92D1FEF70CF9CE
:1056C000044600288FD101238DF8053026B102232E
:1056D000BEE7FEF72FF9F3E70323B9E76FF04404C1
:1056E00081E76FF036047EE790DE002020DE0020A8
:1056F00010B56FF040011B48FDF7F9FF052119486F
:10570000FDF7E8FF10B90024204610BD012142F248
:105710003900FEF773F8044600B30021083012F098
:1057200028FC2146002242F23900FEF797F8044691
:105730000028E9D16FF020010A48FDF7D8FF0721C2
:105740000848FDF7C7FF0028DDD009210548FDF70F
:10575000C1FF0028D7D0FEF7EDF8D5E76FF036048B
:10576000D2E700BF90DE002010B56FF04001104876
:10577000FDF7BDFF05210E48FDF7ACFF10B9002471
:10578000204610BD0020FEF75FF904460028F7D13F
:1057900007210748FDF79EFF0028F0D009210448A3
:1057A000FDF798FF0028EAD0FEF7C4F8E8E700BF4D
:1057B00090DE002070B50378012B05460E4610D808
:1057C0004378012B0DD841880B1F9BB243F6FC7028
:1057D000834206D8AA88131F9BB2834201D8914204
:1057E0002BD26FF015040EE007211948FDF772FF68
:1057F00058B11046FEF7F4F8044630B16FF48071EA
:105800001348FDF774FF204670BD6B787BB14FF4F1
:1058100080610F48FDF74DFFAA8869882878FEF758
:1058200029FB04460028E9D10A4B1E60EBE76FF420
:1058300080610748FDF75BFFEEE74FF48071044895
:10584000FDF737FF10F48072CED06FF04404DAE732
:1058500090DE00200404002008B508210648FDF76A
:1058600057FF30B1054B00201860BDE80840FEF737
:1058700051BB6FF0440008BD90DE002004040020FE
:1058800038B50546054812F0D7FA044620B1002184
:10589000083012F0F0FA2575204638BD8CED002056
:1058A00010B501464FF02003EFF3118083F3118808
:1058B0000B4A0023D2F8C040C2F8C03080F31188F0
:1058C00024B90120BDE81040FFF7DABF012204F13E
:1058D00008002275A381194612F0CDFA204610BDAA
:1058E00020DE00202DE9F0411D4E96F8403003F0F7
:1058F0000603062B074630D11A4D2B6843602860FB
:10590000102106F17000FDF7D4FE10F0100803D04E
:1059100000242046BDE8F0816FF0080106F1700018
:10592000FDF7E5FE4246414642F22500FDF796FFAF
:10593000044640B16FF0100106F17000FDF7D7FE8C
:10594000C5F80080E5E72C68002CE1D0BC4202D00D
:105950002368002098476468F6E76FF02204D8E7D0
:1059600020DE0020FC030020F8B51A4C236807460F
:105970000A4613B16FF00F00F8BD04211648FDF779
:10598000A9FE06460028F5D103211348FDF7A2FE23
:10599000E0B1402142F226002260FDF72FFF0546CC
:1059A00018B920606FF03600F8BD4021083012F0C1
:1059B000D1FA40223946FAF701FF3246294642F22F
:1059C0002600FDF74BFF18B12660F8BD6FF03000E0
:1059D000F8BD00BFB403002090DE002038B5064BB0
:1059E0001C68054604B938BD236813B1E97A284616
:1059F0009847A469F6E700BF70040020BFF35B8FEF
:105A00000068BFF35B8F7047C38910B504462BB1A4
:105A1000006912F041FA00232361E38110BDBFF356
:105A20005B8F50E8003F5A1E40E800210029F8D162
:105A3000BFF35B8F18467047BFF35B8F50E8003FA2
:105A40005A1C40E800210029F8D1BFF35B8F1846AB
:105A50007047000000487047ACDE0020084B70B56E
:105A60001C68054604B970BDE6683EB1B5F86630FD
:105A7000B5F86420B5F85E102846B047A469F1E790
:105A800070040020F8B5074608460E46FEF752F8A7
:105A9000054610B900252846F8BD094B1C68002CA6
:105AA000F9D0A3680BB9A469F9E73146384698479D
:105AB0000028EFD03046FEF73DF80028F3D1E9E7A3
:105AC00070040020F8B5C37804463BB900F15606CF
:105AD000084B1D6804F148071DB9F8BD00F14F06D9
