:1000000020290020A50E0000F50E00003D0D000087
:100010003D0D00003D0D00003D0D00003D0D0000B8
:100020003D0D00003D0D00003D0D000031090000B8
:100030003D0D00003D0D0000ED0800003D0D0000ED
:10004000690E00001B970000690E0000690E000099
:10005000690E0000690E0000690E0000690E0000C4
:10006000690E0000690E0000690E0000690E0000B4
:10007000690E0000690E0000690E0000690E0000A4
:10008000690E0000690E0000690E0000690E000094
:10009000690E0000690E0000690E0000690E000084
:1000A000690E0000690E0000690E0000690E000074
:1000B000690E0000690E0000690E0000690E000064
:1000C000690E0000690E0000690E0000690E000054
:1000D000690E0000690E0000690E0000690E000044
:1000E000690E0000690E0000690E0000690E000034
:1000F000690E0000690E00000000000059160000A3
:1001000000000000B50C000000000000B50C00006D
:1001100000000000B50C000000000000B50C00005D
:1001200000000000B50C000088390020091900000B
:1001300000000000B50C000000000000B50C00003D
:1001400000000000B50C000000000000B50C00002D
:1001500000000000E196000000000000B50C000067
:1001600070390020C91C000000000000B50C000020
:1001700000000000B50C000000000000B50C0000FD
:10018000000000000D1E000000000000B50C000083
:1001900000000000B50C000000000000B50C0000DD
:1001A00000000000B50C000000000000B50C0000CD
:1001B00000000000B50C00000000000015970000D2
:1001C00000000000B50C000000000000B50C0000AD
:1001D00000000000B50C000000000000B50C00009D
:1001E00000000000B50C000000000000B50C00008D
:1001F00000000000B50C000000000000B50C00007D
:1002000000000000B50C000000000000B50C00006C
:1002100000000000B50C000000000000B50C00005C
:1002200000000000B50C000000000000B50C00004C
:1002300000000000B50C000000000000B50C00003C
:1002400000000000B50C000000000000B50C00002C
:1002500000000000B50C000000000000B50C00001C
:1002600000000000B50C000053B94AB9002908BFCE
:1002700000281CBF4FF0FF314FF0FF3000F086B96F
:10028000ADF1080C6DE904CE00F01AF8DDF804E0D9
:10029000DDE9022304B07047430803F05533C01A68
:1002A000830803F0333300F03330184400EB1010B0
:1002B00000F00F3000EB002000EB0040000E704714
:1002C0002DE9F047089E04468846002B4BD18A4210
:1002D000154667D9B2FA82F24AB1C2F1200701FA93
:1002E00002F320FA07F7954047EA030894404FEAE3
:1002F000154E230CB8FBFEF71FFA85FC0EFB178882
:1003000043EA084307FB0CF1994209D9EB1807F1BE
:10031000FF3080F01B81994240F21881023F2B444C
:100320005B1AA4B2B3FBFEF00EFB103344EA0344A5
:1003300000FB0CFCA44509D92C1900F1FF3380F017
:100340000781A44540F2048102382C4440EA07406A
:10035000A4EB0C0400271EB1D4400023C6E90043DF
:100360003946BDE8F0878B4209D9002E00F0EB80BA
:100370000027C6E9000138463946BDE8F087B3FAE0
:1003800083F7002F47D18B4202D3824200F2FA80DA
:10039000841A61EB030301209846002EE0D0C6E9E1
:1003A0000048DDE702B9FFDEB2FA82F2002A40F02F
:1003B0008F80491B4FEA154E1FFA85F80127B1FBC4
:1003C000FEFC230C0EFB1C1143EA014308FB0CF15D
:1003D000994207D9EB180CF1FF3002D2994200F292
:1003E000CD808446591AA3B2B1FBFEF00EFB101467
:1003F00043EA044408FB00F8A04507D92C1900F192
:10040000FF3302D2A04500F2B6801846A4EB0804E0
:1004100040EA0C409FE7C7F1200CBB4022FA0CFEDB
:100420004EEA030E01FA07F420FA0CF521FA0CF358
:100430004FEA1E482543B3FBF8F92C0C08FB19338F
:100440001FFA8EFA44EA034309FB0AF49C4202FABB
:1004500007F200FA07F10BD91EEB030309F1FF3095
:1004600080F087809C4240F28480A9F102097344A5
:100470001B1BADB2B3FBF8F008FB103345EA034495
:1004800000FB0AFAA24508D91EEB040400F1FF3371
:100490006BD2A24569D90238744440EA0940A0FBF6
:1004A0000289A4EB0A044C45C2464B4654D351D0B2
:1004B000002E69D0B1EB0A0564EB030404FA0CFCCE
:1004C000FD40FC404CEA0505C6E90054002747E71B
:1004D000C2F1200320FA03F7954001FA02F021FA55
:1004E00003F34FEA154E3843010CB3FBFEF71FFA36
:1004F00085F80EFB173341EA034107FB08F38B42F3
:1005000004FA02F407D9691807F1FF3C2FD28B4295
:100510002DD9023F2944CB1A81B2B3FBFEF00EFB6A
:10052000103341EA034100FB08F38B4207D96918F5
:1005300000F1FF3C17D28B4215D902382944C91A61
:1005400040EA07473BE73746304609E70746E7E614
:100550001846FBE64145ABD2B8EB020A69EB0E0246
:1005600001381346A4E76046E9E7184695E7674671
:10057000D1E781467CE702382C4447E7ACF1020C16
:100580002B442FE7384608E73746E9E6704700BFB7
:100590000139034611F8012F0AB91A70704703F8A0
:1005A000012BF7E70138013910F8013F11F8012F4D
:1005B000934202D1002BF7D11A46981A704710B512
:1005C0005AB10139841810F8012B11F8013FA042EB
:1005D00001D09A42F7D0D01A10BD1046FCE7F0B512
:1005E00081EA0004A50703460BD0013B0A4491426F
:1005F0001DD1F0BD002AFCD011F8014B03F8014BCE
:10060000013A9C07F6D11D1F0C468F183E1B032E86
:1006100008D894086FF0030505FB0422A4002344C6
:100620002144E2E754F8046B45F8046FEEE711F853
:10063000014B03F8014FDAE7F0B5C9B203469C0756
:100640000FD141EA012444EA04441D469F187E1B51
:10065000032E0CD8940803EB840413449C4209D164
:10066000F0BD002AFCD003F8011B013AE7E745F88A
:10067000044BECE704F8011BF0E74FF0FF30704744
:10068000014B1860704700BF6036002010B504466B
:1006900086B028B10146104800F01CFE06B010BD1F
:1006A0000E4800F017FEA023CDE90344ADF80E304C
:1006B000F023ADF81030012300930949094B05944C
:1006C000032203A802F05AFC014608B10648E3E7FA
:1006D000064800F0FFFDE1E788BD0000A8BD00006E
:1006E00070BD00000CBE0000BFBD0000E5BD0000F5
:1006F00008B5074800F0EEFD064802F0C9FB0146C8
:1007000020B10548BDE8084000F0E4BD08BD00BFC9
:10071000F5BD00008D06000088BD0000054B1B687C
:10072000082B01BF044B1868B0FA80F0400918BFCD
:1007300000207047300100103401001008B54FF060
:100740002003EFF3118183F31188FFF7E7FF40B136
:100750004FF080430022C3F80C21C3F81021C3F8E6
:100760003825FFF7DBFF10B1384B394A1A60FFF725
:10077000D5FF18B1374BFB22C3F81825FFF7CEFF82
:1007800048B13548354B02681B6822F00F0203F070
:100790000F0313430360FFF7C1FF18B1304B4FF451
:1007A00000721A60FFF7BAFF48B14FF08043D3F8E8
:1007B0000024D20744BF6FF00102C3F800244FF0B9
:1007C0001023D3F80022002A03DBD3F80432002BD5
:1007D0002FDA244B0122C3F80425D3F80024002A81
:1007E000FBD04FF010221221C2F80012D3F80024DF
:1007F000002AFBD04FF010231222C3F80422194B19
:100800001A46D3F800140029FBD00021C3F80415C0
:10081000D2F80034002BFBD0BFF34F8F1249134B9B
:10082000CA6802F4E0621343CB60BFF34F8F00BF8E
:10083000FDE70D4B4FF0FF329A62DA620C4B0D4A26
:100840001A6081F31188002008BD00BF8C5600405B
:100850004881030000F00040E40E00405802001000
:100860004096024000E0014000ED00E00400FA057F
:10087000C03600200090D003084881684A897F2A4A
:100880000BD8C069884208D000B50AF06BFD5DF84E
:1008900004EB03494FF080520A6070472C1400208B
:1008A00004ED00E0044800232021C21801332E2B60
:1008B00082F80013F9D1704700E100E0084A0949C5
:1008C000936809685966084918664B6843F0805375
:1008D0004B60002383F311889368586E704700BF04
:1008E0002C140020BCDF000000ED00E00E498A68F7
:1008F0004FF028001044EFF3098C80E8F01F0B4FF5
:100900004FF00066202080F31188CA698A603E603B
:10091000106E0023136680F3118802F1280090E81E
:10092000F01F8CF3098870472C14002004ED00E0C0
:100930001EF0040F0CBFEFF30880EFF3098081690C
:1009400031F8021C11F0FF0101D0022907D040400C
:1009500080F3118804494FF080520A60704700B557
:1009600000F02CFA00BD000004ED00E010B50446D4
:100970000AF0CEFC22680146BDE81040014800F0B4
:10098000A9BC00BF85BF000010B504461A4800F09E
:10099000A1FC04F11800194CFFF7E8FFA36A9A01C3
:1009A00002D5174800F096FCA36ADB0102D5154872
:1009B00000F090FCA36A180302D5134800F08AFCEB
:1009C0000E4CA36A590302D5104800F083FCA36AB9
:1009D0009A0302D50E4800F07DFCA36ADB0302D522
:1009E0000C4800F077FC054A936A6FEA03436FEA0C
:1009F0001343936210BD00BF86C0000000ED00E00D
:100A00009FC00000B3C00000CEC00000EDC00000D9
:100A100013C100002EC1000038B5044619480D4628
:100A200000F058FC04F11800174CFFF79FFFA36A71
:100A3000D90604D51548BDE8384000F04BBCA36A80
:100A40001A0701D51248F6E7A36A9B070FD511488C
:100A500000F040FC616BA36A180607D50E4800F051
:100A600039FC1DB1A36A23F08003A36238BDA36AD9
:100A7000DA0701D50948DEE7A36A9B06F6D50848E0
:100A8000D9E700BFCFBF000000ED00E0E6BF0000E7
:100A9000F8BF00000CC0000025C0000036C00000F8
:100AA00056C0000038B504461D480D4600F012FC43
:100AB00004F118001B4CFFF759FFA36AD80404D5B2
:100AC0001948BDE8384000F005BCA36A190501D5F6
:100AD0001648F6E7A36A9A0514D5154800F0FAFB04
:100AE000A16BA36A1B0407D5124800F0F3FB1DB1EC
:100AF000A36A23F40043A3620A4B9B6A58050ED5F0
:100B00000D48DEE7A36A5905FAD4A36ADA0501D5D0
:100B10000A48D6E7A36A9B0401D50948D1E738BD46
:100B20004CBE000000ED00E0E6BF0000F8BF000092
:100B300063BE000025C000007DBE000099BE00001D
:100B400056C0000038B5274D6B68C3F30803DA1EA2
:100B50000446092A3AD8DFE802F00533352F39393F
:100B600039393937204800F0B5FBEB6A9A0703D5CD
:100B70001E4800F0AFFB0CE0EB6A5B0009D51C4897
:100B800000F0A8FB1B4B1B784BB101212046FFF75F
:100B900043FF21460020BDE8384000F013B9164B52
:100BA0001B7823B101212046FFF77CFFF1E7134BAF
:100BB0001B889BB2002BECD02046FFF7E5FEE8E750
:100BC0000021E3E70021EEE70D48D2E70D480E498A
:100BD000A3F110020F2BD8BF01460C4800F07AFB9E
:100BE000D7E700BF00ED00E0E0BE0000F8BE000067
:100BF0001ABF000028ED00E029ED00E02AED00E03A
:100C00003ABF0000B2BE0000C7BE000071BF0000C6
:100C1000024A536943F010035361704700ED00E04E
:100C200043B2002B08DB012200F01F0002FA00F0A3
:100C30005B09024A42F82300704700BF00E100E070
:100C400043B2002B0DDB01225B0900F01F0002FA0A
:100C500000F02033034A42F82300BFF34F8FBFF365
:100C60006F8F704700E100E04209054B00F01F0064
:100C700053F82220012303FA00F01040704700BF10
:100C800000E100E043B2002BA8BF03F1604301F193
:100C900001014FEA4111AEBF03F5614300F00F00BF
:100CA000034BC9B2ACBF83F800131954704700BF9F
:100CB00014ED00E000F042B808B572B6044B986934
:100CC00018B100229A6109F0A9FF62B608BD00BF01
:100CD0002C140020F8B50C4616461F4604220A9B29
:100CE000099905460AF012FEA6F1200121440C4A9A
:100CF00021F00701002322F00102C5E91333C5E901
:100D000016468A61069A4A60079A8A60089ACA60FB
:100D10004FF080720F60CA61A9642B66F8BD00BFF6
:100D200085B70000014910220A60704710ED00E00D
:100D3000404080F3118830BF704700BF404080F3CF
:100D40001188DFF81CC0DCF800C01CF4006C0CBF7C
:100D5000EFF30880EFF3098000B5FFF7F3FE00BD65
:100D600004ED00E0042838B504460D4613D00528EC
:100D700013D0032813D10C4800F0ACFA0AF0C8FADB
:100D8000AA690146094800F0A5FA29462046BDE8AF
:100D9000384000F017B80648EEE70648ECE7014691
:100DA000054800F097FAE9E75AC10000D8C10000F1
:100DB00080C100009AC10000B5C100000146006872
:100DC000FFF7D0BF052810B50CD00AF0C3FC60B106
:100DD0000AF0C0FC0C490D4B002808BF19460C480E
:100DE00000F078FAFFF7A4FFFCE70AF0C3FC002844
:100DF000EED1084C0848A16800F06CFAA068BDE884
:100E0000104000F00BB800BF14C2000018C2000070
:100E100029C200002C14002049C2000038B5054644
:100E20004FF02003EFF3118483F311880AF0FEFCE6
:100E30000B4B9B68AB420DD10A4B5A68C2F30802B8
:100E400022B90AF08FFA2046FFF738FD5A6842F0BF
:100E500080525A602046BDE838400AF0E7B900BF2A
:100E60002C14002000ED00E000B572B60B4A90692A
:100E700000281EBF0021916109F0D0FE62B6EFF399
:100E80000580A0F110004FEAC0000549014409C9DE
:100E900098475DF804EBFFF7EFBC00002C1400202E
:100EA000F8000000202080F3118805484FF400610D
:100EB000401880F30988022080F3148800F006B8F7
:100EC000602A002030BFFFF7FDBF00BF08B5074B09
:100ED000074A23F07F039360BFF34F8FBFF36F8FF9
:100EE00009F0CCFE09F0D4FE09F0FAFE0000000083
:100EF00000ED00E008B5FFF7E5FFBDE80840FFF7AB
:100F0000BBBC0000154B16491A6830B50D68C2F31A
:100F1000072295420FD8002248685A60954200F196
:100F20000C000AD105225A600E4B01221A70BFF341
:100F30004F8FBFF36F8F002030BD50F80C1C50F85E
:100F4000044C9A6021F01F0141F01001114344F05C
:100F50000104D96001321C61E0E700BF90ED00E0C0
:100F60007C36002000000020002070470B68013311
:100F70000B60014B1B681847C43600202DE9F04F69
:100F800085B09B460E9CDFF890A0012CB8BF0124D1
:100F9000012B0CBF3023202315468046894601943F
:100FA000029301260A2700220AF101040AB9AA4580
:100FB0001FD2B5FBF4F049463030C047013601225C
:100FC000013F012FB5FBF4F14FF00A0304FB11556B
:100FD000BAFBF3FAE8D1494605F13000C047BBF14E
:100FE000030F03D1019B9C1B002C0FDC05B0BDE857
:100FF000F08F019BBB42E3DBBBF1020FE0D8494617
:10100000029803920136C047039AD9E74946202047
:10101000C047013CE8E700BFFFC99A3B30B58A688A
:101020000C68551C14B14B68934201DC8D6030BDD7
:10103000013B934208BF00228D600CBFE254A054D4
:10104000F5E70000014B1860704700BFC436002070
:101050002DE9F04F89B01C464FF0000A531E06469A
:101060000F4604934FF0FF39D046002505E06DB9D7
:10107000252800F012813946B047049B13F8010F70
:1010800004930028F3D109B0BDE8F08F642861D043
:1010900019D839280AD8312850D22D283CD03028E8
:1010A0003DD0252808D13946B047DEE7582800F062
:1010B0008880632800F0EB8039462520B047049BE8
:1010C00039461878F0E7702871D006D8692841D0E1
:1010D0006C283CD06828D0D0EEE7752857D017D8B8
:1010E0007328E9D1236804F1040B1C46254615F842
:1010F000010B002840F0C080B8F1030F40F0D6800B
:10110000E41AA9EB0404002C00F3BC805C46ACE7B5
:10111000782856D07A28DEE74FF00308ADE7B9F11A
:10112000000F0EDAB8F1000F00F0BD80A0F1300919
:10113000B8F1000F08BF4FF002089EE7B9F1000FA9
:10114000F4DB0A2303FB0909A9F13009F0E70AF1EE
:10115000010A92E7BAF1010FC5BF073424F0070373
:1011600025681D68D4BF043403F10804002D05DA96
:1011700039462D20B0476D4209F1FF39CDF8009076
:1011800043462A4639463046FFF7F8FE6DE7BAF186
:10119000010FC5BF073424F0070322681A68CDF891
:1011A0000090CCBF03F1080404344346EAE7394613
:1011B0003020B04739467820B0474FF008094FF04B
:1011C0000108BAF1010FC7BF073424F007032368F1
:1011D0000593C2BF03F108041B6805934FF0080292
:1011E0004FF00003D8BF04340393079393460BF1E9
:1011F000FF3B059B4FEA8B0023FA00F010F00F0035
:1012000009D1079B13B9BBF1000F24D14FF0300C6B
:1012100007E0069AEBE709288CBF4FF0570C4FF018
:10122000300C394660440692B047039B0795013362
:101230000393BBF1000FECD1B8F1030F7FF415AFAE
:10124000039BC3EB4905002D7FF70FAF39462020E4
:10125000B047013DF7E7531E91450693E9DBB8F12E
:10126000010F03D139463020B047E2E7B8F1020F51
:10127000DFD139462020F7E7394603932C46B047A3
:10128000039B33E739462020B047013C3BE7206809
:10129000251D3946B0472C46E7E6AA46A8464FF03A
:1012A000FF390125E9E64FF00108E6E65C46054610
:1012B000E3E6000013B502AC002344F8043D024607
:1012C0000B4603482146FFF7C3FE019802B010BD4C
:1012D0006D0F00000FB407B504A951F8040B01917C
:1012E000FFF7E8FF03B05DF804EB04B070470000BF
:1012F0000CB430B585B008ABCDE9010153F8042B2F
:1013000000930446002501A906480395FFF7A0FEB7
:10131000DDE902309842B8BF255405B0BDE8304041
:1013200002B070471D10000070470369C1688B420E
:101330009DBF8268D21802F1FF3203F1FF3394BFE0
:10134000501A581A70472DE9F041D0E90267044657
:10135000F61B4068964288461546384405D9FFF783
:101360003EF93D44E560BDE8F0813246AD1BFFF734
:1013700036F92A4608EB06016068FFF730F9F1E715
:101380002DE9F843C5680646894617464FF0000820
:101390003469B3687068A54228BFE418013C621B39
:1013A0005C1BBC4228BF3C46944228BF14464946B9
:1013B00028442246FFF713F9B3682544AB4208BF1F
:1013C00000253F1BA044A144F560E1D14046BDE8A3
:1013D000F883000010B5114C114AA2610323C4E93F
:1013E0000433104BE36122664FF480630E4A23629C
:1013F0006266002310220D49A362E01D6362E3626E
:101400002367E3666367A266FFF7C2F808492046D0
:10141000FFF7BEF82023A37110BD00BF58150020B0
:101420006EC20000110000200100002077C2000001
:101430007BC20000F8B5184C182300FB033503FBF2
:1014400000402544C46A012C0F46164611D003D330
:10145000022C1BD000240AE02846FFF766FF8642D4
:1014600005D8324639462846FFF76DFF34462046F8
:10147000F8BD2846FFF759FF8642344628BF044688
:10148000224639462846FFF75EFFF0E72846BDE8CA
:10149000F840FFF775BF00BF58150020FFF79ABF4F
:1014A00013B5114CBFF35B8F2068BFF35B8F60B93E
:1014B0000E4809F08DFBBFF35B8F54E8003F44E812
:1014C0000002002AF9D1BFF35B8F436804221B6836
:1014D0000DEB02019847002802DA00F005FD0190AB
:1014E000019802B010BD00BF1404002082C20000A9
:1014F00010B5054CFFF7D2FF2046FFF7A3FD2046AD
:10150000FFF7BEF8002010BD0D15000037B502A989
:10151000044601F8010D4FF02003EFF3118583F32A
:10152000118801220020FFF785FF85F311882046EE
:1015300003B030BD10B54FF02003EFF3118283F3F9
:101540001188114C237823B982F311886FF044007D
:1015500010BD013BDBB2237023B182F311886FF021
:101560000F00F5E7094B1878012128B1217082F3AB
:1015700011886FF00A00EBE7197082F311884FF0C1
:10158000804251601870E3E71A040020190400201B
:1015900008B5002210460121FFF774FB0020FFF779
:1015A0003FFB002008BD0000F8B54FF02002EFF32C
:1015B000118382F31188254A1078441C147060B19D
:1015C00083F311884FF08043D3F80C3413F4803F39
:1015D00014BF00206FF0430007E01D4D2F782FB19E
:1015E000107083F311886FF00A00F8BD01262E7089
:1015F00083F311884FF0804419B33846FFF720FB7E
:10160000C4F80071D4F80433C4F804632660D4F835
:10161000002192B10022C4F800210E4A13F0010FFC
:101620004FF0010308BFC4F808330020C2F880312E
:10163000FFF7F6FA00232B70C4E720BF40BF20BF9E
:10164000E5E7C4F800112660F4E700BF1A040020A3
:101650001904002000E100E0F8B54FF08043054692
:10166000D3F808C1D3F80423D3F80C44D3F800719D
:10167000D3F80401D3F80C11D3F8106102F0010281
:10168000BCF1000F03D04FF0000CC3F808C127B124
:101690004FF080430027C3F800713AB1E30341BF24
:1016A0004FF080430122C3F808231A6120B14FF0A4
:1016B00080430022C3F8042149B14FF08044002147
:1016C000C4F80C112846FFF735FF0123636176B19A
:1016D0004FF0804300210124C3F810112846C3F8BD
:1016E0000443FFF761FF10B9014BC3F80041F8BD97
:1016F00000E100E0F8B506460C464FF02002EFF39B
:10170000118382F311882C4A157865B183F311880F
:101710004FF08043D3F8183413F4803F0CBF6FF0C0
:1017200043000020F8BD0127177083F31188284675
:10173000FFF786FA4FF080430221C3F80451D3F833
:101740000423C3F80413C3F818459F60D3F80411A9
:1017500071B39207194F58BF02224FF000014FF0AA
:101760000105C3F804114FF0000058BFC3F8082367
:10177000C7F88051FFF754FA4FF080430021182238
:10178000C3F80823C3F80C11C3F8101114F00301B7
:10179000BED11020C3F83805C3F804233046C3F87F
:1017A0000453FFF701FF0028B2D1C7F80051AFE79B
:1017B00020BF40BF20BFC9E71804002000E100E0BF
:1017C00003689B6810B59C688368DA68002022FA79
:1017D00000F3DB0707D500F5A27354F82330C3F3F9
:1017E00004238B4204D001300828F0D16FF012009E
:1017F00010BD00688068006841B9D0F8101521FA62
:1018000002F202F001021A6000207047D0F81025A1
:10181000F9E700688068006851B9012101FA02F215
:101820001BB1C0F8082500207047C0F80C25FAE766
:10183000C0F80435F7E7836810B518686AB15A68CC
:101840000860196002B95960002010BDA142106003
:1018500008BF5A600DE0024600680028F4D08842B4
:10186000F9D108685C68002AF0D1A142186000D163
:10187000586000230B60E7E7F8B5144602688768F4
:1018800092680D469668A1B92146FFF799FF002896
:101890000EDBBA68012303FA04F4144300F140029A
:1018A00003FA00F0BC6046F82250C6F8040328464C
:1018B000F8BD6FF02200FBE7F8B5144602688668B1
:1018C00092680D46976889B92146FFF779FF00288D
:1018D0000BDBB268012303FA04F403FA00F022EAF6
:1018E0000404B460C7F808032846F8BD6FF022006E
:1018F000FBE708B5002201210620FFF7C3F9062007
:10190000FFF78EF9002008BDF8B5036806469B680E
:10191000B468986800231F461D464FF0010C00EB89
:101920008302D2F8001141B1C2F80051D2F810156B
:10193000C1F304210CFA01F10F430133082BEED15E
:101940000620A568FFF77CF924685CB13D40A368D8
:101950001D4204D063682A462146304698472468D1
:10196000002CF4D10620BDE8F840FFF759B900007B
:101970002DE9F0411446026887689268064695682A
:10198000106819B16FF02200BDE8F08103F44071D6
:10199000B1F5807FC3F3013EC3F3813203F4403CD1
:1019A00055D0B1F5007F0CBF04210021BCF5803F6C
:1019B00002EB8E02DFF8C0E008BF4FF0000C13F01E
:1019C000010F5EF8222004F5E07E4BD00C2940D1B7
:1019D0004FF0010C0CFA04FCC0F808C542F00302F9
:1019E0000A4340F82E2013F00200CDD09906C9D545
:1019F0005A063BD413F0040F0CBF4FF400384FF4D9
:101A00008038F868FEF748FC082832D02146304676
:101A1000FFF7D6FE0028FB6808DADA4392FAA2F054
:101A2000002AB0FA80F008BF4FF0FF3024020122F4
:101A300004F4F854824044F0010400F5A27013430A
:101A400044EA0804FB6045F8204000209CE70C2194
:101A5000ACE7042902BF4FF0010C0CFA04FCC0F8FB
:101A60000CC5BBE70A4342EA0C02BAE74FF4403820
:101A7000C7E76FF0040087E7BCC2000003689B68FB
:101A80001B68D3F8082132B10020C3F80801D3F84D
:101A900018350B7070474FF0FF30704703689B6834
:101AA0001B68C3F81C15D3F81C21002AFBD00022A8
:101AB000C3F81C210846704703689B681B68D3F86D
:101AC000240118B1D3F88004C3F8800400F00F009B
:101AD00070470000F8B503689B68054618481C6805
:101AE00009F076F8436806461F68062240F20113A3
:101AF0000021B84773681F68002319460822304642
:101B0000B8470623C4F80C350823C4F81435AB686D
:101B10004FF4E1321A602B689B681B684FF0EB7240
:101B2000C3F824250423C4F8003500200123C4F899
:101B30001C01C4F80801A3602360024B6B60F8BD70
:101B400024C300003CC300002DE9F0418378C47831
:101B50001E1DA3420A4406441FD8E41AE4B2A1425F
:101B60003EBF641AE7B20C462344A1EB040128BF30
:101B70000027DBB2C9B23444A64209D1837043784E
:101B8000BB4282BF204B01221A600846BDE8F081AB
:101B900016F8015B02F8015DEEE70578ED1AEDB28B
:101BA000A9423FBF671AED19EFB20D4638BF5B1867
:101BB000A1EB050132BFDBB227460023C9B2944630
:101BC00006EB050E764519D1521B0029D6D0002C04
:101BD000D4D08C428ABF0B462346641A00F1040617
:101BE000A1EB03018CBFE7B20027C9B2F418A642EB
:101BF000C4D016F8015B02F8015DF8E716F8018B16
:101C00000CF8018DDEE700BF00D0004030B5D0B148
:101C1000C27805788478531CDBB29D4208BF00234C
:101C20009C4210D061B10A490244D1F808151171E3
:101C3000C3700133DBB29D4208BF00239C4205D034
:101C40006FF00F0030BD6FF03600FBE70020F9E7C2
:101C500000D0004070B5846801221146204609F08A
:101C6000A1FB04F118000122002109F09BFB0423D1
:101C700084F831300C23002584F83D300521114BC8
:101C800084F830100D2684F8335084F8325084F8EC
:101C90003C6084F83F5084F83E50D3F8042542F06D
:101CA0000102C3F804250122C3F800513046C3F8ED
:101CB00004231A602A46FEF7E5FF3046FEF7B0FF20
:101CC000284670BD00D0004070B5134CD4F80031E8
:101CD0005BB18568012105F13C00FFF797FF10F12A
:101CE000100F03D10023C4F8003170BD373014BF8A
:101CF0000021012105F13000FFF788FF064605F1BC
:101D0000180009F059FB00231036C4F800311CBF3D
:101D100001236360E9E700BF00D000402DE9F843EC
:101D200085680F46144605F1180814B92046BDE829
:101D3000F883FF2C234628BFFF23E41ADEB2A4B2A7
:101D400005F130094FF0FF31284609F099FB314683
:101D50003A464846FFF7F8FE0646284609F02CFBAF
:101D6000002EE2D04FF0FF31404609F089FBE9E751
:101D7000134602480A461946FFF7E6BE68040020EB
:101D8000084BC3F84005D3F80435C01A20F07F4053
:101D9000054B0238984282BF044B4FF40032C3F81F
:101DA0000021704700100140FDFF7F0000E100E0CE
:101DB00010B5124B124CD3F804052268801A20F09B
:101DC0007F40B0F5A37F11D90E49096840F247134F
:101DD000B0FBF3F0884228BF084603FB002323F042
:101DE0007F432360084B186009F072FB2068BDE850
:101DF000104000F24710FFF7C3BF00BF00100140C2
:101E0000800400207C04002014390020024B0022B2
:101E1000C3F84021FFF7CCBF0010014046F2354324
:101E2000984228BF1846054B1860054B1B6840F2C6
:101E3000471202FB0030FFF7A3BF00BF7C04002065
:101E40008004002008B5074B0022C3F84021064B50
:101E50004FF40032C3F88021FFF7AAFF034B0122A1
:101E60001A6008BD0010014000E100E07C04002081
:101E700070B5184808F0ACFE48B34368164D1B68AF
:101E800001219847154B00241C60154B01261E604C
:101E900040F24713C5F80845C5F840354FF4803384
:101EA000C5F84433C5F804330E4BC5F840414FF430
:101EB0000032C3F88021314622461120FEF7E2FEAF
:101EC0001120FEF7ADFEAE6020462E6070BD4FF0D3
:101ED000FF30FBE7A4C20000001001408004002096
:101EE0007C04002000E100E030B50B4A0B48D2F83A
:101EF0000415D0E90045D2F8043599420AD1084AC0
:101F000040F2471303FB1413106823F07F4300FBD8
:101F1000043030BD1946ECE700100140E016002007
:101F20001839002070B54FF02003EFF3118583F3CB
:101F30001188144C144E237803EBC312013303F0C1
:101F400003033244237085F31188402928BF4021C0
:101F50000E4D0138134602EB4106B34204D1002373
:101F600002F81130104670BD10F8014F24090233F9
:101F70002C5D03F8024C047804F00F042C5D03F888
:101F8000014CEAE7BB040020BC040020A2C300000F
:101F900070B51D4A1D49137803EB4306013303F066
:101FA0000103137003788AB006EBC60604460E449C
:101FB00007AD032B21D8DFE803F0021A1C1E1449D9
:101FC0002846FEF7E5FA62780492A2780392E27856
:101FD00002922279019262790092A37905950D4AC5
:101FE0001B213046FFF784F930460AB070BD0A491C
:101FF000E6E70A49E4E70A49E2E70A4A0A212846ED
:10200000FFF776F9DFE700BFBA0400208404002060
:1020100056C300007FC300005DC3000064C300001E
:102020006EC3000078C3000070B50B4D06460FCD9F
:102030008AB06C460FC40FCD0FC495E80300092E7B
:1020400084E803009BBF0AAB03EB8606034856F8FF
:10205000280C0AB070BD00BF24BD000078CC000081
:10206000BFF35B8F50E8003F43EA010240E8002CD9
:10207000BCF1000FF6D1BFF35B8F18467047BFF37A
:102080005B8F50E8003F03EA010240E8002CBCF1FE
:10209000000FF6D1BFF35B8F184670472DE9F04172
:1020A000064686B09079264F8846154608F05AFCB9
:1020B000874213D0AC79204608F054FC214B224AC9
:1020C0002249CDE90473CDE90240CDE9003620482C
:1020D000204BFFF7FFF806B0BDE8F081284608F076
:1020E00047FC1D4C04EBC0004388B34210D0284687
:1020F00008F03EFC134B039304EBC00013494288E5
:102100000093CDE90162134B0F4A1448FFF7E2F840
:10211000284608F02DFC04EBC0004368002BDAD001
:10212000284608F025FC04F83080284608F020FCFA
:1021300004EBC000406806B0BDE8F04109F03CB9CE
:10214000D4390020A7BD00008CC6000093C6000053
:1021500096C60000B3C30000C0060020DBC6000026
:10216000054BBFF35B8F1B6FBFF35B8F43FA00F030
:1021700000F00100704700BFD03600202DE9F04785
:10218000804689461348144D4FF0FF3108F07EFC1D
:10219000044600F1080600213046002708F095FCAF
:1021A0002775204608F0E4FB05EBC000A0F802808C
:1021B000204608F0DDFB05EBC000032147603046F8
:1021C00008F0C6FC80F80290A0F800802046BDE828
:1021D000F08700BFD4390020C006002070B5154636
:1021E00086B00C4619B9FFF7C9FF044668B301224F
:1021F0000021684609F0D6F8204608F0B9FB144ED5
:1022000006EBC000C0F804D0204608F09DFC214633
:10221000104808F05EFC42F21071684609F030F98F
:10222000204608F0A5FB16F8300030B1204608F033
:102230005DFC6FF0040006B070BD0DB12C60FAE7D4
:10224000204608F053FC2846F5E76FF03600F2E729
:10225000C00600208437002070B5154D062205F118
:1022600008010646FEF7ABF90446D8B1062142F252
:102270000500FFF783FF0446B0B10622314608305F
:1022800008F06CFC2146002242F20500FFF7A6FF91
:10229000044638B90622314605F10800FEF79FF9D9
:1022A0000123EB71204670BD6FF03604FAE700BFE2
:1022B000D036002007B50621684601F065FF40B919
:1022C0009DF80530684603F03F038DF80530FFF7B1
:1022D000C3FF03B05DF804FB38B50221054642F2A6
:1022E0000C00FFF74BFF044620B30221083008F032
:1022F0002FFC012D024614D10A20FFF731FF507048
:1023000015702146002242F20C00FFF767FF0446D9
:1023100028B9012D08D180210848FFF7A1FE2046E9
:1023200038BD00234370EBE76FF080010348FFF7EF
:10233000A6FEF4E76FF03604F1E700BF4037002057
:102340002DE9F8430C46202107469046FFF716FF7B
:10235000064600283CD02021083008F0F9FB202256
:1023600000210546FEF768F94FF00009C14506D186
:10237000314638460022BDE8F843FFF72FBF6278A8
:102380002B78D11802311F2904F1080406DD3046EC
:1023900008F0ACFB6FF01500BDE8F883E918501C9D
:1023A0004870981CC0B20133287055FA83F314F8B2
:1023B000081C5970013054F8041C2844FEF70FF92A
:1023C0002B7814F8072C13442B7009F10109CDE781
:1023D0006FF03600E0E708B50820FFF7C1FE0246BF
:1023E00040B90720FFF7BCFE20B11046BDE8084009
:1023F000FFF772BF002008BD012310B50621044677
:1024000000F8013B01F0C0FE18B9A37963F03F0367
:10241000A37110BD2DE9F0418EB00CAA002140F649
:102420000340FFF7DBFE044600287ED10C9B9B682F
:102430001B786BB9A04A1360A04BBFF35B8F0122DE
:1024400053E8001F43E800200028F9D1BFF35B8F59
:102450000C9808F04BFB0CAA002141F20300FFF797
:10246000BDFE0446002860D10C9B954D996808225A
:10247000013105F11600FEF7B2F80C9808F036FBB2
:1024800021460CAA41F20100FFF7A8FE2E460446A1
:1024900000284AD10C9883685A78AA73D9789A7818
:1024A00042EA01222A821A79EA73197ADA7942EA2F
:1024B00001226A825A799B7942EA0323AB8208F0AF
:1024C00015FB21460CAA41F20900FFF787FE0446DE
:1024D00058BB0C9B996806220131681CFEF77FF8F7
:1024E0000C982C7008F002FB21460CAA41F2020065
:1024F000FFF774FE0446C0B90C9B99684022013175
:1025000005F11E00FEF76BF80C9808F0EFFAAB7EB1
:1025100058060ED46B4B6C4A6C496D48CDE90033BC
:102520006C4BFEF7D7FE6FF0120420460EB0BDE8EC
:10253000F08121460CAA42F20300FFF74FFE044649
:102540000028F2D10C9B99680822013105F178002E
:10255000FEF745F80C9808F0C9FAAB7E99067AD5D3
:1025600096F83A301A0700F19280082142F20100F1
:10257000FFF704FE0446002874D00821084408F040
:10258000E7FA96F8403003F00603062B0CBF4FF431
:10259000C1730223002203701B0A43708270C27051
:1025A000027142718271C271214642F20100FFF74D
:1025B00015FE04460028B8D1082140F60140FFF777
:1025C000DDFD054600284DD00821084408F0C0FA7A
:1025D000802343700223C37020230470847004712D
:1025E00044718471C3712246294640F60140FFF7C9
:1025F000F5FD0446002898D101460CAA4FF601408B
:10260000FFF7ECFD2F4D002872D0CDE90055324B7D
:10261000324A2E493248FEF75DFE002307220AA9FE
:1026200027480A93CDF82B30FDF7C9FF002840F06A
:10263000D9802C4A13689046002B40F0138196F8FD
:102640006030DB0700F13381CDE90055264B234A8A
:102650001E49264838E1022140F66D40FFF78EFD05
:10266000054610B96FF036045FE70221083008F024
:102670006FFA0123447003702246294640F66D40EC
:10268000FFF7ACFD044600283FF46AAF4DE70CAA03
:10269000002142F21C00FFF7A1FD044600287FF450
:1026A00044AF0C98836853F8012F5B68C6E9202378
:1026B00008F01CFA59E700BF1C0700204037002033
:1026C000D0360020A7BD00001EC7000093C6000042
:1026D00025C7000002C4000028C400008CC600000A
:1026E00059C70000001600200AC40000FDC8000001
:1026F0000C9B9A499F689A48B7F80130032B96BF04
:10270000984A994A52F82320CDE90235CDE9005282
:10271000964B974AFEF7DEFDB7F80130B7F8032075
:10272000022B3AD1022A38D8924B53F822308B49E7
:102730009148CDE90225CDE900538D4A8B4BFEF738
:10274000C9FD7B790695D7F809100591032B98BF31
:102750008A4AB7F80710049194BF52F82320824A9E
:10276000B9798748CDE90231CDE900527F4B804AE3
:102770007A49FEF7AFFD0C9808F0B8F90CAA0021D1
:102780004FF60240FFF72AFD074640B1CDE900555C
:10279000764B7C4A71497C483DE7734BC7E70C9BFD
:1027A0007A48996802220131FDF719FF0C9808F068
:1027B0009DF90CAA39464FF60340FFF70FFD30B1E3
:1027C000CDE90055694B6F4A6449714823E70C9B7A
:1027D0007048996801221144FDF701FF0C9808F038
:1027E00085F91AE76C4B18689A880C909B79ADF8BC
:1027F00034200CA9072269488DF83630FDF7DFFE3A
:1028000000283FF416AF6548FFF7C2FB644B584AF7
:1028100052490095CDE901056248FEF75BFDB77BA3
:102820003846FFF701FC0595B38A0493338A504A72
:102830004A49CDE90273CDE90050594B5A48FEF799
:1028400049FDF77B3846FFF7EFFB0495738A484A4A
:102850004249CDE90273CDE90050514B5348FEF790
:1028600039FD62E600211F684C4A07230846B84735
:1028700007287FF4E4AE3378012B04D1B37903F059
:10288000C003C02B5ED0CDE90055494B494A3349BE
:102890004948FEF71FFD6FF01507CDE90055474B7E
:1028A000444A2E494648FEF715FD3C463DE609AA36
:1028B00000214FF60940FFF791FC40B1CDE90055EA
:1028C0003B4B304A25493F48FEF704FD19E0099B80
:1028D00099684B7853B10123062202313A4833708C
:1028E000FDF77DFE099808F001F9C4E7CDE9005530
:1028F0002F4B244A19493548FEF7ECFC099808F09B
:10290000F5F82648FFF778FD07460028C5D1D8F826
:10291000003083B1D3F80480204A07230146C04722
:102920000728A8D0CDE90055214B224A0B49284859
:10293000FEF7D0FC9FE7CDE900551D4B114A074932
:102940002448F5E72048FFF787FC07460028A4D174
:1029500004212148FFF784FB55E700BF93C6000020
:1029600094C7000088CB000078CC000028C4000089
:102970008DC700007CCB0000BDC7000068CC000004
:10298000E5C700008CC6000022C800002F370020D9
:102990005BC800002E3700204CBD0000D036002060
:1029A0001AC400000ECA00002BCA000079CA000039
:1029B0000AC400001EC700009EC9000034C4000005
:1029C000DFC9000094C80000D1360020C4C8000050
:1029D00039C9000068C900004037002010B5FFF772
:1029E00019FD044630B902210648FFF739FB20469D
:1029F000FFF7F1FC044B1B681BB12046BDE81040FB
:102A0000184710BD4037002018070020024BD3F8AC
:102A1000C430DB68184700BFD03600202DE9FF41E5
:102A2000444C454E04F1B408737B43486FF30713DD
:102A30004FF0FF320121737309F072F8002861D161
:102A4000737B1B09012B0BD9042B0CD03B4A009242
:102A5000CDE901323A493B4B3B4A3C48FEF73AFC50
:102A600008F038FCE0E7377B002FF9D139464046C3
:102A700008F012F80546002853D04FF0FF313448D3
:102A800008F0FEFCD4F8A03063BB284608F05CF8E0
:102A9000C4F8A0002846FFF7B9FF0028E0D0274B74
:102AA0002C4A27490093CDE901032B4B2B48FEF715
:102AB00011FC274808F080FC284607F059FF284BF6
:102AC00003EBC00000221F214088FFF7E7FAD4F88B
:102AD000A00008F00BF800232846C4F8A03008F046
:102AE00005F8BDE7154B1B4A15491E48CDE90033D3
:102AF000194BFEF7EFFBD4F8A00007F0F7FFC4F87E
:102B0000A070C2E70D4B134A0D491748CDE90033B9
:102B1000164BFEF7DFFB404080F311884FF00400B6
:102B200002DF064B0B4A06491148CDE900330A4B38
:102B3000EFE700BFD036002098370020A7BD000087
:102B400093C60000E5C300008CC60000B0CA0000B8
:102B5000583700201EC70000DCC30000B1C40000CD
:102B6000C0060020E1CA00000CCB0000F4C3000046
:102B700036CB00002DE9F04F067D012E8BB00446C8
:102B800040F0C48087683B780E3B012B0ED8674B22
:102B9000674A68496848CDE90033684BFEF79AFBFD
:102BA000404080F311884FF0040002DF00F1080379
:102BB00002211846079307F0E2FF3F783E2F40F0CE
:102BC0009580A7680798314607F0D9FF3E78082E10
:102BD00044D0092E67D0022E76D10798584F07F0BF
:102BE000D6FF804608F1FF385FFA88F8B8F1FF0F8A
:102BF00049D0A6680798092107F0C1FF337A33440A
:102C0000711C93F809B07378023B012B4FF0070257
:102C100008A856D8FDF7E3FC9DF82030023B8DF85C
:102C200020303B68A3B1079807F0B9FF337AB4F8B6
:102C30000CA0A3818146079B32783D684FFA8BF147
:102C400008A8A8472369A4F80CA013FA89F3A36085
:102C5000317A0798013107F092FFC3E7A768394836
:102C60006FF01001FFF70BFA3B7843B9791C402253
:102C70003548FDF7B4FC31463248FFF7F1F9334BE4
:102C80001D687E1C35B9204607F030FF00200BB0D0
:102C9000BDE8F08F3A782B68002A0CBF3046002040
:102CA00098476D68EEE72A4D2A68002AEBD0A068A5
:102CB000037823B90130904700232B60E3E700201D
:102CC000F9E7FDF78CFCACE7A589A0682946FFF77A
:102CD00029F9164B0093CDE90165CDE903031D4A9F
:102CE0001D4B14491D48FEF7F5FACCE7A589A068ED
:102CF0002946FFF717F90D4B0093CDE90303CDE902
:102D000001750E4B134A0B491548ECE7074B00932E
:102D1000CDE90163064A134B06491348FEF7DAFA78
:102D2000204607F0E3FE6FF01500B0E7A7BD0000F6
:102D30001EC7000093C60000E3C40000D2C3000019
:102D40001C07002040370020D40600201407002074
:102D5000D00600208CC60000C0C3000022C50000C1
:102D600057C500003DC4000089C500002DE9F341AE
:102D7000037D8568012B04460ED0324B324A33491D
:102D80003348CDE90033334BFEF7A4FA404080F3DB
:102D900011884FF0040002DF8389012B07D8294BEB
:102DA000294A2A492C48CDE900332A4BECE72B78F5
:102DB0000E3B012B15D800F108060221304607F022
:102DC000DEFE2B780E2B14D00F2B2BD0204607F0D5
:102DD0008DFE1C4B1C4A1D492048CDE900331D4B7C
:102DE000D2E7184B184A19491D48CDE90033194B51
:102DF000CAE7A36803213046B3F801701D7807F0D5
:102E0000BEFEA368224619783846FFF747F915B188
:102E1000144808F0D1FA204607F068FE002002B0FE
:102E2000BDE8F081A568B5F802806F7804213046CE
:102E300007F0A5FE224629784046FFF72FF9002F1C
:102E4000E9D0E5E7A7BD00001EC7000093C600005B
:102E5000ADC5000045C40000F1C5000069C6000012
:102E60002BC6000058370020084AD2F8C4303BB9BE
:102E7000816841B1C16831B1C2F8C40018467047D9
:102E80006FF0440070476FF015007047D036002097
:102E900070B52E4DD5F8C43086B006466BB92C4BB4
:102EA0002C4A2D492D48CDE900332D4BFEF712FA5F
:102EB0006FF01204204606B070BD012105F17000CC
:102EC000FFF7CEF810F001003DD1264B26491E60D9
:102ED0006FF00803CDE90203CDE90400CDE900005D
:102EE000224B23484FF46B7208F082FCD5F8C430B3
:102EF0009B689847044650B1154B0093CDE90103F8
:102F0000144A174B14491B48FEF7E4F9D2E76EB98F
:102F1000FFF780FA04460028CCD1022105F17000A9
:102F2000FFF79EF82046FFF756FAC3E7012105F1A7
:102F30006C00FFF795F8C307BCD405F164010E4897
:102F400008F003F8B6E76FF04404B3E7D03600208A
:102F5000A7BD00001EC7000093C600005CC40000AF
:102F600052C4000018070020601700201D2A00002E
:102F70002007002085C40000E81600207FB5054624
:102F80001E4643880078C0070AD45048807B082832
:102F900006D89F2B04D86FF01504204604B070BDEE
:102FA000A8889842F7D31F2BF5D9B0F5804FF2D8F7
:102FB0000520FFF7D5F8002840F0858042F2080090
:102FC000FFF7BEF904460028E7D15EBB2B78D9078E
:102FD00028D40F2200216846FDF72EFB6B88ADF840
:102FE0000030AB88ADF8023007238DF80D302B7818
:102FF000DA0721D50220FFF7B3F810B13448FFF704
:103000002BF9324B1B788DF8053000230F2142F24B
:1030100006008DF80430FFF7B1F8044610BB6FF0DE
:103020003604BAE7089A314642F20900FFF788F9F8
:1030300004460028CDD0B0E7A86870B1437913F0FA
:10304000C00FA8D1FFF708F904460028A5D1012335
:103050008DF8053026B10223D8E7FFF72BF9F3E707
:103060000323D3E70F226946083007F077FD214696
:10307000002242F20600FFF7B1F8044600288CD186
:10308000012142F20A00FFF779F806460028C6D06F
:103090000121083007F06BFD2246314642F20A005A
:1030A000FFF79CF8044600287FF477AF20210948F9
:1030B000FEF7D6FF2B789B073FF56FAF4021054801
:1030C000FEF7CEFF69E76FF0440466E7D0360020D4
:1030D000D13600204037002038B50546054807F0B6
:1030E000D5FC044620B10021083007F0EEFC257520
:1030F000204638BDF439002010B501464FF02003BA
:10310000EFF3118083F311880B4A0023D2F8A0401B
:10311000C2F8A03080F3118824B90120BDE8104026
:10312000FFF7DABF012204F108002275A3811946D6
:1031300007F0CBFC204610BDD0360020F7B5186054
:10314000C31D23F003030E461A80013A94B20546CC
:103150000422002106FB0400FDF76EFA4FF6FF770C
:10316000013CA4B2BC4201D103B0F0BD04FB066037
:103170002B180422801B0DEB020128440193FDF75C
:103180002EFAEDE773B5046806468CB1E31D23F013
:103190000303042221460DEB02001D88FDF71FFAF0
:1031A000019B23B1DA1D22F00302013D158033603B
:1031B000204602B070BD70B50C6806460D461CB1C5
:1031C000E31D23F003031C88042229463046FDF743
:1031D00006FAF21D22F00302631C13802E6070BDFC
:1031E00002FB01007047401A80B2B0FBF2F070475A
:1031F00010B5114401384FF6FF73013A92B29A426A
:1032000000D110BD11F8014D00F8014FF5E7106035
:103210000860704710B51468206014686160106021
:1032200010BD884203D01AB1436813607047002074
:1032300070470B68834207D00AB1586810600BB121
:103240001A680A60184670470023FBE72DE9F0472B
:10325000114FDFF848900426013EF6B2FF2E19D038
:1032600033B24FEA830803EB43031D0104244FF0FC
:103270000C0A0AE01AFB04510A1D04EB08003A4448
:10328000394409EBC000FFF7C2FF013CE4B2FF2C58
:10329000F0D1E1E7BDE8F0870808002088070020AA
:1032A000F0B4124B05460F460C26302472B1614330
:1032B00006FB00142344597A187A814204BF013175
:1032C000197228463946F0BC07F03CBA4C4306FB5D
:1032D000004423449C7ADA7AA24204D101329A72E1
:1032E000F0BC07F08FBAF0BC704700BF08080020A0
:1032F000F8B505460E461C468AB10123627820784F
:10330000801A10F0030729D003B3012F39D00132FE
:10331000D2B222703146284607F074FA1CE007F05A
:103320005FFA0028E9D03146284607F033FA002832
:10333000E3D030230C22734302FB0533124A1A44B4
:10334000937AD27A9B1A18BF0123D7E70232D2B2FE
:103350002270D4E9020398470020F8BD002BF8D072
:103360000132D2B222700423302212FB06320C2327
:1033700013FB0523044A60681A442146FFF74AFFFD
:10338000C8E73846E9E700BF080800202DE9F04FFC
:1033900000EB400389B01B014FF00008434E04933B
:1033A00005460424CDF80480013CE4B2FF2C0BD187
:1033B000019B002B72D0B8F1000F6FD14246294615
:1033C000284607F0BFF969E00DF1200B00230C2718
:1033D0004BF8043D4FF0300907FB04F309FB0530BF
:1033E00031185A46496830580293FFF71AFF049B78
:1033F00017FB0437F31982460393BAF1000F32D05A
:10340000079B1F785A78BF1A07F00307012F04D1D2
:10341000013A5A70D3E902029047079A137852781A
:10342000DBB29A1A02F00302012A05930DD0029B27
:10343000039909FB0530304400224068FFF7F9FE8C
:10344000079A059BC2F804A05370029B09FB053341
:10345000F1185A464968F058FFF7E3FE012F8246FB
:10346000CBD1BCB9B0B930220C236A4303FB042290
:103470003244917AD07A884213D130226A4303FBD6
:10348000042333441A7A597A91421CBF5A724FF07E
:10349000010889E72946284607F0B4F909B0BDE8D4
:1034A000F08FD17201220192E7E700BF08080020E7
:1034B00010B5421E00200139C9B2FF2900D110BD4C
:1034C00012F8013F002BF6D05C1E01302340C0B241
:1034D000F8E7F0B5427F0468064613460020FF2A4D
:1034E00001D10020F0BD02EB820504EBC5078A4242
:1034F000D7F808C014F83550604402D013462A4665
:10350000EDE7934200D175771BB203EB830304F818
:1035100033503B78FF2BE5D003EB830304EBC3046C
:10352000A3686344A360DDE730B5551A15F4000FB6
:103530008368446909D125F07F421A44A2420ED91A
:10354000121B00248260446130BD8A1A22F07F423F
:10355000934201D99A1AF1E72244D41A0022A41AFC
:103560000022EFE7034600221A709A6A5962084661
:103570000AB1D96A104770472DE9F047857F0123CA
:103580000446C3771DB9437FFF2B02D1C577BDE841
:10359000F08706F07FFC6769667FD4F80080C71B60
:1035A00027F07F47FF2E06D006EB860608EBC60104
:1035B0008B689F4218D2A27AE37A934205D10133F5
:1035C000DBB2022B08BF0023E372E37A04EB830330
:1035D0000122DD60656A0023E377AC4623460421BF
:1035E0000320BDE8F0476047FF1A1D448A784B78F6
:1035F00018F836609B1ADBB2012BD3D1D1F80C90AE
:10360000013A8A70B9F1000FCCD048696369CA8B5E
:10361000281A184420F07F400B69496AC847C1E75F
:103620002DE9F04FC27F95B08346002A40F0BF835A
:10363000436906930121837A8177C07A984200F02A
:103640008C800B44DBB2022B08BF00238BF80A30BE
:103650000BEB83030391D3F80C80069B434423F0C8
:103660007F43CBF814309BF81D300593DBF8003016
:103670000793DBF804300D939BF809300493002383
:1036800009934FF0FF0A049B013BDBB2FF2B04932D
:1036900066D19BF81D30059A9B1A18BF012304932D
:1036A000039BCBB1DBF8009000279BF81D50FF2D4A
:1036B0000BD02EB206EB860609EBC604A368434581
:1036C00040F23281A3EB0803A360DDE903230599EF
:1036D000A94218BF13460493DBF800300A93DBF8C5
:1036E000043012939BF809300393039B013BDBB238
:1036F000FF2B039340F068819BF81D30059A93429D
:10370000099B40F049834BB9DBF804309BF8094032
:103710000393013CE4B2FF2C40F09C8200238BF821
:103720001E30049B4BB19BF81D30FF2B40F0E18213
:1037300006F082FB08B9CBF818009BF81F30002B6D
:1037400000F03583DBF824405B460122032104208E
:10375000A44615B0BDE8F04F60470392904682E75B
:103760000D9B049A03EBC2077B680893F978BE7837
:103770008E4288D0089B387806EB460212019D18CD
:10378000731CDBB2984208BF0023BB70089B9A5C95
:10379000032AECD9697801EB81030C930C98079B01
:1037A00003EBC004052A6378A078A3EB0003DBB227
:1037B0000AD84BB1042A0CD16A6852B9AA6842B936
:1037C000EA6832F07F4204D101212846FFF7CAFEA1
:1037D000CCE7012B40F09D805846FFF77AFE2B780E
:1037E000A060042B064640F08680DBF814300A9374
:1037F00006F050FB0A9B0B90C31A23F07F4343440F
:103800009E4202469EBF6269921B9B18626896BFE9
:103810006361F31A0023002A49D0A989002946D000
:1038200001F1FF3C1FFA8CFCA5F80CC09A42B4F8D9
:103830001EE001D2F44502D3DFF8749231E0616AF0
:10384000994E9A488E19864281BF01F1E87101F5BF
:10385000D43101F5A5716162D4E908168CBF4FF02F
:1038600001094FF00009761A91440EF1FF3E66629D
:10387000A3EB0903A4F81EE0D8E7D4E908160E4428
:1038800089498A48711881428EBF002101214E4426
:1038900011440EF1010E8CBF666266620B44A4F8FF
:1038A0001EE0B4F81EE0F445E7D8A4F81CC0AA88CE
:1038B0001344A360EA88636913446361DDE90A1273
:1038C0002046FFF731FEA2692B8913446A89A36160
:1038D00093428CBF9B1A0023A361AB7B03B1E370BF
:1038E000079B0C9A03F832A0637895F801A0013386
:1038F0006370002169E7A37863706B789BF81C20E4
:103900009A4201BFFF238BF81C300023CBF81830FC
:10391000EFE704215B46DBF8244001220846A0477C
:103920000123BE700993AEE6DBF818209342A8EBA2
:1039300003081F4429BFFF23D31A8BF81C30002330
:10394000CBF81830A3691BB18BF81C50CBF818309A
:103950000022A26019F836308BF81D30D4F804C06C
:10396000BCF1000F2CD0A08BDFF840E1D4E90813A4
:103970000B444D49591871459FBFA3F1E873A3F556
:10398000D433A3F5A573636292BF039B63620023E4
:10399000634410F1FF301A44E8D2069BA260DBF8C2
:1039A0001410DA192046FFF7BFFDA38BE383002331
:1039B000E37009F836A0637801336370AA4674E6B1
:1039C000A37863705546F9E7129B039A03EBC20391
:1039D00006935B680C93069B93F80190BAF1FF0F76
:1039E00040D00FFA8AF303EB83030A9AD04612F809
:1039F00033A002EBC3040025DBF800300D93FF2356
:103A00002370A28BE38B934240F280809B1A9BB27F
:103A10000E930FFA88F303EB8303DB001393C8E0E4
:103A200009EB49030C9A1B01D51809F101025FFA51
:103A300082F9069A12784A4508BF4FF000090C9A9D
:103A4000D35C032B0ED195F801800A9B08EB880408
:103A500003EBC4046278A3789A4208D00121284677
:103A6000FFF780FD069B9B784B45D9D13DE6EB687F
:103A7000DBF8141063602B692362AB8AA383AB6904
:103A8000A361EB69E3602B6A23610026AB68A36046
:103A900066616A682046FFF747FD01236662E68398
:103AA000E3704FF0FF0AA7E75A2B17FF592B177F38
:103AB000B6562EFE6068002800F0C780D4E90812D0
:103AC000AE4B0A44AE49D3188B429CBFA2F1E872B8
:103AD000A2F5D432A3688BBF6262A2F5A572002260
:103AE0006262034498BF01221344E28BA360013257
:103AF000E283626993424FF0000189BF9B1AD31A97
:103B0000A36061619CBF6361A16052E000237FE715
:103B1000B669091A46B9079FB84200D23E1A0B93FC
:103B2000079612F83E3053E00893F8E730B200EB06
:103B3000800002EBC0071097BF681197774509D244
:103B4000109FBF69002F54D1119EAEEB060E12F8E4
:103B500030604CE0FF264CE0089B98456AD0089BFB
:103B6000FF2BA7D01E4633B203EB83030793079ABC
:103B70000D9B03EBC207FB8BBA8B934288BF9B1A4A
:103B80007A688CBF9BB20023002A93D00E9A93428E
:103B900090D8FA78E3789A428CD231465846FFF7AB
:103BA00098FCBB787B70079A0D9BB86003F832A035
:103BB000B246139BDBF80020DBF81800079002EBFD
:103BC000030CFF209BF81D30DCF808100B930890C5
:103BD000FF2B06D003EB830E02EBCE06B0688142CA
:103BE00096D8DCF818000F9001EB000E1E46FF2E51
:103BF0009CD10F9828B107988142ADD3FF2E40F099
:103C0000D2800B98CCF80810834218BFBDF92C0065
:103C10008CF8003016BF00EB80008BF81D8002F896
:103C20003080FF2B06D003EB830302EBC3039A68BB
:103C3000511A9960A378013363700021002D3FF47D
:103C4000CDAE2846FFF78EFCC8E60121F6E701233A
:103C5000049359E5039B03EBC4056E686B78EA781F
:103C60009A423FF456AD03EB43031A01B318B25C1A
:103C7000012A24D0022A29D1D3E9019099F8002001
:103C8000D3F80CE0DBF800C0DBF81410FF2A02D0F8
:103C90000768B94223D09BF81D2001600021FF2A4C
:103CA00009D002EB82080CEBC80ADAF808000144DC
:103CB000DAF81800D0B189F80020CEF80010002200
:103CC0005A629A6A12B1D96A002090476B782A78B2
:103CD0000133DBB29A4208BF00236B70BEE702EBF0
:103CE0008202DEF800101CF83220D8E71CF83820D9
:103CF000D5E7059BFF2B07D106F0CCF8044606F06C
:103D00008DF808B9CBF814409BF81D30DBF8002083
:103D100003EB830302EBC3030A269D6806F0BAF89F
:103D2000DBF81440031B23F07F430333AB422CBF6B
:103D3000E418641924F07F440746DBF82830204655
:103D4000984706F0A7F8C01B20F07F40E41B033023
:103D500024F07F44A0427FF6F0AC013EDED1094B57
:103D6000094A0A490A48CDE900330A4BFDF7B2FA7D
:103D7000404080F311884FF0040002DF5A2B17FFF8
:103D8000592B177FA7BD00001EC7000093C6000077
:103D90009ACC000080CC0000002B3FF458AF0023E9
:103DA0008BF81E30BFE4B0457FF4DDAE42E715B0BE
:103DB000BDE8F08FF0B51C4E059F9DF81840DDF86A
:103DC0001CC02C25454306EB050E72518EF80810D9
:103DD0008EF80930CEF80470013BDBB2FF2B13D113
:103DE00004BB2C2358433318089A1A62099A5A6262
:103DF00018300A9A9A6232184FF6FF713450918047
:103E000020465C615C81F0BD1AB207EBC201C1F8CB
:103E100004C017F8322002EB4201A41A0CEB011C7B
:103E2000E4B2D9E70120EEE7C8080020074A2C21B8
:103E300000FB012310B45C6A2CB1A44601220321CB
:103E4000022010BC604710BC704700BFC8080020AB
:103E50002DE9F041224C2C2700FB07480DB2D8F881
:103E6000040000EBC50C10F835009CF80340661CFC
:103E7000F6B2B04298BF00269CF80100B0422DD0A7
:103E8000DCF8040004EB4404250144194FF0030E50
:103E900000F805E06360069BA360079BE360089B56
:103EA00023610A9BA361BDF82430A3820B9BE361CD
:103EB0000C9B2362022363620D9BA3620E9B6270C4
:103EC000E3628CF80360D8E9083508469847434612
:103ED00000220421A847606ABDE8F0810120FBE7C9
:103EE000C80800202DE9F843224C2C2700FB074985
:103EF0000DB2D9F8040000EBC50C10F835009CF8A1
:103F00000340661CF6B2B04298BF00269CF8010040
:103F1000B0422DD0DCF8040004EB44042501441920
:103F20004FF0040800F80580A380BDF82030E3803E
:103F3000BDF824302381BDF828306381BDF82C30D2
:103F4000A3819DF83030A373022363620D9BA362AB
:103F50000E9B6270E3628CF80360D9E9083508466D
:103F600098474B4600224146A847606ABDE8F8835F
:103F70000120FBE7C80800202DE9F0411A4C2C264F
:103F800000FB06480FB2D8F8040000EBC70C10F88D
:103F900037009CF80340651CEDB2A84298BF00258D
:103FA0009CF80100A8421CD0DCF8040004EB440497
:103FB000240107194FF0050E00F804E07A70022280
:103FC000C7E90923069BFB628CF80350D8E9083443
:103FD00008469847434600220421A047786ABDE876
:103FE000F0810120FBE700BFC80800202DE9F04167
:103FF0001C4C2C2700FB07480DB2D8F8040000EB3E
:10400000C50C10F835009CF80340661CF6B2B042AF
:1040100098BF00269CF80100B04221D0DCF804E0F3
:1040200004EB440425010EEB050402200EF8050004
:10403000C4E90123069BE360079BA362FF25089B5D
:1040400065706062E3628CF80360D8E90835084661
:104050009847434600220421A847606ABDE8F081E2
:104060000120FBE7C80800202DE9F0411A4C2C265E
:1040700000FB06480FB2D8F8040000EBC70C10F89C
:1040800037009CF80340651CEDB2A84298BF00259C
:104090009CF80100A8421CD0DCF8040004EB4404A6
:1040A000240107194FF0010E00F804E0FF2078709A
:1040B0000220C7E90902FB628CF80350D8E90834F2
:1040C00008469847434600220421A047786ABDE885
:1040D000F0810120FBE700BFC80800202DE9F04176
:1040E000084C2C2505FB0043D3E908370646084653
:1040F000984706FB0543BC4600220421BDE8F04179
:10410000604700BFC808002005F0C4BE401A20F078
:104110007F40704708B50346012B08460ED833B1DF
:1041200019B106220649FCF75AFA054807E019B109
:1041300006220449FCF753FA024800E0002008BDBB
:10414000260900202009002070B506460D4604F01F
:1041500079FF044610B10C24204670BD04F086FFA0
:1041600010F0060FF7D1062229461EB10248FCF7CF
:1041700036FAF1E70148FAE7260900202009002075
:10418000002303700B70704773B50C464618351B3F
:104190008CB1FDF785F9032C019007D904220DEBB2
:1041A00002012846FCF71BFA043CF0E7224601A96D
:1041B0002846FCF714FA002002B070BD08B502488A
:1041C000FEF752FE002008BDECCC00007FB5214D6B
:1041D00000264FF0FF31284606F0DBFE044618B3F8
:1041E00000F04CFE0228039421D801280EBF0021C4
:1041F0004FF0FF310120FEF76FFF044618B1014672
:10420000039800F013FD039B0021D88805F008F8FF
:1042100004A850F8043D1E6004F08EFF24B1A38969
:1042200020469BB1FEF7A6FC07F054F8D1E70A4BF5
:104230000A4A0B490B48CDE900330B4BFDF74AF80E
:10424000404080F311884FF0040002DF06F04EFC7E
:10425000EAE700BFC4390020A7BD00001EC7000068
:1042600093C6000069C60000BDCC00001FB583895D
:1042700004465BB9114B124A12491348CDE9003389
:10428000124BFDF727F86FF015000AE0027D52B9D6
:1042900000F0C6F908B1FEF769FD204606F026FCDD
:1042A000002004B010BD054B0093CDE90123054962
:1042B000064B034A0648FDF70DF8E4E7A7BD0000EA
:1042C0001EC7000093C6000029CD0000C9CC000025
:1042D0004ACD000037B50C4C0C4D0DF1020101A880
:1042E00004F0F2FE0028F8D1019B33B105F04CF93F
:1042F0000199284606F029FEEFE74FF0FF312046EE
:1043000007F0BEF8E9E700BFAC390020C43900204F
:1043100010B51A4886B005F017FA044660B1184B7C
:104320000093CDE90103174A174B18491848FCF7C9
:10433000D1FF204606B010BD00F0C0FD6FF00903AC
:10434000CDE90243CDE90444CDE90044114B1249C3
:1043500012484FF43B7207F04BFA6FF00703CDE9B8
:104360000243CDE90444CDE900440D4B0D490E480C
:1043700040F22C5207F03CFADBE700BFAC390020DA
:10438000A7BD00001EC70000D9CC000093C60000E6
:10439000FCCC0000D5420000001D00206C1600205F
:1043A000CD410000F01F002004160020C0F30723B9
:1043B0000870000C8870000A4B70C870704738B5E0
:1043C00008300D460221144606F0C2FB0570447009
:1043D00038BD000038B504464FF0FF300D46FEF7FB
:1043E0008BFEEA1C2060D2B20E21FFF7E8FF2068A6
:1043F0000321083006F0ACFB01230370054B1B883A
:10440000A0F80130206829460830BDE8384006F0A1
:104410009FBB00BF2C09002070B504461546013231
:104420000E460834D2B23E21FFF7C9FF01212046D3
:1044300006F08EFB067029462046BDE8704006F067
:1044400087BB00002DE9784804461846154B1646F0
:10445000D3E900234FF0000B03F0005C5BEA0C0390
:104460000D461DD0104BD3E900234FF0000C02F095
:10447000080B5BEA0C0313D00B220421FFF7CCFFDF
:1044800008220470A0F80160033024B9291DBDE89A
:104490007848FCF7A4B80021BDE87848FCF7CCB810
:1044A000BDE87888B0370020B837002070B50378B1
:1044B0008AB004460E4607AD032B20D8DFE803F090
:1044C00002191B1D11492846FCF762F86278049214
:1044D000A2780392E27802922279019262790092A4
:1044E000A37905950A4A1B213046FCF701FF0AB063
:1044F00070BD0849E7E70849E5E70849E3E7084AE6
:104500000A212846FCF7F4FEE0E700BF56C300008E
:104510007FC300005DC3000064C300006EC30000E1
:1045200078C300002DE9F04104464078324D92B046
:10453000014407958B7A00955B425BB20693237822
:10454000D9090591C3F3801103F00F03CDE90301ED
:10455000CDE9012329492A4B2A4A2B48FCF7BAFE08
:10456000237803F00F03072B43D16378002B40D04F
:10457000A3782249039503F03F029B090292CDE9FB
:104580000053204A1E4B2148FCF7A4FEA37899064D
:104590002FD0E378DA0704F104061CD5237812AF94
:1045A000C3F3801307F8243D062231460DF12C0891
:1045B0000DF12500FCF713F841463846FFF776FF6A
:1045C000CDE9018500950E4B0E4A0C49104804F1C7
:1045D0000A06FCF77FFEE3785B060AD5029596F99A
:1045E0000030084A05490B48CDE90053044BFCF75D
:1045F00071FE12B0BDE8F081A7BD000093C60000B7
:1046000088CD00008CC60000AACE0000F7CE0000C6
:1046100028CF000041CF000003460068596870476A
:10462000F0B5818999B00025022904460D950BD873
:10463000C24BC34AC349C448CDE90033C34BFCF75E
:1046400049FE284619B0F0BD8368C14E1A785878E3
:104650009B7842EA00228B42328007D9B74BB84A96
:10466000B849BC48CDE90033B84BE8E7032104F171
:10467000080006F084FA3388C3F309029B0A042B6E
:1046800064D007D8032B25D001210DA8FFF7A2FE87
:104690000123DAE1082B00F0DA803F2BF4D1013A54
:1046A000092AF1D801A353F822F000BF4F4A0000B5
:1046B0007D4A0000A54A00008946000089460000A6
:1046C000E94A000089460000BB4A0000F34A0000A6
:1046D0005F4B0000032A14D008D8012AD4D1A06867
:1046E000FFF79AFF9C4BC3E9000103E02D2A17D086
:1046F000632AC9D101210DA8FFF76CFE05700D9842
:10470000A0E7954B4FF0FF3041F6FF71C3E9000180
:10471000924B1F200021C3E9000104F03DFCE9E7B2
:10472000A36804210DA81D889F78FFF753FEAEB241
:104730000446C21C3946304604F0BCFC002814BFB5
:10474000022300232370A4F80150D8E7013A082A75
:104750009AD801A353F822F07D470000A747000034
:104760001B48000089460000894600008946000079
:1047700089460000894600003748000009210DA83D
:10478000FFF728FE002303708370C3706FF00E03E1
:1047900043710523092283714FF0FF334270027188
:1047A000C3710372ABE741210DA8FFF713FE00218F
:1047B0000446402200F8011BFBF73EFFE378217F0F
:1047C000A27E63F07F03E370A37963F03F03A371DC
:1047D000E37A43F00403E372E37B43F02803E373DB
:1047E000237C43F002032374E37D43F00403E37569
:1047F000E37E61F03C0163F03C032177E376617F67
:1048000094F8273041F0080162F0080263F07F035A
:104810006177A27684F8273071E709210DA8FFF7A8
:10482000D9FD00210446082200F8011BFBF704FF14
:104830006023637163E707210DA8FFF7CBFD0146F5
:10484000002301F8013B1846FFF764FC57E70A2AEA
:1048500000F0EE8027D8052A00F0948012D8022AB2
:1048600060D0032A7CD0012A7FF40EAFA068FFF746
:10487000D3FE3A4BC3E9000101210DA8FFF7AAFDC1
:104880000023E2E0072A00F06281C0F0B380082A2A
:1048900000F0C880092A7FF4F7AEA368591C187885
:1048A00005F044F9E8E7122A00F0848010D8102AB5
:1048B00073D07BD80F2A7FF4E7AE02210DA8FFF753
:1048C00089FD00230370044605F0F8F9607016E7CF
:1048D000182A73D015D8172A7FF4D6AEA068002303
:1048E0000EAA00F1100105F009FB11210DA8FFF738
:1048F00071FD002300F8013B10220EA9FBF76FFEAB
:10490000FDE61C2A65D04B2A7FF4BEAE03210DA81C
:10491000FFF760FD0146002301F8023B0130FFF77D
:104920002FFCECE604210DA8FFF754FD00230370D3
:104930001B22837002234270C370E0E6A7BD000013
:104940001EC7000093C60000DECD000079CD000038
:104950002C09002004CE0000B0370020B83700201A
:1049600009210DA8FFF736FD00210446082200F8B2
:10497000011BFBF761FE0C2363704023A37001232E
:10498000E370BCE6A1680120FFF7DEFB04460121CD
:104990000DA8FFF71FFD0470B1E601210DA8FFF778
:1049A00019FD044605F08CF92070A8E6A06805F012
:1049B0009DF9EBE7A06805F0D1F9E7E709210DA81B
:1049C000FFF708FD002300F8013B0821FFF7DCFB9F
:1049D00095E609210DA8FFF7FDFC014600220446DB
:1049E00001F8012B0320FFF7E1FC611D1046FFF7E2
:1049F000DDFC84E6A068002103790288CDE9091175
:104A0000CDE90711CDE90511847B0494447B03941F
:104A1000C41D02948479019440790090084604F002
:104A20003BFFB3E7A368591C187805F027F823E784
:104A3000A368187805F0C0F8012104460DA8FFF717
:104A4000C9FC002C14BF0C230023037057E60D2172
:104A50000DA8FFF7BFFC02224270C27001228271D2
:104A60000B220023C27163220370837003714371B0
:104A7000037242728372C372037340E641210DA830
:104A8000FFF7A8FC00210446402200F8011BFBF7B9
:104A9000D3FD637863F058036370A37843F0030396
:104AA000A3702CE609210DA8FFF794FC002100F863
:104AB000011B0822FBF7C0FD21E65B4B0EAA03F1A8
:104AC0002806154618685968144603C40833B342CB
:104AD0002246F7D129210DA8FFF77CFC002300F81E
:104AE000013B2822294609E7A1680020FFF72CFB9B
:104AF000C2E64FF08053D3F8A420013206D1D3F898
:104B0000A8304FF6FF729BB2934220D04FF08055F1
:104B1000D5F8A030DB071AD518210DA8FFF75AFCED
:104B200000260123044643700670D5F8A400A11C9A
:104B3000FFF73CFCD5F8A830A371C3F3072363F05B
:104B40003F03E3711022314604F10800B2E702216D
:104B50000DA8FFF73FFC002303704370CFE5212130
:104B60000DA8FFF737FC0346002203F8012B4FF096
:104B700080520446D2F8901001314BD0D2F89410F4
:104B8000013147D0D2F89810013143D0D2F89C10AF
:104B900001313FD0D2F890001946FFF707FC611DA4
:104BA000D2F89400FFF702FC04F10901D2F8980052
:104BB000FFF7FCFB04F10D01D2F89C00FFF7F6FBB8
:104BC0004FF0805204F11103D2F88010013127D048
:104BD000D2F88410013123D0D2F8881001311FD0CF
:104BE000D2F88C1001311BD0D2F880001946FFF7A3
:104BF000DDFB04F11501D2F88400FFF7D7FB04F1C7
:104C00001901D2F88800FFF7D1FB04F11D01D2F899
:104C10008C00ECE6102200211846FBF70DFDCFE7D3
:104C200010220021184645E732CE00002DE9F04160
:104C30000379012B90B004460D4600F1080800F0FE
:104C4000B980023B032B00F2A680DFE803F0025399
:104C5000595B7C4B09934FF60473ADF8283002235F
:104C60008DF82A30784BD3E90023002003F000515F
:104C700050EA01033BD0754BD3E90023002102F039
:104C8000020050EA010332D0227A637A02F00F0266
:104C9000012A1ABF9E1FF6B20026234406F10B021A
:104CA000D2B2022128469F7AFFF7B6FB0123037098
:104CB000237A10AA03F00F031344054613F81C3C93
:104CC0004370237AC3F380138370062204F10A0130
:104CD0000330FBF784FC0A3505F8016C7F427FB294
:104CE000324608F108012846FBF779FCAF5510B0B1
:104CF000BDE8F081012221464046FFF713FCF6E7AC
:104D00000422F8E7504BD3E9002300F10A0603F030
:104D10000051002050EA010308D04C4BD3E9002396
:104D2000002102F4802050EA010323D1237A10AD40
:104D3000C3F38013062231460DF11D0005F8243D12
:104D4000FBF74DFC637A1C4409AEA47A3146284631
:104D5000FFF7ACFB64423E4B029664B20022CDE901
:104D60000032CDE903433B4A3B4B3C493C48FCF70E
:104D7000B1FABCE7082213212846FFF74DFB0023B8
:104D80000370237AC3F38013437006223146023046
:104D9000FBF725FCABE72E4BCDE90033314B324A14
:104DA0002E493248FCF796FA404080F311884FF0C4
:104DB000040002DFC17AC68809290BD00C2910D063
:104DC000072939D1027B0E2A2BD12B4632460021EE
:104DD0001A2003E02B46324641460020FFF732FB03
:104DE00085E7194BD3E900234FF0000802F4006770
:104DF00057EA08033FF47BAF08222846FFF7DFFAA3
:104E00000821681805F0A4FE00230370A0F80160D3
:104E1000237BC370B4F80D308380B4F80F30C380A7
:104E200065E70B4B0093CDE901230C49104B094A70
:104E30001048FCF74FFA5AE7054BCDE900330E4B0B
:104E4000ADE700BF000103FFB0370020B8370020F6
:104E5000A7BD00008CC600009ACD000093C60000DC
:104E60005ACE0000AFCD00001EC7000069C600008A
:104E7000BECD00008DCE0000CDCD00000379012B0A
:104E80000FD00A2B15D8012000FA03F313F4B06FEA
:104E900012D113F03C0F10D183F0400343F3801084
:104EA0007047037A03F00303032B0CBF0220032097
:104EB00070474FF0FF30704702207047064B4FF0AD
:104EC000FF3041F6FF71C3E90001044B1F200021B0
:104ED000C3E90001704700BFB0370020B837002099
:104EE00020BF40BF20BF7047F0B50D4B89B00546CD
:104EF0000E4601AA03F1180718685968144603C43E
:104F00000833BB422246F7D11B88238008AB1D44DF
:104F100015F81C0C831B5842584109B0F0BD00BF66
:104F200053BD00000860704718B90B6843F0004398
:104F30000B60704718B90B6823F000430B60704793
:104F400070B5031D451E00249D4201D1204670BD51
:104F500015F8016F0022A018082AC0B201D104463A
:104F6000F2E716F0010F03D00029F0D00139C9B2E1
:104F700076080132EFE7000010B50C4A92F83A319A
:104F800092F839118B4238BF92F8384192F83911B2
:104F900038BF1B195B1ADBB298429BBF92F83911DC
:104FA000D2F83431002053F8210010BD3009002020
:104FB00030B590F85C3090F85D10994228D190F9A6
:104FC0001D30002B26DBC48C828CA0F86440C48D7D
:104FD000A0F8622054437D2262434FF47A7492FB1E
:104FE000F4F2A0F8662090F86020012565F3010234
:104FF000D2B2002342F00402013980F87050C36637
:1050000080F8602080F85E5080F85D10184630BD52
:105010000120FCE70220FAE72DE9F84F0C789442D2
:1050200081460F4690463DD01F4ED6F8683133F882
:105030003430038000254FF0020B06F5AE7A22B221
:10504000D6F86801B9F800C000EBC20130F8322090
:10505000944520D14868012820F003030AD9F3B110
:10506000021D1CD04279D2B1027902F00302013A4A
:10507000012A14D8012215444A60EDB213B15146F9
:10508000FEF799F8013496F86C21E4B2A24208BF09
:1050900000244445D3D13C702846BDE8F88FC1F8C0
:1050A00004B0EBE70025F7E73009002010B5094B05
:1050B00093F81021824204460AD902464FF48271C5
:1050C000D3F80801FEF78CF810B1038CA34200D08E
:1050D000002010BD300900202DE9F04186B00223E8
:1050E000052805460F4602930CD006283FD042D92A
:1050F000073880B2FFF7DAFF002800F02081D0E9FE
:1051000000680EE08F4BD3E9066802AB00930A46B5
:105110008D4B03210020FEF72FFF022811D0029BA8
:105120009BB9884CA37C03F0FF00002B2BD0874B4E
:10513000874A88498848CDE90033884B0FE0FFF75C
:10514000CFFE029B022BFAD0E9E7029B012BE8D0AD
:105150007E4B7F4A7F498248CDE900337F4BFCF785
:10516000B9F8404080F311884FF0040002DF754B1E
:10517000D3E93468D5E7754BCDE90033774B744AF2
:1051800074497848EBE706AB0222A57443F8102D6A
:10519000032100932A466C4BFEF7EEFE022825D031
:1051A000029B002B69D1237CAB4202D0637CAB42D3
:1051B0005FD106AB022243F80C2D0022009303219D
:1051C000614B1046FEF7D8FE02281DD10122114680
:1051D0000320FEF765F8039B022B15D15B4B5C4A5D
:1051E0005C496148CDE90033604BB8E7637CAB4272
:1051F00004D1012211460320FEF752F8029B022B34
:10520000CED1FFF76DFEF9E70398002850D10223B5
:105210000493237C3BB94D4B4D4A4E495448CDE94C
:105220000033524B9BE704AB00930122464B2074A2
:105230000321FEF7A1FE02280FD10122114603200F
:10524000FEF72EF8049B022B07D1404B404A414900
:105250004848CDE90033454B81E7049A9AB926F0D6
:105260000046B04522D9444B11460320FEF740F8D2
:10527000A0B9A37C0BB9012302930023A374029865
:1052800006B0BDE8F081049B012B53D100221146EA
:10529000394B0320FEF72CF8024638B12B4B2C4A31
:1052A0002C493648CDE90033304B58E7344BDBE727
:1052B000039D012D3ED1FF2F29D006AB022243F8DA
:1052C000042D032100933A461F4B0020FEF754FEA5
:1052D00002280FD12A4629460320FDF7E1FF059B4E
:1052E000022B07D1194B1A4A1A492648CDE9003337
:1052F0001E4B34E7059B53B1059B012B07D0134B85
:10530000134A14492048CDE90033184B27E7E37CC2
:10531000002BAED01D4B04229A60002211460320C0
:10532000FDF7E6FF0028B9D1E37C002BA1D0FFF701
:10533000D7FDF9E7054BCDE900330C4B1FE7012002
:105340009EE700BF30090020254F0000A7BD0000E8
:105350001EC7000093C60000F3D90000EAD2000087
:10536000B3D9000069C600002BDA0000D6D20000D5
:105370005CDA000096DA000000380020C6DA00008F
:10538000A0380020ECDA00001EDB000030380020DE
:1053900037B5174B1A78F9B142BB01280ED0154B1F
:1053A000154A16491648CDE90033164BFBF792FF14
:1053B000404080F311884FF0040002DF1870124B58
:1053C0001146FDF795FF88B10A4B0B4A0B490F4870
:1053D000CDE900330B4BE9E742B119700C4BA3F157
:1053E0001002012818BF13460A46EAE703B030BD91
:1053F000380B0020A7BD00001EC7000093C60000A8
:105400000DD80000D6D00000603800203DD8000044
:1054100080380020000000002DE9F04F8BB0002400
:10542000FF25DFF838918DF81F50804693461F46C0
:1054300001F1040A1C60089426460223099309AB73
:1054400002933F4B019308AB00930DF11F025B46A3
:1054500041460020FEF7CAFD022814D0099BB3B1D3
:10546000384B394A39493A48CDE90033394BFBF7D3
:1054700031FF404080F311884FF0040002DF4146C5
:105480000020FEF72BFE099B022BF8D0E6E79DF8E3
:105490001F20FF2A4DD0062ACFD999F810310733A3
:1054A0009A42CADA073A92B24FF48271D9F80801E7
:1054B000FDF796FE0028C0D090F91D30002BBCDB14
:1054C000D0E9003C002B089A12DA816823F00043EF
:1054D0008C452CBF62445218D21AC168FF2D01F1CD
:1054E00004010B4408D19DF81F501C461646A4E742
:1054F000634538BF6346F0E7314610460593049292
:10550000FEF704FE04EB0A018842DDE90423EAD930
:1055100011483444A4FB0001072303FB041106A334
:10552000D3E90023FAF7A0FE803038600BB0BDE865
:10553000F08FFF2DECD1F9E700CA9A3B0000000084
:10554000254F0000A7BD00001EC7000093C6000045
:10555000C1DB000012D100008D49FD1A3009002086
:1055600070B504780A78C4F38013B3EBD21F19D155
:1055700004F00F04012C00F1020501F1080608D027
:10558000062231462846FBF71AF8B0FA80F04009A7
:1055900070BD062231462846FBF711F80028EFD1EE
:1055A0002046F5E70020F3E713B51E4A92F839319B
:1055B00092F83A1199420ED11B4B1C4A1C491D48C6
:1055C000CDE900331C4BFBF785FE404080F311888A
:1055D0004FF0040002DF92F83911D2F8343153F859
:1055E000211092F8703108680B7092F8393192F8F6
:1055F00038410133DBB29C4208BF002382F83931C5
:1056000002F5A472FDF706FE38B9074B074A0849B0
:105610000A48CDE90033084BD5E702B0BDE8104099
:1056200004F08CB830090020A7BD00001EC70000A0
:1056300093C60000BAD8000068D200000DD900005F
:105640000B4A92F8783192F8791199420ED192F87A
:10565000783102EB4303A3F8720192F878310133F9
:10566000DBB2032B08BF002382F87831704700BFFC
:105670003009002007B570B1084B094A09490A48AA
:10568000CDE90033094BFBF725FE404080F311883C
:105690004FF0040002DF03B05DF804FBA7BD00007B
:1056A0001EC7000093C60000E1DC000022D000000D
:1056B000012807B5114B16D19A7C052A04D1002286
:1056C0009A7403B05DF804FB0D4B0E4A0E490F4867
:1056D000CDE900330E4BFBF7FDFD404080F3118810
:1056E0004FF0040002DF1B7C052BEAD1044B054A76
:1056F00005490848CDE90033054BECE730090020A7
:10570000A7BD00001EC7000093C6000069C60000C8
:1057100038D0000027DC0000012807B5114B16D156
:105720009A7C062A04D100229A7403B05DF804FB27
:105730000D4B0E4A0E490F48CDE900330E4BFBF7D7
:10574000C9FD404080F311884FF0040002DF1B7C4C
:10575000062BEAD1044B054A05490848CDE9003338
:10576000054BECE730090020A7BD00001EC7000074
:1057700093C6000069C600004FD00000A2DC000004
:1057800007B590B10A4B9B7C052B0ED0094B0A4AFA
:105790000A490B48CDE900330A4BFBF79BFD40401B
:1057A00080F311884FF0040002DF03B05DF804FBC2
:1057B00030090020A7BD00001EC7000093C60000EE
:1057C0000EDD000067D0000007B598B10B4B9B7C45
:1057D000C9B299420ED00A4B0A4A0B490B48CDE98F
:1057E00000330B4BFBF776FD404080F311884FF000
:1057F000040002DF03B05DF804FB00BF30090020A5
:10580000A7BD00001EC7000093C600005DDD0000BC
:1058100080D00000044B1B7D23B1012100220846EB
:10582000FDF73EBD704700BF30090020062810B5C7
:105830000C460AD9094BC21F92B24FF48271D3F8B9
:105840000801FDF7CDFC206010BD052804D0062816
:10585000034818BF0020F7E70248F5E730090020A9
:10586000000A00204809002007B5074B074A0849ED
:105870000848CDE90033084BFBF72CFD404080F38E
:1058800011884FF0040002DFA7BD00001EC7000012
:1058900093C600003DD8000064D1000007B5002287
:1058A0000B4B11461046FDF723FD70B1094B0A4A18
:1058B0000A490B48CDE900330A4BFBF70BFD40408A
:1058C00080F311884FF0040002DF03B05DF804FBA1
:1058D000D0370020A7BD00001EC7000093C60000FF
:1058E0003DD80000AFD0000007B500220B4B114699
:1058F0001046FDF7FDFC70B1094B0A4A0A490B48F6
:10590000CDE900330A4BFBF7E5FC404080F31188FA
:105910004FF0040002DF03B05DF804FB50380020B4
:10592000A7BD00001EC7000093C600003DD80000C0
:10593000CBD0000007B5124A137840B1591C117042
:10594000D3B9012003B05DF804EB03F0F5BE73B9E1
:105950000C4B0D4A0D490E48CDE900330D4BFBF7BA
:10596000B9FC404080F311884FF0040002DF013B96
:10597000DBB21370002BE5D003B05DF804FB00BF71
:10598000E40A0020A7BD00001EC7000093C6000067
:1059900092D700009BD000000020FFF7CBBF000093
:1059A00007B5C0B2031F012B0ED9114B114A124982
:1059B0001248CDE90033124BFBF78CFC404080F3DA
:1059C00011884FF0040002DF0E4A137D13B1043B2F
:1059D000012B07D804F054FC30B903B05DF804EB98
:1059E00004F01CBC1075F8E703B05DF804FB00BFC1
:1059F000A7BD00001EC7000093C60000BCD7000072
:105A000052D100003009002038B505460C4600216F
:105A1000084604F069FB95F8A830DB064FF0010258
:105A20000DD51F21082004F0A5FB2246002105F119
:105A3000A90004F0D7FDBDE8384004F0C9BB082038
:105A40001B2104F097FB2046F5E7000037B5174A05
:105A500092F8703192F86C410133DBB29C4208BF7E
:105A6000002392F86F419C420ED1114B114A12490A
:105A70001248CDE90033124BFBF72CFC404080F379
:105A800011884FF0040002DF92F87051D2F868419B
:105A900024F8350092F8700104EBC004616082F8CC
:105AA000703103B0BDE8304003F048BE300900203B
:105AB000A7BD00001EC7000093C6000033D9000038
:105AC0007AD200002DE9F047254D0646A84600276A
:105AD00095F86D3195F86E219A4236D095F86D9112
