:10000000A8BB0020410E0000910E0000410D000031
:10001000410D0000410D0000410D0000410D0000A8
:10002000410D0000410D0000410D0000D50A000007
:10003000410D0000410D0000910A0000410D00003B
:10004000050E00004F0C0100050E0000050E00001B
:10005000050E0000050E0000050E0000050E000054
:10006000050E0000050E0000050E0000050E000044
:10007000050E0000050E0000050E0000050E000034
:10008000050E0000050E0000050E0000050E000024
:10009000050E0000050E0000050E0000050E000014
:1000A000050E0000050E0000050E0000050E000004
:1000B000050E0000050E0000050E0000050E0000F4
:1000C000050E0000050E0000050E0000050E0000E4
:1000D000050E0000050E0000050E0000050E0000D4
:1000E000050E0000050E0000050E0000050E0000C4
:1000F000050E0000050E0000000000006D16000057
:1001000000000000B90C000000000000B90C000065
:1001100000000000B90C000000000000B90C000055
:1001200000000000B90C000000000000B90C000045
:1001300000000000B90C000000000000B90C000035
:1001400000000000B90C000000000000B90C000025
:1001500000000000150C010000000000B90C0000B8
:1001600020D000208918000000000000B90C000019
:1001700000000000B90C000000000000B90C0000F5
:1001800000000000C919000000000000B90C0000C8
:1001900000000000B90C000000000000B90C0000D5
:1001A00000000000B90C000000000000B90C0000C5
:1001B00000000000B90C000000000000490C010024
:1001C00000000000B90C000000000000B90C0000A5
:1001D00000000000B90C000000000000B90C000095
:1001E00000000000B90C000000000000B90C000085
:1001F00000000000B90C000000000000B90C000075
:1002000000000000B90C000000000000B90C000064
:1002100000000000B90C000000000000B90C000054
:1002200000000000B90C000000000000B90C000044
:1002300000000000B90C000000000000B90C000034
:1002400000000000B90C000000000000B90C000024
:1002500000000000B90C000000000000B90C000014
:1002600000000000B90C000053B94AB9002908BFCA
:1002700000281CBF4FF0FF314FF0FF3000F07AB97B
:10028000ADF1080C6DE904CE00F006F8DDF804E0ED
:10029000DDE9022304B070472DE9F0478C460D4696
:1002A0000446089E002B51D18A4217466DD9B2FAF6
:1002B00082FEBEF1000F0BD0CEF1200C01FA0EF53C
:1002C00020FA0CFC02FA0EF74CEA050C00FA0EF4C8
:1002D0004FEA174A250CBCFBFAF81FFA87F90AFB0C
:1002E00018CC45EA0C4508FB09F3AB420AD9ED19D5
:1002F00008F1FF3280F02381AB4240F22081A8F167
:1003000002083D44ED1AA4B2B5FBFAF00AFB105501
:1003100044EA054400FB09F9A14509D9E41900F1B3
:10032000FF3380F00A81A14540F2078102383C4446
:10033000A4EB090440EA08400021002E61D024FA11
:100340000EF4002334607360BDE8F0878B4207D958
:10035000002E54D0002186E821000846BDE8F08731
:10036000B3FA83F1002940F08E80AB4202D382427F
:1003700000F2FA80841A65EB03050120AC46002EDA
:100380003FD086E81010BDE8F08712B90127B7FB0F
:10039000F2F7B7FA87FEBEF1000F34D1EB1B3A0C2F
:1003A0001FFA87FC0121B3FBF2F8250C02FB18337E
:1003B00045EA03450CFB08F3AB4207D9ED1908F1F8
:1003C000FF3002D2AB4200F2D1808046ED1AA3B2D8
:1003D000B5FBF2F002FB105543EA05440CFB00FCB0
:1003E000A44507D9E41900F1FF3302D2A44500F275
:1003F000B8801846A4EB0C0440EA08409DE731465B
:100400003046BDE8F087CEF1200405FA0EF307FA76
:100410000EF720FA04F83A0C25FA04F448EA030827
:10042000B4FBF2F14FEA184502FB11441FFA87FCB6
:1004300045EA044501FB0CF3AB4200FA0EF409D97E
:10044000ED1901F1FF3080F08A80AB4240F28780E5
:1004500002393D44EB1A1FFA88F5B3FBF2F002FBB8
:10046000103345EA034500FB0CF3AB4207D9ED1905
:1004700000F1FF386FD2AB426DD902383D44EB1A20
:1004800040EA01418FE7C1F1200722FA07F88B40CB
:1004900005FA01F448EA030320FA07FE4FEA134C79
:1004A000FD404EEA040EB5FBFCF94FEA1E440CFB7E
:1004B00019551FFA83F844EA054509FB08F4AC42D4
:1004C00002FA01F200FA01FA08D9ED1809F1FF3039
:1004D00043D2AC4241D9A9F102091D442D1B1FFA98
:1004E0008EFEB5FBFCF00CFB10554EEA054400FBFC
:1004F00008F8A04507D9E41800F1FF3529D2A04536
:1005000027D902381C4440EA0940A4EB0804A0FBA8
:1005100002894C45C6464D4615D312D056B1BAEBAA
:100520000E0364EB050404FA07F7CB401F43CC40ED
:10053000376074600021BDE8F0871846F8E6904601
:10054000E0E6C245EAD2B8EB020E69EB03050138DA
:10055000E4E72846D7E7404691E78146BEE70146F3
:1005600078E702383C4445E7084608E7A8F1020866
:100570003D442BE7704700BF0139034611F8012FB6
:100580000AB91A70704703F8012BF7E702460346D1
:10059000981A13F8011B0029FAD170470138013964
:1005A00010F8013F11F8012F934202D1002BF7D12F
:1005B0001A46981A704770B582B1013A0C46034644
:1005C00003D11A782078101A70BD1E782578AE42B3
:1005D00000F1010001F10101EFD0F2E7104670BD1A
:1005E00081EA000313F0030F70B503460BD0013B03
:1005F0000A4491421BD170BD002AFCD011F8014B76
:1006000003F8014B013A9C07F6D11E1F0D46541BFF
:100610000C44032C06D822F003042144234402F0A6
:100620000302E4E755F8044B46F8044FEFE711F8EE
:10063000014B03F8014FDCE770B5C9B203469C07D4
:1006400011D141EA012444EA04441E46951B1D448D
:10065000032D0ED822F00304234402F003021A44AF
:10066000934209D170BD002AFCD003F8011B013A66
:10067000E5E746F8044BE9E703F8011BF0E7000063
:100680004B1E59425941014B197070472000002000
:100690001FB501240294CC680194BDF81840009461
:1006A00005F02DFC04B010BD014805F0F7BB00BFFC
:1006B00068C900202DE9FF4198460B4B1C68054690
:1006C00020460E461746FFF761FFBDF8283000931D
:1006D00080B20290019443463A463146284605F0DE
:1006E0000EFC04B0BDE8F081240000202DE9FF419C
:1006F00098460B4B1C68054620460E461746FFF7EA
:1007000045FFBDF82830009380B202900194434623
:100710003A463146284605F0F2FB04B0BDE8F081C8
:1007200028000020034B1860034B0448196005F0B3
:10073000B5BB00BF28000020240000200CCA002008
:100740004B1E59425941014B19707047B1000020AE
:100750001FB501240294044C0194BDF81840009484
:1007600005F0CDFB04B010BDB0000020024B1870A6
:10077000024805F093BB00BFB000002014CB00205E
:100780000A4B1B788BB10A4B1A780132D2B2A02ADD
:1007900008BF5A221A70074A1B785370062111703D
:1007A00064230549002005F08BBC7047B100002090
:1007B00010CB00202C00002098CA002010B5044C5B
:1007C000206818B103F0A1FC0023236010BD00BF16
:1007D0002C2B00201FB503F09BFC0378032B07D8BC
:1007E000DFE803F002090B0D064901A8FFF7C4FE7C
:1007F00005B05DF804FB0449F7E70449F5E704494F
:10080000F3E700BF144901001B4901002249010020
:100810002C49010008B519B903F070FC014B1860B0
:1008200008BD00BF2C2B002010B5044686B0E8B9E7
:100830000120FFF79BFFFFF737FF0D490D48FFF73A
:1008400071FF4FF47A5201230394ADF80E2043F662
:10085000906204948DF80C30ADF8102000930222C1
:10086000054B0649059403A802F0B0FF06B010BD81
:10087000364901004349010054490100044901007F
:1008800038B50B4802F04AFF88B90A480A4D03F010
:1008900097F90A4803F092FD6424FA2013F01EF938
:1008A000FFF76EFF284613F019F9013CF5D138BD6A
:1008B000290800003CCB0020E093040028CB002056
:1008C000054B1B68082B01BF044B1868B0FA80F079
:1008D000400918BF0020704730010010340100109B
:1008E00008B54FF02003EFF3118183F31188FFF770
:1008F000E7FF40B14FF080430022C3F80C21C3F85A
:100900001021C3F83825FFF7DBFF10B1384B394A07
:100910001A60FFF7D5FF18B1374BFB22C3F8182533
:10092000FFF7CEFF48B13548354B02681B6822F00F
:100930000F0203F00F0313430360FFF7C1FF18B169
:10094000304B4FF400721A60FFF7BAFF48B14FF016
:100950008043D3F80024D20744BF6FF00102C3F8EC
:1009600000244FF01023D3F80022002A03DBD3F831
:100970000432002B2FDA244B0122C3F80425D3F8CC
:100980000024002AFBD04FF010221221C2F80012DE
:10099000D3F80024002AFBD04FF010231222C3F812
:1009A0000422194B1A46D3F800140029FBD0002169
:1009B000C3F80415D2F80034002BFBD0BFF34F8FDF
:1009C0001249134BCA6802F4E0621343CB60BFF3D1
:1009D0004F8F00BFFDE70D4B4FF0FF329A62DA6296
:1009E0000C4B0D4A1A6081F31188002008BD00BF2E
:1009F0008C5600404881030000F00040E40E0040A7
:100A0000580200104096024000E0014000ED00E076
:100A10000400FA059CCB00200090D00308488168B0
:100A20004A897F2A0BD8C069884208D000B513F0E4
:100A3000A7F85DF804EB03494FF080520A60704755
:100A4000002A002004ED00E0044800232021C21801
:100A500001332E2B82F80013F9D1704700E100E03A
:100A6000084A0949936809685966084918664B6835
:100A700043F080534B60002383F311889368586ED2
:100A8000704700BF002A0020A04D010000ED00E0EB
:100A90000E498A6828201044EFF3098C80E8F01F83
:100AA0000B4F4FF00066202080F31188CA698A60DE
:100AB0003E60106E0023136680F3118802F1280057
:100AC00090E8F01F8CF3098870470000002A00208E
:100AD00004ED00E01EF0040F0CBFEFF30880EFF30D
:100AE0000980816931F8021C11F0FF0101D002294F
:100AF00007D0404080F3118804494FF080520A60CB
:100B0000704700B500F03BF900BD000004ED00E0C7
:100B10000B4B9A6AD10612D49A6A12070FD49A6ABA
:100B200012F0020F9A6A07D0110608D538B19A6AF6
:100B300022F080029A627047D20758BF9B6A7047C2
:100B400000ED00E00D4B9A6AD20416D49A6A1105A2
:100B500013D49A6A12F4007F9A6A09D0120404D559
:100B600018B19A6A22F400429A62044B9B6A04E02C
:100B7000510502D49A6AD205F8D5704700ED00E01D
:100B8000064B9A6A9A6A9A6A9A6A9A6A9A6A9A6AF8
:100B90006FEA02426FEA12429A62704700ED00E08B
:100BA000184A5368C3F30803033B10B50446032BEC
:100BB0000FD8DFE803F002232520D36A990708D471
:100BC000D36A5B0005D5104B1B7843B10120FFF7BA
:100BD0009FFF21460020BDE8104000F0D5B80B4B28
:100BE0001B781BB10120FFF7ADFFF2E7084B1B8814
:100BF0009BB2002BEDD0FFF7C3FFEAE70020E6E74A
:100C00000020F0E700ED00E028ED00E029ED00E035
:100C10002AED00E0024A536943F010035361704724
:100C200000ED00E043B2002B08DB012200F01F00C2
:100C300002FA00F05B09024A42F82300704700BF45
:100C400000E100E043B2002B0DDB01225B0900F064
:100C50001F0002FA00F02033034A42F82300BFF3DA
:100C60004F8FBFF36F8F704700E100E04209054BE3
:100C700000F01F0053F82220012303FA00F0104077
:100C8000704700BF00E100E043B2002BA8BF03F1B2
:100C9000604301F101014FEA4111ADBF03F561432A
:100CA00000F00F00034BC9B2B6BFC9B283F80013FE
:100CB0001954704714ED00E000F042B808B572B660
:100CC000044B986918B100229A6112F083FB62B656
:100CD00008BD00BF002A0020F8B50C4616461F4686
:100CE00004220A9B0999054613F048FAA6F120014F
:100CF00021440C4AAC6521F00701002322F00102D7
:100D0000EB642B65EE658A61069A4A60079A8A60F1
:100D1000089ACA600F604FF08072CA61A9642B669E
:100D2000F8BD00BFF13F0100014910220A60704781
:100D300010ED00E0404080F3118830BF704700BFE5
:100D4000404080F31188DFF81CC0DCF800C01CF4C0
:100D5000006C0CBFEFF30880EFF3098000B5FFF7DC
:100D60001FFF00BD04ED00E038B504460D4612F04B
:100D7000DDFE29462046BDE8384000F005B80146B2
:100D80000068FFF7F1BF0000052808B504D013F094
:100D900017F920B113F014F9FFF7CCFFFCE713F0BB
:100DA0001FF90028F6D1034B9868BDE8084000F011
:100DB00003B800BF002A002038B505464FF02003D5
:100DC000EFF3118483F3118813F068F90B4B9B68E0
:100DD0009D420DD10A4B5A68C2F3080222B912F0A3
:100DE000CFFE2046FFF73CFE5A6842F080525A6020
:100DF0002046BDE8384012F0FFBD00BF002A0020A9
:100E000000ED00E000B572B60B4A906900281EBFE5
:100E10000021916112F0DEFA62B6EFF30580A0F1D5
:100E200010004FEAC0000549014409C998475DF820
:100E300004EBFFF7F3BD0000002A0020F8000000DB
:100E4000202080F3118805484FF40061401880F39A
:100E50000988022080F3148800F006B8E8BC00205E
:100E600030BFFFF7FDBF00BF08B5074B074A23F0AF
:100E70007F039360BFF34F8FBFF36F8F12F0DCFAE5
:100E800012F0E4FA12F002FB0000000000ED00E0B6
:100E900008B5FFF7E5FFBDE80840FFF7BFBD00005C
:100EA000154B16491A6830B50D68C2F307229542F2
:100EB0000FD8002248685A60954200F10C000AD110
:100EC00005225A600E4B01221A70BFF34F8FBFF3F9
:100ED0006F8F002030BD50F80C1C50F8044C9A6005
:100EE00021F01F0141F01001114344F00104D960C9
:100EF00001321C61E0E700BF90ED00E058CB00201C
:100F0000B200002070478B4238B515461C4605D804
:100F10001A462946FFF764FB204638BD0024FBE74C
:100F2000FFF78ABBC3095A00134403EBC30383EAE8
:100F30004000C0B27047CB780278534003704B88B2
:100F40004278534043700A68837883EA122383709F
:100F50000A68C3785340C370CB7902795340037158
:100F6000CB884279534043714A68837983EA1223DC
:100F700083714A68C3795340C371CB7A027A534074
:100F80000372427A4B89534043728A68837A83EAB8
:100F9000122383728A68C37A5340C372CB7B027B6D
:100FA00053400373CB89427B53404373CA68837BAE
:100FB00083EA12238373CA68C37B5340C3737047A9
:100FC0001FB502788DF8002042798DF80120827AD1
:100FD0008DF80220C27B8DF8032002798DF8042061
:100FE000427A8DF80520827B8DF80620C2788DF834
:100FF0000720027A8DF80820427B8DF8092082783C
:101000008DF80A20C2798DF80B20027B8DF80C2018
:1010100042788DF80D20C37A82798DF80E208DF8F4
:101020000F3010236A461946FFF76DFF05B05DF8D3
:1010300004FBF8B5064608780C46FFF773FF054633
:101040006078FFF76FFFA27863785340E2785340EF
:101050005D404540357060782778FFF763FF0546AF
:10106000A078FFF75FFFA3785F40E3785F407D40A3
:1010700045407570A07865782778FFF753FF6F407B
:101080000546E078FFF74EFFE3785F407D4045403E
:10109000B5702078FFF746FF637825785D40A37828
:1010A0005D404540E078FFF73DFFEDB26840F070ED
:1010B000F8BD0000F0B5284E07460C460FCE8DB0A7
:1010C00001AD0FC50FCE0FC596E8070085E80700F4
:1010D000002F3CD0002C3CD0381F21460246103453
:1010E0004B780D781B0443EA0563CD782B438D784C
:1010F000043143EA05238C4242F8043FF0D1174CF7
:1011000004218A07036918D14FEA33631A0EA55CDC
:10111000DAB2A25C42EA0562C3F30745C3F30723D0
:10112000655DE35C42EA054242EA03220CAD21F030
:1011300003032B4453F82C3C534050F8042F013147
:1011400053402C290361DCD101200DB0F0BD38469D
:10115000FBE72046F9E700BFB0480100A0490100C5
:101160002DE9F043154689B0804600285BD0002960
:101170005AD0002A5AD010230A4668461946FFF76B
:10118000C2FE294668462A4CFFF7D5FE05F1100736
:10119000A146A03500261DF80630E35C0DF80630A8
:1011A0000136102EF7D16846FFF70AFF694604A8FA
:1011B000FFF73FFF01A905A8FFF73BFF02A906A81B
:1011C000FFF737FF03A907A8FFF733FF334604AA49
:1011D00031466846FFF797FE394668461037FFF7F5
:1011E000AAFEBD42D6D100261DF8063019F80330FC
:1011F0000DF806300136102EF6D16846FFF7E0FEF6
:1012000029466846FFF797FE33466A463146404610
:10121000FFF779FE684632460021FFF781FE012084
:1012200009B0BDE8F083FBE70846F9E71046F7E7A9
:10123000A049010010B591F90030002B01F10F0217
:10124000B4BF872300230F3014788A4283EA440313
:1012500000F8013903D012F80139DB09F4E710BDB9
:1012600008B528B158220021FFF75AFE012008BD19
:1012700008BD10B5044690B110220021FFF750FEC2
:1012800004F1300010220021FFF74AFE00236364BE
:1012900000224FF48033C4E91423012010BD10BD97
:1012A00070B50D461646044618B319B358220021EE
:1012B000FFF736FE2946A6643046FFF7FBFE2046C0
:1012C00010220021FFF72CFE04F11005A26C21462C
:1012D0002046FFF745FF21462846FFF7ABFF29468A
:1012E00004F12000FFF7A6FF2046FFF7C2FF012010
:1012F00070BD70BD084670BDF8B50D461646044673
:1013000000285BD00AB90120F8BD002956D0D0E9E9
:10131000142352EA030151D012F1FF3243F1FF339B
:10132000C0E91423406C48B3C0F11007BE4200F17D
:10133000300009D2334631462A462044FFF7E3FD08
:10134000636C1E446664DEE73B462A463946204409
:10135000FFF7D9FD00236364F61B3D44631E04F1CF
:101360000F005A7893F831104A4003F8012F834256
:10137000F7D1A26C21462046FFF7F2FE04F10F07D9
:10138000102E11D9631E691E5A7811F8010F4240C0
:1013900003F8012FBB42F7D1A26C21462046FFF78C
:1013A000DFFE1035103EEBE7002EACD033462A4668
:1013B000314604F13000FFF7A6FDC3E70020F8BD79
:1013C00070B50C46054670B371B34A6C102A1AD139
:1013D00001F11002611E013A04F10F0691F831008B
:1013E0004B78434012F8010F434001F8013F8E4211
:1013F000F4D1A26C21462846FFF7B2FE2046FFF743
:101400002FFF012070BD02F130000021C2F1100257
:101410002044FFF785FD636C2344802283F830204D
:1014200004F12002D6E770BD084670BD13B5114C1B
:10143000BFF35B8F2068BFF35B8F60B90E4811F07C
:10144000A3FFBFF35B8F54E8003F44E80002002A8B
:10145000F9D1BFF35B8F436804221B680DEB0201D7
:101460009847002802DA00F01DFB0190019802B0B5
:1014700010BD00BFB4000020A04A010010B54FF01D
:101480002003EFF3118283F31188114C237823B9E1
:1014900082F311886FF0440010BD013BDBB2237072
:1014A00023B182F311886FF00F0010BD094B18783B
:1014B000012128B1217082F311886FF00A0010BD5C
:1014C000197082F311884FF080425160187010BD7E
:1014D000BA000020B900002008B500221046012102
:1014E000FFF7D2FB0020FFF79DFB002008BD0000A6
:1014F000F8B54FF02002EFF3118382F31188254AEB
:101500001078441C147060B183F311884FF080434D
:10151000D3F80C3413F4803F14BF00206FF0430065
:10152000F8BD1D4D2F782FB1107083F311886FF027
:101530000A00F8BD01262E7083F311884FF0804415
:1015400019B33846FFF77EFBC4F80071D4F80433B2
:10155000C4F804632660D4F8002192B10022C4F8D4
:1015600000210E4A13F0010F4FF0010308BFC4F829
:1015700008330020C2F88031FFF754FB00232B70A2
:10158000C4E720BF40BF20BFE5E7C4F800112660D4
:10159000F4E700BFBA000020B900002000E100E03D
:1015A000F8B506460C464FF02002EFF3118382F3A4
:1015B00011882C4A157865B183F311884FF0804368
:1015C000D3F8183413F4803F0CBF6FF043000020B1
:1015D000F8BD0127177083F311882846FFF732FB07
:1015E0004FF080430221C3F80451D3F80423C3F819
:1015F0000413C3F818459F60D3F8041171B3920720
:10160000194F58BF02224FF000014FF00105C3F8F7
:1016100004114FF0000058BFC3F80823C7F88051E9
:10162000FFF700FB4FF0804300211822C3F8082386
:10163000C3F80C11C3F8101114F00301BED110202F
:10164000C3F83805C3F804233046C3F80453FFF742
:101650004FFF0028B2D1C7F80051AFE720BF40BF0D
:1016600020BFC9E7B800002000E100E0F8B54FF066
:1016700080430546D3F808E1D3F80423D3F80C449B
:10168000D3F80071D3F80401D3F80C11D3F810612A
:1016900002F00102BEF1000F03D04FF0000EC3F8BC
:1016A00008E127B14FF080430027C3F800713AB139
:1016B000E30341BF4FF080430122C3F808231A61BE
:1016C00020B14FF080430022C3F8042149B14FF00C
:1016D00080440021C4F80C112846FFF7CFFE0123F7
:1016E000636176B14FF0804300210124C3F81011EB
:1016F0002846C3F80443FFF7FBFE10B9014BC3F8BB
:101700000041F8BD00E100E02DE9F0418378C478A4
:101710001E1DA3420A4406441FD8E41AE4B2A142A3
:101720003EBF641AE7B20C462344A1EB040128BF74
:101730000027DBB2C9B23444A64209D18370437892
:10174000BB4282BF204B01221A600846BDE8F081EF
:1017500016F8015B02F8015DEEE70578ED1AEDB2CF
:10176000A9423FBF671AED19EFB20D4638BF5B18AB
:10177000A1EB050132BFDBB227460023C9B2964672
:1017800006EB050C664519D1521B0029D6D0002C5A
:10179000D4D08C428ABF0B462346641A00F104065B
:1017A000A1EB03018CBFE7B20027C9B2F418A6422F
:1017B000C4D016F8015B02F8015DF8E716F8018B5A
:1017C0000EF8018DDEE700BF00D0004030B5D0B18B
:1017D000C27805788478531CDBB2AB4208BF002383
:1017E000A34210D061B10A490244D1F80815117121
:1017F000C3700133DBB29D4208BF0023A34205D072
:101800006FF00F0030BD6FF0360030BD002030BDEE
:1018100000D0004070B5846801221146204612F0C5
:10182000D9F904F118000122002112F0D3F90423A0
:1018300084F831300C23002584F83D300521114B0C
:1018400084F830100D2684F8335084F8325084F830
:101850003C6084F83F5084F83E50D3F8042542F0B1
:101860000102C3F804250122C3F800513046C3F831
:1018700004231A602A46FFF707FA3046FFF7D2F929
:10188000284670BD00D0004038B5124BD3F8003167
:10189000FBB18568012105F13C00FFF797FF10F1CE
:1018A000100F04460DD010F1370414BF00210121A0
:1018B00005F13000FFF78AFF044605F1180012F029
:1018C00093F9044B00221034C3F800211CBF0122FD
:1018D0005A6038BD00D000402DE9F84385680F46B6
:1018E000144605F1180814B92046BDE8F883FF2C0A
:1018F000234628BFFF23E41ADEB2A4B205F1300963
:101900004FF0FF31284612F0CFF931463A464846AB
:10191000FFF7FAFE0646284612F066F9002EE2D0DE
:101920004FF0FF31404612F0BFF9E9E71346024895
:101930000A461946FFF7E8BEF8000020084BC3F836
:101940004005D3F80435C01A20F07F40054B02381B
:10195000984282BF044B4FF40032C3F80021704715
:1019600000100140FDFF7F0000E100E010B5124BC8
:10197000124CD3F804052268801A20F07F40B0F59D
:10198000A37F11D90E49096840F24713B0FBF3F069
:10199000884228BF084603FB002323F07F432360CF
:1019A000084B186012F0C2F92068BDE8104000F240
:1019B0004710FFF7C3BF00BF001001401001002017
:1019C0000C010020D8CF0020024B0022C3F8402198
:1019D000FFF7CCBF0010014046F23543984228BFC4
:1019E0001846054B1860054B1B6840F2471202FB76
:1019F0000030FFF7A3BF00BF0C0100201001002042
:101A000008B5074B0022C3F84021064B4FF40032C3
:101A1000C3F88021FFF7AAFF034B01221A6008BD1B
:101A20000010014000E100E00C01002070B51848F2
:101A300011F0AAFC48B34368164D1B680121984772
:101A4000154B00241C60154B01261E6040F2471305
:101A5000C5F80845C5F840354FF48033C5F8443320
:101A6000C5F804330E4BC5F840414FF40032C3F8BB
:101A70008021314622461120FFF706F91120FFF799
:101A8000D1F8AE6020462E6070BD4FF0FF3070BDC3
:101A9000C44A010000100140100100200C01002088
:101AA00000E100E030B50B4A0B48D2F80415D0E94C
:101AB0000045D2F8043599420AD1084A40F247134A
:101AC00003FB1413106823F07F4300FB043030BD88
:101AD0001946ECE70010014058410020DCCF0020FF
:101AE00030B585B00446154668460322FEF778FDFA
:101AF0000D2200210DF10300FEF79EFD20466A46EF
:101B0000694606F07FFE044620B90322694628464E
:101B1000FEF766FD204605B030BD13B50C4601AAA0
:101B20000331FFF7DDFF48B9032201A92046FEF784
:101B300042FDB0FA80F0400902B010BD0020FBE782
:101B400070B5CD1C06460C462846032106F03EFE25
:101B500060B9637903F03F0343F0400363712246A9
:101B600029463046BDE87040FFF7BABF70BD00009F
:101B7000F0B40278012A04460B4617D003D3022A98
:101B80002CD0F0BC7047184A0D4602F110071068BF
:101B900051682E4603C60832BA423546F7D112784C
:101BA000327062885A73120A9A73EAE70E4A0D4637
:101BB00002F11007106851682E4603C60832BA4277
:101BC0003546F7D11278327062685A73C2F3072132
:101BD000120CDA73120A99731A74D2E701461122B1
:101BE0001846F0BCFEF7FCBCEA4A010010B50C46F2
:101BF000017822788A428AB00ED06946FFF7B8FF92
:101C000005A92046FFF7B4FF10220DF115010DF1D3
:101C10000100FEF7D0FC0AE0012A0AD004D3022A10
:101C20000AD06FF0150002E040886388C01A0AB03D
:101C300010BD40686368F9E71022611C0130E8E7D5
:101C40000378428813F0010305D10949897B0829EB
:101C500001D89F2A0AD98088824207D81F2A05D92D
:101C6000B0F5804F8CBF00200120704700207047E6
:101C7000A0CB00200722FEF7B3BC00B5BFF35B8FFB
:101C800050E8003F43EA010240E8002EBEF1000F99
:101C9000F6D1BFF35B8F18465DF804FB4B09BFF329
:101CA0005B8F50F82300BFF35B8F01F01F010841E9
:101CB00000F00100704700B5BFF35B8F50E8003FB4
:101CC00003EA010240E8002EBEF1000FF6D1BFF397
:101CD0005B8F18465DF804FB10B501F01F0301246B
:101CE0009C404B0900EB8300E143FFF7E4FF044213
:101CF00014BF0120002010BDC378002B41F28832B0
:101D000000F1740108BF0022014812F011BB00BFAE
:101D10006041002008B50246006FA8B100210830DC
:101D2000FFF7BCFF80B1136F9B899B064CBF042358
:101D300003231372517A137A994207D90521104669
:101D4000BDE8084002F007BA0223F2E708BD000030
:101D500070B5064688790D4611F0C8F90E4B8342DE
:101D600019D1284611F0C8F9284611F0C5F90B4CD5
:101D700004EBC000436873B1284611F0BDF904F8C4
:101D80003060284611F0B8F904EBC000BDE870409F
:101D9000406811F029BF70BDECD000201801002070
:101DA000C0F3072310705370000CC1F307231171A7
:101DB000090C90709171000A090AD0705371D171A9
:101DC000704700002DE9F047804689461348144DBE
:101DD0004FF0FF3111F01EFA044600F10806002111
:101DE0003046002711F035FA2775204611F084F9A6
:101DF00005EBC000A0F80280204611F07DF905EB4C
:101E0000C00003214760304611F066FA80F8029066
:101E1000A0F800802046BDE8F08700BFECD000208D
:101E20001801002070B5154686B00C4619B9FFF7A9
:101E3000C9FF044668B301220021684611F0CAFEBA
:101E4000204611F059F9144E06EBC000C0F804D03A
:101E5000204611F03DFA2146104811F0FEF942F2F9
:101E60001071684611F020FF204611F045F916F870
:101E7000300030B1204611F0FDF96FF0040006B0DB
:101E800070BD0DB12C60FAE7204611F0F3F9284639
:101E9000F5E76FF03600F2E71801002074CC00205F
:101EA00070B5154D062205F108010646FEF783FBC5
:101EB0000446D8B1062142F20500FFF783FF04462D
:101EC000B0B106223146083011F00CFA214600224A
:101ED00042F20500FFF7A6FF044638B90622314654
:101EE00005F10800FEF77CFB0123EB71204670BD75
:101EF0006FF03604FAE700BFA0CB002007B506213B
:101F0000684606F063FC40B99DF80530684603F06A
:101F10003F038DF80530FFF7C3FF03B05DF804FB06
:101F2000F8B507460E4642F227002721FFF74AFF81
:101F30000446D0B12721083011F0CEF939460546C4
:101F4000FFF798FE31461022E81DFEF749FB1022EC
:101F5000002105F11700FEF76FFB2146002242F237
:101F60002700BDE8F840FFF75DBF6FF03600F8BD11
:101F700000F13001FFF7D4BF38B50121054642F228
:101F80002D00FFF71FFF044658B12946083011F015
:101F9000B2F92146002242F22D00BDE83840FFF799
:101FA00041BF6FF0360038BD38B50221054642F218
:101FB0000C00FFF707FF044628B30221083011F098
:101FC0008BF9012D024615D10A211048FFF766FE54
:101FD000507015702146002242F20C00FFF722FFDC
:101FE000044628B9012D08D180210848FFF745FE95
:101FF000204638BD00234370EBE76FF080010348B3
:10200000FFF759FEF4E76FF03604F1E710CC00203B
:1020100038B50121054642F20A00FFF7D3FE044617
:10202000D8B108308DB1012111F065F921460022A7
:1020300042F20A00FFF7F6FE044620B93DB1202126
:102040000748FFF71AFE204638BD2946ECE76FF037
:1020500020010348FFF72FFEF5E76FF03604F2E7A3
:1020600010CC00202DE9F8430C462021074690466D
:10207000FFF7A8FE064600283CD02021083011F0CA
:102080002BF9202200210546FEF7D6FA4FF0000971
:10209000C14506D1314638460022BDE8F843FFF776
:1020A000C1BE62782B78D11802311F2904F10804CF
:1020B00006DD304611F0DEF86FF01500BDE8F8835C
:1020C000E918501C4870981CC0B20133287055FAAA
:1020D00083F314F8081C5970013054F8041C284488
:1020E000FEF77EFA2B7814F8072C13442B7009F1B5
:1020F0000109CDE76FF03600BDE8F8830288438818
:102100009A4210B518D8052A16D9B3F5486F13D8D6
:102110008488B4F5FA7F0FD2C188A1F10A0292B285
:1021200040F67640824207D804FB0333B3EB810FBD
:10213000B4BF0120002010BD002010BD2DE9F341E7
:102140004C4C94F8A430064625461BB194F8A520C3
:102150009A4209D995F8A530013385F8A5300024B5
:10216000204602B0BDE8F0810221002001F0A4FF6A
:10217000804680B14FF4805104F17000FFF77DFD7F
:10218000042106F10800FFF778FD404601F0BDFF8D
:102190006FF00A04E4E7052104F17000FFF77EFD0B
:1021A000074610B14046FFF733FF07213248FFF7DB
:1021B00075FD804610B10020FFF7F6FE95F8A530BA
:1021C0009BB995F8A52095F8A4309A4222D1002217
:1021D000114642F22900FFF725FE044658B995F84A
:1021E000A530013385F8A53005E00020FFF7C4FED7
:1021F00004460028E5D00120FFF7BEFEB8F1000F2D
:1022000002D00120FFF7D0FE002FA9D00120FFF758
:10221000FFFEA5E706F130013046FFF781FE0446D8
:102220000028E8D195F8A530013385F8A53095F858
:1022300045305B07DFD531466846FFF71BFD0123BC
:10224000082142F24E008DF80730FFF7BBFD05462E
:1022500060B108226946104411F044F8224629462C
:1022600042F24E00FFF7DEFD0446C4E76FF036048D
:10227000C1E700BFA0CB002010CC00202DE9F8431F
:10228000424D95F8A43006462C4623B195F8A5207A
:1022900001339A4208DD94F8A530013B84F8A5305B
:1022A00000252846BDE8F8830221002001F004FF44
:1022B000804678B14FF4805105F17000FFF7DDFCE6
:1022C00008217018FFF7D9FC404601F01EFF6FF09F
:1022D0000A05E6E7052105F17000FFF7DFFC074678
:1022E00010B14046FFF794FE07212948FFF7D6FCBE
:1022F000804610B10020FFF757FE0020FFF73CFE9C
:10230000054680B994F8A53094F8A4209A421CD2CE
:10231000013B84F8A530B3891E4923F00203B38141
:10232000022005F09BF994F8A53013B10120FFF7C6
:1023300023FEB8F1000F02D00120FFF735FE002F79
:10234000AFD00120FFF764FEABE7072142F228007F
:10235000FFF738FD8146A8B10721083010F0BCFF17
:102360003146FFF787FC2A46494642F22800FFF72C
:1023700059FD05460028D6D194F8A530013B84F8D4
:10238000A530D0E76FF03605CDE700BFA0CB002029
:1023900010CC0020711F000038B500F1080504467C
:1023A00002212846FFF798FC20B12046BDE83840BE
:1023B000FFF7C4BE03212846FFF78EFC20B120465C
:1023C000BDE83840FFF75ABF38BD000008B5082106
:1023D0000848FFF763FC024648B907210548FFF7A4
:1023E0005DFC20B11046BDE80840FFF7DDBD0020D0
:1023F00008BD00BF10CC00202DE9F0410D460121A1
:1024000001F05AFE0446002868D007213448FFF73F
:1024100045FC00284FD102213148FFF73FFC10B1A5
:102420003048FFF73DFD304904F14F0004F15608F4
:10243000FFF720FC29464046FFF71CFC192142F219
:102440000D00FFF7BFFC0646D0B31921083010F08D
:1024500043FF192205460021FEF7EEF8002760230E
:102460002B70AB704146681D6F70EF70FFF702FC78
:1024700094F84F302B73B4F86030A5F80D30B4F8F1
:102480006230A5F80F30B4F86430A5F81130B4F814
:102490006630A5F813303A46314642F20D00FFF798
:1024A000C1FC68B92046022101F02CFD2046BDE8A0
:1024B000F04101F02ABE0020FFF776FD0028AAD0E7
:1024C0001F23E3722046002101F01CFD204601F08D
:1024D0001CFE0020BDE8F041FFF778BFBDE8F081A9
:1024E00010CC0020A1CB0020A0CB0020012310B5F0
:1024F0000621044600F8013B06F068F918B9A379F3
:1025000063F03F03A37110BD2DE9F04186B004AA2A
:10251000002140F60340FFF785FC0446002840F008
:10252000CB81049B9B681B786BB9C34A1360C34B78
:10253000BFF35B8F012253E8001F43E8002000280F
:10254000F9D1BFF35B8F049810F094FE04AA002128
:1025500041F20300FFF766FC0446002840F0AC811E
:10256000049BB74D99680822013105F11600FEF76A
:1025700037F8049810F07EFE214604AA41F20100CB
:10258000FFF750FC0446002840F0968104988368C9
:102590005A78AA73D9789A7842EA01222A821A795B
:1025A000EA73197ADA7942EA01226A825A799B79C6
:1025B00042EA0323AB8210F05DFE214604AA41F2F9
:1025C0000900FFF72FFC0446002840F07581049BAA
:1025D000996806220131681CFEF702F804982C70F5
:1025E00010F048FE214604AA41F20200FFF71AFC4F
:1025F0000446002840F06081049B99684022013124
:1026000005F11E00FDF7ECFF049810F033FEAB7EE1
:102610005E0640F1DB81214604AA42F20300FFF787
:1026200001FC0446002840F04781049B9968082279
:10263000013105F17800FDF7D3FF049810F01AFE80
:10264000214604AA42F20200FFF7ECFB04460028F0
:1026500040F03281049B9B68B3F80120A5F88820E4
:1026600042B1DA780A2A28BF0A22114605F18C0005
:1026700011F0B0FA049810F0FDFDAC7E14F02004C7
:1026800000F0FF8095F83A301C0714D504AA002109
:1026900042F21C00FFF7C6FB0446002840F00C8104
:1026A0000498836853F8012F5B68C5F88430C5F837
:1026B000802010F0DFFD95F87830980600F1008159
:1026C000082142F20100FFF77DFB0446002800F0DC
:1026D000DF800821084410F0FFFD95F8783095F868
:1026E0007960990702464CBF2F200F209F0648BFF4
:1026F00040F0400016F0090F18BF40F40060DE07FC
:1027000095F8403003F0060348BF40F01000062B58
:1027100008BF40F4C0700021FFF742FB21460022B1
:1027200042F20100FFF77EFB0446002840F0C4801F
:10273000AB7E980621D4B5F88810F1B904AA41F20D
:102740000500FFF76FFB0446002840F0B580B5F8A0
:1027500088307BB9049B3B489B6899785A7842EA59
:102760000122A5F888209A880A2A28BF0A22114641
:1027700011F030FA049810F07DFD082140F6014078
:10278000FFF720FB0446002800F08280082108445F
:1027900010F0A2FD95F87830D907024640F1BB80D1
:1027A00023A1D1E90001FFF7FBFA2146002240F600
:1027B0000140FFF737FB044600287DD1014604AAFB
:1027C0004FF60140FFF72EFB044628BB049810F09B
:1027D00051FD214604AA4FF60240FFF723FB0446B1
:1027E000D0B9049B1848996802220131FDF7F8FE20
:1027F000049810F03FFD04AA21464FF60340FFF76E
:1028000011FB48B9049B1148996801221144FDF756
:10281000E7FE049810F02EFD0023072204A90848C3
:102820000493CDF81330FDF7C6FE11E0AFF300803E
:1028300090880002008000207801002010CC002049
:10284000A0CB00202CCC0020FFCB0020FECB002012
:10285000002864D15F4E3368002B7DD195F860303D
:10286000DB0700F195805C48FFF740FE044618BB8B
:102870003368002B79D05E68574A07230146B0477A
:1028800073E0022140F66D40FFF79CFA064610B94E
:102890006FF0360410E00221083010F01DFD012316
:1028A000447003702246314640F66D40FFF7BAFA95
:1028B000044600283FF4E6AE204606B0BDE8F081AD
:1028C00004AA002142F22F00FFF7ACFA04460028C8
:1028D000F2D104988368B3F80180B3F8037010F064
:1028E000C9FC042142F22400FFF76CFA06460028D6
:1028F000CED00421083010F0EFFC2246A0F8008072
:102900004780314642F22400FFF78CFA0446002843
:102910003FF4D6AED0E731484FF0005143E7304B9B
:1029200018689A8802909B79ADF80C2002A90722BA
:1029300029488DF80E30FDF73EFE00288AD001F0C0
:102940005DFD04460028B7D102212648FFF795F91E
:102950002046FFF73BFDAFE700211C681E4A072316
:102960000846A04707287FF479AF2B78012B2AD19E
:10297000AB7903F0C003C02B25D11B48FFF790FAB9
:102980000446002898D104211648FFF776F9D6E7C7
:1029900001AA00214FF60940FFF744FA00287FF40E
:1029A00062AF019881684B7853B10123062202314E
:1029B0000D482B70FDF714FE019810F05BFCD4E776
:1029C00010F058FC4FE76FF0150475E76FF0120434
:1029D00072E700BF48300020A0CB00201088000222
:1029E000DC48010010CC0020A1CB002010B5FFF77F
:1029F0008BFD034B1B6813B1BDE81040184710BD99
:102A000074010020024BD3F8E430DB68184700BFA4
:102A1000A0CB002038B505460C4619B9FFF7D2F90E
:102A2000044698B140F635439D4209D12046FFF750
:102A3000E9FF054610B1204610F01CFC284638BDC1
:102A40002146044810F009FC0025F7E76FF0360531
:102A5000F4E700BF74CC002038B50721044642F2E9
:102A60003200FFF7AFF9054698B10721083010F0A2
:102A700033FC23880380002402238470C370037115
:102A800044718471294642F23200FFF7C3FF2046A9
:102A900038BD6FF0360038BDF7B5074601AA0021F2
:102AA00042F22F00FFF7BEF9D8B901988368B3F856
:102AB0000160B3F8035010F0DDFB062142F2220062
:102AC000FFF780F9044670B10621083010F004FCCD
:102AD0003B88038046808580214642F22200FFF732
:102AE00099FF03B0F0BD6FF03600FAE7F0B50C21A6
:102AF00085B00546B0F801606248FFF7EDF818B1FF
:102B00006149022004F0AAFD2B787BB1022100204C
:102B100001F0D2FA044638B12B78C372002101F0DB
:102B2000F1F9204601F0F1FA05B0F0BD2C1D214667
:102B300002A8FFF79FF89DF80830023BDBB2012B9B
:102B40007DD8062205F111010DF101008DF8083044
:102B5000FDF746FD01238DF80030022102A801F0A7
:102B6000ABFAEB78012B044609D16FF02001454800
:102B7000FFF7A1F82CB902A801F08AF90446002C4D
:102B8000D2D0204602A920F8486BFFF773F82A7EBE
:102B9000EB7D43EA0223A4F85E30AA7E6B7E43EA13
:102BA0000223A4F86430EB7E2A7F43EA0223A4F8D0
:102BB0006630EE78E670012E1AD1344F694604F182
:102BC0004F00FFF757F8394604F15600FFF752F867
:102BD000062107F17000FFF761F848B1D7E920231B
:102BE000002203F04003134302D03046FFF710FAEF
:102BF0000321204601F086F9237B032B18D1EB78C3
:102C000023B1224B93F8783019071DD5022142F2E7
:102C10001600FFF7D7F80546B0B10221083010F0D2
:102C20005BFB23880380294642F21600FFF7F2FE81
:102C3000204601F06AFA0020FFF7C8FB74E721463E
:102C40006846FFF717F888E7104D95F87920D20706
:102C500008D52046FFF700FF20B98021201DFFF78F
:102C60000CF8E5E795F878309B0606D52046FFF787
:102C700013FF10B94FF48071F0E72046FFF73CF8DE
:102C8000D6E700BF10CC002099230000A0CB002085
:102C900070B506460D4642F221000321FFF792F877
:102CA000044660B10321083010F016FB85700680E1
:102CB000214642F22100BDE87040FFF7ABBE6FF045
:102CC000360070BD2DE9F84FDFF8E080354C98F8FC
:102CD0000D3035486FF3071388F80D3001F090F888
:102CE000471C4FF0FF323946304811F0C7FCB8B9E5
:102CF0002E4DDFF8BC9004F1D40B17B910F0D0FEC4
:102D0000E5E76B7B1B09042B39D195F80CA0BAF1D0
:102D1000000F37D15146584610F082FA064628B9BE
:102D2000404080F311884FF0040002DF4FF0FF3184
:102D3000484610F0B9FFD4F8C00018B110F09AFA64
:102D4000C4F8C0A0304610F0C3FAC4F8C000304642
:102D5000FFF758FE98B1484610F046FF304610F095
:102D6000CBF900211F20FEF7F3FFD4F8C00010F0CC
:102D700081FA00233046C4F8C03010F07BFA1435D5
:102D8000013FBAE7BAF1010F04D128691C3800F0FD
:102D900077FFF4E7BAF1020FF1D128692C3801F07E
:102DA000B3FAECE7A0CB00209CCC002088CC00201C
:102DB00048CC00202DE9F04F037D012B91B0044653
:102DC0002AD0032B40F0978383681E885D88C6F362
:102DD0000B03C382FF2343750421083010F09BFAD4
:102DE000A389AB4203D0204610F044FA10E0E08AF9
:102DF00001F016F905460028F5D001F0F3FA320B80
:102E000060752146284600F0E3FE284601F07DF972
:102E1000002011B0BDE8F08F86683278132A00F2E6
:102E20006F83934013F40C2F00F06A83404080F3CB
:102E300011884FF0040002DF3146281DFEF72EFFF7
:102E400030B12846012101F05DF83046FFF7BEFAA7
:102E5000284601F05AF90621BA48FEF71FFF00285C
:102E6000C1D00521B748FEF719FF0028BBD10120CA
:102E7000FFF7CEF8B7E7A668B6F8010001F0D0F882
:102E800005460028AFD0337882782BB1002A40F075
:102E90005F83037A43725BE3F3788372BAB90BB151
:102EA00004F007FBAB7AD3B901232B720FE0A668BD
:102EB000B6F8010001F0B4F80546002893D0317847
:102EC00011B101F072FB8EE78378002BE8D0284621
:102ED000317801F06AFB284600F044FE38E32846CA
:102EE000FEF718FFF3E7A1680B788DF82030B1F8F2
:102EF0000130ADF82130CB788DF82330B1F80B30AC
:102F0000ADF83730B1F80D30ADF83930B1F80F30D9
:102F1000ADF83B3009AE4B7C8DF83D300431304686
:102F2000FEF7A8FE0025062204A90DF12B0004954A
:102F3000ADF81450FDF754FB304604F0B7FB0746DC
:102F4000A8B1B04213D006220DF125010DF13100D8
:102F5000FDF746FB39463046FEF78CFE9DF82430DF
:102F600002338DF8243008A8FFF7C0FD3BE70622A6
:102F700006A90DF131000695ADF81C50FDF730FBA8
:102F8000F1E7A068F0E7A568B5F8010001F048F89E
:102F9000064600283FF427AF2B789BB92A79EB78B7
:102FA00043EA0223A0F85E30AA796B7943EA022350
:102FB000A0F86430EB792A7A43EA0223A0F866305D
:102FC00000F082FD30465FE0A668B6F8010001F02F
:102FD00027F8054600283FF406AF337823B90822C6
:102FE000F11C6830FDF7FCFA574E96F87920D207AD
:102FF0000CD595F86930DB0708D52846FFF72CFD7E
:1030000020B98021281DFEF738FEA1E296F878301D
:103010009F066FD595F868309E066BD52846FFF75A
:103020003BFD002866D14FF48071EBE7A368D978A7
:103030009A781F8842EA0122ADF8202059791A793E
:1030400042EA0122ADF822209A79D97942EA012296
:10305000ADF824201A7A5B7ABDB242EA03232846EF
:10306000ADF8263000F0DCFF804620B9022128466A
:10307000FFF70EFEB7E608A900F03AFD38B91E21A9
:103080002846FFF705FE404601F03FF8ABE60E216B
:1030900042F22000FEF796FE06460028F3D00E21ED
:1030A000083010F019F90E2205460021FDF7C4FA88
:1030B000BDF820306B80BDF82230AB80BDF82430E5
:1030C000EB80BDF826302F802B81314642F2200064
:1030D000FFF7A0FCD7E7A368188800F0A1FF05461A
:1030E00000283FF480AE08210430FEF7F5FD0028EB
:1030F00000F02E822846FEF7FFFD29E2A368B3F810
:10310000010000F08DFF054600283FF46CAE061D5F
:1031100007213046FEF7E0FD002800F019820A4B37
:1031200093F878309806E5D595F868309906E1D59A
:103130002846FFF7B1FC0028DCD14FF480713046FF
:1031400061E700BF10CC0020A0CB0020A568288834
:1031500000F066FF064600283FF445AED5F8022091
:10316000D5F8063013431FD16B89EBB908A904F0D9
:1031700007FAC8B1122142F21A00FEF723FE0746F1
:1031800000283FF41FAF1221083010F0A5F82B885B
:1031900020F8023B102208A9FDF722FA394642F234
:1031A0001A00FFF737FC0DE7336F002B40F0148255
:1031B00006F148073946202004F05AFA3067002803
:1031C00040F00A823946012004F052FA30670028A4
:1031D00055D081898A062CD5D5F80220D5F806303D
:1031E000134326D1B5F80A80B8F1000F21D112217E
:1031F00042F21A00FEF7E6FD074600283FF4E2AE71
:103200001221083010F068F82B88054625F8023B9B
:10321000316FCA791A312846FDF7E2F9336FD87950
:103220000F28BBD8C0F1100200212844FDF704FA92
:10323000B4E7CB0723D5D0E91223D5F80690D5F80B
:1032400002804B4508BF424519D1B0F850206B8928
:103250009A4214D1122142F21A00FEF7B3FD07463A
:1032600000283FF4AFAE1221083010F035F82B885B
:10327000054625F8023B316FCA795231CBE702216E
:1032800042F21B002F88FEF79DFD054600283FF403
:1032900099AE0221083010F01FF82946078042F24B
:1032A0001B007EE7A668AB486FF01001FEF703FD38
:1032B000337843B9711C4022A748FDF791F90821E2
:1032C000A448FEF7DAFCA54B1D68771C002D3FF4DF
:1032D0008AAD32782B68002A0CBF38460020984708
:1032E0006D68F3E79E4DA0682A68002A3FF47BAD25
:1032F000037823B90130904700232B6073E5002049
:10330000F9E7284610F00FF8DFF868A20290029B58
:10331000002B3FF468ADA668092128460FF0FBFF9B
:10332000337AB046334493F809B018F8013F023BB2
:10333000012B3CD8414608A8FEF79CFC9DF82030A4
:10334000023B8DF82030DAF80030C3B128460FF088
:10335000FAFF337AB4F80C90A3813278009403908A
:103360002B464FFA8BF108A8DAF80070B8472369AA
:10337000BDF80C20A4F80C9013FA82F3A360082186
:1033800074483778FEF78AFC28B9012F03D84146E4
:1033900008A8FFF731F8317A284601310FF0BBFF5A
:1033A000029B03F1FF395FFA89F30293AFE74046CE
:1033B00004F07CF9002814BF0146414608A8FEF736
:1033C00059FCC0E728460FF0AEFF664BDFF8A4B10A
:1033D000DFF8A48118700293029B02991B785A1E91
:1033E0000A70002B3FF4FFACA668182128460FF0A6
:1033F00092FF022128460FF08EFFF37DB146334441
:1034000093F816A019F8023F023B012B31D8494628
:1034100008A8FEF72FFC9DF82030023B8DF82030E5
:10342000DBF80030F27DA281ABB17378012B2BD198
:103430004D4BB8F80000A1681844FDF7D1F8A289F7
:10344000A1684A48FDF7CCF8B8F80030A289023BE1
:103450001344A8F8003008213E483678FEF71EFCD9
:103460000028B9D1012EB7D8494608A8FEF7C4FFF5
:10347000B2E7484604F01AF9002814BF014649464D
:1034800008A8FEF7F7FBCBE7022B4FFA8AFA27D101
:10349000354BB8F80000A1681844FDF7A1F8A289DF
:1034A000A1683248FDF79CF8B8F80020A38930499C
:1034B000023A1A44023B92B20B8028462A49A8F8E5
:1034C00000200FF00FFFF17D28460FF024FF327827
:1034D00000942B46514608A8DBF80070B847BAE7BD
:1034E000032BB8D1002140F2DC521F48A8F800108D
:1034F000FDF7A2F8EBE70FF0BDFE6FF0150088E4D2
:1035000004F10805022128460FF005FF3378082B47
:103510003FF4B1AC32D8052B7FF465ACA7683E7898
:10352000002E7FF460ACB7F8010000F079FD05468D
:1035300000283FF490ACFB78C3720FF07BFF31465C
:10354000284600F0DFFC2E80AE78002E3FF474ACED
:10355000284699E510CC00202E01002070010020A3
:103560002801002046300020683100204C30002027
:1035700014010020780100202C010020302B3FF4A2
:1035800096AC3E2B7FF42FACA668012128460FF0A5
:10359000C2FE3378013B0C2B3FF625AC01A252F85A
:1035A00023F000BFE72E000003330000872F000048
:1035B000C92F00004D3100002D300000D730000031
:1035C000A5320000E5320000832F0000E72D000047
:1035D000FD300000C5330000306FFAE52DE9F843F7
:1035E000037D8668012B044605D0404080F3118896
:1035F0004FF0040002DF8289012AF6D93278132ABB
:10360000F3D8934013F40C2FEFD000F108050221FA
:1036100028460FF080FE33780F2B18D0132B23D0C1
:103620000E2B61D1A368032128461E780FF073FE8C
:10363000A36821461878FEF78BFB16B12C4810F0D2
:10364000D3FA20460FF016FE0020BDE8F883A668E6
:103650000421777828460FF05EFE21463078FEF789
:1036600077FB002FEDD0E9E7D4F80880002798F821
:1036700000309F42E5DA08EB8703B3F80100B3F8A6
:1036800003604FF02003EFF3118983F3118800F0FA
:10369000C7FC054618B989F311880137E7E789F3B4
:1036A000118800F11C0996B14FF02003EFF311804F
:1036B00083F31188696929B1AA690B686B6191422A
:1036C00008BFAB6180F31188013EB6B219B9284634
:1036D00000F01BFDE1E7484610F013F8284600F023
:1036E000EFF910F081FADEE720460FF0C3FD7CE72A
:1036F00048CC0020084AD2F8E4303BB9816841B197
:10370000C16831B1C2F8E400184670476FF0440058
:1037100070476FF015007047A0CB002070B5204CAB
:10372000D4F8E43086B00646002B33D0012104F1F2
:103730007000FEF7A2FA10F001002ED1194B1A49C1
:103740001E606FF0080305900490039302900190AF
:103750000090164B16484FF4207210F081FCD4F8FC
:10376000E4309B689847054688B926B906B0BDE89D
:103770007040FEF7C9BE012104F16C00FEF77DFA2E
:10378000C30704D404F164010A480FF0BAFF2846C5
:1037900006B070BD6FF01205F9E76FF04405F6E76B
:1037A000A0CB002074010020D8410020C52C0000CF
:1037B0007C0100206041002008B503F0ABFF18B188
:1037C0008089003018BF012008BD0000F0B585B029
:1037D00005460C4617461E46FEF732FA20B96FF032
:1037E0001504204605B0F0BD05213E48FEF756FA07
:1037F000002871D121463A4642F20800FEF732FC19
:1038000004460028EDD1002E46D12B78D90743D4A9
:103810000F2200216846FCF70FFF6B88ADF80030DF
:10382000AB88ADF8023007238DF80D302B78DA071E
:103830003CD502212B482C4CFEF730FA10B1601C0D
:10384000FEF72EFB23788DF8053000230F2142F27E
:1038500006008DF80430FEF7B5FA044600283ED085
:103860000F22694608300FF03DFD2146002242F24A
:103870000600FEF7D7FA04460028B2D10120FEF771
:10388000C7FB04460028ACD12B789B07A9D4402164
:103890001448FEF7F2F9A4E70A9A314642F2090009
:1038A000FEF7E0FB04460028B2D09AE7A86870B1A2
:1038B000437913F0C00F92D1FEF7F2FA04460028C4
:1038C0008FD101238DF8053026B10223BEE7FEF724
:1038D00015FBF3E70323B9E76FF0440481E76FF0CA
:1038E00036047EE710CC0020A0CB002038B505467A
:1038F00005480FF08FFC044620B1002108300FF07E
:10390000A8FC2575204638BD0CD1002010B5014615
:103910004FF02003EFF3118083F311880B4A00234B
:10392000D2F8C040C2F8C03080F3118824B9012019
:10393000BDE81040FFF7DABF012204F1080022754C
:10394000A38119460FF085FC204610BDA0CB0020B6
:103950002DE9F0411D4E96F8403003F00603062B8A
:10396000074630D11A4D2B6843602860102106F1BC
:103970007000FEF782F910F0100803D000242046F2
:10398000BDE8F0816FF0080106F17000FEF793F9D1
:103990004246414642F22500FEF744FA044640B151
:1039A0006FF0100106F17000FEF785F9C5F8008090
:1039B000E5E72C68002CE1D0BC4202D0236800204F
:1039C00098476468F6E76FF02204D8E7A0CB0020A0
:1039D00070010020F8B51A4C236807460A4613B157
:1039E0006FF00F00F8BD04211648FEF757F90646A0
:1039F0000028F5D103211348FEF750F9E0B140212A
:103A000042F226002260FEF7DDF9054618B9206073
:103A10006FF03600F8BD402108300FF05DFC402209
:103A20003946FCF7DDFD3246294642F22600FEF714
:103A3000F9F918B12660F8BD6FF03000F8BD00BF8D
:103A40002801002010CC002038B5064B1C68054624
:103A500004B938BD236813B1E97A28469847A469A8
:103A6000F6E700BFE4010020BFF35B8F0068BFF3FF
:103A70005B8F7047C38910B504462BB100690FF006
:103A8000F9FB00232361E38110BDBFF35B8F50E896
:103A9000003F5A1E40E800210029F8D1BFF35B8F98
:103AA00018467047BFF35B8F50E8003F5A1C40E850
:103AB00000210029F8D1BFF35B8F18467047000042
:103AC000004870472CCC0020084B70B51C68054698
:103AD00004B970BDE6683EB1B5F86630B5F864204B
:103AE000B5F85E102846B047A469F1E7E40100206C
:103AF000F8B5074608460E46FEF700FB054610B926
:103B000000252846F8BD094B1C68002CF9D0A36895
:103B10000BB9A469F9E73146384698470028EFD039
:103B20003046FEF7EBFA0028F3D1E9E7E401002084
:103B3000F8B5C37804463BB900F15606084B1D683A
:103B400004F148071DB9F8BD00F14F06F6E72B69EF
:103B50001BB13A46314620469847AD69F2E700BFAF
:103B6000E401002038B5064B1C68054604B938BD91
:103B7000636913B1297A28469847A469F6E700BF1C
:103B8000E4010020037B032B10B5044615D1037A12
:103B90008B4201D3002010BD437A8B42FAD2C37806
:103BA0004172012B06D103F019FC0028F2D0237AD0
:103BB000637210BD6FF01500F9E76FF0380010BDAB
:103BC000024B1A6882611860704700BFE401002050
:103BD000012A70B505460C460FD0022A10D18B6819
:103BE0001E88C3890BB1FFF745FFA389F31A04337D
:103BF0009BB2EB8133B32C6170BDC3893BB92846BE
:103C0000FFF738FF2046BDE870400FF033BB8E89C8
:103C1000B342F4D3006908300FF099FB8642EED826
:103C20002869A289A16808300FF05CFBEB89A289A2
:103C30009B1AEB8120460FF01DFBEB8973B92C69B1
:103C4000EB812B61A368A2891B8804339342D9D1ED
:103C500021462846BDE8704000F028BD70BD10B573
:103C6000047B032C05D008460FF004FB6FF03800EE
:103C700010BD4A612C300FF0F0FA002010BD00009A
:103C80002DE9F0410D4D064600F11C074FF00008EC
:103C9000002138460FF059FD044608B9BDE8F0810F
:103CA00063680BB1304698472B6823606B68C4F893
:103CB00004802C60002BEBD16C60E7E7D40200207D
:103CC0002DE9F04105460F463E484FF0FF3198463A
:103CD00014460FF0E9FF3C4B03F14400FFF7C4FE2C
:103CE00030B11A7B033A012A02D81846FFF7C8FF01
:103CF0002B7B032B49D1042107F108000FF003FBB4
:103D00002A88324E42EA04320280BB8934687168E4
:103D10007A69043B438002233B75236833608C42FD
:103D200008BF736062604FF02003EFF3118283F3EA
:103D3000118800232360AB69002B34D1AC616C6126
:103D400082F311883846FEF75DFE002836D04FF02A
:103D50002003EFF3118083F311886B69002253B1C4
:103D60009C4228D12368A96902BB8C426B6100D1B7
:103D7000AB610023236080F3118800236360336804
:103D800023607368346003B974600E480FF02CFF31
:103D9000B8F1000F04D038460FF06CFA4FF000086D
:103DA0004046BDE8F0811C60AC61C9E78C421360FD
:103DB00008BFAA61DDE71A461B68D0E74FF001088B
:103DC000EEE700BF2CCC002038020020D4020020F7
:103DD00038B5044600F12C05002128460FF020FAE2
:103DE00058B92046FFF74CFF2046FFF743FE04F189
:103DF0004400BDE83840FFF748BE0FF03BFAEBE760
:103E000038B51F4B002201219A60054610F022FCB4
:103E10001C4B03F14400FFF727FE194608B90120A7
:103E200038BD1A7B9AB9BFF35B8F1A1D52E8000F99
:103E300020F0400442E8004EBEF1000FF6D1BFF37F
:103E40005B8F420603D51846FFF7C2FFE7E70C7BFE
:103E5000032CE4D105F114000B4B0022042110F0D7
:103E6000F9FB012385F8203005F12800074B0022DB
:103E7000042110F0EFFB022385F83430204638BDD2
:103E8000D8CC002038020020540200206402002018
:103E90002DE9F041194C04F1440780463846FFF7FC
:103EA000E3FD054610B10020BDE8F08101469C22EB
:103EB00020460126FCF7C0FBBFF35B8F57E8003FAD
:103EC00047E80062002AF9D1BFF35B8F0722414621
:103ED00004F14800FCF784FB5023A4F86030602311
:103EE00004F1740026726672A570A4F86230044969
:103EF00010F0A6F92046BDE8F08100BF380200208E
:103F000045420000F8B5057B8D4204467ED0017322
:103F100015B94430FFF7C6FD237BDBB1032B75D108
:103F2000A378022B72D004F12C000FF0B9FB04F13E
:103F30001C000FF0B5FB0021354810F055FC0023A4
:103F40002046E363236400F0DDFA2046BDE8F84034
:103F5000FFF77ABDA378022B05D104F14400BDE838
:103F6000F840FFF792BDEB1E012B43D8204600F02E
:103F700003FB284B1D68EDB9274E284F4FF0200357
:103F8000EFF3118183F3118863692BB1A0691A687B
:103F90006261834208BFA26181F311888BB13268EC
:103FA0001A6072685D60336002B9736038460FF062
:103FB0001BFEE3E76B6813B1E17A20469847AD69D1
:103FC000D9E7A3781BB904F1740010F057F9BFF3D7
:103FD0005B8F043454E8003F43F0400344E8003270
:103FE000002AF7D1BFF35B8F00210948BDE8F840F4
:103FF00010F0FABB022D03D12046FFF725FDACE7F8
:10400000012D03D1E37A002BA7D0F5E7F8BD00BF5F
:10401000D8CC0020E4010020D40200202CCC0020C9
:1040200010B50B4C024604F14400FFF71DFD68B1CA
:10403000237B033B012B08D82388934205D104F14D
:104040004400FFF72FFD204610BD002010BD00BF2B
:104050003802002038B50D46044600F14801072219
:104060002846FCF7A8FA60B1E378072233B904F1D7
:1040700056012846BDE83840FCF79DBA04F14F01CF
:10408000F7E738BD10B50B4C014604F14400FFF7CB
:10409000EBFC08B9002010BDA378002BFAD1204614
:1040A000FFF7D8FF0028F5D104F14400FFF7FAFC30
:1040B000204610BD3802002038B50E4C034604F1EE
:1040C00044000D46FFF7D0FC08B9002038BDA278A7
:1040D000002AFAD13BB9237BAB42F6D10648FFF761
:1040E000E1FC044838BD19462046FFF7B3FF00281D
:1040F000EBD1F0E7380200207C02002010B5044626
:104100004430FFF7CFFC204610BD4430FFF7BDBC64
:104110004830704770B505460E4640F20640032110
:10412000FDF750FE044698B1032108300FF0D4F893
:104130002B8803808670214640F20640FEF76AFC19
:10414000044618B904212846FFF7DCFE204670BD5E
:104150006FF03604FAE708B5037B013B032B03D865
:10416000DFE803F0050C0E0C6FF0380008BDC172DB
:104170000021FFF7C7FE0020FEF728F9002008BD48
:10418000BDE80840FFF7C6BFF8B507460D4642F246
:1041900013000E21FDF716FE0646C8B10E210830A9
:1041A0000FF09AF8002104460E22FCF745FA3B88EE
:1041B00023802B8863806B88A380AB88E380EB88A7
:1041C0002381314642F21300BDE8F840FEF722BCDD
:1041D0006FF03600F8BD000038B50A88B0F85E30E0
:1041E0009A4204460D460CD84A889A4209D3B0F840
:1041F00064208B889A4204D1B0F86620CB889A421A
:104200001AD004F1740010F039F80D4B93F878309F
:104210009A0703D594F868309B0701D4E3782BB94B
:1042200029462046BDE83840FFF7AEBF2946204664
:10423000BDE8384000F058BA6FF0440038BD00BF08
:10424000A0CB002007B530F8143CADF8003030F8B2
:10425000123CADF8023030F8103CADF8043069463D
:1042600030F80E3CADF806307438FFF7B5FF03B0F8
:104270005DF804FB38B5084B0D46002808BF18460A
:104280004FF0FF310EF0C6FF291D044608300EF036
:10429000E0FF204638BD00BFACD000202DE9F04142
:1042A00006460C4616480021FFF7E4FF3378032B3F
:1042B00005464FF0000605D00EF0DCFF35462846D7
:1042C000BDE8F081466100F108070E4E3846B6F8A9
:1042D00088800FF03CF880450CD2B6F8886054F81E
:1042E000081F324638460EF0FDFF314620460FF0DB
:1042F00012F8E4E738460FF02AF886B2EFE700BF7D
:10430000CCD00020A0CB0020F8B5037B054693B9A4
:10431000BFF35B8F031D53E8002F22F0400143E8F9
:104320000014002CF7D1BFF35B8F530603D5BDE813
:10433000F840FFF74DBD002105F12C000EF070FF95
:10434000044628B9404080F311884FF0040002DF92
:10435000194E8189B6F88820914207D800231A4661
:1043600021462846FFF7ACFC40B1F8BD05F10C072B
:1043700001463846FFF792FF014620B92046BDE8C6
:10438000F8400EF077BF012300222846FFF798FC83
:104390000028F3D0A289B6F888309A4202D80023C8
:1043A0000122DDE721463846FFF778FF0146002865
:1043B000E4D001231A46E8E7A0CB002010B9084B4F
:1043C00018607047C3682BB1054A13682BB9106099
:1043D000184670476FF0150070476FF04400704743
:1043E00044370020034BC01A034B80105843C0B21F
:1043F000704700BF38020020976FF9960E4B70B5DA
:1044000000221D6859680D4E1446B018955109B91F
:10441000014601240832502A0546F6D1186004B13D
:10442000596001F0E5F903F0D1F8044608B900F04D
:1044300091F9204670BD00BFD4020020E8010020A1
:1044400070470000044B186818B9044A5A600B60A2
:1044500070476FF00B007047DC020020F4CC0020A6
:104460007047000000238360054B596800F1080283
:1044700011B95A601A6070470A605A60704700BFED
:1044800074030020C36B30B513B1083B002203B99D
:1044900030BD8B4203F108040ED19968056C32B926
:1044A000AC42C16300D1016400229A6030BDAC42CD
:1044B000116008BF0264F7E72246002CE8D09B6831
:1044C000002BE5D0083BE2E7036810B504462BB1AA
:1044D00043685B6803B1984700232360E3681BB11E
:1044E0002046BDE81040184710BD10B5A0F11004DB
:1044F000214650F8100CFFF7C5FF2046BDE81040DC
:10450000FFF7E2BF1A4B2DE9F7431C6806462CB1B2
:104510000027DFF86080083CB94614B903B0BDE855
:10452000F083636801A930469847002818DB019D95
:1045300023882B87A5F85830414605F110000FF06D
:104540007FFE326CAF6005F1080372B93364F36328
:1045500001982E604368C5F80C901B6803B198471A
:10456000A468002CDAD0083CD7E713603364EFE787
:1045700074030020EB440000C36B10B5A3B1B3F18A
:1045800008000AD110BD083CFFF79EFF64B1A36884
:1045900003B1083B20461C46F6E71C68002CF2D10C
:1045A000BDE81040FFF790BF10BD38B5C46B0D4695
:1045B0000CB1083C04B938BD63689B6813B1294647
:1045C00020469847A468F3E70431FFF753BEF8B5D7
:1045D000144605460F4602F1080004211E460EF05F
:1045E00092FEA1894780043901803246214628463F
:1045F000BDE8F840FFF733BB2DE9F0418B89032B71
:1046000006460D4631D90846042150F8084F678800
:104610000EF081FEAB89BB4227D167782FB3237898
:10462000012B22D0132B20D004210020D6F80080AB
:10463000FFF720FE00F108060546042130460EF083
:104640004BFE002401230221037047708170C47067
:1046500030460EF041FE2346047044702A46404620
:104660000521BDE8F041FFF7B2BFBDE8F081C06BA6
:1046700000B1083800B97047B0F858308B42FAD012
:1046800083680020002BF6D0A3F10800F2E7C06B8E
:1046900000B1083800B97047038F8B42FBD08368A4
:1046A0000020002BF7D0A3F10800F3E770B58B8949
:1046B000032B05460C4604D82046BDE870400EF09A
:1046C000D9BD0846042150F8083F5E880EF023FE4D
:1046D00031462846FFF7DBFF0028EDD0436821462E
:1046E0001B699847E8E700002DE9F041184B1A785C
:1046F000013212F0FF0208BF01220C461A70054673
:10470000042100201E78FFF7B5FD00F108080746D8
:10471000042140460EF0E0FD1223467008210026D9
:1047200003708170C67040460EF0D6FD238803806A
:1047300063884380A3888380E388C3803A46284601
:1047400033460521FFF743FF3046BDE8F08100BF47
:10475000700300200148FFF785BE00BFE8CC0020B1
:104760000620704710B50A4A002312F833408442ED
:104770004FEAC30102D10A44907810BD01331B2BCC
:10478000F3D110F0400F14BF0020062010BD00BF71
:10479000504B010010B50446006908B10EF06AFDE7
:1047A000A3680BB120469847204618220021BDE897
:1047B0001040FBF741BF08B501F108000EF0BBFD4A
:1047C000002008BD2DE9FF410D6806460C464FF05C
:1047D00000084FF4205302A900682F688DF8088064
:1047E000ADF80A30FDF702FA98B142F6010303A9C9
:1047F00030688DF80C80ADF80E30FDF7F7F940B158
:10480000236923B1328A5988914200D25A8001200B
:1048100012E061683068FDF7E9F910B10023236107
:10482000F5E7E368A0681A784AB1B5F85A3081898B
:104830005B1A934203DA002004B0BDE8F081042142
:1048400008300EF049FD338AA1682061038043805F
:104850008A89B5F85A308968D6F804809B1A0025F1
:104860000A44009531469BB23846C047011EE2DB40
:10487000E06802780B1D2AB90370A06808300EF0BA
:104880002BFDC4E79A42F8D0A2689389043B938138
:10489000D1E78B6870B505460C460E6863B9486869
:1048A000012108300EF018FD2B68A0601B78002B4A
:1048B0000CBF012302230370A3681B78012B03D0D4
:1048C000022B1AD0002070BD2B681B78002BF9D169
:1048D0006068042108300EF0FFFCE0602B8A038042
:1048E0002B685B8843806368B6F85A009B89C01ABE
:1048F000042894BF0020012070BD2B681B78022B78
:10490000E0D16068122108300EF0E6FCE060296812
:104910002B8A20F8023B10220131FBF761FE63680D
:10492000B6F85A009B89C01A1228E2E72DE9F04137
:104930000E6888B005460C46002742F6010302A91E
:104940000068D6F800808DF80870ADF80A30FDF7E1
:104950004DF928B90023A360012008B0BDE8F0811B
:104960004FF4205303A928688DF80C70ADF80E3071
:10497000FDF73CF940B1A368002BEDD02A8A598895
:104980009142E9D25A80E7E76268B6F85A309289D4
:104990009B1A032BE1D9102300900DEB03026E68E4
:1049A00029464046B047021ED4DB237C9A42D1D12F
:1049B00004A9E068FBF7FFFD0028CBD160746068B4
:1049C000042108300EF088FC2B8AA060038043800D
:1049D000C2E7000010B517230446A0F85A304387F9
:1049E0000649A4300FF02CFC0023C4F89C30C4F816
:1049F000A0302068BDE8104001F082BBAF4E00003F
:104A000010B512F0010F8B7C04D013F0150F18D0E5
:104A10004C68B4B1940704D513F02A0F13D08968F9
:104A200089B11A4012F0300F02D0037A022B0CD950
:104A300012F00C020BD0837A002B14BF00200F2041
:104A400010BD022010BD032010BD052010BD104672
:104A500010BD2DE9F7430F6806460C46006849680B
:104A6000D7F80090FDF7C2F8804600284ED11522F5
:104A700031464846FFF7C4FF0546207548B1E36854
:104A80001D7815B184F814804546284603B0BDE86A
:104A9000F083A068022108300EF01EFC338AA16862
:104AA000206103808A89B7F85A308968D6F8048073
:104AB00000959B1A9BB20A4448463146C047011EE6
:104AC00008DA01F1FF03FE2B9ABF4942C9B20E2159
:104AD0002175DAE7E06802788B1C82B90370A06860
:104AE00008300EF0F9FBA368B7F85A509B89ED1A0D
:104AF000E3681B789D42D4BF00250125C5E79A4293
:104B0000EDD0A2689389023B9381BEE70125BCE703
:104B100008B50078FFF726FE0138C0B204289ABF16
:104B2000024B53F82000024808BD00BF3C4B010077
:104B3000F14E000010B58A89022A044603D0102ADB
:104B40000AD0002010BD0023037001F108000EF010
:104B5000F2FB6080012010BD022300F8013B896850
:104B6000FBF73EFDF6E7000010B50421FFF77FFDDF
:104B70000446CC300FF038F8D4F8983043B104F143
:104B8000A40147F230520348BDE810400FF0D0BBFB
:104B900010BD00BF6041002070B50F4D2C680E465F
:104BA000B4B90E4B6B6005F19403BFF35B8F53E810
:104BB000002F43E800410029F9D1BFF35B8F0322A6
:104BC00005F1CC0011460FF005F83560204670BDA8
:104BD0006FF00B0070BD00BF7C03002014CD0020DF
:104BE00003681B7B032B0AD1BFF35B8FD0F89400C3
:104BF000BFF35B8F6FEAA00000F001007047012057
:104C000070470620704770B5054600F1CC06C5F820
:104C100098100C4630464FF0FF310FF045F828460B
:104C2000FFF7DEFF28B930460EF0DEFF6FF03800E8
:104C300070BD266906F108000EF085FBB389A081DE
:104C4000E38120692D680EF043FB236906469868CE
:104C5000FFF75EFF3246034604212846FFF7B7FC04
:104C6000002070BD2DE9F7430446A4301E460F46D0
:104C700090460FF003FBD4F89830DBB1186928B1E7
:104C80000EF0F8FAD4F8983000221A61D4F898306F
:104C90002068D3F8049000255D603A4600933146C1
:104CA0004346C847D4F8980043680BB9FFF772FD34
:104CB000C4F89850D4F89C1059B1D4F8A0200B68CF
:104CC000C4F89C30914208BFC4F8A0302046FFF7DA
:104CD0009AFF002003B0BDE8F0838A898968002329
:104CE000FFF7C0BFFFF7F9BFFFF7F7BFFFF7F5BF4B
:104CF000FFF7F3BFFFF7F1BFFFF7EFBFFFF7EDBF20
:104D0000FFF7EBBFFFF7E9BF10B40A4690B189681F
:104D10000B88162B05D800220423114610BCFFF780
:104D2000A1BFF92B28BFF9234387A0F85A309289F5
:104D30000023F3E710BC70472DE9F04104460D460F
:104D400031B1002205231146BDE8F041FFF78ABFCB
:104D50000668337A012B23D0D0F8983003B31B7D3B
:104D6000F3B100F1CC074FF0FF3138460EF09CFF55
:104D70002046FFF735FF20B93846BDE8F0410EF078
:104D800033BFD4F898301F69B868FFF7C1FE3A46C0
:104D9000034604213046FFF71AFCD4F898301D6111
:104DA000BDE8F08170B504468868D4F8982032B325
:104DB00013692BB19589196929449960D189998121
:104DC000137DC578E3B9052D206806D00F2D17D1C6
:104DD000037A012B14D8022107E0037A012BFAD9B8
:104DE000022B0AD0032B0BD10421FEF7CBFE38B9DE
:104DF000D4F8983001221A7570BD0321F5E70E250D
:104E000000222B4620461146BDE87040FFF72ABF1E
:104E1000F7B500F194030546BFF35B8F53E8002F0D
:104E200042F0040243E800210029F7D1BFF35B8F71
:104E300005F1CC0420460EF0D7FE20460EF0D4FE3D
:104E400020460EF0D1FED5F89C408CB9D5F89830AC
:104E50000022C5F89C20C5F8A0200BB903B0F0BD16
:104E60000E231146284603B0BDE8F040FFF7FABE16
:104E7000266867682FB1002300941A460E21184651
:104E8000B8472046FFF786FC002EDFD03446366850
:104E9000EFE710B50446FFF7BBFF206801F03AF9D1
:104EA0002046E4220021BDE81040FBF7C5BB10B549
:104EB0000446A438FFF7ACFF54F8A40C01F02AF91B
:104EC000002344F8A43C10BD08B5037B032B01D09C
:104ED000002008BD0421FFF7DAFB0028F8D0BFF35B
:104EE0005B8FD0F89430BFF35B8F5B07F0D408BDC5
:104EF00008B50421FFF7BBFBBDE80840CC300EF03D
:104F000073BE08B50421FFF7B2FBBFF35B8F00F15E
:104F1000940353E8002F22F0010243E80021002906
:104F2000F7D1BFF35B8FCC30BDE808400EF05CBE1C
:104F300008B50421FFF79BFBBFF35B8F00F19403DF
:104F400053E8002F22F0020243E800210029F7D1A4
:104F5000BFF35B8FCC30BDE808400EF045BE2DE9B5
:104F6000F3410F680C46064601462A223846FFF7F1
:104F700047FD05462075E8B9628A01900092237CBE
:104F8000D6F80880E26831463846C047002802DB80
:104F9000237C98420BD000F1FF03FE2B9ABF4042C6
:104FA000C0B20E202075284602B0BDE8F0812575FC
:104FB0000125F8E70025F6E72DE9F743064688685E
:104FC000D1F800900C4608300021D9F800800EF08E
:104FD00083F90027E0602774152231464046FFF729
:104FE0000FFD0546207408BBA168B9F85A308A89BC
:104FF0008968A08800909B1A77680A449BB2314662
:105000004046B847011E0BDA01F1FF03FE2B9ABFA1
:105010004942C9B20E212174284603B0BDE8F0838D
:10502000A06808300EF058F90125F5E73D46F3E792
:1050300038B50D461446FFF747FF80B1B0F85A3037
:1050400001349C420BD800210846FFF7BDFA01212C
:10505000044608300EF040F90570204638BD0024A3
:10506000FBE7000010B5046801F108000EF063F9D9
:1050700000221E212046FFF7DBFF024620B1034B32
:1050800004212046FFF7A3FA002010BD314F000095
:105090002DE9F0418B681D88162D064620D9D0F8E1
:1050A0000080022203214046FFF7C2FF0746D0B12D
:1050B000022108300EF010F900246FF0060303708F
:1050C00044700A4B40463A460421FFF780FAF92D16
:1050D00028BFF9257587A6F85A502046BDE8F0810B
:1050E0000420BDE8F0810E20BDE8F081034F0000F0
:1050F0002DE9F041884617460121042205461E4647
:10510000FFF796FF044680B1042108300EF0E4F862
:1051100080F80080C670A0F8017022462846044B33
:105120000421BDE8F041FFF752BABDE8F08100BFAD
:10513000034F00002DE9F0418B8904460E46002BF9
:105140005ED00846012150F8087F0EF0E4F82D4AA1
:105150003D780023114612F833E0AE454FEAC30014
:1051600018D102449578012D24D0052D33D1BFF3F9
:105170005B8F04F1940252E8003F43F0020E42E8D4
:1051800000ECBCF1000FF6D1BFF35B8F9B0722D57B
:10519000BDE8F08101331B2BDDD12846FFF7E2FA91
:1051A00070B36DB30623002229462068BDE8F041A4
:1051B000FFF79EBF04F19402BFF35B8F52E8003FFC
:1051C00043F0010E42E800ECBCF1000FF6D1BFF352
:1051D0005B8FDA0714D40B18B1895A7891420DD33A
:1051E0005B68314620469847012D034608D138B107
:1051F000397829B10022D8E70423F9E7012DFBD043
:10520000BDE8F081504B01002DE9F0438B89062B5E
:105210008DB080460C4601D0142B68D12046042165
:1052200050F8083FD8F800901D885E8802AF0EF055
:1052300072F821463846FFF77DFC002859D0002D32
:105240005AD00024002E56D0B54255D84FF42053E2
:10525000694638468DF80040ADF80230FCF7C6FCD0
:1052600038BBD8F800901422002107A8FBF7E4F916
:10527000012211214846FFF7DBFE0990002838D0B3
:10528000012108300897CDF81C800EF025F8002782
:105290000A9007AB07701C4A0B973146284600F06E
:1052A00045FE0A9B1C78D4B909980DF0E3FF0A2348
:1052B0000CE042F6010301A938468DF80440ADF830
:1052C0000630FCF793FC0028CBD010232A4610218F
:1052D0004846FFF70DFF20460DB0BDE8F0830B4BAD
:1052E000099A04214846FFF772F90024F3E70424E1
:1052F000F1E70E24EFE7354601232A461021484600
:10530000FFF7F6FEF1E700BFC5470000034F0000BE
:105310002DE9F043046887B0142206460D4601A823
:105320000021FBF789F900220F212046FFF780FEBC
:10533000039068B3DFF86090019605F108074FF01D
:105340000108AB89012B06D8124B039A0421204691
:10535000FFF73DF918E038460DF0EDFF01AB4A4686
:10536000014606468DF8148000F0E0FD9DF81430EB
:10537000002BE6D003980DF07DFF9DF814303246E7
:105380000E212046FFF7B4FE002007B0BDE8F083F1
:105390000E20FAE7034F0000B94F00002DE9F0415D
:1053A000074686B00C4690461D46A3B306681422F5
:1053B000002101A8FBF740F9002241463046FFF7E3
:1053C00037FE039048B3BDF83030ADF80830012304
:1053D0008DF81430124A019701AB2946284600F097
:1053E000A5FD9DF814707FB103980DF043FF3CB10B
:1053F0009DF814302A4621463046FFF779FE0024F6
:10540000204606B0BDE8F081064B039A04213046E1
:10541000FFF7DDF8F3E70124F2E70E24F0E700BF21
:10542000B94F0000034F000007B58A6813885288FF
:1054300000920C210D22FFF7B1FF03B05DF804FBD1
:1054400007B58B6800221B8800920A210B22FFF708
:10545000A5FF03B05DF804FB2DE9F0438B89062B13
:105460008DB007460E4601D0142B52D13046042190
:1054700050F8083FD7F800901D885C880DF10408AB
:105480000DF049FF31464046FFF754FB98B1002D1F
:1054900042D0002C3FD0A5423ED818223E680021C1
:1054A0000DEB0200FBF7C8F8012209213046FFF797
:1054B000BFFD089008B90E2427E0012108300697A7
:1054C000CDF81C800DF008FF00270A230990214623
:1054D0000770144A8DF82C30284606AB00F026FDE4
:1054E0009DF82C405CB108980DF0C4FE9DF82C305E
:1054F0002A4608213046FFF7FBFD002405E00A4B51
:10550000089A04213046FFF762F820460DB0BDE846
:10551000F0830424F9E7254601232A46082148465A
:10552000E9E700BF534A0000034F00002DE9F04FA8
:10553000D0F800908046084689B050F8083F8B4666
:1055400006211D885F889E880DF0E5FE8246002DAD
:1055500057D00024002F53D0BD4252D84FF42053CF
:1055600002A901A8ADF806608DF804408DF8084046
:10557000ADF80A30FCF73AFB064648B10A232A4642
:1055800006214846FFF7B4FD204609B0BDE8F08F7C
:10559000D8F80090BBF80C401422314603A8FBF762
:1055A0004BF8324607214846FFF742FD049028B3E6
:1055B0000A238DF81D30144A8DF81C4003AB394680
:1055C0002846CDF80C800596CDF818A000F0AEFC6A
:1055D0009DF81D405CB104980DF04CFE9DF81D3007
:1055E0002A4606214846FFF783FD0024CCE7074BF7
:1055F000049A04214846FEF7EAFFC5E70E24C3E7F4
:105600003D460123ECE700BF2D490000034F000099
:10561000F0B58B6806681D8885B0074675B35C8851
:105620005CB3A5422AD8102200216846FBF704F893
:10563000002205213046FFF7FBFC019010B90E2037
:1056400005B0F0BD21466B460D4A0097284600F094
:105650006DFC029C4CB901980DF00CFE0A232A4601
:1056600004213046FFF744FD05E0064B019A042172
:105670003046FEF7ACFF0020E2E725460123EEE7C7
:1056800093480000034F00002DE9F04186B090469A
:1056900005460E461822002168461F46FAF7CCFF41
:1056A000B8F1000F1FD10023ADF812300C9B03930B
:1056B0009DF834308DF8103001238DF814301B4ADA
:1056C00000956B46394638468DF8086000F02EFC90
:1056D0009DF814408CB9019AB2B1154B04212846AB
:1056E000FEF775FF11E0002241462846FFF7A0FCB7
:1056F00001900028D7D10E2407E0B8F1000F0FD099
:1057000001980DF0B7FD26B90024204606B0BDE88B
:10571000F0819DF814303A4631462846FFF7E8FC00
:10572000182EF1D19DF81440EFE700BF5F4F000045
:10573000034F00002DE9F3410C46066854F8083F7A
:105740000D4620460121B3F800800DF0DCFD29460E
:10575000304601F0ABFE0746C8B9012120460DF0E6
:10576000DAFD022120460DF0D6FDB8F1000F10D071
:105770002B7B0C3BDBB20193AB6800933A4643466C
:1057800039463046FFF780FF02B0BDE8F0810020C7
:10579000FAE70120F8E737B5056801F108000C4683
:1057A0000DF0C9FD034650B1227B0192A268009220
:1057B000002211462846FFF767FF03B030BD0120E5
:1057C000FBE737B5056801F108000C460DF0B3FDA5
:1057D000034650B1227B0192A2680092122113224B
:1057E0002846FFF751FF03B030BD0120FBE7000062
:1057F00008B50348FEF736FEBDE8084000F038BBA8
:1058000008CD002010B50C46D8B1D1B1FFF75CFB34
:105810000346C8B1D0F8982072B1D3F8A020002078
:1058200020602AB9C3F8A040C3F89C40104610BDC0
:105830001460C3F8A04010BD2146BDE81040FFF73A
:10584000E2B96FF0150010BD6FF0380010BD704761
:1058500008600020704730B400234D681A46AA4201
:1058600007D10A899A420DD00B81CA6830BC19460B
:1058700010470C6804EB021401322489A34238BF9C
:105880002346ECE730BC704710B4019BDC690A4644
:105890009969234610BC18472DE9F84F8946BDF891
:1058A0002810D9F80C40022982464DD81944022903
:1058B0001E464CDC53781778002547EA03276368B7
:1058C0009D4207D2216801EB051101315046FEF7D8
:1058D000C1FB48B963689D4230D14FF0000845458F
:1058E00004D16FF0100626E00135E8E74FEA081B07
:1058F000236803EB0B0013F80B3013B108F1010818
:10590000EDE707220AF148010130FAF769FE1FB1FD
:105910002368012203F80B2063689845E1D04546CF
:10592000236803EB051523892F81BB4203D0214651
:105930004846FFF790FF3046BDE8F88F002FEFD1C3
:1059400022682B01D754EBE76FF00606F3E76FF000
:105950000C06F0E72DE9F0478A4691461B219A1C78
:1059600080461E46FFF764FB0446D0B100F10807ED
:10597000022138460DF0B0FC0546314625F802AB51
:1059800038460DF0A9FC324649462846FAF728FE6B
:105990004046002322460421FEF719FE0020BDE800
:1059A000F0876FF00B00BDE8F08700008A8C2DE9CE
:1059B000F04102320C461D218046FFF739FB0546B7
:1059C00020B300F10806022130460DF085FCA369E2
:1059D000A18C1B8A0746304627F8023B0DF07CFC61
:1059E000A28C216A3846FAF7FBFD0A4B636000235C
:1059F0002561A36021464046FFF704FF044610B12D
:105A000028460DF037FC2046BDE8F0816FF00B040E
:105A1000F9E700BF89580000194A0168136870B59A
:105A2000858853B1536843B333F8044C53F8083CAA
:105A3000142606FB043333F8043C142404FB051538
:105A400009B1A94208D1002300F108018360506820
:105A500078B95160116070BD0C8A2CB901339CB2C9
:105A60000C8214312346EBE7A342FAD36FF0150002
:105A700070BD01605160184670BD1B68FFDE00BF3D
:105A80006004002010B5174BBFF35B8F03F1540285
:105A900052E8004F44F0010E42E800ECBCF1000F68
:105AA000F6D1BFF35B8FE20702D4188559850AE06F
:105AB0001A8D824203D85A8D8A4201D310BD1885AF
:105AC0005A8D8A42F2D3BFF35B8F5B6DBFF35B8F5E
:105AD0009B0706D40A2204490448BDE810400EF092
