:10000000182E0020D50F0000251000006D0E0000F6
:100010006D0E00006D0E00006D0E00006D0E0000F4
:100020006D0E00006D0E00006D0E0000610A0000F4
:100030006D0E00006D0E00001D0A00006D0E000028
:10004000990F00001FA30000990F0000990F0000F6
:10005000990F0000990F0000990F0000990F000000
:10006000990F0000990F0000990F0000990F0000F0
:10007000990F0000990F0000990F0000990F0000E0
:10008000990F0000990F0000990F0000990F0000D0
:10009000990F0000990F0000990F0000990F0000C0
:1000A000990F0000990F0000990F0000990F0000B0
:1000B000990F0000990F0000990F0000990F0000A0
:1000C000990F0000990F0000990F0000990F000090
:1000D000990F0000990F0000990F0000990F000080
:1000E000990F0000990F0000990F0000990F000070
:1000F000990F0000990F000000000000ED160000AD
:1001000000000000E50D000000000000E50D00000B
:1001100000000000E50D000000000000E50D0000FB
:1001200000000000E50D0000843E0020D118000012
:1001300000000000E50D000000000000E50D0000DB
:1001400000000000E50D000000000000E50D0000CB
:1001500000000000E5A2000000000000E50D000026
:10016000603E0020991C000000000000E50D00002A
:1001700000000000E50D000000000000E50D00009B
:1001800000000000D91D000000000000E50D000087
:1001900000000000E50D000000000000E50D00007B
:1001A00000000000E50D000000000000E50D00006B
:1001B00000000000E50D00000000000019A3000091
:1001C00000000000E50D000000000000E50D00004B
:1001D00000000000E50D000000000000E50D00003B
:1001E00000000000E50D000000000000E50D00002B
:1001F00000000000E50D000000000000E50D00001B
:1002000000000000E50D000000000000E50D00000A
:1002100000000000E50D000000000000E50D0000FA
:1002200000000000E50D000000000000E50D0000EA
:1002300000000000E50D000000000000E50D0000DA
:1002400000000000E50D000000000000E50D0000CA
:1002500000000000E50D000000000000E50D0000BA
:1002600000000000E50D000053B94AB9002908BF9D
:1002700000281CBF4FF0FF314FF0FF3000F08EB967
:10028000ADF1080C6DE904CE00F01AF8DDF804E0D9
:10029000DDE9022304B07047430803F05533C01A68
:1002A000830803F0333300F03330184400EB1010B0
:1002B00000F00F3000EB002000EB0040000E704714
:1002C0002DE9F0478C460D460446089E002B51D17F
:1002D0008A4217466DD9B2FA82FEBEF1000F0BD0EA
:1002E000CEF1200C01FA0EF520FA0CFC02FA0EF702
:1002F0004CEA050C00FA0EF44FEA174A250CBCFB39
:10030000FAF81FFA87F90AFB18CC45EA0C4508FBF6
:1003100009F3AB420AD9ED1908F1FF3280F02381CD
:10032000AB4240F22081A8F102083D44ED1AA4B28C
:10033000B5FBFAF00AFB105544EA054400FB09F945
:10034000A14509D9E41900F1FF3380F00A81A145E4
:1003500040F2078102383C44A4EB090440EA08401B
:100360000021002E61D024FA0EF400233460736063
:10037000BDE8F0878B4207D9002E54D0002186E8D3
:1003800021000846BDE8F087B3FA83F1002940F068
:100390008E80AB4202D3824200F2FA80841A65EB6F
:1003A00003050120AC46002E3FD086E81010BDE8C2
:1003B000F08712B90127B7FBF2F7B7FA87FEBEF153
:1003C000000F34D1EB1B3A0C1FFA87FC0121B3FB61
:1003D000F2F8250C02FB183345EA03450CFB08F341
:1003E000AB4207D9ED1908F1FF3002D2AB4200F25F
:1003F000D1808046ED1AA3B2B5FBF2F002FB105596
:1004000043EA05440CFB00FCA44507D9E41900F1BC
:10041000FF3302D2A44500F2B8801846A4EB0C04C6
:1004200040EA08409DE731463046BDE8F087CEF10E
:10043000200405FA0EF307FA0EF720FA04F83A0C36
:1004400025FA04F448EA0308B4FBF2F14FEA184530
:1004500002FB11441FFA87FC45EA044501FB0CF33B
:10046000AB4200FA0EF409D9ED1901F1FF3080F02A
:100470008A80AB4240F2878002393D44EB1A1FFA72
:1004800088F5B3FBF2F002FB103345EA034500FBAD
:100490000CF3AB4207D9ED1900F1FF386FD2AB4234
:1004A0006DD902383D44EB1A40EA01418FE7C1F1B2
:1004B000200722FA07F88B4005FA01F448EA030303
:1004C00020FA07FE4FEA134CFD404EEA040EB5FB3E
:1004D000FCF94FEA1E440CFB19551FFA83F844EA55
:1004E000054509FB08F4AC4202FA01F200FA01FAF0
:1004F00008D9ED1809F1FF3043D2AC4241D9A9F136
:1005000002091D442D1B1FFA8EFEB5FBFCF00CFBEF
:1005100010554EEA054400FB08F8A04507D9E41839
:1005200000F1FF3529D2A04527D902381C4440EA02
:100530000940A4EB0804A0FB02894C45C6464D4681
:1005400015D312D056B1BAEB0E0364EB050404FACE
:1005500007F7CB401F43CC40376074600021BDE8F3
:10056000F0871846F8E69046E0E6C245EAD2B8EBD6
:10057000020E69EB03050138E4E72846D7E7404659
:1005800091E78146BEE7014678E702383C4445E7FB
:10059000084608E7A8F102083D442BE7704700BF72
:1005A0000139034611F8012F0AB91A70704703F890
:1005B000012BF7E70138013910F8013F11F8012F3D
:1005C000934202D1002BF7D11A46981A704770B5A2
:1005D00082B1013A0C46034603D11A782078101AEA
:1005E00070BD1E782578AE4200F1010001F10101D5
:1005F000EFD0F2E7104670BD81EA000313F0030F5D
:1006000070B503460BD0013B0A4491421BD170BD2B
:10061000002AFCD011F8014B03F8014B013A9C076A
:10062000F6D11E1F0D46541B0C44032C06D822F095
:1006300003042144234402F00302E4E755F8044B89
:1006400046F8044FEFE711F8014B03F8014FDCE7E0
:1006500070B5C9B203469C0711D141EA012444EAAE
:1006600004441E46951B1D44032D0ED822F003049E
:10067000234402F003021A44934209D170BD002AB8
:10068000FCD003F8011B013AE5E746F8044BE9E723
:1006900003F8011BF0E700002DE9F04190B01D4682
:1006A0009B88073323F0070306AF032AADEB030D46
:1006B0000446884606AE3ED111462D4800F0A2FE03
:1006C0002378032B41D8DFE803F0023A3C3E294966
:1006D0003846FFF765FFA379059762780492A27800
:1006E0000392E278029222790192627900921B21B0
:1006F000214A07F10C0000F093FE424607F10C017D
:100700001E4800F07FFEA9881D4800F07BFEB5F86A
:10071000048033469A1B90451DDA1A481A4D00F0A2
:1007200071FE3446A31B98451CDC184800F06AFE95
:10073000164800F067FE2837BD46BDE8F081144931
:10074000C6E71449C4E71449C2E7144A0A213846E7
:1007500000F066FEBFE72A68511C2960127803F892
:10076000012BD7E714F8011B284600F04BFED9E710
:1007700043CE00005FCE000088CE0000ABCE00006C
:10078000C7CE0000D9CE0000F0CE0000EECE0000B3
:1007900066CE00006DCE000077CE000081CE000056
:1007A00010B5214B88B0186803909B881F48ADF89E
:1007B000103000F027FE002002F0B0FB014620B10F
:1007C0001B4800F01FFE08B010BD1A4800F01AFECA
:1007D000194903A802F0F4FC0146C0B9174C4FF4C4
:1007E000C8700BF0CBFC0023A0220593ADF81620B7
:1007F000F02206932146ADF818200093012205A8A7
:10080000079302F001FC014618B10D48D9E70D48E5
:10081000D7E74FF4C8700BF0B1FC02F099FC014629
:100820000028DCD00848CCE71CCD00007CCD0000BF
:100830009ECD0000BECD00009906000074CD0000E2
:10084000F8CD0000D5CD00001ECE0000054B1B6882
:10085000082B01BF044B1868B0FA80F0400918BF9C
:1008600000207047300100103401001008B54FF02F
:100870002003EFF3118183F31188FFF7E7FF40B105
:100880004FF080430022C3F80C21C3F81021C3F8B5
:100890003825FFF7DBFF10B1384B394A1A60FFF7F4
:1008A000D5FF18B1374BFB22C3F81825FFF7CEFF51
:1008B00048B13548354B02681B6822F00F0203F03F
:1008C0000F0313430360FFF7C1FF18B1304B4FF420
:1008D00000721A60FFF7BAFF48B14FF08043D3F8B7
:1008E0000024D20744BF6FF00102C3F800244FF088
:1008F0001023D3F80022002A03DBD3F80432002BA4
:100900002FDA244B0122C3F80425D3F80024002A4F
:10091000FBD04FF010221221C2F80012D3F80024AD
:10092000002AFBD04FF010231222C3F80422194BE7
:100930001A46D3F800140029FBD00021C3F804158F
:10094000D2F80034002BFBD0BFF34F8F1249134B6A
:10095000CA6802F4E0621343CB60BFF34F8F00BF5D
:10096000FDE70D4B4FF0FF329A62DA620C4B0D4AF5
:100970001A6081F31188002008BD00BF8C5600402A
:100980004881030000F00040E40E004058020010CF
:100990004096024000E0014000ED00E00400FA054E
:1009A000A83B00200090D003084881684A897F2A2C
:1009B0000BD8C069884208D000B50BF031FC5DF857
:1009C00004EB03494FF080520A6070479C190020E5
:1009D00004ED00E0044800232021C21801332E2B2F
:1009E00082F80013F9D1704700E100E0084A094994
:1009F000936809685966084918664B6843F0805344
:100A00004B60002383F311889368586E704700BFD2
:100A10009C19002090F0000000ED00E00E498A686B
:100A200028201044EFF3098C80E8F01F0B4F4FF0A3
:100A30000066202080F31188CA698A603E60106ECB
:100A40000023136680F3118802F1280090E8F01F5C
:100A50008CF30988704700009C19002004ED00E029
:100A60001EF0040F0CBFEFF30880EFF309808169DB
:100A700031F8021C11F0FF0101D0022907D04040DB
:100A800080F3118804494FF080520A60704700B526
:100A900000F02CFA00BD000004ED00E010B50446A3
:100AA0000BF094FB22680146BDE81040014800F0BD
:100AB000A9BC00BF5DD0000010B504461A4800F084
:100AC000A1FC04F11800194CFFF7E8FFA36A9A0192
:100AD00002D5174800F096FCA36ADB0102D5154841
:100AE00000F090FCA36A180302D5134800F08AFCBA
:100AF0000E4CA36A590302D5104800F083FCA36A88
:100B00009A0302D50E4800F07DFCA36ADB0302D5F0
:100B10000C4800F077FC054A936A6FEA03436FEADA
:100B20001343936210BD00BF5ED1000000ED00E0F2
:100B300077D100008BD10000A6D10000C5D1000004
:100B4000EBD1000006D2000038B5044619480D4626
:100B500000F058FC04F11800174CFFF79FFFA36A40
:100B6000D90604D51548BDE8384000F04BBCA36A4F
:100B70001A0701D51248F6E7A36A9B070FD511485B
:100B800000F040FC616BA36A180612D50E4800F015
:100B900039FC75B1A36A23F08003A36238BDA36A50
:100BA000DA0701D50948DEE7A36A9B0601D50848A4
:100BB000D9E738BDA7D0000000ED00E0BED00000AE
:100BC000D0D00000E4D00000FDD000000ED1000025
:100BD0002ED1000038B504461D480D4600F012FC29
:100BE00004F118001B4CFFF759FFA36AD80404D581
:100BF0001948BDE8384000F005BCA36A190501D5C5
:100C00001648F6E7A36A9A0514D5154800F0FAFBD2
:100C1000A16BA36A1B0407D5124800F0F3FB1DB1BA
:100C2000A36A23F40043A3620A4B9B6A58050ED5BE
:100C30000D48DEE7A36A5905FAD4A36ADA0501D59F
:100C40000A48D6E7A36A9B0401D50948D1E738BD15
:100C500024CF000000ED00E0BED00000D0D00000A6
:100C60003BCF0000FDD0000055CF000071CF000049
:100C70002ED1000038B5274D6B68C3F30803DA1E88
:100C80000446092A3AD8DFE802F00533352F39390E
:100C900039393937204800F0B5FBEB6A9A0703D59C
:100CA0001E4800F0AFFB0CE0EB6A5B0009D51C4866
:100CB00000F0A8FB1B4B1B784BB101212046FFF72E
:100CC00043FF21460020BDE8384000F013B9164B21
:100CD0001B7823B101212046FFF77CFFF1E7134B7E
:100CE0001B889BB2002BECD02046FFF7E5FEE8E71F
:100CF0000021E3E70021EEE70D48D2E70D480E4959
:100D0000A3F110020F2BD8BF01460C4800F07AFB6C
:100D1000D7E700BF00ED00E0B8CF0000D0CF000063
:100D2000F2CF000028ED00E029ED00E02AED00E020
:100D300012D000008ACF00009FCF000049D00000F1
:100D4000024A536943F010035361704700ED00E01D
:100D500043B2002B08DB012200F01F0002FA00F072
:100D60005B09024A42F82300704700BF00E100E03F
:100D700043B2002B0DDB01225B0900F01F0002FAD9
:100D800000F02033034A42F82300BFF34F8FBFF334
:100D90006F8F704700E100E04209054B00F01F0033
:100DA00053F82220012303FA00F01040704700BFDF
:100DB00000E100E043B2002BA8BF03F1604301F162
:100DC00001014FEA4111ADBF03F5614300F00F008F
:100DD000034BC9B2B6BFC9B283F8001319547047A8
:100DE00014ED00E000F042B808B572B6044B986903
:100DF00018B100229A610AF037FE62B608BD00BF42
:100E00009C190020F8B50C4616461F4604220A9B82
:100E1000099905460BF0E8FCA6F1200121440C4A93
:100E2000AC6521F00701002322F00102EB642B6581
:100E3000EE658A61069A4A60079A8A60089ACA60D3
:100E40000F604FF08072CA61A9642B66F8BD00BFC5
:100E50005DC60000014910220A60704710ED00E0F5
:100E6000404080F3118830BF704700BF404080F39E
:100E70001188DFF81CC0DCF800C01CF4006C0CBF4B
:100E8000EFF30880EFF3098000B5FFF7F3FE00BD34
:100E900004ED00E0042838B504460D4613D00528BB
:100EA00013D0032813D10C4800F0ACFA0BF08EF9E4
:100EB000AA690146094800F0A5FA29462046BDE87E
:100EC000384000F017B80648EEE70648ECE7014660
:100ED000054800F097FAE9E732D20000B0D20000EE
:100EE00058D2000072D200008DD200000146006886
:100EF000FFF7D0BF052810B50CD00BF097FB60B101
:100F00000BF094FB0C4B0D49002808BF19460C4808
:100F100000F078FAFFF7A4FFFCE70BF097FB00283E
:100F2000EED1084C0848A16800F06CFAA068BDE852
:100F3000104000F00BB800BFF0D20000ECD200006F
:100F400001D300009C19002021D3000038B50546CC
:100F50004FF02003EFF3118483F311880BF0D4FBDF
:100F60000B4B9B689D420DD10A4B5A68C2F3080295
:100F700022B90BF055F92046FFF738FD5A6842F0C8
:100F800080525A602046BDE838400BF085B800BF5B
:100F90009C19002000ED00E000B572B60B4A906984
:100FA00000281EBF002191610AF05EFD62B6EFF3DA
:100FB0000580A0F110004FEAC0000549014409C9AD
:100FC00098475DF804EBFFF7EFBC00009C19002088
:100FD000F8000000202080F3118805484FF40061DC
:100FE000401880F30988022080F3148800F006B8C6
:100FF000582F002030BFFFF7FDBF00BF08B5074BDB
:10100000074A23F07F039360BFF34F8FBFF36F8FC7
:101010000AF05AFD0AF062FD0AF088FD00000000A7
:1010200000ED00E008B5FFF7E5FFBDE80840FFF779
:10103000BBBC0000154B16491A6830B50D68C2F3E9
:10104000072295420FD8002248685A60954200F165
:101050000C000AD105225A600E4B01221A70BFF310
:101060004F8FBFF36F8F002030BD50F80C1C50F82D
:10107000044C9A6021F01F0141F01001114344F02B
:101080000104D96001321C61E0E700BF90ED00E08F
:10109000643B002000000020002070470B680133F3
:1010A0000B60014B1B681847AC3B00202DE9F04F4B
:1010B00085B09B460E9CDFF890A0012CB8BF0124A0
:1010C000012B0CBF3023202315468046894601940E
:1010D000029301260A2700220AF101040AB9AA454F
:1010E0001FD2B5FBF4F049463030C047013601222B
:1010F000013F012FB5FBF4F14FF00A0304FB11553A
:10110000BAFBF3FAE8D1494605F13000C047BBF11C
:10111000030F03D1019B9C1B002C0FDC05B0BDE825
:10112000F08F019BBB42E3DBBBF1020FE0D84946E5
:10113000029803920136C047039AD9E74946202016
:10114000C047013CE8E700BFFFC99A3B0A688B68CB
:1011500030B512B14C68A34202DB01338B6030BD65
:10116000651EAB420BBF8C605C1C00218C600CBF09
:10117000D154D05430BD0000014B1860704700BFFF
:10118000AC3B00202DE9F04F89B04FF0000A064635
:101190000F4604921C464FF0FF39D0465546049B3B
:1011A000187810B909B0BDE8F08F45B9252800F0CE
:1011B0000C813946B047049B01330493EFE7642860
:1011C00061D019D839280AD8312850D22D283CD0DE
:1011D00030283DD0252808D13946B0476FE058283F
:1011E00000F08980632800F0EA8039462520B04766
:1011F000049B39461878F0E7702872D006D8692821
:1012000041D06C283CD06828D5D0EEE7752858D05E
:1012100017D87328E9D1236804F1040B1C4625462E
:1012200015F8010B002840F0BF80B8F1030F40F023
:10123000D580E41AA9EB0404002C00F3BB805C46C3
:101240003DE0782857D07A28DEE74FF00308B2E770
:10125000B9F1000F0EDAB8F1000F00F0BC80A0F178
:101260003009B8F1000F08BF4FF00208A3E7B9F149
:10127000000FF4DB0A2303FB0909A9F13009F0E7A9
:101280000AF1010A97E7BAF1010FC5BF073424F04C
:10129000070325681D68D4BF043403F10804002D3A
:1012A00005DA39462D20B0476D4209F1FF39CDF8F6
:1012B000009043462A4639463046FFF7F7FE0025A0
:1012C00079E7BAF1010FC5BF073424F0070322689C
:1012D0001A68CDF80090CCBF03F1080404344346EB
:1012E000E9E739463020B04739467820B0474FF01B
:1012F00008094FF00108BAF1010FC7BF073424F005
:10130000070323680593C2BF03F108041B68059314
:101310004FF008024FF00003D8BF04340393079343
:1013200093460BF1FF3B059B4FEA8B0023FA00F03D
:1013300010F00F0009D1079B13B9BBF1000F22D1A8
:101340004FF0300E07E0069AEBE709288CBF4FF00C
:10135000570E4FF0300E394670440692B047039B4B
:10136000079501330393BBF1000FECD1B8F1030FE4
:10137000A5D1039BC3EB4905002DA0DD39462020F4
:10138000B047013DF8E7531E91450693EBDBB8F1FA
:10139000010F03D139463020B047E4E7B8F1020F1E
:1013A000E1D139462020F7E7394603932C46B04770
:1013B000039B34E739462020B047013C3CE72068D6
:1013C000251D3946B0472C4679E7AA46A8464FF076
:1013D000FF390125EFE64FF00108ECE65C460546D3
:1013E000E9E6000013B502AC002344F8043D0246D0
:1013F0000B4603482146FFF7C5FE019802B010BD19
:101400009D1000000FB407B504A951F8040B019119
:10141000FFF7E8FF03B05DF804EB04B0704700008D
:101420000CB430B585B008AB044653F8042B0190DA
:101430000291002501A9074800930395FFF7A2FE3A
:101440000398029B9842B8BF255405B0BDE83040D0
:1014500002B070474D1100007047000013B5114CE9
:10146000BFF35B8F2068BFF35B8F60B90E480AF053
:10147000D5FABFF35B8F54E8003F44E80002002A2E
:10148000F9D1BFF35B8F436804221B680DEB0201A7
:101490009847002802DA00F00DFD0190019802B093
:1014A00010BD00BF0400002046D300000A2838B554
:1014B0000446074D04D1286843680D215B689847AE
:1014C00028684368E1B25B689847204638BD00BF92
:1014D000080000200148FFF74FBE00BFAD14000018
:1014E00008B504480AF09AFA034B1860FFF7F2FFB8
:1014F000002008BD50D300000800002010B54FF0B8
:101500002003EFF3118283F31188114C237823B960
:1015100082F311886FF0440010BD013BDBB22370F1
:1015200023B182F311886FF00F0010BD094B1878BA
:10153000012128B1217082F311886FF00A0010BDDB
:10154000197082F311884FF080425160187010BDFD
:101550000E0000200D00002008B5002210460121D9
:10156000FFF728FC0020FFF7F3FB002008BD000078
:10157000F8B54FF02002EFF3118382F31188254A6A
:101580001078441C147060B183F311884FF08043CD
:10159000D3F80C3413F4803F14BF00206FF04300E5
:1015A000F8BD1D4D2F782FB1107083F311886FF0A7
:1015B0000A00F8BD01262E7083F311884FF0804495
:1015C00019B33846FFF7D4FBC4F80071D4F80433DC
:1015D000C4F804632660D4F8002192B10022C4F854
:1015E00000210E4A13F0010F4FF0010308BFC4F8A9
:1015F00008330020C2F88031FFF7AAFB00232B70CC
:10160000C4E720BF40BF20BFE5E7C4F80011266053
:10161000F4E700BF0E0000200D00002000E100E014
:10162000F8B506460C464FF02002EFF3118382F323
:1016300011882C4A157865B183F311884FF08043E7
:10164000D3F8183413F4803F0CBF6FF04300002030
:10165000F8BD0127177083F311882846FFF788FB30
:101660004FF080430221C3F80451D3F80423C3F898
:101670000413C3F818459F60D3F8041171B392079F
:10168000194F58BF02224FF000014FF00105C3F877
:1016900004114FF0000058BFC3F80823C7F8805169
:1016A000FFF756FB4FF0804300211822C3F80823B0
:1016B000C3F80C11C3F8101114F00301BED11020AF
:1016C000C3F83805C3F804233046C3F80453FFF7C2
:1016D0004FFF0028B2D1C7F80051AFE720BF40BF8D
:1016E00020BFC9E70C00002000E100E0F8B54FF092
:1016F00080430546D3F808E1D3F80423D3F80C441B
:10170000D3F80071D3F80401D3F80C11D3F81061A9
:1017100002F00102BEF1000F03D04FF0000EC3F83B
:1017200008E127B14FF080430027C3F800713AB1B8
:10173000E30341BF4FF080430122C3F808231A613D
:1017400020B14FF080430022C3F8042149B14FF08B
:1017500080440021C4F80C112846FFF7CFFE012376
:10176000636176B14FF0804300210124C3F810116A
:101770002846C3F80443FFF7FBFE10B9014BC3F83A
:101780000041F8BD00E100E003689B689A68836847
:1017900010B5DC68002024FA00F3DB0707D500F55C
:1017A000A27352F82330C3F304238B4204D00130D8
:1017B0000828F0D16FF0120010BD00688068006842
:1017C00041B9D0F8101521FA02F202F001021A60B4
:1017D00000207047D0F81025F9E70068806800689D
:1017E00049B9012191401BB1C0F80815002070478C
:1017F000C0F80C15FAE7C0F80435F7E710B58368B0
:101800003AB11A680A605A68196002B95960002032
:1018100010BD18680028FAD081420ED15C680868B3
:1018200032B9A142186000D1586000230B60EEE786
:10183000A142106008BF5A60F7E702460068E9E776
:10184000F8B514460268876892680D469668A1B993
:101850002146FFF799FF002811DBBA68012303FA3C
:1018600004F4144300F1400203FA00F0BC6046F8AF
:101870002250C6F804032846F8BD6FF02200F8BDD8
:10188000F8B514460268866892680D46976889B96B
:101890002146FFF779FF00280EDBB268012303FA27
:1018A00004F403FA00F022EA0404B460C7F8080361
:1018B0002846F8BD6FF02200F8BD08B500220121CE
:1018C0000620FFF777FA0620FFF742FA002008BD4E
:1018D000F8B5036806469B68B4689868002213460A
:1018E0001546012700EB8201D1F800E1BEF1000F9F
:1018F00008D0C1F80051D1F81015C1F3042107FA3E
:1019000001F10B430132082AECD1A56806201D40E5
:10191000FFF72EFA246824B90620BDE8F840FFF747
:1019200017BAA3681D42F5D063682A46214630469F
:101930009847EFE72DE9F8431446026887689268F4
:1019400080469568106819B16FF02200BDE8F883F1
:1019500003F44072B2F5807FC3F30131C3F38139E0
:1019600003F4403E56D0B2F5007F0CBF04220022A3
:10197000BEF5803F08BF4FF0000E13F0010FDFF8F7
:10198000C8C04FEA810104F5E0764ED00C2A43D15D
:101990004FF0010E0EFA04FEC0F808E549445CF869
:1019A000211041F003010A4340F8262013F0020001
:1019B00047D09906C8D55A063ED413F0040F14BF79
:1019C0004FF480364FF40036F868FEF765FC0828BF
:1019D00035D021464046FFF7D7FE0028FB6808DADD
:1019E000DA4392FAA2F0002AB0FA80F008BF4FF072
:1019F000FF302402012204F4F854824044F0010430
:101A000000F5A27013433443FB6045F820400020EA
:101A1000BDE8F8830C22ABE7042A02BF4FF0010EA9
:101A20000EFA04FEC0F80CE5B8E749445CF8211052
:101A30000A4342EA0E02B7E74FF44036C4E76FF0BC
:101A40000400BDE8F88300BF88D3000003689B68EA
:101A50001B68D3F8082132B10020C3F80801D3F87D
:101A600018350B7070474FF0FF30704703689B6864
:101A70001B68C3F81C15D3F81C21002AFBD00022D8
:101A8000C3F81C210846704703689B681B68D3F89D
:101A9000240118B1D3F88004C3F8800400F00F00CB
:101AA00070470000F8B503689B68054618481C6835
:101AB00009F0B4FF436806461F68062240F201138E
:101AC0000021B84773681F68002319460822304672
:101AD000B8470623C4F80C350823C4F81435AB689E
:101AE0004FF4E1321A602B689B681B684FF0EB7271
:101AF000C3F824250423C4F8003500200123C4F8CA
:101B00001C01C4F80801A3602360024B6B60F8BDA0
:101B1000F0D3000000D400002DE9F0418378C478B0
:101B20001E1DA3420A4406441FD8E41AE4B2A1428F
:101B30003EBF641AE7B20C462344A1EB040128BF60
:101B40000027DBB2C9B23444A64209D1837043787E
:101B5000BB4282BF204B01221A600846BDE8F081DB
:101B600016F8015B02F8015DEEE70578ED1AEDB2BB
:101B7000A9423FBF671AED19EFB20D4638BF5B1897
:101B8000A1EB050132BFDBB227460023C9B296465E
:101B900006EB050C664519D1521B0029D6D0002C46
:101BA000D4D08C428ABF0B462346641A00F1040647
:101BB000A1EB03018CBFE7B20027C9B2F418A6421B
:101BC000C4D016F8015B02F8015DF8E716F8018B46
:101BD0000EF8018DDEE700BF00D0004030B5D0B177
:101BE000C27805788478531CDBB2AB4208BF00236F
:101BF000A34210D061B10A490244D1F8081511710D
:101C0000C3700133DBB29D4208BF0023A34205D05D
:101C10006FF00F0030BD6FF0360030BD002030BDDA
:101C200000D0004070B584680122114620460AF0B9
:101C300021FB04F11800012200210AF01BFB042300
:101C400084F831300C23002584F83D300521114BF8
:101C500084F830100D2684F8335084F8325084F81C
:101C60003C6084F83F5084F83E50D3F8042542F09D
:101C70000102C3F804250122C3F800513046C3F81D
:101C800004231A602A46FFF795F83046FFF760F8FC
:101C9000284670BD00D0004038B5124BD3F8003153
:101CA000FBB18568012105F13C00FFF797FF10F1BA
:101CB000100F04460DD010F1370414BF002101218C
:101CC00005F13000FFF78AFF044605F118000AF01D
:101CD000DBFA044B00221034C3F800211CBF0122A0
:101CE0005A6038BD00D000402DE9F84385680F46A2
:101CF000144605F1180814B92046BDE8F883FF2CF6
:101D0000234628BFFF23E41ADEB2A4B205F130094E
:101D10004FF0FF3128460AF017FB31463A46484655
:101D2000FFF7FAFE064628460AF0AEFA002EE2D089
:101D30004FF0FF3140460AF007FBE9E7134602483F
:101D40000A461946FFF7E8BE5C000020084BC3F8BE
:101D50004005D3F80435C01A20F07F40054B023807
:101D6000984282BF044B4FF40032C3F80021704701
:101D700000100140FDFF7F0000E100E010B5124BB4
:101D8000124CD3F804052268801A20F07F40B0F589
:101D9000A37F11D90E49096840F24713B0FBF3F055
:101DA000884228BF084603FB002323F07F432360BB
:101DB000084B18600AF0F0FA2068BDE8104000F205
:101DC0004710FFF7C3BF00BF0010014074000020A0
:101DD000700000200C3E0020024B0022C3F840217E
:101DE000FFF7CCBF0010014046F23543984228BFB0
:101DF0001846054B1860054B1B6840F2471202FB62
:101E00000030FFF7A3BF00BF700000207400002067
:101E100008B5074B0022C3F84021064B4FF40032AF
:101E2000C3F88021FFF7AAFF034B01221A6008BD07
:101E30000010014000E100E07000002070B518487B
:101E400009F0ECFD48B34368164D1B680121984723
:101E5000154B00241C60154B01261E6040F24713F1
:101E6000C5F80845C5F840354FF48033C5F844330C
:101E7000C5F804330E4BC5F840414FF40032C3F8A7
:101E80008021314622461120FEF794FF1120FEF7F3
:101E90005FFFAE6020462E6070BD4FF0FF3070BD1A
:101EA00070D300000010014074000020700000207A
:101EB00000E100E030B50B4A0B48D2F80415D0E938
:101EC0000045D2F8043599420AD1084A40F2471336
:101ED00003FB1413106823F07F4300FB043030BD74
:101EE0001946ECE700100140D81B0020103E0020EE
:101EF00070B54FF02003EFF3118583F31188144C74
:101F0000144E237803EBC312013303F0030332446E
:101F1000237085F31188402928BF40210E4D0138D8
:101F2000134602EB4106B34204D1002302F81130FC
:101F3000104670BD4478240902332C5D03F8024C2E
:101F400010F8014F04F00F042C5D03F8014CEAE790
:101F5000AF000020B00000201AD4000070B51D4A68
:101F60001D49137803EB4306013303F0010313709B
:101F700003788AB006EBC60604460E4407AD032B71
:101F800021D8DFE803F0021A1C1E14492846FEF788
:101F900007FB62780492A2780392E2780292227997
:101FA000019262790092A37905950D4A1B21304672
:101FB000FFF736FA30460AB070BD0A49E6E70A492B
:101FC000E4E70A49E2E70A4A0A212846FFF728FA25
:101FD000DFE700BFAE000020780000205FCE0000E9
:101FE00088CE000066CE00006DCE000077CE0000E7
:101FF00081CE000070B50B4D06460FCD8AB06C4601
:102000000FC40FCD0FC495E80300092E84E8030028
:102010009BBF0AAB03EB8606034856F8280C0AB0B0
:1020200070BD00BF24CD000000DD000003784288B1
:1020300013F0010305D10949897B082901D89F2A9A
:102040000AD98088824207D81F2A05D9B0F5804F67
:102050008CBF00200120704700207047B83B002053
:1020600000B5BFF35B8F50E8003F43EA010240E850
:10207000002EBEF1000FF6D1BFF35B8F18465DF85E
:1020800004FB00B5BFF35B8F50E8003F03EA010299
:1020900040E8002EBEF1000FF6D1BFF35B8F18466B
:1020A0005DF804FB2DE9F041064686B09079264F95
:1020B0008846154609F07CFB874213D0AC79204650
:1020C00009F076FB214B059303908DE848000497B7
:1020D00002941F4B1F4A20492048FFF793F906B08E
:1020E000BDE8F081284609F069FB1D4C04EBC000F7
:1020F0004388B34210D0284609F060FB134B03938A
:1021000004EBC0001449428802928DE84800114A4D
:102110000F4B1448FFF776F9284609F04FFB04EB04
:10212000C0004368002BDAD0284609F047FB04F8CA
:102130003080284609F042FB04EBC000406806B03E
:10214000BDE8F0410AF0A0B8043F0020EFCE000047
:102150003BD4000014D700001BD700001ED700009E
:10216000B402002063D70000074BBFF35B8F420926
:1021700003EB820300F01F001B6FBFF35B8F43FA7A
:1021800000F000F001007047B83B00202DE9F04757
:10219000804689461348144D4FF0FF3109F09CFBEF
:1021A000044600F1080600213046002709F0B3FB81
:1021B0002775204609F002FB05EBC000A0F802805D
:1021C000204609F0FBFA05EBC000032147603046CA
:1021D00009F0E4FB80F80290A0F800802046BDE8FA
:1021E000F08700BF043F0020B402002070B5154600
:1021F00086B00C4619B9FFF7C9FF044668B301223F
:10220000002168460AF036F8204609F0D7FA144E45
:1022100006EBC000C0F804D0204609F0BBFB214605
:10222000104809F07CFB42F2107168460AF08CF805
:10223000204609F0C3FA16F8300030B1204609F004
:102240007BFB6FF0040006B070BD0DB12C60FAE7A7
:10225000204609F071FB2846F5E76FF03600F2E7FB
:10226000B40200206C3C002070B5154D062205F12B
:1022700008010646FEF7ABF90446D8B1062142F242
:102280000500FFF783FF0446B0B10622314608304F
:1022900009F08AFB2146002242F20500FFF7A6FF63
:1022A000044638B90622314605F10800FEF7A4F9C4
:1022B0000123EB71204670BD6FF03604FAE700BFD2
:1022C000B83B002007B50621684602F091F840B9F6
:1022D0009DF80530684603F03F038DF80530FFF7A1
:1022E000C3FF03B05DF804FB38B50221054642F296
:1022F0000C00FFF74BFF044620B30221083009F021
:102300004DFB012D014614D10A20FFF72DFF487027
:102310000D700022214642F20C00FFF767FF0446D1
:1023200028B9012D08D180210848FFF799FE2046E1
:1023300038BD00234370EBE76FF080010348FFF7DF
:10234000A0FEF4E76FF03604F1E700BF283C002060
:102350002DE9F8430C46202107469046FFF716FF6B
:10236000064600283CD02021083009F017FB202227
:1023700000210546FEF76CF94FF00009C14506D172
:10238000314638460022BDE8F843FFF72FBF627898
:102390002B78D1180231FB2904F1080406DD304600
:1023A00009F0CAFA6FF01500BDE8F883E918501C6F
:1023B0004870981CC0B20133287055FA83F314F8A2
:1023C000081C5970013054F8041C2844FEF714F915
:1023D0002B7814F8072C13442B7009F10109CDE771
:1023E0006FF03600BDE8F88308B50820FFF7BCFEA3
:1023F000014640B90720FFF7B7FE20B10846BDE807
:102400000840FFF771BF002008BD012310B5062169
:10241000044600F8013B01F0EBFF18B9A37963F023
:102420003F03A37110BD00002DE9F0418EB00CAA4E
:10243000002140F60340FFF7D9FE044600287ED174
:102440000C9B9B681B786BB9A14A1360A14BBFF32F
:102450005B8F012253E8001F43E800200028F9D1D8
:10246000BFF35B8F0C9809F067FA0CAA002141F2C8
:102470000300FFF7BBFE0446002860D10C9B964D7D
:1024800099680822013105F11600FEF7B5F80C989D
:1024900009F052FA21460CAA41F20100FFF7A6FE0C
:1024A0002E46044600284AD10C9883685A78AA73AD
:1024B000D9789A7842EA01222A821A79EA73197A3B
:1024C000DA7942EA01226A825A799B7942EA032345
:1024D000AB8209F031FA21460CAA41F20900FFF75C
:1024E00085FE044658BB0C9B996806220131681C86
:1024F000FEF782F80C982C7009F01EFA21460CAAFF
:1025000041F20200FFF772FE0446C0B90C9B9968C5
:102510004022013105F11E00FEF76EF80C9809F01B
:102520000BFAAB7E58060ED46C4B019300936C4AA9
:102530006C4B6D496D48FEF765FF6FF01204204645
:102540000EB0BDE8F08121460CAA42F20300FFF76D
:102550004DFE04460028F2D10C9B996808220131F7
:1025600005F17800FEF748F80C9809F0E5F9AB7E24
:1025700099067AD596F83A301A0700F19280082128
:1025800042F20100FFF702FE0446002874D0082141
:10259000084409F003FA96F8403003F00603062BCE
:1025A00014BF02234FF4C173002203701B0A43704F
:1025B0008270C270027142718271C271214642F210
:1025C0000100FFF713FE04460028B8D1082140F6A9
:1025D0000140FFF7DBFD054600284DD008210844E7
:1025E00009F0DCF9802343700223C37020230470B8
:1025F0008470047144718471C3712246294640F687
:102600000140FFF7F3FD0446002898D101460CAACB
:102610004FF60140FFF7EAFD304D002874D0344BEF
:10262000344A3149344801950095FEF7EBFE00230A
:1026300007220AA928480A93CDF82B30FDF7C7FFD7
:10264000002840F0DB802D4A13689046002B40F0B4
:10265000158196F86030DB0700F135810195009512
:10266000274B244A204927483AE1022140F66D4091
:10267000FFF78CFD054610B96FF036045FE70221C5
:10268000083009F08BF90123447003702246294673
:1026900040F66D40FFF7AAFD044600283FF46AAFFC
:1026A0004DE70CAA002142F21C00FFF79FFD0446F3
:1026B00000287FF444AF0C98836853F8012F5B68BF
:1026C000C6F88430C6F8802009F036F957E700BF15
:1026D00010030020283C0020B83B0020EFCE000073
:1026E000A6D700008AD400001BD70000ADD7000099
:1026F000B0D4000014D70000E1D70000C81A0020B1
:1027000092D4000085D900000C9B9A499F689A4892
:10271000B7F801300293032B96BF984A984A52F8B3
:1027200023200192974B984A03950095FEF76AFE85
:10273000B7F80130B7F80320022B3AD1022A38D873
:10274000924B53F82230029201938F4A8D4B894964
:10275000039500958E48FEF755FE7B790695D7F8D0
:1027600009100591032BB7F8071098BF894A049107
:10277000B97994BF52F82320814A039102937D498D
:10278000804B01920095804A8348FEF73BFE0C98EF
:1027900009F0D2F80CAA00214FF60240FFF726FDFF
:1027A000074640B101950095764B7C4A71497C48BB
:1027B0003BE7734BC7E70C9B7A48996802220131CB
:1027C000FDF71AFF0C9809F0B7F80CAA39464FF636
:1027D0000340FFF70BFD30B101950095694B6F4A3F
:1027E0006449714821E70C9B7048996801221144A3
:1027F000FDF702FF0C9809F09FF818E76C4B18687A
:102800009A880C909B79ADF834200CA9072269486E
:102810008DF83630FDF7DBFE00283FF414AF654835
:10282000FFF79CFB644B0190574A52490295009573
:102830006248FEF7E7FDB77B3846FFF7DBFB0595FF
:10284000B38A0493338A0393029701905A4B4E4AFA
:10285000484900955A48FEF7D5FDF77B3846FFF703
:10286000C9FB0495738A0393019002970095524B1C
:10287000454A40495348FEF7C5FD60E600211F6800
:102880004C4A07230846B84707287FF4E2AE33785E
:10289000012B04D1B37903F0C003C02B5ED00195A6
:1028A0000095494B494A33494948FEF7ABFD6FF063
:1028B000150701950095474B444A2E494648FEF7B7
:1028C000A1FD3C463BE609AA00214FF60940FFF76F
:1028D0008DFC40B13C4B314A26494048019500955A
:1028E000FEF790FD19E0099B99684B7853B10123DD
:1028F000062202313A483370FDF77EFE099809F04E
:102900001BF8C4E7019500952F4B244A1949354817
:10291000FEF778FD099809F00FF82648FFF775FDD6
:1029200007460028C5D1D8F8003083B1D3F8048019
:10293000204A07230146C0470728A8D0224B234A34
:102940000C49294801950095FEF75CFD9FE701952C
:1029500000951D4B114A07492448F5E72048FFF729
:1029600083FC07460028A4D104212148FFF778FB07
:1029700055E700BF1BD700001CD8000010DC00008A
:1029800000DD0000B0D4000015D8000004DC000019
:1029900045D80000F0DC00006DD8000014D700001E
:1029A000AAD80000173C0020E3D80000163C002005
:1029B0004CCD0000B83B0020A2D4000067DA000034
:1029C00084DA0000D2DA000092D40000A6D700001A
:1029D00026DA0000BCD4000009DB00001CD900008E
:1029E000B93B00204CD90000C1D90000F0D900004B
:1029F000283C002010B5FFF717FD044630B902212E
:102A00000648FFF72DFB2046FFF7EEFC044B1B6842
:102A10001BB12046BDE81040184710BD283C0020DF
:102A20000C030020024BD3F8C430DB68184700BF0A
:102A3000B83B002030B5044685B00D4619B9FFF704
:102A4000A5FB0546F0B140F635439C4214D128461B
:102A5000FFF7E8FF044660B10C4B02938DE81800C5
:102A60000B4A0C4B0C490D48FEF7CCFC284608F0ED
:102A700063FF204605B030BD2946094808F04FFFE6
:102A80000024F6E76FF03604F3E700BFEFCE000056
:102A9000A6D700002BD400001BD7000039D50000BA
:102AA0006C3C00202DE9FF41444C454E04F1B40834
:102AB000737B43486FF307134FF0FF3201217373A9
:102AC0000AF028F8002861D1737B1B09012B0BD970
:102AD000042B0CD03B4A02928DE80C003A493B4B48
:102AE0003B4A3C48FEF78EFC09F02AFBE0E7377BC7
:102AF000002FF9D13946404608F0F4FE054600287B
:102B000053D04FF0FF31344809F01EFCD4F8A03008
:102B100063BB284608F03EFFC4F8A0002846FFF734
:102B200081FF0028E0D0274B2C4A274902930190CF
:102B300000932B482B4BFEF765FC274809F0A4FBBC
:102B4000284608F03BFE284B03EBC00000221F2163
:102B50004088FFF7A7FAD4F8A00008F0EDFE0023A4
:102B60002846C4F8A03008F0E7FEBDE7154B0193F6
:102B700000931A4A1B4B14491C48FEF743FCD4F837
:102B8000A00008F0D9FEC4F8A070C2E70D4B019375
:102B90000093124A164B0C491648FEF733FC40408E
:102BA00080F311884FF0040002DF064B019300937D
:102BB0000A4A0C4B04491048EFE700BFB83B00201D
:102BC000803C0020EFCE00001BD700006DD4000039
:102BD00014D7000038DB0000403C0020A6D70000DE
:102BE00039D5000064D40000B402002069DB000085
:102BF0007CD4000094DB0000BEDB00002DE9F04F28
:102C0000067D012E8BB004466BD187683B780E3B66
:102C1000012B76D8684B01930093684A684B694949
:102C20006948FEF7EFFB404080F311884FF0040045
:102C300002DFA76865486FF01001FFF722FA3B78C2
:102C400043B9791C40226248FDF7D6FC31465F4803
:102C5000FFF706FA5F4B1D687E1C35B9204608F069
:102C60006BFE00200BB0BDE8F08F3A782B68002A8D
:102C70000CBF3046002098476D68EEE7564DA068BF
:102C80002A68002AEAD0037823B90130904700234C
:102C90002B60E3E70020F9E7FDF7AEFC67E0A589CC
:102CA000A0682946FFF724F9434B049303908DE86D
:102CB00048004A4A4A4B43494A480295FEF7A2FB5C
:102CC000CCE7A589A0682946FFF712F93A4B04938F
:102CD00003908DE888000295394B404A39494248B3
:102CE000ECE7354B02938DE84800344A3F4B3549B9
:102CF0003F48FEF787FB204608F01EFE6FF01500E8
:102D0000B0E700F108050221284608F05EFE3F7892
:102D10003E2FD6D1A7683146284608F056FE3E78A9
:102D2000082E86D0092EA9D0022EB8D1284608F048
:102D300054FEDFF8C0A00790079B002B8ED0A6683A
:102D40000921284608F041FE337A314633440722F0
:102D500093F809B011F8013F023B012B08A89BD85A
:102D6000FDF74AFC9DF82030023B8DF82030DAF860
:102D70000030ABB1284608F038FE337AB4F80C8046
:102D8000A38181462B463278DAF800704FFA8BF136
:102D900008A8B8472369A4F80C8013FA89F3A36044
:102DA000317A2846013108F010FE079B03F1FF3805
:102DB0005FFA88F30793BFE7EFCE0000A6D70000C5
:102DC0005AD400001BD70000F6D50000283C002094
:102DD000C802002008030020C402002014D700000D
:102DE00048D400006BD50000A0D50000C5D4000079
:102DF000D2D50000100300202DE9F341037D866841
:102E0000012B04460ED0324B01930093314A324BD2
:102E100032493348FEF7F6FA404080F311884FF00C
:102E2000040002DF8389012B07D8294B019300930B
:102E3000284A294B29492B48ECE733780E3B012BD4
:102E40003ED800F108050221284608F0BEFD33787F
:102E50000E2B0CD00F2B23D0204608F06DFD1C4B01
:102E6000019300931B4A1C4B1C491F48D2E7A368DF
:102E700003212846B3F801701E7808F0A6FDA36868
:102E8000224619783846FFF70DF916B1174809F0B0
:102E9000FBF9204608F050FD002002B0BDE8F081AB
:102EA000A668B6F8028077780421284608F08DFDE0
:102EB000224631784046FFF7F5F8002FE9D0E5E7E4
:102EC000034B01930093034A034B04490848A1E7CD
:102ED000EFCE0000A6D70000CDD400001BD7000025
:102EE00035D6000079D60000B3D60000403C002063
:102EF000D6D60000084AD2F8C4303BB9816841B147
:102F0000C16831B1C2F8C400184670476FF0440080
:102F100070476FF015007047B83B002070B52E4D1C
:102F2000D5F8C43086B006466BB92C4B019300939C
:102F30002B4A2C4B2C492D48FEF764FA6FF01204F3
:102F4000204606B070BD012105F17000FFF788F83A
:102F500010F001003DD1264B26491E606FF008039A
:102F6000059004900393029001900090224B234817
:102F70004FF46B7209F0AAFBD5F8C4309B689847F0
:102F8000044650B1154B02938DE81800144A154BB6
:102F900015491B48FEF736FAD2E76EB9FFF744FA37
:102FA00004460028CCD1022105F17000FFF758F843
:102FB0002046FFF719FAC3E7012105F16C00FFF77E
:102FC0004FF8C307BCD405F164010E4808F0E9FED0
:102FD000B6E76FF04404B3E7B83B0020EFCE000043
:102FE000A6D70000DAD400001BD70000E4D400000C
:102FF0000C030020581C0020A52A00001403002008
:103000000DD50000E01B0020F0B585B005460C464C
:1030100017461E46FFF70AF820B96FF01504204640
:1030200005B0F0BD0520FFF79FF8002840F087802D
:1030300021463A4642F20800FFF78AF90446002882
:10304000EDD15EBB2B78D90728D40F22002168462A
:10305000FDF7FEFA6B88ADF80030AB88ADF80230B2
:1030600007238DF80D302B78DA0721D50220FFF7E2
:103070007BF810B13348FFF7F7F8334B1B788DF826
:10308000053000230F2142F206008DF80430FFF7CF
:103090007DF8044610BB6FF03604C0E70A9A31464B
:1030A00042F20900FFF754F904460028CDD0B6E7F4
:1030B000A86870B1437913F0C00FAED1FFF7D4F810
:1030C00004460028ABD101238DF8053026B1022338
:1030D000D8E7FFF7F7F8F3E70323D3E70F226946B2
:1030E000083008F061FC2146002242F20600FFF79A
:1030F0007DF80446002892D1012142F20A00FFF730
:1031000045F806460028C6D00121083008F055FCD5
:103110002246314642F20A00FFF768F804460028CA
:103120007FF47DAF20210948FEF79AFF2B789B079B
:103130003FF575AF40210548FEF792FF6FE76FF04E
:1031400044046CE7B93B0020B83B0020283C002039
:1031500010B56FF040011948FEF793FF0520FFF707
:1031600003F810B90024204610BD012142F20A00E4
:10317000FFF70CF80446F0B10021083008F01DFC00
:103180002146002242F20A00FFF730F804460028E8
:10319000E9D16FF020010948FEF773FF0720FEF721
:1031A000E3FF0028DED00920FEF7DEFF0028D9D09B
:1031B000FFF788F8D7E76FF03604D4E7283C002003
:1031C0002DE9F3410378012B05460F4610D84378CB
:1031D000012B0DD841880B1F9BB243F6FC70834234
:1031E00006D8AA88131F9BB2834201D891426CD2A1
:1031F0006FF01504204602B0BDE8F0810720FEF70D
:10320000B3FF50B10846FFF76FF8044628B16FF4DA
:1032100080713548FEF735FFECE76B78002B48D01E
:103220004FF480613048FEF71BFF072200216846FB
:103230002E78B5F80280AC88FDF70AFA00238DF8E5
:1032400006302A4B8DF800601B78ADF80180012E06
:10325000ADF803408DF805300AD10520FEF784FF54
:1032600030B9FFF72FF804460028D0D18DF805605B
:10327000072142F20B00FEF789FF044680B30722C4
:103280006946083008F090FB214642F20B00FFF738
:10329000D1FB0120FFF728F804460028B7D1012E02
:1032A0000DD14FF400711048FEF7DAFE104B1F608D
:1032B000A0E76FF480610C48FEF7E3FEB5E76FF41A
:1032C00000710948FEF7DDFEF0E74FF48071064813
:1032D000FEF7C6FE10F4807190D06FF0440489E7C9
:1032E0006FF0360493E700BF283C0020B83B002075
:1032F0001003002038B50546054808F0EDFA0446ED
:1033000020B10021083008F006FB2575204638BDA5
:10331000243F002010B501464FF02003EFF3118049
:1033200083F311880B4A0023D2F8A040C2F8A030E2
:1033300080F3118824B90120BDE81040FFF7DABFFF
:10334000012204F108002275A381194608F0E3FA6E
:10335000204610BDB83B0020F7B51860C31D0546D8
:1033600023F00303501E0E4680B214461A8000213B
:10337000042206FB0050FDF76BF9023CA4B24FF6A5
:10338000FF77BC4201D103B0F0BD04FB06602B18EF
:103390000422801B0DEB02012844013C0193A4B2DE
:1033A000FDF72AF9EDE773B50568064695B1EB1D03
:1033B00023F0030304221C8829460DEB0200FDF7CD
:1033C0001BF9019B013CA4B21BB1DA1D22F00302E0
:1033D00014803360284602B070BD70B50C68064694
:1033E0000D461CB1E31D23F003031C88042229466B
:1033F0003046FDF701F9F21D22F00302631C138031
:103400002E6070BD02FB01007047401A80B2B0FB15
:10341000F2F0704710B5114401384FF6FF73013ACE
:1034200092B29A4200D110BD11F8014D00F8014F3F
:10343000F5E710600860704710B5146820601468E4
:103440006160106010BD884203D01AB143681360F8
:103450007047002070470B68834209D022B158683A
:1034600010601A680A6001E0002BFAD11846704714
:103470000023FBE72DE9F047114FDFF848900426C1
:10348000013EF6B2FF2E19D033B24FEA830803EBA8
:1034900043031D0104244FF00C0A0AE01AFB0451F7
:1034A0000A1D04EB08003A44394409EBC000FFF759
:1034B000C0FF013CE4B2FF2CF0D1E1E7BDE8F087AA
:1034C000FC0300207C030020F0B4124B05460F469D
:1034D0000C26302472B1614306FB00142344597A50
:1034E000187A814204BF0131197228463946F0BC6E
:1034F00008F04EB84C4306FB004423449C7ADA7A29
:10350000A24204D101329A72F0BC08F0A1B8F0BC1A
:10351000704700BFFC030020F8B505460E461C4668
:103520008AB1012362782078801A10F0030729D02D
:1035300003B3012F39D00132D2B22270314628466E
:1035400008F086F81CE008F071F80028E9D0314650
:10355000284608F045F80028E3D030230C227343B6
:1035600002FB0533124A1A44937AD27A9B1A18BF87
:103570000123D7E70232D2B22270E368A0689847ED
:103580000020F8BD002BF8D00132D2B22270042303
:10359000302212FB06320C2313FB0523044A606819
:1035A0001A442146FFF748FFC8E73846F8BD00BF78
:1035B000FC0300202DE9F04F00EB400389B01B0114
:1035C0004FF00008434E049305460424CDF80480D0
:1035D000013CE4B2FF2C0BD1019B002B76D0B8F15B
:1035E000000F73D142462946284607F0D1FF6DE00F
:1035F0000DF1200B00230C274BF8043D4FF0300950
:1036000007FB04F309FB053031185A464968305866
:103610000293FFF718FF049B17FB0437F319824648
:103620000393BAF1000F19D130220C236A4303FB34
:1036300004223244917AD07A88421EBFD17201228C
:10364000019230226A4303FB042333441A7A597AE5
:1036500091421CBF5A724FF00108B9E7079B1F78CF
:103660005A78BF1A07F00307012F04D1013A5A70A4
:103670009868DA689047079A13785278DBB29A1AFA
:1036800002F00302012A05930DD0029B039909FB66
:103690000530304400224068FFF7DDFE079A059BA5
:1036A000C2F804A05370029B09FB0533F1185A4677
:1036B0004968F058FFF7C7FE012F8246B1D10CB917
:1036C0000028B1D02946284607F0C2FF09B0BDE85E
:1036D000F08F00BFFC03002010B5421E002001390E
:1036E000C9B2FF2900D110BD12F8013F002BF6D05E
:1036F0005C1E01302340C0B2F8E7F0B5437F056897
:103700001A460024FF2A01D10020F0BD02EB8207F7
:103710008A4205EBC70615F8377004D0B3681C441D
:1037200013463A46EEE7934200D147771BB203EBCC
:1037300083033278B06805F833203378FF2B06D046
:1037400003EB830305EBC3039A6802449A602044A9
:10375000F0BD30B5551A15F4000F8368446909D1DE
:1037600025F07F421A44A2420ED9121B0024826027
:10377000446130BD8A1A22F07F42934201D99A1ADD
:10378000F1E72244D41A0022A41A0022EFE70346EC
:1037900000221A709A6A596208460AB1D96A10471B
:1037A00070472DE9F047857F01230446C377002D3C
:1037B0004CD1437FFF2B02D1C577BDE8F08707F0DE
:1037C0008FFA6769667FD4F80080C71B27F07F47B0
:1037D000FF2E06D006EB860608EBC6018B689F42DB
:1037E00018D2A27AE37A934205D10133DBB2022BDD
:1037F00008BF0023E372E37A04EB83030122DD6058
:103800000023656AE377AC46234604210320BDE824
:10381000F0476047FF1A1D448A784B7818F83660E5
:103820009B1ADBB2012BD3D1D1F80C90013A8A70EC
:10383000B9F1000FCCD048696369CA8B281A1844C3
:1038400020F07F400B69496AC847C1E7BDE8F087AF
:103850002DE9F04FC27F95B08346002A40F0BE8329
:10386000436907930121837A8177C07A984200F0F7
:103870008F800B44DBB2022B08BF00238BF80A3089
:103880000BEB83030391D3F80C80079B434423F095
:103890007F43CBF814309BF81D300593DBF80030E4
:1038A0000693DBF804300D939BF80930013BDBB243
:1038B0000493002309934FF0FF0A049BFF2B6AD166
:1038C0009BF81D30059A9B1A18BF01230493039B94
:1038D000E3B1DBF8003006934FF000099BF81D6060
:1038E000FF2E0CD037B2069B07EB870703EBC7040C
:1038F000A568454540F23681A5EB0805A560049B07
:10390000039A0599B14218BF13460493DBF80030BF
:103910000A93DBF8043012939BF80930013BDBB2C9
:103920000393039BFF2B40F070819BF81D30059A99
:103930009342099B40F049835BB99BF80940DBF84F
:1039400004300393013CE4B24FF00008FF2C40F038
:10395000A08200238BF81E30049B4BB19BF81D30D6
:10396000FF2B40F0E98207F08DF908B9CBF8180079
:103970009BF81F30002B00F03183DBF824405B46BE
:10398000012203210420A44615B0BDE8F04F604792
:10399000039290467FE70D9B049A03EBC2077B6876
:1039A0000893F978BE788E4200F0D780089B38786B
:1039B00006EB460212019D18731CDBB2984208BF49
:1039C0000023BB70089B9A5C032AEBD9052A17D801
:1039D000697801EB81030C930C98069B03EBC00400
:1039E0006378A0781B1A13F0FF0309D0042A0CD1C6
:1039F0006A6852B9AA6842B9EA6832F07F4204D1D3
:103A000001212846FFF7C3FECBE7012B40F09B8046
:103A10005846FFF772FE2B78A060042B064640F054
:103A20008480DBF814300A9307F05AF90A9B0B9054
:103A3000C31A23F07F4343449E4202469EBF6269FD
:103A4000921B9B18626896BF6361F31A00238AB1C8
:103A5000A98979B101F1FF3E1FFA8EFEA5F80CE0AD
:103A60009A422BD3DFF82493B4F81EC0E64547D81A
:103A7000A4F81CE0AA880A991344A360EA88636941
:103A8000134463610B9A2046FFF763FEA2692B89FA
:103A90001344A3616A8993428CBF9B1A0023A361DC
:103AA000AB7B03B1E370069B0C9A03F832A06378FA
:103AB00095F801A0013363700021A2E7B4F81EC09D
:103AC000E645CFD2616AAF4EAF488E19864281BFBC
:103AD00001F1E87101F5D43101F5A5716162666A01
:103AE000216A8CBF4FF001094FF00009761A91440A
:103AF0000CF1FF3C6662A3EB0903A4F81EC0AFE71C
:103B0000666A216AA0480E449E49711881428EBFA0
:103B1000002101214E4411440CF1010C8CBF66625E
:103B200066620B44A4F81EC09EE7A37863706B78AE
:103B30009BF81C209A4201BFFF238BF81C30002306
:103B4000CBF81830B8E704215B46DBF824400122AB
:103B50000846A0470123BE700993049B013BDBB2DA
:103B60000493AAE6DBF818309D4229BFFF235B1BB4
:103B70008BF81C300023CBF81830A369A9441BB183
:103B80008BF81C60CBF818300022069BA26013F85B
:103B900037308BF81D30D4F804E0BEF1000F30D080
:103BA000A08BDFF8E4C1636A216A0B447549591898
:103BB00061459FBFA3F1E873A3F5D433A3F5A573C3
:103BC000636292BF039B63620023734410F1FF3072
:103BD0001A44E8D2079BA260DBF8141003EB090239
:103BE0002046FFF7B6FDA38BE3830023E370069B1B
:103BF00003F837A0637801336370A8EB0508B24679
:103C00006CE6A37863705646F7E7129B039A03EBC2
:103C1000C20306935B680C93069B93F80190BAF17C
:103C2000FF0F00F08E800FFA8AF303EB83030A9AEA
:103C3000D04612F833A002EBC3040025DBF80030B5
:103C40000D93FF23A28B2370E38B934286BF9B1AB5
:103C50009BB200230E930FFA88F303EB8303DB0080
:103C60001393139BDBF80020DBF81800079002EB9E
:103C7000030EFF209BF81D30DEF808100B93089010
:103C8000FF2B07D003EB830C02EBCC06B06881421C
:103C900000F2A980DEF818000F9001EB000C1E4620
:103CA000FF2E40F0AE800F9830B107988142C0F0EF
:103CB000BF80FF2E40F08E810B98CEF80810834213
:103CC00018BFBDF92C008EF8003016BF00EB800045
:103CD0008BF81D8002F83080FF2B06D003EB8303A6
:103CE00002EBC3039A68511A9960A3780133637099
:103CF0000021002D93D02846FFF749FD8FE709EBFF
:103D000049030C9A1B01D51809F101025FFA82F9E7
:103D1000069A12784A4508BF4FF000090C9AD35C06
:103D2000032B0ED195F801800A9B08EB880403EB66
:103D3000C4046278A3789A4209D001212846FFF78B
:103D400026FD069B9B784B45D9D1039BE6E5EB68A6
:103D5000DBF8141063602B692362AB8AA383AB6921
:103D6000A361EB69E3602B6A23610026AB68A36063
:103D700066616A682046FFF7ECFC01236662E68311
:103D8000E3705BE75A2B17FF592B177FB6562EFEB1
:103D9000606800287BD0626A216A924B0A4492498B
:103DA000D3188B429CBFA2F1E872A2F5D432A3686B
:103DB0008BBF6262A2F5A57200226262034498BFC3
:103DC00001221344E28BA3600132E28362699342D1
:103DD0004FF0000189BF9B1AD31AA36061619CBF99
:103DE0006361A1603DE7B669091A46B9079FB84209
:103DF00000D23E1A0B93079612F83C3040E7089326
:103E0000F8E730B200EB800002EBC0071097BF6804
:103E1000119767450AD2109FBF69002F7FF443AF07
:103E2000119EACEB060C12F8306039E7FF263AE73A
:103E3000089B98453FF459AF089BFF2BA8D01E461E
:103E400033B203EB83030793079A0D9B03EBC2077F
:103E5000FB8BBA8B934288BF9B1A7A688CBF9BB24C
:103E60000023002A94D00E9A934291D8FA78E378EE
:103E70009A428DD231465846FFF73FFCBB787B70A3
:103E8000079A0D9BB86003F832A0B246E9E601211B
:103E90002FE7039B03EBC4056E686B78EA789A42C0
:103EA00002D1013CE4B251E503EB43031B01F218DC
:103EB000F35C012B25D0022B2AD1D2F804C09368E1
:103EC0009CF80000D2F80C90DBF800E0FF2804D04A
:103ED0001968DBF81470B94223D0DBF814009BF8A2
:103EE0001D1018600023FF2907D001EB810A0EEB9B
:103EF000CA0087698068DFB103448CF80010C9F8F4
:103F00000030936AC2F8248013B1D16A0020984728
:103F10006B782A780133DBB29A4208BF00236B70BA
:103F2000BBE700EB8000D9F800301EF83010DAE76C
:103F300003441EF83A10D6E7059BFF2B07D106F085
:103F4000CFFE044606F090FE08B9CBF814409BF86B
:103F50001D30DBF8002003EB830302EBC3030A26CA
:103F60009D6806F0BDFEDBF81440031B23F07F4381
:103F70000333AB422CBFE418641924F07F44074696
:103F8000DBF828302046984706F0AAFEC01B20F038
:103F90007F40E41B033024F07F44A0427FF6E8AC6E
:103FA000013EDED1114B01930093114A114B12498E
:103FB0001248FDF727FA404080F311884FF00400C3
:103FC00002DF00238BF81E30C8E4002BF9D1012357
:103FD0000493B2E4B0457FF433AF86E615B0BDE894
:103FE000F08F00BF5A2B17FF592B177FEFCE000021
:103FF000A6D7000008DD00001BD7000022DD00006E
:10400000F0B51A4D059F9DF818402C26464305EB48
:10401000060EAA518EF8081007998EF80930CEF8CE
:104020000470013BDBB2FF2B11D1ECB92C2202FB57
:10403000005208991162099951620A999162537765
:104040001377946154619472D4722046F0BD1AB211
:1040500007EBC206716017F8322002EB4206A41A81
:1040600001EB0611E4B2DCE70120F0BDBC04002046
:10407000074A2C2100FB012310B45C6A2CB1A44632
:1040800001220321022010BC604710BC704700BF12
:10409000BC0400202DE9F047254F4FF02C08814645
:1040A00008FB00700FFA81FCD0F804E00EEBCC06A0
:1040B0001EF83CE0F478651CEDB2AE4598BF0025D3
:1040C00096F801E0AE452FD0D6F804C004EB4404C6
:1040D0004FEA041E0CEB0E044FF0030A0CF80EA07E
:1040E0006360089BA360099BE3600A9B23610C9BB0
:1040F000A361BDF82C30A3820D9BE3610E9B23626C
:10410000022363620F9BA362109B6270E362F570EF
:10411000456A036A0846984709FB08730022042190
:10412000A847606ABDE8F0870120BDE8F08700BFBE
:10413000BC0400202DE9F047DFF890804FF02C0AF6
:104140000AFB008E0FB2DEF80450814605EBC70073
:1041500015F83750C478661CF6B2B54298BF0026F1
:104160004578B5422FD0D0F804C004EB44042501B3
:104170000CEB050404270CF80570A380BDF8203073
:10418000E380BDF824302381BDF828306381BDF879
:104190002C30A3819DF83030A373022363620D9B02
:1041A000A3620E9B6270E362C670DEF82030DEF818
:1041B00024500846984709FB0A8300223946A8473D
:1041C000606ABDE8F0870120BDE8F087BC040020EC
:1041D0002DE9F047DFF86C904FF02C0A0AFB009EA7
:1041E0008046DEF804000EB200EBC60710F8360079
:1041F000FC78651CEDB2A84298BF00257878A842EB
:104200001DD0786804EB4404240106194FF0050C16
:1042100000F804C07270B3620222089B7262F362FB
:10422000FD70DEF82030DEF824400846984708FB91
:104230000A9300220421A047706ABDE8F08701209C
:10424000BDE8F087BC0400202DE9F047DFF8788056
:104250004FF02C0A81460AFB00800FFA81FE456868
:1042600005EBCE0715F83E50FC78661CF6B2B54259
:1042700098BF00267D78B54223D0D7F804C004EB60
:10428000440425010CEB05044FF0020E0CF805E088
:10429000A360089BE360099BA362FF250A9B626001
:1042A0006570C4F824E0E362FE70456A036A08465C
:1042B000984709FB0A8300220421A847606ABDE8E9
:1042C000F0870120BDE8F087BC0400202DE9F0470D
:1042D000DFF86C904FF02C0A0AFB009E8046DEF857
:1042E00004000EB200EBC60710F83600FC78651C1F
:1042F000EDB2A84298BF00257878A8421DD0786812
:1043000004EB4404240106194FF0010C00F804C02A
:10431000FF20707002207062B262F362FD70DEF8FE
:104320002030DEF824400846984708FB0A93002214
:104330000421A047706ABDE8F0870120BDE8F0873E
:10434000BC0400202DE9F041084C2C2505FB00435E
:1043500006465F6A1B6A0846984706FB0543BC464B
:1043600000220421BDE8F041604700BFBC040020EA
:1043700006F0B6BC401A20F07F40704708B50346EF
:10438000012B08460ED833B119B106220649FCF7B5
:1043900033F9054808BD19B106220449FCF72CF988
:1043A000024808BD002008BD1A05002014050020A1
:1043B00070B506460D4605F01FFB044610B10C24EF
:1043C000204670BD05F02CFB10F0060FF7D1062239
:1043D00029461EB10248FCF70FF9F1E70148FAE758
:1043E0001A05002014050020002303700B7070478D
:1043F000F7B507460E460C46351B3D448CB1FDF71C
:104400002DF8032C019007D904220DEB0201284658
:10441000FCF7F2F8043CEFE7224601A92846FCF736
:10442000EBF8002003B0F0BD08B50248FEF762FDCE
:10443000002008BD74DD00007FB5214D00264FF03F
:10444000FF31284607F0D1FC044618B300F02EFFD8
:104450000228039421D801280EBF00214FF0FF311C
:104460000120FEF747FF044618B10146039800F00B
:104470008FFD039B0021D88805F0ACFB04A850F801
:10448000043D1E6005F032FB24B1A38920469BB198
:10449000FEF7B4FB07F054FED1E70A4B01930093FB
:1044A000094A0A4B0A490B48FCF7ACFF404080F32D
:1044B00011884FF0040002DF07F03EFAEAE700BF80
:1044C000F43E0020EFCE0000A6D7000045DD00003E
:1044D0001BD70000B3D600001FB5838904465BB923
:1044E000114B01930093114A114B12491248FCF7EA
:1044F00089FF6FF015000AE0027D52B900F0F6F96D
:1045000008B1FEF779FC204607F016FA002004B047
:1045100010BD054B029301920093044A044B0549D8
:104520000648FCF76FFFE4E7EFCE0000A6D70000D7
:1045300051DD00001BD70000B1DD0000D2DD00001E
:1045400037B50C4C0C4D0DF1020101A805F096FA9F
:104550000028F8D1019B33B105F01AFE01992846D5
:1045600007F01FFCEFE74FF0FF31204607F0ECFEAD
:10457000E9E700BFDC3E0020F43E002010B51A48F9
:1045800086B005F0E3FE044660B1184B02938DE857
:104590001800174A174B18491848FCF733FF2046F4
:1045A00006B010BD00F0A2FE6FF00903039305945E
:1045B0000494029401940094114B124912484FF450
:1045C0003B7208F083F86FF007030393059404949B
:1045D0000294019400940D4B0D490E4840F22C5268
:1045E00008F074F8DBE700BFDC3E0020EFCE0000EF
:1045F000A6D7000061DD00001BD7000084DD0000AD
:1046000041450000F8210020341B002039440000FF
:10461000E8240020CC1A0020C0F307230870000C07
:104620008870000A4B70C870704738B508300D4666
:104630000221144607F0B2F90570447038BD00003D
:1046400038B504464FF0FF300D46FEF763FEEA1C16
:104650002060D2B20E21FFF7E8FF20680321083066
:1046600007F09CF901230370054B1B88A0F801306B
:10467000206829460830BDE8384007F08FB900BFF0
:104680002005002070B50446154601320E46083458
:10469000D2B23E21FFF7C9FF0121204607F07EF983
:1046A000067029462046BDE8704007F077B9F0B59E
:1046B0008BB00024037AB0F8032006780D46B0F8DA
:1046C00001100994477D0897077D07970694877C1A
:1046D00005970494047C0394C479029400F10A04BD
:1046E0000194407A0090304605F0D8FE022104463D
:1046F0002846FFF7A5FF04700BB0F0BD38B5007871
:104700000D4606F039F9012104462846FFF798FFC7
:10471000002C0CBF00230C23037038BD70B5044679
:104720001846134B1646D3E90023002203F000532A
:1047300013430D461BD00F4BD3E90023002302F097
:104740000802134313D00B220421FFF79BFF08221A
:104750000470A0F80160033024B9291DBDE8704041
:10476000FBF74ABF0021BDE87040FBF771BF70BD89
:10477000983C0020A03C002070B503788AB0044625
:104780000E4607AD032B20D8DFE803F002191B1DEE
:1047900011492846FBF704FF62780492A27803923D
:1047A000E27802922279019262790092A3790595CA
:1047B0000A4A1B213046FCF733FE0AB070BD084997
:1047C000E7E70849E5E70849E3E7084A0A212846F8
:1047D000FCF726FEE0E700BF5FCE000088CE0000B9
:1047E00066CE00006DCE000077CE000081CE0000C6
:1047F0002DE9F04104464078324D92B001440795CE
:104800008B7A03905B425BB2069323780192D909BD
:104810000591C3F3801103F00F03049102930095F7
:10482000294B2A4A2A492B48FCF7ECFD237803F050
:104830000F03072B43D16378002B40D0A378244982
:10484000039503F03F029B090292019300951E4BD2
:104850001E4A2148FCF7D6FDA37899062FD0E378AD
:10486000DA0704F104061CD5237812AFC3F38013D2
:1048700007F8243D062231460DF12C080DF12500E4
:10488000FBF7BAFE41463846FFF776FF02958DE802
:1048900020010D4B0D4A0E49104804F10A06FCF7A1
:1048A000B1FDE3785B060AD5029596F900300193D5
:1048B0000095054B054A06490948FCF7A3FD12B0CF
:1048C000BDE8F081EFCE000010DE000014D700003C
:1048D0001BD7000061DF0000AEDF0000DFDF00005B
:1048E000F8DF00000346006859687047F0B5818919
:1048F0008FB000260229054603960BD8BB4B0193C7
:104900000093BB4ABB4BBC49BC48FCF77BFD30461F
:104910000FB0F0BD8368BA4C1A7858789B7842EA99
:1049200000228B42228007D9B04B01930093B04AFA
:10493000B04BB149B348E8E7032105F1080007F09F
:1049400044F82388C3F309049B0A042B72D012D8BD
:10495000032B2FD0012103A8FFF772FEA34B019375
:1049600004460093A24AA34BA349A748FCF74AFD7B
:104970000123237033E0082B00F0E9803F2BE9D1BD
:10498000013C092CE6D801A353F824F0AF4D0000F8
:10499000DD4D0000054E000055490000554900005E
:1049A000494E0000554900001B4E0000534E0000C8
:1049B000BF4E0000032C14D008D8012CCAD1A8681F
:1049C000FFF790FF914BC3E9000103E02D2C1BD0B2
:1049D000632CBFD1012103A8FFF732FE06700398B4
:1049E00096E78B4B4FF0FF321A60884B4FF0FF3049
:1049F00041F6FF71C3E90001864B1F200021C3E986
:104A0000000104F09DFFE5E7AB68042103A81D88C1
:104A10009F78FFF715FEAEB20446C21C39463046F9
:104A200005F022F8002814BF022300232370A4F805
:104A30000150D4E7013C082C8CD801A353F824F092
:104A4000654A00008F4A00001B4B000055490000DA
:104A500055490000554900005549000055490000DE
:104A6000374B0000092103A8FFF7EAFD002303707C
:104A70008370C3706FF00E034371052309228371A5
:104A80004FF0FF3342700271C3710372A7E74121F7
:104A900003A8FFF7D5FD00210446402200F8011BC2
:104AA000FBF7D6FDE378207F94F82520E17E63F0C4
:104AB0007F03E370A37963F03F03A371E37A43F0CC
:104AC0000403E372E37B43F02803E373237C43F0A6
:104AD00002032374E37D60F03C0043F00403E375BC
:104AE0002077A37E607F63F0080340F008006077C2
:104AF000A37694F8270094F8263060F07F0061F0E8
:104B0000300162F0010243F0600384F82700E1768F
:104B100084F8252084F8263061E7092103A8FFF7EF
:104B20008FFD00210446082200F8011BFBF790FDD1
:104B30006023637153E7072103A8FFF781FD014656
:104B4000002301F8013B1846FFF718FC47E70F2C3C
:104B500000F0CC8062D8072C00F004811FD8032C11
:104B600000F0A78010D8012C00F09780022C7FF471
:104B7000F1AE042103A8FFF763FD00231B2203709D
:104B800042708370C4702AE7052C00F0A480062CC4
:104B90007FF4E0AE03A9A868FFF789FD1FE70A2CA0
:104BA00000F0E7800AD8082C60D0092C7FF4D2AE40
:104BB000AB68591C187805F09DFE74E00B2C00F0D2
:104BC000DD800C2C7FF4C6AEAA68114B107800284B
:104BD00000F0EA805278002A00F0E68000221A6095
:104BE0000D4B1A6005F044FFD3E000BFEFCE00008C
:104BF000A6D7000001DE00001BD7000066DE000023
:104C0000200500208CDE0000BADE0000983C002069
:104C100024050020A03C0020280500201C2C00F0CA
:104C200090801BD8122C74D008D8102C68D0112C6E
:104C30007FF490AEA86805F07FFF50E0172C6CD091
:104C4000182C7FF487AE092103A8FFF7F9FC002395
:104C500000F8013B0821FFF7CBFBC0E6382CA7D0BA
:104C60000AD8362C96D0372C7FF474AEAB68591C1A
:104C7000187805F0D9FD16E0392C7AD04B2C7FF44A
:104C800069AE032103A8FFF7DBFC0146002301F80E
:104C9000023B0130FFF7A8FBA1E6A868FFF722FE60
:104CA000B94BC3E90001012103A8FFF7C9FC0023A8
:104CB00078E0092103A8FFF7C3FC0021044608227D
:104CC00000F8011BFBF7C4FC0C2363704023A370A6
:104CD0000123E37083E6A9680120FFF769FB04461E
:104CE000012103A8FFF7ACFC047078E6022103A8B9
:104CF000FFF7A6FC0670044605F006FF60706EE63E
:104D0000012103A8FFF79CFC044605F0FFFE20707C
:104D100065E6A86805F048FFE1E7A868002304AA53
:104D200000F1100106F010F8112103A8FFF788FC2C
:104D30000023102200F8013B0DEB0201FBF75CFCA5
:104D40004DE6092103A8FFF77BFC0146024601F866
:104D5000016B43F23330FFF75FFC3046511DFFF724
:104D60005BFC3CE6022103A8FFF76AFC0670467074
:104D700035E603A9A868FFF7C1FC30E6AC686379A3
:104D8000B4F80320B4F801102078A479009405F059
:104D90004FFE0446012103A8FFF752FC002C14BF6C
:104DA0000C23002303701AE64FF0FF3219E70D21A0
:104DB00003A8FFF745FC02224270C27001228271F3
:104DC0000B220023C271632203708370037143714D
:104DD000037242728372C372037300E6412103A817
:104DE000FFF72EFC00210446402200F8011BFBF7D0
:104DF0002FFC637863F058036370A37843F00303D8
:104E0000A370ECE5092103A8FFF71AFC002100F8C4
:104E1000011B0822FBF71CFCE1E55C4B04AA03F133
:104E20002806154618685968144603C40833B34267
:104E30002246F7D1292103A8FFF702FC002300F83E
:104E4000013B2822294679E7A9680020FFF7B0FA3C
:104E500029E74FF08053D3F8A420013206D1D3F8CC
:104E6000A8304FF6FF729BB2934220D04FF080558E
:104E7000D5F8A030DB071AD5182103A8FFF7E0FB0F
:104E800000260123044643700670D5F8A400A11C37
:104E9000FFF7C2FBD5F8A830A371C3F3072363F073
:104EA0003F03E3711022314604F10800B2E702210A
:104EB00003A8FFF7C5FB0023037043708FE5212192
:104EC00003A8FFF7BDFB0346002203F8012B4FF0B8
:104ED00080520446D2F8901001314BD0D2F8941091
:104EE000013147D0D2F89810013143D0D2F89C104C
:104EF00001313FD0D2F890001946FFF78DFB611DBC
:104F0000D2F89400FFF788FB04F10901D2F8980069
:104F1000FFF782FB04F10D01D2F89C00FFF77CFB48
:104F20004FF08052D2F88030013304F1110327D0C2
:104F3000D2F88410013123D0D2F8881001311FD06B
:104F4000D2F88C1001311BD0D2F880001946FFF73F
:104F500063FB04F11501D2F88400FFF75DFB04F157
:104F60001901D2F88800FFF757FB04F11D01D2F8B0
:104F70008C00F4E6102200211846FBF769FBCFE70E
:104F800010220021184645E7A03C0020E9DE000081
:104F90002DE9F0470379012B90B00446894600F1D2
:104FA000080700F01A81023B032B00F20781DFE8BB
:104FB00003F002B6BCBE01238DF8253003238DF823
:104FC0002630FF238DF827308DF8293002238DF805
:104FD0002A30A54B04228DF82820D3E90023002293
:104FE00003F00053002513438DF8245000F0948003
:104FF0009E4BD3E90023002302F00202134300F08A
:105000008B809B4E3368AB4200F10A0849DBDFF826
:1050100098A233689D4227DB964DDFF85CA2286892
:105020000AEBC000062241460230FBF7E5FA2B6886
:10503000227A0AEBC301C2F380124A70227A02F08C
:105040000F0101228A4031680AF833200F29D5BFA9
:105050000131013329602B602B68D8BF3160102BE0
:105060001FD100232B601CE0062251464046FBF76F
:10507000AEFAF0B9237A1AF8011C1A46C3F380136A
:105080008B4216D17C4810F8353002F00F0223FA1B
:1050900002F1C90740D4012101FA02F2134300F8DA
:1050A0003530237A03F00F03012B637A05D10026F4
:1050B00005E001350AF1080AABE79E1FF6B223446A
:1050C00006F10B02D2B20221484693F80AA0FFF77C
:1050D000D9FA01230370237A10AA03F00F031344B3
:1050E000054613F81C3C4370237AC3F38013837086
:1050F000062241460330FBF77FFA0A3505F8016CBA
:10510000CAF1000A4FFA8AFA324607F10801284626
:10511000FBF772FA05F806A010B0BDE8F08701228F
:1051200021463846FFF764FBF6E70422F8E74E4BCA
:10513000D3E90023002203F00053134300F10A06D1
:1051400007D04A4BD3E90023002302F48022134303
:1051500023D1237A10ADC3F38013062231460DF11B
:105160001D0005F8243DFBF747FA637A1C4409AE9D
:10517000A47A314628466442FFF7FEFA64B23F4BF8
:105180000493002201920093039402963C4B3D4A03
:105190003D493E48FCF736F9BEE708221321484650
:1051A000FFF770FA00230370237AC3F38013437070
:1051B000062231460230FBF71FFAADE72F4B019371
:1051C0000093334B334A30493348FCF71BF94040D6
:1051D00080F311884FF0040002DFC17AC5880929E5
:1051E0000BD00C2910D0072938D1027B0E2A2AD1E6
:1051F0004B462A4600211A2003E04B462A463946F0
:105200000020FFF78BFA87E7174BD3E90023002331
:1052100002F4006213433FF47FAF08224846FFF7D1
:1052200004FA082109EB010006F0B8FB0023037023
:10523000A0F80150237BC370B4F80D308380B4F81C
:105240000F30C38068E70D4B0293019200930D4A23
:10525000124B0D491248FCF7D5F85DE7074B019357
:105260000093104BAEE700BF983C0020A03C00200C
:1052700024050020280500202C050020EFCE00008A
:1052800022DE000014D700001BD7000011DF000051
:1052900037DE0000A6D70000B3D6000046DE0000CF
:1052A00044DF000055DE00002E0500200379012BAD
:1052B0000FD00A2B15D8012000FA03F313F4B06FB6
:1052C00012D113F03C0F10D183F0400343F3801050
:1052D0007047037A03F00303032B0CBF0220032063
:1052E00070474FF0FF30704702207047084B4FF077
:1052F000FF321A60074B4FF0FF3041F6FF71C3E9F0
:105300000001054B1F200021C3E90001704700BFC9
:1053100024050020983C0020A03C002020BF40BF76
:1053200020BF7047F0B50D4B89B005460E4601AA67
:1053300003F1180718685968144603C40833BB42C0
:105340002246F7D11B88238008AB1D4415F81C0C9E
:10535000831B5842584109B0F0BD00BF59CD000031
:105360000860704718B90B6843F000430B60704742
:1053700018B90B6823F000430B60704770B5031D2C
:10538000451E00249D4201D1204670BD15F8016FD5
:105390000022A018082AC0B201D10446F2E716F094
:1053A000010F03D00029F0D00139C9B276080132CB
:1053B000EFE7000010B50C4A92F8A63692F8A51651
:1053C0008B4238BF92F8A44692F8A51638BF1B1935
:1053D0005B1ADBB298429DBF92F8A516D2F8A036B0
:1053E00053F82100002010BDB005002030B590F822
:1053F0005C3090F85D10994228D190F91D30002B57
:1054000026DBC48C828CA0F86440C48DA0F8622096
:1054100054437D2262434FF47A7492FBF4F2A0F875
:10542000662090F86020012565F30102D2B20023C6
:1054300042F00402013980F87050C36680F86020A1
:1054400080F85D1080F85E50184630BD012030BDF8
:10545000022030BD2DE9F84F0C78944281460F466A
:1054600090463DD01F4ED6F8D43633F83430038002
:1054700000254FF0020B06F5D96A22B2D6F8D40601
:10548000B9F800E000EBC20130F83220964520D197
:105490004868012820F003030AD9F3B1021D1CD08B
:1054A0004279D2B1027902F00302013A012A14D8FA
:1054B000012215444A60EDB213B15146FDF78DFF4C
:1054C000013496F8D826E4B2A24208BF002444452D
:1054D000D3D13C702846BDE8F88FC1F804B0EBE7A3
:1054E0000025F7E7B005002010B5094B93F87C269E
:1054F000824204460AD902464FF48271D3F87406F8
:10550000FDF780FF10B1038CA34200D0002010BD36
:10551000B00500202DE9F04186B00223052805469C
:105520000F4602930CD0062840D045D9073880B2E8
:10553000FFF7DAFF002800F0238190E840010FE038
:10554000904B9E69D3F81C8002AB00930A468E4BA9
:1055500003210020FEF73CFE022811D0029B9BB9DC
:10556000884CA37C03F0FF00002B2DD0874B0193C8
:105570000093874A874B884988480FE0FFF7CEFEA3
:10558000029B022BFAD0E9E7029B012BE8D07F4B6C
:10559000019300937E4A7F4B7F498148FBF732FF9E
:1055A000404080F311884FF0040002DF754BD3F8C0
:1055B0003C66D3F84086D3E7744B01930093754B58
:1055C000734A75497748E9E706AB0222A57443F8A8
:1055D000102D032100932A466B4BFEF7F9FD02289C
:1055E00025D0029B002B69D1237C9D4202D0637C95
:1055F0009D425FD106AB022243F80C2D002200939E
:105600000321614B1046FEF7E3FD02281DD1012264
:1056100011460320FDF758FF039B022B15D15B4B6E
:10562000019300935A4A604B5B496048B6E7637C3C
:105630009D4204D1012211460320FDF745FF029B44
:10564000022BCED1FFF76AFEF9E70398002850D16C
:1056500002230493237C3BB94C4B019300934C4AA7
:10566000514B4D49524899E704AB00930122464BF8
:1056700020740321FEF7ACFD02280FD10122114650
:105680000320FDF721FF049B022B07D13F4B019321
:1056900000933F4A444B404946487FE7049A9AB9F1
:1056A00026F00046B04522D9434B11460320FDF7B2
:1056B00033FFA0B9A37C0BB9012302930023A37489
:1056C000029806B0BDE8F081049B012B53D1002263
:1056D0001146394B0320FDF71FFF024638B12B4B13
:1056E000019300932A4A304B2B49344856E7344BF8
:1056F000DBE7039D012D3ED1FF2F29D006AB02220F
:1057000043F8042D032100933A461F4B0020FEF777
:105710005FFD02280FD12A4629460320FDF7D4FE5B
:10572000059B022B07D1194B01930093184A1E4B7E
:105730001949244832E7059B53B1059B012B07D03B
:10574000124B01930093124A174B13491E4825E749
:10575000E37C002BAED01D4B04229A600022114640
:105760000320FDF7D9FE0028B9D1E37C002BA1D09E
:10577000FFF7D4FDF9E7054B019300930A4B1FE7B0
:1057800001209EE7B005002061530000EFCE00002D
:10579000A6D70000BFE300001BD70000C7EA000047
:1057A00087EA0000B3D60000ABE30000FFEA000088
:1057B00030EB00006AEB0000E83C00209AEB0000B0
:1057C000983D0020C0EB0000F2EB0000183D0020E7
:1057D00013B51D4B04461A7801B3002A32D10128B3
:1057E0000ED01A4B01930093194A1A4B1A491B48C1
:1057F000FBF708FE404080F311884FF0040002DF01
:105800001870174B1146FDF787FED8B10F4B019367
:1058100000930F4A0F4B10491248E9E792B11970F3
:1058200070B1012804D1104B002211462046EAE74E
:10583000064B01930093064A064B07490B48D7E7EE
:105840000B4BF1E702B010BD300D0020EFCE000091
:10585000A6D700008DE100001BD70000E1E80000A2
:10586000583D002011E90000783D0020B3D600002B
:10587000683D00202DE9F74F564B93F82C2202EBA0
:1058800002221344044693F82A3003F00F03072B37
:1058900040F089802628DFF87CB114D027281FD05B
:1058A00025284D4D3FD1FCF705FBCBF80000FCF758
:1058B00001FB4A4B18602B7801332B70484B0122B7
:1058C0001A70022063E0FCF7F5FA454BCBF80000B4
:1058D00001221A70404A1378013313701A2056E0DF
:1058E000FCF7E8FA3F4B404A18601668DBF80030D6
:1058F0004FF47A75C31A86FB0567A3FB060103FB09
:1059000007113A4B1A68D317FAF7AEFC384BB0FBC5
:10591000F5F01860FCF7CEFA314BCBF8000001220D
:105920001A70502033E000232B70FCF7C3FA314B80
:1059300018602D4B1E682D4B1B6898464FEAE37983
:10594000DBF800304FF47A7A86FB0A67C31A054603
:10595000A3FB060103FB071142464B46FAF784FC02
:10596000254BB0FBFAF018601C4B1B68ED1AA5FB29
:1059700006014B4605FB07114246FAF775FC1F4B23
:10598000B0FBFAF018600A2C09D8A01C400005F002
:10599000E7FA204603B0BDE8F04F05F0E7BA272C40
:1059A00008D8E01CF2E7262898D02728B9D0252867
:1059B000E9D186E7124B01930093124A124B134927
:1059C0001348FBF71FFD404080F311884FF004009F
:1059D00002DF00BFB0050020D40C0020A01B002077
:1059E000AC050020A41B0020143E0020103E002027
:1059F000BC1B0020C41B0020AC1B00209C1B0020F3
:105A0000EFCE0000A6D700003BE200001BD700004D
:105A1000B3D60000A81B0020F8B56C4C94F82C32CB
:105A200094F82D229A4206D00133DBB2022B08BF34
:105A3000002384F82C3294F8343694F835269A42B0
:105A400006D00133DBB2022B08BF002384F83436C2
:105A500094F82C5205EB05252A356019635D03F097
:105A60000F03072B72D194F8286094F8313416F0A4
:105A7000070600F08F80C378DF074CBF00F10A02F1
:105A8000021D9E0748BF0632190748BF0232DB06D7
:105A900010D594F829104378C1F3C201DB0007291F
:105AA00003F1500345D14A49097801293DD02CD34F
:105AB00002293ED005F0B8FA635D03F00F0302221D
:105AC000022B227538D0072B36D0962005F0B6FB76
:105AD000002005F023FB94F82830C3F30202D3B270
