:10000000604E0020750C0000C50C0000750B000050
:10001000750B0000750B0000750B0000750B0000E0
:10002000750B0000750B0000750B0000090900003E
:10003000750B0000750B0000C5080000750B000073
:10004000390C00001F8B0000390C0000390C000037
:10005000390C0000390C0000390C0000390C00008C
:10006000390C0000390C0000390C0000390C00007C
:10007000390C0000390C0000390C0000390C00006C
:10008000390C0000390C0000390C0000390C00005C
:10009000390C0000390C0000390C0000390C00004C
:1000A000390C0000390C0000390C0000390C00003C
:1000B000390C0000390C0000390C0000390C00002C
:1000C000390C0000390C0000390C0000390C00001C
:1000D000390C0000390C0000390C0000390C00000C
:1000E000390C0000390C0000390C0000390C0000FC
:1000F000390C0000390C0000000000007D0F0000EA
:1001000000000000ED0A000000000000ED0A000001
:1001100000000000ED0A000000000000ED0A0000F1
:1001200000000000ED0A000000000000ED0A0000E1
:1001300000000000ED0A000000000000ED0A0000D1
:1001400000000000ED0A000000000000ED0A0000C1
:1001500000000000E58A000000000000ED0A000039
:10016000706000209911000000000000ED0A0000FE
:1001700000000000ED0A000000000000ED0A000091
:1001800000000000D912000000000000ED0A00008D
:1001900000000000ED0A000000000000ED0A000071
:1001A00000000000ED0A000000000000ED0A000061
:1001B00000000000ED0A000000000000198B0000A4
:1001C00000000000ED0A000000000000ED0A000041
:1001D00000000000ED0A000000000000ED0A000031
:1001E00000000000ED0A000000000000ED0A000021
:1001F00000000000ED0A000000000000ED0A000011
:1002000000000000ED0A000000000000ED0A000000
:1002100000000000ED0A000000000000ED0A0000F0
:1002200000000000ED0A000000000000ED0A0000E0
:1002300000000000ED0A000000000000ED0A0000D0
:1002400000000000ED0A000000000000ED0A0000C0
:1002500000000000ED0A000000000000ED0A0000B0
:1002600000000000ED0A000053B94AB9002908BF98
:1002700000281CBF4FF0FF314FF0FF3000F07AB97B
:10028000ADF1080C6DE904CE00F006F8DDF804E0ED
:10029000DDE9022304B070472DE9F0478C460D4696
:1002A0000446089E002B51D18A4217466DD9B2FAF6
:1002B00082FEBEF1000F0BD0CEF1200C01FA0EF53C
:1002C00020FA0CFC02FA0EF74CEA050C00FA0EF4C8
:1002D0004FEA174A250CBCFBFAF81FFA87F90AFB0C
:1002E00018CC45EA0C4508FB09F3AB420AD9ED19D5
:1002F00008F1FF3280F02381AB4240F22081A8F167
:1003000002083D44ED1AA4B2B5FBFAF00AFB105501
:1003100044EA054400FB09F9A14509D9E41900F1B3
:10032000FF3380F00A81A14540F2078102383C4446
:10033000A4EB090440EA08400021002E61D024FA11
:100340000EF4002334607360BDE8F0878B4207D958
:10035000002E54D0002186E821000846BDE8F08731
:10036000B3FA83F1002940F08E80AB4202D382427F
:1003700000F2FA80841A65EB03050120AC46002EDA
:100380003FD086E81010BDE8F08712B90127B7FB0F
:10039000F2F7B7FA87FEBEF1000F34D1EB1B3A0C2F
:1003A0001FFA87FC0121B3FBF2F8250C02FB18337E
:1003B00045EA03450CFB08F3AB4207D9ED1908F1F8
:1003C000FF3002D2AB4200F2D1808046ED1AA3B2D8
:1003D000B5FBF2F002FB105543EA05440CFB00FCB0
:1003E000A44507D9E41900F1FF3302D2A44500F275
:1003F000B8801846A4EB0C0440EA08409DE731465B
:100400003046BDE8F087CEF1200405FA0EF307FA76
:100410000EF720FA04F83A0C25FA04F448EA030827
:10042000B4FBF2F14FEA184502FB11441FFA87FCB6
:1004300045EA044501FB0CF3AB4200FA0EF409D97E
:10044000ED1901F1FF3080F08A80AB4240F28780E5
:1004500002393D44EB1A1FFA88F5B3FBF2F002FBB8
:10046000103345EA034500FB0CF3AB4207D9ED1905
:1004700000F1FF386FD2AB426DD902383D44EB1A20
:1004800040EA01418FE7C1F1200722FA07F88B40CB
:1004900005FA01F448EA030320FA07FE4FEA134C79
:1004A000FD404EEA040EB5FBFCF94FEA1E440CFB7E
:1004B00019551FFA83F844EA054509FB08F4AC42D4
:1004C00002FA01F200FA01FA08D9ED1809F1FF3039
:1004D00043D2AC4241D9A9F102091D442D1B1FFA98
:1004E0008EFEB5FBFCF00CFB10554EEA054400FBFC
:1004F00008F8A04507D9E41800F1FF3529D2A04536
:1005000027D902381C4440EA0940A4EB0804A0FBA8
:1005100002894C45C6464D4615D312D056B1BAEBAA
:100520000E0364EB050404FA07F7CB401F43CC40ED
:10053000376074600021BDE8F0871846F8E6904601
:10054000E0E6C245EAD2B8EB020E69EB03050138DA
:10055000E4E72846D7E7404691E78146BEE70146F3
:1005600078E702383C4445E7084608E7A8F1020866
:100570003D442BE7704700BF0139034611F8012FB6
:100580000AB91A70704703F8012BF7E701380139EF
:1005900010F8013F11F8012F934202D1002BF7D13F
:1005A0001A46981A704770B582B1013A0C46034654
:1005B00003D11A782078101A70BD1E782578AE42C3
:1005C00000F1010001F10101EFD0F2E7104670BD2A
:1005D00081EA000313F0030F70B503460BD0013B13
:1005E0000A4491421BD170BD002AFCD011F8014B86
:1005F00003F8014B013A9C07F6D11E1F0D46541B10
:100600000C44032C06D822F003042144234402F0B6
:100610000302E4E755F8044B46F8044FEFE711F8FE
:10062000014B03F8014FDCE770B5C9B203469C07E4
:1006300011D141EA012444EA04441E46951B1D449D
:10064000032D0ED822F00304234402F003021A44BF
:10065000934209D170BD002AFCD003F8011B013A76
:10066000E5E746F8044BE9E703F8011BF0E7000073
:1006700000B589B000230593069307934FF47A538E
:10068000ADF8163043F69063ADF81830074B019380
:1006900001224FF4FA7300930292054B054905A815
:1006A00001F038FD09B05DF804FB00BF38B7000069
:1006B000A05B002030B7000008B9FFF7D9BF704732
:1006C00010B54FF47A700AF061FA0848084C01F04E
:1006D00047FC4FF4FA600AF059FA01F0DDFD2046BC
:1006E0000AF054FAFFF7C4FFF3E700BFB9060000B1
:1006F000E0930400054B1B68082B01BF044B1868EE
:10070000B0FA80F0400918BF002070473001001097
:100710003401001008B54FF02003EFF3118183F38B
:100720001188FFF7E7FF40B14FF080430022C3F884
:100730000C21C3F81021C3F83825FFF7DBFF10B1F7
:10074000384B394A1A60FFF7D5FF18B1374BFB22F7
:10075000C3F81825FFF7CEFF48B13548354B02687E
:100760001B6822F00F0203F00F0313430360FFF72F
:10077000C1FF18B1304B4FF400721A60FFF7BAFF97
:1007800048B14FF08043D3F80024D20744BF6FF044
:100790000102C3F800244FF01023D3F80022002AEE
:1007A00003DBD3F80432002B2FDA244B0122C3F8E9
:1007B0000425D3F80024002AFBD04FF01022122188
:1007C000C2F80012D3F80024002AFBD04FF0102307
:1007D0001222C3F80422194B1A46D3F80014002938
:1007E000FBD00021C3F80415D2F80034002BFBD055
:1007F000BFF34F8F1249134BCA6802F4E0621343F0
:10080000CB60BFF34F8F00BFFDE70D4B4FF0FF32C2
:100810009A62DA620C4B0D4A1A6081F3118800204B
:1008200008BD00BF8C5600404881030000F0004026
:10083000E40E0040580200104096024000E00140E3
:1008400000ED00E00400FA05D85D00200090D00320
:10085000084881684A897F2A0BD8C069884208D035
:1008600000B50AF0E5F95DF804EB03494FF080525A
:100870000A6070479428002004ED00E0044800233B
:100880002021C21801332E2B82F80013F9D17047B2
:1008900000E100E0084A0949936809685966084977
:1008A00018664B6843F080534B60002383F3118834
:1008B0009368586E704700BF9428002080B80000ED
:1008C00000ED00E00E498A6828201044EFF3098CFF
:1008D00080E8F01F0B4F4FF00066202080F3118856
:1008E000CA698A603E60106E0023136680F3118827
:1008F00002F1280090E8F01F8CF30988704700008F
:100900009428002004ED00E01EF0040F0CBFEFF36C
:100910000880EFF30980816931F8021C11F0FF01B2
:1009200001D0022907D0404080F3118804494FF0DC
:1009300080520A60704700B500F03BF900BD00002E
:1009400004ED00E00B4B9A6AD10612D49A6A1207A2
:100950000FD49A6A12F0020F9A6A07D0110608D5CE
:1009600038B19A6A22F080029A627047D20758BF63
:100970009B6A704700ED00E00D4B9A6AD20416D4D2
:100980009A6A110513D49A6A12F4007F9A6A09D000
:10099000120404D518B19A6A22F400429A62044BF8
:1009A0009B6A04E0510502D49A6AD205F8D57047D3
:1009B00000ED00E0064B9A6A9A6A9A6A9A6A9A6A05
:1009C0009A6A9A6A6FEA02426FEA12429A62704722
:1009D00000ED00E0184A5368C3F30803033B10B569
:1009E0000446032B0FD8DFE803F002232520D36A47
:1009F000990708D4D36A5B0005D5104B1B7843B127
:100A00000120FFF79FFF21460020BDE8104000F0C5
:100A1000D5B80B4B1B781BB10120FFF7ADFFF2E7F8
:100A2000084B1B889BB2002BEDD0FFF7C3FFEAE712
:100A30000020E6E70020F0E700ED00E028ED00E010
:100A400029ED00E02AED00E0024A536943F010036B
:100A50005361704700ED00E043B2002B08DB012238
:100A600000F01F0002FA00F05B09024A42F823007E
:100A7000704700BF00E100E043B2002B0DDB012214
:100A80005B0900F01F0002FA00F02033034A42F82D
:100A90002300BFF34F8FBFF36F8F704700E100E07B
:100AA0004209054B00F01F0053F82220012303FAEE
:100AB00000F01040704700BF00E100E043B2002B9F
:100AC000A8BF03F1604301F101014FEA4111ADBF3D
:100AD00003F5614300F00F00034BC9B2B6BFC9B2C2
:100AE00083F800131954704714ED00E000F042B889
:100AF00008B572B6044B986918B100229A6109F0E2
:100B0000C3FC62B608BD00BF94280020F8B50C46AF
:100B100016461F4604220A9B099905460AF06CFBFB
:100B2000A6F1200121440C4AAC6521F00701002305
:100B300022F00102EB642B65EE658A61069A4A6039
:100B4000079A8A60089ACA600F604FF08072CA6183
:100B5000A9642B66F8BD00BF6DB0000001491022EA
:100B60000A60704710ED00E0404080F3118830BF0C
:100B7000704700BF404080F31188DFF81CC0DCF8EC
:100B800000C01CF4006C0CBFEFF30880EFF3098089
:100B900000B5FFF71FFF00BD04ED00E038B50446C7
:100BA0000D460AF01BF829462046BDE8384000F003
:100BB00005B801460068FFF7F1BF0000052808B539
:100BC00004D00AF03BFA20B10AF038FAFFF7CCFF64
:100BD000FCE70AF043FA0028F6D1034B9868BDE819
:100BE000084000F003B800BF9428002038B505463F
:100BF0004FF02003EFF3118483F311880AF08CFA8D
:100C00000B4B9B689D420DD10A4B5A68C2F30802F8
:100C100022B90AF00DF82046FFF73CFE5A6842F070
:100C200080525A602046BDE8384009F03DBF00BF01
:100C30009428002000ED00E000B572B60B4A9069E0
:100C400000281EBF0021916109F01EFC62B6EFF37F
:100C50000580A0F110004FEAC0000549014409C910
:100C600098475DF804EBFFF7F3BD000094280020DF
:100C7000F8000000202080F3118805484FF400613F
:100C8000401880F30988022080F3148800F006B829
:100C9000A04F002030BFFFF7FDBF00BF08B5074BD6
:100CA000074A23F07F039360BFF34F8FBFF36F8F2B
:100CB00009F01AFC09F022FC09F040FC00000000D9
:100CC00000ED00E008B5FFF7E5FFBDE80840FFF7DD
:100CD000BFBD0000154B16491A6830B50D68C2F348
:100CE000072295420FD8002248685A60954200F1C9
:100CF0000C000AD105225A600E4B01221A70BFF374
:100D00004F8FBFF36F8F002030BD50F80C1C50F890
:100D1000044C9A6021F01F0141F01001114344F08E
:100D20000104D96001321C61E0E700BF90ED00E0F2
:100D3000945D0020000000207047000013B5114CA6
:100D4000BFF35B8F2068BFF35B8F60B90E4809F07B
:100D500075FBBFF35B8F54E8003F44E80002002AB4
:100D6000F9D1BFF35B8F436804221B680DEB0201CE
:100D70009847002802DA00F01DFB0190019802B0AC
:100D800010BD00BF0400002078B7000010B54FF080
:100D90002003EFF3118283F31188114C237823B9D8
:100DA00082F311886FF0440010BD013BDBB2237069
:100DB00023B182F311886FF00F0010BD094B187832
:100DC000012128B1217082F311886FF00A0010BD53
:100DD000197082F311884FF080425160187010BD75
:100DE0000A0000200900002008B500221046012159
:100DF000FFF764FE0020FFF72FFE002008BD000073
:100E0000F8B54FF02002EFF3118382F31188254AE1
:100E10001078441C147060B183F311884FF0804344
:100E2000D3F80C3413F4803F14BF00206FF043005C
:100E3000F8BD1D4D2F782FB1107083F311886FF01E
:100E40000A00F8BD01262E7083F311884FF080440C
:100E500019B33846FFF710FEC4F80071D4F8043314
:100E6000C4F804632660D4F8002192B10022C4F8CB
:100E700000210E4A13F0010F4FF0010308BFC4F820
:100E800008330020C2F88031FFF7E6FD00232B7005
:100E9000C4E720BF40BF20BFE5E7C4F800112660CB
:100EA000F4E700BF0A0000200900002000E100E094
:100EB000F8B506460C464FF02002EFF3118382F39B
:100EC00011882C4A157865B183F311884FF080435F
:100ED000D3F8183413F4803F0CBF6FF043000020A8
:100EE000F8BD0127177083F311882846FFF7C4FD6A
:100EF0004FF080430221C3F80451D3F80423C3F810
:100F00000413C3F818459F60D3F8041171B3920716
:100F1000194F58BF02224FF000014FF00105C3F8EE
:100F200004114FF0000058BFC3F80823C7F88051E0
:100F3000FFF792FD4FF0804300211822C3F80823E9
:100F4000C3F80C11C3F8101114F00301BED1102026
:100F5000C3F83805C3F804233046C3F80453FFF739
:100F60004FFF0028B2D1C7F80051AFE720BF40BF04
:100F700020BFC9E70800002000E100E0F8B54FF00D
:100F800080430546D3F808E1D3F80423D3F80C4492
:100F9000D3F80071D3F80401D3F80C11D3F8106121
:100FA00002F00102BEF1000F03D04FF0000EC3F8B3
:100FB00008E127B14FF080430027C3F800713AB130
:100FC000E30341BF4FF080430122C3F808231A61B5
:100FD00020B14FF080430022C3F8042149B14FF003
:100FE00080440021C4F80C112846FFF7CFFE0123EE
:100FF000636176B14FF0804300210124C3F81011E2
:101000002846C3F80443FFF7FBFE10B9014BC3F8B1
:101010000041F8BD00E100E02DE9F0418378C4789B
:101020001E1DA3420A4406441FD8E41AE4B2A1429A
:101030003EBF641AE7B20C462344A1EB040128BF6B
:101040000027DBB2C9B23444A64209D18370437889
:10105000BB4282BF204B01221A600846BDE8F081E6
:1010600016F8015B02F8015DEEE70578ED1AEDB2C6
:10107000A9423FBF671AED19EFB20D4638BF5B18A2
:10108000A1EB050132BFDBB227460023C9B2964669
:1010900006EB050C664519D1521B0029D6D0002C51
:1010A000D4D08C428ABF0B462346641A00F1040652
:1010B000A1EB03018CBFE7B20027C9B2F418A64226
:1010C000C4D016F8015B02F8015DF8E716F8018B51
:1010D0000EF8018DDEE700BF00D0004030B5D0B182
:1010E000C27805788478531CDBB2AB4208BF00237A
:1010F000A34210D061B10A490244D1F80815117118
:10110000C3700133DBB29D4208BF0023A34205D068
:101110006FF00F0030BD6FF0360030BD002030BDE5
:1011200000D0004070B5846801221146204609F0C5
:10113000A9FD04F118000122002109F0A3FD0423F8
:1011400084F831300C23002584F83D300521114B03
:1011500084F830100D2684F8335084F8325084F827
:101160003C6084F83F5084F83E50D3F8042542F0A8
:101170000102C3F804250122C3F800513046C3F828
:1011800004231A602A46FFF799FC3046FFF764FCF7
:10119000284670BD00D0004038B5124BD3F800315E
:1011A000FBB18568012105F13C00FFF797FF10F1C5
:1011B000100F04460DD010F1370414BF0021012197
:1011C00005F13000FFF78AFF044605F1180009F029
:1011D00063FD044B00221034C3F800211CBF012220
:1011E0005A6038BD00D000402DE9F84385680F46AD
:1011F000144605F1180814B92046BDE8F883FF2C01
:10120000234628BFFF23E41ADEB2A4B205F1300959
:101210004FF0FF31284609F09FFD31463A464846D7
:10122000FFF7FAFE0646284609F036FD002EE2D00A
:101230004FF0FF31404609F08FFDE9E713460248C1
:101240000A461946FFF7E8BE48000020084BC3F8DD
:101250004005D3F80435C01A20F07F40054B023812
:10126000984282BF044B4FF40032C3F8002170470C
:1012700000100140FDFF7F0000E100E010B5124BBF
:10128000124CD3F804052268801A20F07F40B0F594
:10129000A37F11D90E49096840F24713B0FBF3F060
:1012A000884228BF084603FB002323F07F432360C6
:1012B000084B186009F078FD2068BDE8104000F286
:1012C0004710FFF7C3BF00BF0010014060000020BF
:1012D0005C00002028600020024B0022C3F840215F
:1012E000FFF7CCBF0010014046F23543984228BFBB
:1012F0001846054B1860054B1B6840F2471202FB6D
:101300000030FFF7A3BF00BF5C000020600000209A
:1013100008B5074B0022C3F84021064B4FF40032BA
:10132000C3F88021FFF7AAFF034B01221A6008BD12
:101330000010014000E100E05C00002070B518489A
:1013400009F07CF848B34368164D1B6801219847A3
:10135000154B00241C60154B01261E6040F24713FC
:10136000C5F80845C5F840354FF48033C5F8443317
:10137000C5F804330E4BC5F840414FF40032C3F8B2
:101380008021314622461120FFF798FB1120FFF7FC
:1013900063FBAE6020462E6070BD4FF0FF3070BD25
:1013A0009CB7000000100140600000205C0000209D
:1013B00000E100E030B50B4A0B48D2F80415D0E943
:1013C0000045D2F8043599420AD1084A40F2471341
:1013D00003FB1413106823F07F4300FB043030BD7F
:1013E0001946ECE700100140A83F00202C600020C7
:1013F0000378428813F0010305D10949897B082944
:1014000001D89F2A0AD98088824207D81F2A05D985
:10141000B0F5804F8CBF002001207047002070473E
:10142000E05D002000B5BFF35B8F50E8003F43EA6A
:10143000010240E8002EBEF1000FF6D1BFF35B8F32
:1014400018465DF804FB00B5BFF35B8F50E8003F22
:1014500003EA010240E8002EBEF1000FF6D1BFF30F
:101460005B8F18465DF804FB70B5064688790D461B
:1014700008F0AEFE0E4B834219D1284608F0AEFEAE
:10148000284608F0ABFE0B4C04EBC000436873B178
:10149000284608F0A3FE04F83060284608F09EFEB7
:1014A00004EBC000BDE87040406809F0F5BB70BDBA
:1014B000FC60002068000020074BBFF35B8F4209EF
:1014C00003EB820300F01F001B6FBFF35B8F43FA37
:1014D00000F000F001007047E05D00202DE9F047CA
:1014E000804689461348144D4FF0FF3108F004FF41
:1014F000044600F1080600213046002708F01BFFD3
:101500002775204608F06AFE05EBC000A0F80280AF
:10151000204608F063FE05EBC0000321476030461B
:1015200008F04CFF80F80290A0F800802046BDE84B
:10153000F08700BFFC6000206800002070B51546F1
:1015400086B00C4619B9FFF7C9FF044668B30122FB
:101550000021684609F096FB204608F03FFE144E35
:1015600006EBC000C0F804D0204608F023FF214657
:10157000104808F0E4FE42F21071684609F0ECFBF6
:10158000204608F02BFE16F8300030B1204608F057
:10159000E3FE6FF0040006B070BD0DB12C60FAE7F9
:1015A000204608F0D9FE2846F5E76FF03600F2E74E
:1015B00068000020945E002070B5154D062205F1EC
:1015C00008010646FEF7EFFF0446D8B1062142F2B5
:1015D0000500FFF783FF0446B0B10622314608300C
:1015E00008F0F2FE2146002242F20500FFF7A6FFB6
:1015F000044638B90622314605F10800FEF7E8FF37
:101600000123EB71204670BD6FF03604FAE700BF8E
:10161000E05D002007B50621684601F0DFFE40B915
:101620009DF80530684603F03F038DF80530FFF75D
:10163000C3FF03B05DF804FB38B50221054642F252
:101640000C00FFF74BFF044620B30221083008F0DE
:10165000B5FE012D014614D10A20FFF72DFF487079
:101660000D700022214642F20C00FFF767FF04468E
:1016700028B9012D08D180210848FFF7D3FE204664
:1016800038BD00234370EBE76FF080010348FFF79C
:10169000DAFEF4E76FF03604F1E700BF505E002099
:1016A0002DE9F8430C46202107469046FFF716FF28
:1016B000064600283CD02021083008F07FFE20227A
:1016C00000210546FEF7B0FF4FF00009C14506D1E5
:1016D000314638460022BDE8F843FFF72FBF627855
:1016E0002B78D11802311F2904F1080406DD304699
:1016F00008F032FE6FF01500BDE8F883E918501CC1
:101700004870981CC0B20133287055FA83F314F85E
:10171000081C5970013054F8041C2844FEF758FF87
:101720002B7814F8072C13442B7009F10109CDE72D
:101730006FF03600BDE8F88308B50820FFF7BCFE5F
:10174000014640B90720FFF7B7FE20B10846BDE8C3
:101750000840FFF771BF002008BD012310B5062126
:10176000044600F8013B01F039FE18B9A37963F093
:101770003F03A37110BD0000F0B587B004AA00219B
:1017800040F60340FFF7DAFE0446002840F04981A6
:10179000049B9B681B786BB9B64A1360B64BBFF3CA
:1017A0005B8F012253E8001F43E800200028F9D195
:1017B000BFF35B8F049808F0CFFD04AA002141F22B
:1017C0000300FFF7BBFE0446002840F02A81049B7B
:1017D000AA4D99680822013105F11600FEF7F8FEBE
:1017E000049808F0B9FD214604AA41F20100FFF770
:1017F000A5FE0446002840F01481049883685A78B6
:10180000AA73D9789A7842EA01222A821A79EA736D
:10181000197ADA7942EA01226A825A799B7942EA94
:101820000323AB8208F098FD214604AA41F2090087
:10183000FFF784FE0446002840F0F380049B99687B
:1018400006220131681CFEF7C3FE04982C7008F0D4
:1018500083FD214604AA41F20200FFF76FFE044611
:10186000002840F0DE80049B99684022013105F198
:101870001E00FEF7ADFE049808F06EFDAB7E580624
:1018800040F13F81214604AA42F20300FFF756FED1
:101890000446002840F0C580049B99680822013165
:1018A00005F17800FEF794FE049808F055FDAB7E34
:1018B000990640F19B8095F83A301A0700F1B48000
:1018C000082142F20100FFF709FE0446002800F05B
:1018D00094800821084408F071FD95F8403003F029
:1018E0000603062B14BF02234FF4C17300220370BA
:1018F0001B0A43708270C270027142718271C271A0
:10190000214642F20100FFF719FE0446002840F08C
:101910008880082140F60140FFF7E0FD06460028D8
:101920006BD00821084408F049FD8023437002274A
:10193000202304708470047144718471C770C37172
:101940002246314640F60140FFF7F8FD04460028E4
:1019500067D1014604AA4FF60140FFF7EFFD20BB17
:10196000049808F0F9FC04AA21464FF60240FFF75C
:10197000E5FDD0B9049B424899683A460131FEF72B
:1019800027FE049808F0E8FC04AA21464FF603401D
:10199000FFF7D4FD48B9049B3A48996801221144E5
:1019A000FEF716FE049808F0D7FC0023072202A9D0
:1019B00032480293CDF80B30FEF7F5FD002848D1F0
:1019C000314E3368002B63D195F86030DB077AD451
:1019D0002A48FFF7C2FE044618BB3368002B5FD0CD
:1019E0005E68264A07230146B04759E0022140F6C7
:1019F0006D40FFF773FD064610B96FF0360410E036
:101A00000221083008F0DAFC0123447003702246FA
:101A1000314640F66D40FFF791FD044600283FF443
:101A20004AAF204607B0F0BD04AA002142F21C00D4
:101A3000FFF784FD04460028F3D10498836853F827
:101A4000012F5B68C5F88430C5F8802008F084FC5D
:101A500036E70E4B18689A8804909B79ADF81420ED
:101A600004A9072205488DF81630FEF79CFD0028D2
:101A7000A6D0D6E7C8000020505E0020E05D002020
:101A80003F5E00203E5E0020D82E002008B70000F8
:101A900000211C681C4A07230846A047072893D149
:101AA0002B78012B2AD1AB7903F0C003C02B25D1B1
:101AB0001648FFF781FD04460028B2D104211448DE
:101AC000FFF7B0FCADE701AA00214FF60940FFF790
:101AD00035FD00287FF47CAF019881684B7853B1C5
:101AE00001230622023109482B70FEF771FD01988F
:101AF00008F032FCD4E708F02FFC69E76FF015041A
:101B00008FE76FF012048CE7E05D0020E15D0020BC
:101B1000505E002010B5FFF72FFE044630B90221B9
:101B20000648FFF77FFC2046FFF706FE044B1B68C4
:101B30001BB12046BDE81040184710BD505E002084
:101B4000C4000020024BD3F8C430DB68184700BF44
:101B5000E05D00202DE9F041264C274E04F1B40849
:101B6000737B25486FF307134FF0FF320121737326
:101B700009F0D8FCC0BB737B1B09042B2CD1377B2D
:101B800057BB3946404608F0BDFB054660B34FF0F1
:101B9000FF311A4809F0E0F8D4F8A000F8B9284657
:101BA00008F008FCC4F8A0002846FFF7CBFF98B166
:101BB000124809F071F8284608F010FB00211F2098
:101BC000FFF752FCD4F8A00008F0C6FB002328461B
:101BD000C4F8A03008F0C0FB08F0BAFFC0E708F076
:101BE000BBFBC4F8A070DAE7404080F311884FF0E7
:101BF000040002DFE05D0020A85E0020685E002097
:101C00002DE9F04F067D012E87B0044640F0058196
:101C100087683B780E3B012B00F20481404080F343
:101C200011884FF0040002DFA66896486FF010019B
:101C3000FFF709FC337843B9711C40229248FEF744
:101C4000C7FC08218F48FFF7EDFB904B1D68771C00
:101C500035B9204608F080FB002007B0BDE8F08FC2
:101C600032782B68002A0CBF3846002098476D68F0
:101C7000EEE7874DA0682A68002AEAD0037823B9E6
:101C80000130904700232B60E3E70020F9E7284666
:101C900008F0B3FBDFF810A20390039B002BD8D011
:101CA000A6680921284608F0A0FB337A3146334460
:101CB000072293F809B011F8013F023B012B04A859
:101CC0002CD8FEF785FC9DF81030023B8DF81030C3
:101CD000DAF80030B3B1284608F097FB337AB4F84D
:101CE0000C80A3813278009481462B464FFA8BF109
:101CF00004A8DAF80070B8472369A4F80C8013FA36
:101D000089F3A360317A2846013108F06EFB039B0A
:101D100003F1FF385FFA88F30393BEE7FEF758FC40
:101D2000D6E7284608F069FB5A4BDFF87C915A4EFB
:101D3000DFF870A118709B469BF800305A1E8BF894
:101D40000020002B85D0A7681821284608F04DFBFD
:101D50000221284608F049FBFB7D39463B44072217
:101D600093F8168011F8023F023B012B04A81FD8FC
:101D7000FEF72EFC9DF81030023B8DF81030D9F89C
:101D80000030FA7DA281002BD6D07B78012B12D1B6
:101D90003088A1685044FEF71BFCA289A1683F4827
:101DA000FEF716FC3388A289023B13443380C3E755
:101DB000FEF70EFCE3E7022B4FFA88F823D13088B8
:101DC000A1685044FEF704FCA289A1683348FEF7DD
:101DD000FFFB3288A3893249023A1A44023B92B28D
:101DE0000B8028462F49328008F0EEFAF97D28460C
:101DF00008F0FBFA3A780094D9F800702B46414677
:101E000004A8B84798E7032B96D1002140F2DC5292
:101E100050463180FEF708FCECE708F09DFA6FF0C1
:101E200015001AE700F108050221284608F0DDFA3E
:101E30003B783E2B7FF40DAFA7683146284608F06B
:101E4000D4FA3B78023B0B2B3FF603AF01A252F8CA
:101E500023F000BF8F1C0000531C0000531C000027
:101E6000531C0000531C0000531C0000291C0000E0
:101E7000731C0000531C0000531C0000531C000086
:101E8000231D0000505E00207E000020C0000020C6
:101E900078000020D62E00207C000020DC2E0020C0
:101EA00064000020F82F0020C8000020F8B5037D52
:101EB0008668012B044605D0404080F311884FF01E
:101EC000040002DF8389012BF6D933780E3B012B06
:101ED000F2D800F108050221284608F086FA337886
:101EE0000E2B05D00F2B17D0204608F035FAE3E76C
:101EF000A368032128461E7808F077FAA3682146D4
:101F00001878FFF7B1FA16B10A4808F0C5FE204666
:101F100008F022FA0020F8BDA66804217778284648
:101F200008F063FA21463078FFF79EFA002FEED0D2
:101F3000EAE700BF685E0020084AD2F8C4303BB927
:101F4000816841B1C16831B1C2F8C4001846704718
:101F50006FF0440070476FF015007047E05D00209F
:101F600070B5244DD5F8C43086B00646002B3BD062
:101F7000012105F17000FFF755FA10F0010036D18C
:101F80001D4B1E491E606FF00803059004900393DB
:101F90000290019000901A4B1A484FF4207209F0F9
:101FA0009DF8D5F8C4309B689847044660B976B967
:101FB000FFF7E2FB044638B9022105F17000FFF794
:101FC00031FA2046FFF7B8FB204606B070BD01216C
:101FD00005F16C00FFF726FAC307F5D405F164019B
:101FE000094808F0E6FBEFE76FF01204ECE76FF04A
:101FF0004404E9E7E05D0020C40000202840002000
:10200000551B0000CC000020B03F00202DE9F04718
:102010000D46FF21074690469A46FFF75FFA814634
:1020200000283DD0FF21083008F0C8F90446FF22FF
:1020300000210026FEF7F8FAE67084F801A0464574
:1020400006D1494638460022BDE8F047FFF776BA88
:102050006A78E378D1180231FF2905F1080506DD19
:10206000484608F079F96FF01500BDE8F087E118EF
:10207000501C0871981CC0B20133E07054FA83F30D
:1020800015F8081C1971043055F8041C2044FEF79B
:102090009FFAE37815F8072C1344E3700136CEE776
:1020A0006FF03600BDE8F0872DE9F3470027F624EE
:1020B0008046B0FBF4F48946E4B23D464FF0FF0A97
:1020C000A54203DD002002B0BDE8F0874646F62EAB
:1020D00028BFF626CDB9002C14BF0123032309EB3A
:1020E000070201926946012242F237008DF800A0F2
:1020F0008DF80160FFF78AFF0028E4D13744A8EB90
:1021000006061FFA86F80135DAE7A5420CBF02235E
:102110000023E4E72DE9F04188B0054698460F9E7C
:10212000FFF766F928B96FF01504204608B0BDE83E
:10213000F0810520FFF7C0F90446002840F0A18097
:102140000146172202A8FEF76FFA6B88ADF80B3034
:10215000AB88ADF80D3001238DF80F308DF81A30B3
:10216000494B8DF80840186800909B88ADF8043002
:102170006946022706220DF112008DF81D708DF8B8
:102180001C408DF81B40FEF723FA2B78D9071AD58F
:102190003846FFF791F910B13C48FFF70DFA3C4B78
:1021A0001B788DF8103003238DF8093000238DF84B
:1021B0000A30172142F23600FFF790F90446C8B9F9
:1021C0006FF03604B1E7A86888B1437913F0C00F07
:1021D000A9D1FFF7F1F904460028A6D101238DF813
:1021E000103040238DF809308DF80A00E1E7FFF741
:1021F00011FAF0E7172202A9083008F0E5F82146A5
:10220000002242F23600FFF799F9044600288CD1EB
:102210004146BDF83800FFF747FF0446002884D147
:102220002EBB2B78DA0722D4012142F23900FFF7C6
:1022300055F904460028C3D00121083008F0CDF834
:102240002146002242F23900FFF778F904460028BF
:102250007FF46BAF20210F48FFF7E4F82B789B0742
:102260003FF563AF40210B48FFF7DCF85DE7109ABC
:10227000314642F20900FFF713FA04460028D3D092
:1022800053E76FF0440450E70FB70000E15D002012
:10229000E05D0020505E002010B56FF0400119484D
:1022A000FFF7D1F80520FFF707F910B90024204601
:1022B00010BD012142F20A00FFF710F90446F0B107
:1022C0000021083008F089F82146002242F20A0075
:1022D000FFF734F904460028E9D16FF020010948DE
:1022E000FFF7B1F80720FFF7E7F80028DED0092054
:1022F000FFF7E2F80028D9D0FFF78CF9D7E76FF0A5
:102300003604D4E7505E002038B50546054807F08E
:10231000F3FF044620B10021083008F00CF82575C1
:10232000204638BD1C61002010B501464FF0200347
:10233000EFF3118083F311880B4A0023D2F8A040F9
:10234000C2F8A03080F3118824B90120BDE8104004
:10235000FFF7DABF012204F108002275A3811946B4
:1023600007F0E9FF204610BDE05D0020F7B51860DA
:10237000C31D054623F00303501E0E4680B21446CB
:102380001A800021042206FB0050FEF74DF9023CA2
:10239000A4B24FF6FF77BC4201D103B0F0BD04FBFD
:1023A00006602B180422801B0DEB02012844013C1F
:1023B0000193A4B2FEF70CF9EDE773B50568064684
:1023C00095B1EB1D23F0030304221C8829460DEB75
:1023D0000200FEF7FDF8019B013CA4B21BB1DA1D1F
:1023E00022F0030214803360284602B070BD70B53D
:1023F0000C6806460D461CB1E31D23F003031C8840
:10240000042229463046FEF7E3F8F21D22F00302CB
:10241000631C13802E6070BD02FB01007047401AE0
:1024200080B2B0FBF2F0704710B5114401384FF69E
:10243000FF73013A92B29A4200D110BD11F8014DDA
:1024400000F8014FF5E710600860704710B5146898
:10245000206014686160106010BD884203D01AB11A
:10246000436813607047002070470B68834209D0AF
:1024700022B1586810601A680A6001E0002BFAD196
:10248000184670470023FBE72DE9F047114FDFF8AE
:1024900048900426013EF6B2FF2E19D033B24FEA1F
:1024A000830803EB43031D0104244FF00C0A0AE0E8
:1024B0001AFB04510A1D04EB08003A44394409EBA5
:1024C000C000FFF7C0FF013CE4B2FF2CF0D1E1E710
:1024D000BDE8F087B401002034010020F0B4124BB5
:1024E00005460F460C26302472B1614306FB0014EA
:1024F0002344597A187A814204BF0131197228465F
:102500003946F0BC07F0D0BD4C4306FB00442344E1
:102510009C7ADA7AA24204D101329A72F0BC07F0B6
:10252000F1BDF0BC704700BFB4010020F8B505460E
:102530000E461C468AB1012362782078801A10F07A
:10254000030729D003B3012F39D00132D2B2227050
:102550003146284607F0D6FD1CE007F0C1FD0028F3
:10256000E9D03146284607F0ADFD0028E3D03023FE
:102570000C22734302FB0533124A1A44937AD27A2F
:102580009B1A18BF0123D7E70232D2B22270E36848
:10259000A06898470020F8BD002BF8D00132D2B2D5
:1025A00022700423302212FB06320C2313FB052376
:1025B000044A60681A442146FFF748FFC8E73846D6
:1025C000F8BD00BFB40100202DE9F04F00EB40033F
:1025D00089B01B014FF00008434E049305460424C4
:1025E000CDF80480013CE4B2FF2C0BD1019B002B01
:1025F00076D0B8F1000F73D142462946284607F03D
:1026000053FD6DE00DF1200B00230C274BF8043D2A
:102610004FF0300907FB04F309FB053031185A4627
:10262000496830580293FFF718FF049B17FB0437E3
:10263000F31982460393BAF1000F19D130220C230B
:102640006A4303FB04223244917AD07A88421EBF47
:10265000D1720122019230226A4303FB04233344E6
:102660001A7A597A91421CBF5A724FF00108B9E7A1
:10267000079B1F785A78BF1A07F00307012F04D170
:10268000013A5A709868DA689047079A1378527836
:10269000DBB29A1A02F00302012A05930DD0029BC5
:1026A000039909FB0530304400224068FFF7DDFE46
:1026B000079A059BC2F804A05370029B09FB0533DF
:1026C000F1185A464968F058FFF7C7FE012F8246B5
:1026D000B1D10CB90028B1D02946284607F012FD27
:1026E00009B0BDE8F08F00BFB401002010B5421E54
:1026F00000200139C9B2FF2900D110BD12F8013FF5
:10270000002BF6D05C1E01302340C0B2F8E7F0B5D4
:10271000437F05681A460024FF2A01D10020F0BD3E
:1027200002EB82078A4205EBC70615F8377004D022
:10273000B3681C4413463A46EEE7934200D147770C
:102740001BB203EB83033278B06805F8332033788B
:10275000FF2B06D003EB830305EBC3039A68024407
:102760009A602044F0BD30B5551A15F4000F836807
:10277000446909D125F07F421A44A2420ED9121BA6
:1027800000248260446130BD8A1A22F07F42934265
:1027900001D99A1AF1E72244D41A0022A41A00227D
:1027A000EFE7034600221A709A6A596208460AB196
:1027B000D96A104770472DE9F047857F0123044609
:1027C000C377002D4CD1437FFF2B02D1C577BDE8E5
:1027D000F08707F011F86769667FD4F80080C71B9F
:1027E00027F07F47FF2E06D006EB860608EBC601D2
:1027F0008B689F4218D2A27AE37A934205D10133C3
:10280000DBB2022B08BF0023E372E37A04EB8303FD
:102810000122DD600023656AE377AC46234604218C
:102820000320BDE8F0476047FF1A1D448A784B78C3
:1028300018F836609B1ADBB2012BD3D1D1F80C907B
:10284000013A8A70B9F1000FCCD048696369CA8B2C
:10285000281A184420F07F400B69496AC847C1E72D
:10286000BDE8F0872DE9F04FC27F93B08346002A80
:1028700040F0B583436905930121837A8177C07A5B
:10288000984200F08F800B44DBB2022B08BF00237C
:102890008BF80A300BEB83030191D3F80C80059B76
:1028A000434423F07F43CBF814309BF81D3003934F
:1028B000DBF800300493DBF804300B939BF809300D
:1028C000013BDBB20293002307934FF0FF0A029B08
:1028D000FF2B6AD19BF81D30039A9B1A18BF012366
:1028E0000293019BE3B1DBF8003004934FF0000941
:1028F0009BF81D60FF2E0CD037B2049B07EB8707B7
:1029000003EBC704A568454540F23681A5EB0805F1
:10291000A560029B019A0399B14218BF1346029326
:10292000DBF800300893DBF8043010939BF8093093
:10293000013BDBB20193019BFF2B40F070819BF8C0
:102940001D30039A9342079B40F040835BB99BF88C
:102950000940DBF804300193013CE4B24FF0000879
:10296000FF2C40F0A08200238BF81E30029B4BB15D
:102970009BF81D30FF2B40F0E98206F025FF08B9D7
:10298000CBF818009BF81F30002B00F02883DBF8F1
:1029900024405B46012203210420A44613B0BDE875
:1029A000F04F6047019290467FE70B9B029A03EB42
:1029B000C2077B680693F978BE788E4200F0D78014
:1029C000069B387806EB460212019D18731CDBB299
:1029D000984208BF0023BB70069B9A5C032AEBD980
:1029E000052A17D8697801EB81030A930A98049B9A
:1029F00003EBC0046378A0781B1A13F0FF0309D01F
:102A0000042A0CD16A6852B9AA6842B9EA6832F05D
:102A10007F4204D101212846FFF7C3FECBE7012BFB
:102A200040F09B805846FFF772FE2B78A060042B85
:102A3000064640F08480DBF81430089306F0DCFE94
:102A4000089B0990C31A23F07F4343449E420246E9
:102A50009EBF6269921B9B18626896BF6361F31AFE
:102A600000238AB1A98979B101F1FF3E1FFA8EFED8
:102A7000A5F80CE09A422BD3DFF82493B4F81EC0DB
:102A8000E64547D8A4F81CE0AA8808991344A36037
:102A9000EA88636913446361099A2046FFF763FE7D
:102AA000A2692B891344A3616A8993428CBF9B1A44
:102AB0000023A361AB7B03B1E370049B0A9A03F884
:102AC00032A0637895F801A0013363700021A2E77A
:102AD000B4F81EC0E645CFD2616AAF4EAF488E193A
:102AE000864281BF01F1E87101F5D43101F5A5718C
:102AF0006162666A216A8CBF4FF001094FF00009DC
:102B0000761A91440CF1FF3C6662A3EB0903A4F82A
:102B10001EC0AFE7666A216AA0480E449E4971183C
:102B200081428EBF002101214E4411440CF1010C61
:102B30008CBF666266620B44A4F81EC09EE7A37851
:102B400063706B789BF81C209A4201BFFF238BF8BF
:102B50001C300023CBF81830B8E704215B46DBF8C3
:102B6000244001220846A0470123BE700793029B20
:102B7000013BDBB20293AAE6DBF818309D4229BF85
:102B8000FF235B1B8BF81C300023CBF81830A369A4
:102B9000A9441BB18BF81C60CBF818300022049BB1
:102BA000A26013F837308BF81D30D4F804E0BEF182
:102BB000000F30D0A08BDFF8E4C1636A216A0B44B8
:102BC0007549591861459FBFA3F1E873A3F5D43344
:102BD000A3F5A573636292BF019B636200237344F4
:102BE00010F1FF301A44E8D2059BA260DBF8141004
:102BF00003EB09022046FFF7B6FDA38BE383002316
:102C0000E370049B03F837A0637801336370A8EB8B
:102C10000508B2466CE6A37863705646F7E7109B4A
:102C2000019A03EBC20304935B680A93049B93F835
:102C30000190BAF1FF0F00F08E800FFA8AF303EBD8
:102C40008303089AD04612F833A002EBC304002590
:102C5000DBF800300B93FF23A28B2370E38B9342AE
:102C600086BF9B1A9BB200230C930FFA88F303EBE9
:102C70008303DB001193119BDBF80020DBF81800C5
:102C8000059002EB030EFF209BF81D30DEF80810C4
:102C900009930690FF2B07D003EB830C02EBCC06C5
:102CA000B068814200F2A980DEF818000D9001EBB7
:102CB000000C1E46FF2E40F0AE800D9830B10598F6
:102CC0008142C0F0BF80FF2E40F085810998CEF888
:102CD0000810834218BFBDF924008EF8003016BFDB
:102CE00000EB80008BF81D8002F83080FF2B06D0AF
:102CF00003EB830302EBC3039A68511A9960A3782C
:102D0000013363700021002D93D02846FFF749FD61
:102D10008FE709EB49030A9A1B01D51809F1010253
:102D20005FFA82F9049A12784A4508BF4FF0000909
:102D30000A9AD35C032B0ED195F80180089B08EB0F
:102D4000880403EBC4046278A3789A4209D0012175
:102D50002846FFF726FD049B9B784B45D9D1019B64
:102D6000E6E5EB68DBF8141063602B692362AB8A3D
:102D7000A383AB69A361EB69E3602B6A236100263F
:102D8000AB68A36066616A682046FFF7ECFC01232C
:102D90006662E683E3705BE75A2B17FF592B177FB8
:102DA000B6562EFE606800287BD0626A216A8D4B81
:102DB0000A448D49D3188B429CBFA2F1E872A2F558
:102DC000D432A3688BBF6262A2F5A5720022626250
:102DD000034498BF01221344E28BA3600132E283D3
:102DE000626993424FF0000189BF9B1AD31AA36016
:102DF00061619CBF6361A1603DE7B669091A46B98C
:102E0000059FB84200D23E1A0993059612F83C304D
:102E100040E70693F8E730B200EB800002EBC00712
:102E20000E97BF680F9767450AD20E9FBF69002FA4
:102E30007FF443AF0F9EACEB060C12F8306039E71D
:102E4000FF263AE7069B98453FF459AF069BFF2BB8
:102E5000A8D01E4633B203EB83030593059A0B9B60
:102E600003EBC207FB8BBA8B934288BF9B1A7A682D
:102E70008CBF9BB20023002A94D00C9A934291D825
:102E8000FA78E3789A428DD231465846FFF73FFCF4
:102E9000BB787B70059A0B9BB86003F832A0B246F2
:102EA000E9E601212FE7019B03EBC4056E686B780F
:102EB000EA789A4202D1013CE4B251E503EB4303C4
:102EC0001B01F218F35C012B25D0022B2AD1D2F87A
:102ED00004C093689CF80000D2F80C90DBF800E086
:102EE000FF2804D01968DBF81470B94223D0DBF84E
:102EF00014009BF81D1018600023FF2907D001EB78
:102F0000810A0EEBCA0087698068DFB103448CF840
:102F10000010C9F80030936AC2F8248013B1D16A56
:102F2000002098476B782A780133DBB29A4208BFB9
:102F300000236B70BBE700EB8000D9F800301EF86F
:102F40003010DAE703441EF83A10D6E7039BFF2B54
:102F500007D106F051FC044606F028FC08B9CBF86E
:102F600014409BF81D30DBF8002003EB830302EBD9
:102F7000C3030A269D6806F03FFCDBF81440031BE0
:102F800023F07F430333AB422CBFE418641924F0D1
:102F90007F440746DBF828302046984706F02CFC93
:102FA000C01B20F07F40E41B033024F07F44A0428C
:102FB0007FF6E8AC013EDED1404080F311884FF04F
:102FC000040002DF00238BF81E30D1E4002BF9D17E
:102FD00001230293BBE4B0457FF43CAF8FE613B00E
:102FE000BDE8F08F5A2B17FF592B177FF0B51A4DFC
:102FF000059F9DF818402C26464305EB060EAA5166
:103000008EF8081007998EF80930CEF80470013B4D
:10301000DBB2FF2B11D1ECB92C2202FB0052089934
:103020001162099951620A999162537713779461F9
:1030300054619472D4722046F0BD1AB207EBC206F6
:10304000716017F8322002EB4206A41A01EB061158
:10305000E4B2DCE70120F0BD74020020074A2C2115
:1030600000FB012310B45C6A2CB1A44601220321A9
:10307000022010BC604710BC704700BF74020020E3
:103080002DE9F047254F4FF02C08814608FB0070D2
:103090000FFA81FCD0F804E00EEBCC061EF83CE001
:1030A000F478651CEDB2AE4598BF002596F801E0B6
:1030B000AE452FD0D6F804C004EB44044FEA041EFA
:1030C0000CEB0E044FF0030A0CF80EA06360089B93
:1030D000A360099BE3600A9B23610C9BA361BDF87D
:1030E0002C30A3820D9BE3610E9B2362022363625B
:1030F0000F9BA362109B6270E362F570456A036ADE
:103100000846984709FB087300220421A847606A13
:10311000BDE8F0870120BDE8F08700BF7402002001
:103120002DE9F047DFF890804FF02C0A0AFB008E63
:103130000FB2DEF80450814605EBC70015F8375092
:10314000C478661CF6B2B54298BF00264578B542F1
:103150002FD0D0F804C004EB440425010CEB050487
:1031600004270CF80570A380BDF82030E380BDF87B
:1031700024302381BDF828306381BDF82C30A38131
:103180009DF83030A373022363620D9BA3620E9BF4
:103190006270E362C670DEF82030DEF82450084624
:1031A000984709FB0A8300223946A847606ABDE8B0
:1031B000F0870120BDE8F087740200202DE9F04778
:1031C000DFF86C904FF02C0A0AFB009E8046DEF878
:1031D00004000EB200EBC60710F83600FC78651C40
:1031E000EDB2A84298BF00257878A8421DD0786833
:1031F00004EB4404240106194FF0050C00F804C048
:103200007270B3620222089B7262F362FD70DEF894
:103210002030DEF824400846984708FB0A93002235
:103220000421A047706ABDE8F0870120BDE8F0875F
:10323000740200202DE9F047DFF878804FF02C0A67
:1032400081460AFB00800FFA81FE456805EBCE0738
:1032500015F83E50FC78661CF6B2B54298BF0026C1
:103260007D78B54223D0D7F804C004EB440425018F
:103270000CEB05044FF0020E0CF805E0A360089B70
:10328000E360099BA362FF250A9B62606570C4F836
:1032900024E0E362FE70456A036A0846984709FB2A
:1032A0000A8300220421A847606ABDE8F087012054
:1032B000BDE8F087740200202DE9F047DFF86C903C
:1032C0004FF02C0A0AFB009E8046DEF804000EB286
:1032D00000EBC60710F83600FC78651CEDB2A8427A
:1032E00098BF00257878A8421DD0786804EB440484
:1032F000240106194FF0010C00F804C0FF20707083
:1033000002207062B262F362FD70DEF82030DEF8F7
:1033100024400846984708FB0A9300220421A0474E
:10332000706ABDE8F0870120BDE8F08774020020D4
:103330002DE9F041084C2C2505FB004306465F6A49
:103340001B6A0846984706FB0543BC460022042139
:10335000BDE8F041604700BF7402002006F04CBA9F
:10336000401A20F07F40704708B50346012B0846FD
:103370000ED833B119B106220649FDF729F90548DF
:1033800008BD19B106220449FDF722F9024808BD1B
:10339000002008BDD2020020CC02002070B50646F5
:1033A0000D4604F021FE044610B10C24204670BDE9
:1033B00004F030FE10F0060FF7D1062229461EB1A8
:1033C0000248FDF705F9F1E70148FAE7D2020020CB
:1033D000CC020020002303700B707047F7B507463E
:1033E0000E460C46351B3D448CB1FDF7A7FC032C63
:1033F000019007D904220DEB02012846FDF7E8F8F9
:10340000043CEFE7224601A92846FDF7E1F8002039
:1034100003B0F0BD08B50248FEF78EFD002008BDE0
:10342000E4B7000010B5838904465BB1037D4BB956
:1034300000F042FA08B1FEF739FD204606F08CFF95
:10344000002010BD6FF0150010BD000073B51C4DBD
:1034500000264FF0FF31284607F0CFF9044618B395
:1034600000F0DEFD0228019421D801280EBF0021C2
:103470004FF0FF310120FEF747FF044618B1014627
:10348000019800F041FD019B0021D88804F088FEDE
:1034900002A850F8043D1E6004F022FE24B1A38966
:1034A000204653B1FEF7ACFB07F052FBD1E740409A
:1034B00080F311884FF0040002DF06F04DFFF3E7C0
:1034C000EC60002037B50C4C0C4D0DF1020101A849
:1034D00004F0CEFD0028F8D1019B33B105F092FA3B
:1034E0000199284607F065F9EFE74FF0FF312046D4
:1034F00007F032FCE9E700BFD4600020EC60002058
:1035000010B5144886B005F021FB0446F8B900F068
:10351000A7FD6FF0090303934FF4E0720E4B0F49C0
:10352000059404940294019400940D4807F0D6FD8C
:103530006FF007030393059404940294019400949C
:10354000084B094909484FF4806207F0C7FD20463F
:1035500006B010BDD4600020C5340000A044002097
:103560003C3600204D34000060460020D435002059
:10357000C0F307230870000C8870000A4B70C870F5
:10358000704738B508300D460221144606F016FF84
:103590000570447038BD000038B504464FF0FF3068
:1035A0000D46FEF7C1FEEA1C2060D2B20E21FFF7E5
:1035B000E8FF20680321083006F000FF01230370B4
:1035C000054B1B88A0F80130206829460830BDE86B
:1035D000384006F0F3BE00BFD802002070B50446A4
:1035E000154601320E460834D2B23E21FFF7C9FF1C
:1035F0000121204606F0E2FE067029462046BDE87D
:10360000704006F0DBBE0000F7B501238DF80130F5
:1036100003238DF80230FF238DF803308DF8053039
:1036200002238DF80630254B0746104604228DF8FC
:103630000420D3E90023002203F0005300241343A5
:103640008DF8004038D01E4BD3E90023002302F050
:103650000202134330D03B7803F00F03012B7B7839
:103660001CBF9C1FE4B2194404F10B028E7AD2B243
:103670000221FFF7B3FF012303703B7802AA03F096
:103680000F031344394613F8083C437011F8023B0A
:103690000546C3F38013837006220330FCF798FFBE
:1036A0000A3505F8014C764276B2224607F1080148
:1036B0002846FCF78DFF2E5503B0F0BDC05E0020FC
:1036C000C85E002070B504461846134B1646D3E971
:1036D0000023002203F0005313430D461BD00F4B71
:1036E000D3E90023002302F00802134313D00B2276
:1036F0000421FFF773FF08220470A0F80160033073
:1037000024B9291DBDE87040FCF762BF0021BDE867
:103710007040FCF789BF70BDC05E0020C85E00200D
:103720001FB5032807D8DFE800F0020A0C0E07498E
:1037300001A8FCF721FF002005B05DF804FB044957
:10374000F6E70449F4E70449F2E700BFFFB70000D9
:1037500006B800000DB8000017B800002DE9F04FC2
:103760000378154603F00F02072A85B0064640F09D
:103770008D804278002A00F089808078800675D09C
:103780001144341D8A7A0092F278D7070FD5C3F31B
:103790008013214606220DF109008DF80830FCF750
:1037A00017FF9DF8080006F10A04FFF7B9FFF27849
:1037B000900748BF063412F008095ED067784FEAD8
:1037C000171A07F0F007402F53D0A7F120014F42FE
:1037D0004F414FF00009A346023412F010031CBF02
:1037E000012303345206B2780193C2F305017278C3
:1037F000A2EB0102D2B202F1FF3802F11802D2B2FA
:1038000028464FF00D0148BF0134FFF7E7FE0122C3
:103810005FFA88F805460270019BB9F1000F3FD0AE
:10382000CBB38270F378DB0708D59DF80830EB70D6
:1038300006220DF10901281DFCF7CAFE07236B7053
:1038400085F80CA09BF8013085F8188003F0F00390
:1038500005F11906402B4246214630460FD1FCF7B0
:10386000B7FE424621461148FCF7B2FE05B0BDE85E
:10387000F08F4FF001090027ADE74F46ADE7FCF7A9
:10388000A7FE009B5B4206F80830EFE72A46304669
:10389000FFF7BAFEEAE7002FC4D10223AB70C1E7FD
:1038A000002FBFD0002BBDD00323F7E7A4360020A4
:1038B0000346006859687047F0B5818997B00025C4
:1038C000022904460B9502D8002017B0F0BD83688A
:1038D000C54E1A7858789B7842EA00228B42328093
:1038E000F2D8032104F1080006F07FFD3388C3F30A
:1038F00009029B0A042B63D007D8032B24D0012193
:103900000BA8FFF749FE012308E2082B00F0E58031
:103910003F2BF4D1013A092AF1D801A353F822F040
:103920002B3D0000593D0000813D0000FF380000A4
:10393000FF380000C53D0000FF380000973D000043
:10394000CF3D00003B3E0000032A14D008D8012AD6
:10395000D5D1A068FFF7ACFFA44BC3E9000103E099
:103960002D2A17D0632ACAD101210BA8FFF714FE14
:1039700005700B98A9E79D4B4FF0FF3041F6FF71A2
:10398000C3E900019A4B1F200021C3E9000104F0A4
:10399000CBFAE9E7A36804210BA81D889F78FFF7FD
:1039A000FBFDAEB20446C21C3946304604F056FB5D
:1039B00000280CBF002302232370A4F80150D8E78D
:1039C000013A082A9BD801A353F822F0F1390000EC
:1039D0001B3A0000A73A0000FF380000FF38000043
:1039E000FF380000FF380000FF380000C33A000035
:1039F00009210BA8FFF7D0FD002303708370C3706B
:103A00006FF00E0343710523092283714FF0FF33DA
:103A100042700271C3710372ABE741210BA8FFF73B
:103A2000BBFD00210446402200F8011BFCF7FCFD11
:103A3000E378207FA17EE27E63F07F03E370A379C9
:103A400063F03F03A371E37A43F00403E372E37B83
:103A500043F02803E373237C43F002032374E37DE4
:103A600043F00403E37594F8253063F0110384F800
:103A7000253094F8263060F03C0043F02003207796
:103A800084F82630607F94F8273040F0080061F019
:103A9000080162F03C0263F07F036077A176E27672
:103AA00084F8273065E709210BA8FFF775FD002191
:103AB0000446082200F8011BFCF7B6FD6023637181
:103AC00057E707210BA8FFF767FD0146002301F820
:103AD000013B1846FFF748FC4BE7102A00F0A9808D
:103AE00047D8062A00F0D98022D8022A00F0828026
:103AF0000ED8012A7FF403AFA068FFF7D9FE3C4B34
:103B0000C3E9000101210BA8FFF746FD002305E1F1
:103B1000032A7CD0052A7FF4F2AEA1680120FFF7CA
:103B20003DFC044601210BA8FFF736FD047020E799
:103B3000092A00F0E0800BD8072A00F07681082AD5
:103B40007FF4DDAEA368591C187805F0E5FAD9E7D3
:103B50000A2A00F0D6800F2A7FF4D1AE02210BA8EA
:103B6000FFF71AFD00230370044605F06FFD607037
:103B7000FFE61C2A00F0818012D8122A66D061D399
:103B8000172A67D0182A7FF4BAAE09210BA8FFF7CD
:103B900003FD002300F8013B0821FFF71FFCE8E6C6
:103BA000382A00F0A8800DD8362A00F08480372A01
:103BB0007FF4A5AEA06883784278011DC07805F037
:103BC0001BFB9FE7392A00F0AB804B2A7FF497AEAE
:103BD00003210BA8FFF7E0FC0146002301F8023B9C
:103BE0000130FFF7F7FBC4E6D8020020C05E0020DA
:103BF000C85E002004210BA8FFF7CEFC0023037051
:103C00006FF0040283700A234270C370B1E6092189
:103C10000BA8FFF7C1FC00210446082200F8011B95
:103C2000FCF702FD0C2363704023A3700123E370B3
:103C30009FE601210BA8FFF7AFFC044605F008FD45
:103C4000207096E6A06805F019FD6AE7A06805F007
:103C50004DFD66E7A06800230CAA00F1100105F0F5
:103C6000FFFD11210BA8FFF797FC002300F8013B93
:103C700010220CA9FCF7ACFC7BE609210BA8FFF78E
:103C80008BFC0146024601F8015B0320FFF770FC44
:103C90002846511DFFF76CFC6BE6A468A57BA37951
:103CA0006279217920880295657B0195073400941B
:103CB00004F0D6FF35E7A4680025B4F80110237A94
:103CC000B4F8032020780995667D0896267D07962E
:103CD000E67C0696A67C05960495257C0395E579F9
:103CE000029504F10A050195647A009405F038F80C
:103CF0000221044617E7A368591C187805F0B2FBA7
:103D000000E7A368187805F0EFFB044601210BA833
:103D1000FFF742FC002C0CBF00230C23037028E6A5
:103D2000A368187805F024FCEFE70D210BA8FFF736
:103D300033FC02224270C270012282710B220023E6
:103D4000C271632203708370037143710372427204
:103D50008372C37203730CE641210BA8FFF71CFCAE
:103D600000210446402200F8011BFCF75DFC63784B
:103D700063F058036370A37843F00303A370F8E57E
:103D800009210BA8FFF708FC002100F8011B0822FD
:103D9000FCF74AFCEDE55B4B0CAA03F1280615463F
:103DA00018685968144603C40833B3422246F7D151
:103DB00029210BA8FFF7F0FB002300F8013B282284
:103DC000294657E7A1680020FFF7E8FA9AE64FF086
:103DD0008053D3F8A420013206D1D3F8A8304FF68F
:103DE000FF729BB2934220D04FF08055D5F8A0309F
:103DF000DB071AD518210BA8FFF7CEFB00260123FD
:103E0000044643700670D5F8A400A11CFFF7B0FB70
:103E1000D5F8A830A371C3F3072363F03F03E37120
:103E20001022314604F10800B2E702210BA8FFF787
:103E3000B3FB0023037043709BE521210BA8FFF720
:103E4000ABFB0346002203F8012B4FF080520446DF
:103E5000D2F8901001314BD0D2F89410013147D0F4
:103E6000D2F89810013143D0D2F89C1001313FD0E4
:103E7000D2F890001946FFF77BFB611DD2F8940041
:103E8000FFF776FB04F10901D2F89800FFF770FB09
:103E900004F10D01D2F89C00FFF76AFB4FF080524D
:103EA000D2F88030013304F1110327D0D2F8841006
:103EB000013123D0D2F8881001311FD0D2F88C10F4
:103EC00001311BD0D2F880001946FFF751FB04F1F5
:103ED0001501D2F88400FFF74BFB04F11901D2F869
:103EE0008800FFF745FB04F11D01D2F88C00D1E6F4
:103EF000102200211846FCF797FBCFE71022002183
:103F0000184645E721B8000073B504460D462379ED
:103F1000012B00F1080044D0023B032B75D8DFE8E9
:103F200003F00208080D0A462146FFF76DFB02B0B8
:103F300070BD0A462146FFF711FCF8E7364BD3E97E
:103F40000023002203F00053134304F10A0607D0B4
:103F5000324BD3E90023002302F4802213430FD114
:103F6000237A0622C3F3801331460DF101008DF848
:103F70000030FCF72DFB9DF80000FFF7D1FBD6E7E2
:103F8000082213212846FFF729FB00230370237A18
:103F9000C3F380134370062231460230FCF718FB4E
:103FA000C5E7E17AE68809290BD00C2910D007294A
:103FB0002BD1237B0E2BBAD12B46324600211A205F
:103FC00003E001462B4632460020FFF77BFBAEE7BD
:103FD000114BD3E90023002302F400621343A6D05F
:103FE00008222846FFF7CDFA0821681806F0E6F9FE
:103FF00000230370A0F80160237BC370B4F80D3078
:104000008380B4F80F30C38091E7404080F311887B
:104010004FF0040002DF00BFC05E0020C85E002039
:104020000379012B0FD00A2B15D8012000FA03F3D6
:1040300013F4B06F12D113F03C0F10D183F0400392
:1040400043F380107047037A03F00303032B0CBF84
:104050000220032070474FF0FF3070470220704766
:10406000064B4FF0FF3041F6FF71C3E90001044BEE
:104070001F200021C3E90001704700BFC05E00207F
:10408000C85E002020BF40BF20BF7047F0B50D4B79
:1040900089B005460E4601AA03F118071868596849
:1040A000144603C40833BB422246F7D11B88238041
:1040B00008AB1D4415F81C0C831B5842584109B02D
:1040C000F0BD00BF15B700000860704718B90B6855
:1040D00043F000430B60704718B90B6823F00043AE
:1040E0000B60704770B5031D451E00249D4201D131
:1040F000204670BD15F8016F0022A018082AC0B232
:1041000001D10446F2E716F0010F03D00029F0D0E8
:104110000139C9B276080132EFE7000010B50C4A48
:1041200092F8223D92F8211D8B4238BF92F8204D23
:1041300092F8211D38BF1B195B1ADBB298429DBF54
:1041400092F8211DD2F81C3D53F82100002010BD2B
:10415000E002002030B590F85C3090F85D10994294
:1041600028D190F91D30002B26DBC48C828CA0F85E
:104170006440C48DA0F8622054437D2262434FF412
:104180007A7492FBF4F2A0F8662090F86020012582
:1041900065F30102D2B2002342F00402013980F833
:1041A0007050C36680F8602080F85D1080F85E5023
:1041B000184630BD012030BD022030BD2DE9F84F3A
:1041C0000C78944281460F4690463DD01F4ED6F85B
:1041D000503D33F83430038000254FF0020B06F6D3
:1041E000445A22B2D6F8500DB9F800E000EBC201F3
:1041F00030F83220964520D14868012820F003038A
:104200000AD9F3B1021D1CD04279D2B1027902F071
:104210000302013A012A14D8012215444A60EDB282
:1042200013B15146FEF7E3F8013496F8542DE4B289
:10423000A24208BF00244445D3D13C702846BDE8C3
:10424000F88FC1F804B0EBE70025F7E7E0020020A3
:1042500010B5094B93F8F82C824204460AD902465D
:104260004FF48271D3F8F00CFEF7D6F810B1038C3E
:10427000A34200D0002010BDE00200202DE9F04153
:1042800086B00223052805460F4602930ED0062865
:1042900000F08E8040F28680073880B2FFF7D8FFAA
:1042A000002800F0D98090E8400110E06B4B9E6937
:1042B000D3F81C8002AB00930A46694B032100200F
:1042C000FEF77CFF022866D0029B002B67D1634C6F
:1042D000A37C03F0FF00002B64D106AB0222A5747F
:1042E00043F8102D032100932A465D4BFEF766FF2D
:1042F000022863D0029B002B45D1237C9D4202D033
:10430000637C9D423BD106AB022243F80C2D002278
:1043100000930321524B1046FEF750FF022807D1AD
:10432000012211460320FEF7D9F8039B022B39D056
:10433000039800285ED102230493237C002B31D004
:1043400004AB00930122464B20740321FEF736FF95
:10435000022807D1012211460320FEF7BFF8049B73
:10436000022B1FD0049A002A36D126F00046B04511
:104370003ED93C4B11460320FEF7D8F890B9A37CF8
:104380000BB9012302930023A374029806B0BDE881
:10439000F081FFF777FE029B022BFAD094E7029B95
:1043A000012B94D0404080F311884FF0040002DFCD
:1043B0002A4BD3F81C6CD3F8208C88E7637C9D4291
:1043C00004D1012211460320FEF788F8029B022B3C
:1043D00090D1FFF757FEF9E7049B012BE2D10022B1
:1043E0001146204B0320FEF7A1F802460028D9D140
:1043F0001D4BBFE7039D012DD4D1FF2F19D006AB74
:10440000022243F8042D032100933A46144B002066
:10441000FEF7D4FE022807D12A4629460320FEF7DC
:104420005DF8059B022BBDD0059B13B1059B012BAD
:10443000B8D1E37C002BA2D00C4B04229A6000225E
:1044400011460320FEF772F80028ABD1E37C002B65
:1044500095D0FFF717FEF9E7012097E7E00200206B
:10446000C9400000105F0020B05F0020405F0020C6
:104470002DE9FF477D4E96F82D3203EB032333449D
:10448000044693F82B3003F00F03072B40F0E08035
:104490002628DFF8148230D02728DFF810A2DFF8B2
:1044A000109234D0252862D1FCF784FF704E714BF6
:1044B00037681860DAF800206F4BC71B4FF47A7525
:1044C0001F6082FB0523A2FB0701D9F8002007FB30
:1044D0000311D317FBF7C8FE684BB0FBF5F018606B
:1044E000FCF768FFC8F80000FCF764FF644A30601E
:1044F00013780133137002209EE0FCF75BFF604AE3
:10450000C8F800001378013313701A2094E0FCF708
:1045100051FF5C4BDAF800201860D8F800304FF4F7
:104520007A77A0EB030E82FB0723AEFB0201D9F8DA
:1045300000200EFB0311D317FBF796FE524BB0FB86
:10454000F7F018604E4B00251D70FCF733FF96F80E
:10455000693C96F8682CC8F800000133DBB29A4237
:1045600086F8693C01D286F8695C502064E0FCF76B
:1045700021FF464B1860DAF800304FF47A7583FB60
:104580000523CDE90023D9F800301946DA17D8F809
:104590000030CDE90212009AC31A0746A3FB0201BC
:1045A000019A03FB0211DDE90223FBF75DFE384BA4
:1045B000B0FBF5F018602E4B1B68FF1A009BA7FBA1
:1045C0000301019B07FB0311DDE90223FBF74CFE0E
:1045D000304BB0FBF5F01860FCF7ECFE2E4B2F4F84
:1045E0000021C3E900012E4BD7F800807A68C3F898
:1045F00000805A602B4BD3E90023821ADAF80000BE
:1046000061EB030380FB0501514300FB0313A2FB95
:104610000001D9F800201944D317FBF725FE002329
:10462000B0FBF5F03860A0EB08007B60C6F8880CA2
:104630000A2C09D8A01C400005F01EFA204604B040
:10464000BDE8F04705F01EBA272C09D8E01CF2E7B8
:1046500026283FF45AAF272887D02528E8D14AE7F3
:10466000404080F311884FF0040002DFE002002098
:104670009C3C0020043D0020583D0020783D002057
:1046800098100020083D0020603D00206C3D002077
:10469000343D0020883C0020283D00205810002098
:1046A00060100020903C0020203D00203060002061
:1046B0002C6000202DE9F843804C94F82D3294F8BA
:1046C0002E229A4206D00133DBB2022B08BF002310
:1046D00084F82D3294F8133C94F8142C9A4206D0A6
:1046E0000133DBB2022B08BF002384F8133C94F89B
:1046F0002D7207EB07272B3704EB0709E35D03F067
:104700000F03072B5FD199F80330DD074CBF09F188
:104710000A0509F104059A0748BF06351E0748BF78
:104720000235DA0649D5D4F8842CD4F8603C94F8E4
:104730002960134494F8692CC6F302165A43072ED5
:10474000C4F86C2C40F0938094F8283003F00703F1
:10475000072B7FD1D4F8700C821A10460021C4F8C0
:104760007C2C574AAE7895F8008000238B4208BF16
:10477000824280F08D804FF496720023FBF774FD27
:1047800026F01F066870C0F304203043A87048F07C
:10479000800894F8293085F80080DB0708D594F864
:1047A000803C0133DBB2252B08BF002384F8803C1A
:1047B0002B78032262F305032B7094F829306FF3F2
:1047C000000384F82930484605F0BAF9E35D03F0A8
:1047D0000F03022B6AD0072B68D002239620237583
:1047E00005F0B8FA002005F025FA94F82830C3F354
:1047F0000202D3B219460020CE0700F101055AD5B6
:10480000013B134094F828202E4D63F302022E4BF7
:1048100084F8282012F0070F08BF1A7829780CBFF7
:10482000013200221A7094F86A3C94F8682C013323
:10483000DBB29A4201F1010184F86A3C297038BF69
:104840000023C0B238BF84F86A3C2530BDE8F84385
:10485000FFF70EBE062B04D1D4F8740C801A002189
:104860007FE7042B7FF47DAFD4F8780CF6E794F85B
:104870006A6C7343C4F86C3C26B9FCF79BFD134B80
:1048800083E84100D4F8700CD4F86C3CC01AE6E719
:104890001E220023FBF7E8FC26F01F066870C0F319
:1048A00004200643AE706FF3C71872E70323237525
:1048B00005F0D6F999E7490828469DE7E00200206F
:1048C000C4BF03005310002052100020903C002071
:1048D000F8B5594C94F82D3294F82E229A4206D00D
:1048E0000133DBB2022B08BF002384F82D3294F889
:1048F000133C94F8142C9A4206D00133DBB2022BFD
:1049000008BF002384F8133C94F82D7294F83254B5
:1049100094F88D3C07EB072705EB05252B3705F2AF
:104920002F25E6192544052B0AD8DFE803F00345B7
:104930004F575F6740F2011240492846FBF748FE97
:10494000E35D03F00F03072B1AD1F278D3074CBFB6
:1049500006F10A03331D900748BF0633110748BF0D
:104960000233D2060CD506225A709A7822F01F0222
:104970009A701A78032102F07F0261F305021A701F
:10498000284605F0DDF8E35D03F00F03022B3DD070
:10499000072B3BD002239620237505F0DBF900207E
:1049A00005F048F9002384F8693C84F86A3C032048
:1049B000BDE8F840FFF75CBD40F2011220492846EF
:1049C000FBF706FE0120FFF753FDB9E740F20112A5
:1049D0001C492846FBF7FCFD0220F4E740F20112D7
:1049E00019492846FBF7F4FD0320ECE740F20112D9
:1049F00016492846FBF7ECFD0420E4E740F20112DB
:104A000013492846FBF7E4FD0520DCE7114A94F83A
:104A10008C1C0123137094F88D3C0133DBB2994256
:104A200084F88D3CB6D194F8293043F0010384F822
:104A3000293000231370ADE7E002002013070020A7
:104A40001408002015090020160A0020170B00206A
:104A5000180C0020511000202DE9F04F8BB00024DD
:104A6000FF25DFF814918DF81F50804693461F46AE
:104A700001F1040A1C60089426460223099309AB3D
:104A800002933B4B019308AB00930DF11F025B4671
:104A900041460020FEF7CEFB02280BD0099B6BB1EC
:104AA000404080F311884FF0040002DF41460020AF
:104AB000FEF73EFC099B022BF8D0EFE79DF81F2084
:104AC000FF2A4ED0062AD8D999F8F83C07339A42E3
:104AD000D3DA073A92B24FF48271D9F8F00CFDF7AD
:104AE0009BFC0028C9D090F91D30002BC5DB036862
:104AF000089AD0F804E0002B12DA816823F0004312
:104B000071452CBF52187244D21AC168FF2D01F1B1
:104B100004010B4408D19DF81F501C461646ACE713
:104B2000734538BF7346F0E731461046059304924B
:104B3000FEF716FC04EB0A018842049A059BEAD9A9
:104B40000C483444A4FB0001072303FB041106A313
:104B5000D3E90023FBF788FB803038600BB0BDE859
:104B6000F08FFF2DECD1F9E700CA9A3B000000005E
:104B7000C94000008D49FD1AE002002070B504789C
:104B80000A78C4F38013B3EBD21F19D104F00F04D9
:104B9000012C01F1080600F1020508D00622314679
:104BA0002846FBF700FDB0FA80F0400970BD0622F0
:104BB00031462846FBF7F7FC0028EFD1204670BDB0
:104BC000002070BD0B4A92F8603D92F8611D994239
:104BD0000ED192F8603D02EB4303A3F85A0D92F810
:104BE000603D0133DBB2032B08BF002382F8603D38
:104BF000704700BFE0020020044B1B7D23B1012160
:104C000000220846FDF76ABC704700BFE0020020A2
:104C1000062810B50C460AD9094BC21F92B24FF4B0
:104C20008271D3F8F00CFDF7F7FB206010BD05286A
:104C300004D00628034818BF002010BD024810BD4C
:104C4000E0020020FC0E0020F802002008B50A4B0C
:104C500000221A7068B1012805D1084B00221146C4
:104C6000FDF764FC38B1404080F311884FF0040038
:104C700002DF034BF2E708BDEC100020905F00203C
:104C8000805F002038B505460C460021084604F038
:104C9000DDFE95F8A830DB064FF001020DD51F218F
:104CA000082004F019FF2246002105F1A90005F0B3
:104CB0004BF9BDE8384004F03DBF08201B2104F04B
:104CC0000BFF2046F5E738B505460C46002108469F
:104CD00004F0BCFE95F8A8309B064FF001020CD5FD
:104CE0001F21082004F0F8FE214605F1CA0005F056
:104CF00067F9BDE8384004F023BF08201B2104F009
:104D0000EBFE2046F5E7000070B5164C037894F8EA
:104D10002D2CDB09B3EBD21F05460E4607D094F8C5
:104D20002D0CC0F3011010F002000BD170BD00F18A
:104D30000801062204F62E40FBF735FC0028EED1D0
:104D4000012070BD95F90030002B09DA6B7B03F070
:104D5000C003402B04D1002EF2D00120307070BD72
:104D6000002070BDE0020020404080F311884FF029
:104D7000040002DF30B50468002C89B019DA4368FA
:104D8000856806909D4224F0004434BFE41A641BF9
:104D9000094B0593A4B2002304930393029318468E
:104DA00001940094FEF7BCF930F0020301D0FFF744
:104DB000DBFF09B030BD00BFD940000010B503468D
:104DC0000A4600F19C01D0F89C0008B9FFF7CCFF1F
:104DD0001C8CA3F8A24083F8A42007240A4A83F875
:104DE000A04092F8584D83F89C4002F55362FDF7BD
:104DF0002DFB28B9404080F311884FF0040002DFFA
:104E0000BDE8104003F09CBEE002002010B5164A39
:104E100092F8213D92F8221D994201D1FFF7A4FF9B
:104E200092F8211DD2F81C3D53F8211092F8583DFC
:104E300008680B7092F8213D92F8204D0133DBB2E7
:104E40009C4208BF002382F8213D02F55362FDF722
:104E5000FDFA28B9404080F311884FF0040002DFCA
:104E6000BDE8104003F06CBEE002002010B5012048
:104E7000FFF754F9044608B9FFF776FF4FF6FF73C2
:104E8000C38006230371102200210B30FBF7CCFBFB
:104E90003C23E372BDE81040FFF7B8BF1FB53E4C9E
:104EA00020B1A37C052B75D0FFF75EFF237C052B7B
:104EB00002D0637C052B65D104AB022243F8082D98
:104EC000002200930121354B1046FEF777F90228A6
:104ED0000DD00298C0B10298012819D1E37C002BB3
:104EE00050D02F4B04229A600022114646E0012246
:104EF00011461046FDF7F2FA029B022BE9D101217F
:104F00000020FEF715FAF7E702230393237C2BB961
:104F1000404080F311884FF0040002DF03AB012210
:104F20002074114600931D4BFEF748F902280FD05C
:104F3000039AD2B1039C012CEAD100221146194BED
:104F40002046FDF7F3FA02460028E1D1164B13E0A4
:104F5000012211461046FDF7C1FA039B022BE7D14F
:104F600001210020FEF7E4F9F7E7A369E16923F0E6
:104F700000438B42EAD20B4B11460120FDF7D6FAD3
:104F80000028C5D10022094B11460120FDF7CEFAB9
:104F90000028BDD104B010BDE0020020C9400000CF
:104FA000305F0020005F0020A05F0020D05E002066
:104FB00073B5164602AA1C46054642F8046D273111
:104FC0000120FFF749FD2368FBB10198831B1B02F9
:104FD00001D5FFF7C9FE3146FEF7C2F90246104877
:104FE0000723A2FB000103FB02110BA3D3E900235B
:104FF000FBF73AF9236818440028206005DB40F2EB
:10500000E24068432368984201D302B070BD1B1A86
:105010002360F7E7AFF3008000CA9A3B000000006E
:105020008D49FD1A13B500F16C030446826FC16807
:10503000808CFFF7BDFF02A9E36E606F40F2E24291
:10504000B3FBF2F3022221F8023DFBF7C1FA02B0F2
:1050500010BD000038B5104A92F8583D92F8544DF2
:105060000133DBB29C4208BF002392F8574D9C42AB
:1050700001D1FFF779FE92F8585DD2F8504D24F82F
:10508000350092F8580D04EBC004616082F8583D79
:10509000BDE8384003F054BDE00200202DE9F8439C
:1050A000244C064600272EB194F8553D94F8562D11
:1050B0009A4201D1BDE8F88394F8558DD4F84C9DFF
:1050C000D4F8F00C39F8382009EBC8034FF482719A
:1050D0005D682F60FDF7A0F9034639F838001A8C97
:1050E00082421FD1D3F8F82042B9D3F8EC20C3F89C
:1050F000F8501AB9C3F8EC50C3F8FC20D3F8FC20E0
:1051000002B11560C3F8FC5094F8553D94F8542D45
:105110000133DBB29A4208BF0023013E84F8553DBB
:10512000F6B2C0E72B7967F301032B712946FFF72D
:1051300091FFE9E7E002002073B501220446114621
:105140000020FDF7CBF994F82020002142F2E27311
:105150000732009308463A4BD2B2FEF72FF830F0F0
:10516000020105D0404080F311884FF0040002DFB7
:10517000344B1A7D052A1D461BD1228C187C073220
:10518000904216D1197442F2F373009301222C4B12
:105190000846FEF713F830F00202E3D142F2FA7348
:1051A00000931146264B1046FEF708F830F0020334
:1051B000D8D1D4F8EC10D4F8F030994203D0D4F818
:1051C000F830994201D1204E12E00B796FF30103C0
:1051D0000B710B68C4F8EC30208CFFF73BFFE8E75D
:1051E0000368C4F8EC30C4F8F0303146FDF7FFF83E
:1051F000D4F8EC0018B1D4F8F8309842F0D100237C
:10520000C4F8F030C4F8F430D4F8EC1051B94FF6CB
:10521000FF732384D5F8683D9C4208BFC5F8681D1C
:1052200002B070BD0B796FF301030B710B68C4F80A
:10523000EC30C4F8F830208CFFF70CFFE4E700BF37
:1052400081530000E00200201C100020C0B208B50D
:10525000031F012B01D9FFF787FD084A137D3BB1DE
:10526000043B012B04D91075BDE8084004F088BC4C
:1052700004F0B8FC0028F7D008BD00BFE002002011
:1052800008B50A4A137838B1591C117063B9012066
:10529000BDE8084003F052BC0BB9FFF765FD013BC8
:1052A000DBB21370002BF3D008BD00BF9A100020B2
:1052B0000020FFF7E5BF0000002208B51146044BAF
:1052C0001046FDF733F908B1FFF74EFD08BD00BFEA
:1052D000605F0020002208B51146044B1046FDF720
:1052E00025F908B1FFF740FD08BD00BFE05E0020D2
:1052F00008B530B1034B9B7CC9B2994201D0FFF78E
:1053000033FD08BDE002002008B528B1034B9B7CAB
:10531000052B01D0FFF728FD08BD00BFE0020020EB
:10532000012808B5094B07D19A7C062A02D1002230
:105330009A7408BDFFF718FD1B7C062B05D1404071
:1053400080F311884FF0040002DF08BDE002002066
:10535000012808B5094B07D19A7C052A02D1002201
:105360009A7408BDFFF700FD1B7C052B05D140405A
:1053700080F311884FF0040002DF08BDE002002036
:1053800008B508B1FFF7F0FC08BD404080F3118874
:105390004FF0040002DF000070B506460320FEF760
:1053A000BDFE20B34FF6FF73C380124B93F82D3C24
:1053B0005A0718D0C3F30203DAB2012A03D0042A31
:1053C00002D0FFF7E2FF0323447A037100F10805DE
:1053D000023456B104F05CFC00F07F002855FFF762
:1053E00015FD002070BD0223EEE77F20F6E70120C7
:1053F00070BD00BFE002002037B502AD104B45F88C
:10540000043D044604F008FB002004F02FFB0D4887
:1054100004F0CCFA0121204604F018FB284604F0E1
:1054200043FB620002F0FE02FF21082004F054FB5F
:10543000054940F25B6004F0DFFB03B030BD00BF04
:10544000D6BE898E316400005555550008B5054B10
:105450000022986011461046FDF768F808B1FFF782
:1054600083FC08BD205F00202DE9F04F14681D6803
:105470008DB0002C81460B9190469B469DF85CA018
:1054800003DA169CAC4238BF2C46AC424E4F1BD9B7
:1054900041F2487308934D4B05930021631B009321
:1054A00007974B46069104910391029101910122C5
:1054B0000846FDF7E5FD30F002032BD0404080F3B5
:1054C00011884FF0040002DF1DD200231A4619464E
:1054D0001846FFF7FFFE41F25D73002108932C1B75
:1054E0003B4B059307974B4606910491039102911C
:1054F0000191009401220846FDF7C2FD30F002033D
:10550000DCD12C460BE000231A4619461846FFF75B
:10551000E1FE00231A4619461846FFF7CDFE2D4E30
:105520000B9BF36041F275730893199B069300225D
:10553000189B059307974B4604920392029201929F
:10554000009411461046FDF79BFD30F00203B5D1E3
:105550000520FFF77BFFD6F8643D9D4223D0CBF8B2
:105560000030D8F800300597002BBCBF23F0004373
:10557000C8F80030D6F8642DD8F800108A4238BF39
:105580000A4641F2A571A3B292B20691002102939C
:10559000019200920491039152460846FDF7C0FD26
:1055A00030F002038AD1FF20FFF778FD0A4B012279
:1055B00011460020C3F808A0FCF7B8FF00287FF4CC
:1055C0007DAF0DB0BDE8F08F81530000D5520000D3
:1055D000B9520000E0020020C05F00201FB50B4A56
:1055E000137C03F0FF040BB1FFF7BEFB052313741C
:1055F0000394074C02940193136A009302F11C0375
:105600001832FFF731FF04B010BD00BFE0020020E8
:10561000D15800001FB50B4A137C03F0FF040BB1F7
:10562000FFF7A2FB052313740394074C0294019324
:10563000136A009302F11C031832FFF715FF04B040
:1056400010BD00BFE00200208159000007B5052011
:10565000FFF7FCFE41F68B43002100930522064B29
:105660000846FDF7ABFD30F0020301D0FFF77CFBED
:1056700003B05DF804FB00BF9D4E00002DE9F84328
:10568000214D95F8224D95F8203D95F8349D013433
:10569000E4B2A34208BF002405F6285705F5516877
:1056A000B9F1000F03D095F8213D9C4201D1BDE82E
:1056B000F8833846FCF781FE06460028F7D04046BE
:1056C000FCF77BFE28B930461049BDE8F843FCF7EB
:1056D0008EBE066095F8222DD5F81C3D43F82200B9
:1056E00085F8224D95F8203D0134E4B2A34208BF6D
:1056F000002495F8343D09F1FF39013B85F8343D2C
:105700005FFA89F9CCE700BFE00200200810002012
:1057100010B52E4C94F8F82C002A37D004F6F44338
:105720004FF48271D4F8F00CFCF720FE284B94F86B
:105730001A2DB4F8181DD4F80C0DFCF717FE94F8C8
:10574000201D94F8F82C234BD4F8240D0A4408218A
:10575000FCF70CFE204BD4F8380D02222421FCF774
:1057600005FE94F8542DD4F8400D1C4BB4F8481D98
:10577000013A92B2FCF7FAFD1648FCF71EFE40B95A
:10578000404080F311884FF0040002DFC4F8F42C8D
:10579000CCE7134A111FFCF756FE94F8293043F06A
:1057A000700384F82930FF2384F8023D84F8033D18
:1057B00084F8043D84F8053D1F2384F8063D252325
:1057C00084F8073DBDE81040FFF758BFE002002015
:1057D000F00F0020081000201C10002024100020D2
:1057E00010100020024B1868436800211B681847FE
:1057F000E0020020024B1868436800215B681847EC
:10580000E0020020F0B5484003274FEA102E08269A
:1058100000240EF00105013E45EA440516F0FF069E
:10582000ECB24FEA5E0EF4D125022DB2C0B24FF0B9
:10583000080E344600F0010646EA44040EF1FF3635
:1058400016F0FF0EE4B24FEA5000F3D12C4304EB04
:105850000414013F0C4417F0FF07A0B2D5D1252452
:105860004140B1FBF4F004FB1010C0B2C40800F0DA
:105870000705145D2C41E40707D45943C1F30741E0
:105880001046BDE8F040FEF72DBCF0BD70B51446E3
:105890000E460546FDF762FD2146FDF761FDC41C7D
:1058A000092C11D9094B1B7813B10020FFF7CEF951
:1058B000324600212846FFF75DFAAB681C44262CCF
:1058C00000D8AC60012070BD002070BDEC1000203D
:1058D000284BDA7C70B502F0FF0105461C462AB160
:1058E000404080F311884FF0040002DF1B7CDBB2E4
:1058F000052BF5D1A06094F829000126C0F34200E1
:10590000E67421746374FFF777FD94F8293094F8F6
:105910002820C3F3021363F3020284F82820FEF761
:10592000C9FE94F82A309B0707D0304603F082FE68
:10593000821C4178007804F0C3F9E26805F109019E
:10594000012004F013FA04F0E1FA2A4605210A487E
:10595000FFF79CFF034628B104232375BDE8704080
:1059600004F00EB9054A0146FDF7A6FC30F002032B
:10597000B6D170BDE0020020F8020020F94B000013
:10598000214BD97C70B501F0FF0205461C4629B1B8
:10599000404080F311884FF0040002DF1B7CDBB233
:1059A000052BF5D10126E674A060227484F88D2CB5
:1059B0006374FEF78DFF94F82A309B0707D03046BA
:1059C00003F038FE821C4178007804F079F9E2682F
:1059D00005F10901012004F0C9F904F097FA2A46FB
:1059E00005210A48FFF752FF034628B10423237517
:1059F000BDE8704004F0C4B8054A0146FDF75CFC00
:105A000030F00203C4D170BDE0020020F802002093
:105A1000F94B000010B590F8A840D0F8F02014F031
:105A2000800F18D1D0F8EC30ABB1240713D4D0F8E4
:105A3000F840A34204BF1C68C0F8F84092B91A6845
:105A40000A601960C0F8F010C0F8F4100B680BB9C8
:105A5000C0F8FC1010BD2AB9D0F8EC300B60C0F8CB
:105A6000EC10EFE7D0F8F4301A680A601960EBE741
:105A700010B490F8A84024070A460FD5D0F8F010CB
:105A800031B9D0F8EC101160C0F8EC2010BC7047B0
:105A9000D0F8F430196811601A60F7E710BCFFF70E
:105AA000B9BF0000F8B5214F054607F63C500E4639
:105AB000FCF783FC0446B0B333797179D7F8FC2C3A
:105AC00043F07F4343F47E0343F4435343F0100316
:105AD00043EA0123B17943EA0143D2F88C10C1F3C0
