:10000000804000200111000051110000990F0000F4
:10001000990F0000990F0000990F0000990F000040
:10002000990F0000990F0000990F00008D0B000040
:10003000990F0000990F0000490B0000990F000074
:10004000C51000007F920000C5100000C510000020
:10005000C5100000C5100000C5100000C51000004C
:10006000C5100000C5100000C5100000C51000003C
:10007000C5100000C5100000C5100000C51000002C
:10008000C5100000C5100000C5100000C51000001C
:10009000C5100000C5100000C5100000C51000000C
:1000A000C5100000C5100000C5100000C5100000FC
:1000B000C5100000C5100000C5100000C5100000EC
:1000C000C5100000C5100000C5100000C5100000DC
:1000D000C5100000C5100000C510000000000000A1
:1000E0001918000000000000110F000000000000BF
:1000F000110F000000000000110F000000000000C0
:10010000110F000000000000110F0000C05000207F
:10011000FD19000000000000110F000000000000A9
:10012000110F000000000000110F0000000000008F
:10013000110F0000000000004592000000000000C8
:10014000110F00009C500020E11D00000000000085
:10015000110F000000000000110F0000000000005F
:10016000110F000000000000211F0000000000002F
:10017000110F000000000000110F0000000000003F
:10018000110F000000000000110F0000000000002F
:10019000110F000000000000110F0000000000001F
:1001A0007992000000000000110F00000000000024
:1001B000110F000000000000110F000000000000FF
:1001C000110F000000000000110F000000000000EF
:1001D000110F000000000000110F000000000000DF
:1001E000110F000000000000110F000000000000CF
:1001F000110F000000000000110F000000000000BF
:10020000110F000000000000110F000000000000AE
:10021000110F000053B94AB9002908BF00281CBFBC
:100220004FF0FF314FF0FF3000F08EB9ADF1080C08
:100230006DE904CE00F01AF8DDF804E0DDE90223F0
:1002400004B07047430803F05533C01A830803F025
:10025000333300F03330184400EB101000F00F304F
:1002600000EB002000EB0040000E70472DE9F04746
:100270008C460D460446089E002B51D18A421746F3
:100280006DD9B2FA82FEBEF1000F0BD0CEF1200C78
:1002900001FA0EF520FA0CFC02FA0EF74CEA050CF6
:1002A00000FA0EF44FEA174A250CBCFBFAF81FFAC5
:1002B00087F90AFB18CC45EA0C4508FB09F3AB4269
:1002C0000AD9ED1908F1FF3280F02381AB4240F2E8
:1002D0002081A8F102083D44ED1AA4B2B5FBFAF062
:1002E0000AFB105544EA054400FB09F9A14509D968
:1002F000E41900F1FF3380F00A81A14540F2078143
:1003000002383C44A4EB090440EA08400021002ED6
:1003100061D024FA0EF4002334607360BDE8F087E6
:100320008B4207D9002E54D0002186E821000846D0
:10033000BDE8F087B3FA83F1002940F08E80AB422C
:1003400002D3824200F2FA80841A65EB0305012091
:10035000AC46002E3FD086E81010BDE8F08712B9F9
:100360000127B7FBF2F7B7FA87FEBEF1000F34D1D1
:10037000EB1B3A0C1FFA87FC0121B3FBF2F8250CAA
:1003800002FB183345EA03450CFB08F3AB4207D9DF
:10039000ED1908F1FF3002D2AB4200F2D180804665
:1003A000ED1AA3B2B5FBF2F002FB105543EA054487
:1003B0000CFB00FCA44507D9E41900F1FF3302D27D
:1003C000A44500F2B8801846A4EB0C0440EA0840AB
:1003D0009DE731463046BDE8F087CEF1200405FAAE
:1003E0000EF307FA0EF720FA04F83A0C25FA04F493
:1003F00048EA0308B4FBF2F14FEA184502FB114446
:100400001FFA87FC45EA044501FB0CF3AB4200FAF6
:100410000EF409D9ED1901F1FF3080F08A80AB426A
:1004200040F2878002393D44EB1A1FFA88F5B3FB8E
:10043000F2F002FB103345EA034500FB0CF3AB423C
:1004400007D9ED1900F1FF386FD2AB426DD90238F0
:100450003D44EB1A40EA01418FE7C1F1200722FA3F
:1004600007F88B4005FA01F448EA030320FA07FE77
:100470004FEA134CFD404EEA040EB5FBFCF94FEA7F
:100480001E440CFB19551FFA83F844EA054509FB85
:1004900008F4AC4202FA01F200FA01FA08D9ED18A8
:1004A00009F1FF3043D2AC4241D9A9F102091D4400
:1004B0002D1B1FFA8EFEB5FBFCF00CFB10554EEA0F
:1004C000054400FB08F8A04507D9E41800F1FF3502
:1004D00029D2A04527D902381C4440EA0940A4EBA0
:1004E0000804A0FB02894C45C6464D4615D312D0E0
:1004F00056B1BAEB0E0364EB050404FA07F7CB40E0
:100500001F43CC40376074600021BDE8F087184677
:10051000F8E69046E0E6C245EAD2B8EB020E69EB97
:1005200003050138E4E72846D7E7404691E78146CE
:10053000BEE7014678E702383C4445E7084608E74D
:10054000A8F102083D442BE7704700BF013903467C
:1005500011F8012F0AB91A70704703F8012BF7E759
:100560000138013910F8013F11F8012F934202D1EF
:10057000002BF7D11A46981A704770B582B1013A2C
:100580000C46034603D11A782078101A70BD1E78E5
:100590002578AE4200F1010001F10101EFD0F2E750
:1005A000104670BD81EA000313F0030F70B50346D7
:1005B0000BD0013B0A4491421BD170BD002AFCD0F4
:1005C00011F8014B03F8014B013A9C07F6D11E1FAD
:1005D0000D46541B0C44032C06D822F0030421447E
:1005E000234402F00302E4E755F8044B46F8044FB5
:1005F000EFE711F8014B03F8014FDCE770B5C9B222
:1006000003469C0711D141EA012444EA04441E46F2
:10061000951B1D44032D0ED822F00304234402F041
:1006200003021A44934209D170BD002AFCD003F89A
:10063000011B013AE5E746F8044BE9E703F8011B23
:10064000F0E7000083B534493448354D354FDFF8C5
:10065000FC90DFF8FC8000F06BFF334800F068FF8F
:1006600032480AF079FA324A4368106000210D22BC
:100670001C68304BA04701F085FA4FF0004001F0B4
:100680007BFA2D4B274840221A6001A90AF08CFA08
:1006900004232B600024019B9C4202DA2B680E2B62
:1006A00008DD264C204600F043FF4EF660200AF09D
:1006B0002BFEF7E70C2666433B689B5949461868B2
:1006C000FFF74EFF18B988F800400134E3E73B68B4
:1006D0001B499B591868FFF743FF10B988F8014080
:1006E000F3E73B6817499B591868FFF739FF10B9C2
:1006F00088F80240E9E73B6813499B591868FFF7FF
:100700002FFF10B988F80340DFE72B685A1C2A60D6
:1007100008F80340D9E700BF18C000001CC0000063
:10072000000000200400002042C0000009C10000B9
:10073000280000200001030000E100E037C10000B4
:100740001BC1000026C1000030C1000010C1000024
:10075000080000202DE9F04F554E87B00024431CBF
:100760000146009434600AD041F23D73984206DCA1
:10077000504800F0DDFE204607B0BDE8F08F4E4B3C
:100780004E4D0FCB02AF87E80F004D4A136801337F
:10079000042BA8BF0023136006AA02EB830353F8BF
:1007A000103C2B60002B03DB012B15DD032B30D01D
:1007B000444800F0BDFE0024434E306843680D22DB
:1007C0009D6800216B46A8474FF47A700BF00CF837
:1007D000009B002BF1D0CEE73C4800F0A9FE2B682F
:1007E000ABB93B4800F0A4FE287800F09DF8012446
:1007F0003368002BE0D12B68012B02D8354800F07C
:1008000097FE01232878336000F0ACF8D4E7324833
:10081000E8E73248DFF8D490DFF8D4A0DFF8D4B0AE
:1008200000F086FE2E4B00221A702E4B1C68984654
:10083000013C002C12DA032000F076F8DFF8B490C7
:10084000DFF8A8A0DFF8A8B00024D8F800309C4258
:1008500019DB254800F06CFE0224C9E71AF80400F1
:10086000D9F800E000EB400006AA032342F8143D4B
:100870005EF8203001219B680EEB800098470BF852
:100880000400013CD5E714F8093073B91BF80400E3
:10089000DAF800E000EB400001215EF82030029120
:1008A0009B683A460EEB800098470134CDE700BFC5
:1008B000C04D002037BF000000BF00002C0000200A
:1008C00030000020E3BF00002800002067BF0000C8
:1008D00083BF0000FBBF00009CBF0000AFBF000053
:1008E0003C34002000000020CDBF000004000020A8
:1008F000080000201700002038B5084D2A6862B9AA
:10090000074C226812B9074800F012FE01232B6041
:100910002078BDE8384000F025B838BDC04D002033
:100920002C000020FBBF000001280BD002D30328BD
:100930000BD07047094B01221A6020BF40BF20BF77
:1009400001F020B9064B1860F7E74FF08043012211
:10095000C3F80025BFF34F8F20BFFDE778000040AC
:100960007C000040704700000C4B1B78062B12D116
:100970000B4B186810F00F000DD104331B6803F007
:10098000F003302B08D1074B1B6813F0F00F0CBF9E
:100990000120002070470020704700BFE00F00F0EA
:1009A000E40F00F0EC0F00F008B54FF02003EFF378
:1009B000118183F31188FFF7D7FF20B13B4AD36839
:1009C00023F08073D360FFF7CFFF10B1384B0322C1
:1009D0001A60FFF7C9FF30B14FF080430022C3F81F
:1009E0000C21C3F81021334B1B78062B17D1324B47
:1009F0001B68180713D1314B1B6803F0F002302A33
:100A000003D003F0E003402B09D14FF08043D3F82B
:100A10000024D20703D56FF00102C3F800244FF081
:100A20001023D3F80022002A03DBD3F80032002B76
:100A30002FDA234B0122C3F80425D3F80024002A1F
:100A4000FBD04FF010221521C2F80012D3F8002479
:100A5000002AFBD04FF010231522C3F80422184BB4
:100A60001A46D3F800140029FBD00021C3F804155E
:100A7000D2F80034002BFBD0BFF34F8F1149124B3B
:100A8000CA6802F4E0621343CB60BFF34F8F00BF2C
:100A9000FDE70C4B4FF0FF329A62DA620B4B0C4AC7
:100AA0001A6081F31188002008BD00BFF0ED00E05E
:100AB000A0050040E00F00F0E40F00F0E80F00F0A8
:100AC00000E0014000ED00E00400FA05084E0020BF
:100AD0000090D003084881684A897F2A0BD8C069F2
:100AE000884208D000B50AF061FC5DF804EB0349C8
:100AF0004FF080520A607047341D002004ED00E082
:100B0000044800232021C2180133272B82F8001348
:100B1000F9D1704700E100E0084A09499368096883
:100B20005966084918664B6843F080534B600023B0
:100B300083F311889368586E704700BF341D0020FE
:100B40002CC7000000ED00E00E498A682820104400
:100B5000EFF3098C80E8F01F0B4F4FF00066202068
:100B600080F31188CA698A603E60106E00231366A4
:100B700080F3118802F1280090E8F01F8CF30988B7
:100B800070470000341D002004ED00E01EF0040F4B
:100B90000CBFEFF30880EFF30980816931F8021C84
:100BA00011F0FF0101D0022907D0404080F31188E5
:100BB00004494FF080520A60704700B500F02CFAEB
:100BC00000BD000004ED00E010B504460AF0C4FBCF
:100BD00022680146BDE81040014800F0A9BC00BFF2
:100BE000B1C2000010B504461A4800F0A1FC04F19F
:100BF0001800194CFFF7E8FFA36A9A0102D51748BD
:100C000000F096FCA36ADB0102D5154800F090FCC9
:100C1000A36A180302D5134800F08AFC0E4CA36A9D
:100C2000590302D5104800F083FCA36A9A0302D549
:100C30000E4800F07DFCA36ADB0302D50C4800F0EF
:100C400077FC054A936A6FEA03436FEA13439362A2
:100C500010BD00BFB2C3000000ED00E0CBC3000038
:100C6000DFC30000FAC3000019C400003FC4000045
:100C70005AC4000038B5044619480D4600F058FC27
:100C800004F11800174CFFF79FFFA36AD90604D59B
:100C90001548BDE8384000F04BBCA36A1A0701D5DF
:100CA0001248F6E7A36A9B070FD5114800F040FCF5
:100CB000616BA36A180612D50E4800F039FC75B1B5
:100CC000A36A23F08003A36238BDA36ADA0701D5C3
:100CD0000948DEE7A36A9B0601D50848D9E738BD75
:100CE000FBC2000000ED00E012C3000024C30000BE
:100CF00038C3000051C3000062C3000082C300007B
:100D000038B504461D480D4600F012FC04F11800E9
:100D10001B4CFFF759FFA36AD80404D51948BDE856
:100D2000384000F005BCA36A190501D51648F6E75E
:100D3000A36A9A0514D5154800F0FAFBA16BA36AC3
:100D40001B0407D5124800F0F3FB1DB1A36A23F47E
:100D50000043A3620A4B9B6A58050ED50D48DEE797
:100D6000A36A5905FAD4A36ADA0501D50A48D6E779
:100D7000A36A9B0401D50948D1E738BD78C10000BA
:100D800000ED00E012C3000024C300008FC100008A
:100D900051C30000A9C10000C5C1000082C300000A
:100DA00038B5274D6B68C3F30803DA1E0446092AD9
:100DB0003AD8DFE802F00533352F39393939393778
:100DC000204800F0B5FBEB6A9A0703D51E4800F0F7
:100DD000AFFB0CE0EB6A5B0009D51C4800F0A8FBF8
:100DE0001B4B1B784BB101212046FFF743FF2146E7
:100DF0000020BDE8384000F013B9164B1B7823B132
:100E000001212046FFF77CFFF1E7134B1B889BB2C3
:100E1000002BECD02046FFF7E5FEE8E70021E3E7F2
:100E20000021EEE70D48D2E70D480E49A3F110026C
:100E30000F2BD8BF01460C4800F07AFBD7E700BF64
:100E400000ED00E00CC2000024C2000046C2000019
:100E500028ED00E029ED00E02AED00E066C2000088
:100E6000DEC10000F3C100009DC20000024A5369C8
:100E700043F010035361704700ED00E043B2002BD4
:100E800008DB012200F01F0002FA00F05B09024AB1
:100E900042F82300704700BF00E100E043B2002B9E
:100EA0000DDB01225B0900F01F0002FA00F0203385
:100EB000034A42F82300BFF34F8FBFF36F8F704791
:100EC00000E100E04209054B00F01F0053F822202A
:100ED000012303FA00F01040704700BF00E100E07A
:100EE00043B2002BA8BF03F1604301F101014FEAB7
:100EF0004111ADBF03F5614300F00F00034BC9B2D0
:100F0000B6BFC9B283F800131954704714ED00E05E
:100F100000F042B808B572B6044B986918B10022C7
:100F20009A6109F051FE62B608BD00BF341D002071
:100F3000F8B50C4616461F4604220A9B0999054639
:100F40000AF02CFDA6F1200121440C4AAC6521F0E9
:100F50000701002322F00102EB642B65EE658A6134
:100F6000069A4A60079A8A60089ACA600F604FF032
:100F70008072CA61A9642B66F8BD00BF11B8000079
:100F8000014910220A60704710ED00E0404080F3F4
:100F9000118830BF704700BF404080F31188DFF8F0
:100FA0001CC0DCF800C01CF4006C0CBFEFF3088020
:100FB000EFF3098000B5FFF7F3FE00BD04ED00E09C
:100FC000042838B504460D4613D0052813D003284D
:100FD00013D10C4800F0ACFA0AF0BEF9AA69014638
:100FE000094800F0A5FA29462046BDE8384000F03F
:100FF00017B80648EEE70648ECE70146054800F05A
:1010000097FAE9E786C4000004C50000ACC40000FC
:10101000C6C40000E1C4000001460068FFF7D0BF6D
:10102000052810B50CD00AF0C7FB60B10AF0C4FB6C
:101030000C4B0D49002808BF19460C4800F078FAFF
:10104000FFF7A4FFFCE70AF0C7FB0028EED1084C2D
:101050000848A16800F06CFAA068BDE8104000F0F4
:101060000BB800BF44C5000040C5000055C50000D6
:10107000341D002075C5000038B505464FF020032B
:10108000EFF3118483F311880AF018FC0B4B9B6873
:101090009D420DD10A4B5A68C2F3080222B90AF0E8
:1010A00085F92046FFF738FD5A6842F080525A60B1
:1010B0002046BDE838400AF0B5B800BF341D002016
:1010C00000ED00E000B572B60B4A906900281EBF23
:1010D0000021916109F078FD62B6EFF30580A0F17F
:1010E00010004FEAC0000549014409C998475DF85E
:1010F00004EBFFF7EFBC0000341D0020DC00000013
:10110000202080F3118805484FF40061401880F3D7
:101110000988022080F3148800F006B8C04100203E
:1011200030BFFFF7FDBF00BF08B5074B074A23F0EC
:101130007F039360BFF34F8FBFF36F8F09F08AFD7A
:1011400009F092FD09F0B8FD0000000000ED00E09C
:1011500008B5FFF7E5FFBDE80840FFF7BBBC00009E
:10116000154B16491A6830B50D68C2F3072295422F
:101170000FD8002248685A60954200F10C000AD14D
:1011800005225A600E4B01221A70BFF34F8FBFF336
:101190006F8F002030BD50F80C1C50F8044C9A6042
:1011A00021F01F0141F01001114344F00104D96006
:1011B00001321C61E0E700BF90ED00E0C44D00206B
:1011C00034000020002070470B6801330B60014B96
:1011D0001B6818470C4E00202DE9F04F85B09B4648
:1011E0000E9CDFF890A0012CB8BF0124012B0CBF8E
:1011F0003023202315468046894601940293012618
:101200000A2700220AF101040AB9AA451FD2B5FB38
:10121000F4F049463030C04701360122013F012F2A
:10122000B5FBF4F14FF00A0304FB1155BAFBF3FAD6
:10123000E8D1494605F13000C047BBF1030F03D1A7
:10124000019B9C1B002C0FDC05B0BDE8F08F019BBF
:10125000BB42E3DBBBF1020FE0D8494602980392A0
:101260000136C047039AD9E749462020C047013CD0
:10127000E8E700BFFFC99A3B0A688B6830B512B136
:101280004C68A34202DB01338B6030BD651EAB426C
:101290000BBF8C605C1C00218C600CBFD154D054FF
:1012A00030BD0000014B1860704700BF0C4E00209D
:1012B0002DE9F04F89B04FF0000A06460F46049220
:1012C0001C464FF0FF39D0465546049B187810B99C
:1012D00009B0BDE8F08F45B9252800F00C813946EA
:1012E000B047049B01330493EFE7642861D019D819
:1012F00039280AD8312850D22D283CD030283DD06A
:10130000252808D13946B0476FE0582800F0898079
:10131000632800F0EA8039462520B047049B39460F
:101320001878F0E7702872D006D8692841D06C2868
:101330003CD06828D5D0EEE7752858D017D8732848
:10134000E9D1236804F1040B1C46254615F8010B6E
:10135000002840F0BF80B8F1030F40F0D580E41AB8
:10136000A9EB0404002C00F3BB805C463DE0782828
:1013700057D07A28DEE74FF00308B2E7B9F1000F43
:101380000EDAB8F1000F00F0BC80A0F13009B8F11E
:10139000000F08BF4FF00208A3E7B9F1000FF4DB1C
:1013A0000A2303FB0909A9F13009F0E70AF1010A50
:1013B00097E7BAF1010FC5BF073424F0070325688A
:1013C0001D68D4BF043403F10804002D05DA394642
:1013D0002D20B0476D4209F1FF39CDF8009043460A
:1013E0002A4639463046FFF7F7FE002579E7BAF17D
:1013F000010FC5BF073424F0070322681A68CDF82F
:101400000090CCBF03F1080404344346E9E73946B1
:101410003020B04739467820B0474FF008094FF0E8
:101420000108BAF1010FC7BF073424F0070323688E
:101430000593C2BF03F108041B6805934FF008022F
:101440004FF00003D8BF04340393079393460BF186
:10145000FF3B059B4FEA8B0023FA00F010F00F00D2
:1014600009D1079B13B9BBF1000F22D14FF0300E09
:1014700007E0069AEBE709288CBF4FF0570E4FF0B4
:10148000300E394670440692B047039B07950133EE
:101490000393BBF1000FECD1B8F1030FA5D1039B6F
:1014A000C3EB4905002DA0DD39462020B047013DA2
:1014B000F8E7531E91450693EBDBB8F1010F03D11A
:1014C00039463020B047E4E7B8F1020FE1D13946A0
:1014D0002020F7E7394603932C46B047039B34E7B7
:1014E00039462020B047013C3CE72068251D39469D
:1014F000B0472C4679E7AA46A8464FF0FF390125A8
:10150000EFE64FF00108ECE65C460546E9E6000030
:1015100013B502AC002344F8043D02460B460348D1
:101520002146FFF7C5FE019802B010BDC9110000A9
:101530000FB407B504A951F8040B0191FFF7E8FFB8
:1015400003B05DF804EB04B0704700000CB430B594
:1015500085B008AB044653F8042B01900291002596
:1015600001A9074800930395FFF7A2FE0398029B89
:101570009842B8BF255405B0BDE8304002B070476E
:10158000791200007047000013B5114CBFF35B8F58
:101590002068BFF35B8F60B90E4809F0DDFABFF336
:1015A0005B8F54E8003F44E80002002AF9D1BFF302
:1015B0005B8F436804221B680DEB020198470028EB
:1015C00002DA00F01BFD0190019802B010BD00BFCF
:1015D000380000209AC500000A2838B50446074D97
:1015E00004D1286843680D215B68984728684368E0
:1015F000E1B25B689847204638BD00BF3C00002040
:101600000148FFF74FBE00BFD915000008B50448D8
:1016100009F0A2FA034B1860FFF7F2FF002008BDA3
:1016200030C100003C00002010B54FF02003EFF364
:10163000118283F31188114C237823B982F3118826
:101640006FF0440010BD013BDBB2237023B182F385
:1016500011886FF00F0010BD094B1878012128B1D7
:10166000217082F311886FF00A0010BD197082F3A7
:1016700011884FF080425160187010BD4200002068
:101680004100002008B5002210460121FFF728FC88
:101690000020FFF7F3FB002008BD0000F8B54FF075
:1016A0002002EFF3118382F31188254A1078441C3D
:1016B000147060B183F311884FF08043D3F80C3479
:1016C00013F4803F14BF00206FF04300F8BD1D4DA0
:1016D0002F782FB1107083F311886FF00A00F8BDD6
:1016E00001262E7083F311884FF0804419B33846D9
:1016F000FFF7D4FBC4F80071D4F80433C4F80463D2
:101700002660D4F8002192B10022C4F800210E4ACC
:1017100013F0010F4FF0010308BFC4F80833002095
:10172000C2F88031FFF7AAFB00232B70C4E720BF6B
:1017300040BF20BFE5E7C4F800112660F4E700BF12
:10174000420000204100002000E100E0F8B506461C
:101750000C464FF02002EFF3118382F311882C4ADC
:10176000157865B183F311884FF08043D3F81834AE
:1017700013F4803F0CBF6FF043000020F8BD012739
:10178000177083F311882846FFF788FB4FF08043DA
:101790000221C3F80451D3F80423C3F80413C3F897
:1017A00018459F60D3F8041171B39207194F58BFC1
:1017B00002224FF000014FF00105C3F804114FF071
:1017C000000058BFC3F80823C7F88051FFF756FB45
:1017D0004FF0804300211822C3F80823C3F80C11EE
:1017E000C3F8101114F00301BED11020C3F838055E
:1017F000C3F804233046C3F80453FFF74FFF002813
:10180000B2D1C7F80051AFE720BF40BF20BFC9E742
:101810004000002000E100E0F8B54FF080430546AD
:10182000D3F808E1D3F80423D3F80C44D3F80071BB
:10183000D3F80401D3F80C11D3F8106102F00102BF
:10184000BEF1000F03D04FF0000EC3F808E127B13E
:101850004FF080430027C3F800713AB1E30341BF62
:101860004FF080430122C3F808231A6120B14FF0E2
:1018700080430022C3F8042149B14FF08044002185
:10188000C4F80C112846FFF7CFFE0123636176B13F
:101890004FF0804300210124C3F810112846C3F8FB
:1018A0000443FFF7FBFE10B9014BC3F80041F8BD3C
:1018B00000E100E00368DB689A68836810B5DC68C3
:1018C000002024FA00F3DB0707D500F5A27352F8D5
:1018D0002330C3F304238B4204D001300828F0D115
:1018E0006FF0120010BD0068C068006841B9D0F800
:1018F000101521FA02F202F001021A60002070476E
:10190000D0F81025F9E70068C068006849B90121DE
:1019100091401BB1C0F8081500207047C0F80C15A5
:10192000FAE7C0F80435F7E710B583683AB11A68EA
:101930000A605A68196002B95960002010BD186821
:101940000028FAD081420ED15C68086832B9A14201
:10195000186000D1586000230B60EEE7A1421060D0
:1019600008BF5A60F7E702460068E9E7F8B5144691
:1019700002688768D2680D469668A1B92146FFF7CC
:1019800099FF002811DBBA68012303FA04F4144319
:1019900000F1400203FA00F0BC6046F82250C6F89D
:1019A00004032846F8BD6FF02200F8BDF8B51446D0
:1019B00002688668D2680D46976889B92146FFF7A4
:1019C00079FF00280EDBB268012303FA04F403FA5E
:1019D00000F022EA0404B460C7F808032846F8BD02
:1019E0006FF02200F8BD08B5002201210620FFF7A4
:1019F00077FA0620FFF742FA002008BDF8B5036821
:101A00000646DB68B468986800221346154601272D
:101A100000EB8201D1F800E1BEF1000F08D0C1F85F
:101A20000051D1F81015C1F3042107FA01F10B435D
:101A30000132082AECD1A56806201D40FFF72EFAD6
:101A4000246824B90620BDE8F840FFF717BAA36858
:101A50001D42F5D063682A46214630469847EFE795
:101A60002DE9F843144602688768D2688046956875
:101A7000106819B16FF02200BDE8F88303F44072DA
:101A8000B2F5807FC3F30131C3F3813903F4403EE3
:101A900056D0B2F5007F0CBF04220022BEF5803F75
:101AA00008BF4FF0000E13F0010FDFF8C8C04FEA77
:101AB000810104F5E0764ED00C2A43D14FF0010E9F
:101AC0000EFA04FEC0F808E549445CF8211041F024
:101AD00003010A4340F8262013F0020047D099067C
:101AE000C8D55A063ED413F0040F14BF4FF4803605
:101AF0004FF40036F868FEF7A5FB082835D02146DC
:101B00004046FFF7D7FE0028FB6808DADA4392FA6E
:101B1000A2F0002AB0FA80F008BF4FF0FF30240294
:101B2000012204F4F854824044F0010400F5A2704C
:101B300013433443FB6045F820400020BDE8F883A0
:101B40000C22ABE7042A02BF4FF0010E0EFA04FE8E
:101B5000C0F80CE5B8E749445CF821100A4342EAB2
:101B60000E02B7E74FF44036C4E76FF00400BDE85B
:101B7000F88300BFBCC50000014BC3F804037047E5
:101B800000600040024B0022C3F87C21704700BF78
:101B9000006000400368DB681B68D3F8082132B19D
:101BA0000020C3F80801D3F818350B7070474FF0C8
:101BB000FF3070470368DB681B68C3F81C15D3F857
:101BC0001C21002AFBD00022C3F81C2108467047C4
:101BD0000368DB681B68D3F8240118B1D3F88004CC
:101BE000C3F8800400F00F0070470000F8B50368E8
:101BF000DB68054618481C6808F0AEFF43680646D7
:101C00001F68062240F201130021B84773681F685D
:101C10000023194608223046B8470623C4F80C357D
:101C20000823C4F81435AB684FF4E1321A602B680E
:101C3000DB681B684FF0EB72C3F824250423C4F85B
:101C4000003500200123C4F81C01C4F80801A3607A
:101C50002360024B6B60F8BD09C100002CC6000078
:101C60002DE9F0418378C4781E1DA3420A4406443E
:101C70001FD8E41AE4B2A1423EBF641AE7B20C4690
:101C80002344A1EB040128BF0027DBB2C9B23444CE
:101C9000A64209D183704378BB4282BF204B012208
:101CA0001A600846BDE8F08116F8015B02F8015D94
:101CB000EEE70578ED1AEDB2A9423FBF671AED19BC
:101CC000EFB20D4638BF5B18A1EB050132BFDBB2A6
:101CD00027460023C9B2964606EB050C664519D186
:101CE000521B0029D6D0002CD4D08C428ABF0B4680
:101CF0002346641A00F10406A1EB03018CBFE7B28E
:101D00000027C9B2F418A642C4D016F8015B02F845
:101D1000015DF8E716F8018B0EF8018DDEE700BFD4
:101D200000D0004030B5D0B1C27805788478531C1B
:101D3000DBB2AB4208BF0023A34210D061B10A4915
:101D40000244D1F808151171C3700133DBB29D4212
:101D500008BF0023A34205D06FF00F0030BD6FF025
:101D6000360030BD002030BD00D0004070B5846822
:101D700001221146204609F043FB04F1180001221C
:101D8000002109F03DFB042384F831300C230025A9
:101D900084F83D300521114B84F830100D2684F86D
:101DA000335084F8325084F83C6084F83F5084F813
:101DB0003E50D3F8042542F00102C3F80425012265
:101DC000C3F800513046C3F804231A602A46FFF7CF
:101DD00087F83046FFF752F8284670BD00D0004023
:101DE00038B5124BD3F80031FBB18568012105F1FC
:101DF0003C00FFF797FF10F1100F04460DD010F1D3
:101E0000370414BF0021012105F13000FFF78AFFDC
:101E1000044605F1180009F0FDFA044B00221034C5
:101E2000C3F800211CBF01225A6038BD00D0004019
:101E30002DE9F84385680F46144605F1180814B9D2
:101E40002046BDE8F883FF2C234628BFFF23E41A71
:101E5000DEB2A4B205F130094FF0FF31284609F097
:101E600039FB31463A464846FFF7FAFE0646284611
:101E700009F0D0FA002EE2D04FF0FF31404609F0D1
:101E800029FBE9E7134602480A461946FFF7E8BE70
:101E900090000020084BC3F84005D3F80435C01A61
:101EA00020F07F40054B0238984282BF044B4FF42C
:101EB0000032C3F80021704700100140FDFF7F0091
:101EC00000E100E010B5124B124CD3F80405226873
:101ED000801A20F07F40B0F5A37F11D90E49096820
:101EE00040F24713B0FBF3F0884228BF084603FBDB
:101EF000002323F07F432360084B186009F012FB96
:101F00002068BDE8104000F24710FFF7C3BF00BFD4
:101F100000100140A8000020A4000020485000202C
:101F2000024B0022C3F84021FFF7CCBF0010014054
:101F300046F23543984228BF1846054B1860054BBA
:101F40001B6840F2471202FB0030FFF7A3BF00BF3F
:101F5000A4000020A800002008B5074B0022C3F809
:101F60004021064B4FF40032C3F88021FFF7AAFF4F
:101F7000034B01221A6008BD0010014000E100E09F
:101F8000A400002070B5184808F0E6FD48B3436887
:101F9000164D1B6801219847154B00241C60154BFA
:101FA00001261E6040F24713C5F80845C5F84035C4
:101FB0004FF48033C5F84433C5F804330E4BC5F8ED
:101FC00040414FF40032C3F88021314622461120AF
:101FD000FEF786FF1120FEF751FFAE6020462E600F
:101FE00070BD4FF0FF3070BD10C100000010014007
:101FF000A8000020A400002000E100E030B50B4A5A
:102000000B48D2F80415D0E90045D2F804359942BE
:102010000AD1084A40F2471303FB1413106823F057
:102020007F4300FB043030BD1946ECE7001001404F
:10203000483400204C50002000B5BFF35B8F50E8BF
:10204000003F43EA010240E8002EBEF1000FF6D146
:10205000BFF35B8F18465DF804FB00B5BFF35B8FE1
:1020600050E8003F03EA010240E8002EBEF1000FF5
:10207000F6D1BFF35B8F18465DF804FB70B50646DA
:1020800088790D4608F052FC0E4B834219D1284640
:1020900008F052FC284608F04FFC0B4C04EBC00043
:1020A000436873B1284608F047FC04F830602846BE
:1020B00008F042FC04EBC000BDE87040406809F045
:1020C000A9B970BD44510020B0000020074BBFF3F8
:1020D0005B8F420903EB820300F01F001B6FBFF30D
:1020E0005B8F43FA00F000F001007047184E0020AB
:1020F0002DE9F047804689461348144D4FF0FF31D3
:1021000008F0A8FC044600F108060021304600272C
:1021100008F0A6FC2775204608F00EFC05EBC00071
:10212000A0F80280204608F007FC05EBC000032160
:102130004760304608F0D8FC80F80290A0F8008094
:102140002046BDE8F08700BF44510020B0000020C9
:1021500070B5154686B00C4619B9FFF7C9FF04469D
:1021600068B301220021684609F04AF9204608F0C8
:10217000E3FB144E06EBC000C0F804D0204608F084
:10218000AFFC2146104808F06FFC42F2107168461F
:1021900009F0A0F9204608F0CFFB16F8300030B166
:1021A000204608F06FFC6FF0040006B070BD0DB162
:1021B0002C60FAE7204608F065FC2846F5E76FF04A
:1021C0003600F2E7B0000020CC4E002070B5154D6F
:1021D000062205F108010646FEF7CFF90446D8B1FC
:1021E000062142F20500FFF783FF0446B0B1062244
:1021F0003146083008F07EFC2146002242F20500FC
:10220000FFF7A6FF044638B90622314605F108005B
:10221000FEF7C8F90123EB71204670BD6FF036045C
:10222000FAE700BF184E002038B50221054642F2F9
:102230000C00FFF75DFF044620B30221083008F0D0
:1022400053FC012D014614D10A20FFF73FFF4870CF
:102250000D700022214642F20C00FFF779FF044680
:1022600028B9012D08D180210848FFF7E5FE204656
:1022700038BD00234370EBE76FF080010348FFF7A0
:10228000ECFEF4E76FF03604F1E700BF884E002063
:1022900008B50820FFF71AFF014640B90720FFF7ED
:1022A00015FF20B10846BDE80840FFF7BDBF00207C
:1022B00008BD012310B50621044600F8013B01F0DA
:1022C00019FC18B9A37963F03F03A37110BD000096
:1022D000F0B587B004AA002140F60340FFF738FFAD
:1022E0000446002840F04981049B9B681B786BB929
:1022F000B64A1360B64BBFF35B8F012253E8001F51
:1023000043E800200028F9D1BFF35B8F049808F060
:10231000B9FB04AA002141F20300FFF719FF0446AC
:10232000002840F02A81049BAA4D996808220131B7
:1023300005F11600FEF736F9049808F0A3FB2146D4
:1023400004AA41F20100FFF703FF0446002840F011
:102350001481049883685A78AA73D9789A7842EAE3
:1023600001222A821A79EA73197ADA7942EA012279
:102370006A825A799B7942EA0323AB8208F082FB96
:10238000214604AA41F20900FFF7E2FE04460028B4
:1023900040F0F380049B996806220131681CFEF727
:1023A00001F904982C7008F06DFB214604AA41F253
:1023B0000200FFF7CDFE0446002840F0DE80049BBB
:1023C00099684022013105F11E00FEF7EBF80498F0
:1023D00008F058FBAB7E580640F13F81214604AA25
:1023E00042F20300FFF7B4FE0446002840F0C58027
:1023F000049B99680822013105F17800FEF7D2F8B4
:10240000049808F03FFBAB7E990640F19B8095F85D
:102410003A301A0700F1B480082142F20100FFF7B8
:1024200067FE0446002800F094800821084408F064
:102430005BFB95F8403003F00603062B14BF022324
:102440004FF4C173002203701B0A43708270C27084
:10245000027142718271C271214642F20100FFF79E
:1024600077FE0446002840F08880082140F60140AD
:10247000FFF73EFE064600286BD00821084408F00E
:1024800033FB80234370022720230470847004717F
:1024900044718471C770C3712246314640F60140D1
:1024A000FFF756FE0446002867D1014604AA4FF6FE
:1024B0000140FFF74DFE20BB049808F0E3FA04AAA0
:1024C00021464FF60240FFF743FED0B9049B424835
:1024D00099683A460131FEF765F8049808F0D2FA97
:1024E00004AA21464FF60340FFF732FE48B9049B89
:1024F0003A48996801221144FEF754F8049808F00C
:10250000C1FA0023072202A932480293CDF80B300A
:10251000FEF733F8002848D1314E3368002B63D1E1
:1025200095F86030DB077AD42A48FFF7C2FE0446EC
:1025300018BB3368002B5FD05E68264A072301462C
:10254000B04759E0022140F66D40FFF7D1FD064645
:1025500010B96FF0360410E00221083008F0C4FA18
:102560000123447003702246314640F66D40FFF768
:10257000EFFD044600283FF44AAF204607B0F0BD07
:1025800004AA002142F21C00FFF7E2FD04460028E5
:10259000F3D10498836853F8012F5B68C5F8843041
:1025A000C5F8802008F06EFA36E70E4B18689A8856
:1025B00004909B79ADF8142004A9072205488DF8F2
:1025C0001630FDF7DAFF0028A6D0D6E7100100206C
:1025D000884E0020184E0020774E0020764E0020B6
:1025E0007823002010BF000000211C681C4A07232C
:1025F0000846A047072893D12B78012B2AD1AB7925
:1026000003F0C003C02B25D11648FFF7DFFD0446B9
:102610000028B2D104211448FFF70EFDADE701AA4E
:1026200000214FF60940FFF793FD00287FF47CAFAF
:10263000019881684B7853B1012306220231094881
:102640002B70FDF7AFFF019808F01CFAD4E708F0F3
:1026500019FA69E76FF015048FE76FF012048CE741
:10266000184E0020194E0020884E002010B5FFF7AC
:102670002FFE044630B902210648FFF7DDFC204654
:10268000FFF706FE044B1B681BB12046BDE8104057
:10269000184710BD884E00200C0100202DE9F04F96
:1026A000067D012E87B0044640F0148187683B7890
:1026B0000E3B012B00F21381404080F311884FF054
:1026C000040002DFA6689D486FF01001FFF7C5FC0B
:1026D000337843B9711C40229948FDF763FF082104
:1026E0009648FFF7A9FC974B1D68771C35B9204623
:1026F00008F0C8F9002007B0BDE8F08F32782B68E9
:10270000002A0CBF3846002098476D68EEE78E4DD2
:10271000A0682A68002AEAD0037823B901309047DC
:1027200000232B60E3E70020F9E7284608F0F3F9DF
:10273000DFF834A20390039B002BD8D0A6680921B0
:10274000284608F0E0F9337A31463344072293F8FB
:1027500009B011F8013F023B012B04A82CD8FDF76A
:1027600021FF9DF81030023B8DF81030DAF8003070
:10277000B3B1284608F0D7F9337AB4F80C80A381B6
:102780003278009481462B464FFA8BF104A8DAF890
:102790000070B8472369A4F80C8013FA89F3A3608A
:1027A000317A2846013108F0AEF9039B03F1FF3876
:1027B0005FFA88F30393BEE7FDF7F4FED6E72846F9
:1027C00008F0A9F9614BDFF8A091614EDFF894A100
:1027D00018709B469BF800305A1E8BF80020002B87
:1027E00085D0A7681821284608F08DF902212846CF
:1027F00008F089F9FB7D39463B44072293F816809F
:1028000011F8023F023B012B04A82ED8FDF7CAFEA7
:102810009DF81030023B8DF81030D9F80030FA7D69
:10282000A281002BD6D07B78012B21D13088494F53
:10283000A1685044FDF7B6FEA289A1683846FDF7AD
:10284000B1FE3388A289023B1344338097F8643089
:10285000DD2B02D14048FEF76BFE97F86430EE2B7B
:10286000B8D13E48FEF764FEB4E7FDF79BFED4E71F
:10287000022B4FFA88F823D13088A1685044FDF725
:1028800091FEA289A1683348FDF78CFE3288A389A6
:102890003349023A1A44023B92B20B80284631492E
:1028A000328008F027F9F97D284608F02CF93A78AB
:1028B0000094D9F800702B46414604A8B84789E730
:1028C000032B87D1002140F2DC5250463180FDF7C6
:1028D00095FEECE708F0D6F86FF015000BE700F175
:1028E00008050221284608F00EF93B783E2B7FF4BC
:1028F000FEAEA7683146284608F005F93B78023B52
:102900000B2B3FF6F4AE01A252F823F02B27000068
:10291000EF260000EF260000EF260000EF26000063
:10292000EF260000C52600000F270000EF2600005C
:10293000EF260000EF260000BF270000884E002091
:10294000C600002008010020C000002076230020DF
:10295000C40000207C2300203CC6000041C60000CB
:10296000AC0000209824002010010020F8B5037D61
:102970008668012B044605D0404080F311884FF053
:10298000040002DF8389012BF6D933780E3B012B3B
:10299000F2D800F108050221284608F0B4F833788F
:1029A0000E2B05D00F2B17D0204608F06BF8E3E76D
:1029B000A368032128461E7808F0A5F8A3682146DD
:1029C0001878FFF75BFB16B10A4808F023FD204694
:1029D00008F058F80020F8BDA6680421777828464A
:1029E00008F091F821463078FFF748FB002FEED031
:1029F000EAE700BFA04E0020084AD2F8C4303BB935
:102A0000816841B1C16831B1C2F8C400184670474D
:102A10006FF0440070476FF015007047184E0020AB
:102A200038B50546054808F015F8044620B10021E0
:102A3000083008F015F82575204638BD645100208F
:102A400010B501464FF02003EFF3118083F3118896
:102A50000B4A0023D2F8A040C2F8A03080F31188BE
:102A600024B90120BDE81040FFF7DABF012204F1CC
:102A700008002275A381194607F0F2FF204610BD19
:102A8000184E0020F7B51860C31D054623F0030358
:102A9000501E0E4680B214461A800021042206FB06
:102AA0000050FDF7ABFD023CA4B24FF6FF77BC42ED
:102AB00001D103B0F0BD04FB06602B180422801B7B
:102AC0000DEB02012844013C0193A4B2FDF76AFD1D
:102AD000EDE773B50568064695B1EB1D23F00303DA
:102AE00004221C8829460DEB0200FDF75BFD019BCB
:102AF000013CA4B21BB1DA1D22F003021480336042
:102B0000284602B070BD70B50C6806460D461CB173
:102B1000E31D23F003031C88042229463046FDF7F9
:102B200041FDF21D22F00302631C13802E6070BD74
:102B300002FB01007047401A80B2B0FBF2F0704710
:102B400010B5114401384FF6FF73013A92B29A4220
:102B500000D110BD11F8014D00F8014FF5E71060EC
:102B60000860704710B514682060146861601060D8
:102B700010BD884203D01AB143681360704700202B
:102B800070470B68834209D022B1586810601A68F8
:102B90000A6001E0002BFAD1184670470023FBE7DA
:102BA0002DE9F047114FDFF848900426013EF6B2B8
:102BB000FF2E19D033B24FEA830803EB43031D0104
:102BC00004244FF00C0A0AE01AFB04510A1D04EB1E
:102BD00008003A44394409EBC000FFF7C0FF013C4C
:102BE000E4B2FF2CF0D1E1E7BDE8F08794010020CA
:102BF00014010020F0B4124B05460F460C26302479
:102C000072B1614306FB00142344597A187A814259
:102C100004BF0131197228463946F0BC07F0F2BDF5
:102C20004C4306FB004423449C7ADA7AA24204D146
:102C300001329A72F0BC07F013BEF0BC704700BFBF
:102C400094010020F8B505460E461C468AB10123C2
:102C500062782078801A10F0030729D003B3012F7F
:102C600039D00132D2B222703146284607F0F8FD41
:102C70001CE007F0E3FD0028E9D03146284607F0C4
:102C8000CFFD0028E3D030230C22734302FB053331
:102C9000124A1A44937AD27A9B1A18BF0123D7E7B3
:102CA0000232D2B22270E368A06898470020F8BDD3
:102CB000002BF8D00132D2B222700423302212FB52
:102CC00006320C2313FB0523044A60681A4421468C
:102CD000FFF748FFC8E73846F8BD00BF9401002061
:102CE0002DE9F04F00EB400389B01B014FF00008C5
:102CF000434E049305460424CDF80480013CE4B21D
:102D0000FF2C0BD1019B002B76D0B8F1000F73D1B3
:102D100042462946284607F075FD6DE00DF1200B6F
:102D200000230C274BF8043D4FF0300907FB04F358
:102D300009FB053031185A46496830580293FFF7AD
:102D400018FF049B17FB0437F31982460393BAF16B
:102D5000000F19D130220C236A4303FB04223244B2
:102D6000917AD07A88421EBFD1720122019230221C
:102D70006A4303FB042333441A7A597A91421CBFF5
:102D80005A724FF00108B9E7079B1F785A78BF1AAB
:102D900007F00307012F04D1013A5A709868DA68E6
:102DA0009047079A13785278DBB29A1A02F003021E
:102DB000012A05930DD0029B039909FB053030448D
:102DC00000224068FFF7DDFE079A059BC2F804A0C9
:102DD0005370029B09FB0533F1185A464968F058B5
:102DE000FFF7C7FE012F8246B1D10CB90028B1D040
:102DF0002946284607F034FD09B0BDE8F08F00BF32
:102E00009401002010B5421E00200139C9B2FF29EB
:102E100000D110BD12F8013F002BF6D05C1E01302E
:102E20002340C0B2F8E7F0B5437F05681A46002496
:102E3000FF2A01D10020F0BD02EB82078A4205EB98
:102E4000C70615F8377004D0B3681C4413463A46D9
:102E5000EEE7934200D147771BB203EB830332784E
:102E6000B06805F833203378FF2B06D003EB8303DB
:102E700005EBC3039A6802449A602044F0BD30B564
:102E8000551A15F4000F8368446909D125F07F4273
:102E90001A44A2420ED9121B00248260446130BD44
:102EA0008A1A22F07F42934201D99A1AF1E722440A
:102EB000D41A0022A41A0022EFE7034600221A7057
:102EC0009A6A596208460AB1D96A104770472DE9D3
:102ED000F047857F01230446C377002D4CD1437F03
:102EE000FF2B02D1C577BDE8F08707F033F867699B
:102EF000667FD4F80080C71B27F07F47FF2E06D0DF
:102F000006EB860608EBC6018B689F4218D2A27AB0
:102F1000E37A934205D10133DBB2022B08BF0023D1
:102F2000E372E37A04EB83030122DD600023656A28
:102F3000E377AC46234604210320BDE8F047604711
:102F4000FF1A1D448A784B7818F836609B1ADBB25A
:102F5000012BD3D1D1F80C90013A8A70B9F1000F4E
:102F6000CCD048696369CA8B281A184420F07F4086
:102F70000B69496AC847C1E7BDE8F0872DE9F04F02
:102F8000C27F93B08346002A40F0B583436905931E
:102F90000121837A8177C07A984200F08F800B44B8
:102FA000DBB2022B08BF00238BF80A300BEB830344
:102FB0000191D3F80C80059B434423F07F43CBF869
:102FC00014309BF81D300393DBF800300493DBF8DA
:102FD00004300B939BF80930013BDBB202930023D2
:102FE00007934FF0FF0A029BFF2B6AD19BF81D301D
:102FF000039A9B1A18BF01230293019BE3B1DBF8EC
:10300000003004934FF000099BF81D60FF2E0CD098
:1030100037B2049B07EB870703EBC704A568454558
:1030200040F23681A5EB0805A560029B019A039941
:10303000B14218BF13460293DBF800300893DBF867
:10304000043010939BF80930013BDBB20193019BE4
:10305000FF2B40F070819BF81D30039A9342079B31
:1030600040F040835BB99BF80940DBF804300193E2
:10307000013CE4B24FF00008FF2C40F0A082002396
:103080008BF81E30029B4BB19BF81D30FF2B40F09C
:10309000E98206F047FF08B9CBF818009BF81F300B
:1030A000002B00F02883DBF824405B46012203213B
:1030B0000420A44613B0BDE8F04F6047019290464B
:1030C0007FE70B9B029A03EBC2077B680693F978B4
:1030D000BE788E4200F0D780069B387806EB460219
:1030E00012019D18731CDBB2984208BF0023BB700D
:1030F000069B9A5C032AEBD9052A17D8697801EB5D
:1031000081030A930A98049B03EBC0046378A078B8
:103110001B1A13F0FF0309D0042A0CD16A6852B9B4
:10312000AA6842B9EA6832F07F4204D101212846F8
:10313000FFF7C3FECBE7012B40F09B805846FFF71B
:1031400072FE2B78A060042B064640F08480DBF8EA
:103150001430089306F0FEFE089B0990C31A23F072
:103160007F4343449E4202469EBF6269921B9B1866
:10317000626896BF6361F31A00238AB1A98979B1A5
:1031800001F1FF3E1FFA8EFEA5F80CE09A422BD308
:10319000DFF82493B4F81EC0E64547D8A4F81CE035
:1031A000AA8808991344A360EA8863691344636199
:1031B000099A2046FFF763FEA2692B891344A36195
:1031C0006A8993428CBF9B1A0023A361AB7B03B136
:1031D000E370049B0A9A03F832A0637895F801A083
:1031E000013363700021A2E7B4F81EC0E645CFD2D8
:1031F000616AAF4EAF488E19864281BF01F1E87116
:1032000001F5D43101F5A5716162666A216A8CBF4E
:103210004FF001094FF00009761A91440CF1FF3C80
:103220006662A3EB0903A4F81EC0AFE7666A216AD1
:10323000A0480E449E49711881428EBF0021012191
:103240004E4411440CF1010C8CBF666266620B4463
:10325000A4F81EC09EE7A37863706B789BF81C20CF
:103260009A4201BFFF238BF81C300023CBF81830A3
:10327000B8E704215B46DBF8244001220846A0475A
:103280000123BE700793029B013BDBB20293AAE6C7
:10329000DBF818309D4229BFFF235B1B8BF81C30E5
:1032A0000023CBF81830A369A9441BB18BF81C602C
:1032B000CBF818300022049BA26013F837308BF84B
:1032C0001D30D4F804E0BEF1000F30D0A08BDFF841
:1032D000E4C1636A216A0B447549591861459FBF6F
:1032E000A3F1E873A3F5D433A3F5A573636292BF8A
:1032F000019B63620023734410F1FF301A44E8D24B
:10330000059BA260DBF8141003EB09022046FFF7CF
:10331000B6FDA38BE3830023E370049B03F837A07F
:10332000637801336370A8EB0508B2466CE6A378B6
:1033300063705646F7E7109B019A03EBC2030493B0
:103340005B680A93049B93F80190BAF1FF0F00F0B9
:103350008E800FFA8AF303EB8303089AD04612F8A3
:1033600033A002EBC3040025DBF800300B93FF23EE
:10337000A28B2370E38B934286BF9B1A9BB20023E0
:103380000C930FFA88F303EB8303DB001193119B7B
:10339000DBF80020DBF81800059002EB030EFF209D
:1033A0009BF81D30DEF8081009930690FF2B07D01C
:1033B00003EB830C02EBCC06B068814200F2A980DB
:1033C000DEF818000D9001EB000C1E46FF2E40F0B9
:1033D000AE800D9830B105988142C0F0BF80FF2EBD
:1033E00040F085810998CEF80810834218BFBDF9D6
:1033F00024008EF8003016BF00EB80008BF81D8093
:1034000002F83080FF2B06D003EB830302EBC303EB
:103410009A68511A9960A378013363700021002DD6
:1034200093D02846FFF749FD8FE709EB49030A9A35
:103430001B01D51809F101025FFA82F9049A12788A
:103440004A4508BF4FF000090A9AD35C032B0ED1FE
:1034500095F80180089B08EB880403EBC4046278AC
:10346000A3789A4209D001212846FFF726FD049B44
:103470009B784B45D9D1019BE6E5EB68DBF814104E
:1034800063602B692362AB8AA383AB69A361EB6999
:10349000E3602B6A23610026AB68A36066616A68FB
:1034A0002046FFF7ECFC01236662E683E3705BE7EE
:1034B0005A2B17FF592B177FB6562EFE606800282F
:1034C0007BD0626A216A8D4B0A448D49D3188B42A6
:1034D0009CBFA2F1E872A2F5D432A3688BBF6262EE
:1034E000A2F5A57200226262034498BF0122134430
:1034F000E28BA3600132E283626993424FF00001E4
:1035000089BF9B1AD31AA36061619CBF6361A160EC
:103510003DE7B669091A46B9059FB84200D23E1A7E
:103520000993059612F83C3040E70693F8E730B26D
:1035300000EB800002EBC0070E97BF680F9767454E
:103540000AD20E9FBF69002F7FF443AF0F9EACEBF2
:10355000060C12F8306039E7FF263AE7069B9845DB
:103560003FF459AF069BFF2BA8D01E4633B203EBA6
:1035700083030593059A0B9B03EBC207FB8BBA8B66
:10358000934288BF9B1A7A688CBF9BB20023002AA3
:1035900094D00C9A934291D8FA78E3789A428DD2DB
:1035A00031465846FFF73FFCBB787B70059A0B9B72
:1035B000B86003F832A0B246E9E601212FE7019B8B
:1035C00003EBC4056E686B78EA789A4202D1013C3D
:1035D000E4B251E503EB43031B01F218F35C012B4A
:1035E00025D0022B2AD1D2F804C093689CF80000A1
:1035F000D2F80C90DBF800E0FF2804D01968DBF863
:103600001470B94223D0DBF814009BF81D10186029
:103610000023FF2907D001EB810A0EEBCA0087695E
:103620008068DFB103448CF80010C9F80030936A59
:10363000C2F8248013B1D16A002098476B782A78A9
:103640000133DBB29A4208BF00236B70BBE700EB8B
:103650008000D9F800301EF83010DAE703441EF875
:103660003A10D6E7039BFF2B07D106F073FC044604
:1036700006F04AFC08B9CBF814409BF81D30DBF883
:10368000002003EB830302EBC3030A269D6806F0C8
:1036900061FCDBF81440031B23F07F430333AB4290
:1036A0002CBFE418641924F07F440746DBF8283067
:1036B0002046984706F04EFCC01B20F07F40E41BDC
:1036C000033024F07F44A0427FF6E8AC013EDED117
:1036D000404080F311884FF0040002DF00238BF894
:1036E0001E30D1E4002BF9D101230293BBE4B04595
:1036F0007FF43CAF8FE613B0BDE8F08F5A2B17FF75
:10370000592B177FF0B51A4D059F9DF818402C26B0
:10371000464305EB060EAA518EF8081007998EF85D
:103720000930CEF80470013BDBB2FF2B11D1ECB9AC
:103730002C2202FB005208991162099951620A99E0
:10374000916253771377946154619472D4722046D6
:10375000F0BD1AB207EBC206716017F8322002EB17
:103760004206A41A01EB0611E4B2DCE70120F0BD29
:1037700054020020074A2C2100FB012310B45C6A8C
:103780002CB1A44601220321022010BC604710BCCA
:10379000704700BF540200202DE9F047254F4FF03D
:1037A0002C08814608FB00700FFA81FCD0F804E079
:1037B0000EEBCC061EF83CE0F478651CEDB2AE458D
:1037C00098BF002596F801E0AE452FD0D6F804C08A
:1037D00004EB44044FEA041E0CEB0E044FF0030A02
:1037E0000CF80EA06360089BA360099BE3600A9B32
:1037F00023610C9BA361BDF82C30A3820D9BE36178
:103800000E9B2362022363620F9BA362109B627074
:10381000E362F570456A036A0846984709FB087336
:1038200000220421A847606ABDE8F0870120BDE8B6
:10383000F08700BF540200202DE9F047DFF89080A8
:103840004FF02C0A0AFB008E0FB2DEF804508146BE
:1038500005EBC70015F83750C478661CF6B2B542C0
:1038600098BF00264578B5422FD0D0F804C004EBAD
:10387000440425010CEB050404270CF80570A38013
:10388000BDF82030E380BDF824302381BDF8283016
:103890006381BDF82C30A3819DF83030A3730223DF
:1038A00063620D9BA3620E9B6270E362C670DEF8DA
:1038B0002030DEF824500846984709FB0A8300228E
:1038C0003946A847606ABDE8F0870120BDE8F08767
:1038D000540200202DE9F047DFF86C904FF02C0ADD
:1038E0000AFB009E8046DEF804000EB200EBC6071D
:1038F00010F83600FC78651CEDB2A84298BF002590
:103900007878A8421DD0786804EB44042401061995
:103910004FF0050C00F804C07270B3620222089BDD
:103920007262F362FD70DEF82030DEF82440084653
:10393000984708FB0A9300220421A047706ABDE85B
:10394000F0870120BDE8F087540200202DE9F04700
:10395000DFF878804FF02C0A81460AFB00800FFACE
:1039600081FE456805EBCE0715F83E50FC78661CD5
:10397000F6B2B54298BF00267D78B54223D0D7F87D
:1039800004C004EB440425010CEB05044FF0020EC7
:103990000CF805E0A360089BE360099BA362FF2588
:1039A0000A9B62606570C4F824E0E362FE70456AB9
:1039B000036A0846984709FB0A8300220421A847A6
:1039C000606ABDE8F0870120BDE8F087540200205E
:1039D0002DE9F047DFF86C904FF02C0A0AFB009EAF
:1039E0008046DEF804000EB200EBC60710F8360081
:1039F000FC78651CEDB2A84298BF00257878A842F3
:103A00001DD0786804EB4404240106194FF0010C22
:103A100000F804C0FF20707002207062B262F3628E
:103A2000FD70DEF82030DEF824400846984708FB99
:103A30000A9300220421A047706ABDE8F0870120A4
:103A4000BDE8F087540200202DE9F041084C2C25F8
:103A500005FB004306465F6A1B6A0846984706FB5B
:103A60000543BC4600220421BDE8F041604700BF89
:103A70005402002006F06EBA401A20F07F407047D2
:103A800008B50346012B08460ED833B119B10622FA
:103A90000649FCF787FD054808BD19B1062204490F
:103AA000FCF780FD024808BD002008BDB2020020DE
:103AB000AC02002070B506460D4604F045FE0446F3
:103AC00010B10C24204670BD04F054FE10F0060F17
:103AD000F7D1062229461EB10248FCF763FDF1E743
:103AE0000148FAE7B2020020AC0200200023037074
:103AF0000B707047F7B507460E460C46351B3D4424
:103B00008CB1FDF741FD032C019007D904220DEB88
:103B100002012846FCF746FD043CEFE7224601A9D6
:103B20002846FCF73FFD002003B0F0BD08B5024871
:103B3000FEF762FF002008BD68C6000010B583894B
:103B400004465BB1037D4BB900F062FA08B1FEF7A1
:103B50000DFF204606F096FF002010BD6FF0150007
:103B600010BD000073B51C4D00264FF0FF312846F4
:103B700007F001FA044618B300F000FE0228019491
:103B800021D801280EBF00214FF0FF310120FEF7A0
:103B900047FF044618B10146019800F061FD019B02
:103BA0000021D88804F0ACFE02A850F8043D1E6045
:103BB00004F046FE24B1A389204653B1FEF76EFD02
:103BC00007F084FBD1E7404080F311884FF00400F8
:103BD00002DF06F057FFF3E73451002037B50C4CF5
:103BE0000C4D0DF1020101A804F0F2FD0028F8D1FE
:103BF000019B33B105F0B6FA0199284607F097F911
:103C0000EFE74FF0FF31204607F064FCE9E700BF23
:103C10001C5100203451002010B5144886B005F026
:103C200045FB0446F8B900F0C9FD6FF009030393A2
:103C30004FF4E0720E4B0F490594049402940194E2
:103C400000940D4807F01CFE6FF0070303930594E2
:103C50000494029401940094084B094909484FF4D4
:103C6000806207F00DFE204606B010BD1C510020FA
:103C7000DD3B0000C0360020DC2A0020653B000050
:103C800080380020742A0020C0F307230870000C3D
:103C90008870000A4B70C870704738B508300D4600
:103CA0000221144606F020FF0570447038BD000064
:103CB00038B504464FF0FF300D46FEF7C1FEEA1C52
:103CC0002060D2B20E21FFF7E8FF20680321083000
:103CD00006F00AFF01230370054B1B88A0F8013092
:103CE000206829460830BDE8384006F0FDBE00BF18
:103CF000B802002070B50446154601320E4608345D
:103D0000D2B23E21FFF7C9FF0121204606F0ECFEAA
:103D1000067029462046BDE8704006F0E5BE00006A
:103D2000F7B501238DF8013003238DF80230FF230E
:103D30008DF803308DF8053002238DF80630254BC1
:103D40000746104604228DF80420D3E90023002200
:103D500003F00053002413438DF8004038D01E4B6D
:103D6000D3E90023002302F00202134330D03B7852
:103D700003F00F03012B7B781CBF9C1FE4B2194496
:103D800004F10B028E7AD2B20221FFF7B3FF0123B6
:103D900003703B7802AA03F00F031344394613F86B
:103DA000083C437011F8023B0546C3F3801383704F
:103DB00006220330FCF7F6FB0A3505F8014C764283
:103DC00076B2224607F108012846FCF7EBFB2E5598
:103DD00003B0F0BDE04E0020E84E002070B5044670
:103DE0001846134B1646D3E90023002203F0005374
:103DF00013430D461BD00F4BD3E90023002302F0E1
:103E00000802134313D00B220421FFF773FF08228B
:103E10000470A0F80160033024B9291DBDE870408A
:103E2000FCF7C0BB0021BDE87040FCF7E7BB70BDEC
:103E3000E04E0020E84E002070B503788AB00446BA
:103E40000E4607AD032B20D8DFE803F002191B1D37
:103E500011492846FCF77AFB62780492A278039213
:103E6000E27802922279019262790092A379059513
:103E70000A4A1B213046FDF769FB0AB070BD0849AC
:103E8000E7E70849E5E70849E3E7084A0A21284641
:103E9000FDF75CFBE0E700BF83C60000ACC6000096
:103EA0008AC6000091C600009BC60000A5C600009F
:103EB0002DE9F04F0378154603F00F02072A8DB065
:103EC000064640F08E804278002A00F08A80807892
:103ED000800676D01144341D8A7A0092F278D70792
:103EE00010D50CAFC3F3801307F8243D21460622FA
:103EF0000DF10D00FCF756FB05A9384606F10A0442
:103F0000FFF79AFFF278900748BF063412F00809CD
:103F10005ED067784FEA171A07F0F007402F53D0AA
:103F2000A7F120014F424F414FF00009A346023450
:103F300012F010031CBF012303345206B278019320
:103F4000C2F305017278A2EB0102D2B202F1FF388E
:103F500002F11802D2B228464FF00D0148BF0134D9
:103F6000FFF7C8FE01225FFA88F805460270019B40
:103F7000B9F1000F3FD0CBB38270F378DB0708D5DF
:103F80009DF80C30EB7006220DF10D01281DFCF799
:103F900009FB07236B7085F80CA09BF8013085F8AE
:103FA000188003F0F00305F11906402B4246214624
:103FB00030460FD1FCF7F6FA424621461148FCF78D
:103FC000F1FA0DB0BDE8F08F4FF001090027ADE721
:103FD0004F46ADE7FCF7E6FA009B5B4206F8083077
:103FE000EFE72A463046FFF79BFEEAE7002FC4D1F1
:103FF0000223AB70C1E7002FBFD0002BBDD003233D
:10400000F7E700BF442B002003460068596870475B
:10401000F0B5818997B00025022904460B9502D896
:10402000002017B0F0BD8368C54E1A7858789B7889
:1040300042EA00228B423280F2D8032104F10800C8
:1040400006F061FD3388C3F309029B0A042B63D099
:1040500007D8032B24D001210BA8FFF729FE012349
:1040600007E2082B00F0E5803F2BF4D1013A092A42
:10407000F1D801A353F822F081440000AF440000BE
:10408000D744000057400000574000001B45000087
:1040900057400000ED440000254500009145000018
:1040A000032A14D008D8012AD5D1A068FFF7ACFFA5
:1040B000A44BC3E9000103E02D2A17D0632ACAD11B
:1040C00001210BA8FFF7F4FD05700B98A9E79D4BA4
:1040D0004FF0FF3041F6FF71C3E900019A4B1F20FA
:1040E0000021C3E9000104F0CFFAE9E7A368042145
:1040F0000BA81D889F78FFF7DBFDAEB20446C21CFB
:104100003946304604F05AFB00280CBF0023022336
:104110002370A4F80150D8E7013A082A9BD801A3DC
:1041200053F822F04941000073410000FF410000B4
:104130005740000057400000574000005740000023
:10414000574000001B42000009210BA8FFF7B0FDFB
:10415000002303708370C3706FF00E034371052357
:10416000092283714FF0FF3342700271C3710372F1
:10417000ABE741210BA8FFF79BFD0021044640223D
:1041800000F8011BFCF73AFAE378207FA17EE27E7B
:1041900063F07F03E370A37963F03F03A371E37AD5
:1041A00043F00403E372E37B43F02803E373237CCF
:1041B00043F002032374E37D43F00403E37594F8B2
:1041C000253063F0110384F8253094F8263060F030
:1041D0003C0043F02003207784F82630607F94F879
:1041E000273040F0080061F0080162F03C0263F003
:1041F0007F036077A176E27684F8273065E70921AE
:104200000BA8FFF755FD00210446082200F8011B0A
:10421000FCF7F4F96023637157E707210BA8FFF758
:1042200047FD0146002301F8013B1846FFF728FC33
:104230004BE7102A00F0A88047D8062A00F0D88063
:1042400022D8022A00F082800ED8012A7FF403AF20
:10425000A068FFF7D9FE3C4BC3E9000101210BA880
:10426000FFF726FD002304E1032A7BD0052A7FF413
:10427000F2AEA1680120FFF71DFC044601210BA846
:10428000FFF716FD047020E7092A00F0DF800BD845
:10429000072A00F07581082A7FF4DDAEA368591C57
:1042A000187805F0E7FAD9E70A2A00F0D5800F2A36
:1042B0007FF4D1AE02210BA8FFF7FAFC00230370B4
:1042C000044605F071FD6070FFE61C2A00F0808056
:1042D00012D8122A65D060D3172A66D0182A7FF424
:1042E000BAAE09210BA8FFF7E3FC002300F8013B5D
:1042F0000821FFF7FFFBE8E6382A00F0A7800DD879
:10430000362A00F08380372A7FF4A5AEA068837830
:104310004278011DC07805F01DFB9FE7392A00F0A7
:10432000AA804B2A7FF497AE03210BA8FFF7C0FCAD
:104330000146002301F8023B0130FFF7D7FBC4E63A
:10434000B8020020E04E0020E84E002004210BA817
:10435000FFF7AEFC002303701B2283700223427020
:10436000C370B2E609210BA8FFF7A2FC00210446A6
:10437000082200F8011BFCF741F90C23637040236D
:10438000A3700123E370A0E601210BA8FFF790FCC6
:10439000044605F00BFD207097E6A06805F01CFDB3
:1043A0006BE7A06805F050FD67E7A06800230CAA42
:1043B00000F1100105F002FE11210BA8FFF778FCB7
:1043C000002300F8013B10220CA9FCF7EBF87CE677
:1043D00009210BA8FFF76CFC0146024601F8015BBE
:1043E0000320FFF751FC2846511DFFF74DFC6CE6FA
:1043F000A468A57BA3796279217920880295657BE1
:1044000001950734009404F0D9FF36E7A46800252D
:10441000B4F80110237AB4F8032020780995667D5A
:104420000896267D0796E67C0696A67C059604955A
:10443000257C0395E579029504F10A050195647AD6
:10444000009405F03BF80221044618E7A368591CC4
:10445000187805F0B5FB01E7A368187805F0F2FBC2
:10446000044601210BA8FFF723FC002C0CBF0023FE
:104470000C23037029E6A368187805F027FCEFE702
:104480000D210BA8FFF714FC02224270C27001221A
:1044900082710B220023C271632203708370037147
:1044A0004371037242728372C37203730DE641213A
:1044B0000BA8FFF7FDFB00210446402200F8011B7A
:1044C000FCF79CF8637863F058036370A37843F0BB
:1044D0000303A370F9E509210BA8FFF7E9FB00210D
:1044E00000F8011B0822FCF789F8EEE55B4B0CAAEB
:1044F00003F12806154618685968144603C40833A2
:10450000B3422246F7D129210BA8FFF7D1FB0023A4
:1045100000F8013B2822294657E7A1680020FFF751
:10452000C9FA9BE64FF08053D3F8A420013206D19C
:10453000D3F8A8304FF6FF729BB2934220D04FF0D1
:104540008055D5F8A030DB071AD518210BA8FFF746
:10455000AFFB00260123044643700670D5F8A40083
:10456000A11CFFF791FBD5F8A830A371C3F3072373
:1045700063F03F03E3711022314604F10800B2E713
:1045800002210BA8FFF794FB0023037043709CE506
:1045900021210BA8FFF78CFB0346002203F8012B17
:1045A0004FF080520446D2F8901001314BD0D2F82F
:1045B0009410013147D0D2F89810013143D0D2F88D
:1045C0009C1001313FD0D2F890001946FFF75CFBF8
:1045D000611DD2F89400FFF757FB04F10901D2F8EE
:1045E0009800FFF751FB04F10D01D2F89C00FFF792
:1045F0004BFB4FF08052D2F88030013304F11103AD
:1046000027D0D2F88410013123D0D2F8881001319C
:104610001FD0D2F88C1001311BD0D2F8800019467F
:10462000FFF732FB04F11501D2F88400FFF72CFBF1
:1046300004F11901D2F88800FFF726FB04F11D01EF
:10464000D2F88C00D1E6102200211846FBF7D6FFE5
:10465000CFE710220021184645E700BFCFC6000073
:1046600070B504468AB02379012B0D4600F108008D
:1046700045D0023B032B76D8DFE803F00208080D93
:104680000A462146FFF74CFB0AB070BD0A46214698
:10469000FFF70EFCF8E7374BD3E90023002203F0C5
:1046A0000053134304F10A0607D0334BD3E9002328
:1046B000002302F48022134310D1237A0AACC3F3FF
:1046C000801304F8243D314606220DF10500FBF766
:1046D00069FF03A92046FFF7AFFBD5E708221321A6
:1046E0002846FFF707FB00230370237AC3F38013E8
:1046F0004370062231460230FBF754FFC4E7E17AEB
:10470000E68809290BD00C2910D007292BD1237B4F
:104710000E2BB9D12B46324600211A2003E0014668
:104720002B4632460020FFF759FBADE7114BD3E98A
:104730000023002302F400621343A5D00822284678
:10474000FFF7ABFA0821681806F0CEF900230370D2
:10475000A0F80160237BC370B4F80D308380B4F8F7
:104760000F30C38090E7404080F311884FF0040081
:1047700002DF00BFE04E0020E84E00200379012B4D
:104780000FD00A2B15D8012000FA03F313F4B06FF1
:1047900012D113F03C0F10D183F0400343F380108B
:1047A0007047037A03F00303032B0CBF022003209E
:1047B00070474FF0FF30704702207047064B4FF0B4
:1047C000FF3041F6FF71C3E90001044B1F200021B7
:1047D000C3E90001704700BFE04E0020E84E002012
:1047E00020BF40BF20BF7047F0B50D4B89B00546D4
:1047F0000E4601AA03F1180718685968144603C445
:104800000833BB422246F7D11B88238008AB1D44E6
:1048100015F81C0C831B5842584109B0F0BD00BF6D
:104820001DBF00000860704718B90B6843F00043D3
:104830000B60704718B90B6823F000430B6070479A
:1048400070B5031D451E00249D4201D1204670BD58
:1048500015F8016F0022A018082AC0B201D1044641
:10486000F2E716F0010F03D00029F0D00139C9B2E8
:1048700076080132EFE7000010B50C4A92F8223DAD
:1048800092F8211D8B4238BF92F8204D92F8211DDD
:1048900038BF1B195B1ADBB298429DBF92F8211DED
:1048A000D2F81C3D53F82100002010BDC0020020AA
:1048B00030B590F85C3090F85D10994228D190F9AD
:1048C0001D30002B26DBC48C828CA0F86440C48D84
:1048D000A0F8622054437D2262434FF47A7492FB25
:1048E000F4F2A0F8662090F86020012565F301023B
:1048F000D2B2002342F00402013980F87050C3663E
:1049000080F8602080F85D1080F85E50184630BD59
:10491000012030BD022030BD2DE9F84F0C789442C3
:1049200081460F4690463DD01F4ED6F8503D33F895
:104930003430038000254FF0020B06F6445A22B2B1
:10494000D6F8500DB9F800E000EBC20130F8322083
:10495000964520D14868012820F003030AD9F3B115
:10496000021D1CD04279D2B1027902F00302013A51
:10497000012A14D8012215444A60EDB213B1514600
:10498000FEF7C1F8013496F8542DE4B2A24208BFF4
:1049900000244445D3D13C702846BDE8F88FC1F8C7
:1049A00004B0EBE70025F7E7C002002010B5094B83
:1049B00093F8F82C824204460AD902464FF48271D9
:1049C000D3F8F00CFEF7B4F810B1038CA34200D07A
:1049D000002010BDC00200202DE9F04186B0022366
:1049E000052805460F4602930ED0062800F08E805B
:1049F00040F28680073880B2FFF7D8FF002800F029
:104A0000D98090E8400110E06B4B9E69D3F81C8080
:104A100002AB00930A46694B03210020FEF75AFFC0
:104A2000022866D0029B002B67D1634CA37C03F065
:104A3000FF00002B64D106AB0222A57443F8102DB1
:104A4000032100932A465D4BFEF744FF022863D002
:104A5000029B002B45D1237C9D4202D0637C9D426A
:104A60003BD106AB022243F80C2D00220093032118
:104A7000524B1046FEF72EFF022807D101221146A5
:104A80000320FEF7B7F8039B022B39D003980028C8
:104A90005ED102230493237C002B31D004AB00931E
:104AA0000122464B20740321FEF714FF022807D190
:104AB000012211460320FEF79DF8049B022B1FD014
:104AC000049A002A36D126F00046B0453ED93C4B28
:104AD00011460320FEF7B6F890B9A37C0BB9012369
:104AE00002930023A374029806B0BDE8F081FFF79B
:104AF00077FE029B022BFAD094E7029B012B94D005
:104B0000404080F311884FF0040002DF2A4BD3F8B5
:104B10001C6CD3F8208C88E7637C9D4204D1012271
:104B200011460320FEF766F8029B022B90D1FFF797
:104B300057FEF9E7049B012BE2D100221146204BDE
:104B40000320FEF77FF802460028D9D11D4BBFE7AE
:104B5000039D012DD4D1FF2F19D006AB022243F8BB
:104B6000042D032100933A46144B0020FEF7B2FEB9
:104B7000022807D12A4629460320FEF73BF8059B69
:104B8000022BBDD0059B13B1059B012BB8D1E37C53
:104B9000002BA2D00C4B04229A6000221146032065
:104BA000FEF750F80028ABD1E37C002B95D0FFF73F
:104BB00017FEF9E7012097E7C00200202548000012
:104BC000304F0020D04F0020604F00202DE9FF47DC
:104BD0007D4E96F82D3203EB03233344044693F8BD
:104BE0002B3003F00F03072B40F0E0802628DFF87E
:104BF000148230D02728DFF810A2DFF8109234D0CA
:104C0000252862D1FDF7FAF9704E714B37681860AC
:104C1000DAF800206F4BC71B4FF47A751F6082FBD8
:104C20000523A2FB0701D9F8002007FB0311D317C6
:104C3000FBF7F0FA684BB0FBF5F01860FDF7DEF912
:104C4000C8F80000FDF7DAF9644A306013780133E0
:104C5000137002209EE0FDF7D1F9604AC8F8000009
:104C60001378013313701A2094E0FDF7C7F95C4BF9
:104C7000DAF800201860D8F800304FF47A77A0EB0B
:104C8000030E82FB0723AEFB0201D9F800200EFBC6
:104C90000311D317FBF7BEFA524BB0FBF7F01860C5
:104CA0004E4B00251D70FDF7A9F996F8693C96F862
:104CB000682CC8F800000133DBB29A4286F8693CE0
:104CC00001D286F8695C502064E0FDF797F9464B05
:104CD0001860DAF800304FF47A7583FB0523CDE9CC
:104CE0000023D9F800301946DA17D8F80030CDE99A
:104CF0000212009AC31A0746A3FB0201019A03FBA2
:104D00000211DDE90223FBF785FA384BB0FBF5F021
:104D100018602E4B1B68FF1A009BA7FB0301019B29
:104D200007FB0311DDE90223FBF774FA304BB0FBFC
:104D3000F5F01860FDF762F92E4B2F4F0021C3E903
:104D400000012E4BD7F800807A68C3F800805A60C3
:104D50002B4BD3E90023821ADAF8000061EB03033E
:104D600080FB0501514300FB0313A2FB0001D9F8AE
:104D700000201944D317FBF74DFA0023B0FBF5F0E0
:104D80003860A0EB08007B60C6F8880C0A2C09D8B4
:104D9000A01C400005F01EFA204604B0BDE8F04714
:104DA00005F01EBA272C09D8E01CF2E726283FF4AC
:104DB0005AAF272887D02528E8D14AE7404080F31A
:104DC00011884FF0040002DFC00200203C310020B7
:104DD000A4310020F8310020183200207810002083
:104DE000A8310020003200200C320020D4310020F5
:104DF00028310020C8310020381000204010002049
:104E000030310020C0310020505000204C50002094
:104E10002DE9F843804C94F82D3294F82E229A42D2
:104E200006D00133DBB2022B08BF002384F82D32F9
:104E300094F8133C94F8142C9A4206D00133DBB258
:104E4000022B08BF002384F8133C94F82D7207EB63
:104E500007272B3704EB0709E35D03F00F03072B4C
:104E60005FD199F80330DD074CBF09F10A0509F15C
:104E700004059A0748BF06351E0748BF0235DA0603
:104E800049D5D4F8842CD4F8603C94F829601344B4
:104E900094F8692CC6F302165A43072EC4F86C2CFA
:104EA00040F0938094F8283003F00703072B7FD15C
:104EB000D4F8700C821A10460021C4F87C2C574A92
:104EC000AE7895F8008000238B4208BF824280F0C4
:104ED0008D804FF496720023FBF79CF926F01F0695
:104EE0006870C0F304203043A87048F0800894F83C
:104EF000293085F80080DB0708D594F8803C013321
:104F0000DBB2252B08BF002384F8803C2B780322DA
:104F100062F305032B7094F829306FF3000384F8D3
:104F20002930484605F0BAF9E35D03F00F03022B80
:104F30006AD0072B68D002239620237505F0B8FAB3
:104F4000002005F025FA94F82830C3F30202D3B20A
:104F500019460020CE0700F101055AD5013B134048
:104F600094F828202E4D63F302022E4B84F828205B
:104F700012F0070F08BF1A7829780CBF01320022FF
:104F80001A7094F86A3C94F8682C0133DBB29A42A8
:104F900001F1010184F86A3C297038BF0023C0B2D6
:104FA00038BF84F86A3C2530BDE8F843FFF70EBEF1
:104FB000062B04D1D4F8740C801A00217FE7042B4F
:104FC0007FF47DAFD4F8780CF6E794F86A6C7343FD
:104FD000C4F86C3C26B9FDF711F8134B83E8410087
:104FE000D4F8700CD4F86C3CC01AE6E71E220023FB
:104FF000FBF710F926F01F066870C0F30420064383
:10500000AE706FF3C71872E70323237505F0D6F966
:1050100099E7490828469DE7C0020020C4BF030065
:10502000331000203210002030310020F8B5594CE8
:1050300094F82D3294F82E229A4206D00133DBB236
:10504000022B08BF002384F82D3294F8133C94F807
:10505000142C9A4206D00133DBB2022B08BF002386
:1050600084F8133C94F82D7294F8325494F88D3CE3
:1050700007EB072705EB05252B3705F22F25E6194A
:105080002544052B0AD8DFE803F003454F575F6737
:1050900040F2011240492846FBF784FAE35D03F031
:1050A0000F03072B1AD1F278D3074CBF06F10A037E
:1050B000331D900748BF0633110748BF0233D2069D
:1050C0000CD506225A709A7822F01F029A701A782C
:1050D000032102F07F0261F305021A70284605F0F1
:1050E000DDF8E35D03F00F03022B3DD0072B3BD02F
:1050F00002239620237505F0DBF9002005F048F91E
:10510000002384F8693C84F86A3C0320BDE8F84039
:10511000FFF75CBD40F2011220492846FBF742FA36
:105120000120FFF753FDB9E740F201121C49284660
:10513000FBF738FA0220F4E740F201121949284639
:10514000FBF730FA0320ECE740F20112164928463B
:10515000FBF728FA0420E4E740F20112134928463D
:10516000FBF720FA0520DCE7114A94F88C1C012398
:10517000137094F88D3C0133DBB2994284F88D3C76
:10518000B6D194F8293043F0010384F82930002384
:105190001370ADE7C0020020F3060020F4070020E2
:1051A000F5080020F6090020F70A0020F80B00207F
:1051B00031100020000000002DE9F04F8BB00024DA
:1051C000FF25DFF814918DF81F50804693461F4647
:1051D00001F1040A1C60089426460223099309ABD6
:1051E00002933B4B019308AB00930DF11F025B460A
:1051F00041460020FEF7AAFB02280BD0099B6BB1A9
:10520000404080F311884FF0040002DF4146002047
:10521000FEF71AFC099B022BF8D0EFE79DF81F2040
:10522000FF2A4ED0062AD8D999F8F83C07339A427B
:10523000D3DA073A92B24FF48271D9F8F00CFDF745
:1052400077FC0028C9D090F91D30002BC5DB03681E
:10525000089AD0F804E0002B12DA816823F00043AA
:1052600071452CBF52187244D21AC168FF2D01F14A
:1052700004010B4408D19DF81F501C461646ACE7AC
:10528000734538BF7346F0E73146104605930492E4
:10529000FEF7F2FB04EB0A018842049A059BEAD967
:1052A0000C483444A4FB0001072303FB041106A3AC
:1052B000D3E90023FAF7AEFF803038600BB0BDE8C9
:1052C000F08FFF2DECD1F9E700CA9A3B00000000F7
:1052D000254800008D49FD1AC002002070B50478F1
:1052E0000A78C4F38013B3EBD21F19D104F00F0472
:1052F000012C01F1080600F1020508D00622314612
:105300002846FBF73AF9B0FA80F0400970BD062252
:1053100031462846FBF731F90028EFD1204670BD11
:10532000002070BD0B4A92F8603D92F8611D9942D1
:105330000ED192F8603D02EB4303A3F85A0D92F8A8
:10534000603D0133DBB2032B08BF002382F8603DD0
:10535000704700BFC0020020044B1B7D23B1012118
:1053600000220846FDF746BC704700BFC00200207F
:10537000062810B50C460AD9094BC21F92B24FF449
:105380008271D3F8F00CFDF7D3FB206010BD052827
:1053900004D00628034818BF002010BD024810BDE5
:1053A000C0020020DC0E0020D802002008B50A4B05
:1053B00000221A7068B1012805D1084B002211465D
:1053C000FDF740FC38B1404080F311884FF00400F5
:1053D00002DF034BF2E708BDCC100020B04F0020E5
:1053E000A04F002038B505460C460021084604F0C1
:1053F000DBFE95F8A830DB064FF001020DD51F212A
:10540000082004F017FF2246002105F1A90005F04D
:1054100049F9BDE8384004F03BBF08201B2104F0E7
:1054200009FF2046F5E738B505460C460021084639
:1054300004F0BAFE95F8A8309B064FF001020CD597
:105440001F21082004F0F6FE214605F1CA0005F0F0
:1054500065F9BDE8384004F021BF08201B2104F0A5
:10546000E9FE2046F5E7000070B5164C037894F885
:105470002D2CDB09B3EBD21F05460E4607D094F85E
:105480002D0CC0F3011010F002000BD170BD00F123
:105490000801062204F62E40FBF76FF80028EED133
:1054A000012070BD95F90030002B09DA6B7B03F009
:1054B000C003402B04D1002EF2D00120307070BD0B
:1054C000002070BDC0020020404080F311884FF0E2
:1054D000040002DF30B50468002C89B019DA436893
:1054E000856806909D4224F0004434BFE41A641B92
:1054F000094B0593A4B20023049303930293184627
:1055000001940094FEF798F930F0020301D0FFF700
:10551000DBFF09B030BD00BF3548000010B50346C1
:105520000A4600F19C01D0F89C0008B9FFF7CCFFB7
:105530001C8CA3F8A24083F8A42007240A4A83F80D
:10554000A04092F8584D83F89C4002F55362FDF755
:1055500009FB28B9404080F311884FF0040002DFB6
:10556000BDE8104003F09CBEC002002010B5164AF2
:1055700092F8213D92F8221D994201D1FFF7A4FF34
:1055800092F8211DD2F81C3D53F8211092F8583D95
:1055900008680B7092F8213D92F8204D0133DBB280
:1055A0009C4208BF002382F8213D02F55362FDF7BB
:1055B000D9FA28B9404080F311884FF0040002DF87
:1055C000BDE8104003F06CBEC002002010B5012001
:1055D000FFF752F9044608B9FFF776FF4FF6FF735D
:1055E000C38006230371102200210B30FBF706F85D
:1055F0003C23E372BDE81040FFF7B8BF1FB53E4C37
:1056000020B1A37C052B75D0FFF75EFF237C052B13
:1056100002D0637C052B65D104AB022243F8082D30
:10562000002200930121354B1046FEF753F9022862
:105630000DD00298C0B10298012819D1E37C002B4B
:1056400050D02F4B04229A600022114646E00122DE
:1056500011461046FDF7CEFA029B022BE9D101213B
:105660000020FEF7F1F9F7E702230393237C2BB91F
:10567000404080F311884FF0040002DF03AB0122A9
:105680002074114600931D4BFEF724F902280FD019
:10569000039AD2B1039C012CEAD100221146194B86
:1056A0002046FDF7CFFA02460028E1D1164B13E061
:1056B000012211461046FDF79DFA039B022BE7D10C
:1056C00001210020FEF7C0F9F7E7A369E16923F0A3
:1056D00000438B42EAD20B4B11460120FDF7B2FA90
:1056E0000028C5D10022094B11460120FDF7AAFA76
:1056F0000028BDD104B010BDC00200202548000024
:10570000504F0020204F0020C04F0020F04E0020BE
:1057100073B5164602AA1C46054642F8046D2731A9
:105720000120FFF749FD2368FBB10198831B1B0291
:1057300001D5FFF7C9FE3146FEF79EF90246104833
:105740000723A2FB000103FB02110BA3D3E90023F3
:10575000FAF760FD236818440028206005DB40F25A
:10576000E24068432368984201D302B070BD1B1A1F
:105770002360F7E7AFF3008000CA9A3B0000000007
:105780008D49FD1A13B500F16C030446826FC168A0
:10579000808CFFF7BDFF02A9E36E606F40F2E2422A
:1057A000B3FBF2F3022221F8023DFAF7FBFE02B04E
:1057B00010BD000038B5104A92F8583D92F8544D8B
:1057C0000133DBB29C4208BF002392F8574D9C4244
:1057D00001D1FFF779FE92F8585DD2F8504D24F8C8
:1057E000350092F8580D04EBC004616082F8583D12
:1057F000BDE8384003F054BDC00200202DE9F84355
:10580000244C064600272EB194F8553D94F8562DA9
:105810009A4201D1BDE8F88394F8558DD4F84C9D97
:10582000D4F8F00C39F8382009EBC8034FF4827132
:105830005D682F60FDF77CF9034639F838001A8C53
:1058400082421FD1D3F8F82042B9D3F8EC20C3F834
:10585000F8501AB9C3F8EC50C3F8FC20D3F8FC2078
:1058600002B11560C3F8FC5094F8553D94F8542DDE
:105870000133DBB29A4208BF0023013E84F8553D54
:10588000F6B2C0E72B7967F301032B712946FFF7C6
:1058900091FFE9E7C002002073B5012204461146DA
:1058A0000020FDF7A7F994F82020002142F2E273CE
:1058B0000732009308463A4BD2B2FEF70BF830F0AD
:1058C000020105D0404080F311884FF0040002DF50
:1058D000344B1A7D052A1D461BD1228C187C0732B9
:1058E000904216D1197442F2F373009301222C4BAB
:1058F0000846FDF7EFFF30F00202E3D142F2FA73FF
:1059000000931146264B1046FDF7E4FF30F00203EA
:10591000D8D1D4F8EC10D4F8F030994203D0D4F8B0
:10592000F830994201D1204E12E00B796FF3010358
:105930000B710B68C4F8EC30208CFFF73BFFE8E7F5
:105940000368C4F8EC30C4F8F0303146FDF7DBF8FA
:10595000D4F8EC0018B1D4F8F8309842F0D1002314
:10596000C4F8F030C4F8F430D4F8EC1051B94FF664
:10597000FF732384D5F8683D9C4208BFC5F8681DB5
:1059800002B070BD0B796FF301030B710B68C4F8A3
:10599000EC30C4F8F830208CFFF70CFFE4E700BFD0
:1059A000E15A0000C0020020FC0F0020C0B208B580
:1059B000031F012B01D9FFF787FD084A137D3BB177
:1059C000043B012B04D91075BDE8084004F086BCE7
:1059D00004F0B6FC0028F7D008BD00BFC0020020CC
:1059E00008B50A4A137838B1591C117063B90120FF
:1059F000BDE8084003F052BC0BB9FFF765FD013B61
:105A0000DBB21370002BF3D008BD00BF7A1000206A
:105A10000020FFF7E5BF0000002208B51146044B47
:105A20001046FDF70FF908B1FFF74EFD08BD00BFA6
:105A3000804F0020002208B51146044B1046FDF7A8
:105A400001F908B1FFF740FD08BD00BF004F00207D
:105A500008B530B1034B9B7CC9B2994201D0FFF726
:105A600033FD08BDC002002008B528B1034B9B7C64
:105A7000052B01D0FFF728FD08BD00BFC0020020A4
:105A8000012808B5094B07D19A7C062A02D10022C9
:105A90009A7408BDFFF718FD1B7C062B05D140400A
:105AA00080F311884FF0040002DF08BDC00200201F
:105AB000012808B5094B07D19A7C052A02D100229A
:105AC0009A7408BDFFF700FD1B7C052B05D14040F3
:105AD00080F311884FF0040002DF08BDC0020020EF
