:10000000783E0020E50E0000350F00007D0D000059
:100010007D0D00007D0D00007D0D00007D0D0000B8
:100020007D0D00007D0D00007D0D000071090000B8
:100030007D0D00007D0D00002D0900007D0D0000EC
:10004000A90E00001BA40000A90E0000A90E0000CC
:10005000A90E0000A90E0000A90E0000A90E0000C4
:10006000A90E0000A90E0000A90E0000A90E0000B4
:10007000A90E0000A90E0000A90E0000A90E0000A4
:10008000A90E0000A90E0000A90E0000A90E000094
:10009000A90E0000A90E0000A90E0000A90E000084
:1000A000A90E0000A90E0000A90E0000A90E000074
:1000B000A90E0000A90E0000A90E0000A90E000064
:1000C000A90E0000A90E0000A90E0000A90E000054
:1000D000A90E0000A90E0000A90E0000A90E000044
:1000E000A90E0000A90E0000A90E0000A90E000034
:1000F000A90E0000A90E0000000000008D170000EE
:1001000000000000F50C000000000000F50C0000ED
:1001100000000000F50C000000000000F50C0000DD
:1001200000000000F50C0000E84E002071190000EE
:1001300000000000F50C000000000000F50C0000BD
:1001400000000000F50C000000000000F50C0000AD
:1001500000000000E1A3000000000000F50C00001A
:10016000C44E0020391D000000000000F50C000006
:1001700000000000F50C000000000000F50C00007D
:1001800000000000791E000000000000F50C0000D7
:1001900000000000F50C000000000000F50C00005D
:1001A00000000000F50C000000000000F50C00004D
:1001B00000000000F50C00000000000015A4000085
:1001C00000000000F50C000000000000F50C00002D
:1001D00000000000F50C000000000000F50C00001D
:1001E00000000000F50C000000000000F50C00000D
:1001F00000000000F50C000000000000F50C0000FD
:1002000000000000F50C000000000000F50C0000EC
:1002100000000000F50C000000000000F50C0000DC
:1002200000000000F50C000000000000F50C0000CC
:1002300000000000F50C000000000000F50C0000BC
:1002400000000000F50C000000000000F50C0000AC
:1002500000000000F50C000000000000F50C00009C
:1002600000000000F50C000053B94AB9002908BF8E
:1002700000281CBF4FF0FF314FF0FF3000F08EB967
:10028000ADF1080C6DE904CE00F01AF8DDF804E0D9
:10029000DDE9022304B07047430803F05533C01A68
:1002A000830803F0333300F03330184400EB1010B0
:1002B00000F00F3000EB002000EB0040000E704714
:1002C0002DE9F0478C460D460446089E002B51D17F
:1002D0008A4217466DD9B2FA82FEBEF1000F0BD0EA
:1002E000CEF1200C01FA0EF520FA0CFC02FA0EF702
:1002F0004CEA050C00FA0EF44FEA174A250CBCFB39
:10030000FAF81FFA87F90AFB18CC45EA0C4508FBF6
:1003100009F3AB420AD9ED1908F1FF3280F02381CD
:10032000AB4240F22081A8F102083D44ED1AA4B28C
:10033000B5FBFAF00AFB105544EA054400FB09F945
:10034000A14509D9E41900F1FF3380F00A81A145E4
:1003500040F2078102383C44A4EB090440EA08401B
:100360000021002E61D024FA0EF400233460736063
:10037000BDE8F0878B4207D9002E54D0002186E8D3
:1003800021000846BDE8F087B3FA83F1002940F068
:100390008E80AB4202D3824200F2FA80841A65EB6F
:1003A00003050120AC46002E3FD086E81010BDE8C2
:1003B000F08712B90127B7FBF2F7B7FA87FEBEF153
:1003C000000F34D1EB1B3A0C1FFA87FC0121B3FB61
:1003D000F2F8250C02FB183345EA03450CFB08F341
:1003E000AB4207D9ED1908F1FF3002D2AB4200F25F
:1003F000D1808046ED1AA3B2B5FBF2F002FB105596
:1004000043EA05440CFB00FCA44507D9E41900F1BC
:10041000FF3302D2A44500F2B8801846A4EB0C04C6
:1004200040EA08409DE731463046BDE8F087CEF10E
:10043000200405FA0EF307FA0EF720FA04F83A0C36
:1004400025FA04F448EA0308B4FBF2F14FEA184530
:1004500002FB11441FFA87FC45EA044501FB0CF33B
:10046000AB4200FA0EF409D9ED1901F1FF3080F02A
:100470008A80AB4240F2878002393D44EB1A1FFA72
:1004800088F5B3FBF2F002FB103345EA034500FBAD
:100490000CF3AB4207D9ED1900F1FF386FD2AB4234
:1004A0006DD902383D44EB1A40EA01418FE7C1F1B2
:1004B000200722FA07F88B4005FA01F448EA030303
:1004C00020FA07FE4FEA134CFD404EEA040EB5FB3E
:1004D000FCF94FEA1E440CFB19551FFA83F844EA55
:1004E000054509FB08F4AC4202FA01F200FA01FAF0
:1004F00008D9ED1809F1FF3043D2AC4241D9A9F136
:1005000002091D442D1B1FFA8EFEB5FBFCF00CFBEF
:1005100010554EEA054400FB08F8A04507D9E41839
:1005200000F1FF3529D2A04527D902381C4440EA02
:100530000940A4EB0804A0FB02894C45C6464D4681
:1005400015D312D056B1BAEB0E0364EB050404FACE
:1005500007F7CB401F43CC40376074600021BDE8F3
:10056000F0871846F8E69046E0E6C245EAD2B8EBD6
:10057000020E69EB03050138E4E72846D7E7404659
:1005800091E78146BEE7014678E702383C4445E7FB
:10059000084608E7A8F102083D442BE7704700BF72
:1005A0000139034611F8012F0AB91A70704703F890
:1005B000012BF7E710B5013903463AB111F8014FA5
:1005C0002CB91A4403F8014B9342FBD110BD03F838
:1005D000014B013AF1E70138013910F8013F11F8F8
:1005E000012F934202D1002BF7D11A46981A704777
:1005F00070B582B1013A0C46034603D11A782078CF
:10060000101A70BD1E782578AE4200F1010001F18C
:100610000101EFD0F2E7104670BD81EA000313F04C
:10062000030F70B503460BD0013B0A4491421BD126
:1006300070BD002AFCD011F8014B03F8014B013AC0
:100640009C07F6D11E1F0D46541B0C44032C06D8E4
:1006500022F003042144234402F00302E4E755F8A6
:10066000044B46F8044FEFE711F8014B03F8014F34
:10067000DCE770B5C9B203469C0711D141EA0124F9
:1006800044EA04441E46951B1D44032D0ED822F057
:100690000304234402F003021A44934209D170BDBB
:1006A000002AFCD003F8011B013AE5E746F8044BA9
:1006B000E9E703F8011BF0E74FF0FF307047000057
:1006C000014B1860704700BFB84B002010B50446BE
:1006D00086B028B10146104800F01CFE06B010BDDF
:1006E0000E4800F017FEA02303940122ADF80E304F
:1006F000F02304940A49ADF810300092094B059498
:1007000003A803F03FF8014608B10748E4E70748AB
:1007100000F000FEE2E700BF10CD000030CD000089
:1007200008CD000094CD000047CD00006DCD000045
:1007300008B5074800F0EEFD064802F0BFFF01468D
:1007400020B10548BDE8084000F0E4BD08BD00BF89
:100750007DCD0000CD06000010CD0000054B1B68CC
:10076000082B01BF044B1868B0FA80F0400918BF8D
:1007700000207047300100103401001008B54FF020
:100780002003EFF3118183F31188FFF7E7FF40B1F6
:100790004FF080430022C3F80C21C3F81021C3F8A6
:1007A0003825FFF7DBFF10B1384B394A1A60FFF7E5
:1007B000D5FF18B1374BFB22C3F81825FFF7CEFF42
:1007C00048B13548354B02681B6822F00F0203F030
:1007D0000F0313430360FFF7C1FF18B1304B4FF411
:1007E00000721A60FFF7BAFF48B14FF08043D3F8A8
:1007F0000024D20744BF6FF00102C3F800244FF079
:100800001023D3F80022002A03DBD3F80432002B94
:100810002FDA244B0122C3F80425D3F80024002A40
:10082000FBD04FF010221221C2F80012D3F800249E
:10083000002AFBD04FF010231222C3F80422194BD8
:100840001A46D3F800140029FBD00021C3F8041580
:10085000D2F80034002BFBD0BFF34F8F1249134B5B
:10086000CA6802F4E0621343CB60BFF34F8F00BF4E
:10087000FDE70D4B4FF0FF329A62DA620C4B0D4AE6
:100880001A6081F31188002008BD00BF8C5600401B
:100890004881030000F00040E40E004058020010C0
:1008A0004096024000E0014000ED00E00400FA053F
:1008B000144C00200090D003084881684A897F2AA0
:1008C0000BD8C069884208D000B50BF057FC5DF822
:1008D00004EB03494FF080520A6070474029002022
:1008E00004ED00E0044800232021C21801332E2B20
:1008F00082F80013F9D1704700E100E0084A094985
:10090000936809685966084918664B6843F0805334
:100910004B60002383F311889368586E704700BFC3
:100920004029002054F1000000ED00E00E498A68E3
:1009300028201044EFF3098C80E8F01F0B4F4FF094
:100940000066202080F31188CA698A603E60106EBC
:100950000023136680F3118802F1280090E8F01F4D
:100960008CF30988704700004029002004ED00E066
:100970001EF0040F0CBFEFF30880EFF309808169CC
:1009800031F8021C11F0FF0101D0022907D04040CC
:1009900080F3118804494FF080520A60704700B517
:1009A00000F02CFA00BD000004ED00E010B5044694
:1009B0000BF0BAFB22680146BDE81040014800F088
:1009C000A9BC00BF0DCF000010B504461A4800F0C6
:1009D000A1FC04F11800194CFFF7E8FFA36A9A0183
:1009E00002D5174800F096FCA36ADB0102D5154832
:1009F00000F090FCA36A180302D5134800F08AFCAB
:100A00000E4CA36A590302D5104800F083FCA36A78
:100A10009A0302D50E4800F07DFCA36ADB0302D5E1
:100A20000C4800F077FC054A936A6FEA03436FEACB
:100A30001343936210BD00BF0ED0000000ED00E034
:100A400027D000003BD0000056D0000075D0000039
:100A50009BD00000B6D0000038B5044619480D46BA
:100A600000F058FC04F11800174CFFF79FFFA36A31
:100A7000D90604D51548BDE8384000F04BBCA36A40
:100A80001A0701D51248F6E7A36A9B070FD511484C
:100A900000F040FC616BA36A180612D50E4800F006
:100AA00039FC75B1A36A23F08003A36238BDA36A41
:100AB000DA0701D50948DEE7A36A9B0601D5084895
:100AC000D9E738BD57CF000000ED00E06ECF000041
:100AD00080CF000094CF0000ADCF0000BECF00005B
:100AE000DECF000038B504461D480D4600F012FC6C
:100AF00004F118001B4CFFF759FFA36AD80404D572
:100B00001948BDE8384000F005BCA36A190501D5B5
:100B10001648F6E7A36A9A0514D5154800F0FAFBC3
:100B2000A16BA36A1B0407D5124800F0F3FB1DB1AB
:100B3000A36A23F40043A3620A4B9B6A58050ED5AF
:100B40000D48DEE7A36A5905FAD4A36ADA0501D590
:100B50000A48D6E7A36A9B0401D50948D1E738BD06
:100B6000D4CD000000ED00E06ECF000080CF00008B
:100B7000EBCD0000ADCF000005CE000021CE00007F
:100B8000DECF000038B5274D6B68C3F30803DA1ECB
:100B90000446092A3AD8DFE802F00533352F3939FF
:100BA00039393937204800F0B5FBEB6A9A0703D58D
:100BB0001E4800F0AFFB0CE0EB6A5B0009D51C4857
:100BC00000F0A8FB1B4B1B784BB101212046FFF71F
:100BD00043FF21460020BDE8384000F013B9164B12
:100BE0001B7823B101212046FFF77CFFF1E7134B6F
:100BF0001B889BB2002BECD02046FFF7E5FEE8E710
:100C00000021E3E70021EEE70D48D2E70D480E4949
:100C1000A3F110020F2BD8BF01460C4800F07AFB5D
:100C2000D7E700BF00ED00E068CE000080CE0000F6
:100C3000A2CE000028ED00E029ED00E02AED00E062
:100C4000C2CE00003ACE00004FCE0000F9CE000028
:100C5000024A536943F010035361704700ED00E00E
:100C600043B2002B08DB012200F01F0002FA00F063
:100C70005B09024A42F82300704700BF00E100E030
:100C800043B2002B0DDB01225B0900F01F0002FACA
:100C900000F02033034A42F82300BFF34F8FBFF325
:100CA0006F8F704700E100E04209054B00F01F0024
:100CB00053F82220012303FA00F01040704700BFD0
:100CC00000E100E043B2002BA8BF03F1604301F153
:100CD00001014FEA4111ADBF03F5614300F00F0080
:100CE000034BC9B2B6BFC9B283F800131954704799
:100CF00014ED00E000F042B808B572B6044B9869F4
:100D000018B100229A610AF085FE62B608BD00BFE4
:100D100040290020F8B50C4616461F4604220A9BBF
:100D2000099905460BF028FDA6F1200121440C4A43
:100D3000AC6521F00701002322F00102EB642B6572
:100D4000EE658A61069A4A60079A8A60089ACA60C4
:100D50000F604FF08072CA61A9642B66F8BD00BFB6
:100D6000EDC50000014910220A60704710ED00E057
:100D7000404080F3118830BF704700BF404080F38F
:100D80001188DFF81CC0DCF800C01CF4006C0CBF3C
:100D9000EFF30880EFF3098000B5FFF7F3FE00BD25
:100DA00004ED00E0042838B504460D4613D00528AC
:100DB00013D0032813D10C4800F0ACFA0BF0B4F9AF
:100DC000AA690146094800F0A5FA29462046BDE86F
:100DD000384000F017B80648EEE70648ECE7014651
:100DE000054800F097FAE9E7E2D0000060D1000082
:100DF00008D1000022D100003DD10000014600686A
:100E0000FFF7D0BF052810B50CD00BF0D7FB60B1B1
:100E10000BF0D4FB0C4B0D49002808BF19460C48B9
:100E200000F078FAFFF7A4FFFCE70BF0D7FB0028EF
:100E3000EED1084C0848A16800F06CFAA068BDE843
:100E4000104000F00BB800BFA0D100009CD1000002
:100E5000B1D1000040290020D1D1000038B50546AD
:100E60004FF02003EFF3118483F311880BF014FC8F
:100E70000B4B9B689D420DD10A4B5A68C2F3080286
:100E800022B90BF07BF92046FFF738FD5A6842F093
:100E900080525A602046BDE838400BF0D3B800BFFE
:100EA0004029002000ED00E000B572B60B4A9069C1
:100EB00000281EBF002191610AF0ACFD62B6EFF37D
:100EC0000580A0F110004FEAC0000549014409C99E
:100ED00098475DF804EBFFF7EFBC000040290020C5
:100EE000F8000000202080F3118805484FF40061CD
:100EF000401880F30988022080F3148800F006B8B7
:100F0000B83F002030BFFFF7FDBF00BF08B5074B5B
:100F1000074A23F07F039360BFF34F8FBFF36F8FB8
:100F20000AF0A8FD0AF0B0FD0AF0D6FD00000000AE
:100F300000ED00E008B5FFF7E5FFBDE80840FFF76A
:100F4000BBBC0000154B16491A6830B50D68C2F3DA
:100F5000072295420FD8002248685A60954200F156
:100F60000C000AD105225A600E4B01221A70BFF301
:100F70004F8FBFF36F8F002030BD50F80C1C50F81E
:100F8000044C9A6021F01F0141F01001114344F01C
:100F90000104D96001321C61E0E700BF90ED00E080
:100FA000D04B002000000020002070470B68013368
:100FB0000B60014B1B681847184C00202DE9F04FBF
:100FC00085B09B460E9CDFF890A0012CB8BF012491
:100FD000012B0CBF302320231546804689460194FF
:100FE000029301260A2700220AF101040AB9AA4540
:100FF0001FD2B5FBF4F049463030C047013601221C
:10100000013F012FB5FBF4F14FF00A0304FB11552A
:10101000BAFBF3FAE8D1494605F13000C047BBF10D
:10102000030F03D1019B9C1B002C0FDC05B0BDE816
:10103000F08F019BBB42E3DBBBF1020FE0D84946D6
:10104000029803920136C047039AD9E74946202007
:10105000C047013CE8E700BFFFC99A3B0A688B68BC
:1010600030B512B14C68A34202DB01338B6030BD56
:10107000651EAB420BBF8C605C1C00218C600CBFFA
:10108000D154D05430BD0000014B1860704700BFF0
:10109000184C00202DE9F04F89B04FF0000A0646A9
:1010A0000F4604921C464FF0FF39D0465546049B2C
:1010B000187810B909B0BDE8F08F45B9252800F0BF
:1010C0000C813946B047049B01330493EFE7642851
:1010D00061D019D839280AD8312850D22D283CD0CF
:1010E00030283DD0252808D13946B0476FE0582830
:1010F00000F08980632800F0EA8039462520B04757
:10110000049B39461878F0E7702872D006D8692811
:1011100041D06C283CD06828D5D0EEE7752858D04F
:1011200017D87328E9D1236804F1040B1C4625461F
:1011300015F8010B002840F0BF80B8F1030F40F014
:10114000D580E41AA9EB0404002C00F3BB805C46B4
:101150003DE0782857D07A28DEE74FF00308B2E761
:10116000B9F1000F0EDAB8F1000F00F0BC80A0F169
:101170003009B8F1000F08BF4FF00208A3E7B9F13A
:10118000000FF4DB0A2303FB0909A9F13009F0E79A
:101190000AF1010A97E7BAF1010FC5BF073424F03D
:1011A000070325681D68D4BF043403F10804002D2B
:1011B00005DA39462D20B0476D4209F1FF39CDF8E7
:1011C000009043462A4639463046FFF7F7FE002591
:1011D00079E7BAF1010FC5BF073424F0070322688D
:1011E0001A68CDF80090CCBF03F1080404344346DC
:1011F000E9E739463020B04739467820B0474FF00C
:1012000008094FF00108BAF1010FC7BF073424F0F5
:10121000070323680593C2BF03F108041B68059305
:101220004FF008024FF00003D8BF04340393079334
:1012300093460BF1FF3B059B4FEA8B0023FA00F02E
:1012400010F00F0009D1079B13B9BBF1000F22D199
:101250004FF0300E07E0069AEBE709288CBF4FF0FD
:10126000570E4FF0300E394670440692B047039B3C
:10127000079501330393BBF1000FECD1B8F1030FD5
:10128000A5D1039BC3EB4905002DA0DD39462020E5
:10129000B047013DF8E7531E91450693EBDBB8F1EB
:1012A000010F03D139463020B047E4E7B8F1020F0F
:1012B000E1D139462020F7E7394603932C46B04761
:1012C000039B34E739462020B047013C3CE72068C7
:1012D000251D3946B0472C4679E7AA46A8464FF067
:1012E000FF390125EFE64FF00108ECE65C460546C4
:1012F000E9E6000013B502AC002344F8043D0246C1
:101300000B4603482146FFF7C5FE019802B010BD09
:10131000AD0F00000FB407B504A951F8040B0191FB
:10132000FFF7E8FF03B05DF804EB04B0704700007E
:101330000CB430B585B008AB044653F8042B0190CB
:101340000291002501A9074800930395FFF7A2FE2B
:101350000398029B9842B8BF255405B0BDE83040C1
:1013600002B070475D10000030B585B004460190B2
:101370000291002501A905480395FFF78BFE03980C
:10138000029B9842B8BF255405B030BD5D100000E7
:1013900070470369C1688B429DBF8268D21802F111
:1013A000FF3203F1FF3394BF501A581A70472DE9EA
:1013B000F041C7688668F61B964204468846154683
:1013C000406806D93844FFF728F93D44E560BDE898
:1013D000F08132463844AD1BFFF71FF92A4608EB6F
:1013E00006016068FFF719F9F0E72DE9F843C568D1
:1013F0000646894617464FF000083469B36870689E
:10140000A54228BFE418013C621B5C1BBC4228BFFC
:101410003C46944228BF1446494628442246FFF7DA
:10142000FCF8B36825449D4208BF00253F1BA0443B
:10143000A144F560E1D14046BDE8F88310B5114CF8
:10144000114AA261032323616361104BE3612266A9
:101450004FF480630E4A2362626600231022A36267
:101460006362E3622367E3666367A2660949E01D7E
:10147000FFF796F808492046FFF792F82023A3715A
:1014800010BD00BF6C2A0020F6D100001100002022
:1014900001000020FFD1000003D20000F8B5184C75
:1014A000182300FB033503FB00402544C46A012CCC
:1014B0000F46164611D003D3022C1BD000240AE09D
:1014C0002846FFF766FFB04205D332463946284624
:1014D000FFF76DFF34462046F8BD2846FFF759FF59
:1014E0008642344628BF0446224639462846FFF73E
:1014F0005EFFF0E72846BDE8F840FFF776BF00BF83
:101500006C2A0020FFF79ABF13B5114CBFF35B8F15
:101510002068BFF35B8F60B90E480AF055FABFF33D
:101520005B8F54E8003F44E80002002AF9D1BFF382
:101530005B8F436804221B680DEB0201984700286B
:1015400002DA00F007FD0190019802B010BD00BF63
:10155000140400200AD2000010B5054CFFF7D2FF9A
:101560002046FFF791FD2046FFF7AAF8002010BDA6
:101570007515000037B502A9044601F8010D4FF0BA
:101580002003EFF3118583F3118801220020FFF778
:1015900085FF85F31188204603B030BD10B54FF0AC
:1015A0002003EFF3118283F31188114C237823B9C0
:1015B00082F311886FF0440010BD013BDBB2237051
:1015C00023B182F311886FF00F0010BD094B18781A
:1015D000012128B1217082F311886FF00A0010BD3B
:1015E000197082F311884FF080425160187010BD5D
:1015F0001A0400201904002008B500221046012119
:10160000FFF760FB0020FFF72BFB002008BD000068
:10161000F8B54FF02002EFF3118382F31188254AC9
:101620001078441C147060B183F311884FF080432C
:10163000D3F80C3413F4803F14BF00206FF0430044
:10164000F8BD1D4D2F782FB1107083F311886FF006
:101650000A00F8BD01262E7083F311884FF08044F4
:1016600019B33846FFF70CFBC4F80071D4F8043303
:10167000C4F804632660D4F8002192B10022C4F8B3
:1016800000210E4A13F0010F4FF0010308BFC4F808
:1016900008330020C2F88031FFF7E2FA00232B70F4
:1016A000C4E720BF40BF20BFE5E7C4F800112660B3
:1016B000F4E700BF1A0400201904002000E100E054
:1016C000F8B506460C464FF02002EFF3118382F383
:1016D00011882C4A157865B183F311884FF0804347
:1016E000D3F8183413F4803F0CBF6FF04300002090
:1016F000F8BD0127177083F311882846FFF7C0FA59
:101700004FF080430221C3F80451D3F80423C3F8F7
:101710000413C3F818459F60D3F8041171B39207FE
:10172000194F58BF02224FF000014FF00105C3F8D6
:1017300004114FF0000058BFC3F80823C7F88051C8
:10174000FFF78EFA4FF0804300211822C3F80823D8
:10175000C3F80C11C3F8101114F00301BED110200E
:10176000C3F83805C3F804233046C3F80453FFF721
:101770004FFF0028B2D1C7F80051AFE720BF40BFEC
:1017800020BFC9E71804002000E100E0F8B54FF0E1
:1017900080430546D3F808E1D3F80423D3F80C447A
:1017A000D3F80071D3F80401D3F80C11D3F8106109
:1017B00002F00102BEF1000F03D04FF0000EC3F89B
:1017C00008E127B14FF080430027C3F800713AB118
:1017D000E30341BF4FF080430122C3F808231A619D
:1017E00020B14FF080430022C3F8042149B14FF0EB
:1017F00080440021C4F80C112846FFF7CFFE0123D6
:10180000636176B14FF0804300210124C3F81011C9
:101810002846C3F80443FFF7FBFE10B9014BC3F899
:101820000041F8BD00E100E003689B689A688368A6
:1018300010B5DC68002024FA00F3DB0707D500F5BB
:10184000A27352F82330C3F304238B4204D0013037
:101850000828F0D16FF0120010BD006880680068A1
:1018600041B9D0F8101521FA02F202F001021A6013
:1018700000207047D0F81025F9E7006880680068FC
:1018800049B9012191401BB1C0F8081500207047EB
:10189000C0F80C15FAE7C0F80435F7E710B583680F
:1018A0003AB11A680A605A68196002B95960002092
:1018B00010BD18680028FAD081420ED15C68086813
:1018C00032B9A142186000D1586000230B60EEE7E6
:1018D000A142106008BF5A60F7E702460068E9E7D6
:1018E000F8B514460268876892680D469668A1B9F3
:1018F0002146FFF799FF002811DBBA68012303FA9C
:1019000004F4144300F1400203FA00F0BC6046F80E
:101910002250C6F804032846F8BD6FF02200F8BD37
:10192000F8B514460268866892680D46976889B9CA
:101930002146FFF779FF00280EDBB268012303FA86
:1019400004F403FA00F022EA0404B460C7F80803C0
:101950002846F8BD6FF02200F8BD08B5002201212D
:101960000620FFF7AFF90620FFF77AF9002008BD3F
:10197000F8B5036806469B68B46898680022134669
:101980001546012700EB8201D1F800E1BEF1000FFE
:1019900008D0C1F80051D1F81015C1F3042107FA9D
:1019A00001F10B430132082AECD1A56806201D4045
:1019B000FFF766F9246824B90620BDE8F840FFF770
:1019C0004FB9A3681D42F5D063682A4621463046C8
:1019D0009847EFE72DE9F843144602688768926854
:1019E00080469568106819B16FF02200BDE8F88351
:1019F00003F44072B2F5807FC3F30131C3F3813940
:101A000003F4403E56D0B2F5007F0CBF0422002202
:101A1000BEF5803F08BF4FF0000E13F0010FDFF856
:101A2000C8C04FEA810104F5E0764ED00C2A43D1BC
:101A30004FF0010E0EFA04FEC0F808E549445CF8C8
:101A4000211041F003010A4340F8262013F0020060
:101A500047D09906C8D55A063ED413F0040F14BFD8
:101A60004FF480364FF40036F868FEF715FC08286E
:101A700035D021464046FFF7D7FE0028FB6808DA3C
:101A8000DA4392FAA2F0002AB0FA80F008BF4FF0D1
:101A9000FF302402012204F4F854824044F001048F
:101AA00000F5A27013433443FB6045F8204000204A
:101AB000BDE8F8830C22ABE7042A02BF4FF0010E09
:101AC0000EFA04FEC0F80CE5B8E749445CF82110B2
:101AD0000A4342EA0E02B7E74FF44036C4E76FF01C
:101AE0000400BDE8F88300BF44D2000003689B688F
:101AF0001B68D3F8082132B10020C3F80801D3F8DD
:101B000018350B7070474FF0FF30704703689B68C3
:101B10001B68C3F81C15D3F81C21002AFBD0002237
:101B2000C3F81C210846704703689B681B68D3F8FC
:101B3000240118B1D3F88004C3F8800400F00F002A
:101B400070470000F8B503689B68054618481C6894
:101B500009F03AFF436806461F68062240F2011367
:101B60000021B84773681F680023194608223046D1
:101B7000B8470623C4F80C350823C4F81435AB68FD
:101B80004FF4E1321A602B689B681B684FF0EB72D0
:101B9000C3F824250423C4F8003500200123C4F829
:101BA0001C01C4F80801A3602360024B6B60F8BD00
:101BB000ACD20000C4D200002DE9F0418378C47893
:101BC0001E1DA3420A4406441FD8E41AE4B2A142EF
:101BD0003EBF641AE7B20C462344A1EB040128BFC0
:101BE0000027DBB2C9B23444A64209D183704378DE
:101BF000BB4282BF204B01221A600846BDE8F0813B
:101C000016F8015B02F8015DEEE70578ED1AEDB21A
:101C1000A9423FBF671AED19EFB20D4638BF5B18F6
:101C2000A1EB050132BFDBB227460023C9B29646BD
:101C300006EB050C664519D1521B0029D6D0002CA5
:101C4000D4D08C428ABF0B462346641A00F10406A6
:101C5000A1EB03018CBFE7B20027C9B2F418A6427A
:101C6000C4D016F8015B02F8015DF8E716F8018BA5
:101C70000EF8018DDEE700BF00D0004030B5D0B1D6
:101C8000C27805788478531CDBB2AB4208BF0023CE
:101C9000A34210D061B10A490244D1F8081511716C
:101CA000C3700133DBB29D4208BF0023A34205D0BD
:101CB0006FF00F0030BD6FF0360030BD002030BD3A
:101CC00000D0004070B584680122114620460AF019
:101CD0007FFA04F11800012200210AF079FA0423A6
:101CE00084F831300C23002584F83D300521114B58
:101CF00084F830100D2684F8335084F8325084F87C
:101D00003C6084F83F5084F83E50D3F8042542F0FC
:101D10000102C3F804250122C3F800513046C3F87C
:101D200004231A602A46FEF7CDFF3046FEF798FFDF
:101D3000284670BD00D0004038B5124BD3F80031B2
:101D4000FBB18568012105F13C00FFF797FF10F119
:101D5000100F04460DD010F1370414BF00210121EB
:101D600005F13000FFF78AFF044605F118000AF07C
:101D700039FA044B00221034C3F800211CBF0122A1
:101D80005A6038BD00D000402DE9F84385680F4601
:101D9000144605F1180814B92046BDE8F883FF2C55
:101DA000234628BFFF23E41ADEB2A4B205F13009AE
:101DB0004FF0FF3128460AF075FA31463A46484658
:101DC000FFF7FAFE064628460AF00CFA002EE2D08B
:101DD0004FF0FF3140460AF065FAE9E71346024842
:101DE0000A461946FFF7E8BE68040020084BC3F80E
:101DF0004005D3F80435C01A20F07F40054B023867
:101E0000984282BF044B4FF40032C3F80021704760
:101E100000100140FDFF7F0000E100E010B5124B13
:101E2000124CD3F804052268801A20F07F40B0F5E8
:101E3000A37F11D90E49096840F24713B0FBF3F0B4
:101E4000884228BF084603FB002323F07F4323601A
:101E5000084B18600AF068FA2068BDE8104000F2EC
:101E60004710FFF7C3BF00BF0010014080040020EF
:101E70007C040020644E0020024B0022C3F8402165
:101E8000FFF7CCBF0010014046F23543984228BF0F
:101E90001846054B1860054B1B6840F2471202FBC1
:101EA0000030FFF7A3BF00BF7C04002080040020A7
:101EB00008B5074B0022C3F84021064B4FF400320F
:101EC000C3F88021FFF7AAFF034B01221A6008BD67
:101ED0000010014000E100E07C04002070B51848CB
:101EE00009F072FD48B34368164D1B6801219847FD
:101EF000154B00241C60154B01261E6040F2471351
:101F0000C5F80845C5F840354FF48033C5F844336B
:101F1000C5F804330E4BC5F840414FF40032C3F806
:101F20008021314622461120FEF7CCFE1120FEF71B
:101F300097FEAE6020462E6070BD4FF0FF3070BD42
:101F40002CD2000000100140800400207C040020FE
:101F500000E100E030B50B4A0B48D2F80415D0E997
:101F60000045D2F8043599420AD1084A40F2471395
:101F700003FB1413106823F07F4300FB043030BDD3
:101F80001946ECE700100140382C0020684E002074
:101F900070B54FF02003EFF3118583F31188144CD3
:101FA000144E237803EBC312013303F003033244CE
:101FB000237085F31188402928BF40210E4D013838
:101FC000134602EB4106B34204D1002302F811305C
:101FD000104670BD4478240902332C5D03F8024C8E
:101FE00010F8014F04F00F042C5D03F8014CEAE7F0
:101FF000E0040020E104002041D3000010B50F4AA6
:102000000F4C137803EBC301013386B003F00103D7
:102010001370027843790492427803928278029294
:10202000C278019204EB4104027900921221054A20
:102030002046FFF77DF9204606B010BDDE040020E3
:102040008404002023D3000070B51D4A1D49137875
:1020500003EB4306013303F00103137003788AB0E6
:1020600006EBC60604460E4407AD032B21D8DFE875
:1020700003F0021A1C1E14492846FEF791FA6278F2
:102080000492A2780392E278029222790192627914
:102090000092A37905950D4A1B213046FFF748F9B8
:1020A00030460AB070BD0A49E6E70A49E4E70A4942
:1020B000E2E70A4A0A212846FFF73AF9DFE700BFBC
:1020C000DF040020A8040020DED2000000D30000BE
:1020D000E5D20000ECD20000F6D2000027E20000BA
:1020E00010B50748074C09F06FFC074B18602046F5
:1020F000FEF7CAFF2046FEF7E3FA002010BD00BF3E
:10210000B3D200007D23000084070020BFF35B8F63
:1021100050E8003F5A1C40E800210029F8D1BFF3E5
:102120005B8F1846704710B50023BFF35B8F52E8F2
:10213000004F42E8003EBEF1000FF8D1BFF35B8FC5
:102140006CB14379C218FF2C917103F1020203F1C3
:102150000103427150FA83F0A8BFFF24847110BDBF
:10216000002370B50371082383714180044616462D
:102170000AF0CEF8134D0A23584305236371C4F8BF
:1021800007002A4601212046FFF7CDFF2A1D022124
:102190002046FFF7C8FF05F1080204212046FFF79B
:1021A000C2FF05F10C0203212046FFF7BCFF05F139
:1021B000100207212046FFF7B6FF62790436324449
:1021C000228070BD6807002070B5064E4518044691
:1021D000AC4200D170BD306814F8011B43685B68E5
:1021E0009847F5E78407002008B5044B1B685A6838
:1021F000C1B2526818469047002008BD84070020ED
:102200000EB42DE9F0418BB011AC2F4B54F8048B78
:102210001A889B78ADF8082000218DF80A304246D4
:102220000546234608460394FFF79EF8021E17DB77
:102230008DF804500327254D8DF80570BFF35B8F93
:1022400055E8006F46F0010345E800310029F7D159
:10225000BFF35B8F16F0010607D01D48FFF756FF4E
:102260000BB0BDE8F04103B07047063292B20D21C9
:1022700004A8FFF775FF9DF8151004A80631FFF7B5
:10228000A3FF022101A8FFF79FFF394602A8FFF72D
:102290009BFF2346424631460E480394FEF7FAFE62
:1022A0000D4B1868436831465B689847BFF35B8FF6
:1022B00055E8003F23F0010345E80032002AF7D13A
:1022C000BFF35B8FCCE700BF52D300007C07002038
:1022D00078070020E92100008407002070B5214C18
:1022E000BFF35B8F86B00E46154654E8003F43F0BF
:1022F000010244E800210029F7D1BFF35B8FDB071F
:1023000013D5023803280ED8DFE800F00207090BC6
:102310001548FFF7FBFE06B070BD1448F9E71448F6
:10232000F7E71448F5E71448F3E7AAB20146684610
:10233000FFF716FF9DF8051068460631FFF744FFCA
:1023400029463046FFF740FFBFF35B8F54E8003F5C
:1023500023F0010344E80032002AF7D1BFF35B8F7A
:10236000D9E700BF7C070020680700206C07002029
:10237000700700207407002078070020F8B51F4B75
:10238000BFF35B8F054653E8002F42F0020143E89C
:1023900000100028F7D1BFF35B8F12F0020F1E462A
:1023A00015D10A2D164C174913D022687E2A10D851
:1023B000501C8D542060BFF35B8F53E8002F22F038
:1023C000020243E800210029F7D1BFF35B8F2846C2
:1023D000F8BD236800275A1CCF540C2009492260FD
:1023E000FFF77CFF2760BFF35B8F56E8003F23F0C9
:1023F000020346E80032002AE7D0F6E77C07002017
:1024000080070020E506002030B585B015461C4643
:102410008DF800008DF80110062229460DF102000A
:10242000FEF7FBF82146072202A8FEF7C3F80020BA
:10243000102269468DF80F00FFF750FF05B030BD40
:1024400070B50B4D06460FCD8AB06C460FC40FCD4C
:102450000FC495E80300092E84E803009BBF0AAB74
:1024600003EB8606034856F8280C0AB070BD00BF7F
:10247000B8CC0000FCDE00000378428813F00103B2
:1024800005D10949897B082901D89F2A0AD9808862
:10249000824207D81F2A05D9B0F5804F8CBF002093
:1024A0000120704700207047204C002000B5BFF38A
:1024B0005B8F50E8003F43EA010240E8002EBEF186
:1024C000000FF6D1BFF35B8F18465DF804FB00B533
:1024D000BFF35B8F50E8003F03EA010240E8002EA3
:1024E000BEF1000FF6D1BFF35B8F18465DF804FB19
:1024F0002DE9FF4115460F46064609F015FE274A0D
:102500002749029503468DE8C0000720FFF778FEB3
:10251000A879DFF89C8009F021F9804510D0AC79CA
:10252000204609F01BF9CDF808800190009433464D
:102530001A4A1C490420FFF763FE04B0BDE8F0818D
:10254000284609F011F9184C04EBC0004388B34247
:102550000CD0284609F008F904EBC0000F4A438864
:102560000093124933460420FFF74AFE284609F03B
:10257000FBF804EBC0004368002BDED0284609F0CE
:10258000F3F804F83070284609F0EEF804EBC000C8
:10259000406804B0BDE8F04109F024BEC9D3000092
:1025A000D3D80000FFD800008807002038D90000E9
:1025B000684F0020074BBFF35B8F420903EB820398
:1025C00000F01F001B6FBFF35B8F43FA00F000F0B9
:1025D00001007047204C00202DE9F34706460F46C6
:1025E00009F0A2FD1C4D1D4903462A468DE8C00096
:1025F0000720FFF705FE4FF0FF31194809F042F9B7
:10260000044609F091FD04F1080803462A460094A7
:102610001449154D0720FFF7F3FD4FF00009002185
:10262000404609F04EF984F81490204609F09CF8D1
:1026300005EBC0004680204609F096F805EBC00087
:102640000321C0F80490404609F07EF906808770A7
:10265000204602B0BDE8F08759D30000CFD5000076
:10266000684F0020F3D50000880700202DE9F041D5
:1026700080468AB015460C4621B9FFF7ADFF0446E7
:1026800000284BD009F050FDA389029304AF034604
:10269000244A2549254E07208DE81001FFF7B0FD9B
:1026A00001220021384609F093FD204609F05CF82C
:1026B00006EBC0004760204609F042F921461C485D
:1026C00009F003F942F21071384609F0EBFD09F008
:1026D0002BFD0746204609F047F816F830300193E5
:1026E000104A1449CDF800803B460720FFF788FDCB
:1026F000204609F039F816F8300038B1204609F0C4
:10270000F1F86FF004000AB0BDE8F0810DB12C6063
:10271000F9E7204609F0E6F82846F4E76FF03600BE
:10272000F1E700BF6BD3000047D600008807002008
:10273000D44C00206CD6000073B5054609F0F4FCBB
:1027400004462846FFF75AFC184E00902346184AC4
:1027500018490720FFF754FD062206F10801284614
:10276000FDF746FF0446D8B1062142F20500FFF707
:1027700033FF0446B8B106222946083009F0EAF8CA
:102780002146002242F20500FFF770FF044638B9E7
:102790000622294606F10800FDF73FFF0123F371E9
:1027A000204602B070BD6FF03604F9E7204C0020DF
:1027B00080D3000010DE000007B50621684602F055
:1027C0002BF940B99DF80530684603F03F038DF8BA
:1027D0000530FFF7B1FF03B05DF804FB38B5022107
:1027E000054642F20C00FFF7F7FE044620B3022133
:1027F000083009F0A9F8012D014614D10A20FFF78D
:10280000D9FE48700D700022214642F20C00FFF7FD
:102810002DFF044628B9012D08D180210848FFF773
:1028200045FE204638BD00234370EBE76FF0800182
:102830000348FFF74CFEF4E76FF03604F1E700BF02
:10284000904C00202DE9F8430C46FC2107469046A9
:10285000FFF7C2FE064600283CD0FC21083009F0F4
:1028600073F8FC2200210546FDF703FF4FF0000935
:10287000C14506D1314638460022BDE8F843FFF78E
:10288000F5BE62782B78D1180231FB2904F10804D7
:1028900006DD304609F026F86FF01500BDE8F88334
:1028A000E918501C4870981CC0B20133287055FAC2
:1028B00083F314F8081C5970013054F8041C2844A0
:1028C000FDF7ABFE2B7814F8072C13442B7009F19D
:1028D0000109CDE76FF03600BDE8F88308B50820A0
:1028E000FFF768FE014640B90720FFF763FE20B1FD
:1028F0000846BDE80840FFF771BF002008BD000092
:1029000008B5002211460820FFF7E8FC0221044820
:10291000FFF7CCFD0020FFF7E1FF002008BD00BF5E
:10292000904C0020012310B50621044600F8013B1D
:1029300002F072F818B9A37963F03F03A37110BDD8
:10294000F0B58BB008AA002140F60340FFF78EFED9
:102950000446002840F0B280089B9B681C7809F070
:10296000E3FB00940346B34AB3490720FFF748FC52
:102970006CB9B24B1C60B24BBFF35B8F012253E8C2
:10298000001F43E800200028F9D1BFF35B8F0898AF
:1029900008F0A8FF08AA002141F20300FFF766FE35
:1029A0000446002840F08A80089BA64E9D6809F0E6
:1029B000BBFB15F8013B0093A34A9F490346072040
:1029C000FFF71EFC2946082206F11600FDF725FE3A
:1029D000089808F087FF214608AA41F20100FFF796
:1029E00045FE35460446002868D1089B9F6809F0DB
:1029F0009BFB3B7890490093944A03460720FFF7DE
:102A0000FFFB7B78B373FA78BB78089843EA02231C
:102A100033823B79F3733A7AFB7943EA0223738278
:102A2000BA797B7943EA0223B38208F05BFF21463F
:102A300008AA41F20900FFF719FE044600283DD11B
:102A4000089B9F6809F070FB17F8013B0093804AD0
:102A5000794903460720FFF7D3FB06223946701C4D
:102A6000FDF7DBFD0898347008F03CFF214608AA0A
:102A700041F20200FFF7FAFD0446F8B9089B9F688F
:102A800009F052FB17F8013B0093724A6A4903466A
:102A90000720FFF7B5FB4022394606F11E00FDF77F
:102AA000BCFD089808F01EFFB37E580609D46A4A98
:102AB0006A490320FFF7A4FB6FF0120420460BB015
:102AC000F0BD214608AA42F20300FFF7CFFD0446FD
:102AD0000028F3D1089B9E6809F026FB16F8013BFD
:102AE00000935F4A544903460720FFF789FB3146AC
:102AF000082205F17800FDF790FD089808F0F2FE35
:102B0000AB7E99067AD595F83A301A0700F1B8806D
:102B1000082142F20100FFF75FFD0446002874D04F
:102B20000821084408F010FF95F8403003F0060330
:102B3000062B14BF02234FF4C173002203701B0A3B
:102B400043708270C270027142718271C2712146FB
:102B500042F20100FFF78AFD04460028AED10821A9
:102B600040F60140FFF738FD064600284DD0082109
:102B7000084408F0E9FE802343700223C370202339
:102B800004708470047144718471C37122463146AB
:102B900040F60140FFF76AFD044600288ED1014649
:102BA00008AA4FF60140FFF761FD002800F08A8077
:102BB0002C4A2D490420FFF723FB0023072206A9F6
:102BC00020480693CDF81B30FDF712FD002840F099
:102BD000D98009F0A9FA254F254A2649034607203E
:102BE000FFF70EFB3B68002B40F0008195F860304A
:102BF000DB0700F11A81204A20491FE1022140F63B
:102C00006D40FFF7E9FC064610B96FF0360455E752
:102C10000221083008F098FE012344700370224618
:102C2000314640F66D40FFF721FD044600283FF491
:102C30006AAF43E7B6D300006FD90000E407002075
:102C4000904C0020204C0020C0D4000058D400003C
:102C500070D400009FD40000FAD4000082D9000094
:102C600085D4000012D50000AAD90000142B002042
:102C70001ED500008ADA000002D5000014DB000037
:102C800008AA002142F21C00FFF7F0FC04460028CD
:102C90007FF414AF089B9C6809F046FA23780093F0
:102CA0008A4A8B4903460720FFF7AAFA2346089869
:102CB00053F8012F5B68C5F88430C5F8802008F010
:102CC00011FE25E7089B83499E68B6F80130032B67
:102CD00096BF814A814A52F823200620FFF790FAD6
:102CE000B6F80120B6F80330022A2AD1022B28D8E0
:102CF0007B4A52F823207B490620FFF781FA73793B
:102D0000D6F809100291032BB6F8071098BF764A3F
:102D10000191B17994BF52F82320704A00910620A6
:102D20007249FFF76DFA089808F0DCFD08AA002147
:102D30004FF60240FFF79AFC064620B16C4A6D49F7
:102D400038E7664AD7E7089B6B4899680222013149
:102D5000FDF763FC089808F0C5FD08AA31464FF658
:102D60000340FFF783FC10B1614A644922E7089BE6
:102D70006348996801221144FDF74FFC089808F058
:102D8000B1FD1AE75F4B18689A8808909B79ADF8F7
:102D9000242008A907225C488DF82630FDF728FC7E
:102DA00000283FF416AF5848FFF74EF9574902463E
:102DB0000620FFF725FAAE7B3046FFF741FBAB8AD2
:102DC00001932B8A00930246334651490620FFF7B0
:102DD00017FAEE7B3046FFF733FB6B8A009302460F
:102DE00033464C490620FFF70BFA67E600211E68C0
:102DF000454A07230846B04707287FF4F7AE2B78EB
:102E0000012B04D1AB7903F0C003C02B52D0424A4E
:102E100042490320FFF7F4F96FF01506404A414993
:102E20000320FFF7EDF9344648E605AA00214FF6E6
:102E30000940FFF71BFC28B1374A3B490420FFF744
:102E4000DFF916E0059B99684B7853B10123062200
:102E5000023136482B70FDF7E0FB059808F042FD83
:102E6000CDE704202C4A3249FFF7CAF9059808F04B
:102E700039FD09F059F9284A2E4903460720FFF782
:102E8000BFF92148FFF74EFD06460028C6D13B6832
:102E900063B15F681C4A07230146B8470728AED0D4
:102EA0001D4A25490320FFF7ABF9A8E71A4A234931
:102EB0000420F8E71D48FFF73FFC06460028ADD187
:102EC00004211F48FFF7F2FA6DE700BFDDD40000D0
:102ED0006FD90000D2D9000000DE0000FCDE000047
:102EE000F4DD0000EBD90000ECDE000003DA0000A6
:102EF00012D5000030DA00007F4C00205DDA0000BF
:102F00007E4C0020E0CC0000204C0020F4DB0000D0
:102F100001DC00003FDC000002D50000BFDB000048
:102F20001ED5000066DC0000C3DA0000214C002042
:102F3000E7DA000044DB000072DB000095DB0000F4
:102F4000904C002010B5FFF7FBFC08B9FFF7D8FC48
:102F5000034B1B6813B1BDE81040184710BD00BFFC
:102F6000E00700201FB5044609F0DEF8237D029338
:102F7000A3890D4A0193009403460C490720FFF7EB
:102F80003FF9237DA168032B96BF094AFF20D05C3F
:102F9000A289FFF7A3F9074BD3F8C430DB682046BA
:102FA00004B0BDE81040184727D50000B4D8000091
:102FB00055D30000204C00202DE9F74309F0B4F868
:102FC0005B4A5C495C4C5D4E03460720FFF718F9ED
:102FD00004F1B408737B6FF30713737309F0A4F85B
:102FE00001250346524A564900950720FFF708F984
:102FF0004FF0FF322946514809F054FD50B14C4A78
:1030000050490320FFF7FCF8404080F311884FF04F
:10301000040002DF09F088F84B4A4C49009503464A
:103020000720FFF7EDF809F07FF8737B464A48491F
:103030001B09009303460720FFF7E2F8737B1B0987
:10304000012B06D9042B07D03F4A42490420FFF741
:10305000D7F809F04BF8BDE7377B002FF9D109F01D
:1030600063F83D4A3D4903460720FFF7C9F8394652
:10307000404608F00DFC0546002856D009F054F8EB
:10308000354A374903460720FFF7BAF84FF0FF31BA
:10309000344809F007F9D4F8A030002B39D128467C
:1030A00008F04EFCC4F8A00009F03EF8814628461E
:1030B00008F05AFB2C4F019507EBC000264A4388C5
:1030C00000932A494B460720FFF79AF82846FFF756
:1030D00049FF03460028BCD01F4A25490320FFF7BB
:1030E0008FF8204809F07EF8284608F03DFB07EBF2
:1030F000C00000221F214088FFF7FAF9D4F8A00091
:1031000008F0F0FB00232846C4F8A03008F0EAFBE2
:103110009FE7114A17490320FFF772F8D4F8A0007F
:1031200008F0E0FBC4F8A070B9E70B4A124968E761
:103130004AD4000089DC0000204C0020E84C00202C
:103140009ADC0000C1DC00003BD40000DFDC0000A2
:10315000F1DC000007DD000032D400002CDD0000AF
:1031600049DD0000A84C00208807002068DD000031
:1031700021D600009BDD0000BADD00002DE9F04FF4
:10318000037D032B044698BFB54AA16898BFD05C65
:10319000A28989B088BFFF20FFF7A0F808F0C4FF1C
:1031A000A389019300940346AE4AAF490720FFF775
:1031B00027F8267D012E40F04681A76808F0B4FF6D
:1031C0003B780093A94AAA4903460720FFF718F85D
:1031D0003B780E3B012B00F26F81A44AA5490320E6
:1031E000FFF70EF8404080F311884FF0040002DF33
:1031F000A56808F099FF2B7800939F4A9F490346E2
:103200000720FEF7FDFF6FF010019D48FFF75FF903
:103210002B7843B9691C40229A48FDF7FEF9082132
:103220009748FFF743F9984B1E686F1C36B9204644
:1032300008F058FB002009B0BDE8F08F2A78336809
:10324000002A0CBF3846002098477668EEE7A5684C
:103250008E4E08F069FF2B7800938D4A874903460C
:103260000720FEF7CDFF3268002AE0D02B7823B983
:10327000681C904700233360D9E70020F9E728460F
:1032800008F081FB804608F04FFFCDF80080034630
:10329000804A8149DFF81CA20720FEF7B1FFB8F190
:1032A000000FC4D0A6680921284608F064FB337AD1
:1032B0003344771C93F909B008F036FF814638464D
:1032C000FEF7C2FECDF80CB0337A02933378714A20
:1032D00072498DE809004B460720FEF791FF73788D
:1032E000023B012B4FF00702394606A829D8FDF70B
:1032F00094F99DF81830023B8DF81830DAF8003058
:10330000ABB1284608F047FBA3890593337AA38124
:1033100081462B463278DAF80070594606A8B8473D
:10332000236913FA89F3A360BDF81430A381317ABD
:103330002846013108F1FF3808F01DFB5FFA88F8D4
:10334000ADE7FDF76AF9D9E7284608F01CFB80468F
:1033500008F0EAFECDF800800346514A4E49DFF8F6
:1033600054A10720FEF74CFFB8F1000F3FF45FAF08
:10337000A6681721284608F0FEFAB37D3344771C6F
:1033800093F917B008F0D0FE81463846FEF75CFE90
:10339000CDF80CB0B37D02933378414A3F498DE8B4
:1033A00009004B460720FEF72BFF7378023B012BE9
:1033B0004FF00702394606A829D8FDF72EF99DF8E7
:1033C0001830023B8DF81830DAF80030ABB12846DF
:1033D00008F0E1FAA3890593B37DA38181462B46CA
:1033E0003278DAF80070594606A8B847236913FA0C
:1033F00089F3A360BDF81430A381B17D2846013163
:1034000008F1FF3808F0B7FA5FFA88F8ACE7FDF783
:1034100004F9D9E7A589A0682946FEF7B9FD214A34
:1034200021490190009533460420FEF7E9FEFEE6AF
:10343000A589A0682946FEF7ABFD009501903B46A3
:103440000A4A1A49F0E73346064A19490320FEF7AB
:10345000D7FE204608F046FA6FF01500EBE600BFF5
:1034600055D300002FD50000ACD6000028D40000B2
:10347000C3D60000BBD7000093D30000F2D60000F3
:10348000904C00209C070020DC07002098070020BB
:10349000A4D3000008D4000008D700002AD70000F9
:1034A000F6D3000016D4000054D700007DD70000EA
:1034B000A3D70000E407002004F1080502212846F4
:1034C00008F059FA3F783E2FB2D1A76808F02CFED9
:1034D0003B780093144A154903460720FEF790FEF7
:1034E0003146284608F047FA3E78B31E0B2B91D898
:1034F00001A252F823F000BF7F3200001534000013
:103500001534000015340000153400001534000097
:10351000F13100004F320000153400001534000076
:10352000153400004933000016D40000D9D600003D
:103530002DE9F341037D8668032B044696BF374A85
:10354000FF20D05CA2893146FEF7C8FE237D012B07
:103550000AD0334A33490320FEF752FE404080F33D
:1035600011884FF0040002DFA389012B02D82C4AF6
:103570002D49F0E733780E3B012B4CD804F10805B8
:103580000221284608F0F7F933780E2B07D00F2BCD
:1035900027D0204608F0A6F9214A2449DBE7A36892
:1035A000B3F801601F7808F0BFFD214A2149009659
:1035B00003460720FEF724FE0321284608F0DBF926
:1035C000A368224619783046FEF792FF17B11A48D1
:1035D00008F008FE204608F085F9002002B0BDE89A
:1035E000F081A668778896F8018008F09DFD134A5F
:1035F0001049009703460720FEF702FE04212846E3
:1036000008F0B9F9224631783846FEF771FFB8F173
:10361000000FDFD0DBE7024A09499CE755D30000E1
:1036200037D50000EED7000026D800006BD8000088
:10363000D6D3000054D80000A84C0020E7D30000E7
:1036400082D8000030B5184BD3F8C44085B0054689
:103650001CBB826822B3C26812B3C3F8C40008F06E
:1036600063FD2B68114A1249002B08BF13460093D3
:10367000104A03460720FEF7C3FD2B680E4A29793E
:103680000294002B08BF1346204602AAADF80C4056
:10369000FEF7BAFE204605B030BD6FF04400FAE7F1
:1036A0006FF01500F7E700BF204C00202FCD000081
:1036B00095D6000044D5000091D6000070B5284D85
:1036C000D5F8C43086B006464BB9264A26490320B1
:1036D000FEF796FD6FF01204204606B070BD012182
:1036E00005F17000FEF7E2FE10F0010035D11F4B2E
:1036F0001F491E606FF00803059004900393029029
:10370000019000901B4B1C484FF46B7208F0A6FF11
:10371000D5F8C4309B689847044630B10346114A37
:1037200016490320FEF76CFDD6E74EB9FFF708F9FE
:1037300004460028D0D106B0BDE87040FFF7E0B8DD
:10374000012105F16C00FEF7B1FEC307C4D405F1F9
:1037500064010B4808F0FBFABEE76FF04404BBE7D6
:10376000204C00205BD5000092D50000E00700202F
:10377000B82C0020B92F0000E8070020AFD50000CA
:10378000402C00202DE9F04389B005460F469046B5
:103790001E46FEF771FE28B96FF01504204609B0E9
:1037A000BDE8F0830520FEF705FF0446002840F041
:1037B000A4800146172202A8FCF75BFF6B88ADF8D6
:1037C0000B30AB88ADF80D3007238DF80F30012397
:1037D0008DF81A308DF81B30494B8DF80840186869
:1037E00000909B88ADF8043069464FF0020906222C
:1037F0000DF112008DF81D908DF81C40FCF70DFFA7
:103800002B78D9071AD54846FEF7D4FE10B13D48AB
:10381000FEF792FF3C4B1B788DF8103003238DF898
:10382000093000238DF80A30172142F23600FEF7E6
:10383000D3FE0446C8B96FF03604AFE7A86888B174
:10384000437913F0C00FA7D1FEF776FF0446002896
:10385000A4D101238DF8103040238DF809308DF864
:103860000A00E1E7FEF7A8FFF0E7172202A90830F7
:1038700008F070F82146002242F23600FEF7F6FE0C
:10388000044600288AD14246394642F23700FEF704
:10389000D9FF0446002881D12EBB2B78DA0722D429
:1038A000012142F23900FEF797FE04460028C2D0FB
:1038B0000121083008F057F82146002242F2390071
:1038C000FEF7D4FE044600287FF468AF20210F489D
:1038D000FEF7ECFD2B789B073FF560AF40210B48CE
:1038E000FEF7E4FD5AE7109A314642F23800FEF73F
:1038F000A9FF04460028D3D050E76FF044044DE7F9
:10390000E7CC0000214C0020204C0020904C0020EF
:1039100038B50546054807F0B5FF044620B100213B
:10392000083007F0CEFF2575204638BD884F0020AF
:1039300073B506464FF02003EFF3118283F311882D
:10394000114B0025D3F8A040C3F8A05082F3118892
:1039500008F0EAFB009403460C4A0D490720FEF7E5
:103960004FFC34B93146012002B0BDE87040FFF78A
:10397000CFBF012304F108002375A581294607F074
:10398000A0FF204602B070BD204C002065D500008D
:103990007DD50000F7B51860C31D054623F003036D
:1039A000501E0E4680B214461A800021042206FBE7
:1039B0000050FCF75EFE023CA4B24FF6FF77BC421B
:1039C00001D103B0F0BD04FB06602B180422801B5C
:1039D0000DEB02012844013C0193A4B2FCF71DFE4B
:1039E000EDE773B50568064695B1EB1D23F00303BB
:1039F00004221C8829460DEB0200FCF70EFE019BF9
:103A0000013CA4B21BB1DA1D22F003021480336022
:103A1000284602B070BD70B50C6806460D461CB154
:103A2000E31D23F003031C88042229463046FCF7DB
:103A3000F4FDF21D22F00302631C13802E6070BDA2
:103A400002FB01007047401A80B2B0FBF2F07047F1
:103A500010B5114401384FF6FF73013A92B29A4201
:103A600000D110BD11F8014D00F8014FF5E71060CD
:103A70000860704710B514682060146861601060B9
:103A800010BD884203D01AB143681360704700200C
:103A900070470B68834209D022B1586810601A68D9
:103AA0000A6001E0002BFAD1184670470023FBE7BB
:103AB0002DE9F047114FDFF848900426013EF6B299
:103AC000FF2E19D033B24FEA830803EB43031D01E5
:103AD00004244FF00C0A0AE01AFB04510A1D04EBFF
:103AE00008003A44394409EBC000FFF7C0FF013C2D
:103AF000E4B2FF2CF0D1E1E7BDE8F087D008002068
:103B000050080020F0B4124B05460F460C26302416
:103B100072B1614306FB00142344597A187A81423A
:103B200004BF0131197228463946F0BC07F046BD82
:103B30004C4306FB004423449C7ADA7AA24204D127
:103B400001329A72F0BC07F081BDF0BC704700BF33
:103B5000D0080020F8B505460E461C468AB1012360
:103B600062782078801A10F0030729D003B3012F60
:103B700039D00132D2B222703146284607F066FDB4
:103B80001CE007F051FD0028E9D03146284607F037
:103B900031FD0028E3D030230C22734302FB0533B0
:103BA000124A1A44937AD27A9B1A18BF0123D7E794
:103BB0000232D2B22270E368A06898470020F8BDB4
:103BC000002BF8D00132D2B222700423302212FB33
:103BD00006320C2313FB0523044A60681A4421466D
:103BE000FFF748FFC8E73846F8BD00BFD0080020FF
:103BF0002DE9F04F00EB400389B01B014FF00008A6
:103C0000434E049305460424CDF80480013CE4B2FD
:103C1000FF2C0BD1019B002B76D0B8F1000F73D194
:103C200042462946284607F0C9FC6DE00DF1200BFD
:103C300000230C274BF8043D4FF0300907FB04F339
:103C400009FB053031185A46496830580293FFF78E
:103C500018FF049B17FB0437F31982460393BAF14C
:103C6000000F19D130220C236A4303FB0422324493
:103C7000917AD07A88421EBFD172012201923022FD
:103C80006A4303FB042333441A7A597A91421CBFD6
:103C90005A724FF00108B9E7079B1F785A78BF1A8C
:103CA00007F00307012F04D1013A5A709868DA68C7
:103CB0009047079A13785278DBB29A1A02F00302FF
:103CC000012A05930DD0029B039909FB053030446E
:103CD00000224068FFF7DDFE079A059BC2F804A0AA
:103CE0005370029B09FB0533F1185A464968F05896
:103CF000FFF7C7FE012F8246B1D10CB90028B1D021
:103D00002946284607F0A2FC09B0BDE8F08F00BFA5
:103D1000D008002010B5421E00200139C9B2FF2989
:103D200000D110BD12F8013F002BF6D05C1E01300F
:103D30002340C0B2F8E7F0B5437F05681A46002477
:103D4000FF2A01D10020F0BD02EB82078A4205EB79
:103D5000C70615F8377004D0B3681C4413463A46BA
:103D6000EEE7934200D147771BB203EB830332782F
:103D7000B06805F833203378FF2B06D003EB8303BC
:103D800005EBC3039A6802449A602044F0BD30B545
:103D9000551A15F4000F8368446909D125F07F4254
:103DA0001A44A2420ED9121B00248260446130BD25
:103DB0008A1A22F07F42934201D99A1AF1E72244EB
:103DC000D41A0022A41A0022EFE7034600221A7038
:103DD0009A6A596208460AB1D96A104770472DE9B4
:103DE000F047857F01230446C377002D4CD1437FE4
:103DF000FF2B02D1C577BDE8F08706F087FF676922
:103E0000667FD4F80080C71B27F07F47FF2E06D0BF
:103E100006EB860608EBC6018B689F4218D2A27A91
:103E2000E37A934205D10133DBB2022B08BF0023B2
:103E3000E372E37A04EB83030122DD600023656A09
:103E4000E377AC46234604210320BDE8F0476047F2
:103E5000FF1A1D448A784B7818F836609B1ADBB23B
:103E6000012BD3D1D1F80C90013A8A70B9F1000F2F
:103E7000CCD048696369CA8B281A184420F07F4067
:103E80000B69496AC847C1E7BDE8F0872DE9F04FE3
:103E9000C27F93B08346002A40F0BA8343690593FA
:103EA0000121837A8177C07A984200F08F800B4499
:103EB000DBB2022B08BF00238BF80A300BEB830325
:103EC0000191D3F80C80059B434423F07F43CBF84A
:103ED00014309BF81D300393DBF800300493DBF8BB
:103EE00004300B939BF80930013BDBB202930023B3
:103EF00007934FF0FF0A029BFF2B6AD19BF81D30FE
:103F0000039A9B1A18BF01230293019BE3B1DBF8CC
:103F1000003004934FF000099BF81D60FF2E0CD079
:103F200037B2049B07EB870703EBC704A568454539
:103F300040F23681A5EB0805A560029B019A039922
:103F4000B14218BF13460293DBF800300893DBF848
:103F5000043010939BF80930013BDBB20193019BC5
:103F6000FF2B40F070819BF81D30039A9342079B12
:103F700040F045835BB99BF80940DBF804300193BE
:103F8000013CE4B24FF00008FF2C40F0A082002377
:103F90008BF81E30029B4BB19BF81D30FF2B40F07D
:103FA000E98206F091FE08B9CBF818009BF81F30A3
:103FB000002B00F02D83DBF824405B460122032117
:103FC0000420A44613B0BDE8F04F6047019290462C
:103FD0007FE70B9B029A03EBC2077B680693F97895
:103FE000BE788E4200F0D780069B387806EB4602FA
:103FF00012019D18731CDBB2984208BF0023BB70EE
:10400000069B9A5C032AEBD9052A17D8697801EB3D
:1040100081030A930A98049B03EBC0046378A07899
:104020001B1A13F0FF0309D0042A0CD16A6852B995
:10403000AA6842B9EA6832F07F4204D101212846D9
:10404000FFF7C3FECBE7012B40F09B805846FFF7FC
:1040500072FE2B78A060042B064640F08480DBF8CB
:104060001430089306F052FE089B0990C31A23F0FF
:104070007F4343449E4202469EBF6269921B9B1847
:10408000626896BF6361F31A00238AB1A98979B186
:1040900001F1FF3E1FFA8EFEA5F80CE09A422BD3E9
:1040A000DFF82493B4F81EC0E64547D8A4F81CE016
:1040B000AA8808991344A360EA886369134463617A
:1040C000099A2046FFF763FEA2692B891344A36176
:1040D0006A8993428CBF9B1A0023A361AB7B03B117
:1040E000E370049B0A9A03F832A0637895F801A064
:1040F000013363700021A2E7B4F81EC0E645CFD2B9
:10410000616AAF4EAF488E19864281BF01F1E871F6
:1041100001F5D43101F5A5716162666A216A8CBF2F
:104120004FF001094FF00009761A91440CF1FF3C61
:104130006662A3EB0903A4F81EC0AFE7666A216AB2
:10414000A0480E449E49711881428EBF0021012172
:104150004E4411440CF1010C8CBF666266620B4444
:10416000A4F81EC09EE7A37863706B789BF81C20B0
:104170009A4201BFFF238BF81C300023CBF8183084
:10418000B8E704215B46DBF8244001220846A0473B
:104190000123BE700793029B013BDBB20293AAE6A8
:1041A000DBF818309D4229BFFF235B1B8BF81C30C6
:1041B0000023CBF81830A369A9441BB18BF81C600D
:1041C000CBF818300022049BA26013F837308BF82C
:1041D0001D30D4F804E0BEF1000F30D0A08BDFF822
:1041E000E4C1636A216A0B447549591861459FBF50
:1041F000A3F1E873A3F5D433A3F5A573636292BF6B
:10420000019B63620023734410F1FF301A44E8D22B
:10421000059BA260DBF8141003EB09022046FFF7B0
:10422000B6FDA38BE3830023E370049B03F837A060
:10423000637801336370A8EB0508B2466CE6A37897
:1042400063705646F7E7109B019A03EBC203049391
:104250005B680A93049B93F80190BAF1FF0F00F09A
:104260008E800FFA8AF303EB8303089AD04612F884
:1042700033A002EBC3040025DBF800300B93FF23CF
:10428000A28B2370E38B934286BF9B1A9BB20023C1
:104290000C930FFA88F303EB8303DB001193119B5C
:1042A000DBF80020DBF81800059002EB030EFF207E
:1042B0009BF81D30DEF8081009930690FF2B07D0FD
:1042C00003EB830C02EBCC06B068814200F2A980BC
:1042D000DEF818000D9001EB000C1E46FF2E40F09A
:1042E000AE800D9830B105988142C0F0BF80FF2E9E
:1042F00040F08A810998CEF80810834218BFBDF9B2
:1043000024008EF8003016BF00EB80008BF81D8073
:1043100002F83080FF2B06D003EB830302EBC303CC
:104320009A68511A9960A378013363700021002DB7
:1043300093D02846FFF749FD8FE709EB49030A9A16
:104340001B01D51809F101025FFA82F9049A12786B
:104350004A4508BF4FF000090A9AD35C032B0ED1DF
:1043600095F80180089B08EB880403EBC40462788D
:10437000A3789A4209D001212846FFF726FD049B25
:104380009B784B45D9D1019BE6E5EB68DBF814102F
:1043900063602B692362AB8AA383AB69A361EB697A
:1043A000E3602B6A23610026AB68A36066616A68DC
:1043B0002046FFF7ECFC01236662E683E3705BE7CF
:1043C0005A2B17FF592B177FB6562EFE6068002810
:1043D0007BD0626A216A904B0A449049D3188B4281
:1043E0009CBFA2F1E872A2F5D432A3688BBF6262CF
:1043F000A2F5A57200226262034498BF0122134411
:10440000E28BA3600132E283626993424FF00001C4
:1044100089BF9B1AD31AA36061619CBF6361A160CD
:104420003DE7B669091A46B9059FB84200D23E1A5F
:104430000993059612F83C3040E70693F8E730B24E
:1044400000EB800002EBC0070E97BF680F9767452F
:104450000AD20E9FBF69002F7FF443AF0F9EACEBD3
:10446000060C12F8306039E7FF263AE7069B9845BC
:104470003FF459AF069BFF2BA8D01E4633B203EB87
:1044800083030593059A0B9B03EBC207FB8BBA8B47
:10449000934288BF9B1A7A688CBF9BB20023002A84
:1044A00094D00C9A934291D8FA78E3789A428DD2BC
:1044B00031465846FFF73FFCBB787B70059A0B9B53
:1044C000B86003F832A0B246E9E601212FE7019B6C
:1044D00003EBC4056E686B78EA789A4202D1013C1E
:1044E000E4B251E503EB43031B01F218F35C012B2B
:1044F00025D0022B2AD1D2F804C093689CF8000082
:10450000D2F80C90DBF800E0FF2804D01968DBF843
:104510001470B94223D0DBF814009BF81D1018600A
:104520000023FF2907D001EB810A0EEBCA0087693F
:104530008068DFB103448CF80010C9F80030936A3A
:10454000C2F8248013B1D16A002098476B782A788A
:104550000133DBB29A4208BF00236B70BBE700EB6C
:104560008000D9F800301EF83010DAE703441EF856
:104570003A10D6E7039BFF2B07D106F0C7FB044692
:1045800006F094FB08B9CBF814409BF81D30DBF81B
:10459000002003EB830302EBC3030A269D6806F0A9
:1045A000B5FBDBF81440031B23F07F430333AB421E
:1045B0002CBFE418641924F07F440746DBF8283048
:1045C0002046984706F0A2FBC01B20F07F40E41B6A
:1045D000033024F07F44A0427FF6E8AC013EDED1F8
:1045E0000F4A10490320FDF70BFE404080F311886D
:1045F0004FF0040002DF00238BF81E30CCE4002BC8
:10460000F9D101230293B6E4B0457FF437AF8AE6CF
:1046100013B0BDE8F08F00BF5A2B17FF592B177F3F
:1046200004DF00001EDF0000F0B51A4D059F9DF865
:1046300018402C26464305EB060EAA518EF80810AA
:1046400007998EF80930CEF80470013BDBB2FF2BDE
:1046500011D1ECB92C2202FB005208991162099980
:1046600051620A99916253771377946154619472FD
:10467000D4722046F0BD1AB207EBC206716017F87B
:10468000322002EB4206A41A01EB0611E4B2DCE789
:104690000120F0BD90090020074A2C2100FB0123D6
:1046A00010B45C6A2CB1A44601220321022010BC84
:1046B000604710BC704700BF900900202DE9F0470B
:1046C000254F4FF02C08814608FB00700FFA81FC43
:1046D000D0F804E00EEBCC061EF83CE0F478651C44
:1046E000EDB2AE4598BF002596F801E0AE452FD05B
:1046F000D6F804C004EB44044FEA041E0CEB0E048D
:104700004FF0030A0CF80EA06360089BA360099B9E
:10471000E3600A9B23610C9BA361BDF82C30A3824C
:104720000D9BE3610E9B2362022363620F9BA362D6
:10473000109B6270E362F570456A036A0846984709
:1047400009FB087300220421A847606ABDE8F087CE
:104750000120BDE8F08700BF900900202DE9F04757
:10476000DFF890804FF02C0A0AFB008E0FB2DEF8C3
:104770000450814605EBC70015F83750C478661C15
:10478000F6B2B54298BF00264578B5422FD0D0F892
:1047900004C004EB440425010CEB050404270CF8C9
:1047A0000570A380BDF82030E380BDF8243023815C
:1047B000BDF828306381BDF82C30A3819DF83030DE
:1047C000A373022363620D9BA3620E9B6270E3627C
:1047D000C670DEF82030DEF824500846984709FB02
:1047E0000A8300223946A847606ABDE8F0870120A5
:1047F000BDE8F087900900202DE9F047DFF86C90C4
:104800004FF02C0A0AFB009E8046DEF804000EB230
:1048100000EBC60710F83600FC78651CEDB2A84224
:1048200098BF00257878A8421DD0786804EB44042E
:10483000240106194FF0050C00F804C07270B36231
:104840000222089B7262F362FD70DEF82030DEF80F
:1048500024400846984708FB0A9300220421A047F9
:10486000706ABDE8F0870120BDE8F087900900205C
:104870002DE9F047DFF878804FF02C0A81460AFBDB
:1048800000800FFA81FE456805EBCE0715F83E5013
:10489000FC78661CF6B2B54298BF00267D78B5421A
:1048A00023D0D7F804C004EB440425010CEB050425
:1048B0004FF0020E0CF805E0A360089BE360099B33
:1048C000A362FF250A9B62606570C4F824E0E3627E
:1048D000FE70456A036A0846984709FB0A8300226E
:1048E0000421A847606ABDE8F0870120BDE8F08791
:1048F000900900202DE9F047DFF86C904FF02C0A6A
:104900000AFB009E8046DEF804000EB200EBC607EC
:1049100010F83600FC78651CEDB2A84298BF00255F
:104920007878A8421DD0786804EB44042401061965
:104930004FF0010C00F804C0FF207070022070627C
:10494000B262F362FD70DEF82030DEF824400846E3
:10495000984708FB0A9300220421A047706ABDE82B
:10496000F0870120BDE8F087900900202DE9F04193
:10497000084C2C2505FB004306465F6A1B6A084667
:10498000984706FB0543BC4600220421BDE8F041E0
:10499000604700BF9009002006F0B8B9401A20F027
:1049A0007F40704708B50346012B08460ED833B147
:1049B00019B106220649FBF730FE054808BD19B1BA
:1049C00006220449FBF729FE024808BD002008BD65
:1049D000EE090020E809002070B506460D4605F0F6
:1049E00021F9044610B10C24204670BD05F030F9C1
:1049F00010F0060FF7D1062229461EB10248FBF738
:104A00000CFEF1E70148FAE7EE090020E809002072
:104A1000002303700B707047F7B507460E460C462F
:104A2000351B3D448CB1FCF76FFD032C019007D979
:104A300004220DEB02012846FBF7EFFD043CEFE7F3
:104A4000224601A92846FBF7E8FD002003B0F0BD8F
:104A500008B50248FEF7F6FD002008BD8CDF000017
:104A60007FB52F4D2F4E07F05FFB2A460346314698
:104A70000720FDF7C5FB4FF0FF312B4807F08BF9FE
:104A8000044607F051FB2A46034628490720FDF754
:104A9000B7FB002C31D0204600F0DEFE0228039444
:104AA0002ED801280EBF00214FF0FF310120FEF764
:104AB0002FFF044618B10146039800F013FE039B34
:104AC0000021D88805F094F904A8002250F8043D8C
:104AD0001A6005F023F984B1A389E3B107F024FB40
:104AE000A3890193237D00932A460346104907209A
:104AF000FDF786FB2046FEF741FB07F0F7FAB2E729
:104B00000C4A0D490320FDF77BFB404080F31188E0
:104B10004FF0040002DF204606F0E4FEEDE700BFA0
:104B200052DF000087E00000584F002099E00000AD
:104B3000ACE0000046DF00006BD8000037B504464B
:104B400007F0F2FA1C4A1D4903460720FDF758FBFF
:104B5000A3893BB9184A1A490320FDF751FB6FF0AE
:104B6000150021E0237D0BBB204600F0ADFA054681
:104B700060B107F0D9FAAB890093124A1249034693
:104B80000720FDF73DFB2846FEF7D2FC204606F045
:104B9000A9FE07F0C9FA0024034600940720064A3C
:104BA0000A49FDF72DFB204603B030BD024A0849F3
:104BB0000320FDF725FBD2E769DF0000CFDF00000F
:104BC000DEDF00005EDF0000F3DF00001CE000001D
:104BD0002EE0000073B5184C184E194D0DF102016E
:104BE00001A805F063F80028F8D1019B73B105F026
:104BF0006BFB07F099FA2246034612490720FDF79E
:104C0000FFFA0199104807F0A2F8E7E707F08CFADD
:104C10002246034631460720FDF7F2FA4FF0FF31F6
:104C2000284607F03FFB07F07FFA22460346074974
:104C30000720FDF7E5FAD1E735DF00005FE000006F
:104C4000404F002046E00000584F002074E0000074
:104C500010B51B4886B005F0F7FB044640B1194A71
:104C6000194903460320FDF7CBFA204606B010BDD4
:104C700000F012FE6FF0090303934FF43B72134BE5
:104C8000134905940494029401940094114807F088
:104C9000E5FC6FF0070340F22C520F490393059493
:104CA0000E4B04940294019400940D4807F0D6FC36
:104CB00007F03AFA034A0B4903460720D3E700BF3F
:104CC000404F002079DF00009CDF0000D54B000042
:104CD00058320020802B002048350020614A000017
:104CE000182B0020BDDF0000C0F307230870000C64
:104CF0008870000A4B70C870704738B508300D4690
:104D00000221144606F020FE0570447038BD0000F4
:104D100038B504464FF0FF300D46FEF709FEEA1C99
:104D20002060D2B20E21FFF7E8FF2068032108308F
:104D300006F00AFE01230370054B1B88A0F8013022
:104D4000206829460830BDE8384006F0FDBD00BFA8
:104D5000F409002070B50446154601320E460834A9
:104D6000D2B23E21FFF7C9FF0121204606F0ECFD3B
:104D7000067029462046BDE8704006F0E5BD0000FB
:104D8000F7B501238DF8013003238DF80230FF239E
:104D90008DF803308DF8053002238DF80630254B51
:104DA0000746104604228DF80420D3E90023002290
:104DB00003F00053002413438DF8004038D01E4BFD
:104DC000D3E90023002302F00202134330D03B78E2
:104DD00003F00F03012B7B781CBF9C1FE4B2194426
:104DE00004F10B028E7AD2B20221FFF7B3FF012346
:104DF00003703B7802AA03F00F031344394613F8FB
:104E0000083C437011F8023B0546C3F380138370DE
:104E100006220330FBF701FC0A3505F8014C764207
:104E200076B2224607F108012846FBF7F6FB2E551D
:104E300003B0F0BD004D0020084D0020F0B58BB050
:104E40000024037AB0F8032006780D46B0F801106C
:104E50000994477D0897077D0797C77C0697877C4D
:104E600005970494047C0394C479029400F10A0425
:104E70000194407A0090304605F084FB02210446FC
:104E80002846FFF745FF04700BB0F0BD38B5007839
:104E90000D4605F0E7FD012104462846FFF738FFDF
:104EA000002C0CBF00230C23037038BD70B50446E2
:104EB0001846134B1646D3E90023002203F0005393
:104EC00013430D461BD00F4BD3E90023002302F000
:104ED0000802134313D00B220421FFF73BFF0822E3
:104EE0000470A0F80160033024B9291DBDE87040AA
:104EF000FBF793BB0021BDE87040FBF7BABB70BD68
:104F0000004D0020084D002070B503788AB004469B
:104F10000E4607AD032B20D8DFE803F002191B1D56
:104F200011492846FBF73CFB62780492A278039271
:104F3000E27802922279019262790092A379059532
:104F40000A4A1B213046FCF7F3F90AB070BD084944
:104F5000E7E70849E5E70849E3E7084A0A21284660
:104F6000FCF7E6F9E0E700BFDED2000000D3000066
:104F7000E5D20000ECD20000F6D2000027E20000EB
:104F80002DE9F0410D46417816466A1890B0977A9F
:104F90007F427FB20497027801910446D0090390C2
:104FA000C2F3801002F00F02029000923F49404A83
:104FB0000420FDF725F9237803F00F03072B6ED1AA
:104FC0006378002B6BD0A3783A4903F03F0200923C
:104FD0009B090420364AFDF713F9A37898065BD0A5
:104FE000E378D90704F1040518D523780DF14008BA
:104FF000C3F3801308F8243D062229460DF11D0055
:10500000FBF70BFB09A94046FFF77EFF09AB284AD7
:105010002949042004F10A05FDF7F2F8E3789A071C
:1050200048BF0635180748BF0235D90648BF0335C3
:105030005A0606D515F9013B1D4A20490420FDF703
:10504000DFF8A278C2F305036278D21AD2B202F175
:10505000FF3818323046D2B20D21FFF77BFE012314
:105060000370E378DB075FFA88F8064608D59DF8F9
:105070001C30837006220DF11D010330FBF7CDFAC1
:105080000723737086F81780183642462946304643
:10509000FBF7C3FA06F8087010B0BDE8F08132469D
:1050A00029462046FFF76CFEF6E700BF2EE200001F
:1050B000FDE000006FE2000094E20000A1E20000C9
:1050C0000346006859687047F0B581898FB00025A4
:1050D00002290446039507D8C14AC2490320FDF7B7
:1050E0008FF828460FB0F0BD8368BF4E1A78587805
:1050F0009B7842EA00228B42328002D9B84ABB49EF
:10510000ECE7032104F1080006F035FC3388C3F313
:1051100009029B0A042B6BD00ED8032B2CD0012143
:1051200003A8FFF7F5FDAE4AB14904460320FDF799
:1051300067F80123237034E0082B00F0E6803F2B52
:10514000EDD1013A092AEAD801A353F822F000BFB1
:10515000FF5400002D550000555500001F51000060
:105160001F510000995500001F5100006B550000B1
:10517000A35500000F560000032A14D008D8012AB6
:10518000CDD1A068FFF79CFF9A4BC3E9000103E073
:105190002D2A17D0632AC2D1012103A8FFF7B8FD39
:1051A000057003989EE7934B4FF0FF3041F6FF7177
:1051B000C3E90001904B1F200021C3E9000104F066
:1051C000D5FCE9E7A368042103A81D889F78FFF7B1
:1051D0009FFDAEB20446C21C3946304604F05CFD69
:1051E00000280CBF002302232370A4F80150D8E745
:1051F000013A082A93D801A353F822F02152000063
:105200004B520000D75200001F5100001F510000F8
:105210001F5100001F5100001F510000F3520000F9
:10522000092103A8FFF774FD002303708370C37086
:105230006FF00E0343710523092283714FF0FF3392
:1052400042700271C3710372ABE7412103A8FFF7FB
:105250005FFD00210446402200F8011BFBF709FA1C
:10526000E378207FA17EE27E63F07F03E370A37981
:1052700063F03F03A371E37A43F00403E372E37B3B
:1052800043F02803E373237C43F002032374E37D9C
:1052900043F00403E37594F8253063F0110384F8B8
:1052A000253094F8263060F03C0043F0200320774E
:1052B00084F82630607F94F8273040F0080061F0D1
:1052C000080162F03C0263F07F036077A176E2762A
:1052D00084F8273065E7092103A8FFF719FD0021AD
:1052E0000446082200F8011BFBF7C3F96023637131
:1052F00057E7072103A8FFF70BFD0146002301F83C
:10530000013B1846FFF74EFB4BE7102A00F0A68042
:1053100047D8062A00F0E38022D8022A7FD00FD88F
:10532000012A7FF4FCAEA068FFF7CAFE324BC3E946
:105330000001012103A8FFF7EBFC0023037030E715
:10534000032A79D0052A7FF4EAAEA1680120FFF78D
:1053500043FB0446012103A8FFF7DAFC047020E7B1
:10536000092A00F0C1800BD8072A00F04881082ADA
:105370007FF4D5AEA368591C187805F0CBFAD8E7AE
:105380000A2A00F0B7800F2A7FF4C9AE022103A8D1
:10539000FFF7BEFC00230370044605F0D7FB6070E6
:1053A000FFE61C2A7FD012D8122A64D05FD3172AB6
:1053B00065D0182A7FF4B3AE092103A8FFF7A8FC33
:1053C000002300F8013B0821FFF726FBE9E6382A15
:1053D00000F08A8012D8362A00F08180372AC7E789
:1053E000EEE0000053E10000F40900206DE1000050
:1053F000ABE10000004D0020084D0020392A79D093
:105400004B2A7FF48CAE032103A8FFF781FC0146F1
:10541000002301F8023B0130FFF7FAFAC1E604214C
:1054200003A8FFF775FC002303706FF0040283707C
:105430000A234270C370B4E6092103A8FFF768FC91
:1054400000210446082200F8011BFBF712F90C2387
:1054500063704023A3700123E370A2E6012103A837
:10546000FFF756FC044605F073FB207099E6A06830
:1054700005F084FB6DE7A06805F0B8FB69E7A0685C
:10548000002304AA00F1100105F074FC112103A807
:10549000FFF73EFC0023102200F8013B0DEB020158
:1054A000FBF7BBF87DE6092103A8FFF731FC0446B2
:1054B000064604F8015B06F037FE03270346864ADA
:1054C000864907208DE8A000FCF79AFE2146384661
:1054D000FFF70AFC711D2846FFF706FC61E603A9E9
:1054E000A068FFF7ABFC5CE6A368591C187805F0D0
:1054F00077FA1EE703A9A068FFF7C8FC51E60D2163
:1055000003A8FFF705FC02224270C27001228271DB
:105510000B220023C27163220370837003714371F5
:10552000037242728372C37203733AE6412103A885
:10553000FFF7EEFB00210446402200F8011BFBF7B9
:1055400098F8637863F058036370A37843F003031B
:10555000A37026E6092103A8FFF7DAFB002100F873
:10556000011B0822FBF785F81BE65D4B04AA03F13B
:105570002806154618685968144603C40833B34210
:105580002246F7D1292103A8FFF7C2FB002300F828
:10559000013B2822294683E7A1680020FFF71CFA77
:1055A000C7E64FF08053D3F8A420013206D1D3F8D8
:1055B000A8304FF6FF729BB2934220D04FF0805537
:1055C000D5F8A030DB071AD5182103A8FFF7A0FBF8
:1055D00000260123044643700670D5F8A400A11CE0
:1055E000FFF782FBD5F8A830A371C3F3072363F05C
:1055F0003F03E3711022314604F10800B2E70221B3
:1056000003A8FFF785FB002303704370C9E5212140
:1056100003A8FFF77DFB0346002203F8012B4FF0A0
:1056200080520446D2F8901001314BD0D2F8941039
:10563000013147D0D2F89810013143D0D2F89C10F4
:1056400001313FD0D2F890001946FFF74DFB611DA4
:10565000D2F89400FFF748FB04F10901D2F8980052
:10566000FFF742FB04F10D01D2F89C00FFF73CFB71
:105670004FF08052D2F88030013304F1110327D06B
:10568000D2F88410013123D0D2F8881001311FD014
:10569000D2F88C1001311BD0D2F880001946FFF7E8
:1056A00023FB04F11501D2F88400FFF71DFB04F180
:1056B0001901D2F88800FFF717FB04F11D01D2F899
:1056C0008C0009E7102200211846FAF7D2FFCFE735
:1056D00010220021184645E7DAE000008FE10000C3
:1056E000CEE1000070B504468CB02379012B0D4645
:1056F00000F1080061D0023B032B53D8DFE803F030
:1057000002080E100A462146FFF73AFB0CB070BDA6
:1057100001232A462146FFF733FCF7E70423F8E785
:10572000444BD3E90023002203F00053134304F158
:105730000A0607D0404BD3E90023002302F480225D
:1057400013431ED1237A0CADC3F3801306223146D6
:105750000DF10D0005F8243DFAF75FFF637A1C4454
:1057600005AEA47A6442314664B22846FFF7CCFB0A
:10577000019400960023314A31490420FCF740FD92
:10578000C4E7082213212846FFF7E4FA0023037038
:10579000237AC3F380134370062231460230FAF7AE
:1057A0003CFFB3E7274A28490320FCF729FD404086
:1057B00080F311884FF0040002DFE17AE6880929BE
:1057C0000BD00C2910D0072931D1237B0E2B28D1E7
:1057D0002B46324600211A2003E001462B46324672
:1057E0000020FFF763FB91E7124BD3E9002300236E
:1057F00002F40062134389D008222846FFF77DFA9D
:105800000821681806F0A0F800230370A0F80160D2
:10581000237BC370B4F80D308380B4F80F30C3809D
:1058200074E70A4A0A490420FCF7EAFC6EE7094AD1
:10583000B9E700BF004D0020084D00200FE1000037
:10584000F6E1000024E100006BD8000033E1000025
:105850001DE2000042E100000379012B0FD00A2B6A
:1058600015D8012000FA03F313F4B06F12D113F02E
:105870003C0F10D183F0400343F380107047037A4C
:1058800003F00303032B0CBF0220032070474FF0EB
:10589000FF30704702207047064B4FF0FF3041F653
:1058A000FF71C3E90001044B1F200021C3E900017F
:1058B000704700BF004D0020084D002020BF40BFB2
:1058C00020BF7047F0B50D4B89B005460E4601AAC2
:1058D00003F1180718685968144603C40833BB421B
:1058E0002246F7D11B88238008AB1D4415F81C0CF9
:1058F000831B5842584109B0F0BD00BFEDCC0000F9
:105900000860704718B90B6843F000430B6070479C
:1059100018B90B6823F000430B60704770B5031D86
:10592000451E00249D4201D1204670BD15F8016F2F
:105930000022A018082AC0B201D10446F2E716F0EE
:10594000010F03D00029F0D00139C9B27608013225
:10595000EFE7000010B50C4A92F8CE3692F8CD165B
:105960008B4238BF92F8CC4692F8CD1638BF1B193F
:105970005B1ADBB298429DBF92F8CD16D2F8C836BA
:1059800053F82100002010BDF809002030B590F830
:105990005C3090F85D10994228D190F91D30002BB1
:1059A00026DBC48C828CA0F86440C48DA0F86220F1
:1059B00054437D2262434FF47A7492FBF4F2A0F8D0
:1059C000662090F86020012565F30102D2B2002321
:1059D00042F00402013980F87050C36680F86020FC
:1059E00080F85D1080F85E50184630BD012030BD53
:1059F000022030BD2DE9F84F0C78944281460F46C5
:105A000090463DD01F4ED6F8FC3633F83430038034
:105A100000254FF0020B06F5DE6A22B2D6F8FC062E
:105A2000B9F800E000EBC20130F83220964520D1F1
:105A30004868012820F003030AD9F3B1021D1CD0E5
:105A40004279D2B1027902F00302013A012A14D854
:105A5000012215444A60EDB213B15146FDF7DBFF58
:105A6000013496F80027E4B2A24208BF002444455E
:105A7000D3D13C702846BDE8F88FC1F804B0EBE7FD
:105A80000025F7E7F809002010B5094B93F8A42684
:105A9000824204460AD902464FF48271D3F89C062A
:105AA000FDF7CEFF10B1038CA34200D0002010BD43
:105AB000F80900202DE9F04186B0022305280546AB
:105AC0000F4602930CD0062836D03BD9073880B257
:105AD000FFF7DAFF002800F0F38090E840010FE0C4
