:10000000288F0020651E0000C11E0000FD1C00009E
:10001000FD1C0000FD1C0000FD1C0000FD1C00007C
:10002000FD1C0000FD1C0000FD1C0000E918000084
:10003000FD1C0000FD1C0000A5180000FD1C0000B8
:10004000291E0000DB6C0100291E0000291E000093
:10005000291E0000291E0000291E0000291E000084
:10006000291E0000291E0000291E0000291E000074
:10007000291E0000291E0000291E0000291E000064
:10008000291E0000291E0000291E0000291E000054
:10009000291E0000291E0000291E0000291E000044
:1000A000291E0000291E0000291E0000291E000034
:1000B000291E0000291E0000291E0000291E000024
:1000C000291E0000291E0000291E0000291E000014
:1000D000291E0000291E0000291E0000291E000004
:1000E000291E0000291E0000291E0000291E0000F4
:1000F000291E0000291E000000000000AD2A00009B
:10010000000000006D1C0000000000006D1C0000DD
:10011000000000006D1C0000000000006D1C0000CD
:10012000000000006D1C0000E4A80020912C0000DD
:10013000000000006D1C0000000000006D1C0000AD
:10014000000000006D1C0000000000006D1C00009D
:1001500000000000A16C0100000000006D1C000008
:10016000C0A8002059300000000000006D1C0000F5
:10017000000000006D1C0000000000006D1C00006D
:100180000000000099310000000000006D1C00001C
:10019000000000006D1C0000000000006D1C00004D
:1001A000000000006D1C0000000000006D1C00003D
:1001B000000000006D1C000000000000D56C010074
:1001C000000000006D1C0000000000006D1C00001D
:1001D000000000006D1C0000000000006D1C00000D
:1001E000000000006D1C0000000000006D1C0000FD
:1001F000000000006D1C0000000000006D1C0000ED
:10020000000000006D1C0000000000006D1C0000DC
:10021000000000006D1C0000000000006D1C0000CC
:10022000000000006D1C0000000000006D1C0000BC
:10023000000000006D1C0000000000006D1C0000AC
:10024000000000006D1C0000000000006D1C00009C
:10025000000000006D1C0000000000006D1C00008C
:10026000000000006D1C0000D0400B1CD1409C46DB
:10027000203AD34018435242634693401843704794
:100280009140031C90409C46203A934019435242AF
:100290006346D3401943704753B94AB9002908BF90
:1002A00000281CBF4FF0FF314FF0FF3000F08EB937
:1002B000ADF1080C6DE904CE00F01AF8DDF804E0A9
:1002C000DDE9022304B07047430803F05533C01A38
:1002D000830803F0333300F03330184400EB101080
:1002E00000F00F3000EB002000EB0040000E7047E4
:1002F0002DE9F0478C460D460446089E002B51D14F
:100300008A4217466DD9B2FA82FEBEF1000F0BD0B9
:10031000CEF1200C01FA0EF520FA0CFC02FA0EF7D1
:100320004CEA050C00FA0EF44FEA174A250CBCFB08
:10033000FAF81FFA87F90AFB18CC45EA0C4508FBC6
:1003400009F3AB420AD9ED1908F1FF3280F023819D
:10035000AB4240F22081A8F102083D44ED1AA4B25C
:10036000B5FBFAF00AFB105544EA054400FB09F915
:10037000A14509D9E41900F1FF3380F00A81A145B4
:1003800040F2078102383C44A4EB090440EA0840EB
:100390000021002E61D024FA0EF400233460736033
:1003A000BDE8F0878B4207D9002E54D0002186E8A3
:1003B00021000846BDE8F087B3FA83F1002940F038
:1003C0008E80AB4202D3824200F2FA80841A65EB3F
:1003D00003050120AC46002E3FD086E81010BDE892
:1003E000F08712B90127B7FBF2F7B7FA87FEBEF123
:1003F000000F34D1EB1B3A0C1FFA87FC0121B3FB31
:10040000F2F8250C02FB183345EA03450CFB08F310
:10041000AB4207D9ED1908F1FF3002D2AB4200F22E
:10042000D1808046ED1AA3B2B5FBF2F002FB105565
:1004300043EA05440CFB00FCA44507D9E41900F18C
:10044000FF3302D2A44500F2B8801846A4EB0C0496
:1004500040EA08409DE731463046BDE8F087CEF1DE
:10046000200405FA0EF307FA0EF720FA04F83A0C06
:1004700025FA04F448EA0308B4FBF2F14FEA184500
:1004800002FB11441FFA87FC45EA044501FB0CF30B
:10049000AB4200FA0EF409D9ED1901F1FF3080F0FA
:1004A0008A80AB4240F2878002393D44EB1A1FFA42
:1004B00088F5B3FBF2F002FB103345EA034500FB7D
:1004C0000CF3AB4207D9ED1900F1FF386FD2AB4204
:1004D0006DD902383D44EB1A40EA01418FE7C1F182
:1004E000200722FA07F88B4005FA01F448EA0303D3
:1004F00020FA07FE4FEA134CFD404EEA040EB5FB0E
:10050000FCF94FEA1E440CFB19551FFA83F844EA24
:10051000054509FB08F4AC4202FA01F200FA01FABF
:1005200008D9ED1809F1FF3043D2AC4241D9A9F105
:1005300002091D442D1B1FFA8EFEB5FBFCF00CFBBF
:1005400010554EEA054400FB08F8A04507D9E41809
:1005500000F1FF3529D2A04527D902381C4440EAD2
:100560000940A4EB0804A0FB02894C45C6464D4651
:1005700015D312D056B1BAEB0E0364EB050404FA9E
:1005800007F7CB401F43CC40376074600021BDE8C3
:10059000F0871846F8E69046E0E6C245EAD2B8EBA6
:1005A000020E69EB03050138E4E72846D7E7404629
:1005B00091E78146BEE7014678E702383C4445E7CB
:1005C000084608E7A8F102083D442BE7704700BF42
:1005D0002DE9F84386460F4605462C4614F8013BA4
:1005E000202B03D0A3F10901042957D82546F4E7AD
:1005F0002B2B04BFAC1C6B78002154E0302B27D18F
:10060000237803F0DF03582B54D16378102202348F
:1006100000290CBF6FF000484FF000480026B8FBDF
:10062000F2FC304602FB1C89A3F13005092D11D8DC
:100630002B469A421EDD751C07D0604517D801D1A4
:100640004B4514DC02FB0030012614F8013BEBE7BC
:100650000A22DDE743F02005613D192D0AD8A3F1F8
:100660004105192D8CBF572537255B1BE1E74FF05E
:10067000FF36EAE7731C07D120F0B4FD26230360A0
:1006800040462FB9BDE8F88301B14042BFB10EB179
:1006900004F1FF3EC7F800E0BDE8F8832D2BA7D199
:1006A0006B78AC1C0121002AA8D0102AB0D1302BC5
:1006B000A6D0ADE73023002AAAD10822A8E7BDE8DA
:1006C000F8830139034611F8012F0AB91A707047EF
:1006D00003F8012BF7E7C9B2034610F8012B91424A
:1006E00006D0002AF8D100290CBF18460020704718
:1006F0001846704710B50023C9B2044610F8012B04
:100700008A4208BF2346002AF7D1184610BD024688
:100710000346981A13F8011B0029FAD170470138D3
:10072000013910F8013F11F8012F934202D1002B3B
:10073000F7D11A46981A704770B582B1013A0C4643
:10074000034603D11A782078101A70BD1E782578D8
:10075000AE4200F1010001F10101EFD0F2E71046D5
:1007600070BD431A934210B500EB020304D3013964
:1007700002469A4208D110BD0A4412F8014D03F80E
:10078000014D8A42F9D110BD11F8014F02F8014B19
:10079000EFE781EA000313F0030F70B503460BD0B7
:1007A000013B0A4491421BD170BD002AFCD011F8D4
:1007B000014B03F8014B013A9C07F6D11E1F0D4671
:1007C000541B0C44032C06D822F003042144234478
:1007D00002F00302E4E755F8044B46F8044FEFE754
:1007E00011F8014B03F8014FDCE770B5C9B20346BD
:1007F0009C0711D141EA012444EA04441E46951B9A
:100800001D44032D0ED822F00304234402F00302FA
:100810001A44934209D170BD002AFCD003F8011B91
:10082000013AE5E746F8044BE9E703F8011BF0E776
:1008300070B50446B1FBF2F602FB1611CDB20929E0
:10084000CCBF272100213035294404F8011B314653
:10085000002EEFD13021221A934207DC23460021DB
:1008600003F80119834204D8104670BD04F8011B37
:10087000F1E71978047803F8014900F8011BF1E762
:10088000D0E9002330B502F001045B084FEA3202E0
:1008900012194FF000056B41C0E9002330BD000084
:1008A0002DE9F84FD0E900450234804645F10005B6
:1008B0004FF0000A4FF0000B002605270F4B16F8EB
:1008C000039020464A462946FFF7CEFC4A46B0FB35
:1008D000F7F00021FFF7D4FCA0FB0723A41A07FBC5
:1008E000013365EB030501361AEB000A4BEB010BF4
:1008F000032EE3D1C8E900ABBDE8F88FBA290200A6
:100900000B68002B10B510DD013B02680B604468DA
:100910000A21A2FB012301FB0433190F23F07043CA
:10092000C0E900233031C8B210BD3021FBE7000020
:100930002DE9F04FCFB01F46002309901291049388
:100940001078531C0193002846D025283CD14FF045
:10095000000920230093CDF81490CDF820904E4646
:10096000019B9A4813F8014B019D01932146FFF723
:10097000B2FE00283BD12A2C54D13A680292002AB8
:10098000BFBF5242029201220892019A3B1D147885
:100990001F46AB1C0193029BC92B28BFC82302939F
:1009A0002E2C7FD1019B1B782A2B51D00199002539
:1009B0000A240A4611F8013BA3F1300009284BD85C
:1009C00004FB0535303DF4E71299099B9847013047
:1009D00006D14FF0FF33049304984FB0BDE8F08F79
:1009E000049C03970134039F019A0494A8E7232CE5
:1009F00014D006D8002CEFD0202C08BF4FF00109EE
:100A0000AEE72D2C07D0302C0AD02B2C059B08BF2D
:100A100001230593A4E701230893A1E701269FE79B
:100A200000949DE7A4F13003092B0290B8D80A2165
:100A300015F8010BA0F13002092A044601D92B4612
:100A4000A8E7029B01FB0300A0F130030293EFE74C
:100A5000019A3D6801320437C92D02F1010314786F
:100A60000193A8BF4FF0FF3521465948FFF733FEE9
:100A700018B1019B1C7801330193672C40DC652C75
:100A800080F2A880472C00F0A5800EDC252C00F019
:100A9000D182452C00F09E80002C9DD0C82C40F3C4
:100AA000D38296E74FF0FF35DEE7632C6ED032DC61
:100AB000582CF3D13B1D03933968002E00F0B0820F
:100AC00030238DF86C3078238DF86D300DF16E0782
:100AD0002B4610223846FFF7ABFE582C04D11BAA38
:100AE0001378002B40F09E820DF16C0A002EA7EBCC
:100AF0000A0A50440CBF4FF000094FF0020929E0E8
:100B0000702C00F0658227DC6E2C00F0218200F34F
:100B10002682692CC2D13C683B1D002C039341DA2C
:100B20002D23B4F1004F8DF86C3040D061420DF1AF
:100B30006D0A2B4650460A22FFF77AFE059B824437
:100B40001BA8AAEB0000002B3CD1B9F1000F01D18A
:100B50004FEAD479013533E2752C00F05882782CB5
:100B6000A8D0732C9AD13B1D3968039300268B5D66
:100B7000002B40F04182002D80F24582002E00F0D3
:100B8000EC8132461BA8FFF704FE08E03B1D0393EF
:100B90003B688DF86C3000238DF86D3001264FF0E6
:100BA0000009ECE1059B23B12B238DF86C30214625
:100BB000BDE7B9F1000F01D02023F6E721460DF182
:100BC0006C0AB6E7DDF81490C4E700BFAF29020055
:100BD000B5290200073727F0070797E8030007F158
:100BE00008030393CB0243EA50530793C3020693CF
:100BF000DDE90623C1F30A5A884640F2FF7123F06B
:100C000000438A45CDE91623074639D113432CD139
:100C1000002878F10003B4BF2D232B238DF86C300E
:100C200049238DF86D304E238DF86E3046238DF8B4
:100C30006F300DF1700A00238AF80030059B1BA865
:100C4000AAEB0000002B40F02482B9F1000F07D17D
:100C50009DF86C90A9F12D03D3F1000949EB03092C
:100C6000C8283FF7B6AE064689E14E2361228DF8CB
:100C70006C308DF86D208DF86E300DF16F0ADAE76B
:100C800042EA0A0043EAEA71014336D043F00043E6
:100C9000002FCDE9162378F10003AAF2FE3A2EDAEE
:100CA0002D238DF86C300DF16D0800271AF1020F1D
:100CB00036DBBAF1000F66DC16A80AF1010AFFF76D
:100CC000DFFDBAF1040FF7D1002D24F02003B8BFE7
:100CD0000625472B7ED1002E7AD12B1C18BF01236D
:100CE000FA1C9B4602DB6B1C9F4277DD672C0CBF16
:100CF0006524452405F1010A75E04FF0000A059BC3
:100D00000BB12B23CDE7B9F1000F01D02023C8E7A9
:100D10000DF16C08C9E716A8FFF7B2FD0AF1010A48
:100D20000022179B0B920A93DDE90ABCB149169881
:100D30000022624508BF5945EDD30522A0FB020100
:100D400002FB0311CDE916010AF1010A013F4FF040
:100D5000000E6FF0004B4FF0000C00230C910D9330
:100D6000DDE90C239C4508BF934505D2BEF1000F79
:100D70009CD0CDE9160199E7001849410AF1FF3AE4
:100D80004FF0010EE9E716A8FFF78AFDDDE916012D
:100D90000AF1FF3A01374FF0000E00220E910F9238
:100DA000DDE90E234FF0000C6FF0004B9C4508BFAF
:100DB000934506D2BEF1000F3FF47BAFCDE916019B
:100DC00077E7001849410AF1FF3A4FF0010EE4E7D6
:100DD000002385E70023662C9B468BD107EB050A91
:100DE0002AEAEA7A66241023159300204EAB4FF0CE
:100DF000006163E93601BAF1100FA8BF4FF0100A85
:100E0000BAF1000F37D1DDE91623DDE91801121818
:100E10004B411093CDF844A0CDE91623DDE9102312
:100E2000002302F07042134306D016A8FFF738FDE6
:100E300016A8FFF725FD0137662C3DD1002F26DDD2
:100E40004744C24615A916A8FFF75AFD0AF8010B38
:100E50005745F7D1002706B955B156462E2306F857
:100E6000023BA846302318F1FF3816D20135AA44B8
:100E70005B468BBBDFE618461393FFF711FD139B10
:100E80001846FFF7FDFC0AF1FF3A139BB8E7302341
:100E900008F1010A88F80030DDE727B106F8013CC7
:100EA00001370136DFE715A916A81393FFF728FDD0
:100EB000139B06F8010CF4E715A916A8FFF720FD0F
:100EC000302888F8000018BF07F1FF378EBB85BBBC
:100ED00008F1010A5B463BB153461AF8012D302A4E
:100EE000FAD02E2A18BF9A4624F02003452B7FF40F
:100EF000A2AE5346002F03F8024B4FF06401BABF75
:100F00007F422D222B228AF8012097FBF1F202F179
:100F1000300001FB12770A21187097FBF1F202F101
:100F2000300001FB12723032587003F1030A9A70DC
:100F300081E608F1020A2E2388F801305544554510
:100F4000C8D015A916A8FFF7DBFC0AF8010BF6E7D5
:100F50003B1D03933B68049A1A60049C43E53B1DC8
:100F600003933968FEB130238DF86C3069BB0135CD
:100F7000009B8DF86D1018BF202389460093029BBB
:100F8000B34263DC049C1BAD26442D1B331B002B9A
:100F90007FF729AD1299285D099B984701303FF4EE
:100FA00018AD0134F2E71BA80DF16C0A2B4608229C
:100FB000A0EB0A0AFFF73CFC504401354FF0000952
:100FC000009B18BF202300934AE60DF16D00EBE76C
:100FD0003B1D039330238DF86C3078238DF86D30F2
:100FE0003968082310220DF16E00FFF721FC023052
:100FF000E3E700BF323333330136C82E7FF4B7AD99
:10100000002DFFF6BEADAE42A8BF2E46B6E53B1D95
:1010100003930A222B4639681BA8FFF709FCCCE78B
:101020001BAF55E5A3F1610119299CBF203B13704B
:10103000013255E51299099B2046984701303FF44B
:10104000C8AC049B01330493039786E7089B3BB12C
:101050001BAB20220299F2540136B142FAD191E73A
:10106000029B1BAC9D1B6019721C2146FFF779FB8C
:10107000009B202B08BF4FF000094D44A94501DB20
:10108000029E7FE79DF8003009F8043009F101095C
:10109000F4E7DDF81490E3E54B68012B07DD0B68FE
:1010A00018700B6801330B604B68013B4B600020EC
:1010B000704700000CB41FB509B90DF1030007AB70
:1010C00002900391069A0648019302A9FFF730FCAB
:1010D000029B00221A7005B05DF804EB02B0704765
:1010E000991000000048704760A900200048704730
:1010F0005CAA00201FB549B9064B029301920093E8
:10110000054A064B0649074801F0CAF805B05DF8E4
:1011100004FB00BFBE3D02005C2D0200E22902007C
:10112000632D0200682D02001FB500231A460D49E9
:10113000044619F017F9002811DA94F85D300A49CD
:101140000A4813F0100F18BF0A22094B029308BF78
:10115000022201920093074A074B01F0A1F804B064
:1011600010BD00BF5D140000632D02008D2D020034
:10117000BE3D0200862D0200212A020070B5002526
:1011800098B0182229460CA8059506950795FFF7F3
:101190002CFB1822294612A8FFF727FB6D4B0FCB1B
:1011A00008AC0DAE84E80F0086E80F000A2649F26D
:1011B0001023ADF84A30112205AB02213046ADF8BC
:1011C0003060ADF8486018F0E7FA0028624C09DAA0
:1011D0000190624B624A634963480294009401F0B3
:1011E0005FF816E0182212A9059818F047FD0028AC
:1011F00018DABDF84A200290130243EA12239BB288
:101200000193574A554B574958480394009401F0AD
:1012100047F801940094564B514A5249554801F001
:101220003FF895E007AB11220221304618F0B4FADE
:10123000002807DA019002940094484B484A494933
:101240004D48CCE718220CA9079818F017FD002884
:1012500007DA019002940094404B414A41494748C3
:10126000BDE706AB06220121304618F095FA0028AA
:1012700007DA019002940094384B394A39494048C2
:10128000ADE706983F4BC3633F4B0364182212A996
:1012900018F0F4FC00280EDABDF84A200290130280
:1012A00043EA12239BB20193039400942B4B2C4AE4
:1012B0002C493648ABE72946069818F093FF0028DA
:1012C00007DA019002940094244B254A25493048BE
:1012D00085E7274B2F4A2349019400942E4800F0BC
:1012E000DFFF2B462A462D49069818F097FF002865
:1012F00008DA019002940094294B194A19492948A7
:1013000000F0CEFF00231A462749059819F02AF865
:10131000002807DA01940094244B114A114924480B
:1013200000F0BEFF4FF0FF31224820F0A3FC104B2D
:10133000184A0C49019400941F4800F0B1FF059829
:1013400018F052FC079818F04FFC069818F04CFC67
:1013500018B070BD689C0020BE3D0200C629020086
:10136000862D0200632D02009F2A0200DC2A020063
:101370003F2A0200A12C02000E2B0200522B020079
:101380007E2B0200E5100000ED100000BB2B0200D8
:10139000ED2B02007E2C0200CD2C02002911000052
:1013A0002E2A0200192C020001150000052A020055
:1013B0004E2C020084000020852C02002DE9F04311
:1013C00085B0204D0395538E02930C46174601902D
:1013D0001D4B1E4A1E4900951E4800F061FF204625
:1013E0004FF0FF311AF00EFAD7F8089080464C46BD
:1013F0000026F4B94846BC6050F8083FBF69FF1AA0
:10140000394618F023F8494640461AF067FAD8F8EA
:10141000083093B9F61B039502948DE860000A4BDF
:101420000A4A0B490C4800F03BFF404605B0BDE8B6
:10143000F083A38924681E44DBE79A891B6814445F
:10144000E7E700BFBE3D0200D22902005C2D02008A
:10145000632D0200462A02006B2A020030B50546C1
:1014600085B00C46002936D091F83C301B4A1C4808
:10147000C3F3C3030A2B0CBF362334234021FFF7E9
:1014800019FE224629461648FFF798FF05462046D2
:101490001AF0FDF9AA680023CAB90092114928463A
:1014A00018F02AFF002816DA0F4B029301900093E0
:1014B0000E4A0F4B0F49104800F0F2FE28461AF072
:1014C000E6F90E4805B0BDE8304020F073BB9189C5
:1014D00012680B44E0E705B030BD00BFC32D020029
:1014E00041000020F5100000BE3D0200862D0200E4
:1014F000142A0200632D0200CD2D0200840000207A
:101500002DE9F04391F83C50374AC5F3C3050A2D45
:101510001F4691B00C460CBF362334234021804631
:101520003248FFF7C7FD04A920461FF05DFB864641
:10153000002833D12E4B019300932E4A2E4B2F4976
:101540002F4800F0ADFE224641462848FFF736FFFF
:10155000064620461AF09BF90A2DB3680CBF1822E4
:1015600008220021002B3AD1019100930297254BCC
:101570000AA9304618F0DDFE00280CDA1C4B029355
:10158000019000931B4A204B1C49204800F088FE24
:1015900030461AF07CF911B0BDE8F083A3689E686C
:1015A0000DF1180C06F108036246183618685968E0
:1015B000E146A9E803000833B342CC46F6D10FCA8E
:1015C0000BAE86E80F000A239EF80120ADF8283004
:1015D0009EF8003043EA0223ADF82A30B3E7988939
:1015E0001B680144BEE700BFFB2D02000000002085
:1015F000BE3D0200862D0200EB290200632D020091
:10160000052E0200F5100000F8290200CD2D020081
:1016100030B587B0204C2148214D00F041FE214BD0
:10162000214A224901940094214800F039FE4FF0EC
:10163000FF3200211F4820F0B3FA1F4A29460A2032
:101640001AF0D5FC002808DA02948DE83000154B1A
:101650001A4A16491A4800F023FE19F017F9002318
:101660000322154919F08CF919F010F9154919F0F0
:10167000AFFA00236FF008020593049303920293DC
:10168000019300934FF4FA620F4B1049104820F079
:10169000CDFC07B030BD00BFBE3D0200EE2C020005
:1016A000152D0200BD2902007E2C0200632D0200D0
:1016B000F52C020084000020789C0020862D02007A
:1016C000212D0200689C00207D110000B83300200D
:1016D0009C000020054B1B68082B01BF044B1868B9
:1016E000B0FA80F0400918BF0020704730010010A8
:1016F0003401001008B54FF02003EFF3118183F39C
:101700001188FFF7E7FF40B14FF080430022C3F894
:101710000C21C3F81021C3F83825FFF7DBFF10B107
:10172000384B394A1A60FFF7D5FF18B1374BFB2207
:10173000C3F81825FFF7CEFF48B13548354B02688E
:101740001B6822F00F0203F00F0313430360FFF73F
:10175000C1FF18B1304B4FF400721A60FFF7BAFFA7
:1017600048B14FF08043D3F80024D20744BF6FF054
:101770000102C3F800244FF01023D3F80022002AFE
:1017800003DBD3F80432002B2FDA244B0122C3F8F9
:101790000425D3F80024002AFBD04FF01022122198
:1017A000C2F80012D3F80024002AFBD04FF0102317
:1017B0001222C3F80422194B1A46D3F80014002948
:1017C000FBD00021C3F80415D2F80034002BFBD065
:1017D000BFF34F8F1249134BCA6802F4E062134300
:1017E000CB60BFF34F8F00BFFDE70D4B4FF0FF32D3
:1017F0009A62DA620C4B0D4A1A6081F3118800205C
:1018000008BD00BF8C5600404881030000F0004036
:10181000E40E0040580200104096024000E00140F3
:1018200000ED00E00400FA05CC9C00200090D003FD
:10183000084881684A897F2A0BD8C069884208D045
:1018400000B520F083F95DF804EB03494FF08052B6
:101850000A607047F82F002004ED00E004480023E0
:101860002021C21801332E2B82F80013F9D17047C2
:1018700000E100E0084A0949936809685966084987
:1018800018664B6843F080534B60002383F3118844
:101890009368586E704700BFF82F00201473020041
:1018A00000ED00E00E498A6828201044EFF3098C0F
:1018B00080E8F01F0B4F4FF00066202080F3118866
:1018C000CA698A603E60106E0023136680F3118837
:1018D00002F1280090E8F01F8CF30988704700009F
:1018E000F82F002004ED00E01EF0040F0CBFEFF312
:1018F0000880EFF30980816931F8021C11F0FF01C3
:1019000001D0022907D0404080F3118804494FF0EC
:1019100080520A60704700B500F030FA00BD000048
:1019200004ED00E010B5044620F0E6F82268014618
:10193000BDE81040014800F0B3BC00BF8B2F02008F
:1019400010B504461A4800F0ABFC04F11800194C1D
:10195000FFF7E8FFA36A9A0102D5174800F0A0FC40
:10196000A36ADB0102D5154800F09AFCA36A1803AC
:1019700002D5134800F094FC0E4CA36A590302D51B
:10198000104800F08DFCA36A9A0302D50E4800F0BF
:1019900087FCA36ADB0302D50C4800F081FC054AF2
:1019A000936A6FEA03436FEA1343936210BD00BF6B
:1019B0008C30020000ED00E0A5300200B9300200DA
:1019C000D4300200F3300200193102003431020039
:1019D00038B5044619480D4600F062FC04F11800C1
:1019E000174CFFF79FFFA36AD90604D51548BDE839
:1019F000384000F055BCA36A1A0701D51248F6E733
:101A0000A36A9B070FD5114800F04AFC616BA36ADB
:101A1000180612D50E4800F043FC75B1A36A23F0F6
:101A20008003A36238BDA36ADA0701D50948DEE75F
:101A3000A36A9B0601D50848D9E738BDD52F020017
:101A400000ED00E0EC2F0200FE2F02001230020039
:101A50002B3002003C3002005C30020038B50446F6
:101A60001D480D4600F01CFC04F118001B4CFFF74C
:101A700059FFA36AD80404D51948BDE8384000F0DE
:101A80000FBCA36A190501D51648F6E7A36A9A05A3
:101A900014D5154800F004FCA16BA36A1B0407D5FC
:101AA000124800F0FDFB1DB1A36A23F40043A362BA
:101AB0000A4B9B6A58050ED50D48DEE7A36A590507
:101AC000FAD4A36ADA0501D50A48D6E7A36A9B04CB
:101AD00001D50948D1E738BD522E020000ED00E0E3
:101AE000EC2F0200FE2F0200692E02002B300200B4
:101AF000832E02009F2E02005C30020038B5274D75
:101B00006B68C3F30803DA1E0446092A3AD8DFE8F3
:101B100002F00533352F393939393937204800F08B
:101B2000BFFBEB6A9A0703D51E4800F0B9FB0CE037
:101B3000EB6A5B0009D51C4800F0B2FB1B4B1B781D
:101B40004BB101212046FFF743FF21460020BDE8AD
:101B5000384000F017B9164B1B7823B101212046FD
:101B6000FFF77CFFF1E7134B1B889BB2002BECD0F7
:101B70002046FFF7E5FEE8E70021E3E70021EEE776
:101B80000D48D2E70D480E49A3F110020F2BD8BF24
:101B900001460C4800F084FBD7E700BF00ED00E0F1
:101BA000E62E0200FE2E0200202F020028ED00E0AB
:101BB00029ED00E02AED00E0402F0200B82E0200DF
:101BC000CD2E0200772F0200024A536943F0100322
:101BD0005361704700ED00E043B2002B08DB0122A7
:101BE00000F01F0002FA00F05B09024A42F82300ED
:101BF000704700BF00E100E043B2002B0DDB012283
:101C00005B0900F01F0002FA00F02033034A42F89B
:101C10002300BFF34F8FBFF36F8F704700E100E0E9
:101C20004209054B00F01F0053F82220012303FA5C
:101C300000F01040704700BF00E100E043B2002B0D
:101C4000A8BF03F1604301F101014FEA4111ADBFAB
:101C500003F5614300F00F00034BC9B2B6BFC9B230
:101C600083F800131954704714ED00E000F046B8F3
:101C700008B572B6044B986918B100229A611FF03A
:101C8000B7FA62B608BD00BFF82F0020F8B50C46C1
:101C90000546AA21204616461F46FEF7A6FD0A9BCA
:101CA00009990422284620F04FFAA6F12001214488
:101CB0000B4AAC6521F00701002322F00102EB641E
:101CC0002B65EE658A61069A4A60079A8A60089ACF
:101CD000CA600F604FF08072CA61A9642B66F8BDBC
:101CE000BD1F0200014910220A60704710ED00E09C
:101CF000404080F3118830BF704700BF404080F300
:101D00001188DFF81CC0DCF800C01CF4006C0CBFAC
:101D1000EFF30880EFF3098000B5FFF7EFFE00BD99
:101D200004ED00E0042838B504460D4613D005281C
:101D300013D0032813D10C4800F0B2FA1FF0DCFED8
:101D4000AA690146094800F0ABFA29462046BDE8D9
:101D5000384000F017B80648EEE70648ECE70146C1
:101D6000054800F09DFAE9E760310200DE3102002B
:101D700086310200A0310200BB310200014600683A
:101D8000FFF7D0BF052810B50CD020F0FFF860B1E8
:101D900020F0FCF80C4B0D49002808BF19460C48F0
:101DA00000F07EFAFFF7A4FFFCE720F0FFF8002820
:101DB000EED1084C0848A16800F072FAA068BDE8AE
:101DC000104000F00BB800BF1E3202001A320200B1
:101DD0002F320200F82F00204F32020038B505469E
:101DE0004FF02003EFF3118483F3118820F03CF9C6
:101DF0000B4B9B689D420DD10A4B5A68C2F30802F7
:101E000022B91FF0A3FE2046FFF734FD5A6842F0C6
:101E100080525A602046BDE838401FF0FBBD00BF2D
:101E2000F82F002000ED00E000B572B60B4A906973
:101E300000281EBF002191611FF0DAF962B6EFF3AE
:101E40000580A0F110004FEAC0000549014409C90E
:101E500098475DF804EBFFF7EBBC0000F82F00207B
:101E6000F8000000202080F311880848AA214FF4D0
:101E70000062FEF7BAFC05484FF40061401880F399
:101E80000988022080F3148800F006B868900020CA
:101E900030BFFFF7FDBF00BF08B5074B074A23F06F
:101EA0007F039360BFF34F8FBFF36F8F1FF01AFA5A
:101EB0001FF022FA1FF048FA0000000000ED00E0D9
:101EC00008B5FFF7E5FFBDE80840FFF7B1BC00002B
:101ED000154B16491A6830B50D68C2F307229542B2
:101EE0000FD8002248685A60954200F10C000AD1D0
:101EF00005225A600E4B01221A70BFF34F8FBFF3B9
:101F00006F8F002030BD50F80C1C50F8044C9A60C4
:101F100021F01F0141F01001114344F00104D96088
:101F200001321C61E0E700BF90ED00E0889C0020DA
:101F300004010020002070470B6801330B60014B47
:101F40001B681847D09C00202DE9F04F85B09B46B8
:101F50000E9CDFF890A0012CB8BF0124012B0CBF10
:101F6000302320231546804689460194029301269A
:101F70000A2700220AF101040AB9AA451FD2B5FBBB
:101F8000F4F049463030C04701360122013F012FAD
:101F9000B5FBF4F14FF00A0304FB1155BAFBF3FA59
:101FA000E8D1494605F13000C047BBF1030F03D12A
:101FB000019B9C1B002C0FDC05B0BDE8F08F019B42
:101FC000BB42E3DBBBF1020FE0D849460298039223
:101FD0000136C047039AD9E749462020C047013C53
:101FE000E8E700BFFFC99A3B0A688B6830B512B1B9
:101FF0004C68A34202DB01338B6030BD651EAB42EF
:102000000BBF8C605C1C00218C600CBFD154D05481
:1020100030BD0000014B1860704700BFD09C00200D
:102020002DE9F04F89B04FF0000A06460F460492A2
:102030001C464FF0FF39D0465546049B187810B91E
:1020400009B0BDE8F08F45B9252800F00C8139466C
:10205000B047049B01330493EFE7642861D019D89B
:1020600039280AD8312850D22D283CD030283DD0EC
:10207000252808D13946B0476FE0582800F08980FC
:10208000632800F0EA8039462520B047049B394692
:102090001878F0E7702872D006D8692841D06C28EB
:1020A0003CD06828D5D0EEE7752858D017D87328CB
:1020B000E9D1236804F1040B1C46254615F8010BF1
:1020C000002840F0BF80B8F1030F40F0D580E41A3B
:1020D000A9EB0404002C00F3BB805C463DE07828AB
:1020E00057D07A28DEE74FF00308B2E7B9F1000FC6
:1020F0000EDAB8F1000F00F0BC80A0F13009B8F1A1
:10210000000F08BF4FF00208A3E7B9F1000FF4DB9E
:102110000A2303FB0909A9F13009F0E70AF1010AD2
:1021200097E7BAF1010FC5BF073424F0070325680C
:102130001D68D4BF043403F10804002D05DA3946C4
:102140002D20B0476D4209F1FF39CDF8009043468C
:102150002A4639463046FFF7F7FE002579E7BAF1FF
:10216000010FC5BF073424F0070322681A68CDF8B1
:102170000090CCBF03F1080404344346E9E7394634
:102180003020B04739467820B0474FF008094FF06B
:102190000108BAF1010FC7BF073424F00703236811
:1021A0000593C2BF03F108041B6805934FF00802B2
:1021B0004FF00003D8BF04340393079393460BF109
:1021C000FF3B059B4FEA8B0023FA00F010F00F0055
:1021D00009D1079B13B9BBF1000F22D14FF0300E8C
:1021E00007E0069AEBE709288CBF4FF0570E4FF037
:1021F000300E394670440692B047039B0795013371
:102200000393BBF1000FECD1B8F1030FA5D1039BF1
:10221000C3EB4905002DA0DD39462020B047013D24
:10222000F8E7531E91450693EBDBB8F1010F03D19C
:1022300039463020B047E4E7B8F1020FE1D1394622
:102240002020F7E7394603932C46B047039B34E739
:1022500039462020B047013C3CE72068251D39461F
:10226000B0472C4679E7AA46A8464FF0FF3901252A
:10227000EFE64FF00108ECE65C460546E9E60000B3
:1022800013B502AC002344F8043D02460B46034854
:102290002146FFF7C5FE019802B010BD391F0000AE
:1022A0000FB407B504A951F8040B0191FFF7E8FF3B
:1022B00003B05DF804EB04B0704700000CB430B517
:1022C00085B008AB044653F8042B01900291002519
:1022D00001A9074800930395FFF7A2FE0398029B0C
:1022E0009842B8BF255405B0BDE8304002B07047F1
:1022F000E91F000070478B4238B515461C4605D8CB
:102300001A462946FEF745FA204638BD0024FBE769
:10231000FEF76BBAC3095A00134403EBC30383EA05
:102320004000C0B27047CB780278534003704B88AE
:102330004278534043700A68837883EA122383709B
:102340000A68C3785340C370CB7902795340037154
:10235000CB884279534043714A68837983EA1223D8
:1023600083714A68C3795340C371CB7A027A534070
:102370000372427A4B89534043728A68837A83EAB4
:10238000122383728A68C37A5340C372CB7B027B69
:1023900053400373CB89427B53404373CA68837BAA
:1023A00083EA12238373CA68C37B5340C3737047A5
:1023B0001FB502788DF8002042798DF80120827ACD
:1023C0008DF80220C27B8DF8032002798DF804205D
:1023D000427A8DF80520827B8DF80620C2788DF830
:1023E0000720027A8DF80820427B8DF80920827838
:1023F0008DF80A20C2798DF80B20027B8DF80C2015
:1024000042788DF80D20C37A82798DF80E208DF8F0
:102410000F3010236A461946FFF76DFF05B05DF8CF
:1024200004FBF8B5064608780C46FFF773FF05462F
:102430006078FFF76FFFA27863785340E2785340EB
:102440005D404540357060782778FFF763FF0546AB
:10245000A078FFF75FFFA3785F40E3785F407D409F
:1024600045407570A07865782778FFF753FF6F4077
:102470000546E078FFF74EFFE3785F407D4045403A
:10248000B5702078FFF746FF637825785D40A37824
:102490005D404540E078FFF73DFFEDB26840F070E9
:1024A000F8BD0000F0B5284E07460C460FCE8DB0A3
:1024B00001AD0FC50FCE0FC596E8070085E80700F0
:1024C000002F3CD0002C3CD0381F2146024610344F
:1024D0004B780D781B0443EA0563CD782B438D7848
:1024E000043143EA05238C4242F8043FF0D1174CF3
:1024F00004218A07036918D14FEA33631A0EA55CD9
:10250000DAB2A25C42EA0562C3F30745C3F30723CC
:10251000655DE35C42EA054242EA03220CAD21F02C
:1025200003032B4453F82C3C534050F8042F013143
:1025300053402C290361DCD101200DB0F0BD384699
:10254000FBE72046F9E700BF34290200743202009D
:102550002DE9F043154689B0804600285BD000295C
:102560005AD0002A5AD010230A4668461946FFF767
:10257000C2FE294668462A4CFFF7D5FE05F1100732
:10258000A146A03500261DF80630E35C0DF80630A4
:102590000136102EF7D16846FFF70AFF694604A8F6
:1025A000FFF73FFF01A905A8FFF73BFF02A906A817
:1025B000FFF737FF03A907A8FFF733FF334604AA45
:1025C00031466846FFF797FE394668461037FFF7F1
:1025D000AAFEBD42D6D100261DF8063019F80330F8
:1025E0000DF806300136102EF6D16846FFF7E0FEF2
:1025F00029466846FFF797FE33466A46314640460D
:10260000FFF779FE684632460021FFF781FE012080
:1026100009B0BDE8F083FBE70846F9E71046F7E7A5
:102620007432020010B591F90030002B01F10F0255
:10263000B4BF872300230F3014788A4283EA44030F
:1026400000F8013903D012F80139DB09F4E710BDB5
:1026500008B528B158220021FFF75AFE012008BD15
:1026600008BD10B5044690B110220021FFF750FEBE
:1026700004F1300010220021FFF74AFE00236364BA
:1026800000224FF48033C4E91423012010BD10BD93
:1026900070B50D461646044618B319B358220021EA
:1026A000FFF736FE2946A6643046FFF7FBFE2046BC
:1026B00010220021FFF72CFE04F11005A26C214628
:1026C0002046FFF745FF21462846FFF7ABFF294686
:1026D00004F12000FFF7A6FF2046FFF7C2FF01200C
:1026E00070BD70BD084670BDF8B50D46164604466F
:1026F00000285BD00AB90120F8BD002956D0D0E9E6
:10270000142352EA030151D012F1FF3243F1FF3397
:10271000C0E91423406C48B3C0F11007BE4200F179
:10272000300009D2334631462A462044FFF7E3FD04
:10273000636C1E446664DEE73B462A463946204405
:10274000FFF7D9FD00236364F61B3D44631E04F1CB
:102750000F005A7893F831104A4003F8012F834252
:10276000F7D1A26C21462046FFF7F2FE04F10F07D5
:10277000102E11D9631E691E5A7811F8010F4240BC
:1027800003F8012FBB42F7D1A26C21462046FFF788
:10279000DFFE1035103EEBE7002EACD033462A4664
:1027A000314604F13000FFF7A6FDC3E70020F8BD75
:1027B00070B50C46054670B371B34A6C102A1AD135
:1027C00001F11002611E013A04F10F0691F8310087
:1027D0004B78434012F8010F434001F8013F8E420D
:1027E000F4D1A26C21462846FFF7B2FE2046FFF73F
:1027F0002FFF012070BD02F130000021C2F1100254
:102800002044FFF785FD636C2344802283F8302049
:1028100004F12002D6E770BD084670BD13B5114C17
:10282000BFF35B8F2068BFF35B8F60B90E481EF06B
:10283000B3FCBFF35B8F54E8003F44E80002002A7A
:10284000F9D1BFF35B8F436804221B680DEB0201D3
:102850009847002802DA00F00DFD0190019802B0BF
:1028600010BD00BF08010020743302000A2838B5EB
:102870000446074D04D1286843680D215B689847DA
:1028800028684368E1B25B689847204638BD00BFBE
:102890000C0100200148FFF7BDBB00BF6D28000000
:1028A00008B504481EF078FC034B1860FFF7F2FFF0
:1028B000002008BD7E3302000C01002010B54FF04F
:1028C0002003EFF3118283F31188114C237823B98D
:1028D00082F311886FF0440010BD013BDBB223701E
:1028E00023B182F311886FF00F0010BD094B1878E7
:1028F000012128B1217082F311886FF00A0010BD08
:10290000197082F311884FF080425160187010BD29
:10291000120100201101002008B5002210460121FB
:10292000FFF78CF90020FFF757F9002008BD0000E1
:10293000F8B54FF02002EFF3118382F31188254A96
:102940001078441C147060B183F311884FF08043F9
:10295000D3F80C3413F4803F14BF00206FF0430011
:10296000F8BD1D4D2F782FB1107083F311886FF0D3
:102970000A00F8BD01262E7083F311884FF08044C1
:1029800019B33846FFF738F9C4F80071D4F80433A6
:10299000C4F804632660D4F8002192B10022C4F880
:1029A00000210E4A13F0010F4FF0010308BFC4F8D5
:1029B00008330020C2F88031FFF70EF900232B7096
:1029C000C4E720BF40BF20BFE5E7C4F80011266080
:1029D000F4E700BF120100201101002000E100E037
:1029E000F8B506460C464FF02002EFF3118382F350
:1029F00011882C4A157865B183F311884FF0804314
:102A0000D3F8183413F4803F0CBF6FF0430000205C
:102A1000F8BD0127177083F311882846FFF7ECF8FB
:102A20004FF080430221C3F80451D3F80423C3F8C4
:102A30000413C3F818459F60D3F8041171B39207CB
:102A4000194F58BF02224FF000014FF00105C3F8A3
:102A500004114FF0000058BFC3F80823C7F8805195
:102A6000FFF7BAF84FF0804300211822C3F808237B
:102A7000C3F80C11C3F8101114F00301BED11020DB
:102A8000C3F83805C3F804233046C3F80453FFF7EE
:102A90004FFF0028B2D1C7F80051AFE720BF40BFB9
:102AA00020BFC9E71001002000E100E0F8B54FF0B9
:102AB00080430546D3F808E1D3F80423D3F80C4447
:102AC000D3F80071D3F80401D3F80C11D3F81061D6
:102AD00002F00102BEF1000F03D04FF0000EC3F868
:102AE00008E127B14FF080430027C3F800713AB1E5
:102AF000E30341BF4FF080430122C3F808231A616A
:102B000020B14FF080430022C3F8042149B14FF0B7
:102B100080440021C4F80C112846FFF7CFFE0123A2
:102B2000636176B14FF0804300210124C3F8101196
:102B30002846C3F80443FFF7FBFE10B9014BC3F866
:102B40000041F8BD00E100E003689B689A68836873
:102B500010B5DC68002024FA00F3DB0707D500F588
:102B6000A27352F82330C3F304238B4204D0013004
:102B70000828F0D16FF0120010BD0068806800686E
:102B800041B9D0F8101521FA02F202F001021A60E0
:102B900000207047D0F81025F9E7006880680068C9
:102BA00049B9012191401BB1C0F8081500207047B8
:102BB000C0F80C15FAE7C0F80435F7E710B58368DC
:102BC0003AB11A680A605A68196002B9596000205F
:102BD00010BD18680028FAD081420ED15C680868E0
:102BE00032B9A142186000D1586000230B60EEE7B3
:102BF000A142106008BF5A60F7E702460068E9E7A3
:102C0000F8B514460268876892680D469668A1B9BF
:102C10002146FFF799FF002811DBBA68012303FA68
:102C200004F4144300F1400203FA00F0BC6046F8DB
:102C30002250C6F804032846F8BD6FF02200F8BD04
:102C4000F8B514460268866892680D46976889B997
:102C50002146FFF779FF00280EDBB268012303FA53
:102C600004F403FA00F022EA0404B460C7F808038D
:102C70002846F8BD6FF02200F8BD08B500220121FA
:102C80000620FEF7DBFF0620FEF7A6FF002008BDAA
:102C9000F8B5036806469B68B46898680022134636
:102CA0001546012700EB8201D1F800E1BEF1000FCB
:102CB00008D0C1F80051D1F81015C1F3042107FA6A
:102CC00001F10B430132082AECD1A56806201D4012
:102CD000FEF792FF246824B90620BDE8F840FEF70D
:102CE0007BBFA3681D42F5D063682A462146304663
:102CF0009847EFE72DE9F843144602688768926821
:102D000080469568106819B16FF02200BDE8F8831D
:102D100003F44072B2F5807FC3F30131C3F381390C
:102D200003F4403E56D0B2F5007F0CBF04220022CF
:102D3000BEF5803F08BF4FF0000E13F0010FDFF823
:102D4000C8C04FEA810104F5E0764ED00C2A43D189
:102D50004FF0010E0EFA04FEC0F808E549445CF895
:102D6000211041F003010A4340F8262013F002002D
:102D700047D09906C8D55A063ED413F0040F14BFA5
:102D80004FF480364FF40036F868FDF79DFA0828B6
:102D900035D021464046FFF7D7FE0028FB6808DA09
:102DA000DA4392FAA2F0002AB0FA80F008BF4FF09E
:102DB000FF302402012204F4F854824044F001045C
:102DC00000F5A27013433443FB6045F82040002017
:102DD000BDE8F8830C22ABE7042A02BF4FF0010ED6
:102DE0000EFA04FEC0F80CE5B8E749445CF821107F
:102DF0000A4342EA0E02B7E74FF44036C4E76FF0E9
:102E00000400BDE8F88300BFB833020003689B6884
:102E10001B68D3F8082132B10020C3F80801D3F8A9
:102E200018350B7070474FF0FF30704703689B6890
:102E30001B68C3F81C15D3F81C21002AFBD0002204
:102E4000C3F81C210846704703689B681B68D3F8C9
:102E5000240118B1D3F88004C3F8800400F00F00F7
:102E600070470000F8B503689B68054618481C6861
:102E70001EF092F9436806461F68062240F20113CD
:102E80000021B84773681F6800231946082230469E
:102E9000B8470623C4F80C350823C4F81435AB68CA
:102EA0004FF4E1321A602B689B681B684FF0EB729D
:102EB000C3F824250423C4F8003500200123C4F8F6
:102EC0001C01C4F80801A3602360024B6B60F8BDCD
:102ED00020340200303402002DE9F0418378C478B8
:102EE0001E1DA3420A4406441FD8E41AE4B2A142BC
:102EF0003EBF641AE7B20C462344A1EB040128BF8D
:102F00000027DBB2C9B23444A64209D183704378AA
:102F1000BB4282BF204B01221A600846BDE8F08107
:102F200016F8015B02F8015DEEE70578ED1AEDB2E7
:102F3000A9423FBF671AED19EFB20D4638BF5B18C3
:102F4000A1EB050132BFDBB227460023C9B296468A
:102F500006EB050C664519D1521B0029D6D0002C72
:102F6000D4D08C428ABF0B462346641A00F1040673
:102F7000A1EB03018CBFE7B20027C9B2F418A64247
:102F8000C4D016F8015B02F8015DF8E716F8018B72
:102F90000EF8018DDEE700BF00D0004030B5D0B1A3
:102FA000C27805788478531CDBB2AB4208BF00239B
:102FB000A34210D061B10A490244D1F80815117139
:102FC000C3700133DBB29D4208BF0023A34205D08A
:102FD0006FF00F0030BD6FF0360030BD002030BD07
:102FE00000D0004070B584680122114620461EF0D2
:102FF000D7FD04F11800012200211EF0D1FD0423A9
:1030000084F831300C23002584F83D300521114B24
:1030100084F830100D2684F8335084F8325084F848
:103020003C6084F83F5084F83E50D3F8042542F0C9
:103030000102C3F804250122C3F800513046C3F849
:1030400004231A602A46FEF7F9FD3046FEF7C4FD58
:10305000284670BD00D0004038B5124BD3F800317F
:10306000FBB18568012105F13C00FFF797FF10F1E6
:10307000100F04460DD010F1370414BF00210121B8
:1030800005F13000FFF78AFF044605F118001EF035
:1030900091FD044B00221034C3F800211CBF012213
:1030A0005A6038BD00D000402DE9F84385680F46CE
:1030B000144605F1180814B92046BDE8F883FF2C22
:1030C000234628BFFF23E41ADEB2A4B205F130097B
:1030D0004FF0FF3128461EF0CDFD31463A464846B6
:1030E000FFF7FAFE064628461EF064FD002EE2D0E9
:1030F0004FF0FF3140461EF0BDFDE9E713460248A0
:103100000A461946FFF7E8BE60010020084BC3F8E5
:103110004005D3F80435C01A20F07F40054B023833
:10312000984282BF044B4FF40032C3F8002170472D
:1031300000100140FDFF7F0000E100E010B5124BE0
:10314000124CD3F804052268801A20F07F40B0F5B5
:10315000A37F11D90E49096840F24713B0FBF3F081
:10316000884228BF084603FB002323F07F432360E7
:10317000084B18601EF0C0FD2068BDE8104000F24A
:103180004710FFF7C3BF00BF0010014078010020C7
:103190007401002060A80020024B0022C3F84021E7
:1031A000FFF7CCBF0010014046F23543984228BFDC
:1031B0001846054B1860054B1B6840F2471202FB8E
:1031C0000030FFF7A3BF00BF74010020780100208A
:1031D00008B5074B0022C3F84021064B4FF40032DC
:1031E000C3F88021FFF7AAFF034B01221A6008BD34
:1031F0000010014000E100E07401002070B51848A3
:103200001DF0CAFF48B34368164D1B68012198475B
:10321000154B00241C60154B01261E6040F247131D
:10322000C5F80845C5F840354FF48033C5F8443338
:10323000C5F804330E4BC5F840414FF40032C3F8D3
:103240008021314622461120FEF7F8FC1120FEF7BE
:10325000C3FCAE6020462E6070BD4FF0FF3070BDE5
:10326000A03302000010014078010020740100200A
:1032700000E100E030B50B4A0B48D2F80415D0E964
:103280000045D2F8043599420AD1084A40F2471362
:1032900003FB1413106823F07F4300FB043030BDA0
:1032A0001946ECE7001001403833002064A80020E4
:1032B00070B54FF02003EFF3118583F31188144CA0
:1032C000144E237803EBC312013303F0030332449B
:1032D000237085F31188402928BF40210E4D013805
:1032E000134602EB4106B34204D1002302F8113029
:1032F000104670BD4478240902332C5D03F8024C5B
:1033000010F8014F04F00F042C5D03F8014CEAE7BC
:10331000B3010020B40100209634020070B51D4AAC
:103320001D49137803EB4306013303F001031370C7
:1033300003788AB006EBC60604460E4407AD032B9D
:1033400021D8DFE803F0021A1C1E14492846FDF7B5
:10335000B8F962780492A2780392E2780292227914
:10336000019262790092A37905950D4A1B2130469E
:10337000FEF7A4FF30460AB070BD0A49E6E70A49E5
:10338000E4E70A49E2E70A4A0A212846FEF796FFDF
:10339000DFE700BFB20100207C0100204A340200B8
:1033A00073340200513402005834020062340200C7
:1033B0006C34020030B585B00446154668460322D9
:1033C000FDF7E7F90D2200210DF10300FDF70DFADD
:1033D00020466A46694609F059FA044620B9032294
:1033E00069462846FDF7D5F9204605B030BD13B52E
:1033F0000C4601AA0331FFF7DDFF48B9032201A9FA
:103400002046FDF799F9B0FA80F0400902B010BDEE
:103410000020FBE770B5CD1C06460C46284603216C
:1034200009F018FA60B9637903F03F0343F04003F1
:103430006371224629463046BDE87040FFF7BABFA7
:1034400070BD0000F0B40278012A04460B4617D084
:1034500003D3022A2CD0F0BC7047184A0D4602F163
:103460001007106851682E4603C60832BA42354626
:10347000F7D11278327062885A73120A9A73EAE7A7
:103480000E4A0D4602F11007106851682E4603C619
:103490000832BA423546F7D11278327062685A73F0
:1034A000C2F30721120CDA73120A99731A74D2E765
:1034B000014611221846F0BCFDF76BB9A734020093
:1034C00010B50C46017822788A428AB00ED069463F
:1034D000FFF7B8FF05A92046FFF7B4FF10220DF152
:1034E00015010DF10100FDF727F90AE0012A0AD0C4
:1034F00004D3022A0AD06FF0150002E040886388E6
:10350000C01A0AB010BD40686368F9E71022611C58
:103510000130E8E770B50B4D06460FCD8AB06C461A
:103520000FC40FCD0FC495E80300092E84E80300F3
:103530009BBF0AAB03EB8606034856F8280C0AB07B
:1035400070BD00BF60290200DC420200037842889F
:1035500013F0010305D10949897B082901D89F2A65
:103560000AD98088824207D81F2A05D9B0F5804F32
:103570008CBF00200120704700207047D89C00209D
:103580000722FDF706B900B5BFF35B8F50E8003F97
:1035900043EA010240E8002EBEF1000FF6D1BFF36E
:1035A0005B8F18465DF804FB4B09BFF35B8F50F847
:1035B0002300BFF35B8F01F01F01084100F0010001
:1035C000704700B5BFF35B8F50E8003F03EA01028C
:1035D00040E8002EBEF1000FF6D1BFF35B8F184616
:1035E0005DF804FB10B501F01F0301249C404B095A
:1035F00000EB8300E143FFF7E4FF044214BF012026
:10360000002010BDC378002B41F2883200F1740114
:1036100008BF002201481EF071BE00BF40330020E9
:1036200013B5837A04461BB90123037202B010BD9F
:10363000006FF8B100210830FFF7B6FFD0B1236F5B
:103640009B899B064CBF042303232372627A237A4F
:103650009A42EBD9084B01930093084A084B094959
:103660000948FEF71DFE0521204602B0BDE81040C6
:1036700002F0C2BF0223E8E7BE3D0200862D020031
:10368000A8350200E8720200944202002DE9F041E0
:10369000064686B09079264F8846154615F064FD9B
:1036A000874213D0AC79204615F05EFD214B05937F
:1036B00003908DE84800049702941F4B1F4A20494D
:1036C0002048FEF7EDFD06B0BDE8F081284615F074
:1036D00051FD1D4C04EBC0004388B34210D0284676
:1036E00015F048FD134B039304EBC00014494288C6
:1036F00002928DE84800114A0F4B1448FEF7D0FDA6
:10370000284615F037FD04EBC0004368002BDAD0E3
:10371000284615F02FFD04F83080284615F02AFDC4
:1037200004EBC000406806B0BDE8F0411EF042BAAC
:103730009CAA0020BE3D02000D3602001640020089
:10374000E87202001D400200B8030020624002003F
:10375000C0F3072310705370000CC1F307231171DD
:10376000090C90709171000A090AD0705371D171DF
:10377000704700002DE9F047804689461348144DF4
:103780004FF0FF3115F084FD044600F108060021DA
:103790003046002715F09BFD2775204615F0EAFC02
:1037A00005EBC000A0F80280204615F0E3FC05EB15
:1037B000C00003214760304615F0F8FD80F8029004
:1037C000A0F800802046BDE8F08700BF9CAA00203A
:1037D000B803002070B5154686B00C4619B9FFF73E
:1037E000C9FF044668B30122002168461EF0D8F9DB
:1037F000204615F0BFFC144E06EBC000C0F804D004
:10380000204615F0A3FD2146104815F064FD42F254
:10381000107168461EF02EFA204615F0ABFC16F823
:10382000300030B1204615F063FD6FF0040006B0A3
:1038300070BD0DB12C60FAE7204615F059FD284601
:10384000F5E76FF03600F2E7B8030020AC9D0020EA
:1038500070B5154D062205F108010646FCF76CFF10
:103860000446D8B1062142F20500FFF783FF044663
:10387000B0B106223146083015F09EFD21460022E7
:1038800042F20500FFF7A6FF044638B9062231468A
:1038900005F10800FCF77DFF0123EB71204670BDA8
:1038A0006FF03604FAE700BFD89C002007B5062168
:1038B000684608F0CFFF40B99DF80530684603F030
:1038C0003F038DF80530FFF7C3FF03B05DF804FB3D
:1038D000F8B507460E4642F227002721FFF74AFFB8
:1038E0000446D0B12721083015F060FD3946054661
:1038F000FFF746FE31461022E81DFCF74AFF102272
:10390000002105F11700FCF770FF2146002242F26A
:103910002700BDE8F840FFF75DBF6FF03600F8BD47
:1039200000F13001FFF7D4BF38B50121054642F25E
:103930002D00FFF71FFF044658B12946083015F047
:1039400044FD2146002242F22D00BDE83840FFF739
:1039500041BF6FF0360038BD38B50221054642F24E
:103960000C00FFF707FF044628B30221083015F0CA
:103970001DFD012D024615D10A211048FFF714FE46
:10398000507015702146002242F20C00FFF722FF12
:10399000044628B9012D08D180210848FFF7F3FD1E
:1039A000204638BD00234370EBE76FF080010348E9
:1039B000FFF707FEF4E76FF03604F1E7489D0020BB
:1039C00038B50121054642F20A00FFF7D3FE04464E
:1039D000D8B108308DB1012115F0F7FC2146002245
:1039E00042F20A00FFF7F6FE044620B93DB120215D
:1039F0000748FFF7C8FD204638BD2946ECE76FF0C1
:103A000020010348FFF7DDFDF5E76FF03604F2E72C
:103A1000489D00202DE9F8430C462021074690469A
:103A2000FFF7A8FE064600283CD02021083015F0FC
:103A3000BDFC202200210546FCF7D7FE4FF000090F
:103A4000C14506D1314638460022BDE8F843FFF7AC
:103A5000C1BE62782B78D11802311F2904F1080405
:103A600006DD304615F044FC6FF01500BDE8F88324
:103A7000E918501C4870981CC0B20133287055FAE0
:103A800083F314F8081C5970013054F8041C2844BE
:103A9000FCF77FFE2B7814F8072C13442B7009F1E8
:103AA0000109CDE76FF03600BDE8F883028843884E
:103AB0009A4210B518D8052A16D9B3F5486F13D80D
:103AC0008488B4F5FA7F0FD2C188A1F10A0292B2BC
:103AD00040F67640824207D804FB0333B3EB810FF4
:103AE000B4BF0120002010BD002010BD2DE9FF4112
:103AF000664D95F8A43006462C461BB195F8A520D6
:103B00009A4209D994F8A530013384F8A5300025EC
:103B1000284604B0BDE8F0810221002002F0BEFC7E
:103B2000804680B14FF4805105F17000FFF72BFD06
:103B3000042106F10800FFF726FD404602F0D0FC04
:103B40006FF00A05E4E7052105F17000FFF72CFD91
:103B5000074610B14046FFF733FF07214C48FFF7F7
:103B600023FD804610B10020FFF7F6FE94F8A53043
:103B7000E3B10020FFF7D8FE0546B8B1454B0193ED
:103B80000093454A454B46494648FEF789FB0120CC
:103B9000FFF7CAFEB8F1000F02D00120FFF7DCFEEC
:103BA000002FB5D00120FFF70BFFB1E794F8A52057
:103BB00094F8A4309A421DD1364E384B364A3849D3
:103BC000019600963848FEF76BFB0022114642F240
:103BD0002900FFF7FFFD054630B1019600962F4BF7
:103BE000324A2F493248D0E794F8A530013384F89F
:103BF000A530CCE706F130013046FFF769FE0546F7
:103C000038B1244B01930093284A244B2449294876
:103C1000BBE794F8A530013384F8A53094F845301B
:103C20005B0707D41B4B019300931B4A224B1C4993
:103C30002248AAE7314602A8FFF7A2FC0123082187
:103C400042F24E008DF80F30FFF794FD0446C8B1E4
:103C500008220DEB0201104415F0AEFB21462A4666
:103C600042F24E00FFF7B6FD044600288FD0094B04
:103C7000019300930D4A094B09491148FEF710FBC7
:103C8000254684E76FF03604F1E700BFD89C00209A
:103C9000489D0020BE3D02001640020094350200FF
:103CA000E87202004C37020081370200862D0200C4
:103CB000C2370200F23702008035020022380200CB
:103CC0005C3802002DE9F0434D4C94F8A43085B0E7
:103CD0000646254623B194F8A52001339A4209DD12
:103CE00095F8A530013B85F8A5300024204605B0A5
:103CF000BDE8F0830221002002F0D0FB804678B1BD
:103D00004FF4805104F17000FFF73DFC082170185A
:103D1000FFF739FC404602F0E3FB6FF00A04E5E7E9
:103D2000052104F17000FFF73FFC074610B1404643
:103D3000FFF746FE07213348FFF736FC804610B1F7
:103D40000020FFF709FE0020FFF7EEFD0446D8B182
:103D50002D4B02938DE818002C4A2D4B2D492E48EF
:103D6000FEF79EFA95F8A53013B10120FFF7DCFDB0
:103D7000B8F1000F02D00120FFF7EEFD002FB5D003
:103D80000120FFF71DFEB1E795F8A53095F8A420B6
:103D90009A420BD2013B85F8A530B3891F4923F025
:103DA0000203B381022007F089FCDBE7072142F21E
:103DB0002800FFF7DFFC8146F0B10721083015F03D
:103DC000F5FA3146FFF7DCFB2246494642F228006D
:103DD000FFF700FD044648B10B4B019300930B4ADB
:103DE0000B4B0C490E48FEF75BFABBE795F8A53084
:103DF000013B85F8A530B5E76FF03604B2E700BFA8
:103E0000D89C0020489D0020BE3D0200862D020067
:103E10009E350200E8720200873802002139000056
:103E2000C438020038B500F10805044602212846CE
:103E3000FFF7D8FB20B12046BDE83840FFF756BE5B
:103E400003212846FFF7CEFB20B12046BDE83840CD
:103E5000FFF738BF38BD012310B50621044600F82E
:103E6000013B08F0F7FC18B9A37963F03F03A37195
:103E700010BD0000024BD3F8E430DB68184700BFE8
:103E8000D89C002030B5044685B00D4619B9FFF71F
:103E900071FC0546F0B140F635439C4214D12846EA
:103EA000FFF7E8FF044660B10C4B02938DE8180061
:103EB0000B4A0C4B0C490D48FEF7F2F9284615F059
:103EC00017FA204605B030BD2946094815F003FA17
:103ED0000024F6E76FF03604F3E700BFBE3D0200B2
:103EE000862D0200B8340200E87202001A37020080
:103EF000AC9D002073B505460E46144600210722EE
:103F00006846FCF772FC21488DF8005000238DF8BC
:103F10000630012D0378ADF80160ADF803408DF84F
:103F200005300AD105217030FFF73EFB28B9FFF7B5
:103F3000BDFC0446F0B98DF80550072142F20B0094
:103F4000FFF718FC0446F0B107226946083015F067
:103F500033FA214642F20B00FFF794FF0120FFF7EE
:103F6000FBFC044630B9012D07D14FF4007108481D
:103F7000FFF709FB204602B070BD6FF400710448E2
:103F8000FFF71FFBF6E76FF03604F3E7D89C00203D
:103F9000489D002038B5082105461648FFF704FB68
:103FA000024608B1002038BD07211248FFF7FCFA8D
:103FB000D0B90121002002F071FA04460028F1D0A6
:103FC0004FF480610B48FFF7DEFA204602F088FAD2
:103FD000002D15BF3022122260214FF40061002015
:103FE000BDE83840FFF786BF1046FFF7B5FC002854
:103FF000DFD038BD489D00202DE9F0418EB00CAADD
:10400000002140F60340FFF7E5FB044600287ED17F
:104010000C9B9B681B786BB93F4A13603F4BBFF307
:104020005B8F012253E8001F43E800200028F9D1EC
:10403000BFF35B8F0C9815F05BF90CAA002141F2DD
:104040000300FFF7C7FB0446002860D10C9B344DEA
:1040500099680822013105F11600FCF79AFB0C98CB
:1040600015F046F921460CAA41F20100FFF7B2FB18
:104070002E46044600284AD10C9883685A78AA73C1
:10408000D9789A7842EA01222A821A79EA73197A4F
:10409000DA7942EA01226A825A799B7942EA032359
:1040A000AB8215F025F921460CAA41F20900FFF771
:1040B00091FB044658BB0C9B996806220131681C91
:1040C000FCF767FB0C982C7015F012F921460CAA2E
:1040D00041F20200FFF77EFB0446C0B90C9B9968D1
:1040E0004022013105F11E00FCF753FB0C9815F03E
:1040F000FFF8AB7E5D061FD40A4B019300930A4A7A
:104100000A4B0B490B48FEF7CBF86FF01204204620
:104110000EB0BDE8F08100BF14040020489D0020CF
:10412000D89C0020BE3D0200862D02005C360200B5
:10413000E8720200F938020021460CAA42F203009C
:10414000FFF748FB04460028E1D10C9B9968082240
:10415000013106F17800FCF71CFB0C9815F0C8F84B
:1041600021460CAA42F20200FFF734FB0446002865
:10417000CDD10C9B9B68B3F80120A6F8882042B1F2
:10418000DA78022A28BF0222114606F18C001DF0BF
:1041900007FD0C9815F0ACF8B47E14F0200400F084
:1041A000C98096F83A301C0713D50CAA002142F2B8
:1041B0001C00FFF70FFB04460028A8D10C98836869
:1041C00053F8012F5B68C6F88430C6F8802015F0DC
:1041D0008FF896F87830980600F1C880082142F2EE
:1041E0000100FFF7C7FA0446002800F0AA80082162
:1041F000084415F0DBF896F8783096F8795099076E
:1042000002464CBF2F200F209F0648BF40F04000C1
:1042100015F0090F18BF40F40060DD0796F8403034
:1042200003F0060348BF40F01000062B08BF40F41F
:10423000C0700021FFF78CFA2146002242F20100F3
:10424000FFF7C8FA044600287FF461AFB37E9806F2
:1042500021D4B6F88810F1B90CAA41F20500FFF795
:10426000B9FA044600287FF452AFB6F888307BB91B
:104270000C9B95489B6899785A7842EA0122A6F8E7
:1042800088209A88022A28BF022211461DF088FC45
:104290000C9815F02DF8082140F60140FFF76AFA56
:1042A000044600284DD00821084415F07FF896F800
:1042B0007830D907024640F1858081A1D1E900011B
:1042C000FFF746FA2146002240F60140FFF782FA46
:1042D000044600287FF41BAF01460CAA4FF60140AC
:1042E000FFF778FA794D002870D0794B794A7A49EE
:1042F0007A4801950095FDF7D3FF002307220CA90A
:1043000077480C93CDF83330FCF716FA002840F0CC
:104310000981744F3B68002B40F0518196F8603062
:10432000DB0700F17081019500956F4B694A6A497E
:104330006E4875E1022140F66D40FFF71BFA054615
:1043400010B96FF03604E2E60221083015F02EF8BD
:104350000123447003702246294640F66D40FFF762
:1043600039FA044600283FF41CAFD0E60CAA00211D
:1043700042F22F00FFF72EFA044600287FF4C7AE62
:104380000C988368B3F80180B3F8037014F0B0FFA1
:10439000042142F22400FFF7EDF905460028D0D0B1
:1043A0000421083015F002F82246A0F8008047806A
:1043B000294642F22400FFF70DFA044600283FF494
:1043C0000DAFA4E64A484FF0005179E70C9B4249F3
:1043D0009C684848B4F801300293032B96BF464AC4
:1043E000464A52F823200192394B454A03950095DD
:1043F000FDF756FFB4F80130B4F80320022B3AD190
:10440000022A38D83F4B53F82230029201933C4A9B
:104410002F4B3149039500953B48FDF741FF6379E8
:104420000695D4F809100591032BB4F8071098BF2E
:10443000364A0491A17994BF52F823202F4A039160
:1044400002932549224B019200952D4A3048FDF7F1
:1044500027FF0C9814F04CFF0CAA00214FF60240E5
:10446000FFF7B8F9044640B101950095184B194A79
:10447000194928483FE7214BC7E70C9B2648996814
:1044800002220131FCF785F90C9814F031FF0CAAD7
:1044900021464FF60340FFF79DF930B10195009595
:1044A0000B4B0C4A0C491D4825E70C9B1C4899688E
:1044B00001221144FCF76DF90C9814F019FF1CE768
:1044C0009088000200800020649D0020BE3D020014
:1044D0008236020016400200E87202002D39020006
:1044E000D89C00202431002064360200CA3A020021
:1044F0001088000261390200B4410200DC4202006F
:104500007E2C0200A84102008A390200CC4202003F
:10451000B2390200EF390200379D0020283A02002C
:10452000369D0020624B18689A880A909B79ADF8F6
:104530002C200AA907225F488DF82E30FCF7FCF8E2
:1045400000283FF4E6AE5B48FEF7E8FE5A4B5B4AB4
:104550005B490190029500955A48FDF7A1FEB47B96
:104560002046FEF7D7FF0595B38A0493338A534A52
:10457000534903930294504B019000955248FDF724
:104580008FFEF47B2046FEF7C5FF0495738A0393E4
:1045900002940190484B494A494900954B48FDF720
:1045A0007FFE02F0B5F9044600287FF4B0AD022189
:1045B0004748FEF7E8FF2046FFF7ECFCA7E500219F
:1045C0001C683C4A07230846A04707287FF4A6AE8C
:1045D0003378012B04D1B37903F0C003C02B5BD037
:1045E000019500953B4B3C4A35493C48FDF758FE48
:1045F0006FF0150401950095394B374A3049394819
:10460000FDF74EFE83E509AA00214FF60940FFF7AA
:10461000E1F840B12F4B344A2949344801950095BF
:10462000FDF73EFE19E0099B99684B7853B10123D1
:10463000062202312E483370FCF7ABF8099814F0CB
:1046400057FEC5E701950095224B274A1C4929488A
:10465000FDF726FE099814F04BFE1648FFF7FBFB0A
:1046600004460028C6D13B687BB15F68114A072326
:104670000146B8470728ABD0164B174A10491E48C9
:1046800001950095FDF70CFEA2E701950095114BF1
:10469000154A0B491948F5E71548FFF7D9F80446BC
:1046A0000028A7D104210A48FEF76DFF4BE700BFA1
:1046B00088290200D89C0020743602007E2C02005B
:1046C000E8720200AC3B0200C93B0200173C02004A
:1046D000489D002064360200862D02006B3B0200DC
:1046E0008E3602004E3C020016400200613A020083
:1046F000D99C0020913A0200063B0200353B0200A3
:1047000010B5FFF779FC034B1B6813B1BDE81040EF
:10471000184710BD100400202DE9F0410D4601217D
:1047200001F0BCFE0446002868D007213448FEF79B
:104730003BFF00284FD102213148FEF735FF10B171
:104740003048FFF785F8304904F14F0004F156086E
:10475000FEF716FF29464046FEF712FF192142F2E6
:104760000D00FFF707F80646D0B31921083014F002
:104770001DFE192205460021FCF737F800276023AB
:104780002B70AB704146681D6F70EF70FEF7F8FE3E
:1047900094F84F302B73B4F86030A5F80D30B4F8AE
:1047A0006230A5F80F30B4F86430A5F81130B4F8D1
:1047B0006630A5F813303A46314642F20D00FFF755
:1047C00009F868B92046022101F040FD2046BDE805
:1047D000F04101F085BE0020FFF7BEF80028AAD006
:1047E0001F23E3722046002101F030FD204601F036
:1047F00077FE0020BDE8F041FFF7CCBBBDE8F081BB
:10480000489D0020D99C0020D89C002038B5072165
:10481000044642F23200FEF7ADFF054698B107218B
:10482000083014F0C3FD2388038000240223847021
:10483000C370037144718471294642F23200FFF75C
:1048400021FB204638BD6FF0360038BDF7B507466E
:1048500001AA002142F22F00FEF7BCFFD8B901984F
:104860008368B3F80160B3F8035014F041FD0621EA
:1048700042F22200FEF77EFF044670B106210830A6
:1048800014F094FD3B88038046808580214642F2E7
:104890002200FFF7F7FA03B0F0BD6FF03600FAE739
:1048A000F0B5B0F8016089B005460C216748B7B291
:1048B000FEF798FE18B16649022006F0FFFE2B783D
:1048C0007BB10221002001F0E9FD044638B12B78CC
:1048D000C372002101F0BAFC204601F001FE09B0CC
:1048E000F0BD2C1D214606A8FEF74AFE9DF81830A3
:1048F000023BDBB2012B29D8062205F111010DF193
:1049000011008DF81830FBF744FF01238DF81030AB
:10491000022106A801F0C2FDEB78012B044609D163
:104920006FF020014948FEF74CFEA4B906A801F03B
:1049300053FC04467CB9474B02938DE88800464AF5
:10494000464B47494748FDF7ABFCC8E7214604A85A
:10495000FEF716FEDCE7204606A920F8486BFEF7B6
:104960000FFE2A7EEB7D43EA0223A4F85E30AA7E86
:104970006B7E43EA0223A4F86430EB7E2A7F43EA8D
:104980000223A4F86630EE78E670012E1AD1364F75
:1049900004A904F14F00FEF7F3FD394604F1560077
:1049A000FEF7EEFD062107F17000FEF7FDFD48B1B0
:1049B000D7E92023002203F04003134302D03046FE
:1049C000FEF7FEFF0321204601F040FC237B032B72
:1049D00018D1EB7823B1244B93F87830190718D508
:1049E000022142F21600FEF7C5FE054688B10221FB
:1049F000083014F0DBFC23880380294642F21600BD
:104A0000FFF740FA204601F06BFD0020FFF7C2FAE5
:104A100065E7154D95F87920D20708D52046FFF7B0
:104A2000F5FE20B98021201DFEF7ADFDEAE795F8DF
:104A300078309B0606D52046FFF708FF10B94FF4E3
:104A40008071F0E72046FEF7DDFDDBE7489D0020A2
:104A5000253E0000BE3D0200862D0200FF3402000C
:104A6000E872020050410200D89C002070B5064652
:104A70000D4642F221000321FEF77CFE044660B1A0
:104A80000321083014F092FC85700680214642F222
:104A90002100BDE87040FFF7F5B96FF0360070BD3A
:104AA0002DE9F04FDFF848A14F4D85B09AF80D3051
:104AB0004E486FF307138AF80D3001F045FB00F103
:104AC00001094FF0FF32494649481DF0E7FD48B95A
:104AD000484C474E04F1D40BB9F1000F11D11CF032
:104AE000EDFFE3E7404B01930093434A434B4449B6
:104AF0004448FDF7D5FB404080F311884FF0040097
:104B000002DF737B1B09012B52D9042B62D1377B47
:104B1000002F51D13946584614F0C0FB804638B9B1
:104B2000314B01930093344A374B35493748E0E71E
:104B30004FF0FF3136481DF09DF8D4F8C0306BB10E
:104B4000314B2D4A2E49019500953248FDF7A8FBBF
:104B5000D4F8C00014F0CCFBC4F8C070404614F088
:104B6000F5FBC4F8C0004046FFF784F900B3264BBC
:104B7000214A23490190029500952748FDF790FBB3
:104B800023481DF017F8404614F0F4FA234B03EBCA
:104B9000C00000221F214088FEF778FDD4F8C00035
:104BA00014F0A6FB00234046C4F8C03014F0A0FB6C
:104BB000143609F1FF398FE7012F04D130691C3811
:104BC00001F0EEF9F4E7022FF2D130692C3801F050
:104BD00023FEEDE7019302950095114B114A084918
:104BE0001148FDF75DFBE3E7BE3D0200D49D0020C8
:104BF000C09D0020D89C0020862D02004E36020069
:104C0000E8720200A540020036360200CF400200E2
:104C1000809D0020F44002001A370200B8030020F3
:104C20003F360200164002001F4102002DE9F04FFE
:104C3000037D012B95B0044640D0032B40F0348413
:104C400083681E885D88C6F30B03C382FF23437508
:104C50000421083014F0FAFBA28995420ED0A24B31
:104C60000393019200930295A04BA14AA149A24847
:104C7000FDF716FB204614F03BFB1BE0E08A01F039
:104C8000C1FB054658B9984BE28A02930192009302
:104C9000974A964B97499948FDF702FBEAE701F0DE
:104CA0002BFE320B60752146284601F0B9F82846E4
:104CB00001F016FC002015B0BDE8F08F8668327850
:104CC000132A00F20284934013F40C2F00F0FD83AA
:104CD000854B01930093864A894B86498948FDF7A5
:104CE000DFFA404080F311884FF0040002DFA7682C
:104CF0003E78002EBED1B7F80180404601F082FB1D
:104D00000546C8B9784B02938DE80801784A7E4B76
:104D100078497E48FDF7C4FA06217D48FEF744FC39
:104D20000028A7D005217A48FEF73EFC0028A1D133
:104D30000120FEF745FE9DE7FB78C3721CF0A2FA46
:104D4000744A3346995CAA2903D10133B3F56B7FCA
:104D5000F8D1C3F56B704FF46B7264218DE80500D8
:104D600041436D48B1FBF2F102916C49FDF798FAAD
:104D70000021284601F06AFAAE7800232B800EB19C
:104D800028465CE13146281DFEF70EFC30B128466E
:104D9000012101F05BFA3046FFF7FCF8284601F0EC
:104DA0009FFBB9E7A668B6F80170384601F02AFB08
:104DB000054640B94C4B02938DE88800584B4C4A4D
:104DC0004C49524868E73378827823B1002AD7D11A
:104DD000037A4372D4E7F3788372E2B90BB106F039
:104DE0007DFB2846FEF71CFC15E0A668B6F80170AE
:104DF000384601F007FB054628B93B4B02938DE886
:104E00008800484BDBE7317811B101F077FF31E7DB
:104E10008378002BE3D02846317801F06FFF2846D5
:104E200000F084FFACE7A1680B788DF83030B1F862
:104E30000130ADF83130CB788DF83330B1F80B302C
:104E4000ADF84730B1F80D30ADF84930B1F80F305A
:104E5000ADF84B300DAE4B7C8DF84D300431304603
:104E6000FEF78EFB0025062208A90DF13B000895F0
:104E7000ADF82450FBF78DFC304606F047FC0746A2
:104E8000A8B1B04213D006220DF135010DF1410059
:104E9000FBF77FFC39463046FEF772FB9DF8343055
:104EA00002338DF834300CA8FFF7FAFCE2E6062254
:104EB0000AA90DF141000A95ADF82C50FBF769FCE9
:104EC000F1E7A068F0E7A568B5F80170384601F091
:104ED00099FA064660BB044B02938DE88800124B9A
:104EE000034A04491148D7E6BE3D0200C834020017
:104EF000862D0200E8720200E63C02001A3D020024
:104F00002C360200A53E0200EA3402004C3D0200AD
:104F1000489D0020905100208B3D0200823D020000
:104F2000B9350200CC35020068350200BF3D0200F1
:104F30002B789BB92A79EB7843EA0223A0F85E30FC
:104F4000AA796B7943EA0223A0F86430EB792A7AD4
:104F500043EA0223A0F8663000F060FE30466EE0BF
:104F6000A668B6F80170384601F04CFA054628B933
:104F7000A64B02938DE88800A54BB1E7337823B99F
:104F80000822F11C6830FBF704FCA24E96F8792049
:104F9000D2070CD595F86930DB0708D52846FFF70E
:104FA00035FC20B98021281DFEF7EDFAE8E696F8D9
:104FB00078309F067ED595F868309E067AD52846CB
:104FC000FFF744FC002875D14FF48071EBE7A3682C
:104FD000D9789A781F8842EA0122ADF830205979B1
:104FE0001A7942EA0122ADF832209A79D97942EA57
:104FF0000122ADF834201A7A5B7ABDB242EA03236B
:105000002846ADF8363001F0FDF9804670B97F4B87
:1050100002938DE82800804A804B81498148FDF742
:105020003FF902212846FFF721FD23E60CA900F0F5
:1050300009FE38B91E212846FFF718FD404601F049
:105040004FFA17E60E2142F22000FEF793FB0646C8
:105050000028F3D00E21083014F0A8F90E220546DE
:105060000021FBF7C2FBBDF830306B80BDF8323059
:10507000AB80BDF83430EB80BDF836302F802B810B
:10508000314642F22000FEF7FDFED7E7A3681E88F6
:10509000304601F0B7F9054628B95C4B02938DE81C
:1050A0004800614B1CE708210430FEF79BFA0028FA
:1050B0003FF466AE2846FEF7A5FA61E6A368B3F8AA
:1050C0000160304601F09EF9054628B94F4B029326
:1050D0008DE84800554B03E7061D07213046FEF7D3
:1050E00081FA00283FF44CAE4A4B93F8783098068A
:1050F000E0D595F868309906DCD52846FFF7A6FB81
:105100000028D7D14FF4807130464DE7A5682F882D
:10511000384601F077F9064628B93C4B02938DE8F2
:105120008800434BDCE6D5F80220D5F8063013435F
:1051300027D16B892BBB0CA906F052FA08B31221B8
:1051400042F21A00FEF716FB074648B92F4B0193AF
:105150000093374B304A32493648FDF7A1F8FDE657
:105160001221083014F022F92B8820F8023B10227B
:105170000CA9FBF70EFB394642F21A00FEF782FE3D
:10518000ECE6336F002B40F0E98106F14807394621
:10519000202006F09DFA3067002840F0DF81394674
:1051A000012006F095FA306700286BD081898A06C5
:1051B00042D5D5F80220D5F8063013433CD1B5F8D6
:1051C0000A80B8F1000F37D1122142F21A00FEF71F
:1051D000D1FA07460028B9D01221083014F0E6F8B9
:1051E0002B88054625F8023B316FCA791A312846CB
:1051F000FBF7CFFA336FD8790F28BCD8C0F1100273
:1052000000212844FBF7F1FAB5E700BFBE3D0200DC
:1052100014350200D89C0020862D0200563502006D
:10522000E8720200BF3D02002C3502003F3502004B
:10523000FE350200F33D0200CB0723D5D0E912234F
:10524000D5F80690D5F802804B4508BF424519D1E4
:10525000B0F850206B899A4214D1122142F21A0000
:10526000FEF788FA074600283FF470AF1221083095
:1052700014F09CF82B88054625F8023B316FCA795B
:105280005231B4E7022142F21B002F88FEF772FA76
:10529000054620B9B24B01930093B24B5AE7022165
:1052A000083014F083F82946078042F21B0065E7B6
:1052B000A668AD486FF01001FEF783F9337843B963
:1052C000711C4022A948FBF764FA0821A648FEF7A2
:1052D0005AF9A74B1D68771C002D3FF4CBAC3278F0
:1052E0002B68002A0CBF3846002098476D68F3E70A
:1052F000A04DA0682A68002A3FF4BCAC037823B90B
:105300000130904700232B60B4E40020F9E72846E1
:1053100014F0A4F8DFF884B20790079B002B3FF449
:10532000A9ACA6680921284614F090F8337A3344D2
:10533000B0465B7A1F4618F8013F023B012B38D874
:1053400041460CA8FEF71CF99DF83030023B8DF861
:105350003030DBF80030A3B1284614F08FF8337AF0
:10536000B4F80C90A38182462B4679B23278DBF8F0
:1053700000700CA8B8472369A4F80C9013FA8AF3BC
:10538000A360082178483778FEF70EF928B9012F75
:1053900003D841460CA8FFF7BFF9317A28460131FE
:1053A00014F054F8079B03F1FF395FFA89F3079370
:1053B000B3E7404606F0AAF9002814BF014641466B
:1053C0000CA8FEF7DDF8C4E7284614F047F8DFF82C
:1053D000CCB10790079B002B3FF44CACA66817217B
:1053E000284614F033F8B37D3344B046DB7D1F46C6
:1053F00018F8013F023B012B38D841460CA8FEF7B4
:10540000BFF89DF83030023B8DF83030DBF80030CB
:10541000A3B1284614F032F8B37DB4F80C90A38100
:1054200082462B4679B23278DBF800700CA8B84778
:105430002369A4F80C9013FA8AF3A36008214A4860
:105440003778FEF7B1F828B9012F03D841460CA8E8
:10545000FFF762F9B17D2846013113F0F7FF079B92
:1054600003F1FF395FFA89F30793B3E7404606F08B
:105470004DF9002814BF014641460CA8FEF780F8FC
:10548000C4E7A589A0682946FDF712FF344B0493B1
:1054900003908DE84800384A384B3949394802951D
:1054A000FCF7FEFEFFF7E6BB2D4A02928DE80C00EA
:1054B0003349354B354A3648FCF7F2FE204613F0A7
:1054C00017FF6FF01500FFF7F6BB04F10805022186
:1054D000284613F0BBFF3678082E3FF463AC12D891
:1054E000052E3FF404ACA589A0682946FDF7E0FE2F
:1054F0001B4B049303908DE848000295254B1E4AF0
:105500001F492548CCE7302E3FF46FAC3E2EEAD140
:10551000A6680121284613F099FF3678731E0C2BDC
:10552000AFD801A252F823F0274E00000F5300001D
:10553000C74E0000614F00000D510000CF4F00002A
:105540008D500000B1520000F1520000C34E000027
:1055500083540000BD500000C9530000306F25E6A1
:10556000BE3D0200ED350200489D0020CC03002026
:105570000C040020C8030020164002001A36020066
:10558000E87202001A3E020097360200862D0200E1
:10559000813E02002C3602004F3E0200140400201F
:1055A0002DE9F04F037D8668012B87B004460ED0AD
:1055B000654B01930093654A654B66496648FCF765
:1055C0006FFE404080F311884FF0040002DF8289B3
:1055D000012A07D85C4B019300935C4A5C4B5D4900
:1055E0005E48ECE73278132A00F2A580934013F46A
:1055F0000C2F00F0A08000F108050221284613F0CE
:1056000025FF33780F2B1DD0132B2BD00E2B40F002
:105610008780A36803212846B3F801701E7813F031
:1056200015FFA368224619783846FEF72FF816B101
:105630004B481CF0BFFA204613F05AFE002007B07A
:10564000BDE8F08FA668B6F8028077780421284676
:1056500013F0FCFE224631784046FEF717F8002F83
:10566000E9D0E5E7A368384FDFF80891DFF8DCA060
:1056700004930026049B1B789E42DCDA049B03EB18
:105680008603B3F80120B3F803804FF02001EFF355
:10569000118B81F311881046059200F0B3FE059A34
:1056A000054660B90192029700974B465246294938
:1056B0002C48FCF7F5FD8BF311880136DAE78BF304
:1056C000118800F11C0BB8F1000F1CD04FF0200224
:1056D000EFF3118E82F31188696929B1AA6908680C
:1056E0006861914208BFA8618EF3118808F1FF3309
:1056F0001FFA83F859B9019700974B46524615494E
:105700001948FCF7CDFD284600F0EAFED5E75846DB
:105710001CF005F8284600F07DFA1CF04BFAD2E7A1
:10572000204613F0E5FD084B01930093074A084B10
:1057300008490E4843E7044B01930093034A044B86
:1057400004490B483BE700BFBE3D0200862D020026
:105750009F360200E8720200E43E0200283F020089
:10576000809D0020623F02008E3F0200B53F020094
:10577000D83F0200D0340200084AD2F8E4303BB9E6
:10578000816841B1C16831B1C2F8E4001846704780
:105790006FF0440070476FF015007047D89C0020F0
:1057A00070B52A4DD5F8E43086B006466BB9284B63
:1057B00001930093274A284B28492948FCF770FD9C
:1057C0006FF01204204606B070BD012105F1700093
:1057D000FDF7D9FE10F0010034D1224B22491E60A2
:1057E0006FF00803059004900393029001900090DD
:1057F0001E4B1F484FF46B721CF018FCD5F8E430B8
:105800009B689847044650B1114B02938DE81800ED
:10581000104A114B11491748FCF742FDD2E726B94F
:1058200006B0BDE87040FEF7E7BB012105F16C0052
:10583000FDF7A9FEC307C5D405F164010E481BF0AE
:105840006EFFBFE76FF04404BCE700BFD89C0020A8
:10585000BE3D0200862D0200AC360200E872020056
:10586000C53602001004002090510020A14A00001B
:1058700018040020EE3602004033002008B505F081
:1058800079FF18B18089003018BF012008BD0000E1
:10589000F0B585B005460C4617461E46FDF756FE88
:1058A00020B96FF01504204605B0F0BD05213E4833
:1058B000FDF77AFE002871D121463A4642F20800EF
:1058C000FEF7A8F804460028EDD1002E46D12B782B
:1058D000D90743D40F2200216846FAF786FF6B8868
:1058E000ADF80030AB88ADF8023007238DF80D30ED
:1058F0002B78DA073CD502212B482C4CFDF754FEBF
:1059000010B1601CFDF7A4FF23788DF8053000234B
:105910000F2142F206008DF80430FDF72BFF0446FC
:1059200000283ED00F226946083013F045FD21467D
:10593000002242F20600FDF74DFF04460028B2D1D6
:105940000120FEF73DF804460028ACD12B789B07D8
:10595000A9D440211448FDF716FEA4E70A9A31465F
:1059600042F20900FEF756F804460028B2D09AE742
:10597000A86870B1437913F0C00F92D1FDF768FFAA
:10598000044600288FD101238DF8053026B102236B
:10599000BEE7FDF78BFFF3E70323B9E76FF044049D
:1059A00081E76FF036047EE7489D0020D89C0020F8
:1059B00010B56FF040011048FDF703FE05210E48B9
:1059C000FDF7F2FD10B90024204610BD0020FDF7C0
:1059D000F7FF04460028F7D107210748FDF7E4FD4B
:1059E0000028F0D009210448FDF7DEFD0028EAD0A8
:1059F000FDF75CFFE8E700BF489D002038B505468D
:105A0000054813F045FC044620B10021083013F08E
:105A10005EFC2575204638BDBCAA002010B50146A5
:105A20004FF02003EFF3118083F311880B4A00231A
:105A3000D2F8C040C2F8C03080F3118824B90120E8
:105A4000BDE81040FFF7DABF012204F1080022751B
:105A5000A381194613F03BFC204610BDD89C0020C2
:105A60002DE9F341274E96F8403003F00603062B4C
:105A700007460ED0244B01930093244A244B25491A
:105A80002548FCF70DFC6FF02204204602B0BDE86B
:105A9000F081224D2B6843602860102106F17000D0
:105AA000FDF771FD10F0100801D00024EDE76FF054
:105AB000080106F17000FDF784FD4246414642F2BE
:105AC0002500FDF787FE044688B10F4B0193009334
:105AD000134A0F4B0F491348FCF7E2FB6FF010011C
